{
	"contracts/GepsToken.sol": {
		"GEPSToken": {
			"abi": [
				{
					"inputs": [
						{
							"internalType": "address",
							"name": "_presaleAddress",
							"type": "address"
						},
						{
							"internalType": "address",
							"name": "_rndAddress",
							"type": "address"
						},
						{
							"internalType": "address",
							"name": "_marketingAddress",
							"type": "address"
						},
						{
							"internalType": "address",
							"name": "_treasuryAddress",
							"type": "address"
						},
						{
							"internalType": "address",
							"name": "_teamAddress",
							"type": "address"
						},
						{
							"internalType": "address",
							"name": "_partnershipAddress",
							"type": "address"
						},
						{
							"internalType": "address",
							"name": "_liquidityAddress",
							"type": "address"
						},
						{
							"internalType": "address",
							"name": "_charityAddress",
							"type": "address"
						},
						{
							"internalType": "address",
							"name": "_reserveAddress",
							"type": "address"
						}
					],
					"stateMutability": "nonpayable",
					"type": "constructor"
				},
				{
					"inputs": [
						{
							"internalType": "address",
							"name": "spender",
							"type": "address"
						},
						{
							"internalType": "uint256",
							"name": "allowance",
							"type": "uint256"
						},
						{
							"internalType": "uint256",
							"name": "needed",
							"type": "uint256"
						}
					],
					"name": "ERC20InsufficientAllowance",
					"type": "error"
				},
				{
					"inputs": [
						{
							"internalType": "address",
							"name": "sender",
							"type": "address"
						},
						{
							"internalType": "uint256",
							"name": "balance",
							"type": "uint256"
						},
						{
							"internalType": "uint256",
							"name": "needed",
							"type": "uint256"
						}
					],
					"name": "ERC20InsufficientBalance",
					"type": "error"
				},
				{
					"inputs": [
						{
							"internalType": "address",
							"name": "approver",
							"type": "address"
						}
					],
					"name": "ERC20InvalidApprover",
					"type": "error"
				},
				{
					"inputs": [
						{
							"internalType": "address",
							"name": "receiver",
							"type": "address"
						}
					],
					"name": "ERC20InvalidReceiver",
					"type": "error"
				},
				{
					"inputs": [
						{
							"internalType": "address",
							"name": "sender",
							"type": "address"
						}
					],
					"name": "ERC20InvalidSender",
					"type": "error"
				},
				{
					"inputs": [
						{
							"internalType": "address",
							"name": "spender",
							"type": "address"
						}
					],
					"name": "ERC20InvalidSpender",
					"type": "error"
				},
				{
					"inputs": [
						{
							"internalType": "address",
							"name": "owner",
							"type": "address"
						}
					],
					"name": "OwnableInvalidOwner",
					"type": "error"
				},
				{
					"inputs": [
						{
							"internalType": "address",
							"name": "account",
							"type": "address"
						}
					],
					"name": "OwnableUnauthorizedAccount",
					"type": "error"
				},
				{
					"anonymous": false,
					"inputs": [
						{
							"indexed": true,
							"internalType": "address",
							"name": "owner",
							"type": "address"
						},
						{
							"indexed": true,
							"internalType": "address",
							"name": "spender",
							"type": "address"
						},
						{
							"indexed": false,
							"internalType": "uint256",
							"name": "value",
							"type": "uint256"
						}
					],
					"name": "Approval",
					"type": "event"
				},
				{
					"anonymous": false,
					"inputs": [
						{
							"indexed": true,
							"internalType": "address",
							"name": "previousOwner",
							"type": "address"
						},
						{
							"indexed": true,
							"internalType": "address",
							"name": "newOwner",
							"type": "address"
						}
					],
					"name": "OwnershipTransferred",
					"type": "event"
				},
				{
					"anonymous": false,
					"inputs": [
						{
							"indexed": true,
							"internalType": "address",
							"name": "from",
							"type": "address"
						},
						{
							"indexed": true,
							"internalType": "address",
							"name": "to",
							"type": "address"
						},
						{
							"indexed": false,
							"internalType": "uint256",
							"name": "value",
							"type": "uint256"
						}
					],
					"name": "Transfer",
					"type": "event"
				},
				{
					"inputs": [
						{
							"internalType": "address",
							"name": "owner",
							"type": "address"
						},
						{
							"internalType": "address",
							"name": "spender",
							"type": "address"
						}
					],
					"name": "allowance",
					"outputs": [
						{
							"internalType": "uint256",
							"name": "",
							"type": "uint256"
						}
					],
					"stateMutability": "view",
					"type": "function"
				},
				{
					"inputs": [
						{
							"internalType": "address",
							"name": "spender",
							"type": "address"
						},
						{
							"internalType": "uint256",
							"name": "value",
							"type": "uint256"
						}
					],
					"name": "approve",
					"outputs": [
						{
							"internalType": "bool",
							"name": "",
							"type": "bool"
						}
					],
					"stateMutability": "nonpayable",
					"type": "function"
				},
				{
					"inputs": [
						{
							"internalType": "address",
							"name": "account",
							"type": "address"
						}
					],
					"name": "balanceOf",
					"outputs": [
						{
							"internalType": "uint256",
							"name": "",
							"type": "uint256"
						}
					],
					"stateMutability": "view",
					"type": "function"
				},
				{
					"inputs": [],
					"name": "charityAddress",
					"outputs": [
						{
							"internalType": "address",
							"name": "",
							"type": "address"
						}
					],
					"stateMutability": "view",
					"type": "function"
				},
				{
					"inputs": [],
					"name": "decimals",
					"outputs": [
						{
							"internalType": "uint8",
							"name": "",
							"type": "uint8"
						}
					],
					"stateMutability": "view",
					"type": "function"
				},
				{
					"inputs": [],
					"name": "liquidityAddress",
					"outputs": [
						{
							"internalType": "address",
							"name": "",
							"type": "address"
						}
					],
					"stateMutability": "view",
					"type": "function"
				},
				{
					"inputs": [],
					"name": "marketingAddress",
					"outputs": [
						{
							"internalType": "address",
							"name": "",
							"type": "address"
						}
					],
					"stateMutability": "view",
					"type": "function"
				},
				{
					"inputs": [],
					"name": "mint",
					"outputs": [],
					"stateMutability": "nonpayable",
					"type": "function"
				},
				{
					"inputs": [],
					"name": "minted",
					"outputs": [
						{
							"internalType": "bool",
							"name": "",
							"type": "bool"
						}
					],
					"stateMutability": "view",
					"type": "function"
				},
				{
					"inputs": [],
					"name": "name",
					"outputs": [
						{
							"internalType": "string",
							"name": "",
							"type": "string"
						}
					],
					"stateMutability": "view",
					"type": "function"
				},
				{
					"inputs": [],
					"name": "owner",
					"outputs": [
						{
							"internalType": "address",
							"name": "",
							"type": "address"
						}
					],
					"stateMutability": "view",
					"type": "function"
				},
				{
					"inputs": [],
					"name": "partnershipAddress",
					"outputs": [
						{
							"internalType": "address",
							"name": "",
							"type": "address"
						}
					],
					"stateMutability": "view",
					"type": "function"
				},
				{
					"inputs": [],
					"name": "presaleAddress",
					"outputs": [
						{
							"internalType": "address",
							"name": "",
							"type": "address"
						}
					],
					"stateMutability": "view",
					"type": "function"
				},
				{
					"inputs": [],
					"name": "renounceOwnership",
					"outputs": [],
					"stateMutability": "nonpayable",
					"type": "function"
				},
				{
					"inputs": [],
					"name": "reserveAddress",
					"outputs": [
						{
							"internalType": "address",
							"name": "",
							"type": "address"
						}
					],
					"stateMutability": "view",
					"type": "function"
				},
				{
					"inputs": [],
					"name": "rndAddress",
					"outputs": [
						{
							"internalType": "address",
							"name": "",
							"type": "address"
						}
					],
					"stateMutability": "view",
					"type": "function"
				},
				{
					"inputs": [],
					"name": "symbol",
					"outputs": [
						{
							"internalType": "string",
							"name": "",
							"type": "string"
						}
					],
					"stateMutability": "view",
					"type": "function"
				},
				{
					"inputs": [],
					"name": "teamAddress",
					"outputs": [
						{
							"internalType": "address",
							"name": "",
							"type": "address"
						}
					],
					"stateMutability": "view",
					"type": "function"
				},
				{
					"inputs": [],
					"name": "totalSupply",
					"outputs": [
						{
							"internalType": "uint256",
							"name": "",
							"type": "uint256"
						}
					],
					"stateMutability": "view",
					"type": "function"
				},
				{
					"inputs": [
						{
							"internalType": "address",
							"name": "to",
							"type": "address"
						},
						{
							"internalType": "uint256",
							"name": "value",
							"type": "uint256"
						}
					],
					"name": "transfer",
					"outputs": [
						{
							"internalType": "bool",
							"name": "",
							"type": "bool"
						}
					],
					"stateMutability": "nonpayable",
					"type": "function"
				},
				{
					"inputs": [
						{
							"internalType": "address",
							"name": "from",
							"type": "address"
						},
						{
							"internalType": "address",
							"name": "to",
							"type": "address"
						},
						{
							"internalType": "uint256",
							"name": "value",
							"type": "uint256"
						}
					],
					"name": "transferFrom",
					"outputs": [
						{
							"internalType": "bool",
							"name": "",
							"type": "bool"
						}
					],
					"stateMutability": "nonpayable",
					"type": "function"
				},
				{
					"inputs": [
						{
							"internalType": "address",
							"name": "newOwner",
							"type": "address"
						}
					],
					"name": "transferOwnership",
					"outputs": [],
					"stateMutability": "nonpayable",
					"type": "function"
				},
				{
					"inputs": [],
					"name": "treasuryAddress",
					"outputs": [
						{
							"internalType": "address",
							"name": "",
							"type": "address"
						}
					],
					"stateMutability": "view",
					"type": "function"
				}
			],
			"devdoc": {
				"errors": {
					"ERC20InvalidApprover(address)": [
						{
							"details": "Indicates a failure with the `approver` of a token to be approved. Used in approvals.",
							"params": {
								"approver": "Address initiating an approval operation."
							}
						}
					],
					"ERC20InvalidReceiver(address)": [
						{
							"details": "Indicates a failure with the token `receiver`. Used in transfers.",
							"params": {
								"receiver": "Address to which tokens are being transferred."
							}
						}
					],
					"ERC20InvalidSender(address)": [
						{
							"details": "Indicates a failure with the token `sender`. Used in transfers.",
							"params": {
								"sender": "Address whose tokens are being transferred."
							}
						}
					],
					"ERC20InvalidSpender(address)": [
						{
							"details": "Indicates a failure with the `spender` to be approved. Used in approvals.",
							"params": {
								"spender": "Address that may be allowed to operate on tokens without being their owner."
							}
						}
					],
					"OwnableInvalidOwner(address)": [
						{
							"details": "The owner is not a valid owner account. (eg. `address(0)`)"
						}
					],
					"OwnableUnauthorizedAccount(address)": [
						{
							"details": "The caller account is not authorized to perform an operation."
						}
					]
				},
				"events": {
					"Approval(address,address,uint256)": {
						"details": "Emitted when the allowance of a `spender` for an `owner` is set by a call to {approve}. `value` is the new allowance."
					},
					"Transfer(address,address,uint256)": {
						"details": "Emitted when `value` tokens are moved from one account (`from`) to another (`to`). Note that `value` may be zero."
					}
				},
				"kind": "dev",
				"methods": {
					"allowance(address,address)": {
						"details": "See {IERC20-allowance}."
					},
					"balanceOf(address)": {
						"details": "See {IERC20-balanceOf}."
					},
					"decimals()": {
						"details": "Returns the decimals places of the token."
					},
					"name()": {
						"details": "Returns the name of the token."
					},
					"owner()": {
						"details": "Returns the address of the current owner."
					},
					"symbol()": {
						"details": "Returns the symbol of the token, usually a shorter version of the name."
					},
					"totalSupply()": {
						"details": "See {IERC20-totalSupply}."
					},
					"transfer(address,uint256)": {
						"details": "Moves a `value` amount of tokens from the caller's account to `to`. Returns a boolean value indicating whether the operation succeeded. Emits a {Transfer} event."
					}
				},
				"version": 1
			},
			"evm": {
				"assembly": "    /* \"contracts/GepsToken.sol\":15045:18007  contract GEPSToken is ERC20, Ownable {... */\n  mstore(0x40, 0x80)\n    /* \"contracts/GepsToken.sol\":15568:15594  bool public minted = false */\n  0x0e\n  dup1\n  sload\n  not(shl(0xa0, 0xff))\n  and\n  swap1\n  sstore\n    /* \"contracts/GepsToken.sol\":15603:16371  constructor(... */\n  callvalue\n  dup1\n  iszero\n  tag_1\n  jumpi\n  0x00\n  dup1\n  revert\ntag_1:\n  pop\n  mload(0x40)\n  sub(codesize, bytecodeSize)\n  dup1\n  bytecodeSize\n  dup4\n  codecopy\n  dup2\n  add\n  0x40\n  dup2\n  swap1\n  mstore\n  tag_2\n  swap2\n  tag_3\n  jump\t// in\ntag_2:\n    /* \"contracts/GepsToken.sol\":7928:8044  constructor(string memory name_, string memory symbol_) {... */\n  0x40\n  dup1\n  mload\n  dup1\n  dup3\n  add\n  dup3\n  mstore\n  0x04\n  dup1\n  dup3\n  mstore\n  shl(0xe0, 0x47455053)\n  0x20\n  dup1\n  dup5\n  add\n  dup3\n  swap1\n  mstore\n  dup5\n  mload\n  dup1\n  dup7\n  add\n  swap1\n  swap6\n  mstore\n  swap2\n  dup5\n  mstore\n  swap1\n  dup4\n  add\n  mstore\n    /* \"contracts/GepsToken.sol\":15960:15970  msg.sender */\n  caller\n  swap2\n    /* \"contracts/GepsToken.sol\":7995:8000  _name */\n  0x03\n    /* \"contracts/GepsToken.sol\":7995:8008  _name = name_ */\n  tag_8\n    /* \"contracts/GepsToken.sol\":7928:8044  constructor(string memory name_, string memory symbol_) {... */\n  dup4\n    /* \"contracts/GepsToken.sol\":7995:8000  _name */\n  dup3\n    /* \"contracts/GepsToken.sol\":7995:8008  _name = name_ */\n  tag_9\n  jump\t// in\ntag_8:\n  pop\n    /* \"contracts/GepsToken.sol\":8019:8026  _symbol */\n  0x04\n    /* \"contracts/GepsToken.sol\":8019:8036  _symbol = symbol_ */\n  tag_10\n    /* \"contracts/GepsToken.sol\":8029:8036  symbol_ */\n  dup3\n    /* \"contracts/GepsToken.sol\":8019:8026  _symbol */\n  dup3\n    /* \"contracts/GepsToken.sol\":8019:8036  _symbol = symbol_ */\n  tag_9\n  jump\t// in\ntag_10:\n  pop\n  pop\n  pop\n  sub(shl(0xa0, 0x01), 0x01)\n    /* \"contracts/GepsToken.sol\":13635:13661  initialOwner == address(0) */\n  dup2\n  and\n    /* \"contracts/GepsToken.sol\":13631:13728  if (initialOwner == address(0)) {... */\n  tag_12\n  jumpi\n    /* \"contracts/GepsToken.sol\":13685:13716  OwnableInvalidOwner(address(0)) */\n  mload(0x40)\n  shl(0xe0, 0x1e4fbdf7)\n  dup2\n  mstore\n    /* \"contracts/GepsToken.sol\":13713:13714  0 */\n  0x00\n    /* \"contracts/GepsToken.sol\":13685:13716  OwnableInvalidOwner(address(0)) */\n  0x04\n  dup3\n  add\n    /* \"#utility.yul\":3882:3933   */\n  mstore\n    /* \"#utility.yul\":3855:3873   */\n  0x24\n  add\n    /* \"contracts/GepsToken.sol\":13685:13716  OwnableInvalidOwner(address(0)) */\n  mload(0x40)\n  dup1\n  swap2\n  sub\n  swap1\n  revert\n    /* \"contracts/GepsToken.sol\":13631:13728  if (initialOwner == address(0)) {... */\ntag_12:\n    /* \"contracts/GepsToken.sol\":13738:13770  _transferOwnership(initialOwner) */\n  tag_15\n    /* \"contracts/GepsToken.sol\":13757:13769  initialOwner */\n  dup2\n    /* \"contracts/GepsToken.sol\":13738:13756  _transferOwnership */\n  tag_16\n    /* \"contracts/GepsToken.sol\":13738:13770  _transferOwnership(initialOwner) */\n  jump\t// in\ntag_15:\n  pop\n    /* \"contracts/GepsToken.sol\":15983:15997  presaleAddress */\n  0x06\n    /* \"contracts/GepsToken.sol\":15983:16015  presaleAddress = _presaleAddress */\n  dup1\n  sload\n  not(sub(shl(0xa0, 0x01), 0x01))\n  swap1\n  dup2\n  and\n  sub(shl(0xa0, 0x01), 0x01)\n  swap12\n  dup13\n  and\n  or\n  swap1\n  swap2\n  sstore\n    /* \"contracts/GepsToken.sol\":16026:16036  rndAddress */\n  0x07\n    /* \"contracts/GepsToken.sol\":16026:16050  rndAddress = _rndAddress */\n  dup1\n  sload\n  dup3\n  and\n  swap10\n  dup12\n  and\n  swap10\n  swap1\n  swap10\n  or\n  swap1\n  swap9\n  sstore\n    /* \"contracts/GepsToken.sol\":16061:16077  marketingAddress */\n  0x08\n    /* \"contracts/GepsToken.sol\":16061:16097  marketingAddress = _marketingAddress */\n  dup1\n  sload\n  dup10\n  and\n  swap8\n  dup11\n  and\n  swap8\n  swap1\n  swap8\n  or\n  swap1\n  swap7\n  sstore\n    /* \"contracts/GepsToken.sol\":16108:16123  treasuryAddress */\n  0x09\n    /* \"contracts/GepsToken.sol\":16108:16142  treasuryAddress = _treasuryAddress */\n  dup1\n  sload\n  dup9\n  and\n  swap6\n  dup10\n  and\n  swap6\n  swap1\n  swap6\n  or\n  swap1\n  swap5\n  sstore\n    /* \"contracts/GepsToken.sol\":16153:16164  teamAddress */\n  0x0a\n    /* \"contracts/GepsToken.sol\":16153:16179  teamAddress = _teamAddress */\n  dup1\n  sload\n  dup8\n  and\n  swap4\n  dup9\n  and\n  swap4\n  swap1\n  swap4\n  or\n  swap1\n  swap3\n  sstore\n    /* \"contracts/GepsToken.sol\":16190:16208  partnershipAddress */\n  0x0b\n    /* \"contracts/GepsToken.sol\":16190:16230  partnershipAddress = _partnershipAddress */\n  dup1\n  sload\n  dup7\n  and\n  swap2\n  dup8\n  and\n  swap2\n  swap1\n  swap2\n  or\n  swap1\n  sstore\n    /* \"contracts/GepsToken.sol\":16241:16257  liquidityAddress */\n  0x0c\n    /* \"contracts/GepsToken.sol\":16241:16277  liquidityAddress = _liquidityAddress */\n  dup1\n  sload\n  dup6\n  and\n  swap2\n  dup7\n  and\n  swap2\n  swap1\n  swap2\n  or\n  swap1\n  sstore\n    /* \"contracts/GepsToken.sol\":16288:16302  charityAddress */\n  0x0d\n    /* \"contracts/GepsToken.sol\":16288:16320  charityAddress = _charityAddress */\n  dup1\n  sload\n  dup5\n  and\n  swap2\n  dup6\n  and\n  swap2\n  swap1\n  swap2\n  or\n  swap1\n  sstore\n    /* \"contracts/GepsToken.sol\":16331:16345  reserveAddress */\n  0x0e\n    /* \"contracts/GepsToken.sol\":16331:16363  reserveAddress = _reserveAddress */\n  dup1\n  sload\n  swap1\n  swap3\n  and\n  swap3\n  and\n  swap2\n  swap1\n  swap2\n  or\n  swap1\n  sstore\n    /* \"contracts/GepsToken.sol\":15045:18007  contract GEPSToken is ERC20, Ownable {... */\n  jump(tag_26)\n    /* \"contracts/GepsToken.sol\":14847:15038  function _transferOwnership(address newOwner) internal virtual {... */\ntag_16:\n    /* \"contracts/GepsToken.sol\":14940:14946  _owner */\n  0x05\n  dup1\n  sload\n  sub(shl(0xa0, 0x01), 0x01)\n    /* \"contracts/GepsToken.sol\":14957:14974  _owner = newOwner */\n  dup4\n  dup2\n  and\n  not(sub(shl(0xa0, 0x01), 0x01))\n  dup4\n  and\n  dup2\n  or\n  swap1\n  swap4\n  sstore\n    /* \"contracts/GepsToken.sol\":14990:15030  OwnershipTransferred(oldOwner, newOwner) */\n  mload(0x40)\n    /* \"contracts/GepsToken.sol\":14940:14946  _owner */\n  swap2\n  and\n  swap2\n    /* \"contracts/GepsToken.sol\":14957:14974  _owner = newOwner */\n  swap1\n    /* \"contracts/GepsToken.sol\":14940:14946  _owner */\n  dup3\n  swap1\n    /* \"contracts/GepsToken.sol\":14990:15030  OwnershipTransferred(oldOwner, newOwner) */\n  0x8be0079c531659141344cd1fd0a4f28419497f9722a3daafe3b4186f6b6457e0\n  swap1\n    /* \"contracts/GepsToken.sol\":14921:14937  address oldOwner */\n  0x00\n  swap1\n    /* \"contracts/GepsToken.sol\":14990:15030  OwnershipTransferred(oldOwner, newOwner) */\n  log3\n    /* \"contracts/GepsToken.sol\":14910:15038  {... */\n  pop\n    /* \"contracts/GepsToken.sol\":14847:15038  function _transferOwnership(address newOwner) internal virtual {... */\n  pop\n  jump\t// out\n    /* \"#utility.yul\":14:191   */\ntag_20:\n    /* \"#utility.yul\":93:106   */\n  dup1\n  mload\n  sub(shl(0xa0, 0x01), 0x01)\n    /* \"#utility.yul\":135:166   */\n  dup2\n  and\n    /* \"#utility.yul\":125:167   */\n  dup2\n  eq\n    /* \"#utility.yul\":115:185   */\n  tag_28\n  jumpi\n    /* \"#utility.yul\":181:182   */\n  0x00\n    /* \"#utility.yul\":178:179   */\n  dup1\n    /* \"#utility.yul\":171:183   */\n  revert\n    /* \"#utility.yul\":115:185   */\ntag_28:\n    /* \"#utility.yul\":14:191   */\n  swap2\n  swap1\n  pop\n  jump\t// out\n    /* \"#utility.yul\":196:1090   */\ntag_3:\n    /* \"#utility.yul\":338:344   */\n  0x00\n    /* \"#utility.yul\":346:352   */\n  dup1\n    /* \"#utility.yul\":354:360   */\n  0x00\n    /* \"#utility.yul\":362:368   */\n  dup1\n    /* \"#utility.yul\":370:376   */\n  0x00\n    /* \"#utility.yul\":378:384   */\n  dup1\n    /* \"#utility.yul\":386:392   */\n  0x00\n    /* \"#utility.yul\":394:400   */\n  dup1\n    /* \"#utility.yul\":402:408   */\n  0x00\n    /* \"#utility.yul\":455:458   */\n  0x0120\n    /* \"#utility.yul\":443:452   */\n  dup11\n    /* \"#utility.yul\":434:441   */\n  dup13\n    /* \"#utility.yul\":430:453   */\n  sub\n    /* \"#utility.yul\":426:459   */\n  slt\n    /* \"#utility.yul\":423:476   */\n  iszero\n  tag_30\n  jumpi\n    /* \"#utility.yul\":472:473   */\n  0x00\n    /* \"#utility.yul\":469:470   */\n  dup1\n    /* \"#utility.yul\":462:474   */\n  revert\n    /* \"#utility.yul\":423:476   */\ntag_30:\n    /* \"#utility.yul\":495:535   */\n  tag_31\n    /* \"#utility.yul\":525:534   */\n  dup11\n    /* \"#utility.yul\":495:535   */\n  tag_20\n  jump\t// in\ntag_31:\n    /* \"#utility.yul\":485:535   */\n  swap9\n  pop\n    /* \"#utility.yul\":554:603   */\n  tag_32\n    /* \"#utility.yul\":599:601   */\n  0x20\n    /* \"#utility.yul\":588:597   */\n  dup12\n    /* \"#utility.yul\":584:602   */\n  add\n    /* \"#utility.yul\":554:603   */\n  tag_20\n  jump\t// in\ntag_32:\n    /* \"#utility.yul\":544:603   */\n  swap8\n  pop\n    /* \"#utility.yul\":622:671   */\n  tag_33\n    /* \"#utility.yul\":667:669   */\n  0x40\n    /* \"#utility.yul\":656:665   */\n  dup12\n    /* \"#utility.yul\":652:670   */\n  add\n    /* \"#utility.yul\":622:671   */\n  tag_20\n  jump\t// in\ntag_33:\n    /* \"#utility.yul\":612:671   */\n  swap7\n  pop\n    /* \"#utility.yul\":690:739   */\n  tag_34\n    /* \"#utility.yul\":735:737   */\n  0x60\n    /* \"#utility.yul\":724:733   */\n  dup12\n    /* \"#utility.yul\":720:738   */\n  add\n    /* \"#utility.yul\":690:739   */\n  tag_20\n  jump\t// in\ntag_34:\n    /* \"#utility.yul\":680:739   */\n  swap6\n  pop\n    /* \"#utility.yul\":758:808   */\n  tag_35\n    /* \"#utility.yul\":803:806   */\n  0x80\n    /* \"#utility.yul\":792:801   */\n  dup12\n    /* \"#utility.yul\":788:807   */\n  add\n    /* \"#utility.yul\":758:808   */\n  tag_20\n  jump\t// in\ntag_35:\n    /* \"#utility.yul\":748:808   */\n  swap5\n  pop\n    /* \"#utility.yul\":827:877   */\n  tag_36\n    /* \"#utility.yul\":872:875   */\n  0xa0\n    /* \"#utility.yul\":861:870   */\n  dup12\n    /* \"#utility.yul\":857:876   */\n  add\n    /* \"#utility.yul\":827:877   */\n  tag_20\n  jump\t// in\ntag_36:\n    /* \"#utility.yul\":817:877   */\n  swap4\n  pop\n    /* \"#utility.yul\":896:946   */\n  tag_37\n    /* \"#utility.yul\":941:944   */\n  0xc0\n    /* \"#utility.yul\":930:939   */\n  dup12\n    /* \"#utility.yul\":926:945   */\n  add\n    /* \"#utility.yul\":896:946   */\n  tag_20\n  jump\t// in\ntag_37:\n    /* \"#utility.yul\":886:946   */\n  swap3\n  pop\n    /* \"#utility.yul\":965:1015   */\n  tag_38\n    /* \"#utility.yul\":1010:1013   */\n  0xe0\n    /* \"#utility.yul\":999:1008   */\n  dup12\n    /* \"#utility.yul\":995:1014   */\n  add\n    /* \"#utility.yul\":965:1015   */\n  tag_20\n  jump\t// in\ntag_38:\n    /* \"#utility.yul\":955:1015   */\n  swap2\n  pop\n    /* \"#utility.yul\":1034:1084   */\n  tag_39\n    /* \"#utility.yul\":1079:1082   */\n  0x0100\n    /* \"#utility.yul\":1068:1077   */\n  dup12\n    /* \"#utility.yul\":1064:1083   */\n  add\n    /* \"#utility.yul\":1034:1084   */\n  tag_20\n  jump\t// in\ntag_39:\n    /* \"#utility.yul\":1024:1084   */\n  swap1\n  pop\n    /* \"#utility.yul\":196:1090   */\n  swap3\n  swap6\n  swap9\n  pop\n  swap3\n  swap6\n  swap9\n  pop\n  swap3\n  swap6\n  swap9\n  jump\t// out\n    /* \"#utility.yul\":1095:1222   */\ntag_21:\n    /* \"#utility.yul\":1156:1166   */\n  0x4e487b71\n    /* \"#utility.yul\":1151:1154   */\n  0xe0\n    /* \"#utility.yul\":1147:1167   */\n  shl\n    /* \"#utility.yul\":1144:1145   */\n  0x00\n    /* \"#utility.yul\":1137:1168   */\n  mstore\n    /* \"#utility.yul\":1187:1191   */\n  0x41\n    /* \"#utility.yul\":1184:1185   */\n  0x04\n    /* \"#utility.yul\":1177:1192   */\n  mstore\n    /* \"#utility.yul\":1211:1215   */\n  0x24\n    /* \"#utility.yul\":1208:1209   */\n  0x00\n    /* \"#utility.yul\":1201:1216   */\n  revert\n    /* \"#utility.yul\":1227:1607   */\ntag_22:\n    /* \"#utility.yul\":1306:1307   */\n  0x01\n    /* \"#utility.yul\":1302:1314   */\n  dup2\n  dup2\n  shr\n  swap1\n    /* \"#utility.yul\":1349:1361   */\n  dup3\n  and\n  dup1\n    /* \"#utility.yul\":1370:1431   */\n  tag_42\n  jumpi\n    /* \"#utility.yul\":1424:1428   */\n  0x7f\n    /* \"#utility.yul\":1416:1422   */\n  dup3\n    /* \"#utility.yul\":1412:1429   */\n  and\n    /* \"#utility.yul\":1402:1429   */\n  swap2\n  pop\n    /* \"#utility.yul\":1370:1431   */\ntag_42:\n    /* \"#utility.yul\":1477:1479   */\n  0x20\n    /* \"#utility.yul\":1469:1475   */\n  dup3\n    /* \"#utility.yul\":1466:1480   */\n  lt\n    /* \"#utility.yul\":1446:1464   */\n  dup2\n    /* \"#utility.yul\":1443:1481   */\n  sub\n    /* \"#utility.yul\":1440:1601   */\n  tag_43\n  jumpi\n    /* \"#utility.yul\":1523:1533   */\n  0x4e487b71\n    /* \"#utility.yul\":1518:1521   */\n  0xe0\n    /* \"#utility.yul\":1514:1534   */\n  shl\n    /* \"#utility.yul\":1511:1512   */\n  0x00\n    /* \"#utility.yul\":1504:1535   */\n  mstore\n    /* \"#utility.yul\":1558:1562   */\n  0x22\n    /* \"#utility.yul\":1555:1556   */\n  0x04\n    /* \"#utility.yul\":1548:1563   */\n  mstore\n    /* \"#utility.yul\":1586:1590   */\n  0x24\n    /* \"#utility.yul\":1583:1584   */\n  0x00\n    /* \"#utility.yul\":1576:1591   */\n  revert\n    /* \"#utility.yul\":1440:1601   */\ntag_43:\n  pop\n    /* \"#utility.yul\":1227:1607   */\n  swap2\n  swap1\n  pop\n  jump\t// out\n    /* \"#utility.yul\":1738:2256   */\ntag_24:\n    /* \"#utility.yul\":1840:1842   */\n  0x1f\n    /* \"#utility.yul\":1835:1838   */\n  dup3\n    /* \"#utility.yul\":1832:1843   */\n  gt\n    /* \"#utility.yul\":1829:2250   */\n  iszero\n  tag_46\n  jumpi\n    /* \"#utility.yul\":1876:1881   */\n  dup1\n    /* \"#utility.yul\":1873:1874   */\n  0x00\n    /* \"#utility.yul\":1866:1882   */\n  mstore\n    /* \"#utility.yul\":1920:1924   */\n  0x20\n    /* \"#utility.yul\":1917:1918   */\n  0x00\n    /* \"#utility.yul\":1907:1925   */\n  keccak256\n    /* \"#utility.yul\":1990:1992   */\n  0x1f\n    /* \"#utility.yul\":1978:1988   */\n  dup5\n    /* \"#utility.yul\":1974:1993   */\n  add\n    /* \"#utility.yul\":1971:1972   */\n  0x05\n    /* \"#utility.yul\":1967:1994   */\n  shr\n    /* \"#utility.yul\":1961:1965   */\n  dup2\n    /* \"#utility.yul\":1957:1995   */\n  add\n    /* \"#utility.yul\":2026:2030   */\n  0x20\n    /* \"#utility.yul\":2014:2024   */\n  dup6\n    /* \"#utility.yul\":2011:2031   */\n  lt\n    /* \"#utility.yul\":2008:2055   */\n  iszero\n  tag_47\n  jumpi\n  pop\n    /* \"#utility.yul\":2049:2053   */\n  dup1\n    /* \"#utility.yul\":2008:2055   */\ntag_47:\n    /* \"#utility.yul\":2104:2106   */\n  0x1f\n    /* \"#utility.yul\":2099:2102   */\n  dup5\n    /* \"#utility.yul\":2095:2107   */\n  add\n    /* \"#utility.yul\":2092:2093   */\n  0x05\n    /* \"#utility.yul\":2088:2108   */\n  shr\n    /* \"#utility.yul\":2082:2086   */\n  dup3\n    /* \"#utility.yul\":2078:2109   */\n  add\n    /* \"#utility.yul\":2068:2109   */\n  swap2\n  pop\n    /* \"#utility.yul\":2159:2240   */\ntag_48:\n    /* \"#utility.yul\":2177:2179   */\n  dup2\n    /* \"#utility.yul\":2170:2175   */\n  dup2\n    /* \"#utility.yul\":2167:2180   */\n  lt\n    /* \"#utility.yul\":2159:2240   */\n  iszero\n  tag_50\n  jumpi\n    /* \"#utility.yul\":2236:2237   */\n  0x00\n    /* \"#utility.yul\":2222:2238   */\n  dup2\n  sstore\n    /* \"#utility.yul\":2203:2204   */\n  0x01\n    /* \"#utility.yul\":2192:2205   */\n  add\n    /* \"#utility.yul\":2159:2240   */\n  jump(tag_48)\ntag_50:\n    /* \"#utility.yul\":2163:2166   */\n  pop\n  pop\n    /* \"#utility.yul\":1829:2250   */\ntag_46:\n    /* \"#utility.yul\":1738:2256   */\n  pop\n  pop\n  pop\n  jump\t// out\n    /* \"#utility.yul\":2432:3731   */\ntag_9:\n    /* \"#utility.yul\":2552:2562   */\n  dup2\n  mload\n  sub(shl(0x40, 0x01), 0x01)\n    /* \"#utility.yul\":2574:2604   */\n  dup2\n  gt\n    /* \"#utility.yul\":2571:2627   */\n  iszero\n  tag_54\n  jumpi\n    /* \"#utility.yul\":2607:2625   */\n  tag_54\n  tag_21\n  jump\t// in\ntag_54:\n    /* \"#utility.yul\":2636:2733   */\n  tag_55\n    /* \"#utility.yul\":2726:2732   */\n  dup2\n    /* \"#utility.yul\":2686:2724   */\n  tag_56\n    /* \"#utility.yul\":2718:2722   */\n  dup5\n    /* \"#utility.yul\":2712:2723   */\n  sload\n    /* \"#utility.yul\":2686:2724   */\n  tag_22\n  jump\t// in\ntag_56:\n    /* \"#utility.yul\":2680:2684   */\n  dup5\n    /* \"#utility.yul\":2636:2733   */\n  tag_24\n  jump\t// in\ntag_55:\n    /* \"#utility.yul\":2782:2786   */\n  0x20\n    /* \"#utility.yul\":2813:2815   */\n  0x1f\n    /* \"#utility.yul\":2802:2816   */\n  dup3\n  gt\n    /* \"#utility.yul\":2830:2831   */\n  0x01\n    /* \"#utility.yul\":2825:3474   */\n  dup2\n  eq\n  tag_58\n  jumpi\n    /* \"#utility.yul\":3518:3519   */\n  0x00\n    /* \"#utility.yul\":3535:3541   */\n  dup4\n    /* \"#utility.yul\":3532:3621   */\n  iszero\n  tag_59\n  jumpi\n  pop\n    /* \"#utility.yul\":3587:3606   */\n  dup5\n  dup3\n  add\n    /* \"#utility.yul\":3581:3607   */\n  mload\n    /* \"#utility.yul\":3532:3621   */\ntag_59:\n  not(0x00)\n    /* \"#utility.yul\":2389:2390   */\n  0x03\n    /* \"#utility.yul\":2385:2396   */\n  dup6\n  swap1\n  shl\n    /* \"#utility.yul\":2381:2405   */\n  shr\n    /* \"#utility.yul\":2377:2406   */\n  not\n    /* \"#utility.yul\":2367:2407   */\n  and\n    /* \"#utility.yul\":2413:2414   */\n  0x01\n    /* \"#utility.yul\":2409:2420   */\n  dup5\n  swap1\n  shl\n    /* \"#utility.yul\":2364:2421   */\n  or\n    /* \"#utility.yul\":3634:3715   */\n  dup5\n  sstore\n    /* \"#utility.yul\":2795:3725   */\n  jump(tag_50)\n    /* \"#utility.yul\":2825:3474   */\ntag_58:\n    /* \"#utility.yul\":1685:1686   */\n  0x00\n    /* \"#utility.yul\":1678:1692   */\n  dup5\n  dup2\n  mstore\n    /* \"#utility.yul\":1722:1726   */\n  0x20\n    /* \"#utility.yul\":1709:1727   */\n  dup2\n  keccak256\n  not(0x1f)\n    /* \"#utility.yul\":2861:2881   */\n  dup6\n  and\n  swap2\n    /* \"#utility.yul\":2979:3201   */\ntag_62:\n    /* \"#utility.yul\":2993:3000   */\n  dup3\n    /* \"#utility.yul\":2990:2991   */\n  dup2\n    /* \"#utility.yul\":2987:3001   */\n  lt\n    /* \"#utility.yul\":2979:3201   */\n  iszero\n  tag_64\n  jumpi\n    /* \"#utility.yul\":3075:3094   */\n  dup8\n  dup6\n  add\n    /* \"#utility.yul\":3069:3095   */\n  mload\n    /* \"#utility.yul\":3054:3096   */\n  dup3\n  sstore\n    /* \"#utility.yul\":3182:3186   */\n  0x20\n    /* \"#utility.yul\":3167:3187   */\n  swap5\n  dup6\n  add\n  swap5\n    /* \"#utility.yul\":3135:3136   */\n  0x01\n    /* \"#utility.yul\":3123:3137   */\n  swap1\n  swap3\n  add\n  swap2\n    /* \"#utility.yul\":3009:3021   */\n  add\n    /* \"#utility.yul\":2979:3201   */\n  jump(tag_62)\ntag_64:\n    /* \"#utility.yul\":2983:2986   */\n  pop\n    /* \"#utility.yul\":3229:3235   */\n  dup5\n    /* \"#utility.yul\":3220:3227   */\n  dup3\n    /* \"#utility.yul\":3217:3236   */\n  lt\n    /* \"#utility.yul\":3214:3415   */\n  iszero\n  tag_65\n  jumpi\n    /* \"#utility.yul\":3290:3309   */\n  dup7\n  dup5\n  add\n    /* \"#utility.yul\":3284:3310   */\n  mload\n  not(0x00)\n    /* \"#utility.yul\":3373:3374   */\n  0x03\n    /* \"#utility.yul\":3369:3383   */\n  dup8\n  swap1\n  shl\n    /* \"#utility.yul\":3385:3388   */\n  0xf8\n    /* \"#utility.yul\":3365:3389   */\n  and\n    /* \"#utility.yul\":3361:3398   */\n  shr\n    /* \"#utility.yul\":3357:3399   */\n  not\n    /* \"#utility.yul\":3342:3400   */\n  and\n    /* \"#utility.yul\":3327:3401   */\n  dup2\n  sstore\n    /* \"#utility.yul\":3214:3415   */\ntag_65:\n  pop\n  pop\n  pop\n  pop\n    /* \"#utility.yul\":3461:3462   */\n  0x01\n    /* \"#utility.yul\":3445:3459   */\n  swap1\n  dup2\n  shl\n    /* \"#utility.yul\":3441:3463   */\n  add\n    /* \"#utility.yul\":3428:3464   */\n  swap1\n  sstore\n  pop\n    /* \"#utility.yul\":2432:3731   */\n  jump\t// out\n    /* \"#utility.yul\":3736:3939   */\ntag_26:\n    /* \"contracts/GepsToken.sol\":15045:18007  contract GEPSToken is ERC20, Ownable {... */\n  dataSize(sub_0)\n  dup1\n  dataOffset(sub_0)\n  0x00\n  codecopy\n  0x00\n  return\nstop\n\nsub_0: assembly {\n        /* \"contracts/GepsToken.sol\":15045:18007  contract GEPSToken is ERC20, Ownable {... */\n      mstore(0x40, 0x80)\n      callvalue\n      dup1\n      iszero\n      tag_1\n      jumpi\n      0x00\n      dup1\n      revert\n    tag_1:\n      pop\n      jumpi(tag_2, lt(calldatasize, 0x04))\n      shr(0xe0, calldataload(0x00))\n      dup1\n      0x715018a6\n      gt\n      tag_26\n      jumpi\n      dup1\n      0xbc71788b\n      gt\n      tag_27\n      jumpi\n      dup1\n      0xbc71788b\n      eq\n      tag_20\n      jumpi\n      dup1\n      0xc5f956af\n      eq\n      tag_21\n      jumpi\n      dup1\n      0xd3e1fe14\n      eq\n      tag_22\n      jumpi\n      dup1\n      0xdd62ed3e\n      eq\n      tag_23\n      jumpi\n      dup1\n      0xf2fde38b\n      eq\n      tag_24\n      jumpi\n      dup1\n      0xf79ed94b\n      eq\n      tag_25\n      jumpi\n      0x00\n      dup1\n      revert\n    tag_27:\n      dup1\n      0x715018a6\n      eq\n      tag_14\n      jumpi\n      dup1\n      0x8da5cb5b\n      eq\n      tag_15\n      jumpi\n      dup1\n      0x95d89b41\n      eq\n      tag_16\n      jumpi\n      dup1\n      0xa5ece941\n      eq\n      tag_17\n      jumpi\n      dup1\n      0xa9059cbb\n      eq\n      tag_18\n      jumpi\n      dup1\n      0xafcf2fc4\n      eq\n      tag_19\n      jumpi\n      0x00\n      dup1\n      revert\n    tag_26:\n      dup1\n      0x1c75f085\n      gt\n      tag_28\n      jumpi\n      dup1\n      0x1c75f085\n      eq\n      tag_8\n      jumpi\n      dup1\n      0x23b872dd\n      eq\n      tag_9\n      jumpi\n      dup1\n      0x313ce567\n      eq\n      tag_10\n      jumpi\n      dup1\n      0x3221c93f\n      eq\n      tag_11\n      jumpi\n      dup1\n      0x4f02c420\n      eq\n      tag_12\n      jumpi\n      dup1\n      0x70a08231\n      eq\n      tag_13\n      jumpi\n      0x00\n      dup1\n      revert\n    tag_28:\n      dup1\n      0x06fdde03\n      eq\n      tag_3\n      jumpi\n      dup1\n      0x095ea7b3\n      eq\n      tag_4\n      jumpi\n      dup1\n      0x122fe685\n      eq\n      tag_5\n      jumpi\n      dup1\n      0x1249c58b\n      eq\n      tag_6\n      jumpi\n      dup1\n      0x18160ddd\n      eq\n      tag_7\n      jumpi\n    tag_2:\n      0x00\n      dup1\n      revert\n        /* \"contracts/GepsToken.sol\":8114:8205  function name() public view virtual returns (string memory) {... */\n    tag_3:\n      tag_29\n      tag_30\n      jump\t// in\n    tag_29:\n      mload(0x40)\n      tag_31\n      swap2\n      swap1\n      tag_32\n      jump\t// in\n    tag_31:\n      mload(0x40)\n      dup1\n      swap2\n      sub\n      swap1\n      return\n        /* \"contracts/GepsToken.sol\":9284:9499  function approve(... */\n    tag_4:\n      tag_33\n      tag_34\n      calldatasize\n      0x04\n      tag_35\n      jump\t// in\n    tag_34:\n      tag_36\n      jump\t// in\n    tag_33:\n      mload(0x40)\n        /* \"#utility.yul\":1085:1099   */\n      swap1\n      iszero\n        /* \"#utility.yul\":1078:1100   */\n      iszero\n        /* \"#utility.yul\":1060:1101   */\n      dup2\n      mstore\n        /* \"#utility.yul\":1048:1050   */\n      0x20\n        /* \"#utility.yul\":1033:1051   */\n      add\n        /* \"contracts/GepsToken.sol\":9284:9499  function approve(... */\n      tag_31\n        /* \"#utility.yul\":920:1107   */\n      jump\n        /* \"contracts/GepsToken.sol\":15242:15271  address public presaleAddress */\n    tag_5:\n      sload(0x06)\n      tag_39\n      swap1\n      sub(shl(0xa0, 0x01), 0x01)\n      and\n      dup2\n      jump\n    tag_39:\n      mload(0x40)\n      sub(shl(0xa0, 0x01), 0x01)\n        /* \"#utility.yul\":1276:1308   */\n      swap1\n      swap2\n      and\n        /* \"#utility.yul\":1258:1309   */\n      dup2\n      mstore\n        /* \"#utility.yul\":1246:1248   */\n      0x20\n        /* \"#utility.yul\":1231:1249   */\n      add\n        /* \"contracts/GepsToken.sol\":15242:15271  address public presaleAddress */\n      tag_31\n        /* \"#utility.yul\":1112:1315   */\n      jump\n        /* \"contracts/GepsToken.sol\":16379:17038  function mint() external onlyOwner {... */\n    tag_6:\n      tag_43\n      tag_44\n      jump\t// in\n    tag_43:\n      stop\n        /* \"contracts/GepsToken.sol\":8576:8675  function totalSupply() public view virtual returns (uint256) {... */\n    tag_7:\n        /* \"contracts/GepsToken.sol\":8655:8667  _totalSupply */\n      sload(0x02)\n        /* \"contracts/GepsToken.sol\":8576:8675  function totalSupply() public view virtual returns (uint256) {... */\n    tag_45:\n      mload(0x40)\n        /* \"#utility.yul\":1466:1491   */\n      swap1\n      dup2\n      mstore\n        /* \"#utility.yul\":1454:1456   */\n      0x20\n        /* \"#utility.yul\":1439:1457   */\n      add\n        /* \"contracts/GepsToken.sol\":8576:8675  function totalSupply() public view virtual returns (uint256) {... */\n      tag_31\n        /* \"#utility.yul\":1320:1497   */\n      jump\n        /* \"contracts/GepsToken.sol\":15385:15411  address public teamAddress */\n    tag_8:\n      sload(0x0a)\n      tag_39\n      swap1\n      sub(shl(0xa0, 0x01), 0x01)\n      and\n      dup2\n      jump\n        /* \"contracts/GepsToken.sol\":9507:9790  function transferFrom(... */\n    tag_9:\n      tag_33\n      tag_53\n      calldatasize\n      0x04\n      tag_54\n      jump\t// in\n    tag_53:\n      tag_55\n      jump\t// in\n        /* \"contracts/GepsToken.sol\":8427:8511  function decimals() public view virtual returns (uint8) {... */\n    tag_10:\n      mload(0x40)\n        /* \"contracts/GepsToken.sol\":8501:8503  18 */\n      0x12\n        /* \"#utility.yul\":2023:2059   */\n      dup2\n      mstore\n        /* \"#utility.yul\":2011:2013   */\n      0x20\n        /* \"#utility.yul\":1996:2014   */\n      add\n        /* \"contracts/GepsToken.sol\":8427:8511  function decimals() public view virtual returns (uint8) {... */\n      tag_31\n        /* \"#utility.yul\":1881:2065   */\n      jump\n        /* \"contracts/GepsToken.sol\":15458:15489  address public liquidityAddress */\n    tag_11:\n      sload(0x0c)\n      tag_39\n      swap1\n      sub(shl(0xa0, 0x01), 0x01)\n      and\n      dup2\n      jump\n        /* \"contracts/GepsToken.sol\":15568:15594  bool public minted = false */\n    tag_12:\n      sload(0x0e)\n      tag_33\n      swap1\n      shl(0xa0, 0x01)\n      swap1\n      div\n      0xff\n      and\n      dup2\n      jump\n        /* \"contracts/GepsToken.sol\":8738:8856  function balanceOf(address account) public view virtual returns (uint256) {... */\n    tag_13:\n      tag_45\n      tag_68\n      calldatasize\n      0x04\n      tag_69\n      jump\t// in\n    tag_68:\n      sub(shl(0xa0, 0x01), 0x01)\n        /* \"contracts/GepsToken.sol\":8830:8848  _balances[account] */\n      and\n        /* \"contracts/GepsToken.sol\":8803:8810  uint256 */\n      0x00\n        /* \"contracts/GepsToken.sol\":8830:8848  _balances[account] */\n      swap1\n      dup2\n      mstore\n      0x20\n      dup2\n      swap1\n      mstore\n      0x40\n      swap1\n      keccak256\n      sload\n      swap1\n        /* \"contracts/GepsToken.sol\":8738:8856  function balanceOf(address account) public view virtual returns (uint256) {... */\n      jump\n        /* \"contracts/GepsToken.sol\":14356:14459  function renounceOwnership() public virtual onlyOwner {... */\n    tag_14:\n      tag_43\n      tag_73\n      jump\t// in\n        /* \"contracts/GepsToken.sol\":14017:14104  function owner() public view virtual returns (address) {... */\n    tag_15:\n        /* \"contracts/GepsToken.sol\":14090:14096  _owner */\n      and(sub(shl(0xa0, 0x01), 0x01), sload(0x05))\n        /* \"contracts/GepsToken.sol\":14017:14104  function owner() public view virtual returns (address) {... */\n      jump(tag_39)\n        /* \"contracts/GepsToken.sol\":8324:8419  function symbol() public view virtual returns (string memory) {... */\n    tag_16:\n      tag_29\n      tag_78\n      jump\t// in\n        /* \"contracts/GepsToken.sol\":15310:15341  address public marketingAddress */\n    tag_17:\n      sload(0x08)\n      tag_39\n      swap1\n      sub(shl(0xa0, 0x01), 0x01)\n      and\n      dup2\n      jump\n        /* \"contracts/GepsToken.sol\":8864:9046  function transfer(address to, uint256 value) public virtual returns (bool) {... */\n    tag_18:\n      tag_33\n      tag_84\n      calldatasize\n      0x04\n      tag_35\n      jump\t// in\n    tag_84:\n      tag_85\n      jump\t// in\n        /* \"contracts/GepsToken.sol\":15496:15525  address public charityAddress */\n    tag_19:\n      sload(0x0d)\n      tag_39\n      swap1\n      sub(shl(0xa0, 0x01), 0x01)\n      and\n      dup2\n      jump\n        /* \"contracts/GepsToken.sol\":15278:15303  address public rndAddress */\n    tag_20:\n      sload(0x07)\n      tag_39\n      swap1\n      sub(shl(0xa0, 0x01), 0x01)\n      and\n      dup2\n      jump\n        /* \"contracts/GepsToken.sol\":15348:15378  address public treasuryAddress */\n    tag_21:\n      sload(0x09)\n      tag_39\n      swap1\n      sub(shl(0xa0, 0x01), 0x01)\n      and\n      dup2\n      jump\n        /* \"contracts/GepsToken.sol\":15418:15451  address public partnershipAddress */\n    tag_22:\n      sload(0x0b)\n      tag_39\n      swap1\n      sub(shl(0xa0, 0x01), 0x01)\n      and\n      dup2\n      jump\n        /* \"contracts/GepsToken.sol\":9109:9276  function allowance(... */\n    tag_23:\n      tag_45\n      tag_100\n      calldatasize\n      0x04\n      tag_101\n      jump\t// in\n    tag_100:\n      sub(shl(0xa0, 0x01), 0x01)\n        /* \"contracts/GepsToken.sol\":9241:9259  _allowances[owner] */\n      swap2\n      dup3\n      and\n        /* \"contracts/GepsToken.sol\":9214:9221  uint256 */\n      0x00\n        /* \"contracts/GepsToken.sol\":9241:9259  _allowances[owner] */\n      swap1\n      dup2\n      mstore\n        /* \"contracts/GepsToken.sol\":9241:9252  _allowances */\n      0x01\n        /* \"contracts/GepsToken.sol\":9241:9259  _allowances[owner] */\n      0x20\n      swap1\n      dup2\n      mstore\n      0x40\n      dup1\n      dup4\n      keccak256\n        /* \"contracts/GepsToken.sol\":9241:9268  _allowances[owner][spender] */\n      swap4\n      swap1\n      swap5\n      and\n      dup3\n      mstore\n      swap2\n      swap1\n      swap2\n      mstore\n      keccak256\n      sload\n      swap1\n        /* \"contracts/GepsToken.sol\":9109:9276  function allowance(... */\n      jump\n        /* \"contracts/GepsToken.sol\":14467:14687  function transferOwnership(address newOwner) public virtual onlyOwner {... */\n    tag_24:\n      tag_43\n      tag_105\n      calldatasize\n      0x04\n      tag_69\n      jump\t// in\n    tag_105:\n      tag_106\n      jump\t// in\n        /* \"contracts/GepsToken.sol\":15532:15561  address public reserveAddress */\n    tag_25:\n      sload(0x0e)\n      tag_39\n      swap1\n      sub(shl(0xa0, 0x01), 0x01)\n      and\n      dup2\n      jump\n        /* \"contracts/GepsToken.sol\":8114:8205  function name() public view virtual returns (string memory) {... */\n    tag_30:\n        /* \"contracts/GepsToken.sol\":8159:8172  string memory */\n      0x60\n        /* \"contracts/GepsToken.sol\":8192:8197  _name */\n      0x03\n        /* \"contracts/GepsToken.sol\":8185:8197  return _name */\n      dup1\n      sload\n      tag_111\n      swap1\n      tag_112\n      jump\t// in\n    tag_111:\n      dup1\n      0x1f\n      add\n      0x20\n      dup1\n      swap2\n      div\n      mul\n      0x20\n      add\n      mload(0x40)\n      swap1\n      dup2\n      add\n      0x40\n      mstore\n      dup1\n      swap3\n      swap2\n      swap1\n      dup2\n      dup2\n      mstore\n      0x20\n      add\n      dup3\n      dup1\n      sload\n      tag_113\n      swap1\n      tag_112\n      jump\t// in\n    tag_113:\n      dup1\n      iszero\n      tag_114\n      jumpi\n      dup1\n      0x1f\n      lt\n      tag_115\n      jumpi\n      0x0100\n      dup1\n      dup4\n      sload\n      div\n      mul\n      dup4\n      mstore\n      swap2\n      0x20\n      add\n      swap2\n      jump(tag_114)\n    tag_115:\n      dup3\n      add\n      swap2\n      swap1\n      0x00\n      mstore\n      keccak256(0x00, 0x20)\n      swap1\n    tag_116:\n      dup2\n      sload\n      dup2\n      mstore\n      swap1\n      0x01\n      add\n      swap1\n      0x20\n      add\n      dup1\n      dup4\n      gt\n      tag_116\n      jumpi\n      dup3\n      swap1\n      sub\n      0x1f\n      and\n      dup3\n      add\n      swap2\n    tag_114:\n      pop\n      pop\n      pop\n      pop\n      pop\n      swap1\n      pop\n        /* \"contracts/GepsToken.sol\":8114:8205  function name() public view virtual returns (string memory) {... */\n      swap1\n      jump\t// out\n        /* \"contracts/GepsToken.sol\":9284:9499  function approve(... */\n    tag_36:\n        /* \"contracts/GepsToken.sol\":9382:9386  bool */\n      0x00\n        /* \"contracts/GepsToken.sol\":2551:2561  msg.sender */\n      caller\n        /* \"contracts/GepsToken.sol\":9438:9469  _approve(owner, spender, value) */\n      tag_120\n        /* \"contracts/GepsToken.sol\":2551:2561  msg.sender */\n      dup2\n        /* \"contracts/GepsToken.sol\":9454:9461  spender */\n      dup6\n        /* \"contracts/GepsToken.sol\":9463:9468  value */\n      dup6\n        /* \"contracts/GepsToken.sol\":9438:9446  _approve */\n      tag_121\n        /* \"contracts/GepsToken.sol\":9438:9469  _approve(owner, spender, value) */\n      jump\t// in\n    tag_120:\n        /* \"contracts/GepsToken.sol\":9487:9491  true */\n      0x01\n        /* \"contracts/GepsToken.sol\":9480:9491  return true */\n      swap2\n      pop\n      pop\n        /* \"contracts/GepsToken.sol\":9284:9499  function approve(... */\n    tag_117:\n      swap3\n      swap2\n      pop\n      pop\n      jump\t// out\n        /* \"contracts/GepsToken.sol\":16379:17038  function mint() external onlyOwner {... */\n    tag_44:\n        /* \"contracts/GepsToken.sol\":13903:13916  _checkOwner() */\n      tag_123\n        /* \"contracts/GepsToken.sol\":13903:13914  _checkOwner */\n      tag_124\n        /* \"contracts/GepsToken.sol\":13903:13916  _checkOwner() */\n      jump\t// in\n    tag_123:\n        /* \"contracts/GepsToken.sol\":16434:16440  minted */\n      sload(0x0e)\n      shl(0xa0, 0x01)\n      swap1\n      div\n      0xff\n      and\n        /* \"contracts/GepsToken.sol\":16433:16440  !minted */\n      iszero\n        /* \"contracts/GepsToken.sol\":16425:16476  require(!minted, \"Tokens have already been minted\") */\n      tag_126\n      jumpi\n      mload(0x40)\n      shl(0xe5, 0x461bcd)\n      dup2\n      mstore\n        /* \"#utility.yul\":3113:3115   */\n      0x20\n        /* \"contracts/GepsToken.sol\":16425:16476  require(!minted, \"Tokens have already been minted\") */\n      0x04\n      dup3\n      add\n        /* \"#utility.yul\":3095:3116   */\n      mstore\n        /* \"#utility.yul\":3152:3154   */\n      0x1f\n        /* \"#utility.yul\":3132:3150   */\n      0x24\n      dup3\n      add\n        /* \"#utility.yul\":3125:3155   */\n      mstore\n        /* \"#utility.yul\":3191:3224   */\n      0x546f6b656e73206861766520616c7265616479206265656e206d696e74656400\n        /* \"#utility.yul\":3171:3189   */\n      0x44\n      dup3\n      add\n        /* \"#utility.yul\":3164:3225   */\n      mstore\n        /* \"#utility.yul\":3242:3260   */\n      0x64\n      add\n        /* \"contracts/GepsToken.sol\":16425:16476  require(!minted, \"Tokens have already been minted\") */\n    tag_127:\n      mload(0x40)\n      dup1\n      swap2\n      sub\n      swap1\n      revert\n    tag_126:\n        /* \"contracts/GepsToken.sol\":16487:16493  minted */\n      0x0e\n        /* \"contracts/GepsToken.sol\":16487:16500  minted = true */\n      dup1\n      sload\n      not(shl(0xa0, 0xff))\n      and\n      shl(0xa0, 0x01)\n      or\n      swap1\n      sstore\n        /* \"contracts/GepsToken.sol\":16517:16531  presaleAddress */\n      sload(0x06)\n        /* \"contracts/GepsToken.sol\":16511:16553  _mint(presaleAddress, 20000000 * 10 ** 18) */\n      tag_129\n      swap1\n      sub(shl(0xa0, 0x01), 0x01)\n        /* \"contracts/GepsToken.sol\":16517:16531  presaleAddress */\n      and\n        /* \"contracts/GepsToken.sol\":16533:16552  20000000 * 10 ** 18 */\n      0x108b2a2c28029094000000\n        /* \"contracts/GepsToken.sol\":16511:16516  _mint */\n      tag_130\n        /* \"contracts/GepsToken.sol\":16511:16553  _mint(presaleAddress, 20000000 * 10 ** 18) */\n      jump\t// in\n    tag_129:\n        /* \"contracts/GepsToken.sol\":16577:16587  rndAddress */\n      sload(0x07)\n        /* \"contracts/GepsToken.sol\":16571:16608  _mint(rndAddress, 2500000 * 10 ** 18) */\n      tag_131\n      swap1\n      sub(shl(0xa0, 0x01), 0x01)\n        /* \"contracts/GepsToken.sol\":16577:16587  rndAddress */\n      and\n        /* \"contracts/GepsToken.sol\":16589:16607  2500000 * 10 ** 18 */\n      0x0211654585005212800000\n        /* \"contracts/GepsToken.sol\":16571:16576  _mint */\n      tag_130\n        /* \"contracts/GepsToken.sol\":16571:16608  _mint(rndAddress, 2500000 * 10 ** 18) */\n      jump\t// in\n    tag_131:\n        /* \"contracts/GepsToken.sol\":16631:16647  marketingAddress */\n      sload(0x08)\n        /* \"contracts/GepsToken.sol\":16625:16668  _mint(marketingAddress, 2500000 * 10 ** 18) */\n      tag_132\n      swap1\n      sub(shl(0xa0, 0x01), 0x01)\n        /* \"contracts/GepsToken.sol\":16631:16647  marketingAddress */\n      and\n        /* \"contracts/GepsToken.sol\":16649:16667  2500000 * 10 ** 18 */\n      0x0211654585005212800000\n        /* \"contracts/GepsToken.sol\":16625:16630  _mint */\n      tag_130\n        /* \"contracts/GepsToken.sol\":16625:16668  _mint(marketingAddress, 2500000 * 10 ** 18) */\n      jump\t// in\n    tag_132:\n        /* \"contracts/GepsToken.sol\":16691:16706  treasuryAddress */\n      sload(0x09)\n        /* \"contracts/GepsToken.sol\":16685:16727  _mint(treasuryAddress, 5000000 * 10 ** 18) */\n      tag_133\n      swap1\n      sub(shl(0xa0, 0x01), 0x01)\n        /* \"contracts/GepsToken.sol\":16691:16706  treasuryAddress */\n      and\n        /* \"contracts/GepsToken.sol\":16708:16726  5000000 * 10 ** 18 */\n      0x0422ca8b0a00a425000000\n        /* \"contracts/GepsToken.sol\":16685:16690  _mint */\n      tag_130\n        /* \"contracts/GepsToken.sol\":16685:16727  _mint(treasuryAddress, 5000000 * 10 ** 18) */\n      jump\t// in\n    tag_133:\n        /* \"contracts/GepsToken.sol\":16751:16762  teamAddress */\n      sload(0x0a)\n        /* \"contracts/GepsToken.sol\":16745:16783  _mint(teamAddress, 5000000 * 10 ** 18) */\n      tag_134\n      swap1\n      sub(shl(0xa0, 0x01), 0x01)\n        /* \"contracts/GepsToken.sol\":16751:16762  teamAddress */\n      and\n        /* \"contracts/GepsToken.sol\":16764:16782  5000000 * 10 ** 18 */\n      0x0422ca8b0a00a425000000\n        /* \"contracts/GepsToken.sol\":16745:16750  _mint */\n      tag_130\n        /* \"contracts/GepsToken.sol\":16745:16783  _mint(teamAddress, 5000000 * 10 ** 18) */\n      jump\t// in\n    tag_134:\n        /* \"contracts/GepsToken.sol\":16807:16825  partnershipAddress */\n      sload(0x0b)\n        /* \"contracts/GepsToken.sol\":16801:16846  _mint(partnershipAddress, 2500000 * 10 ** 18) */\n      tag_135\n      swap1\n      sub(shl(0xa0, 0x01), 0x01)\n        /* \"contracts/GepsToken.sol\":16807:16825  partnershipAddress */\n      and\n        /* \"contracts/GepsToken.sol\":16827:16845  2500000 * 10 ** 18 */\n      0x0211654585005212800000\n        /* \"contracts/GepsToken.sol\":16801:16806  _mint */\n      tag_130\n        /* \"contracts/GepsToken.sol\":16801:16846  _mint(partnershipAddress, 2500000 * 10 ** 18) */\n      jump\t// in\n    tag_135:\n        /* \"contracts/GepsToken.sol\":16869:16885  liquidityAddress */\n      sload(0x0c)\n        /* \"contracts/GepsToken.sol\":16863:16906  _mint(liquidityAddress, 5000000 * 10 ** 18) */\n      tag_136\n      swap1\n      sub(shl(0xa0, 0x01), 0x01)\n        /* \"contracts/GepsToken.sol\":16869:16885  liquidityAddress */\n      and\n        /* \"contracts/GepsToken.sol\":16887:16905  5000000 * 10 ** 18 */\n      0x0422ca8b0a00a425000000\n        /* \"contracts/GepsToken.sol\":16863:16868  _mint */\n      tag_130\n        /* \"contracts/GepsToken.sol\":16863:16906  _mint(liquidityAddress, 5000000 * 10 ** 18) */\n      jump\t// in\n    tag_136:\n        /* \"contracts/GepsToken.sol\":16930:16944  charityAddress */\n      sload(0x0d)\n        /* \"contracts/GepsToken.sol\":16924:16965  _mint(charityAddress, 2500000 * 10 ** 18) */\n      tag_137\n      swap1\n      sub(shl(0xa0, 0x01), 0x01)\n        /* \"contracts/GepsToken.sol\":16930:16944  charityAddress */\n      and\n        /* \"contracts/GepsToken.sol\":16946:16964  2500000 * 10 ** 18 */\n      0x0211654585005212800000\n        /* \"contracts/GepsToken.sol\":16924:16929  _mint */\n      tag_130\n        /* \"contracts/GepsToken.sol\":16924:16965  _mint(charityAddress, 2500000 * 10 ** 18) */\n      jump\t// in\n    tag_137:\n        /* \"contracts/GepsToken.sol\":16988:17002  reserveAddress */\n      sload(0x0e)\n        /* \"contracts/GepsToken.sol\":16982:17023  _mint(reserveAddress, 5000000 * 10 ** 18) */\n      tag_138\n      swap1\n      sub(shl(0xa0, 0x01), 0x01)\n        /* \"contracts/GepsToken.sol\":16988:17002  reserveAddress */\n      and\n        /* \"contracts/GepsToken.sol\":17004:17022  5000000 * 10 ** 18 */\n      0x0422ca8b0a00a425000000\n        /* \"contracts/GepsToken.sol\":16982:16987  _mint */\n      tag_130\n        /* \"contracts/GepsToken.sol\":16982:17023  _mint(reserveAddress, 5000000 * 10 ** 18) */\n      jump\t// in\n    tag_138:\n        /* \"contracts/GepsToken.sol\":16379:17038  function mint() external onlyOwner {... */\n      jump\t// out\n        /* \"contracts/GepsToken.sol\":9507:9790  function transferFrom(... */\n    tag_55:\n        /* \"contracts/GepsToken.sol\":9628:9632  bool */\n      0x00\n        /* \"contracts/GepsToken.sol\":2551:2561  msg.sender */\n      caller\n        /* \"contracts/GepsToken.sol\":9686:9723  _spendAllowance(from, spender, value) */\n      tag_142\n        /* \"contracts/GepsToken.sol\":9702:9706  from */\n      dup6\n        /* \"contracts/GepsToken.sol\":2551:2561  msg.sender */\n      dup3\n        /* \"contracts/GepsToken.sol\":9717:9722  value */\n      dup6\n        /* \"contracts/GepsToken.sol\":9686:9701  _spendAllowance */\n      tag_143\n        /* \"contracts/GepsToken.sol\":9686:9723  _spendAllowance(from, spender, value) */\n      jump\t// in\n    tag_142:\n        /* \"contracts/GepsToken.sol\":9734:9760  _transfer(from, to, value) */\n      tag_144\n        /* \"contracts/GepsToken.sol\":9744:9748  from */\n      dup6\n        /* \"contracts/GepsToken.sol\":9750:9752  to */\n      dup6\n        /* \"contracts/GepsToken.sol\":9754:9759  value */\n      dup6\n        /* \"contracts/GepsToken.sol\":9734:9743  _transfer */\n      tag_145\n        /* \"contracts/GepsToken.sol\":9734:9760  _transfer(from, to, value) */\n      jump\t// in\n    tag_144:\n      pop\n        /* \"contracts/GepsToken.sol\":9778:9782  true */\n      0x01\n      swap5\n        /* \"contracts/GepsToken.sol\":9507:9790  function transferFrom(... */\n      swap4\n      pop\n      pop\n      pop\n      pop\n      jump\t// out\n        /* \"contracts/GepsToken.sol\":14356:14459  function renounceOwnership() public virtual onlyOwner {... */\n    tag_73:\n        /* \"contracts/GepsToken.sol\":13903:13916  _checkOwner() */\n      tag_149\n        /* \"contracts/GepsToken.sol\":13903:13914  _checkOwner */\n      tag_124\n        /* \"contracts/GepsToken.sol\":13903:13916  _checkOwner() */\n      jump\t// in\n    tag_149:\n        /* \"contracts/GepsToken.sol\":14421:14451  _transferOwnership(address(0)) */\n      tag_138\n        /* \"contracts/GepsToken.sol\":14448:14449  0 */\n      0x00\n        /* \"contracts/GepsToken.sol\":14421:14439  _transferOwnership */\n      tag_152\n        /* \"contracts/GepsToken.sol\":14421:14451  _transferOwnership(address(0)) */\n      jump\t// in\n        /* \"contracts/GepsToken.sol\":8324:8419  function symbol() public view virtual returns (string memory) {... */\n    tag_78:\n        /* \"contracts/GepsToken.sol\":8371:8384  string memory */\n      0x60\n        /* \"contracts/GepsToken.sol\":8404:8411  _symbol */\n      0x04\n        /* \"contracts/GepsToken.sol\":8397:8411  return _symbol */\n      dup1\n      sload\n      tag_111\n      swap1\n      tag_112\n      jump\t// in\n        /* \"contracts/GepsToken.sol\":8864:9046  function transfer(address to, uint256 value) public virtual returns (bool) {... */\n    tag_85:\n        /* \"contracts/GepsToken.sol\":8933:8937  bool */\n      0x00\n        /* \"contracts/GepsToken.sol\":2551:2561  msg.sender */\n      caller\n        /* \"contracts/GepsToken.sol\":8989:9016  _transfer(owner, to, value) */\n      tag_120\n        /* \"contracts/GepsToken.sol\":2551:2561  msg.sender */\n      dup2\n        /* \"contracts/GepsToken.sol\":9006:9008  to */\n      dup6\n        /* \"contracts/GepsToken.sol\":9010:9015  value */\n      dup6\n        /* \"contracts/GepsToken.sol\":8989:8998  _transfer */\n      tag_145\n        /* \"contracts/GepsToken.sol\":8989:9016  _transfer(owner, to, value) */\n      jump\t// in\n        /* \"contracts/GepsToken.sol\":14467:14687  function transferOwnership(address newOwner) public virtual onlyOwner {... */\n    tag_106:\n        /* \"contracts/GepsToken.sol\":13903:13916  _checkOwner() */\n      tag_165\n        /* \"contracts/GepsToken.sol\":13903:13914  _checkOwner */\n      tag_124\n        /* \"contracts/GepsToken.sol\":13903:13916  _checkOwner() */\n      jump\t// in\n    tag_165:\n      sub(shl(0xa0, 0x01), 0x01)\n        /* \"contracts/GepsToken.sol\":14552:14574  newOwner == address(0) */\n      dup2\n      and\n        /* \"contracts/GepsToken.sol\":14548:14641  if (newOwner == address(0)) {... */\n      tag_167\n      jumpi\n        /* \"contracts/GepsToken.sol\":14598:14629  OwnableInvalidOwner(address(0)) */\n      mload(0x40)\n      shl(0xe0, 0x1e4fbdf7)\n      dup2\n      mstore\n        /* \"contracts/GepsToken.sol\":14626:14627  0 */\n      0x00\n        /* \"contracts/GepsToken.sol\":14598:14629  OwnableInvalidOwner(address(0)) */\n      0x04\n      dup3\n      add\n        /* \"#utility.yul\":1258:1309   */\n      mstore\n        /* \"#utility.yul\":1231:1249   */\n      0x24\n      add\n        /* \"contracts/GepsToken.sol\":14598:14629  OwnableInvalidOwner(address(0)) */\n      tag_127\n        /* \"#utility.yul\":1112:1315   */\n      jump\n        /* \"contracts/GepsToken.sol\":14548:14641  if (newOwner == address(0)) {... */\n    tag_167:\n        /* \"contracts/GepsToken.sol\":14651:14679  _transferOwnership(newOwner) */\n      tag_169\n        /* \"contracts/GepsToken.sol\":14670:14678  newOwner */\n      dup2\n        /* \"contracts/GepsToken.sol\":14651:14669  _transferOwnership */\n      tag_152\n        /* \"contracts/GepsToken.sol\":14651:14679  _transferOwnership(newOwner) */\n      jump\t// in\n    tag_169:\n        /* \"contracts/GepsToken.sol\":14467:14687  function transferOwnership(address newOwner) public virtual onlyOwner {... */\n      pop\n      jump\t// out\n        /* \"contracts/GepsToken.sol\":11739:11869  function _approve(address owner, address spender, uint256 value) internal {... */\n    tag_121:\n        /* \"contracts/GepsToken.sol\":11824:11861  _approve(owner, spender, value, true) */\n      tag_172\n        /* \"contracts/GepsToken.sol\":11833:11838  owner */\n      dup4\n        /* \"contracts/GepsToken.sol\":11840:11847  spender */\n      dup4\n        /* \"contracts/GepsToken.sol\":11849:11854  value */\n      dup4\n        /* \"contracts/GepsToken.sol\":11856:11860  true */\n      0x01\n        /* \"contracts/GepsToken.sol\":11824:11832  _approve */\n      tag_173\n        /* \"contracts/GepsToken.sol\":11824:11861  _approve(owner, spender, value, true) */\n      jump\t// in\n    tag_172:\n        /* \"contracts/GepsToken.sol\":11739:11869  function _approve(address owner, address spender, uint256 value) internal {... */\n      pop\n      pop\n      pop\n      jump\t// out\n        /* \"contracts/GepsToken.sol\":14182:14348  function _checkOwner() internal view virtual {... */\n    tag_124:\n        /* \"contracts/GepsToken.sol\":14090:14096  _owner */\n      and(sub(shl(0xa0, 0x01), 0x01), sload(0x05))\n        /* \"contracts/GepsToken.sol\":2551:2561  msg.sender */\n      caller\n        /* \"contracts/GepsToken.sol\":14242:14265  owner() != _msgSender() */\n      eq\n        /* \"contracts/GepsToken.sol\":14238:14341  if (owner() != _msgSender()) {... */\n      tag_138\n      jumpi\n        /* \"contracts/GepsToken.sol\":14289:14329  OwnableUnauthorizedAccount(_msgSender()) */\n      mload(0x40)\n      shl(0xe0, 0x118cdaa7)\n      dup2\n      mstore\n        /* \"contracts/GepsToken.sol\":2551:2561  msg.sender */\n      caller\n        /* \"contracts/GepsToken.sol\":14289:14329  OwnableUnauthorizedAccount(_msgSender()) */\n      0x04\n      dup3\n      add\n        /* \"#utility.yul\":1258:1309   */\n      mstore\n        /* \"#utility.yul\":1231:1249   */\n      0x24\n      add\n        /* \"contracts/GepsToken.sol\":14289:14329  OwnableUnauthorizedAccount(_msgSender()) */\n      tag_127\n        /* \"#utility.yul\":1112:1315   */\n      jump\n        /* \"contracts/GepsToken.sol\":11299:11512  function _mint(address account, uint256 value) internal {... */\n    tag_130:\n      sub(shl(0xa0, 0x01), 0x01)\n        /* \"contracts/GepsToken.sol\":11370:11391  account == address(0) */\n      dup3\n      and\n        /* \"contracts/GepsToken.sol\":11366:11459  if (account == address(0)) {... */\n      tag_181\n      jumpi\n        /* \"contracts/GepsToken.sol\":11415:11447  ERC20InvalidReceiver(address(0)) */\n      mload(0x40)\n      shl(0xe0, 0xec442f05)\n      dup2\n      mstore\n        /* \"contracts/GepsToken.sol\":11444:11445  0 */\n      0x00\n        /* \"contracts/GepsToken.sol\":11415:11447  ERC20InvalidReceiver(address(0)) */\n      0x04\n      dup3\n      add\n        /* \"#utility.yul\":1258:1309   */\n      mstore\n        /* \"#utility.yul\":1231:1249   */\n      0x24\n      add\n        /* \"contracts/GepsToken.sol\":11415:11447  ERC20InvalidReceiver(address(0)) */\n      tag_127\n        /* \"#utility.yul\":1112:1315   */\n      jump\n        /* \"contracts/GepsToken.sol\":11366:11459  if (account == address(0)) {... */\n    tag_181:\n        /* \"contracts/GepsToken.sol\":11469:11504  _update(address(0), account, value) */\n      tag_183\n        /* \"contracts/GepsToken.sol\":11485:11486  0 */\n      0x00\n        /* \"contracts/GepsToken.sol\":11489:11496  account */\n      dup4\n        /* \"contracts/GepsToken.sol\":11498:11503  value */\n      dup4\n        /* \"contracts/GepsToken.sol\":11469:11476  _update */\n      tag_184\n        /* \"contracts/GepsToken.sol\":11469:11504  _update(address(0), account, value) */\n      jump\t// in\n    tag_183:\n        /* \"contracts/GepsToken.sol\":11299:11512  function _mint(address account, uint256 value) internal {... */\n      pop\n      pop\n      jump\t// out\n        /* \"contracts/GepsToken.sol\":12371:12974  function _spendAllowance(... */\n    tag_143:\n      sub(shl(0xa0, 0x01), 0x01)\n        /* \"contracts/GepsToken.sol\":9241:9259  _allowances[owner] */\n      dup4\n      dup2\n      and\n        /* \"contracts/GepsToken.sol\":12505:12529  uint256 currentAllowance */\n      0x00\n        /* \"contracts/GepsToken.sol\":9241:9259  _allowances[owner] */\n      swap1\n      dup2\n      mstore\n        /* \"contracts/GepsToken.sol\":9241:9252  _allowances */\n      0x01\n        /* \"contracts/GepsToken.sol\":9241:9259  _allowances[owner] */\n      0x20\n      swap1\n      dup2\n      mstore\n      0x40\n      dup1\n      dup4\n      keccak256\n        /* \"contracts/GepsToken.sol\":9241:9268  _allowances[owner][spender] */\n      swap4\n      dup7\n      and\n      dup4\n      mstore\n      swap3\n      swap1\n      mstore\n      keccak256\n      sload\n      not(0x00)\n        /* \"contracts/GepsToken.sol\":12572:12609  currentAllowance != type(uint256).max */\n      dup2\n      eq\n        /* \"contracts/GepsToken.sol\":12568:12967  if (currentAllowance != type(uint256).max) {... */\n      tag_191\n      jumpi\n        /* \"contracts/GepsToken.sol\":12649:12654  value */\n      dup2\n        /* \"contracts/GepsToken.sol\":12630:12646  currentAllowance */\n      dup2\n        /* \"contracts/GepsToken.sol\":12630:12654  currentAllowance < value */\n      lt\n        /* \"contracts/GepsToken.sol\":12626:12840  if (currentAllowance < value) {... */\n      iszero\n      tag_188\n      jumpi\n        /* \"contracts/GepsToken.sol\":12682:12824  ERC20InsufficientAllowance(... */\n      mload(0x40)\n      shl(0xe1, 0x7dc7a0d9)\n      dup2\n      mstore\n      sub(shl(0xa0, 0x01), 0x01)\n        /* \"#utility.yul\":3491:3523   */\n      dup5\n      and\n        /* \"contracts/GepsToken.sol\":12682:12824  ERC20InsufficientAllowance(... */\n      0x04\n      dup3\n      add\n        /* \"#utility.yul\":3473:3524   */\n      mstore\n        /* \"#utility.yul\":3540:3558   */\n      0x24\n      dup2\n      add\n        /* \"#utility.yul\":3533:3567   */\n      dup3\n      swap1\n      mstore\n        /* \"#utility.yul\":3583:3601   */\n      0x44\n      dup2\n      add\n        /* \"#utility.yul\":3576:3610   */\n      dup4\n      swap1\n      mstore\n        /* \"#utility.yul\":3446:3464   */\n      0x64\n      add\n        /* \"contracts/GepsToken.sol\":12682:12824  ERC20InsufficientAllowance(... */\n      tag_127\n        /* \"#utility.yul\":3271:3616   */\n      jump\n        /* \"contracts/GepsToken.sol\":12626:12840  if (currentAllowance < value) {... */\n    tag_188:\n        /* \"contracts/GepsToken.sol\":12883:12940  _approve(owner, spender, currentAllowance - value, false) */\n      tag_191\n        /* \"contracts/GepsToken.sol\":12892:12897  owner */\n      dup5\n        /* \"contracts/GepsToken.sol\":12899:12906  spender */\n      dup5\n        /* \"contracts/GepsToken.sol\":12927:12932  value */\n      dup5\n        /* \"contracts/GepsToken.sol\":12908:12924  currentAllowance */\n      dup5\n        /* \"contracts/GepsToken.sol\":12908:12932  currentAllowance - value */\n      sub\n        /* \"contracts/GepsToken.sol\":12934:12939  false */\n      0x00\n        /* \"contracts/GepsToken.sol\":12883:12891  _approve */\n      tag_173\n        /* \"contracts/GepsToken.sol\":12883:12940  _approve(owner, spender, currentAllowance - value, false) */\n      jump\t// in\n    tag_191:\n        /* \"contracts/GepsToken.sol\":12494:12974  {... */\n      pop\n        /* \"contracts/GepsToken.sol\":12371:12974  function _spendAllowance(... */\n      pop\n      pop\n      pop\n      jump\t// out\n        /* \"contracts/GepsToken.sol\":17046:18002  function _transfer(... */\n    tag_145:\n        /* \"contracts/GepsToken.sol\":14090:14096  _owner */\n      sload(0x05)\n      sub(shl(0xa0, 0x01), 0x01)\n        /* \"contracts/GepsToken.sol\":17191:17208  sender == owner() */\n      dup5\n      dup2\n      and\n        /* \"contracts/GepsToken.sol\":14090:14096  _owner */\n      swap2\n      and\n        /* \"contracts/GepsToken.sol\":17191:17208  sender == owner() */\n      eq\n      dup1\n        /* \"contracts/GepsToken.sol\":17191:17232  sender == owner() || recipient == owner() */\n      tag_194\n      jumpi\n      pop\n        /* \"contracts/GepsToken.sol\":14090:14096  _owner */\n      sload(0x05)\n      sub(shl(0xa0, 0x01), 0x01)\n        /* \"contracts/GepsToken.sol\":17212:17232  recipient == owner() */\n      dup4\n      dup2\n      and\n        /* \"contracts/GepsToken.sol\":14090:14096  _owner */\n      swap2\n      and\n        /* \"contracts/GepsToken.sol\":17212:17232  recipient == owner() */\n      eq\n        /* \"contracts/GepsToken.sol\":17191:17232  sender == owner() || recipient == owner() */\n    tag_194:\n        /* \"contracts/GepsToken.sol\":17187:17995  if (sender == owner() || recipient == owner()) {... */\n      iszero\n      tag_196\n      jumpi\n        /* \"contracts/GepsToken.sol\":17327:17369  super._transfer(sender, recipient, amount) */\n      tag_172\n        /* \"contracts/GepsToken.sol\":17343:17349  sender */\n      dup4\n        /* \"contracts/GepsToken.sol\":17351:17360  recipient */\n      dup4\n        /* \"contracts/GepsToken.sol\":17362:17368  amount */\n      dup4\n        /* \"contracts/GepsToken.sol\":17327:17342  super._transfer */\n      tag_198\n        /* \"contracts/GepsToken.sol\":17327:17369  super._transfer(sender, recipient, amount) */\n      jump\t// in\n        /* \"contracts/GepsToken.sol\":17187:17995  if (sender == owner() || recipient == owner()) {... */\n    tag_196:\n        /* \"contracts/GepsToken.sol\":17443:17460  uint256 taxAmount */\n      0x00\n        /* \"contracts/GepsToken.sol\":17488:17491  100 */\n      0x64\n        /* \"contracts/GepsToken.sol\":17464:17484  amount * TAX_PERCENT */\n      tag_200\n        /* \"contracts/GepsToken.sol\":15232:15233  2 */\n      0x02\n        /* \"contracts/GepsToken.sol\":17464:17470  amount */\n      dup5\n        /* \"contracts/GepsToken.sol\":17464:17484  amount * TAX_PERCENT */\n      tag_201\n      jump\t// in\n    tag_200:\n        /* \"contracts/GepsToken.sol\":17463:17491  (amount * TAX_PERCENT) / 100 */\n      tag_202\n      swap2\n      swap1\n      tag_203\n      jump\t// in\n    tag_202:\n        /* \"contracts/GepsToken.sol\":17443:17491  uint256 taxAmount = (amount * TAX_PERCENT) / 100 */\n      swap1\n      pop\n        /* \"contracts/GepsToken.sol\":17506:17528  uint256 transferAmount */\n      0x00\n        /* \"contracts/GepsToken.sol\":17531:17549  amount - taxAmount */\n      tag_204\n        /* \"contracts/GepsToken.sol\":17443:17491  uint256 taxAmount = (amount * TAX_PERCENT) / 100 */\n      dup3\n        /* \"contracts/GepsToken.sol\":17531:17537  amount */\n      dup5\n        /* \"contracts/GepsToken.sol\":17531:17549  amount - taxAmount */\n      tag_205\n      jump\t// in\n    tag_204:\n        /* \"contracts/GepsToken.sol\":17506:17549  uint256 transferAmount = amount - taxAmount */\n      swap1\n      pop\n        /* \"contracts/GepsToken.sol\":17622:17637  uint256 halfTax */\n      0x00\n        /* \"contracts/GepsToken.sol\":17640:17653  taxAmount / 2 */\n      tag_206\n        /* \"contracts/GepsToken.sol\":17652:17653  2 */\n      0x02\n        /* \"contracts/GepsToken.sol\":17640:17649  taxAmount */\n      dup5\n        /* \"contracts/GepsToken.sol\":17640:17653  taxAmount / 2 */\n      tag_203\n      jump\t// in\n    tag_206:\n        /* \"contracts/GepsToken.sol\":17622:17653  uint256 halfTax = taxAmount / 2 */\n      swap1\n      pop\n        /* \"contracts/GepsToken.sol\":17668:17688  uint256 remainingTax */\n      0x00\n        /* \"contracts/GepsToken.sol\":17691:17710  taxAmount - halfTax */\n      tag_207\n        /* \"contracts/GepsToken.sol\":17622:17653  uint256 halfTax = taxAmount / 2 */\n      dup3\n        /* \"contracts/GepsToken.sol\":17691:17700  taxAmount */\n      dup6\n        /* \"contracts/GepsToken.sol\":17691:17710  taxAmount - halfTax */\n      tag_205\n      jump\t// in\n    tag_207:\n        /* \"contracts/GepsToken.sol\":17825:17840  treasuryAddress */\n      sload(0x09)\n        /* \"contracts/GepsToken.sol\":17668:17710  uint256 remainingTax = taxAmount - halfTax */\n      swap1\n      swap2\n      pop\n        /* \"contracts/GepsToken.sol\":17801:17850  super._transfer(sender, treasuryAddress, halfTax) */\n      tag_208\n      swap1\n        /* \"contracts/GepsToken.sol\":17817:17823  sender */\n      dup9\n      swap1\n      sub(shl(0xa0, 0x01), 0x01)\n        /* \"contracts/GepsToken.sol\":17825:17840  treasuryAddress */\n      and\n        /* \"contracts/GepsToken.sol\":17842:17849  halfTax */\n      dup5\n        /* \"contracts/GepsToken.sol\":17801:17816  super._transfer */\n      tag_198\n        /* \"contracts/GepsToken.sol\":17801:17850  super._transfer(sender, treasuryAddress, halfTax) */\n      jump\t// in\n    tag_208:\n        /* \"contracts/GepsToken.sol\":17889:17903  charityAddress */\n      sload(0x0d)\n        /* \"contracts/GepsToken.sol\":17865:17918  super._transfer(sender, charityAddress, remainingTax) */\n      tag_209\n      swap1\n        /* \"contracts/GepsToken.sol\":17881:17887  sender */\n      dup9\n      swap1\n      sub(shl(0xa0, 0x01), 0x01)\n        /* \"contracts/GepsToken.sol\":17889:17903  charityAddress */\n      and\n        /* \"contracts/GepsToken.sol\":17905:17917  remainingTax */\n      dup4\n        /* \"contracts/GepsToken.sol\":17865:17880  super._transfer */\n      tag_198\n        /* \"contracts/GepsToken.sol\":17865:17918  super._transfer(sender, charityAddress, remainingTax) */\n      jump\t// in\n    tag_209:\n        /* \"contracts/GepsToken.sol\":17933:17983  super._transfer(sender, recipient, transferAmount) */\n      tag_210\n        /* \"contracts/GepsToken.sol\":17949:17955  sender */\n      dup8\n        /* \"contracts/GepsToken.sol\":17957:17966  recipient */\n      dup8\n        /* \"contracts/GepsToken.sol\":17968:17982  transferAmount */\n      dup6\n        /* \"contracts/GepsToken.sol\":17933:17948  super._transfer */\n      tag_198\n        /* \"contracts/GepsToken.sol\":17933:17983  super._transfer(sender, recipient, transferAmount) */\n      jump\t// in\n    tag_210:\n        /* \"contracts/GepsToken.sol\":17387:17995  {... */\n      pop\n      pop\n      pop\n      pop\n        /* \"contracts/GepsToken.sol\":17046:18002  function _transfer(... */\n      pop\n      pop\n      pop\n      jump\t// out\n        /* \"contracts/GepsToken.sol\":14847:15038  function _transferOwnership(address newOwner) internal virtual {... */\n    tag_152:\n        /* \"contracts/GepsToken.sol\":14940:14946  _owner */\n      0x05\n      dup1\n      sload\n      sub(shl(0xa0, 0x01), 0x01)\n        /* \"contracts/GepsToken.sol\":14957:14974  _owner = newOwner */\n      dup4\n      dup2\n      and\n      not(sub(shl(0xa0, 0x01), 0x01))\n      dup4\n      and\n      dup2\n      or\n      swap1\n      swap4\n      sstore\n        /* \"contracts/GepsToken.sol\":14990:15030  OwnershipTransferred(oldOwner, newOwner) */\n      mload(0x40)\n        /* \"contracts/GepsToken.sol\":14940:14946  _owner */\n      swap2\n      and\n      swap2\n        /* \"contracts/GepsToken.sol\":14957:14974  _owner = newOwner */\n      swap1\n        /* \"contracts/GepsToken.sol\":14940:14946  _owner */\n      dup3\n      swap1\n        /* \"contracts/GepsToken.sol\":14990:15030  OwnershipTransferred(oldOwner, newOwner) */\n      0x8be0079c531659141344cd1fd0a4f28419497f9722a3daafe3b4186f6b6457e0\n      swap1\n        /* \"contracts/GepsToken.sol\":14921:14937  address oldOwner */\n      0x00\n      swap1\n        /* \"contracts/GepsToken.sol\":14990:15030  OwnershipTransferred(oldOwner, newOwner) */\n      log3\n        /* \"contracts/GepsToken.sol\":14910:15038  {... */\n      pop\n        /* \"contracts/GepsToken.sol\":14847:15038  function _transferOwnership(address newOwner) internal virtual {... */\n      pop\n      jump\t// out\n        /* \"contracts/GepsToken.sol\":11877:12363  function _approve(... */\n    tag_173:\n      sub(shl(0xa0, 0x01), 0x01)\n        /* \"contracts/GepsToken.sol\":12033:12052  owner == address(0) */\n      dup5\n      and\n        /* \"contracts/GepsToken.sol\":12029:12120  if (owner == address(0)) {... */\n      tag_213\n      jumpi\n        /* \"contracts/GepsToken.sol\":12076:12108  ERC20InvalidApprover(address(0)) */\n      mload(0x40)\n      shl(0xe0, 0xe602df05)\n      dup2\n      mstore\n        /* \"contracts/GepsToken.sol\":12105:12106  0 */\n      0x00\n        /* \"contracts/GepsToken.sol\":12076:12108  ERC20InvalidApprover(address(0)) */\n      0x04\n      dup3\n      add\n        /* \"#utility.yul\":1258:1309   */\n      mstore\n        /* \"#utility.yul\":1231:1249   */\n      0x24\n      add\n        /* \"contracts/GepsToken.sol\":12076:12108  ERC20InvalidApprover(address(0)) */\n      tag_127\n        /* \"#utility.yul\":1112:1315   */\n      jump\n        /* \"contracts/GepsToken.sol\":12029:12120  if (owner == address(0)) {... */\n    tag_213:\n      sub(shl(0xa0, 0x01), 0x01)\n        /* \"contracts/GepsToken.sol\":12134:12155  spender == address(0) */\n      dup4\n      and\n        /* \"contracts/GepsToken.sol\":12130:12222  if (spender == address(0)) {... */\n      tag_215\n      jumpi\n        /* \"contracts/GepsToken.sol\":12179:12210  ERC20InvalidSpender(address(0)) */\n      mload(0x40)\n      shl(0xe1, 0x4a1406b1)\n      dup2\n      mstore\n        /* \"contracts/GepsToken.sol\":12207:12208  0 */\n      0x00\n        /* \"contracts/GepsToken.sol\":12179:12210  ERC20InvalidSpender(address(0)) */\n      0x04\n      dup3\n      add\n        /* \"#utility.yul\":1258:1309   */\n      mstore\n        /* \"#utility.yul\":1231:1249   */\n      0x24\n      add\n        /* \"contracts/GepsToken.sol\":12179:12210  ERC20InvalidSpender(address(0)) */\n      tag_127\n        /* \"#utility.yul\":1112:1315   */\n      jump\n        /* \"contracts/GepsToken.sol\":12130:12222  if (spender == address(0)) {... */\n    tag_215:\n      sub(shl(0xa0, 0x01), 0x01)\n        /* \"contracts/GepsToken.sol\":12232:12250  _allowances[owner] */\n      dup1\n      dup6\n      and\n      0x00\n      swap1\n      dup2\n      mstore\n        /* \"contracts/GepsToken.sol\":12232:12243  _allowances */\n      0x01\n        /* \"contracts/GepsToken.sol\":12232:12250  _allowances[owner] */\n      0x20\n      swap1\n      dup2\n      mstore\n      0x40\n      dup1\n      dup4\n      keccak256\n        /* \"contracts/GepsToken.sol\":12232:12259  _allowances[owner][spender] */\n      swap4\n      dup8\n      and\n      dup4\n      mstore\n      swap3\n      swap1\n      mstore\n      keccak256\n        /* \"contracts/GepsToken.sol\":12232:12267  _allowances[owner][spender] = value */\n      dup3\n      swap1\n      sstore\n        /* \"contracts/GepsToken.sol\":12278:12356  if (emitEvent) {... */\n      dup1\n      iszero\n      tag_191\n      jumpi\n        /* \"contracts/GepsToken.sol\":12329:12336  spender */\n      dup3\n      sub(shl(0xa0, 0x01), 0x01)\n        /* \"contracts/GepsToken.sol\":12313:12344  Approval(owner, spender, value) */\n      and\n        /* \"contracts/GepsToken.sol\":12322:12327  owner */\n      dup5\n      sub(shl(0xa0, 0x01), 0x01)\n        /* \"contracts/GepsToken.sol\":12313:12344  Approval(owner, spender, value) */\n      and\n      0x8c5be1e5ebec7d5bd14f71427d1e84f3dd0314c0f7b2291e5b200ac8c7c3b925\n        /* \"contracts/GepsToken.sol\":12338:12343  value */\n      dup5\n        /* \"contracts/GepsToken.sol\":12313:12344  Approval(owner, spender, value) */\n      mload(0x40)\n      tag_218\n      swap2\n        /* \"#utility.yul\":1466:1491   */\n      dup2\n      mstore\n        /* \"#utility.yul\":1454:1456   */\n      0x20\n        /* \"#utility.yul\":1439:1457   */\n      add\n      swap1\n        /* \"#utility.yul\":1320:1497   */\n      jump\n        /* \"contracts/GepsToken.sol\":12313:12344  Approval(owner, spender, value) */\n    tag_218:\n      mload(0x40)\n      dup1\n      swap2\n      sub\n      swap1\n      log3\n        /* \"contracts/GepsToken.sol\":11877:12363  function _approve(... */\n      pop\n      pop\n      pop\n      pop\n      jump\t// out\n        /* \"contracts/GepsToken.sol\":10156:11291  function _update(address from, address to, uint256 value) internal virtual {... */\n    tag_184:\n      sub(shl(0xa0, 0x01), 0x01)\n        /* \"contracts/GepsToken.sol\":10246:10264  from == address(0) */\n      dup4\n      and\n        /* \"contracts/GepsToken.sol\":10242:10794  if (from == address(0)) {... */\n      tag_220\n      jumpi\n        /* \"contracts/GepsToken.sol\":10400:10405  value */\n      dup1\n        /* \"contracts/GepsToken.sol\":10384:10396  _totalSupply */\n      0x02\n      0x00\n        /* \"contracts/GepsToken.sol\":10384:10405  _totalSupply += value */\n      dup3\n      dup3\n      sload\n      tag_221\n      swap2\n      swap1\n      tag_222\n      jump\t// in\n    tag_221:\n      swap1\n      swap2\n      sstore\n      pop\n        /* \"contracts/GepsToken.sol\":10242:10794  if (from == address(0)) {... */\n      tag_223\n      swap1\n      pop\n      jump\n    tag_220:\n      sub(shl(0xa0, 0x01), 0x01)\n        /* \"contracts/GepsToken.sol\":10460:10475  _balances[from] */\n      dup4\n      and\n        /* \"contracts/GepsToken.sol\":10438:10457  uint256 fromBalance */\n      0x00\n        /* \"contracts/GepsToken.sol\":10460:10475  _balances[from] */\n      swap1\n      dup2\n      mstore\n      0x20\n      dup2\n      swap1\n      mstore\n      0x40\n      swap1\n      keccak256\n      sload\n        /* \"contracts/GepsToken.sol\":10494:10513  fromBalance < value */\n      dup2\n      dup2\n      lt\n        /* \"contracts/GepsToken.sol\":10490:10607  if (fromBalance < value) {... */\n      iszero\n      tag_224\n      jumpi\n        /* \"contracts/GepsToken.sol\":10541:10591  ERC20InsufficientBalance(from, fromBalance, value) */\n      mload(0x40)\n      shl(0xe2, 0x391434e3)\n      dup2\n      mstore\n      sub(shl(0xa0, 0x01), 0x01)\n        /* \"#utility.yul\":3491:3523   */\n      dup6\n      and\n        /* \"contracts/GepsToken.sol\":10541:10591  ERC20InsufficientBalance(from, fromBalance, value) */\n      0x04\n      dup3\n      add\n        /* \"#utility.yul\":3473:3524   */\n      mstore\n        /* \"#utility.yul\":3540:3558   */\n      0x24\n      dup2\n      add\n        /* \"#utility.yul\":3533:3567   */\n      dup3\n      swap1\n      mstore\n        /* \"#utility.yul\":3583:3601   */\n      0x44\n      dup2\n      add\n        /* \"#utility.yul\":3576:3610   */\n      dup4\n      swap1\n      mstore\n        /* \"#utility.yul\":3446:3464   */\n      0x64\n      add\n        /* \"contracts/GepsToken.sol\":10541:10591  ERC20InsufficientBalance(from, fromBalance, value) */\n      tag_127\n        /* \"#utility.yul\":3271:3616   */\n      jump\n        /* \"contracts/GepsToken.sol\":10490:10607  if (fromBalance < value) {... */\n    tag_224:\n      sub(shl(0xa0, 0x01), 0x01)\n        /* \"contracts/GepsToken.sol\":10730:10745  _balances[from] */\n      dup5\n      and\n        /* \"contracts/GepsToken.sol\":10730:10739  _balances */\n      0x00\n        /* \"contracts/GepsToken.sol\":10730:10745  _balances[from] */\n      swap1\n      dup2\n      mstore\n      0x20\n      dup2\n      swap1\n      mstore\n      0x40\n      swap1\n      keccak256\n        /* \"contracts/GepsToken.sol\":10748:10767  fromBalance - value */\n      swap1\n      dup3\n      swap1\n      sub\n        /* \"contracts/GepsToken.sol\":10730:10767  _balances[from] = fromBalance - value */\n      swap1\n      sstore\n        /* \"contracts/GepsToken.sol\":10242:10794  if (from == address(0)) {... */\n    tag_223:\n      sub(shl(0xa0, 0x01), 0x01)\n        /* \"contracts/GepsToken.sol\":10810:10826  to == address(0) */\n      dup3\n      and\n        /* \"contracts/GepsToken.sol\":10806:11241  if (to == address(0)) {... */\n      tag_226\n      jumpi\n        /* \"contracts/GepsToken.sol\":10976:10988  _totalSupply */\n      0x02\n        /* \"contracts/GepsToken.sol\":10976:10997  _totalSupply -= value */\n      dup1\n      sload\n      dup3\n      swap1\n      sub\n      swap1\n      sstore\n        /* \"contracts/GepsToken.sol\":10806:11241  if (to == address(0)) {... */\n      jump(tag_227)\n    tag_226:\n      sub(shl(0xa0, 0x01), 0x01)\n        /* \"contracts/GepsToken.sol\":11192:11205  _balances[to] */\n      dup3\n      and\n        /* \"contracts/GepsToken.sol\":11192:11201  _balances */\n      0x00\n        /* \"contracts/GepsToken.sol\":11192:11205  _balances[to] */\n      swap1\n      dup2\n      mstore\n      0x20\n      dup2\n      swap1\n      mstore\n      0x40\n      swap1\n      keccak256\n        /* \"contracts/GepsToken.sol\":11192:11214  _balances[to] += value */\n      dup1\n      sload\n      dup3\n      add\n      swap1\n      sstore\n        /* \"contracts/GepsToken.sol\":10806:11241  if (to == address(0)) {... */\n    tag_227:\n        /* \"contracts/GepsToken.sol\":11273:11275  to */\n      dup2\n      sub(shl(0xa0, 0x01), 0x01)\n        /* \"contracts/GepsToken.sol\":11258:11283  Transfer(from, to, value) */\n      and\n        /* \"contracts/GepsToken.sol\":11267:11271  from */\n      dup4\n      sub(shl(0xa0, 0x01), 0x01)\n        /* \"contracts/GepsToken.sol\":11258:11283  Transfer(from, to, value) */\n      and\n      0xddf252ad1be2c89b69c2b068fc378daa952ba7f163c4a11628f55a4df523b3ef\n        /* \"contracts/GepsToken.sol\":11277:11282  value */\n      dup4\n        /* \"contracts/GepsToken.sol\":11258:11283  Transfer(from, to, value) */\n      mload(0x40)\n      tag_228\n      swap2\n        /* \"#utility.yul\":1466:1491   */\n      dup2\n      mstore\n        /* \"#utility.yul\":1454:1456   */\n      0x20\n        /* \"#utility.yul\":1439:1457   */\n      add\n      swap1\n        /* \"#utility.yul\":1320:1497   */\n      jump\n        /* \"contracts/GepsToken.sol\":11258:11283  Transfer(from, to, value) */\n    tag_228:\n      mload(0x40)\n      dup1\n      swap2\n      sub\n      swap1\n      log3\n        /* \"contracts/GepsToken.sol\":10156:11291  function _update(address from, address to, uint256 value) internal virtual {... */\n      pop\n      pop\n      pop\n      jump\t// out\n        /* \"contracts/GepsToken.sol\":9798:10148  function _transfer(... */\n    tag_198:\n      sub(shl(0xa0, 0x01), 0x01)\n        /* \"contracts/GepsToken.sol\":9924:9942  from == address(0) */\n      dup4\n      and\n        /* \"contracts/GepsToken.sol\":9920:10008  if (from == address(0)) {... */\n      tag_230\n      jumpi\n        /* \"contracts/GepsToken.sol\":9966:9996  ERC20InvalidSender(address(0)) */\n      mload(0x40)\n      shl(0xe1, 0x4b637e8f)\n      dup2\n      mstore\n        /* \"contracts/GepsToken.sol\":9993:9994  0 */\n      0x00\n        /* \"contracts/GepsToken.sol\":9966:9996  ERC20InvalidSender(address(0)) */\n      0x04\n      dup3\n      add\n        /* \"#utility.yul\":1258:1309   */\n      mstore\n        /* \"#utility.yul\":1231:1249   */\n      0x24\n      add\n        /* \"contracts/GepsToken.sol\":9966:9996  ERC20InvalidSender(address(0)) */\n      tag_127\n        /* \"#utility.yul\":1112:1315   */\n      jump\n        /* \"contracts/GepsToken.sol\":9920:10008  if (from == address(0)) {... */\n    tag_230:\n      sub(shl(0xa0, 0x01), 0x01)\n        /* \"contracts/GepsToken.sol\":10022:10038  to == address(0) */\n      dup3\n      and\n        /* \"contracts/GepsToken.sol\":10018:10106  if (to == address(0)) {... */\n      tag_232\n      jumpi\n        /* \"contracts/GepsToken.sol\":10062:10094  ERC20InvalidReceiver(address(0)) */\n      mload(0x40)\n      shl(0xe0, 0xec442f05)\n      dup2\n      mstore\n        /* \"contracts/GepsToken.sol\":10091:10092  0 */\n      0x00\n        /* \"contracts/GepsToken.sol\":10062:10094  ERC20InvalidReceiver(address(0)) */\n      0x04\n      dup3\n      add\n        /* \"#utility.yul\":1258:1309   */\n      mstore\n        /* \"#utility.yul\":1231:1249   */\n      0x24\n      add\n        /* \"contracts/GepsToken.sol\":10062:10094  ERC20InvalidReceiver(address(0)) */\n      tag_127\n        /* \"#utility.yul\":1112:1315   */\n      jump\n        /* \"contracts/GepsToken.sol\":10018:10106  if (to == address(0)) {... */\n    tag_232:\n        /* \"contracts/GepsToken.sol\":10116:10140  _update(from, to, value) */\n      tag_172\n        /* \"contracts/GepsToken.sol\":10124:10128  from */\n      dup4\n        /* \"contracts/GepsToken.sol\":10130:10132  to */\n      dup4\n        /* \"contracts/GepsToken.sol\":10134:10139  value */\n      dup4\n        /* \"contracts/GepsToken.sol\":10116:10123  _update */\n      tag_184\n        /* \"contracts/GepsToken.sol\":10116:10140  _update(from, to, value) */\n      jump\t// in\n        /* \"#utility.yul\":14:432   */\n    tag_32:\n        /* \"#utility.yul\":163:165   */\n      0x20\n        /* \"#utility.yul\":152:161   */\n      dup2\n        /* \"#utility.yul\":145:166   */\n      mstore\n        /* \"#utility.yul\":126:130   */\n      0x00\n        /* \"#utility.yul\":195:201   */\n      dup3\n        /* \"#utility.yul\":189:202   */\n      mload\n        /* \"#utility.yul\":238:244   */\n      dup1\n        /* \"#utility.yul\":233:235   */\n      0x20\n        /* \"#utility.yul\":222:231   */\n      dup5\n        /* \"#utility.yul\":218:236   */\n      add\n        /* \"#utility.yul\":211:245   */\n      mstore\n        /* \"#utility.yul\":297:303   */\n      dup1\n        /* \"#utility.yul\":292:294   */\n      0x20\n        /* \"#utility.yul\":284:290   */\n      dup6\n        /* \"#utility.yul\":280:295   */\n      add\n        /* \"#utility.yul\":275:277   */\n      0x40\n        /* \"#utility.yul\":264:273   */\n      dup6\n        /* \"#utility.yul\":260:278   */\n      add\n        /* \"#utility.yul\":254:304   */\n      mcopy\n        /* \"#utility.yul\":353:354   */\n      0x00\n        /* \"#utility.yul\":348:350   */\n      0x40\n        /* \"#utility.yul\":339:345   */\n      dup3\n        /* \"#utility.yul\":328:337   */\n      dup6\n        /* \"#utility.yul\":324:346   */\n      add\n        /* \"#utility.yul\":320:351   */\n      add\n        /* \"#utility.yul\":313:355   */\n      mstore\n        /* \"#utility.yul\":423:425   */\n      0x40\n        /* \"#utility.yul\":416:418   */\n      0x1f\n        /* \"#utility.yul\":412:419   */\n      not\n        /* \"#utility.yul\":407:409   */\n      0x1f\n        /* \"#utility.yul\":399:405   */\n      dup4\n        /* \"#utility.yul\":395:410   */\n      add\n        /* \"#utility.yul\":391:420   */\n      and\n        /* \"#utility.yul\":380:389   */\n      dup5\n        /* \"#utility.yul\":376:421   */\n      add\n        /* \"#utility.yul\":372:426   */\n      add\n        /* \"#utility.yul\":364:426   */\n      swap2\n      pop\n      pop\n        /* \"#utility.yul\":14:432   */\n      swap3\n      swap2\n      pop\n      pop\n      jump\t// out\n        /* \"#utility.yul\":437:610   */\n    tag_235:\n        /* \"#utility.yul\":505:525   */\n      dup1\n      calldataload\n      sub(shl(0xa0, 0x01), 0x01)\n        /* \"#utility.yul\":554:585   */\n      dup2\n      and\n        /* \"#utility.yul\":544:586   */\n      dup2\n      eq\n        /* \"#utility.yul\":534:604   */\n      tag_240\n      jumpi\n        /* \"#utility.yul\":600:601   */\n      0x00\n        /* \"#utility.yul\":597:598   */\n      dup1\n        /* \"#utility.yul\":590:602   */\n      revert\n        /* \"#utility.yul\":534:604   */\n    tag_240:\n        /* \"#utility.yul\":437:610   */\n      swap2\n      swap1\n      pop\n      jump\t// out\n        /* \"#utility.yul\":615:915   */\n    tag_35:\n        /* \"#utility.yul\":683:689   */\n      0x00\n        /* \"#utility.yul\":691:697   */\n      dup1\n        /* \"#utility.yul\":744:746   */\n      0x40\n        /* \"#utility.yul\":732:741   */\n      dup4\n        /* \"#utility.yul\":723:730   */\n      dup6\n        /* \"#utility.yul\":719:742   */\n      sub\n        /* \"#utility.yul\":715:747   */\n      slt\n        /* \"#utility.yul\":712:764   */\n      iszero\n      tag_242\n      jumpi\n        /* \"#utility.yul\":760:761   */\n      0x00\n        /* \"#utility.yul\":757:758   */\n      dup1\n        /* \"#utility.yul\":750:762   */\n      revert\n        /* \"#utility.yul\":712:764   */\n    tag_242:\n        /* \"#utility.yul\":783:812   */\n      tag_243\n        /* \"#utility.yul\":802:811   */\n      dup4\n        /* \"#utility.yul\":783:812   */\n      tag_235\n      jump\t// in\n    tag_243:\n        /* \"#utility.yul\":773:812   */\n      swap5\n        /* \"#utility.yul\":881:883   */\n      0x20\n        /* \"#utility.yul\":866:884   */\n      swap4\n      swap1\n      swap4\n      add\n        /* \"#utility.yul\":853:885   */\n      calldataload\n      swap4\n      pop\n      pop\n      pop\n        /* \"#utility.yul\":615:915   */\n      jump\t// out\n        /* \"#utility.yul\":1502:1876   */\n    tag_54:\n        /* \"#utility.yul\":1579:1585   */\n      0x00\n        /* \"#utility.yul\":1587:1593   */\n      dup1\n        /* \"#utility.yul\":1595:1601   */\n      0x00\n        /* \"#utility.yul\":1648:1650   */\n      0x60\n        /* \"#utility.yul\":1636:1645   */\n      dup5\n        /* \"#utility.yul\":1627:1634   */\n      dup7\n        /* \"#utility.yul\":1623:1646   */\n      sub\n        /* \"#utility.yul\":1619:1651   */\n      slt\n        /* \"#utility.yul\":1616:1668   */\n      iszero\n      tag_248\n      jumpi\n        /* \"#utility.yul\":1664:1665   */\n      0x00\n        /* \"#utility.yul\":1661:1662   */\n      dup1\n        /* \"#utility.yul\":1654:1666   */\n      revert\n        /* \"#utility.yul\":1616:1668   */\n    tag_248:\n        /* \"#utility.yul\":1687:1716   */\n      tag_249\n        /* \"#utility.yul\":1706:1715   */\n      dup5\n        /* \"#utility.yul\":1687:1716   */\n      tag_235\n      jump\t// in\n    tag_249:\n        /* \"#utility.yul\":1677:1716   */\n      swap3\n      pop\n        /* \"#utility.yul\":1735:1773   */\n      tag_250\n        /* \"#utility.yul\":1769:1771   */\n      0x20\n        /* \"#utility.yul\":1758:1767   */\n      dup6\n        /* \"#utility.yul\":1754:1772   */\n      add\n        /* \"#utility.yul\":1735:1773   */\n      tag_235\n      jump\t// in\n    tag_250:\n        /* \"#utility.yul\":1502:1876   */\n      swap3\n      swap6\n        /* \"#utility.yul\":1725:1773   */\n      swap3\n      swap5\n      pop\n      pop\n      pop\n        /* \"#utility.yul\":1842:1844   */\n      0x40\n        /* \"#utility.yul\":1827:1845   */\n      swap2\n      swap1\n      swap2\n      add\n        /* \"#utility.yul\":1814:1846   */\n      calldataload\n      swap1\n        /* \"#utility.yul\":1502:1876   */\n      jump\t// out\n        /* \"#utility.yul\":2070:2256   */\n    tag_69:\n        /* \"#utility.yul\":2129:2135   */\n      0x00\n        /* \"#utility.yul\":2182:2184   */\n      0x20\n        /* \"#utility.yul\":2170:2179   */\n      dup3\n        /* \"#utility.yul\":2161:2168   */\n      dup5\n        /* \"#utility.yul\":2157:2180   */\n      sub\n        /* \"#utility.yul\":2153:2185   */\n      slt\n        /* \"#utility.yul\":2150:2202   */\n      iszero\n      tag_253\n      jumpi\n        /* \"#utility.yul\":2198:2199   */\n      0x00\n        /* \"#utility.yul\":2195:2196   */\n      dup1\n        /* \"#utility.yul\":2188:2200   */\n      revert\n        /* \"#utility.yul\":2150:2202   */\n    tag_253:\n        /* \"#utility.yul\":2221:2250   */\n      tag_254\n        /* \"#utility.yul\":2240:2249   */\n      dup3\n        /* \"#utility.yul\":2221:2250   */\n      tag_235\n      jump\t// in\n    tag_254:\n        /* \"#utility.yul\":2211:2250   */\n      swap4\n        /* \"#utility.yul\":2070:2256   */\n      swap3\n      pop\n      pop\n      pop\n      jump\t// out\n        /* \"#utility.yul\":2261:2521   */\n    tag_101:\n        /* \"#utility.yul\":2329:2335   */\n      0x00\n        /* \"#utility.yul\":2337:2343   */\n      dup1\n        /* \"#utility.yul\":2390:2392   */\n      0x40\n        /* \"#utility.yul\":2378:2387   */\n      dup4\n        /* \"#utility.yul\":2369:2376   */\n      dup6\n        /* \"#utility.yul\":2365:2388   */\n      sub\n        /* \"#utility.yul\":2361:2393   */\n      slt\n        /* \"#utility.yul\":2358:2410   */\n      iszero\n      tag_256\n      jumpi\n        /* \"#utility.yul\":2406:2407   */\n      0x00\n        /* \"#utility.yul\":2403:2404   */\n      dup1\n        /* \"#utility.yul\":2396:2408   */\n      revert\n        /* \"#utility.yul\":2358:2410   */\n    tag_256:\n        /* \"#utility.yul\":2429:2458   */\n      tag_257\n        /* \"#utility.yul\":2448:2457   */\n      dup4\n        /* \"#utility.yul\":2429:2458   */\n      tag_235\n      jump\t// in\n    tag_257:\n        /* \"#utility.yul\":2419:2458   */\n      swap2\n      pop\n        /* \"#utility.yul\":2477:2515   */\n      tag_258\n        /* \"#utility.yul\":2511:2513   */\n      0x20\n        /* \"#utility.yul\":2500:2509   */\n      dup5\n        /* \"#utility.yul\":2496:2514   */\n      add\n        /* \"#utility.yul\":2477:2515   */\n      tag_235\n      jump\t// in\n    tag_258:\n        /* \"#utility.yul\":2467:2515   */\n      swap1\n      pop\n        /* \"#utility.yul\":2261:2521   */\n      swap3\n      pop\n      swap3\n      swap1\n      pop\n      jump\t// out\n        /* \"#utility.yul\":2526:2906   */\n    tag_112:\n        /* \"#utility.yul\":2605:2606   */\n      0x01\n        /* \"#utility.yul\":2601:2613   */\n      dup2\n      dup2\n      shr\n      swap1\n        /* \"#utility.yul\":2648:2660   */\n      dup3\n      and\n      dup1\n        /* \"#utility.yul\":2669:2730   */\n      tag_260\n      jumpi\n        /* \"#utility.yul\":2723:2727   */\n      0x7f\n        /* \"#utility.yul\":2715:2721   */\n      dup3\n        /* \"#utility.yul\":2711:2728   */\n      and\n        /* \"#utility.yul\":2701:2728   */\n      swap2\n      pop\n        /* \"#utility.yul\":2669:2730   */\n    tag_260:\n        /* \"#utility.yul\":2776:2778   */\n      0x20\n        /* \"#utility.yul\":2768:2774   */\n      dup3\n        /* \"#utility.yul\":2765:2779   */\n      lt\n        /* \"#utility.yul\":2745:2763   */\n      dup2\n        /* \"#utility.yul\":2742:2780   */\n      sub\n        /* \"#utility.yul\":2739:2900   */\n      tag_261\n      jumpi\n        /* \"#utility.yul\":2822:2832   */\n      0x4e487b71\n        /* \"#utility.yul\":2817:2820   */\n      0xe0\n        /* \"#utility.yul\":2813:2833   */\n      shl\n        /* \"#utility.yul\":2810:2811   */\n      0x00\n        /* \"#utility.yul\":2803:2834   */\n      mstore\n        /* \"#utility.yul\":2857:2861   */\n      0x22\n        /* \"#utility.yul\":2854:2855   */\n      0x04\n        /* \"#utility.yul\":2847:2862   */\n      mstore\n        /* \"#utility.yul\":2885:2889   */\n      0x24\n        /* \"#utility.yul\":2882:2883   */\n      0x00\n        /* \"#utility.yul\":2875:2890   */\n      revert\n        /* \"#utility.yul\":2739:2900   */\n    tag_261:\n      pop\n        /* \"#utility.yul\":2526:2906   */\n      swap2\n      swap1\n      pop\n      jump\t// out\n        /* \"#utility.yul\":3621:3748   */\n    tag_236:\n        /* \"#utility.yul\":3682:3692   */\n      0x4e487b71\n        /* \"#utility.yul\":3677:3680   */\n      0xe0\n        /* \"#utility.yul\":3673:3693   */\n      shl\n        /* \"#utility.yul\":3670:3671   */\n      0x00\n        /* \"#utility.yul\":3663:3694   */\n      mstore\n        /* \"#utility.yul\":3713:3717   */\n      0x11\n        /* \"#utility.yul\":3710:3711   */\n      0x04\n        /* \"#utility.yul\":3703:3718   */\n      mstore\n        /* \"#utility.yul\":3737:3741   */\n      0x24\n        /* \"#utility.yul\":3734:3735   */\n      0x00\n        /* \"#utility.yul\":3727:3742   */\n      revert\n        /* \"#utility.yul\":3753:3921   */\n    tag_201:\n        /* \"#utility.yul\":3826:3835   */\n      dup1\n      dup3\n      mul\n        /* \"#utility.yul\":3857:3866   */\n      dup2\n      iszero\n        /* \"#utility.yul\":3874:3889   */\n      dup3\n      dup3\n      div\n        /* \"#utility.yul\":3868:3890   */\n      dup5\n      eq\n        /* \"#utility.yul\":3854:3891   */\n      or\n        /* \"#utility.yul\":3844:3915   */\n      tag_117\n      jumpi\n        /* \"#utility.yul\":3895:3913   */\n      tag_117\n      tag_236\n      jump\t// in\n        /* \"#utility.yul\":3926:4143   */\n    tag_203:\n        /* \"#utility.yul\":3966:3967   */\n      0x00\n        /* \"#utility.yul\":3992:3993   */\n      dup3\n        /* \"#utility.yul\":3982:4114   */\n      tag_269\n      jumpi\n        /* \"#utility.yul\":4036:4046   */\n      0x4e487b71\n        /* \"#utility.yul\":4031:4034   */\n      0xe0\n        /* \"#utility.yul\":4027:4047   */\n      shl\n        /* \"#utility.yul\":4024:4025   */\n      0x00\n        /* \"#utility.yul\":4017:4048   */\n      mstore\n        /* \"#utility.yul\":4071:4075   */\n      0x12\n        /* \"#utility.yul\":4068:4069   */\n      0x04\n        /* \"#utility.yul\":4061:4076   */\n      mstore\n        /* \"#utility.yul\":4099:4103   */\n      0x24\n        /* \"#utility.yul\":4096:4097   */\n      0x00\n        /* \"#utility.yul\":4089:4104   */\n      revert\n        /* \"#utility.yul\":3982:4114   */\n    tag_269:\n      pop\n        /* \"#utility.yul\":4128:4137   */\n      div\n      swap1\n        /* \"#utility.yul\":3926:4143   */\n      jump\t// out\n        /* \"#utility.yul\":4148:4276   */\n    tag_205:\n        /* \"#utility.yul\":4215:4224   */\n      dup2\n      dup2\n      sub\n        /* \"#utility.yul\":4236:4247   */\n      dup2\n      dup2\n      gt\n        /* \"#utility.yul\":4233:4270   */\n      iszero\n      tag_117\n      jumpi\n        /* \"#utility.yul\":4250:4268   */\n      tag_117\n      tag_236\n      jump\t// in\n        /* \"#utility.yul\":4281:4406   */\n    tag_222:\n        /* \"#utility.yul\":4346:4355   */\n      dup1\n      dup3\n      add\n        /* \"#utility.yul\":4367:4377   */\n      dup1\n      dup3\n      gt\n        /* \"#utility.yul\":4364:4400   */\n      iszero\n      tag_117\n      jumpi\n        /* \"#utility.yul\":4380:4398   */\n      tag_117\n      tag_236\n      jump\t// in\n\n    auxdata: 0xa2646970667358221220b91b4c15555b81f6244ec65357cb27a44cc2d7b5f0677d83ce76b94c66569c0164736f6c634300081a0033\n}\n",
				"bytecode": {
					"linkReferences": {},
					"object": "6080604052600e805460ff60a01b1916905534801561001c575f80fd5b5060405161102738038061102783398101604081905261003b916101c9565b6040805180820182526004808252634745505360e01b6020808401829052845180860190955291845290830152339160036100768382610303565b5060046100838282610303565b5050506001600160a01b0381166100b357604051631e4fbdf760e01b81525f600482015260240160405180910390fd5b6100bc8161015d565b50600680546001600160a01b03199081166001600160a01b039b8c1617909155600780548216998b1699909917909855600880548916978a169790971790965560098054881695891695909517909455600a8054871693881693909317909255600b80548616918716919091179055600c80548516918616919091179055600d80548416918516919091179055600e805490921692169190911790556103bd565b600580546001600160a01b038381166001600160a01b0319831681179093556040519116919082907f8be0079c531659141344cd1fd0a4f28419497f9722a3daafe3b4186f6b6457e0905f90a35050565b80516001600160a01b03811681146101c4575f80fd5b919050565b5f805f805f805f805f6101208a8c0312156101e2575f80fd5b6101eb8a6101ae565b98506101f960208b016101ae565b975061020760408b016101ae565b965061021560608b016101ae565b955061022360808b016101ae565b945061023160a08b016101ae565b935061023f60c08b016101ae565b925061024d60e08b016101ae565b915061025c6101008b016101ae565b90509295985092959850929598565b634e487b7160e01b5f52604160045260245ffd5b600181811c9082168061029357607f821691505b6020821081036102b157634e487b7160e01b5f52602260045260245ffd5b50919050565b601f8211156102fe57805f5260205f20601f840160051c810160208510156102dc5750805b601f840160051c820191505b818110156102fb575f81556001016102e8565b50505b505050565b81516001600160401b0381111561031c5761031c61026b565b6103308161032a845461027f565b846102b7565b6020601f821160018114610362575f831561034b5750848201515b5f19600385901b1c1916600184901b1784556102fb565b5f84815260208120601f198516915b828110156103915787850151825560209485019460019092019101610371565b50848210156103ae57868401515f19600387901b60f8161c191681555b50505050600190811b01905550565b610c5d806103ca5f395ff3fe608060405234801561000f575f80fd5b5060043610610148575f3560e01c8063715018a6116100bf578063bc71788b11610079578063bc71788b146102b2578063c5f956af146102c5578063d3e1fe14146102d8578063dd62ed3e146102eb578063f2fde38b14610323578063f79ed94b14610336575f80fd5b8063715018a6146102585780638da5cb5b1461026057806395d89b4114610271578063a5ece94114610279578063a9059cbb1461028c578063afcf2fc41461029f575f80fd5b80631c75f085116101105780631c75f085146101d457806323b872dd146101e7578063313ce567146101fa5780633221c93f146102095780634f02c4201461021c57806370a0823114610230575f80fd5b806306fdde031461014c578063095ea7b31461016a578063122fe6851461018d5780631249c58b146101b857806318160ddd146101c2575b5f80fd5b610154610349565b6040516101619190610a7c565b60405180910390f35b61017d610178366004610acc565b6103d9565b6040519015158152602001610161565b6006546101a0906001600160a01b031681565b6040516001600160a01b039091168152602001610161565b6101c06103f2565b005b6002545b604051908152602001610161565b600a546101a0906001600160a01b031681565b61017d6101f5366004610af4565b610597565b60405160128152602001610161565b600c546101a0906001600160a01b031681565b600e5461017d90600160a01b900460ff1681565b6101c661023e366004610b2e565b6001600160a01b03165f9081526020819052604090205490565b6101c06105ba565b6005546001600160a01b03166101a0565b6101546105cb565b6008546101a0906001600160a01b031681565b61017d61029a366004610acc565b6105da565b600d546101a0906001600160a01b031681565b6007546101a0906001600160a01b031681565b6009546101a0906001600160a01b031681565b600b546101a0906001600160a01b031681565b6101c66102f9366004610b4e565b6001600160a01b039182165f90815260016020908152604080832093909416825291909152205490565b6101c0610331366004610b2e565b6105e7565b600e546101a0906001600160a01b031681565b60606003805461035890610b7f565b80601f016020809104026020016040519081016040528092919081815260200182805461038490610b7f565b80156103cf5780601f106103a6576101008083540402835291602001916103cf565b820191905f5260205f20905b8154815290600101906020018083116103b257829003601f168201915b5050505050905090565b5f336103e6818585610624565b60019150505b92915050565b6103fa610636565b600e54600160a01b900460ff16156104595760405162461bcd60e51b815260206004820152601f60248201527f546f6b656e73206861766520616c7265616479206265656e206d696e7465640060448201526064015b60405180910390fd5b600e805460ff60a01b1916600160a01b17905560065461048d906001600160a01b03166a108b2a2c28029094000000610663565b6007546104ae906001600160a01b03166a0211654585005212800000610663565b6008546104cf906001600160a01b03166a0211654585005212800000610663565b6009546104f0906001600160a01b03166a0422ca8b0a00a425000000610663565b600a54610511906001600160a01b03166a0422ca8b0a00a425000000610663565b600b54610532906001600160a01b03166a0211654585005212800000610663565b600c54610553906001600160a01b03166a0422ca8b0a00a425000000610663565b600d54610574906001600160a01b03166a0211654585005212800000610663565b600e54610595906001600160a01b03166a0422ca8b0a00a425000000610663565b565b5f336105a485828561069b565b6105af858585610716565b506001949350505050565b6105c2610636565b6105955f6107d6565b60606004805461035890610b7f565b5f336103e6818585610716565b6105ef610636565b6001600160a01b03811661061857604051631e4fbdf760e01b81525f6004820152602401610450565b610621816107d6565b50565b6106318383836001610827565b505050565b6005546001600160a01b031633146105955760405163118cdaa760e01b8152336004820152602401610450565b6001600160a01b03821661068c5760405163ec442f0560e01b81525f6004820152602401610450565b6106975f83836108f9565b5050565b6001600160a01b038381165f908152600160209081526040808320938616835292905220545f198114610710578181101561070257604051637dc7a0d960e11b81526001600160a01b03841660048201526024810182905260448101839052606401610450565b61071084848484035f610827565b50505050565b6005546001600160a01b038481169116148061073f57506005546001600160a01b038381169116145b1561074f57610631838383610a1f565b5f606461075d600284610bcb565b6107679190610be2565b90505f6107748284610c01565b90505f610782600284610be2565b90505f61078f8285610c01565b6009549091506107aa9088906001600160a01b031684610a1f565b600d546107c29088906001600160a01b031683610a1f565b6107cd878785610a1f565b50505050505050565b600580546001600160a01b038381166001600160a01b0319831681179093556040519116919082907f8be0079c531659141344cd1fd0a4f28419497f9722a3daafe3b4186f6b6457e0905f90a35050565b6001600160a01b0384166108505760405163e602df0560e01b81525f6004820152602401610450565b6001600160a01b03831661087957604051634a1406b160e11b81525f6004820152602401610450565b6001600160a01b038085165f908152600160209081526040808320938716835292905220829055801561071057826001600160a01b0316846001600160a01b03167f8c5be1e5ebec7d5bd14f71427d1e84f3dd0314c0f7b2291e5b200ac8c7c3b925846040516108eb91815260200190565b60405180910390a350505050565b6001600160a01b038316610923578060025f8282546109189190610c14565b909155506109939050565b6001600160a01b0383165f90815260208190526040902054818110156109755760405163391434e360e21b81526001600160a01b03851660048201526024810182905260448101839052606401610450565b6001600160a01b0384165f9081526020819052604090209082900390555b6001600160a01b0382166109af576002805482900390556109cd565b6001600160a01b0382165f9081526020819052604090208054820190555b816001600160a01b0316836001600160a01b03167fddf252ad1be2c89b69c2b068fc378daa952ba7f163c4a11628f55a4df523b3ef83604051610a1291815260200190565b60405180910390a3505050565b6001600160a01b038316610a4857604051634b637e8f60e11b81525f6004820152602401610450565b6001600160a01b038216610a715760405163ec442f0560e01b81525f6004820152602401610450565b6106318383836108f9565b602081525f82518060208401528060208501604085015e5f604082850101526040601f19601f83011684010191505092915050565b80356001600160a01b0381168114610ac7575f80fd5b919050565b5f8060408385031215610add575f80fd5b610ae683610ab1565b946020939093013593505050565b5f805f60608486031215610b06575f80fd5b610b0f84610ab1565b9250610b1d60208501610ab1565b929592945050506040919091013590565b5f60208284031215610b3e575f80fd5b610b4782610ab1565b9392505050565b5f8060408385031215610b5f575f80fd5b610b6883610ab1565b9150610b7660208401610ab1565b90509250929050565b600181811c90821680610b9357607f821691505b602082108103610bb157634e487b7160e01b5f52602260045260245ffd5b50919050565b634e487b7160e01b5f52601160045260245ffd5b80820281158282048414176103ec576103ec610bb7565b5f82610bfc57634e487b7160e01b5f52601260045260245ffd5b500490565b818103818111156103ec576103ec610bb7565b808201808211156103ec576103ec610bb756fea2646970667358221220b91b4c15555b81f6244ec65357cb27a44cc2d7b5f0677d83ce76b94c66569c0164736f6c634300081a0033",
					"opcodes": "PUSH1 0x80 PUSH1 0x40 MSTORE PUSH1 0xE DUP1 SLOAD PUSH1 0xFF PUSH1 0xA0 SHL NOT AND SWAP1 SSTORE CALLVALUE DUP1 ISZERO PUSH2 0x1C JUMPI PUSH0 DUP1 REVERT JUMPDEST POP PUSH1 0x40 MLOAD PUSH2 0x1027 CODESIZE SUB DUP1 PUSH2 0x1027 DUP4 CODECOPY DUP2 ADD PUSH1 0x40 DUP2 SWAP1 MSTORE PUSH2 0x3B SWAP2 PUSH2 0x1C9 JUMP JUMPDEST PUSH1 0x40 DUP1 MLOAD DUP1 DUP3 ADD DUP3 MSTORE PUSH1 0x4 DUP1 DUP3 MSTORE PUSH4 0x47455053 PUSH1 0xE0 SHL PUSH1 0x20 DUP1 DUP5 ADD DUP3 SWAP1 MSTORE DUP5 MLOAD DUP1 DUP7 ADD SWAP1 SWAP6 MSTORE SWAP2 DUP5 MSTORE SWAP1 DUP4 ADD MSTORE CALLER SWAP2 PUSH1 0x3 PUSH2 0x76 DUP4 DUP3 PUSH2 0x303 JUMP JUMPDEST POP PUSH1 0x4 PUSH2 0x83 DUP3 DUP3 PUSH2 0x303 JUMP JUMPDEST POP POP POP PUSH1 0x1 PUSH1 0x1 PUSH1 0xA0 SHL SUB DUP2 AND PUSH2 0xB3 JUMPI PUSH1 0x40 MLOAD PUSH4 0x1E4FBDF7 PUSH1 0xE0 SHL DUP2 MSTORE PUSH0 PUSH1 0x4 DUP3 ADD MSTORE PUSH1 0x24 ADD PUSH1 0x40 MLOAD DUP1 SWAP2 SUB SWAP1 REVERT JUMPDEST PUSH2 0xBC DUP2 PUSH2 0x15D JUMP JUMPDEST POP PUSH1 0x6 DUP1 SLOAD PUSH1 0x1 PUSH1 0x1 PUSH1 0xA0 SHL SUB NOT SWAP1 DUP2 AND PUSH1 0x1 PUSH1 0x1 PUSH1 0xA0 SHL SUB SWAP12 DUP13 AND OR SWAP1 SWAP2 SSTORE PUSH1 0x7 DUP1 SLOAD DUP3 AND SWAP10 DUP12 AND SWAP10 SWAP1 SWAP10 OR SWAP1 SWAP9 SSTORE PUSH1 0x8 DUP1 SLOAD DUP10 AND SWAP8 DUP11 AND SWAP8 SWAP1 SWAP8 OR SWAP1 SWAP7 SSTORE PUSH1 0x9 DUP1 SLOAD DUP9 AND SWAP6 DUP10 AND SWAP6 SWAP1 SWAP6 OR SWAP1 SWAP5 SSTORE PUSH1 0xA DUP1 SLOAD DUP8 AND SWAP4 DUP9 AND SWAP4 SWAP1 SWAP4 OR SWAP1 SWAP3 SSTORE PUSH1 0xB DUP1 SLOAD DUP7 AND SWAP2 DUP8 AND SWAP2 SWAP1 SWAP2 OR SWAP1 SSTORE PUSH1 0xC DUP1 SLOAD DUP6 AND SWAP2 DUP7 AND SWAP2 SWAP1 SWAP2 OR SWAP1 SSTORE PUSH1 0xD DUP1 SLOAD DUP5 AND SWAP2 DUP6 AND SWAP2 SWAP1 SWAP2 OR SWAP1 SSTORE PUSH1 0xE DUP1 SLOAD SWAP1 SWAP3 AND SWAP3 AND SWAP2 SWAP1 SWAP2 OR SWAP1 SSTORE PUSH2 0x3BD JUMP JUMPDEST PUSH1 0x5 DUP1 SLOAD PUSH1 0x1 PUSH1 0x1 PUSH1 0xA0 SHL SUB DUP4 DUP2 AND PUSH1 0x1 PUSH1 0x1 PUSH1 0xA0 SHL SUB NOT DUP4 AND DUP2 OR SWAP1 SWAP4 SSTORE PUSH1 0x40 MLOAD SWAP2 AND SWAP2 SWAP1 DUP3 SWAP1 PUSH32 0x8BE0079C531659141344CD1FD0A4F28419497F9722A3DAAFE3B4186F6B6457E0 SWAP1 PUSH0 SWAP1 LOG3 POP POP JUMP JUMPDEST DUP1 MLOAD PUSH1 0x1 PUSH1 0x1 PUSH1 0xA0 SHL SUB DUP2 AND DUP2 EQ PUSH2 0x1C4 JUMPI PUSH0 DUP1 REVERT JUMPDEST SWAP2 SWAP1 POP JUMP JUMPDEST PUSH0 DUP1 PUSH0 DUP1 PUSH0 DUP1 PUSH0 DUP1 PUSH0 PUSH2 0x120 DUP11 DUP13 SUB SLT ISZERO PUSH2 0x1E2 JUMPI PUSH0 DUP1 REVERT JUMPDEST PUSH2 0x1EB DUP11 PUSH2 0x1AE JUMP JUMPDEST SWAP9 POP PUSH2 0x1F9 PUSH1 0x20 DUP12 ADD PUSH2 0x1AE JUMP JUMPDEST SWAP8 POP PUSH2 0x207 PUSH1 0x40 DUP12 ADD PUSH2 0x1AE JUMP JUMPDEST SWAP7 POP PUSH2 0x215 PUSH1 0x60 DUP12 ADD PUSH2 0x1AE JUMP JUMPDEST SWAP6 POP PUSH2 0x223 PUSH1 0x80 DUP12 ADD PUSH2 0x1AE JUMP JUMPDEST SWAP5 POP PUSH2 0x231 PUSH1 0xA0 DUP12 ADD PUSH2 0x1AE JUMP JUMPDEST SWAP4 POP PUSH2 0x23F PUSH1 0xC0 DUP12 ADD PUSH2 0x1AE JUMP JUMPDEST SWAP3 POP PUSH2 0x24D PUSH1 0xE0 DUP12 ADD PUSH2 0x1AE JUMP JUMPDEST SWAP2 POP PUSH2 0x25C PUSH2 0x100 DUP12 ADD PUSH2 0x1AE JUMP JUMPDEST SWAP1 POP SWAP3 SWAP6 SWAP9 POP SWAP3 SWAP6 SWAP9 POP SWAP3 SWAP6 SWAP9 JUMP JUMPDEST PUSH4 0x4E487B71 PUSH1 0xE0 SHL PUSH0 MSTORE PUSH1 0x41 PUSH1 0x4 MSTORE PUSH1 0x24 PUSH0 REVERT JUMPDEST PUSH1 0x1 DUP2 DUP2 SHR SWAP1 DUP3 AND DUP1 PUSH2 0x293 JUMPI PUSH1 0x7F DUP3 AND SWAP2 POP JUMPDEST PUSH1 0x20 DUP3 LT DUP2 SUB PUSH2 0x2B1 JUMPI PUSH4 0x4E487B71 PUSH1 0xE0 SHL PUSH0 MSTORE PUSH1 0x22 PUSH1 0x4 MSTORE PUSH1 0x24 PUSH0 REVERT JUMPDEST POP SWAP2 SWAP1 POP JUMP JUMPDEST PUSH1 0x1F DUP3 GT ISZERO PUSH2 0x2FE JUMPI DUP1 PUSH0 MSTORE PUSH1 0x20 PUSH0 KECCAK256 PUSH1 0x1F DUP5 ADD PUSH1 0x5 SHR DUP2 ADD PUSH1 0x20 DUP6 LT ISZERO PUSH2 0x2DC JUMPI POP DUP1 JUMPDEST PUSH1 0x1F DUP5 ADD PUSH1 0x5 SHR DUP3 ADD SWAP2 POP JUMPDEST DUP2 DUP2 LT ISZERO PUSH2 0x2FB JUMPI PUSH0 DUP2 SSTORE PUSH1 0x1 ADD PUSH2 0x2E8 JUMP JUMPDEST POP POP JUMPDEST POP POP POP JUMP JUMPDEST DUP2 MLOAD PUSH1 0x1 PUSH1 0x1 PUSH1 0x40 SHL SUB DUP2 GT ISZERO PUSH2 0x31C JUMPI PUSH2 0x31C PUSH2 0x26B JUMP JUMPDEST PUSH2 0x330 DUP2 PUSH2 0x32A DUP5 SLOAD PUSH2 0x27F JUMP JUMPDEST DUP5 PUSH2 0x2B7 JUMP JUMPDEST PUSH1 0x20 PUSH1 0x1F DUP3 GT PUSH1 0x1 DUP2 EQ PUSH2 0x362 JUMPI PUSH0 DUP4 ISZERO PUSH2 0x34B JUMPI POP DUP5 DUP3 ADD MLOAD JUMPDEST PUSH0 NOT PUSH1 0x3 DUP6 SWAP1 SHL SHR NOT AND PUSH1 0x1 DUP5 SWAP1 SHL OR DUP5 SSTORE PUSH2 0x2FB JUMP JUMPDEST PUSH0 DUP5 DUP2 MSTORE PUSH1 0x20 DUP2 KECCAK256 PUSH1 0x1F NOT DUP6 AND SWAP2 JUMPDEST DUP3 DUP2 LT ISZERO PUSH2 0x391 JUMPI DUP8 DUP6 ADD MLOAD DUP3 SSTORE PUSH1 0x20 SWAP5 DUP6 ADD SWAP5 PUSH1 0x1 SWAP1 SWAP3 ADD SWAP2 ADD PUSH2 0x371 JUMP JUMPDEST POP DUP5 DUP3 LT ISZERO PUSH2 0x3AE JUMPI DUP7 DUP5 ADD MLOAD PUSH0 NOT PUSH1 0x3 DUP8 SWAP1 SHL PUSH1 0xF8 AND SHR NOT AND DUP2 SSTORE JUMPDEST POP POP POP POP PUSH1 0x1 SWAP1 DUP2 SHL ADD SWAP1 SSTORE POP JUMP JUMPDEST PUSH2 0xC5D DUP1 PUSH2 0x3CA PUSH0 CODECOPY PUSH0 RETURN INVALID PUSH1 0x80 PUSH1 0x40 MSTORE CALLVALUE DUP1 ISZERO PUSH2 0xF JUMPI PUSH0 DUP1 REVERT JUMPDEST POP PUSH1 0x4 CALLDATASIZE LT PUSH2 0x148 JUMPI PUSH0 CALLDATALOAD PUSH1 0xE0 SHR DUP1 PUSH4 0x715018A6 GT PUSH2 0xBF JUMPI DUP1 PUSH4 0xBC71788B GT PUSH2 0x79 JUMPI DUP1 PUSH4 0xBC71788B EQ PUSH2 0x2B2 JUMPI DUP1 PUSH4 0xC5F956AF EQ PUSH2 0x2C5 JUMPI DUP1 PUSH4 0xD3E1FE14 EQ PUSH2 0x2D8 JUMPI DUP1 PUSH4 0xDD62ED3E EQ PUSH2 0x2EB JUMPI DUP1 PUSH4 0xF2FDE38B EQ PUSH2 0x323 JUMPI DUP1 PUSH4 0xF79ED94B EQ PUSH2 0x336 JUMPI PUSH0 DUP1 REVERT JUMPDEST DUP1 PUSH4 0x715018A6 EQ PUSH2 0x258 JUMPI DUP1 PUSH4 0x8DA5CB5B EQ PUSH2 0x260 JUMPI DUP1 PUSH4 0x95D89B41 EQ PUSH2 0x271 JUMPI DUP1 PUSH4 0xA5ECE941 EQ PUSH2 0x279 JUMPI DUP1 PUSH4 0xA9059CBB EQ PUSH2 0x28C JUMPI DUP1 PUSH4 0xAFCF2FC4 EQ PUSH2 0x29F JUMPI PUSH0 DUP1 REVERT JUMPDEST DUP1 PUSH4 0x1C75F085 GT PUSH2 0x110 JUMPI DUP1 PUSH4 0x1C75F085 EQ PUSH2 0x1D4 JUMPI DUP1 PUSH4 0x23B872DD EQ PUSH2 0x1E7 JUMPI DUP1 PUSH4 0x313CE567 EQ PUSH2 0x1FA JUMPI DUP1 PUSH4 0x3221C93F EQ PUSH2 0x209 JUMPI DUP1 PUSH4 0x4F02C420 EQ PUSH2 0x21C JUMPI DUP1 PUSH4 0x70A08231 EQ PUSH2 0x230 JUMPI PUSH0 DUP1 REVERT JUMPDEST DUP1 PUSH4 0x6FDDE03 EQ PUSH2 0x14C JUMPI DUP1 PUSH4 0x95EA7B3 EQ PUSH2 0x16A JUMPI DUP1 PUSH4 0x122FE685 EQ PUSH2 0x18D JUMPI DUP1 PUSH4 0x1249C58B EQ PUSH2 0x1B8 JUMPI DUP1 PUSH4 0x18160DDD EQ PUSH2 0x1C2 JUMPI JUMPDEST PUSH0 DUP1 REVERT JUMPDEST PUSH2 0x154 PUSH2 0x349 JUMP JUMPDEST PUSH1 0x40 MLOAD PUSH2 0x161 SWAP2 SWAP1 PUSH2 0xA7C JUMP JUMPDEST PUSH1 0x40 MLOAD DUP1 SWAP2 SUB SWAP1 RETURN JUMPDEST PUSH2 0x17D PUSH2 0x178 CALLDATASIZE PUSH1 0x4 PUSH2 0xACC JUMP JUMPDEST PUSH2 0x3D9 JUMP JUMPDEST PUSH1 0x40 MLOAD SWAP1 ISZERO ISZERO DUP2 MSTORE PUSH1 0x20 ADD PUSH2 0x161 JUMP JUMPDEST PUSH1 0x6 SLOAD PUSH2 0x1A0 SWAP1 PUSH1 0x1 PUSH1 0x1 PUSH1 0xA0 SHL SUB AND DUP2 JUMP JUMPDEST PUSH1 0x40 MLOAD PUSH1 0x1 PUSH1 0x1 PUSH1 0xA0 SHL SUB SWAP1 SWAP2 AND DUP2 MSTORE PUSH1 0x20 ADD PUSH2 0x161 JUMP JUMPDEST PUSH2 0x1C0 PUSH2 0x3F2 JUMP JUMPDEST STOP JUMPDEST PUSH1 0x2 SLOAD JUMPDEST PUSH1 0x40 MLOAD SWAP1 DUP2 MSTORE PUSH1 0x20 ADD PUSH2 0x161 JUMP JUMPDEST PUSH1 0xA SLOAD PUSH2 0x1A0 SWAP1 PUSH1 0x1 PUSH1 0x1 PUSH1 0xA0 SHL SUB AND DUP2 JUMP JUMPDEST PUSH2 0x17D PUSH2 0x1F5 CALLDATASIZE PUSH1 0x4 PUSH2 0xAF4 JUMP JUMPDEST PUSH2 0x597 JUMP JUMPDEST PUSH1 0x40 MLOAD PUSH1 0x12 DUP2 MSTORE PUSH1 0x20 ADD PUSH2 0x161 JUMP JUMPDEST PUSH1 0xC SLOAD PUSH2 0x1A0 SWAP1 PUSH1 0x1 PUSH1 0x1 PUSH1 0xA0 SHL SUB AND DUP2 JUMP JUMPDEST PUSH1 0xE SLOAD PUSH2 0x17D SWAP1 PUSH1 0x1 PUSH1 0xA0 SHL SWAP1 DIV PUSH1 0xFF AND DUP2 JUMP JUMPDEST PUSH2 0x1C6 PUSH2 0x23E CALLDATASIZE PUSH1 0x4 PUSH2 0xB2E JUMP JUMPDEST PUSH1 0x1 PUSH1 0x1 PUSH1 0xA0 SHL SUB AND PUSH0 SWAP1 DUP2 MSTORE PUSH1 0x20 DUP2 SWAP1 MSTORE PUSH1 0x40 SWAP1 KECCAK256 SLOAD SWAP1 JUMP JUMPDEST PUSH2 0x1C0 PUSH2 0x5BA JUMP JUMPDEST PUSH1 0x5 SLOAD PUSH1 0x1 PUSH1 0x1 PUSH1 0xA0 SHL SUB AND PUSH2 0x1A0 JUMP JUMPDEST PUSH2 0x154 PUSH2 0x5CB JUMP JUMPDEST PUSH1 0x8 SLOAD PUSH2 0x1A0 SWAP1 PUSH1 0x1 PUSH1 0x1 PUSH1 0xA0 SHL SUB AND DUP2 JUMP JUMPDEST PUSH2 0x17D PUSH2 0x29A CALLDATASIZE PUSH1 0x4 PUSH2 0xACC JUMP JUMPDEST PUSH2 0x5DA JUMP JUMPDEST PUSH1 0xD SLOAD PUSH2 0x1A0 SWAP1 PUSH1 0x1 PUSH1 0x1 PUSH1 0xA0 SHL SUB AND DUP2 JUMP JUMPDEST PUSH1 0x7 SLOAD PUSH2 0x1A0 SWAP1 PUSH1 0x1 PUSH1 0x1 PUSH1 0xA0 SHL SUB AND DUP2 JUMP JUMPDEST PUSH1 0x9 SLOAD PUSH2 0x1A0 SWAP1 PUSH1 0x1 PUSH1 0x1 PUSH1 0xA0 SHL SUB AND DUP2 JUMP JUMPDEST PUSH1 0xB SLOAD PUSH2 0x1A0 SWAP1 PUSH1 0x1 PUSH1 0x1 PUSH1 0xA0 SHL SUB AND DUP2 JUMP JUMPDEST PUSH2 0x1C6 PUSH2 0x2F9 CALLDATASIZE PUSH1 0x4 PUSH2 0xB4E JUMP JUMPDEST PUSH1 0x1 PUSH1 0x1 PUSH1 0xA0 SHL SUB SWAP2 DUP3 AND PUSH0 SWAP1 DUP2 MSTORE PUSH1 0x1 PUSH1 0x20 SWAP1 DUP2 MSTORE PUSH1 0x40 DUP1 DUP4 KECCAK256 SWAP4 SWAP1 SWAP5 AND DUP3 MSTORE SWAP2 SWAP1 SWAP2 MSTORE KECCAK256 SLOAD SWAP1 JUMP JUMPDEST PUSH2 0x1C0 PUSH2 0x331 CALLDATASIZE PUSH1 0x4 PUSH2 0xB2E JUMP JUMPDEST PUSH2 0x5E7 JUMP JUMPDEST PUSH1 0xE SLOAD PUSH2 0x1A0 SWAP1 PUSH1 0x1 PUSH1 0x1 PUSH1 0xA0 SHL SUB AND DUP2 JUMP JUMPDEST PUSH1 0x60 PUSH1 0x3 DUP1 SLOAD PUSH2 0x358 SWAP1 PUSH2 0xB7F JUMP JUMPDEST DUP1 PUSH1 0x1F ADD PUSH1 0x20 DUP1 SWAP2 DIV MUL PUSH1 0x20 ADD PUSH1 0x40 MLOAD SWAP1 DUP2 ADD PUSH1 0x40 MSTORE DUP1 SWAP3 SWAP2 SWAP1 DUP2 DUP2 MSTORE PUSH1 0x20 ADD DUP3 DUP1 SLOAD PUSH2 0x384 SWAP1 PUSH2 0xB7F JUMP JUMPDEST DUP1 ISZERO PUSH2 0x3CF JUMPI DUP1 PUSH1 0x1F LT PUSH2 0x3A6 JUMPI PUSH2 0x100 DUP1 DUP4 SLOAD DIV MUL DUP4 MSTORE SWAP2 PUSH1 0x20 ADD SWAP2 PUSH2 0x3CF JUMP JUMPDEST DUP3 ADD SWAP2 SWAP1 PUSH0 MSTORE PUSH1 0x20 PUSH0 KECCAK256 SWAP1 JUMPDEST DUP2 SLOAD DUP2 MSTORE SWAP1 PUSH1 0x1 ADD SWAP1 PUSH1 0x20 ADD DUP1 DUP4 GT PUSH2 0x3B2 JUMPI DUP3 SWAP1 SUB PUSH1 0x1F AND DUP3 ADD SWAP2 JUMPDEST POP POP POP POP POP SWAP1 POP SWAP1 JUMP JUMPDEST PUSH0 CALLER PUSH2 0x3E6 DUP2 DUP6 DUP6 PUSH2 0x624 JUMP JUMPDEST PUSH1 0x1 SWAP2 POP POP JUMPDEST SWAP3 SWAP2 POP POP JUMP JUMPDEST PUSH2 0x3FA PUSH2 0x636 JUMP JUMPDEST PUSH1 0xE SLOAD PUSH1 0x1 PUSH1 0xA0 SHL SWAP1 DIV PUSH1 0xFF AND ISZERO PUSH2 0x459 JUMPI PUSH1 0x40 MLOAD PUSH3 0x461BCD PUSH1 0xE5 SHL DUP2 MSTORE PUSH1 0x20 PUSH1 0x4 DUP3 ADD MSTORE PUSH1 0x1F PUSH1 0x24 DUP3 ADD MSTORE PUSH32 0x546F6B656E73206861766520616C7265616479206265656E206D696E74656400 PUSH1 0x44 DUP3 ADD MSTORE PUSH1 0x64 ADD JUMPDEST PUSH1 0x40 MLOAD DUP1 SWAP2 SUB SWAP1 REVERT JUMPDEST PUSH1 0xE DUP1 SLOAD PUSH1 0xFF PUSH1 0xA0 SHL NOT AND PUSH1 0x1 PUSH1 0xA0 SHL OR SWAP1 SSTORE PUSH1 0x6 SLOAD PUSH2 0x48D SWAP1 PUSH1 0x1 PUSH1 0x1 PUSH1 0xA0 SHL SUB AND PUSH11 0x108B2A2C28029094000000 PUSH2 0x663 JUMP JUMPDEST PUSH1 0x7 SLOAD PUSH2 0x4AE SWAP1 PUSH1 0x1 PUSH1 0x1 PUSH1 0xA0 SHL SUB AND PUSH11 0x211654585005212800000 PUSH2 0x663 JUMP JUMPDEST PUSH1 0x8 SLOAD PUSH2 0x4CF SWAP1 PUSH1 0x1 PUSH1 0x1 PUSH1 0xA0 SHL SUB AND PUSH11 0x211654585005212800000 PUSH2 0x663 JUMP JUMPDEST PUSH1 0x9 SLOAD PUSH2 0x4F0 SWAP1 PUSH1 0x1 PUSH1 0x1 PUSH1 0xA0 SHL SUB AND PUSH11 0x422CA8B0A00A425000000 PUSH2 0x663 JUMP JUMPDEST PUSH1 0xA SLOAD PUSH2 0x511 SWAP1 PUSH1 0x1 PUSH1 0x1 PUSH1 0xA0 SHL SUB AND PUSH11 0x422CA8B0A00A425000000 PUSH2 0x663 JUMP JUMPDEST PUSH1 0xB SLOAD PUSH2 0x532 SWAP1 PUSH1 0x1 PUSH1 0x1 PUSH1 0xA0 SHL SUB AND PUSH11 0x211654585005212800000 PUSH2 0x663 JUMP JUMPDEST PUSH1 0xC SLOAD PUSH2 0x553 SWAP1 PUSH1 0x1 PUSH1 0x1 PUSH1 0xA0 SHL SUB AND PUSH11 0x422CA8B0A00A425000000 PUSH2 0x663 JUMP JUMPDEST PUSH1 0xD SLOAD PUSH2 0x574 SWAP1 PUSH1 0x1 PUSH1 0x1 PUSH1 0xA0 SHL SUB AND PUSH11 0x211654585005212800000 PUSH2 0x663 JUMP JUMPDEST PUSH1 0xE SLOAD PUSH2 0x595 SWAP1 PUSH1 0x1 PUSH1 0x1 PUSH1 0xA0 SHL SUB AND PUSH11 0x422CA8B0A00A425000000 PUSH2 0x663 JUMP JUMPDEST JUMP JUMPDEST PUSH0 CALLER PUSH2 0x5A4 DUP6 DUP3 DUP6 PUSH2 0x69B JUMP JUMPDEST PUSH2 0x5AF DUP6 DUP6 DUP6 PUSH2 0x716 JUMP JUMPDEST POP PUSH1 0x1 SWAP5 SWAP4 POP POP POP POP JUMP JUMPDEST PUSH2 0x5C2 PUSH2 0x636 JUMP JUMPDEST PUSH2 0x595 PUSH0 PUSH2 0x7D6 JUMP JUMPDEST PUSH1 0x60 PUSH1 0x4 DUP1 SLOAD PUSH2 0x358 SWAP1 PUSH2 0xB7F JUMP JUMPDEST PUSH0 CALLER PUSH2 0x3E6 DUP2 DUP6 DUP6 PUSH2 0x716 JUMP JUMPDEST PUSH2 0x5EF PUSH2 0x636 JUMP JUMPDEST PUSH1 0x1 PUSH1 0x1 PUSH1 0xA0 SHL SUB DUP2 AND PUSH2 0x618 JUMPI PUSH1 0x40 MLOAD PUSH4 0x1E4FBDF7 PUSH1 0xE0 SHL DUP2 MSTORE PUSH0 PUSH1 0x4 DUP3 ADD MSTORE PUSH1 0x24 ADD PUSH2 0x450 JUMP JUMPDEST PUSH2 0x621 DUP2 PUSH2 0x7D6 JUMP JUMPDEST POP JUMP JUMPDEST PUSH2 0x631 DUP4 DUP4 DUP4 PUSH1 0x1 PUSH2 0x827 JUMP JUMPDEST POP POP POP JUMP JUMPDEST PUSH1 0x5 SLOAD PUSH1 0x1 PUSH1 0x1 PUSH1 0xA0 SHL SUB AND CALLER EQ PUSH2 0x595 JUMPI PUSH1 0x40 MLOAD PUSH4 0x118CDAA7 PUSH1 0xE0 SHL DUP2 MSTORE CALLER PUSH1 0x4 DUP3 ADD MSTORE PUSH1 0x24 ADD PUSH2 0x450 JUMP JUMPDEST PUSH1 0x1 PUSH1 0x1 PUSH1 0xA0 SHL SUB DUP3 AND PUSH2 0x68C JUMPI PUSH1 0x40 MLOAD PUSH4 0xEC442F05 PUSH1 0xE0 SHL DUP2 MSTORE PUSH0 PUSH1 0x4 DUP3 ADD MSTORE PUSH1 0x24 ADD PUSH2 0x450 JUMP JUMPDEST PUSH2 0x697 PUSH0 DUP4 DUP4 PUSH2 0x8F9 JUMP JUMPDEST POP POP JUMP JUMPDEST PUSH1 0x1 PUSH1 0x1 PUSH1 0xA0 SHL SUB DUP4 DUP2 AND PUSH0 SWAP1 DUP2 MSTORE PUSH1 0x1 PUSH1 0x20 SWAP1 DUP2 MSTORE PUSH1 0x40 DUP1 DUP4 KECCAK256 SWAP4 DUP7 AND DUP4 MSTORE SWAP3 SWAP1 MSTORE KECCAK256 SLOAD PUSH0 NOT DUP2 EQ PUSH2 0x710 JUMPI DUP2 DUP2 LT ISZERO PUSH2 0x702 JUMPI PUSH1 0x40 MLOAD PUSH4 0x7DC7A0D9 PUSH1 0xE1 SHL DUP2 MSTORE PUSH1 0x1 PUSH1 0x1 PUSH1 0xA0 SHL SUB DUP5 AND PUSH1 0x4 DUP3 ADD MSTORE PUSH1 0x24 DUP2 ADD DUP3 SWAP1 MSTORE PUSH1 0x44 DUP2 ADD DUP4 SWAP1 MSTORE PUSH1 0x64 ADD PUSH2 0x450 JUMP JUMPDEST PUSH2 0x710 DUP5 DUP5 DUP5 DUP5 SUB PUSH0 PUSH2 0x827 JUMP JUMPDEST POP POP POP POP JUMP JUMPDEST PUSH1 0x5 SLOAD PUSH1 0x1 PUSH1 0x1 PUSH1 0xA0 SHL SUB DUP5 DUP2 AND SWAP2 AND EQ DUP1 PUSH2 0x73F JUMPI POP PUSH1 0x5 SLOAD PUSH1 0x1 PUSH1 0x1 PUSH1 0xA0 SHL SUB DUP4 DUP2 AND SWAP2 AND EQ JUMPDEST ISZERO PUSH2 0x74F JUMPI PUSH2 0x631 DUP4 DUP4 DUP4 PUSH2 0xA1F JUMP JUMPDEST PUSH0 PUSH1 0x64 PUSH2 0x75D PUSH1 0x2 DUP5 PUSH2 0xBCB JUMP JUMPDEST PUSH2 0x767 SWAP2 SWAP1 PUSH2 0xBE2 JUMP JUMPDEST SWAP1 POP PUSH0 PUSH2 0x774 DUP3 DUP5 PUSH2 0xC01 JUMP JUMPDEST SWAP1 POP PUSH0 PUSH2 0x782 PUSH1 0x2 DUP5 PUSH2 0xBE2 JUMP JUMPDEST SWAP1 POP PUSH0 PUSH2 0x78F DUP3 DUP6 PUSH2 0xC01 JUMP JUMPDEST PUSH1 0x9 SLOAD SWAP1 SWAP2 POP PUSH2 0x7AA SWAP1 DUP9 SWAP1 PUSH1 0x1 PUSH1 0x1 PUSH1 0xA0 SHL SUB AND DUP5 PUSH2 0xA1F JUMP JUMPDEST PUSH1 0xD SLOAD PUSH2 0x7C2 SWAP1 DUP9 SWAP1 PUSH1 0x1 PUSH1 0x1 PUSH1 0xA0 SHL SUB AND DUP4 PUSH2 0xA1F JUMP JUMPDEST PUSH2 0x7CD DUP8 DUP8 DUP6 PUSH2 0xA1F JUMP JUMPDEST POP POP POP POP POP POP POP JUMP JUMPDEST PUSH1 0x5 DUP1 SLOAD PUSH1 0x1 PUSH1 0x1 PUSH1 0xA0 SHL SUB DUP4 DUP2 AND PUSH1 0x1 PUSH1 0x1 PUSH1 0xA0 SHL SUB NOT DUP4 AND DUP2 OR SWAP1 SWAP4 SSTORE PUSH1 0x40 MLOAD SWAP2 AND SWAP2 SWAP1 DUP3 SWAP1 PUSH32 0x8BE0079C531659141344CD1FD0A4F28419497F9722A3DAAFE3B4186F6B6457E0 SWAP1 PUSH0 SWAP1 LOG3 POP POP JUMP JUMPDEST PUSH1 0x1 PUSH1 0x1 PUSH1 0xA0 SHL SUB DUP5 AND PUSH2 0x850 JUMPI PUSH1 0x40 MLOAD PUSH4 0xE602DF05 PUSH1 0xE0 SHL DUP2 MSTORE PUSH0 PUSH1 0x4 DUP3 ADD MSTORE PUSH1 0x24 ADD PUSH2 0x450 JUMP JUMPDEST PUSH1 0x1 PUSH1 0x1 PUSH1 0xA0 SHL SUB DUP4 AND PUSH2 0x879 JUMPI PUSH1 0x40 MLOAD PUSH4 0x4A1406B1 PUSH1 0xE1 SHL DUP2 MSTORE PUSH0 PUSH1 0x4 DUP3 ADD MSTORE PUSH1 0x24 ADD PUSH2 0x450 JUMP JUMPDEST PUSH1 0x1 PUSH1 0x1 PUSH1 0xA0 SHL SUB DUP1 DUP6 AND PUSH0 SWAP1 DUP2 MSTORE PUSH1 0x1 PUSH1 0x20 SWAP1 DUP2 MSTORE PUSH1 0x40 DUP1 DUP4 KECCAK256 SWAP4 DUP8 AND DUP4 MSTORE SWAP3 SWAP1 MSTORE KECCAK256 DUP3 SWAP1 SSTORE DUP1 ISZERO PUSH2 0x710 JUMPI DUP3 PUSH1 0x1 PUSH1 0x1 PUSH1 0xA0 SHL SUB AND DUP5 PUSH1 0x1 PUSH1 0x1 PUSH1 0xA0 SHL SUB AND PUSH32 0x8C5BE1E5EBEC7D5BD14F71427D1E84F3DD0314C0F7B2291E5B200AC8C7C3B925 DUP5 PUSH1 0x40 MLOAD PUSH2 0x8EB SWAP2 DUP2 MSTORE PUSH1 0x20 ADD SWAP1 JUMP JUMPDEST PUSH1 0x40 MLOAD DUP1 SWAP2 SUB SWAP1 LOG3 POP POP POP POP JUMP JUMPDEST PUSH1 0x1 PUSH1 0x1 PUSH1 0xA0 SHL SUB DUP4 AND PUSH2 0x923 JUMPI DUP1 PUSH1 0x2 PUSH0 DUP3 DUP3 SLOAD PUSH2 0x918 SWAP2 SWAP1 PUSH2 0xC14 JUMP JUMPDEST SWAP1 SWAP2 SSTORE POP PUSH2 0x993 SWAP1 POP JUMP JUMPDEST PUSH1 0x1 PUSH1 0x1 PUSH1 0xA0 SHL SUB DUP4 AND PUSH0 SWAP1 DUP2 MSTORE PUSH1 0x20 DUP2 SWAP1 MSTORE PUSH1 0x40 SWAP1 KECCAK256 SLOAD DUP2 DUP2 LT ISZERO PUSH2 0x975 JUMPI PUSH1 0x40 MLOAD PUSH4 0x391434E3 PUSH1 0xE2 SHL DUP2 MSTORE PUSH1 0x1 PUSH1 0x1 PUSH1 0xA0 SHL SUB DUP6 AND PUSH1 0x4 DUP3 ADD MSTORE PUSH1 0x24 DUP2 ADD DUP3 SWAP1 MSTORE PUSH1 0x44 DUP2 ADD DUP4 SWAP1 MSTORE PUSH1 0x64 ADD PUSH2 0x450 JUMP JUMPDEST PUSH1 0x1 PUSH1 0x1 PUSH1 0xA0 SHL SUB DUP5 AND PUSH0 SWAP1 DUP2 MSTORE PUSH1 0x20 DUP2 SWAP1 MSTORE PUSH1 0x40 SWAP1 KECCAK256 SWAP1 DUP3 SWAP1 SUB SWAP1 SSTORE JUMPDEST PUSH1 0x1 PUSH1 0x1 PUSH1 0xA0 SHL SUB DUP3 AND PUSH2 0x9AF JUMPI PUSH1 0x2 DUP1 SLOAD DUP3 SWAP1 SUB SWAP1 SSTORE PUSH2 0x9CD JUMP JUMPDEST PUSH1 0x1 PUSH1 0x1 PUSH1 0xA0 SHL SUB DUP3 AND PUSH0 SWAP1 DUP2 MSTORE PUSH1 0x20 DUP2 SWAP1 MSTORE PUSH1 0x40 SWAP1 KECCAK256 DUP1 SLOAD DUP3 ADD SWAP1 SSTORE JUMPDEST DUP2 PUSH1 0x1 PUSH1 0x1 PUSH1 0xA0 SHL SUB AND DUP4 PUSH1 0x1 PUSH1 0x1 PUSH1 0xA0 SHL SUB AND PUSH32 0xDDF252AD1BE2C89B69C2B068FC378DAA952BA7F163C4A11628F55A4DF523B3EF DUP4 PUSH1 0x40 MLOAD PUSH2 0xA12 SWAP2 DUP2 MSTORE PUSH1 0x20 ADD SWAP1 JUMP JUMPDEST PUSH1 0x40 MLOAD DUP1 SWAP2 SUB SWAP1 LOG3 POP POP POP JUMP JUMPDEST PUSH1 0x1 PUSH1 0x1 PUSH1 0xA0 SHL SUB DUP4 AND PUSH2 0xA48 JUMPI PUSH1 0x40 MLOAD PUSH4 0x4B637E8F PUSH1 0xE1 SHL DUP2 MSTORE PUSH0 PUSH1 0x4 DUP3 ADD MSTORE PUSH1 0x24 ADD PUSH2 0x450 JUMP JUMPDEST PUSH1 0x1 PUSH1 0x1 PUSH1 0xA0 SHL SUB DUP3 AND PUSH2 0xA71 JUMPI PUSH1 0x40 MLOAD PUSH4 0xEC442F05 PUSH1 0xE0 SHL DUP2 MSTORE PUSH0 PUSH1 0x4 DUP3 ADD MSTORE PUSH1 0x24 ADD PUSH2 0x450 JUMP JUMPDEST PUSH2 0x631 DUP4 DUP4 DUP4 PUSH2 0x8F9 JUMP JUMPDEST PUSH1 0x20 DUP2 MSTORE PUSH0 DUP3 MLOAD DUP1 PUSH1 0x20 DUP5 ADD MSTORE DUP1 PUSH1 0x20 DUP6 ADD PUSH1 0x40 DUP6 ADD MCOPY PUSH0 PUSH1 0x40 DUP3 DUP6 ADD ADD MSTORE PUSH1 0x40 PUSH1 0x1F NOT PUSH1 0x1F DUP4 ADD AND DUP5 ADD ADD SWAP2 POP POP SWAP3 SWAP2 POP POP JUMP JUMPDEST DUP1 CALLDATALOAD PUSH1 0x1 PUSH1 0x1 PUSH1 0xA0 SHL SUB DUP2 AND DUP2 EQ PUSH2 0xAC7 JUMPI PUSH0 DUP1 REVERT JUMPDEST SWAP2 SWAP1 POP JUMP JUMPDEST PUSH0 DUP1 PUSH1 0x40 DUP4 DUP6 SUB SLT ISZERO PUSH2 0xADD JUMPI PUSH0 DUP1 REVERT JUMPDEST PUSH2 0xAE6 DUP4 PUSH2 0xAB1 JUMP JUMPDEST SWAP5 PUSH1 0x20 SWAP4 SWAP1 SWAP4 ADD CALLDATALOAD SWAP4 POP POP POP JUMP JUMPDEST PUSH0 DUP1 PUSH0 PUSH1 0x60 DUP5 DUP7 SUB SLT ISZERO PUSH2 0xB06 JUMPI PUSH0 DUP1 REVERT JUMPDEST PUSH2 0xB0F DUP5 PUSH2 0xAB1 JUMP JUMPDEST SWAP3 POP PUSH2 0xB1D PUSH1 0x20 DUP6 ADD PUSH2 0xAB1 JUMP JUMPDEST SWAP3 SWAP6 SWAP3 SWAP5 POP POP POP PUSH1 0x40 SWAP2 SWAP1 SWAP2 ADD CALLDATALOAD SWAP1 JUMP JUMPDEST PUSH0 PUSH1 0x20 DUP3 DUP5 SUB SLT ISZERO PUSH2 0xB3E JUMPI PUSH0 DUP1 REVERT JUMPDEST PUSH2 0xB47 DUP3 PUSH2 0xAB1 JUMP JUMPDEST SWAP4 SWAP3 POP POP POP JUMP JUMPDEST PUSH0 DUP1 PUSH1 0x40 DUP4 DUP6 SUB SLT ISZERO PUSH2 0xB5F JUMPI PUSH0 DUP1 REVERT JUMPDEST PUSH2 0xB68 DUP4 PUSH2 0xAB1 JUMP JUMPDEST SWAP2 POP PUSH2 0xB76 PUSH1 0x20 DUP5 ADD PUSH2 0xAB1 JUMP JUMPDEST SWAP1 POP SWAP3 POP SWAP3 SWAP1 POP JUMP JUMPDEST PUSH1 0x1 DUP2 DUP2 SHR SWAP1 DUP3 AND DUP1 PUSH2 0xB93 JUMPI PUSH1 0x7F DUP3 AND SWAP2 POP JUMPDEST PUSH1 0x20 DUP3 LT DUP2 SUB PUSH2 0xBB1 JUMPI PUSH4 0x4E487B71 PUSH1 0xE0 SHL PUSH0 MSTORE PUSH1 0x22 PUSH1 0x4 MSTORE PUSH1 0x24 PUSH0 REVERT JUMPDEST POP SWAP2 SWAP1 POP JUMP JUMPDEST PUSH4 0x4E487B71 PUSH1 0xE0 SHL PUSH0 MSTORE PUSH1 0x11 PUSH1 0x4 MSTORE PUSH1 0x24 PUSH0 REVERT JUMPDEST DUP1 DUP3 MUL DUP2 ISZERO DUP3 DUP3 DIV DUP5 EQ OR PUSH2 0x3EC JUMPI PUSH2 0x3EC PUSH2 0xBB7 JUMP JUMPDEST PUSH0 DUP3 PUSH2 0xBFC JUMPI PUSH4 0x4E487B71 PUSH1 0xE0 SHL PUSH0 MSTORE PUSH1 0x12 PUSH1 0x4 MSTORE PUSH1 0x24 PUSH0 REVERT JUMPDEST POP DIV SWAP1 JUMP JUMPDEST DUP2 DUP2 SUB DUP2 DUP2 GT ISZERO PUSH2 0x3EC JUMPI PUSH2 0x3EC PUSH2 0xBB7 JUMP JUMPDEST DUP1 DUP3 ADD DUP1 DUP3 GT ISZERO PUSH2 0x3EC JUMPI PUSH2 0x3EC PUSH2 0xBB7 JUMP INVALID LOG2 PUSH5 0x6970667358 0x22 SLT KECCAK256 0xB9 SHL 0x4C ISZERO SSTORE JUMPDEST DUP2 0xF6 0x24 0x4E 0xC6 MSTORE8 JUMPI 0xCB 0x27 LOG4 0x4C 0xC2 0xD7 0xB5 CREATE PUSH8 0x7D83CE76B94C6656 SWAP13 ADD PUSH5 0x736F6C6343 STOP ADDMOD BYTE STOP CALLER "
				},
				"gasEstimates": {
					"creation": {
						"codeDepositCost": "633000",
						"executionCost": "infinite",
						"totalCost": "infinite"
					},
					"external": {
						"allowance(address,address)": "infinite",
						"approve(address,uint256)": "24758",
						"balanceOf(address)": "2670",
						"charityAddress()": "2469",
						"decimals()": "243",
						"liquidityAddress()": "2425",
						"marketingAddress()": "2425",
						"mint()": "infinite",
						"minted()": "2437",
						"name()": "infinite",
						"owner()": "2375",
						"partnershipAddress()": "2402",
						"presaleAddress()": "2404",
						"renounceOwnership()": "infinite",
						"reserveAddress()": "2468",
						"rndAddress()": "2358",
						"symbol()": "infinite",
						"teamAddress()": "2359",
						"totalSupply()": "2392",
						"transfer(address,uint256)": "infinite",
						"transferFrom(address,address,uint256)": "infinite",
						"transferOwnership(address)": "28443",
						"treasuryAddress()": "2380"
					},
					"internal": {
						"_transfer(address,address,uint256)": "infinite"
					}
				},
				"methodIdentifiers": {
					"allowance(address,address)": "dd62ed3e",
					"approve(address,uint256)": "095ea7b3",
					"balanceOf(address)": "70a08231",
					"charityAddress()": "afcf2fc4",
					"decimals()": "313ce567",
					"liquidityAddress()": "3221c93f",
					"marketingAddress()": "a5ece941",
					"mint()": "1249c58b",
					"minted()": "4f02c420",
					"name()": "06fdde03",
					"owner()": "8da5cb5b",
					"partnershipAddress()": "d3e1fe14",
					"presaleAddress()": "122fe685",
					"renounceOwnership()": "715018a6",
					"reserveAddress()": "f79ed94b",
					"rndAddress()": "bc71788b",
					"symbol()": "95d89b41",
					"teamAddress()": "1c75f085",
					"totalSupply()": "18160ddd",
					"transfer(address,uint256)": "a9059cbb",
					"transferFrom(address,address,uint256)": "23b872dd",
					"transferOwnership(address)": "f2fde38b",
					"treasuryAddress()": "c5f956af"
				}
			},
			"storageLayout": {
				"storage": [
					{
						"astId": 263,
						"contract": "contracts/GepsToken.sol:GEPSToken",
						"label": "_balances",
						"offset": 0,
						"slot": "0",
						"type": "t_mapping(t_address,t_uint256)"
					},
					{
						"astId": 269,
						"contract": "contracts/GepsToken.sol:GEPSToken",
						"label": "_allowances",
						"offset": 0,
						"slot": "1",
						"type": "t_mapping(t_address,t_mapping(t_address,t_uint256))"
					},
					{
						"astId": 271,
						"contract": "contracts/GepsToken.sol:GEPSToken",
						"label": "_totalSupply",
						"offset": 0,
						"slot": "2",
						"type": "t_uint256"
					},
					{
						"astId": 273,
						"contract": "contracts/GepsToken.sol:GEPSToken",
						"label": "_name",
						"offset": 0,
						"slot": "3",
						"type": "t_string_storage"
					},
					{
						"astId": 275,
						"contract": "contracts/GepsToken.sol:GEPSToken",
						"label": "_symbol",
						"offset": 0,
						"slot": "4",
						"type": "t_string_storage"
					},
					{
						"astId": 748,
						"contract": "contracts/GepsToken.sol:GEPSToken",
						"label": "_owner",
						"offset": 0,
						"slot": "5",
						"type": "t_address"
					},
					{
						"astId": 901,
						"contract": "contracts/GepsToken.sol:GEPSToken",
						"label": "presaleAddress",
						"offset": 0,
						"slot": "6",
						"type": "t_address"
					},
					{
						"astId": 903,
						"contract": "contracts/GepsToken.sol:GEPSToken",
						"label": "rndAddress",
						"offset": 0,
						"slot": "7",
						"type": "t_address"
					},
					{
						"astId": 905,
						"contract": "contracts/GepsToken.sol:GEPSToken",
						"label": "marketingAddress",
						"offset": 0,
						"slot": "8",
						"type": "t_address"
					},
					{
						"astId": 907,
						"contract": "contracts/GepsToken.sol:GEPSToken",
						"label": "treasuryAddress",
						"offset": 0,
						"slot": "9",
						"type": "t_address"
					},
					{
						"astId": 909,
						"contract": "contracts/GepsToken.sol:GEPSToken",
						"label": "teamAddress",
						"offset": 0,
						"slot": "10",
						"type": "t_address"
					},
					{
						"astId": 911,
						"contract": "contracts/GepsToken.sol:GEPSToken",
						"label": "partnershipAddress",
						"offset": 0,
						"slot": "11",
						"type": "t_address"
					},
					{
						"astId": 913,
						"contract": "contracts/GepsToken.sol:GEPSToken",
						"label": "liquidityAddress",
						"offset": 0,
						"slot": "12",
						"type": "t_address"
					},
					{
						"astId": 915,
						"contract": "contracts/GepsToken.sol:GEPSToken",
						"label": "charityAddress",
						"offset": 0,
						"slot": "13",
						"type": "t_address"
					},
					{
						"astId": 917,
						"contract": "contracts/GepsToken.sol:GEPSToken",
						"label": "reserveAddress",
						"offset": 0,
						"slot": "14",
						"type": "t_address"
					},
					{
						"astId": 920,
						"contract": "contracts/GepsToken.sol:GEPSToken",
						"label": "minted",
						"offset": 20,
						"slot": "14",
						"type": "t_bool"
					}
				],
				"types": {
					"t_address": {
						"encoding": "inplace",
						"label": "address",
						"numberOfBytes": "20"
					},
					"t_bool": {
						"encoding": "inplace",
						"label": "bool",
						"numberOfBytes": "1"
					},
					"t_mapping(t_address,t_mapping(t_address,t_uint256))": {
						"encoding": "mapping",
						"key": "t_address",
						"label": "mapping(address => mapping(address => uint256))",
						"numberOfBytes": "32",
						"value": "t_mapping(t_address,t_uint256)"
					},
					"t_mapping(t_address,t_uint256)": {
						"encoding": "mapping",
						"key": "t_address",
						"label": "mapping(address => uint256)",
						"numberOfBytes": "32",
						"value": "t_uint256"
					},
					"t_string_storage": {
						"encoding": "bytes",
						"label": "string",
						"numberOfBytes": "32"
					},
					"t_uint256": {
						"encoding": "inplace",
						"label": "uint256",
						"numberOfBytes": "32"
					}
				}
			},
			"userdoc": {
				"kind": "user",
				"methods": {},
				"version": 1
			}
		}
	}
}