{
	"contracts/PreSale.sol": {
		"GEPSPresale": {
			"abi": [
				{
					"inputs": [
						{
							"internalType": "address",
							"name": "_busd",
							"type": "address"
						},
						{
							"internalType": "address",
							"name": "_treasury",
							"type": "address"
						},
						{
							"internalType": "address payable",
							"name": "_presaleWallet",
							"type": "address"
						}
					],
					"stateMutability": "nonpayable",
					"type": "constructor"
				},
				{
					"inputs": [
						{
							"internalType": "address",
							"name": "owner",
							"type": "address"
						}
					],
					"name": "OwnableInvalidOwner",
					"type": "error"
				},
				{
					"inputs": [
						{
							"internalType": "address",
							"name": "account",
							"type": "address"
						}
					],
					"name": "OwnableUnauthorizedAccount",
					"type": "error"
				},
				{
					"anonymous": false,
					"inputs": [
						{
							"indexed": true,
							"internalType": "address",
							"name": "user",
							"type": "address"
						},
						{
							"indexed": false,
							"internalType": "uint256",
							"name": "amount",
							"type": "uint256"
						}
					],
					"name": "GEPSsClaimed",
					"type": "event"
				},
				{
					"anonymous": false,
					"inputs": [
						{
							"indexed": true,
							"internalType": "address",
							"name": "buyer",
							"type": "address"
						},
						{
							"indexed": false,
							"internalType": "uint256",
							"name": "amount",
							"type": "uint256"
						},
						{
							"indexed": false,
							"internalType": "string",
							"name": "currency",
							"type": "string"
						}
					],
					"name": "GEPSsPurchased",
					"type": "event"
				},
				{
					"anonymous": false,
					"inputs": [
						{
							"indexed": true,
							"internalType": "address",
							"name": "previousOwner",
							"type": "address"
						},
						{
							"indexed": true,
							"internalType": "address",
							"name": "newOwner",
							"type": "address"
						}
					],
					"name": "OwnershipTransferred",
					"type": "event"
				},
				{
					"anonymous": false,
					"inputs": [],
					"name": "PresaleEnded",
					"type": "event"
				},
				{
					"anonymous": false,
					"inputs": [],
					"name": "PresaleStarted",
					"type": "event"
				},
				{
					"inputs": [],
					"name": "CLAIM_DELAY",
					"outputs": [
						{
							"internalType": "uint256",
							"name": "",
							"type": "uint256"
						}
					],
					"stateMutability": "view",
					"type": "function"
				},
				{
					"inputs": [],
					"name": "GEPS",
					"outputs": [
						{
							"internalType": "contract IERC20",
							"name": "",
							"type": "address"
						}
					],
					"stateMutability": "view",
					"type": "function"
				},
				{
					"inputs": [],
					"name": "MAX_STAGE",
					"outputs": [
						{
							"internalType": "uint256",
							"name": "",
							"type": "uint256"
						}
					],
					"stateMutability": "view",
					"type": "function"
				},
				{
					"inputs": [],
					"name": "STAGE_DURATION",
					"outputs": [
						{
							"internalType": "uint256",
							"name": "",
							"type": "uint256"
						}
					],
					"stateMutability": "view",
					"type": "function"
				},
				{
					"inputs": [],
					"name": "busd",
					"outputs": [
						{
							"internalType": "contract IERC20",
							"name": "",
							"type": "address"
						}
					],
					"stateMutability": "view",
					"type": "function"
				},
				{
					"inputs": [
						{
							"internalType": "uint256",
							"name": "amount",
							"type": "uint256"
						},
						{
							"internalType": "string",
							"name": "currency",
							"type": "string"
						}
					],
					"name": "buyGEPS",
					"outputs": [],
					"stateMutability": "payable",
					"type": "function"
				},
				{
					"inputs": [
						{
							"internalType": "uint256",
							"name": "amount",
							"type": "uint256"
						},
						{
							"internalType": "string",
							"name": "_paymentToken",
							"type": "string"
						}
					],
					"name": "calculateCost",
					"outputs": [
						{
							"internalType": "int256",
							"name": "",
							"type": "int256"
						}
					],
					"stateMutability": "view",
					"type": "function"
				},
				{
					"inputs": [],
					"name": "claimGEPSs",
					"outputs": [],
					"stateMutability": "nonpayable",
					"type": "function"
				},
				{
					"inputs": [],
					"name": "currentStage",
					"outputs": [
						{
							"internalType": "uint256",
							"name": "",
							"type": "uint256"
						}
					],
					"stateMutability": "view",
					"type": "function"
				},
				{
					"inputs": [],
					"name": "getCurrentStage",
					"outputs": [
						{
							"internalType": "uint256",
							"name": "",
							"type": "uint256"
						}
					],
					"stateMutability": "view",
					"type": "function"
				},
				{
					"inputs": [],
					"name": "getUnsoldGEPSs",
					"outputs": [
						{
							"internalType": "uint256",
							"name": "",
							"type": "uint256"
						}
					],
					"stateMutability": "view",
					"type": "function"
				},
				{
					"inputs": [
						{
							"internalType": "address",
							"name": "",
							"type": "address"
						}
					],
					"name": "hasClaimed",
					"outputs": [
						{
							"internalType": "bool",
							"name": "",
							"type": "bool"
						}
					],
					"stateMutability": "view",
					"type": "function"
				},
				{
					"inputs": [
						{
							"internalType": "string[]",
							"name": "_tokenName",
							"type": "string[]"
						},
						{
							"internalType": "address[]",
							"name": "_oracleAddress",
							"type": "address[]"
						}
					],
					"name": "initialiseTokens",
					"outputs": [],
					"stateMutability": "nonpayable",
					"type": "function"
				},
				{
					"inputs": [],
					"name": "owner",
					"outputs": [
						{
							"internalType": "address",
							"name": "",
							"type": "address"
						}
					],
					"stateMutability": "view",
					"type": "function"
				},
				{
					"inputs": [],
					"name": "presaleEndTime",
					"outputs": [
						{
							"internalType": "uint256",
							"name": "",
							"type": "uint256"
						}
					],
					"stateMutability": "view",
					"type": "function"
				},
				{
					"inputs": [],
					"name": "presaleStartTime",
					"outputs": [
						{
							"internalType": "uint256",
							"name": "",
							"type": "uint256"
						}
					],
					"stateMutability": "view",
					"type": "function"
				},
				{
					"inputs": [
						{
							"internalType": "address",
							"name": "",
							"type": "address"
						}
					],
					"name": "purchasedGEPSs",
					"outputs": [
						{
							"internalType": "uint256",
							"name": "",
							"type": "uint256"
						}
					],
					"stateMutability": "view",
					"type": "function"
				},
				{
					"inputs": [],
					"name": "renounceOwnership",
					"outputs": [],
					"stateMutability": "nonpayable",
					"type": "function"
				},
				{
					"inputs": [
						{
							"internalType": "address",
							"name": "_geps",
							"type": "address"
						}
					],
					"name": "setGEPSToken",
					"outputs": [],
					"stateMutability": "nonpayable",
					"type": "function"
				},
				{
					"inputs": [
						{
							"internalType": "uint256",
							"name": "",
							"type": "uint256"
						}
					],
					"name": "stages",
					"outputs": [
						{
							"internalType": "uint256",
							"name": "price",
							"type": "uint256"
						},
						{
							"internalType": "uint256",
							"name": "GEPSsAvailable",
							"type": "uint256"
						},
						{
							"internalType": "uint256",
							"name": "startTime",
							"type": "uint256"
						},
						{
							"internalType": "uint256",
							"name": "endTime",
							"type": "uint256"
						}
					],
					"stateMutability": "view",
					"type": "function"
				},
				{
					"inputs": [],
					"name": "startPresale",
					"outputs": [],
					"stateMutability": "nonpayable",
					"type": "function"
				},
				{
					"inputs": [
						{
							"internalType": "string",
							"name": "",
							"type": "string"
						}
					],
					"name": "tokenOracles",
					"outputs": [
						{
							"internalType": "address",
							"name": "",
							"type": "address"
						}
					],
					"stateMutability": "view",
					"type": "function"
				},
				{
					"inputs": [
						{
							"internalType": "address",
							"name": "newOwner",
							"type": "address"
						}
					],
					"name": "transferOwnership",
					"outputs": [],
					"stateMutability": "nonpayable",
					"type": "function"
				},
				{
					"inputs": [],
					"name": "treasury",
					"outputs": [
						{
							"internalType": "address",
							"name": "",
							"type": "address"
						}
					],
					"stateMutability": "view",
					"type": "function"
				},
				{
					"inputs": [
						{
							"internalType": "address payable",
							"name": "_presaleWallet",
							"type": "address"
						}
					],
					"name": "updatePresaleWallet",
					"outputs": [],
					"stateMutability": "nonpayable",
					"type": "function"
				},
				{
					"inputs": [
						{
							"internalType": "address",
							"name": "newAddress",
							"type": "address"
						}
					],
					"name": "updateTreasuryAddress",
					"outputs": [],
					"stateMutability": "nonpayable",
					"type": "function"
				}
			],
			"devdoc": {
				"errors": {
					"OwnableInvalidOwner(address)": [
						{
							"details": "The owner is not a valid owner account. (eg. `address(0)`)"
						}
					],
					"OwnableUnauthorizedAccount(address)": [
						{
							"details": "The caller account is not authorized to perform an operation."
						}
					]
				},
				"kind": "dev",
				"methods": {
					"owner()": {
						"details": "Returns the address of the current owner."
					},
					"renounceOwnership()": {
						"details": "Leaves the contract without owner. It will not be possible to call `onlyOwner` functions. Can only be called by the current owner. NOTE: Renouncing ownership will leave the contract without an owner, thereby disabling any functionality that is only available to the owner."
					},
					"transferOwnership(address)": {
						"details": "Transfers ownership of the contract to a new account (`newOwner`). Can only be called by the current owner."
					}
				},
				"version": 1
			},
			"evm": {
				"assembly": "    /* \"contracts/PreSale.sol\":1050:9077  contract GEPSPresale is Ownable {... */\n  mstore(0x40, 0x80)\n    /* \"contracts/PreSale.sol\":2084:2356  constructor(... */\n  callvalue\n  dup1\n  iszero\n  tag_1\n  jumpi\n  0x00\n  dup1\n  revert\ntag_1:\n  pop\n  mload(0x40)\n  sub(codesize, bytecodeSize)\n  dup1\n  bytecodeSize\n  dup4\n  codecopy\n  dup2\n  dup2\n  add\n  0x40\n  mstore\n  dup2\n  add\n  swap1\n  tag_2\n  swap2\n  swap1\n  tag_3\n  jump\t// in\ntag_2:\n    /* \"contracts/PreSale.sol\":2204:2214  msg.sender */\n  caller\n    /* \"@openzeppelin/contracts/access/Ownable.sol\":1297:1298  0 */\n  0x00\n    /* \"@openzeppelin/contracts/access/Ownable.sol\":1273:1299  initialOwner == address(0) */\n  0xffffffffffffffffffffffffffffffffffffffff\n  and\n    /* \"@openzeppelin/contracts/access/Ownable.sol\":1273:1285  initialOwner */\n  dup2\n    /* \"@openzeppelin/contracts/access/Ownable.sol\":1273:1299  initialOwner == address(0) */\n  0xffffffffffffffffffffffffffffffffffffffff\n  and\n  sub\n    /* \"@openzeppelin/contracts/access/Ownable.sol\":1269:1364  if (initialOwner == address(0)) {... */\n  tag_7\n  jumpi\n    /* \"@openzeppelin/contracts/access/Ownable.sol\":1350:1351  0 */\n  0x00\n    /* \"@openzeppelin/contracts/access/Ownable.sol\":1322:1353  OwnableInvalidOwner(address(0)) */\n  mload(0x40)\n  0x1e4fbdf700000000000000000000000000000000000000000000000000000000\n  dup2\n  mstore\n  0x04\n  add\n  tag_8\n  swap2\n  swap1\n  tag_9\n  jump\t// in\ntag_8:\n  mload(0x40)\n  dup1\n  swap2\n  sub\n  swap1\n  revert\n    /* \"@openzeppelin/contracts/access/Ownable.sol\":1269:1364  if (initialOwner == address(0)) {... */\ntag_7:\n    /* \"@openzeppelin/contracts/access/Ownable.sol\":1373:1405  _transferOwnership(initialOwner) */\n  tag_10\n    /* \"@openzeppelin/contracts/access/Ownable.sol\":1392:1404  initialOwner */\n  dup2\n    /* \"@openzeppelin/contracts/access/Ownable.sol\":1373:1391  _transferOwnership */\n  shl(0x20, tag_11)\n    /* \"@openzeppelin/contracts/access/Ownable.sol\":1373:1405  _transferOwnership(initialOwner) */\n  0x20\n  shr\n  jump\t// in\ntag_10:\n    /* \"@openzeppelin/contracts/access/Ownable.sol\":1225:1412  constructor(address initialOwner) {... */\n  pop\n    /* \"contracts/PreSale.sol\":2241:2246  _busd */\n  dup3\n    /* \"contracts/PreSale.sol\":2227:2231  busd */\n  0x02\n  0x00\n    /* \"contracts/PreSale.sol\":2227:2247  busd = IERC20(_busd) */\n  0x0100\n  exp\n  dup2\n  sload\n  dup2\n  0xffffffffffffffffffffffffffffffffffffffff\n  mul\n  not\n  and\n  swap1\n  dup4\n  0xffffffffffffffffffffffffffffffffffffffff\n  and\n  mul\n  or\n  swap1\n  sstore\n  pop\n    /* \"contracts/PreSale.sol\":2269:2278  _treasury */\n  dup2\n    /* \"contracts/PreSale.sol\":2258:2266  treasury */\n  0x03\n  0x00\n    /* \"contracts/PreSale.sol\":2258:2278  treasury = _treasury */\n  0x0100\n  exp\n  dup2\n  sload\n  dup2\n  0xffffffffffffffffffffffffffffffffffffffff\n  mul\n  not\n  and\n  swap1\n  dup4\n  0xffffffffffffffffffffffffffffffffffffffff\n  and\n  mul\n  or\n  swap1\n  sstore\n  pop\n    /* \"contracts/PreSale.sol\":2305:2319  _presaleWallet */\n  dup1\n    /* \"contracts/PreSale.sol\":2289:2302  presaleWallet */\n  0x04\n  0x00\n    /* \"contracts/PreSale.sol\":2289:2319  presaleWallet = _presaleWallet */\n  0x0100\n  exp\n  dup2\n  sload\n  dup2\n  0xffffffffffffffffffffffffffffffffffffffff\n  mul\n  not\n  and\n  swap1\n  dup4\n  0xffffffffffffffffffffffffffffffffffffffff\n  and\n  mul\n  or\n  swap1\n  sstore\n  pop\n    /* \"contracts/PreSale.sol\":2330:2348  initializeStages() */\n  tag_13\n    /* \"contracts/PreSale.sol\":2330:2346  initializeStages */\n  shl(0x20, tag_14)\n    /* \"contracts/PreSale.sol\":2330:2348  initializeStages() */\n  0x20\n  shr\n  jump\t// in\ntag_13:\n    /* \"contracts/PreSale.sol\":2084:2356  constructor(... */\n  pop\n  pop\n  pop\n    /* \"contracts/PreSale.sol\":1050:9077  contract GEPSPresale is Ownable {... */\n  jump(tag_15)\n    /* \"@openzeppelin/contracts/access/Ownable.sol\":2912:3099  function _transferOwnership(address newOwner) internal virtual {... */\ntag_11:\n    /* \"@openzeppelin/contracts/access/Ownable.sol\":2985:3001  address oldOwner */\n  0x00\n    /* \"@openzeppelin/contracts/access/Ownable.sol\":3004:3010  _owner */\n  dup1\n  0x00\n  swap1\n  sload\n  swap1\n  0x0100\n  exp\n  swap1\n  div\n  0xffffffffffffffffffffffffffffffffffffffff\n  and\n    /* \"@openzeppelin/contracts/access/Ownable.sol\":2985:3010  address oldOwner = _owner */\n  swap1\n  pop\n    /* \"@openzeppelin/contracts/access/Ownable.sol\":3029:3037  newOwner */\n  dup2\n    /* \"@openzeppelin/contracts/access/Ownable.sol\":3020:3026  _owner */\n  0x00\n  dup1\n    /* \"@openzeppelin/contracts/access/Ownable.sol\":3020:3037  _owner = newOwner */\n  0x0100\n  exp\n  dup2\n  sload\n  dup2\n  0xffffffffffffffffffffffffffffffffffffffff\n  mul\n  not\n  and\n  swap1\n  dup4\n  0xffffffffffffffffffffffffffffffffffffffff\n  and\n  mul\n  or\n  swap1\n  sstore\n  pop\n    /* \"@openzeppelin/contracts/access/Ownable.sol\":3083:3091  newOwner */\n  dup2\n    /* \"@openzeppelin/contracts/access/Ownable.sol\":3052:3092  OwnershipTransferred(oldOwner, newOwner) */\n  0xffffffffffffffffffffffffffffffffffffffff\n  and\n    /* \"@openzeppelin/contracts/access/Ownable.sol\":3073:3081  oldOwner */\n  dup2\n    /* \"@openzeppelin/contracts/access/Ownable.sol\":3052:3092  OwnershipTransferred(oldOwner, newOwner) */\n  0xffffffffffffffffffffffffffffffffffffffff\n  and\n  0x8be0079c531659141344cd1fd0a4f28419497f9722a3daafe3b4186f6b6457e0\n  mload(0x40)\n  mload(0x40)\n  dup1\n  swap2\n  sub\n  swap1\n  log3\n    /* \"@openzeppelin/contracts/access/Ownable.sol\":2975:3099  {... */\n  pop\n    /* \"@openzeppelin/contracts/access/Ownable.sol\":2912:3099  function _transferOwnership(address newOwner) internal virtual {... */\n  pop\n  jump\t// out\n    /* \"contracts/PreSale.sol\":2602:4139  function initializeStages() internal {... */\ntag_14:\n    /* \"contracts/PreSale.sol\":2662:2804  Stage({... */\n  mload(0x40)\n  dup1\n  0x80\n  add\n  0x40\n  mstore\n  dup1\n    /* \"contracts/PreSale.sol\":2690:2691  1 */\n  0x01\n    /* \"contracts/PreSale.sol\":2662:2804  Stage({... */\n  dup2\n  mstore\n  0x20\n  add\n    /* \"contracts/PreSale.sol\":2722:2740  2222224 * 10 ** 18 */\n  0x01d693012228a4c8400000\n    /* \"contracts/PreSale.sol\":2662:2804  Stage({... */\n  dup2\n  mstore\n  0x20\n  add\n    /* \"contracts/PreSale.sol\":2766:2767  0 */\n  0x00\n    /* \"contracts/PreSale.sol\":2662:2804  Stage({... */\n  dup2\n  mstore\n  0x20\n  add\n    /* \"contracts/PreSale.sol\":2791:2792  0 */\n  0x00\n    /* \"contracts/PreSale.sol\":2662:2804  Stage({... */\n  dup2\n  mstore\n  pop\n    /* \"contracts/PreSale.sol\":2650:2656  stages */\n  0x05\n    /* \"contracts/PreSale.sol\":2657:2658  0 */\n  0x00\n    /* \"contracts/PreSale.sol\":2650:2659  stages[0] */\n  0x09\n  dup2\n  lt\n  tag_18\n  jumpi\n  tag_19\n  tag_20\n  jump\t// in\ntag_19:\ntag_18:\n  0x04\n  mul\n  add\n    /* \"contracts/PreSale.sol\":2650:2804  stages[0] = Stage({... */\n  0x00\n  dup3\n  add\n  mload\n  dup2\n  0x00\n  add\n  sstore\n  0x20\n  dup3\n  add\n  mload\n  dup2\n  0x01\n  add\n  sstore\n  0x40\n  dup3\n  add\n  mload\n  dup2\n  0x02\n  add\n  sstore\n  0x60\n  dup3\n  add\n  mload\n  dup2\n  0x03\n  add\n  sstore\n  swap1\n  pop\n  pop\n    /* \"contracts/PreSale.sol\":2827:2969  Stage({... */\n  mload(0x40)\n  dup1\n  0x80\n  add\n  0x40\n  mstore\n  dup1\n    /* \"contracts/PreSale.sol\":2855:2856  5 */\n  0x05\n    /* \"contracts/PreSale.sol\":2827:2969  Stage({... */\n  dup2\n  mstore\n  0x20\n  add\n    /* \"contracts/PreSale.sol\":2887:2905  2222222 * 10 ** 18 */\n  0x01d692e560bb3d79780000\n    /* \"contracts/PreSale.sol\":2827:2969  Stage({... */\n  dup2\n  mstore\n  0x20\n  add\n    /* \"contracts/PreSale.sol\":2931:2932  0 */\n  0x00\n    /* \"contracts/PreSale.sol\":2827:2969  Stage({... */\n  dup2\n  mstore\n  0x20\n  add\n    /* \"contracts/PreSale.sol\":2956:2957  0 */\n  0x00\n    /* \"contracts/PreSale.sol\":2827:2969  Stage({... */\n  dup2\n  mstore\n  pop\n    /* \"contracts/PreSale.sol\":2815:2821  stages */\n  0x05\n    /* \"contracts/PreSale.sol\":2822:2823  1 */\n  0x01\n    /* \"contracts/PreSale.sol\":2815:2824  stages[1] */\n  0x09\n  dup2\n  lt\n  tag_22\n  jumpi\n  tag_23\n  tag_20\n  jump\t// in\ntag_23:\ntag_22:\n  0x04\n  mul\n  add\n    /* \"contracts/PreSale.sol\":2815:2969  stages[1] = Stage({... */\n  0x00\n  dup3\n  add\n  mload\n  dup2\n  0x00\n  add\n  sstore\n  0x20\n  dup3\n  add\n  mload\n  dup2\n  0x01\n  add\n  sstore\n  0x40\n  dup3\n  add\n  mload\n  dup2\n  0x02\n  add\n  sstore\n  0x60\n  dup3\n  add\n  mload\n  dup2\n  0x03\n  add\n  sstore\n  swap1\n  pop\n  pop\n    /* \"contracts/PreSale.sol\":2992:3135  Stage({... */\n  mload(0x40)\n  dup1\n  0x80\n  add\n  0x40\n  mstore\n  dup1\n    /* \"contracts/PreSale.sol\":3020:3022  10 */\n  0x0a\n    /* \"contracts/PreSale.sol\":2992:3135  Stage({... */\n  dup2\n  mstore\n  0x20\n  add\n    /* \"contracts/PreSale.sol\":3053:3071  2222222 * 10 ** 18 */\n  0x01d692e560bb3d79780000\n    /* \"contracts/PreSale.sol\":2992:3135  Stage({... */\n  dup2\n  mstore\n  0x20\n  add\n    /* \"contracts/PreSale.sol\":3097:3098  0 */\n  0x00\n    /* \"contracts/PreSale.sol\":2992:3135  Stage({... */\n  dup2\n  mstore\n  0x20\n  add\n    /* \"contracts/PreSale.sol\":3122:3123  0 */\n  0x00\n    /* \"contracts/PreSale.sol\":2992:3135  Stage({... */\n  dup2\n  mstore\n  pop\n    /* \"contracts/PreSale.sol\":2980:2986  stages */\n  0x05\n    /* \"contracts/PreSale.sol\":2987:2988  2 */\n  0x02\n    /* \"contracts/PreSale.sol\":2980:2989  stages[2] */\n  0x09\n  dup2\n  lt\n  tag_25\n  jumpi\n  tag_26\n  tag_20\n  jump\t// in\ntag_26:\ntag_25:\n  0x04\n  mul\n  add\n    /* \"contracts/PreSale.sol\":2980:3135  stages[2] = Stage({... */\n  0x00\n  dup3\n  add\n  mload\n  dup2\n  0x00\n  add\n  sstore\n  0x20\n  dup3\n  add\n  mload\n  dup2\n  0x01\n  add\n  sstore\n  0x40\n  dup3\n  add\n  mload\n  dup2\n  0x02\n  add\n  sstore\n  0x60\n  dup3\n  add\n  mload\n  dup2\n  0x03\n  add\n  sstore\n  swap1\n  pop\n  pop\n    /* \"contracts/PreSale.sol\":3158:3301  Stage({... */\n  mload(0x40)\n  dup1\n  0x80\n  add\n  0x40\n  mstore\n  dup1\n    /* \"contracts/PreSale.sol\":3186:3188  15 */\n  0x0f\n    /* \"contracts/PreSale.sol\":3158:3301  Stage({... */\n  dup2\n  mstore\n  0x20\n  add\n    /* \"contracts/PreSale.sol\":3219:3237  2222222 * 10 ** 18 */\n  0x01d692e560bb3d79780000\n    /* \"contracts/PreSale.sol\":3158:3301  Stage({... */\n  dup2\n  mstore\n  0x20\n  add\n    /* \"contracts/PreSale.sol\":3263:3264  0 */\n  0x00\n    /* \"contracts/PreSale.sol\":3158:3301  Stage({... */\n  dup2\n  mstore\n  0x20\n  add\n    /* \"contracts/PreSale.sol\":3288:3289  0 */\n  0x00\n    /* \"contracts/PreSale.sol\":3158:3301  Stage({... */\n  dup2\n  mstore\n  pop\n    /* \"contracts/PreSale.sol\":3146:3152  stages */\n  0x05\n    /* \"contracts/PreSale.sol\":3153:3154  3 */\n  0x03\n    /* \"contracts/PreSale.sol\":3146:3155  stages[3] */\n  0x09\n  dup2\n  lt\n  tag_28\n  jumpi\n  tag_29\n  tag_20\n  jump\t// in\ntag_29:\ntag_28:\n  0x04\n  mul\n  add\n    /* \"contracts/PreSale.sol\":3146:3301  stages[3] = Stage({... */\n  0x00\n  dup3\n  add\n  mload\n  dup2\n  0x00\n  add\n  sstore\n  0x20\n  dup3\n  add\n  mload\n  dup2\n  0x01\n  add\n  sstore\n  0x40\n  dup3\n  add\n  mload\n  dup2\n  0x02\n  add\n  sstore\n  0x60\n  dup3\n  add\n  mload\n  dup2\n  0x03\n  add\n  sstore\n  swap1\n  pop\n  pop\n    /* \"contracts/PreSale.sol\":3324:3467  Stage({... */\n  mload(0x40)\n  dup1\n  0x80\n  add\n  0x40\n  mstore\n  dup1\n    /* \"contracts/PreSale.sol\":3352:3354  20 */\n  0x14\n    /* \"contracts/PreSale.sol\":3324:3467  Stage({... */\n  dup2\n  mstore\n  0x20\n  add\n    /* \"contracts/PreSale.sol\":3385:3403  2222222 * 10 ** 18 */\n  0x01d692e560bb3d79780000\n    /* \"contracts/PreSale.sol\":3324:3467  Stage({... */\n  dup2\n  mstore\n  0x20\n  add\n    /* \"contracts/PreSale.sol\":3429:3430  0 */\n  0x00\n    /* \"contracts/PreSale.sol\":3324:3467  Stage({... */\n  dup2\n  mstore\n  0x20\n  add\n    /* \"contracts/PreSale.sol\":3454:3455  0 */\n  0x00\n    /* \"contracts/PreSale.sol\":3324:3467  Stage({... */\n  dup2\n  mstore\n  pop\n    /* \"contracts/PreSale.sol\":3312:3318  stages */\n  0x05\n    /* \"contracts/PreSale.sol\":3319:3320  4 */\n  0x04\n    /* \"contracts/PreSale.sol\":3312:3321  stages[4] */\n  0x09\n  dup2\n  lt\n  tag_31\n  jumpi\n  tag_32\n  tag_20\n  jump\t// in\ntag_32:\ntag_31:\n  0x04\n  mul\n  add\n    /* \"contracts/PreSale.sol\":3312:3467  stages[4] = Stage({... */\n  0x00\n  dup3\n  add\n  mload\n  dup2\n  0x00\n  add\n  sstore\n  0x20\n  dup3\n  add\n  mload\n  dup2\n  0x01\n  add\n  sstore\n  0x40\n  dup3\n  add\n  mload\n  dup2\n  0x02\n  add\n  sstore\n  0x60\n  dup3\n  add\n  mload\n  dup2\n  0x03\n  add\n  sstore\n  swap1\n  pop\n  pop\n    /* \"contracts/PreSale.sol\":3490:3633  Stage({... */\n  mload(0x40)\n  dup1\n  0x80\n  add\n  0x40\n  mstore\n  dup1\n    /* \"contracts/PreSale.sol\":3518:3520  25 */\n  0x19\n    /* \"contracts/PreSale.sol\":3490:3633  Stage({... */\n  dup2\n  mstore\n  0x20\n  add\n    /* \"contracts/PreSale.sol\":3551:3569  2222222 * 10 ** 18 */\n  0x01d692e560bb3d79780000\n    /* \"contracts/PreSale.sol\":3490:3633  Stage({... */\n  dup2\n  mstore\n  0x20\n  add\n    /* \"contracts/PreSale.sol\":3595:3596  0 */\n  0x00\n    /* \"contracts/PreSale.sol\":3490:3633  Stage({... */\n  dup2\n  mstore\n  0x20\n  add\n    /* \"contracts/PreSale.sol\":3620:3621  0 */\n  0x00\n    /* \"contracts/PreSale.sol\":3490:3633  Stage({... */\n  dup2\n  mstore\n  pop\n    /* \"contracts/PreSale.sol\":3478:3484  stages */\n  0x05\n    /* \"contracts/PreSale.sol\":3485:3486  5 */\n  dup1\n    /* \"contracts/PreSale.sol\":3478:3487  stages[5] */\n  0x09\n  dup2\n  lt\n  tag_34\n  jumpi\n  tag_35\n  tag_20\n  jump\t// in\ntag_35:\ntag_34:\n  0x04\n  mul\n  add\n    /* \"contracts/PreSale.sol\":3478:3633  stages[5] = Stage({... */\n  0x00\n  dup3\n  add\n  mload\n  dup2\n  0x00\n  add\n  sstore\n  0x20\n  dup3\n  add\n  mload\n  dup2\n  0x01\n  add\n  sstore\n  0x40\n  dup3\n  add\n  mload\n  dup2\n  0x02\n  add\n  sstore\n  0x60\n  dup3\n  add\n  mload\n  dup2\n  0x03\n  add\n  sstore\n  swap1\n  pop\n  pop\n    /* \"contracts/PreSale.sol\":3656:3799  Stage({... */\n  mload(0x40)\n  dup1\n  0x80\n  add\n  0x40\n  mstore\n  dup1\n    /* \"contracts/PreSale.sol\":3684:3686  30 */\n  0x1e\n    /* \"contracts/PreSale.sol\":3656:3799  Stage({... */\n  dup2\n  mstore\n  0x20\n  add\n    /* \"contracts/PreSale.sol\":3717:3735  2222222 * 10 ** 18 */\n  0x01d692e560bb3d79780000\n    /* \"contracts/PreSale.sol\":3656:3799  Stage({... */\n  dup2\n  mstore\n  0x20\n  add\n    /* \"contracts/PreSale.sol\":3761:3762  0 */\n  0x00\n    /* \"contracts/PreSale.sol\":3656:3799  Stage({... */\n  dup2\n  mstore\n  0x20\n  add\n    /* \"contracts/PreSale.sol\":3786:3787  0 */\n  0x00\n    /* \"contracts/PreSale.sol\":3656:3799  Stage({... */\n  dup2\n  mstore\n  pop\n    /* \"contracts/PreSale.sol\":3644:3650  stages */\n  0x05\n    /* \"contracts/PreSale.sol\":3651:3652  6 */\n  0x06\n    /* \"contracts/PreSale.sol\":3644:3653  stages[6] */\n  0x09\n  dup2\n  lt\n  tag_37\n  jumpi\n  tag_38\n  tag_20\n  jump\t// in\ntag_38:\ntag_37:\n  0x04\n  mul\n  add\n    /* \"contracts/PreSale.sol\":3644:3799  stages[6] = Stage({... */\n  0x00\n  dup3\n  add\n  mload\n  dup2\n  0x00\n  add\n  sstore\n  0x20\n  dup3\n  add\n  mload\n  dup2\n  0x01\n  add\n  sstore\n  0x40\n  dup3\n  add\n  mload\n  dup2\n  0x02\n  add\n  sstore\n  0x60\n  dup3\n  add\n  mload\n  dup2\n  0x03\n  add\n  sstore\n  swap1\n  pop\n  pop\n    /* \"contracts/PreSale.sol\":3822:3965  Stage({... */\n  mload(0x40)\n  dup1\n  0x80\n  add\n  0x40\n  mstore\n  dup1\n    /* \"contracts/PreSale.sol\":3850:3852  35 */\n  0x23\n    /* \"contracts/PreSale.sol\":3822:3965  Stage({... */\n  dup2\n  mstore\n  0x20\n  add\n    /* \"contracts/PreSale.sol\":3883:3901  2222222 * 10 ** 18 */\n  0x01d692e560bb3d79780000\n    /* \"contracts/PreSale.sol\":3822:3965  Stage({... */\n  dup2\n  mstore\n  0x20\n  add\n    /* \"contracts/PreSale.sol\":3927:3928  0 */\n  0x00\n    /* \"contracts/PreSale.sol\":3822:3965  Stage({... */\n  dup2\n  mstore\n  0x20\n  add\n    /* \"contracts/PreSale.sol\":3952:3953  0 */\n  0x00\n    /* \"contracts/PreSale.sol\":3822:3965  Stage({... */\n  dup2\n  mstore\n  pop\n    /* \"contracts/PreSale.sol\":3810:3816  stages */\n  0x05\n    /* \"contracts/PreSale.sol\":3817:3818  7 */\n  0x07\n    /* \"contracts/PreSale.sol\":3810:3819  stages[7] */\n  0x09\n  dup2\n  lt\n  tag_40\n  jumpi\n  tag_41\n  tag_20\n  jump\t// in\ntag_41:\ntag_40:\n  0x04\n  mul\n  add\n    /* \"contracts/PreSale.sol\":3810:3965  stages[7] = Stage({... */\n  0x00\n  dup3\n  add\n  mload\n  dup2\n  0x00\n  add\n  sstore\n  0x20\n  dup3\n  add\n  mload\n  dup2\n  0x01\n  add\n  sstore\n  0x40\n  dup3\n  add\n  mload\n  dup2\n  0x02\n  add\n  sstore\n  0x60\n  dup3\n  add\n  mload\n  dup2\n  0x03\n  add\n  sstore\n  swap1\n  pop\n  pop\n    /* \"contracts/PreSale.sol\":3988:4131  Stage({... */\n  mload(0x40)\n  dup1\n  0x80\n  add\n  0x40\n  mstore\n  dup1\n    /* \"contracts/PreSale.sol\":4016:4018  40 */\n  0x28\n    /* \"contracts/PreSale.sol\":3988:4131  Stage({... */\n  dup2\n  mstore\n  0x20\n  add\n    /* \"contracts/PreSale.sol\":4049:4067  2222222 * 10 ** 18 */\n  0x01d692e560bb3d79780000\n    /* \"contracts/PreSale.sol\":3988:4131  Stage({... */\n  dup2\n  mstore\n  0x20\n  add\n    /* \"contracts/PreSale.sol\":4093:4094  0 */\n  0x00\n    /* \"contracts/PreSale.sol\":3988:4131  Stage({... */\n  dup2\n  mstore\n  0x20\n  add\n    /* \"contracts/PreSale.sol\":4118:4119  0 */\n  0x00\n    /* \"contracts/PreSale.sol\":3988:4131  Stage({... */\n  dup2\n  mstore\n  pop\n    /* \"contracts/PreSale.sol\":3976:3982  stages */\n  0x05\n    /* \"contracts/PreSale.sol\":3983:3984  8 */\n  0x08\n    /* \"contracts/PreSale.sol\":3976:3985  stages[8] */\n  0x09\n  dup2\n  lt\n  tag_43\n  jumpi\n  tag_44\n  tag_20\n  jump\t// in\ntag_44:\ntag_43:\n  0x04\n  mul\n  add\n    /* \"contracts/PreSale.sol\":3976:4131  stages[8] = Stage({... */\n  0x00\n  dup3\n  add\n  mload\n  dup2\n  0x00\n  add\n  sstore\n  0x20\n  dup3\n  add\n  mload\n  dup2\n  0x01\n  add\n  sstore\n  0x40\n  dup3\n  add\n  mload\n  dup2\n  0x02\n  add\n  sstore\n  0x60\n  dup3\n  add\n  mload\n  dup2\n  0x03\n  add\n  sstore\n  swap1\n  pop\n  pop\n    /* \"contracts/PreSale.sol\":2602:4139  function initializeStages() internal {... */\n  jump\t// out\n    /* \"#utility.yul\":88:205   */\ntag_47:\n    /* \"#utility.yul\":197:198   */\n  0x00\n    /* \"#utility.yul\":194:195   */\n  dup1\n    /* \"#utility.yul\":187:199   */\n  revert\n    /* \"#utility.yul\":334:460   */\ntag_49:\n    /* \"#utility.yul\":371:378   */\n  0x00\n    /* \"#utility.yul\":411:453   */\n  0xffffffffffffffffffffffffffffffffffffffff\n    /* \"#utility.yul\":404:409   */\n  dup3\n    /* \"#utility.yul\":400:454   */\n  and\n    /* \"#utility.yul\":389:454   */\n  swap1\n  pop\n    /* \"#utility.yul\":334:460   */\n  swap2\n  swap1\n  pop\n  jump\t// out\n    /* \"#utility.yul\":466:562   */\ntag_50:\n    /* \"#utility.yul\":503:510   */\n  0x00\n    /* \"#utility.yul\":532:556   */\n  tag_63\n    /* \"#utility.yul\":550:555   */\n  dup3\n    /* \"#utility.yul\":532:556   */\n  tag_49\n  jump\t// in\ntag_63:\n    /* \"#utility.yul\":521:556   */\n  swap1\n  pop\n    /* \"#utility.yul\":466:562   */\n  swap2\n  swap1\n  pop\n  jump\t// out\n    /* \"#utility.yul\":568:690   */\ntag_51:\n    /* \"#utility.yul\":641:665   */\n  tag_65\n    /* \"#utility.yul\":659:664   */\n  dup2\n    /* \"#utility.yul\":641:665   */\n  tag_50\n  jump\t// in\ntag_65:\n    /* \"#utility.yul\":634:639   */\n  dup2\n    /* \"#utility.yul\":631:666   */\n  eq\n    /* \"#utility.yul\":621:684   */\n  tag_66\n  jumpi\n    /* \"#utility.yul\":680:681   */\n  0x00\n    /* \"#utility.yul\":677:678   */\n  dup1\n    /* \"#utility.yul\":670:682   */\n  revert\n    /* \"#utility.yul\":621:684   */\ntag_66:\n    /* \"#utility.yul\":568:690   */\n  pop\n  jump\t// out\n    /* \"#utility.yul\":696:839   */\ntag_52:\n    /* \"#utility.yul\":753:758   */\n  0x00\n    /* \"#utility.yul\":784:790   */\n  dup2\n    /* \"#utility.yul\":778:791   */\n  mload\n    /* \"#utility.yul\":769:791   */\n  swap1\n  pop\n    /* \"#utility.yul\":800:833   */\n  tag_68\n    /* \"#utility.yul\":827:832   */\n  dup2\n    /* \"#utility.yul\":800:833   */\n  tag_51\n  jump\t// in\ntag_68:\n    /* \"#utility.yul\":696:839   */\n  swap3\n  swap2\n  pop\n  pop\n  jump\t// out\n    /* \"#utility.yul\":845:949   */\ntag_53:\n    /* \"#utility.yul\":890:897   */\n  0x00\n    /* \"#utility.yul\":919:943   */\n  tag_70\n    /* \"#utility.yul\":937:942   */\n  dup3\n    /* \"#utility.yul\":919:943   */\n  tag_49\n  jump\t// in\ntag_70:\n    /* \"#utility.yul\":908:943   */\n  swap1\n  pop\n    /* \"#utility.yul\":845:949   */\n  swap2\n  swap1\n  pop\n  jump\t// out\n    /* \"#utility.yul\":955:1093   */\ntag_54:\n    /* \"#utility.yul\":1036:1068   */\n  tag_72\n    /* \"#utility.yul\":1062:1067   */\n  dup2\n    /* \"#utility.yul\":1036:1068   */\n  tag_53\n  jump\t// in\ntag_72:\n    /* \"#utility.yul\":1029:1034   */\n  dup2\n    /* \"#utility.yul\":1026:1069   */\n  eq\n    /* \"#utility.yul\":1016:1087   */\n  tag_73\n  jumpi\n    /* \"#utility.yul\":1083:1084   */\n  0x00\n    /* \"#utility.yul\":1080:1081   */\n  dup1\n    /* \"#utility.yul\":1073:1085   */\n  revert\n    /* \"#utility.yul\":1016:1087   */\ntag_73:\n    /* \"#utility.yul\":955:1093   */\n  pop\n  jump\t// out\n    /* \"#utility.yul\":1099:1258   */\ntag_55:\n    /* \"#utility.yul\":1164:1169   */\n  0x00\n    /* \"#utility.yul\":1195:1201   */\n  dup2\n    /* \"#utility.yul\":1189:1202   */\n  mload\n    /* \"#utility.yul\":1180:1202   */\n  swap1\n  pop\n    /* \"#utility.yul\":1211:1252   */\n  tag_75\n    /* \"#utility.yul\":1246:1251   */\n  dup2\n    /* \"#utility.yul\":1211:1252   */\n  tag_54\n  jump\t// in\ntag_75:\n    /* \"#utility.yul\":1099:1258   */\n  swap3\n  swap2\n  pop\n  pop\n  jump\t// out\n    /* \"#utility.yul\":1264:1943   */\ntag_3:\n    /* \"#utility.yul\":1360:1366   */\n  0x00\n    /* \"#utility.yul\":1368:1374   */\n  dup1\n    /* \"#utility.yul\":1376:1382   */\n  0x00\n    /* \"#utility.yul\":1425:1427   */\n  0x60\n    /* \"#utility.yul\":1413:1422   */\n  dup5\n    /* \"#utility.yul\":1404:1411   */\n  dup7\n    /* \"#utility.yul\":1400:1423   */\n  sub\n    /* \"#utility.yul\":1396:1428   */\n  slt\n    /* \"#utility.yul\":1393:1512   */\n  iszero\n  tag_77\n  jumpi\n    /* \"#utility.yul\":1431:1510   */\n  tag_78\n  tag_47\n  jump\t// in\ntag_78:\n    /* \"#utility.yul\":1393:1512   */\ntag_77:\n    /* \"#utility.yul\":1551:1552   */\n  0x00\n    /* \"#utility.yul\":1576:1640   */\n  tag_79\n    /* \"#utility.yul\":1632:1639   */\n  dup7\n    /* \"#utility.yul\":1623:1629   */\n  dup3\n    /* \"#utility.yul\":1612:1621   */\n  dup8\n    /* \"#utility.yul\":1608:1630   */\n  add\n    /* \"#utility.yul\":1576:1640   */\n  tag_52\n  jump\t// in\ntag_79:\n    /* \"#utility.yul\":1566:1640   */\n  swap4\n  pop\n    /* \"#utility.yul\":1522:1650   */\n  pop\n    /* \"#utility.yul\":1689:1691   */\n  0x20\n    /* \"#utility.yul\":1715:1779   */\n  tag_80\n    /* \"#utility.yul\":1771:1778   */\n  dup7\n    /* \"#utility.yul\":1762:1768   */\n  dup3\n    /* \"#utility.yul\":1751:1760   */\n  dup8\n    /* \"#utility.yul\":1747:1769   */\n  add\n    /* \"#utility.yul\":1715:1779   */\n  tag_52\n  jump\t// in\ntag_80:\n    /* \"#utility.yul\":1705:1779   */\n  swap3\n  pop\n    /* \"#utility.yul\":1660:1789   */\n  pop\n    /* \"#utility.yul\":1828:1830   */\n  0x40\n    /* \"#utility.yul\":1854:1926   */\n  tag_81\n    /* \"#utility.yul\":1918:1925   */\n  dup7\n    /* \"#utility.yul\":1909:1915   */\n  dup3\n    /* \"#utility.yul\":1898:1907   */\n  dup8\n    /* \"#utility.yul\":1894:1916   */\n  add\n    /* \"#utility.yul\":1854:1926   */\n  tag_55\n  jump\t// in\ntag_81:\n    /* \"#utility.yul\":1844:1926   */\n  swap2\n  pop\n    /* \"#utility.yul\":1799:1936   */\n  pop\n    /* \"#utility.yul\":1264:1943   */\n  swap3\n  pop\n  swap3\n  pop\n  swap3\n  jump\t// out\n    /* \"#utility.yul\":1949:2067   */\ntag_56:\n    /* \"#utility.yul\":2036:2060   */\n  tag_83\n    /* \"#utility.yul\":2054:2059   */\n  dup2\n    /* \"#utility.yul\":2036:2060   */\n  tag_50\n  jump\t// in\ntag_83:\n    /* \"#utility.yul\":2031:2034   */\n  dup3\n    /* \"#utility.yul\":2024:2061   */\n  mstore\n    /* \"#utility.yul\":1949:2067   */\n  pop\n  pop\n  jump\t// out\n    /* \"#utility.yul\":2073:2295   */\ntag_9:\n    /* \"#utility.yul\":2166:2170   */\n  0x00\n    /* \"#utility.yul\":2204:2206   */\n  0x20\n    /* \"#utility.yul\":2193:2202   */\n  dup3\n    /* \"#utility.yul\":2189:2207   */\n  add\n    /* \"#utility.yul\":2181:2207   */\n  swap1\n  pop\n    /* \"#utility.yul\":2217:2288   */\n  tag_85\n    /* \"#utility.yul\":2285:2286   */\n  0x00\n    /* \"#utility.yul\":2274:2283   */\n  dup4\n    /* \"#utility.yul\":2270:2287   */\n  add\n    /* \"#utility.yul\":2261:2267   */\n  dup5\n    /* \"#utility.yul\":2217:2288   */\n  tag_56\n  jump\t// in\ntag_85:\n    /* \"#utility.yul\":2073:2295   */\n  swap3\n  swap2\n  pop\n  pop\n  jump\t// out\n    /* \"#utility.yul\":2301:2481   */\ntag_20:\n    /* \"#utility.yul\":2349:2426   */\n  0x4e487b7100000000000000000000000000000000000000000000000000000000\n    /* \"#utility.yul\":2346:2347   */\n  0x00\n    /* \"#utility.yul\":2339:2427   */\n  mstore\n    /* \"#utility.yul\":2446:2450   */\n  0x32\n    /* \"#utility.yul\":2443:2444   */\n  0x04\n    /* \"#utility.yul\":2436:2451   */\n  mstore\n    /* \"#utility.yul\":2470:2474   */\n  0x24\n    /* \"#utility.yul\":2467:2468   */\n  0x00\n    /* \"#utility.yul\":2460:2475   */\n  revert\n    /* \"contracts/PreSale.sol\":1050:9077  contract GEPSPresale is Ownable {... */\ntag_15:\n  dataSize(sub_0)\n  dup1\n  dataOffset(sub_0)\n  0x00\n  codecopy\n  0x00\n  return\nstop\n\nsub_0: assembly {\n        /* \"contracts/PreSale.sol\":1050:9077  contract GEPSPresale is Ownable {... */\n      mstore(0x40, 0x80)\n      jumpi(tag_1, lt(calldatasize, 0x04))\n      shr(0xe0, calldataload(0x00))\n      dup1\n      0x6e14600f\n      gt\n      tag_28\n      jumpi\n      dup1\n      0x8da5cb5b\n      gt\n      tag_29\n      jumpi\n      dup1\n      0xe18132c4\n      gt\n      tag_30\n      jumpi\n      dup1\n      0xe18132c4\n      eq\n      tag_24\n      jumpi\n      dup1\n      0xeedbe31d\n      eq\n      tag_25\n      jumpi\n      dup1\n      0xf2fde38b\n      eq\n      tag_26\n      jumpi\n      dup1\n      0xf94f983a\n      eq\n      tag_27\n      jumpi\n      jump(tag_1)\n    tag_30:\n      dup1\n      0x8da5cb5b\n      eq\n      tag_21\n      jumpi\n      dup1\n      0x8e17c017\n      eq\n      tag_22\n      jumpi\n      dup1\n      0xa82524b2\n      eq\n      tag_23\n      jumpi\n      jump(tag_1)\n    tag_29:\n      dup1\n      0x6e14600f\n      eq\n      tag_15\n      jumpi\n      dup1\n      0x715018a6\n      eq\n      tag_16\n      jumpi\n      dup1\n      0x73b2e80e\n      eq\n      tag_17\n      jumpi\n      dup1\n      0x7e8558d7\n      eq\n      tag_18\n      jumpi\n      dup1\n      0x841e4561\n      eq\n      tag_19\n      jumpi\n      dup1\n      0x845ddcb2\n      eq\n      tag_20\n      jumpi\n      jump(tag_1)\n    tag_28:\n      dup1\n      0x3f957b0d\n      gt\n      tag_31\n      jumpi\n      dup1\n      0x59ac5e18\n      gt\n      tag_32\n      jumpi\n      dup1\n      0x59ac5e18\n      eq\n      tag_11\n      jumpi\n      dup1\n      0x5bf5d54c\n      eq\n      tag_12\n      jumpi\n      dup1\n      0x61d027b3\n      eq\n      tag_13\n      jumpi\n      dup1\n      0x67faa4b6\n      eq\n      tag_14\n      jumpi\n      jump(tag_1)\n    tag_32:\n      dup1\n      0x3f957b0d\n      eq\n      tag_8\n      jumpi\n      dup1\n      0x51f9efde\n      eq\n      tag_9\n      jumpi\n      dup1\n      0x54c4152e\n      eq\n      tag_10\n      jumpi\n      jump(tag_1)\n    tag_31:\n      dup1\n      0x04c98b2b\n      eq\n      tag_2\n      jumpi\n      dup1\n      0x1a8a63eb\n      eq\n      tag_3\n      jumpi\n      dup1\n      0x1c2dda48\n      eq\n      tag_4\n      jumpi\n      dup1\n      0x249b7c19\n      eq\n      tag_5\n      jumpi\n      dup1\n      0x3ca5b234\n      eq\n      tag_6\n      jumpi\n      dup1\n      0x3ea92d73\n      eq\n      tag_7\n      jumpi\n    tag_1:\n      0x00\n      dup1\n      revert\n        /* \"contracts/PreSale.sol\":4147:4503  function startPresale() external onlyOwner {... */\n    tag_2:\n      callvalue\n      dup1\n      iszero\n      tag_33\n      jumpi\n      0x00\n      dup1\n      revert\n    tag_33:\n      pop\n      tag_34\n      tag_35\n      jump\t// in\n    tag_34:\n      stop\n        /* \"contracts/PreSale.sol\":1686:1735  mapping(address => uint256) public purchasedGEPSs */\n    tag_3:\n      callvalue\n      dup1\n      iszero\n      tag_36\n      jumpi\n      0x00\n      dup1\n      revert\n    tag_36:\n      pop\n      tag_37\n      0x04\n      dup1\n      calldatasize\n      sub\n      dup2\n      add\n      swap1\n      tag_38\n      swap2\n      swap1\n      tag_39\n      jump\t// in\n    tag_38:\n      tag_40\n      jump\t// in\n    tag_37:\n      mload(0x40)\n      tag_41\n      swap2\n      swap1\n      tag_42\n      jump\t// in\n    tag_41:\n      mload(0x40)\n      dup1\n      swap2\n      sub\n      swap1\n      return\n        /* \"contracts/PreSale.sol\":1124:1142  IERC20 public GEPS */\n    tag_4:\n      callvalue\n      dup1\n      iszero\n      tag_43\n      jumpi\n      0x00\n      dup1\n      revert\n    tag_43:\n      pop\n      tag_44\n      tag_45\n      jump\t// in\n    tag_44:\n      mload(0x40)\n      tag_46\n      swap2\n      swap1\n      tag_47\n      jump\t// in\n    tag_46:\n      mload(0x40)\n      dup1\n      swap2\n      sub\n      swap1\n      return\n        /* \"contracts/PreSale.sol\":1650:1679  uint256 public presaleEndTime */\n    tag_5:\n      callvalue\n      dup1\n      iszero\n      tag_48\n      jumpi\n      0x00\n      dup1\n      revert\n    tag_48:\n      pop\n      tag_49\n      tag_50\n      jump\t// in\n    tag_49:\n      mload(0x40)\n      tag_51\n      swap2\n      swap1\n      tag_42\n      jump\t// in\n    tag_51:\n      mload(0x40)\n      dup1\n      swap2\n      sub\n      swap1\n      return\n        /* \"contracts/PreSale.sol\":1149:1167  IERC20 public busd */\n    tag_6:\n      callvalue\n      dup1\n      iszero\n      tag_52\n      jumpi\n      0x00\n      dup1\n      revert\n    tag_52:\n      pop\n      tag_53\n      tag_54\n      jump\t// in\n    tag_53:\n      mload(0x40)\n      tag_55\n      swap2\n      swap1\n      tag_47\n      jump\t// in\n    tag_55:\n      mload(0x40)\n      dup1\n      swap2\n      sub\n      swap1\n      return\n        /* \"contracts/PreSale.sol\":1240:1277  uint256 public constant MAX_STAGE = 9 */\n    tag_7:\n      callvalue\n      dup1\n      iszero\n      tag_56\n      jumpi\n      0x00\n      dup1\n      revert\n    tag_56:\n      pop\n      tag_57\n      tag_58\n      jump\t// in\n    tag_57:\n      mload(0x40)\n      tag_59\n      swap2\n      swap1\n      tag_42\n      jump\t// in\n    tag_59:\n      mload(0x40)\n      dup1\n      swap2\n      sub\n      swap1\n      return\n        /* \"contracts/PreSale.sol\":7536:8033  function claimGEPSs() external onlyAfterPresale {... */\n    tag_8:\n      callvalue\n      dup1\n      iszero\n      tag_60\n      jumpi\n      0x00\n      dup1\n      revert\n    tag_60:\n      pop\n      tag_61\n      tag_62\n      jump\t// in\n    tag_61:\n      stop\n        /* \"contracts/PreSale.sol\":1284:1328  uint256 public constant STAGE_DURATION = 120 */\n    tag_9:\n      callvalue\n      dup1\n      iszero\n      tag_63\n      jumpi\n      0x00\n      dup1\n      revert\n    tag_63:\n      pop\n      tag_64\n      tag_65\n      jump\t// in\n    tag_64:\n      mload(0x40)\n      tag_66\n      swap2\n      swap1\n      tag_42\n      jump\t// in\n    tag_66:\n      mload(0x40)\n      dup1\n      swap2\n      sub\n      swap1\n      return\n        /* \"contracts/PreSale.sol\":8309:8568  function getUnsoldGEPSs() public view returns (uint256) {... */\n    tag_10:\n      callvalue\n      dup1\n      iszero\n      tag_67\n      jumpi\n      0x00\n      dup1\n      revert\n    tag_67:\n      pop\n      tag_68\n      tag_69\n      jump\t// in\n    tag_68:\n      mload(0x40)\n      tag_70\n      swap2\n      swap1\n      tag_42\n      jump\t// in\n    tag_70:\n      mload(0x40)\n      dup1\n      swap2\n      sub\n      swap1\n      return\n        /* \"contracts/PreSale.sol\":6348:6696  function initialiseTokens(... */\n    tag_11:\n      callvalue\n      dup1\n      iszero\n      tag_71\n      jumpi\n      0x00\n      dup1\n      revert\n    tag_71:\n      pop\n      tag_72\n      0x04\n      dup1\n      calldatasize\n      sub\n      dup2\n      add\n      swap1\n      tag_73\n      swap2\n      swap1\n      tag_74\n      jump\t// in\n    tag_73:\n      tag_75\n      jump\t// in\n    tag_72:\n      stop\n        /* \"contracts/PreSale.sol\":1578:1605  uint256 public currentStage */\n    tag_12:\n      callvalue\n      dup1\n      iszero\n      tag_76\n      jumpi\n      0x00\n      dup1\n      revert\n    tag_76:\n      pop\n      tag_77\n      tag_78\n      jump\t// in\n    tag_77:\n      mload(0x40)\n      tag_79\n      swap2\n      swap1\n      tag_42\n      jump\t// in\n    tag_79:\n      mload(0x40)\n      dup1\n      swap2\n      sub\n      swap1\n      return\n        /* \"contracts/PreSale.sol\":1174:1197  address public treasury */\n    tag_13:\n      callvalue\n      dup1\n      iszero\n      tag_80\n      jumpi\n      0x00\n      dup1\n      revert\n    tag_80:\n      pop\n      tag_81\n      tag_82\n      jump\t// in\n    tag_81:\n      mload(0x40)\n      tag_83\n      swap2\n      swap1\n      tag_84\n      jump\t// in\n    tag_83:\n      mload(0x40)\n      dup1\n      swap2\n      sub\n      swap1\n      return\n        /* \"contracts/PreSale.sol\":4511:5937  function buyGEPS(uint256 amount, string memory currency) external payable {... */\n    tag_14:\n      tag_85\n      0x04\n      dup1\n      calldatasize\n      sub\n      dup2\n      add\n      swap1\n      tag_86\n      swap2\n      swap1\n      tag_87\n      jump\t// in\n    tag_86:\n      tag_88\n      jump\t// in\n    tag_85:\n      stop\n        /* \"contracts/PreSale.sol\":2499:2594  function setGEPSToken(address _geps) external onlyOwner {... */\n    tag_15:\n      callvalue\n      dup1\n      iszero\n      tag_89\n      jumpi\n      0x00\n      dup1\n      revert\n    tag_89:\n      pop\n      tag_90\n      0x04\n      dup1\n      calldatasize\n      sub\n      dup2\n      add\n      swap1\n      tag_91\n      swap2\n      swap1\n      tag_39\n      jump\t// in\n    tag_91:\n      tag_92\n      jump\t// in\n    tag_90:\n      stop\n        /* \"@openzeppelin/contracts/access/Ownable.sol\":2293:2394  function renounceOwnership() public virtual onlyOwner {... */\n    tag_16:\n      callvalue\n      dup1\n      iszero\n      tag_93\n      jumpi\n      0x00\n      dup1\n      revert\n    tag_93:\n      pop\n      tag_94\n      tag_95\n      jump\t// in\n    tag_94:\n      stop\n        /* \"contracts/PreSale.sol\":1742:1784  mapping(address => bool) public hasClaimed */\n    tag_17:\n      callvalue\n      dup1\n      iszero\n      tag_96\n      jumpi\n      0x00\n      dup1\n      revert\n    tag_96:\n      pop\n      tag_97\n      0x04\n      dup1\n      calldatasize\n      sub\n      dup2\n      add\n      swap1\n      tag_98\n      swap2\n      swap1\n      tag_39\n      jump\t// in\n    tag_98:\n      tag_99\n      jump\t// in\n    tag_97:\n      mload(0x40)\n      tag_100\n      swap2\n      swap1\n      tag_101\n      jump\t// in\n    tag_100:\n      mload(0x40)\n      dup1\n      swap2\n      sub\n      swap1\n      return\n        /* \"contracts/PreSale.sol\":6704:7253  function calculateCost(... */\n    tag_18:\n      callvalue\n      dup1\n      iszero\n      tag_102\n      jumpi\n      0x00\n      dup1\n      revert\n    tag_102:\n      pop\n      tag_103\n      0x04\n      dup1\n      calldatasize\n      sub\n      dup2\n      add\n      swap1\n      tag_104\n      swap2\n      swap1\n      tag_87\n      jump\t// in\n    tag_104:\n      tag_105\n      jump\t// in\n    tag_103:\n      mload(0x40)\n      tag_106\n      swap2\n      swap1\n      tag_107\n      jump\t// in\n    tag_106:\n      mload(0x40)\n      dup1\n      swap2\n      sub\n      swap1\n      return\n        /* \"contracts/PreSale.sol\":8576:8749  function updateTreasuryAddress(address newAddress) external onlyOwner {... */\n    tag_19:\n      callvalue\n      dup1\n      iszero\n      tag_108\n      jumpi\n      0x00\n      dup1\n      revert\n    tag_108:\n      pop\n      tag_109\n      0x04\n      dup1\n      calldatasize\n      sub\n      dup2\n      add\n      swap1\n      tag_110\n      swap2\n      swap1\n      tag_39\n      jump\t// in\n    tag_110:\n      tag_111\n      jump\t// in\n    tag_109:\n      stop\n        /* \"contracts/PreSale.sol\":1541:1571  Stage[MAX_STAGE] public stages */\n    tag_20:\n      callvalue\n      dup1\n      iszero\n      tag_112\n      jumpi\n      0x00\n      dup1\n      revert\n    tag_112:\n      pop\n      tag_113\n      0x04\n      dup1\n      calldatasize\n      sub\n      dup2\n      add\n      swap1\n      tag_114\n      swap2\n      swap1\n      tag_115\n      jump\t// in\n    tag_114:\n      tag_116\n      jump\t// in\n    tag_113:\n      mload(0x40)\n      tag_117\n      swap5\n      swap4\n      swap3\n      swap2\n      swap1\n      tag_118\n      jump\t// in\n    tag_117:\n      mload(0x40)\n      dup1\n      swap2\n      sub\n      swap1\n      return\n        /* \"@openzeppelin/contracts/access/Ownable.sol\":1638:1723  function owner() public view virtual returns (address) {... */\n    tag_21:\n      callvalue\n      dup1\n      iszero\n      tag_119\n      jumpi\n      0x00\n      dup1\n      revert\n    tag_119:\n      pop\n      tag_120\n      tag_121\n      jump\t// in\n    tag_120:\n      mload(0x40)\n      tag_122\n      swap2\n      swap1\n      tag_84\n      jump\t// in\n    tag_122:\n      mload(0x40)\n      dup1\n      swap2\n      sub\n      swap1\n      return\n        /* \"contracts/PreSale.sol\":8757:8969  function updatePresaleWallet(... */\n    tag_22:\n      callvalue\n      dup1\n      iszero\n      tag_123\n      jumpi\n      0x00\n      dup1\n      revert\n    tag_123:\n      pop\n      tag_124\n      0x04\n      dup1\n      calldatasize\n      sub\n      dup2\n      add\n      swap1\n      tag_125\n      swap2\n      swap1\n      tag_126\n      jump\t// in\n    tag_125:\n      tag_127\n      jump\t// in\n    tag_124:\n      stop\n        /* \"contracts/PreSale.sol\":1612:1643  uint256 public presaleStartTime */\n    tag_23:\n      callvalue\n      dup1\n      iszero\n      tag_128\n      jumpi\n      0x00\n      dup1\n      revert\n    tag_128:\n      pop\n      tag_129\n      tag_130\n      jump\t// in\n    tag_129:\n      mload(0x40)\n      tag_131\n      swap2\n      swap1\n      tag_42\n      jump\t// in\n    tag_131:\n      mload(0x40)\n      dup1\n      swap2\n      sub\n      swap1\n      return\n        /* \"contracts/PreSale.sol\":1335:1376  uint256 public constant CLAIM_DELAY = 300 */\n    tag_24:\n      callvalue\n      dup1\n      iszero\n      tag_132\n      jumpi\n      0x00\n      dup1\n      revert\n    tag_132:\n      pop\n      tag_133\n      tag_134\n      jump\t// in\n    tag_133:\n      mload(0x40)\n      tag_135\n      swap2\n      swap1\n      tag_42\n      jump\t// in\n    tag_135:\n      mload(0x40)\n      dup1\n      swap2\n      sub\n      swap1\n      return\n        /* \"contracts/PreSale.sol\":8977:9074  function getCurrentStage() external view returns (uint256) {... */\n    tag_25:\n      callvalue\n      dup1\n      iszero\n      tag_136\n      jumpi\n      0x00\n      dup1\n      revert\n    tag_136:\n      pop\n      tag_137\n      tag_138\n      jump\t// in\n    tag_137:\n      mload(0x40)\n      tag_139\n      swap2\n      swap1\n      tag_42\n      jump\t// in\n    tag_139:\n      mload(0x40)\n      dup1\n      swap2\n      sub\n      swap1\n      return\n        /* \"@openzeppelin/contracts/access/Ownable.sol\":2543:2758  function transferOwnership(address newOwner) public virtual onlyOwner {... */\n    tag_26:\n      callvalue\n      dup1\n      iszero\n      tag_140\n      jumpi\n      0x00\n      dup1\n      revert\n    tag_140:\n      pop\n      tag_141\n      0x04\n      dup1\n      calldatasize\n      sub\n      dup2\n      add\n      swap1\n      tag_142\n      swap2\n      swap1\n      tag_39\n      jump\t// in\n    tag_142:\n      tag_143\n      jump\t// in\n    tag_141:\n      stop\n        /* \"contracts/PreSale.sol\":1791:1837  mapping(string => address) public tokenOracles */\n    tag_27:\n      callvalue\n      dup1\n      iszero\n      tag_144\n      jumpi\n      0x00\n      dup1\n      revert\n    tag_144:\n      pop\n      tag_145\n      0x04\n      dup1\n      calldatasize\n      sub\n      dup2\n      add\n      swap1\n      tag_146\n      swap2\n      swap1\n      tag_147\n      jump\t// in\n    tag_146:\n      tag_148\n      jump\t// in\n    tag_145:\n      mload(0x40)\n      tag_149\n      swap2\n      swap1\n      tag_84\n      jump\t// in\n    tag_149:\n      mload(0x40)\n      dup1\n      swap2\n      sub\n      swap1\n      return\n        /* \"contracts/PreSale.sol\":4147:4503  function startPresale() external onlyOwner {... */\n    tag_35:\n        /* \"@openzeppelin/contracts/access/Ownable.sol\":1531:1544  _checkOwner() */\n      tag_151\n        /* \"@openzeppelin/contracts/access/Ownable.sol\":1531:1542  _checkOwner */\n      tag_152\n        /* \"@openzeppelin/contracts/access/Ownable.sol\":1531:1544  _checkOwner() */\n      jump\t// in\n    tag_151:\n        /* \"contracts/PreSale.sol\":4229:4230  0 */\n      0x00\n        /* \"contracts/PreSale.sol\":4209:4225  presaleStartTime */\n      sload(0x2a)\n        /* \"contracts/PreSale.sol\":4209:4230  presaleStartTime == 0 */\n      eq\n        /* \"contracts/PreSale.sol\":4201:4258  require(presaleStartTime == 0, \"Presale already started\") */\n      tag_154\n      jumpi\n      mload(0x40)\n      0x08c379a000000000000000000000000000000000000000000000000000000000\n      dup2\n      mstore\n      0x04\n      add\n      tag_155\n      swap1\n      tag_156\n      jump\t// in\n    tag_155:\n      mload(0x40)\n      dup1\n      swap2\n      sub\n      swap1\n      revert\n    tag_154:\n        /* \"contracts/PreSale.sol\":4288:4303  block.timestamp */\n      timestamp\n        /* \"contracts/PreSale.sol\":4269:4285  presaleStartTime */\n      0x2a\n        /* \"contracts/PreSale.sol\":4269:4303  presaleStartTime = block.timestamp */\n      dup2\n      swap1\n      sstore\n      pop\n        /* \"contracts/PreSale.sol\":4329:4330  0 */\n      0x00\n        /* \"contracts/PreSale.sol\":4314:4326  currentStage */\n      0x29\n        /* \"contracts/PreSale.sol\":4314:4330  currentStage = 0 */\n      dup2\n      swap1\n      sstore\n      pop\n        /* \"contracts/PreSale.sol\":4374:4389  block.timestamp */\n      timestamp\n        /* \"contracts/PreSale.sol\":4341:4347  stages */\n      0x05\n        /* \"contracts/PreSale.sol\":4348:4360  currentStage */\n      sload(0x29)\n        /* \"contracts/PreSale.sol\":4341:4361  stages[currentStage] */\n      0x09\n      dup2\n      lt\n      tag_157\n      jumpi\n      tag_158\n      tag_159\n      jump\t// in\n    tag_158:\n    tag_157:\n      0x04\n      mul\n      add\n        /* \"contracts/PreSale.sol\":4341:4371  stages[currentStage].startTime */\n      0x02\n      add\n        /* \"contracts/PreSale.sol\":4341:4389  stages[currentStage].startTime = block.timestamp */\n      dup2\n      swap1\n      sstore\n      pop\n        /* \"contracts/PreSale.sol\":1325:1328  120 */\n      0x78\n        /* \"contracts/PreSale.sol\":4431:4446  block.timestamp */\n      timestamp\n        /* \"contracts/PreSale.sol\":4431:4463  block.timestamp + STAGE_DURATION */\n      tag_161\n      swap2\n      swap1\n      tag_162\n      jump\t// in\n    tag_161:\n        /* \"contracts/PreSale.sol\":4400:4406  stages */\n      0x05\n        /* \"contracts/PreSale.sol\":4407:4419  currentStage */\n      sload(0x29)\n        /* \"contracts/PreSale.sol\":4400:4420  stages[currentStage] */\n      0x09\n      dup2\n      lt\n      tag_163\n      jumpi\n      tag_164\n      tag_159\n      jump\t// in\n    tag_164:\n    tag_163:\n      0x04\n      mul\n      add\n        /* \"contracts/PreSale.sol\":4400:4428  stages[currentStage].endTime */\n      0x03\n      add\n        /* \"contracts/PreSale.sol\":4400:4463  stages[currentStage].endTime = block.timestamp + STAGE_DURATION */\n      dup2\n      swap1\n      sstore\n      pop\n        /* \"contracts/PreSale.sol\":4479:4495  PresaleStarted() */\n      0x17c3338141363aab2512c08f8a7764328ca95979f7057663eb93f7e250139b4c\n      mload(0x40)\n      mload(0x40)\n      dup1\n      swap2\n      sub\n      swap1\n      log1\n        /* \"contracts/PreSale.sol\":4147:4503  function startPresale() external onlyOwner {... */\n      jump\t// out\n        /* \"contracts/PreSale.sol\":1686:1735  mapping(address => uint256) public purchasedGEPSs */\n    tag_40:\n      mstore(0x20, 0x2c)\n      dup1\n      0x00\n      mstore\n      keccak256(0x00, 0x40)\n      0x00\n      swap2\n      pop\n      swap1\n      pop\n      sload\n      dup2\n      jump\t// out\n        /* \"contracts/PreSale.sol\":1124:1142  IERC20 public GEPS */\n    tag_45:\n      0x01\n      0x00\n      swap1\n      sload\n      swap1\n      0x0100\n      exp\n      swap1\n      div\n      0xffffffffffffffffffffffffffffffffffffffff\n      and\n      dup2\n      jump\t// out\n        /* \"contracts/PreSale.sol\":1650:1679  uint256 public presaleEndTime */\n    tag_50:\n      sload(0x2b)\n      dup2\n      jump\t// out\n        /* \"contracts/PreSale.sol\":1149:1167  IERC20 public busd */\n    tag_54:\n      0x02\n      0x00\n      swap1\n      sload\n      swap1\n      0x0100\n      exp\n      swap1\n      div\n      0xffffffffffffffffffffffffffffffffffffffff\n      and\n      dup2\n      jump\t// out\n        /* \"contracts/PreSale.sol\":1240:1277  uint256 public constant MAX_STAGE = 9 */\n    tag_58:\n        /* \"contracts/PreSale.sol\":1276:1277  9 */\n      0x09\n        /* \"contracts/PreSale.sol\":1240:1277  uint256 public constant MAX_STAGE = 9 */\n      dup2\n      jump\t// out\n        /* \"contracts/PreSale.sol\":7536:8033  function claimGEPSs() external onlyAfterPresale {... */\n    tag_62:\n        /* \"contracts/PreSale.sol\":2429:2443  presaleEndTime */\n      sload(0x2b)\n        /* \"contracts/PreSale.sol\":2411:2426  block.timestamp */\n      timestamp\n        /* \"contracts/PreSale.sol\":2411:2443  block.timestamp > presaleEndTime */\n      gt\n        /* \"contracts/PreSale.sol\":2403:2471  require(block.timestamp > presaleEndTime, \"Presale is still active\") */\n      tag_167\n      jumpi\n      mload(0x40)\n      0x08c379a000000000000000000000000000000000000000000000000000000000\n      dup2\n      mstore\n      0x04\n      add\n      tag_168\n      swap1\n      tag_169\n      jump\t// in\n    tag_168:\n      mload(0x40)\n      dup1\n      swap2\n      sub\n      swap1\n      revert\n    tag_167:\n        /* \"contracts/PreSale.sol\":1373:1376  300 */\n      0x012c\n        /* \"contracts/PreSale.sol\":7635:7641  stages */\n      0x05\n        /* \"contracts/PreSale.sol\":7642:7643  8 */\n      0x08\n        /* \"contracts/PreSale.sol\":7635:7644  stages[8] */\n      0x09\n      dup2\n      lt\n      tag_171\n      jumpi\n      tag_172\n      tag_159\n      jump\t// in\n    tag_172:\n    tag_171:\n      0x04\n      mul\n      add\n        /* \"contracts/PreSale.sol\":7635:7652  stages[8].endTime */\n      0x03\n      add\n      sload\n        /* \"contracts/PreSale.sol\":7635:7666  stages[8].endTime + CLAIM_DELAY */\n      tag_174\n      swap2\n      swap1\n      tag_162\n      jump\t// in\n    tag_174:\n        /* \"contracts/PreSale.sol\":7617:7632  block.timestamp */\n      timestamp\n        /* \"contracts/PreSale.sol\":7617:7666  block.timestamp > stages[8].endTime + CLAIM_DELAY */\n      gt\n        /* \"contracts/PreSale.sol\":7595:7718  require(... */\n      tag_175\n      jumpi\n      mload(0x40)\n      0x08c379a000000000000000000000000000000000000000000000000000000000\n      dup2\n      mstore\n      0x04\n      add\n      tag_176\n      swap1\n      tag_177\n      jump\t// in\n    tag_176:\n      mload(0x40)\n      dup1\n      swap2\n      sub\n      swap1\n      revert\n    tag_175:\n        /* \"contracts/PreSale.sol\":7738:7748  hasClaimed */\n      0x2d\n        /* \"contracts/PreSale.sol\":7738:7760  hasClaimed[msg.sender] */\n      0x00\n        /* \"contracts/PreSale.sol\":7749:7759  msg.sender */\n      caller\n        /* \"contracts/PreSale.sol\":7738:7760  hasClaimed[msg.sender] */\n      0xffffffffffffffffffffffffffffffffffffffff\n      and\n      0xffffffffffffffffffffffffffffffffffffffff\n      and\n      dup2\n      mstore\n      0x20\n      add\n      swap1\n      dup2\n      mstore\n      0x20\n      add\n      0x00\n      keccak256\n      0x00\n      swap1\n      sload\n      swap1\n      0x0100\n      exp\n      swap1\n      div\n      0xff\n      and\n        /* \"contracts/PreSale.sol\":7737:7760  !hasClaimed[msg.sender] */\n      iszero\n        /* \"contracts/PreSale.sol\":7729:7786  require(!hasClaimed[msg.sender], \"GEPSs already claimed\") */\n      tag_178\n      jumpi\n      mload(0x40)\n      0x08c379a000000000000000000000000000000000000000000000000000000000\n      dup2\n      mstore\n      0x04\n      add\n      tag_179\n      swap1\n      tag_180\n      jump\t// in\n    tag_179:\n      mload(0x40)\n      dup1\n      swap2\n      sub\n      swap1\n      revert\n    tag_178:\n        /* \"contracts/PreSale.sol\":7797:7811  uint256 amount */\n      0x00\n        /* \"contracts/PreSale.sol\":7814:7828  purchasedGEPSs */\n      0x2c\n        /* \"contracts/PreSale.sol\":7814:7840  purchasedGEPSs[msg.sender] */\n      0x00\n        /* \"contracts/PreSale.sol\":7829:7839  msg.sender */\n      caller\n        /* \"contracts/PreSale.sol\":7814:7840  purchasedGEPSs[msg.sender] */\n      0xffffffffffffffffffffffffffffffffffffffff\n      and\n      0xffffffffffffffffffffffffffffffffffffffff\n      and\n      dup2\n      mstore\n      0x20\n      add\n      swap1\n      dup2\n      mstore\n      0x20\n      add\n      0x00\n      keccak256\n      sload\n        /* \"contracts/PreSale.sol\":7797:7840  uint256 amount = purchasedGEPSs[msg.sender] */\n      swap1\n      pop\n        /* \"contracts/PreSale.sol\":7868:7869  0 */\n      0x00\n        /* \"contracts/PreSale.sol\":7859:7865  amount */\n      dup2\n        /* \"contracts/PreSale.sol\":7859:7869  amount > 0 */\n      gt\n        /* \"contracts/PreSale.sol\":7851:7891  require(amount > 0, \"No GEPSs to claim\") */\n      tag_181\n      jumpi\n      mload(0x40)\n      0x08c379a000000000000000000000000000000000000000000000000000000000\n      dup2\n      mstore\n      0x04\n      add\n      tag_182\n      swap1\n      tag_183\n      jump\t// in\n    tag_182:\n      mload(0x40)\n      dup1\n      swap2\n      sub\n      swap1\n      revert\n    tag_181:\n        /* \"contracts/PreSale.sol\":7929:7933  true */\n      0x01\n        /* \"contracts/PreSale.sol\":7904:7914  hasClaimed */\n      0x2d\n        /* \"contracts/PreSale.sol\":7904:7926  hasClaimed[msg.sender] */\n      0x00\n        /* \"contracts/PreSale.sol\":7915:7925  msg.sender */\n      caller\n        /* \"contracts/PreSale.sol\":7904:7926  hasClaimed[msg.sender] */\n      0xffffffffffffffffffffffffffffffffffffffff\n      and\n      0xffffffffffffffffffffffffffffffffffffffff\n      and\n      dup2\n      mstore\n      0x20\n      add\n      swap1\n      dup2\n      mstore\n      0x20\n      add\n      0x00\n      keccak256\n      0x00\n        /* \"contracts/PreSale.sol\":7904:7933  hasClaimed[msg.sender] = true */\n      0x0100\n      exp\n      dup2\n      sload\n      dup2\n      0xff\n      mul\n      not\n      and\n      swap1\n      dup4\n      iszero\n      iszero\n      mul\n      or\n      swap1\n      sstore\n      pop\n        /* \"contracts/PreSale.sol\":7944:7948  GEPS */\n      0x01\n      0x00\n      swap1\n      sload\n      swap1\n      0x0100\n      exp\n      swap1\n      div\n      0xffffffffffffffffffffffffffffffffffffffff\n      and\n        /* \"contracts/PreSale.sol\":7944:7957  GEPS.transfer */\n      0xffffffffffffffffffffffffffffffffffffffff\n      and\n      0xa9059cbb\n        /* \"contracts/PreSale.sol\":7958:7968  msg.sender */\n      caller\n        /* \"contracts/PreSale.sol\":7970:7976  amount */\n      dup4\n        /* \"contracts/PreSale.sol\":7944:7977  GEPS.transfer(msg.sender, amount) */\n      mload(0x40)\n      dup4\n      0xffffffff\n      and\n      0xe0\n      shl\n      dup2\n      mstore\n      0x04\n      add\n      tag_184\n      swap3\n      swap2\n      swap1\n      tag_185\n      jump\t// in\n    tag_184:\n      0x20\n      mload(0x40)\n      dup1\n      dup4\n      sub\n      dup2\n      0x00\n      dup8\n      gas\n      call\n      iszero\n      dup1\n      iszero\n      tag_187\n      jumpi\n      returndatasize\n      0x00\n      dup1\n      returndatacopy\n      revert(0x00, returndatasize)\n    tag_187:\n      pop\n      pop\n      pop\n      pop\n      mload(0x40)\n      returndatasize\n      not(0x1f)\n      0x1f\n      dup3\n      add\n      and\n      dup3\n      add\n      dup1\n      0x40\n      mstore\n      pop\n      dup2\n      add\n      swap1\n      tag_188\n      swap2\n      swap1\n      tag_189\n      jump\t// in\n    tag_188:\n      pop\n        /* \"contracts/PreSale.sol\":8006:8016  msg.sender */\n      caller\n        /* \"contracts/PreSale.sol\":7993:8025  GEPSsClaimed(msg.sender, amount) */\n      0xffffffffffffffffffffffffffffffffffffffff\n      and\n      0x7a99cb7540e04f139e8bec2b914b561065e30819c986d0594db010eb76e23a2e\n        /* \"contracts/PreSale.sol\":8018:8024  amount */\n      dup3\n        /* \"contracts/PreSale.sol\":7993:8025  GEPSsClaimed(msg.sender, amount) */\n      mload(0x40)\n      tag_190\n      swap2\n      swap1\n      tag_42\n      jump\t// in\n    tag_190:\n      mload(0x40)\n      dup1\n      swap2\n      sub\n      swap1\n      log2\n        /* \"contracts/PreSale.sol\":7584:8033  {... */\n      pop\n        /* \"contracts/PreSale.sol\":7536:8033  function claimGEPSs() external onlyAfterPresale {... */\n      jump\t// out\n        /* \"contracts/PreSale.sol\":1284:1328  uint256 public constant STAGE_DURATION = 120 */\n    tag_65:\n        /* \"contracts/PreSale.sol\":1325:1328  120 */\n      0x78\n        /* \"contracts/PreSale.sol\":1284:1328  uint256 public constant STAGE_DURATION = 120 */\n      dup2\n      jump\t// out\n        /* \"contracts/PreSale.sol\":8309:8568  function getUnsoldGEPSs() public view returns (uint256) {... */\n    tag_69:\n        /* \"contracts/PreSale.sol\":8356:8363  uint256 */\n      0x00\n        /* \"contracts/PreSale.sol\":8376:8395  uint256 unsoldGEPSs */\n      dup1\n        /* \"contracts/PreSale.sol\":8398:8399  0 */\n      0x00\n        /* \"contracts/PreSale.sol\":8376:8399  uint256 unsoldGEPSs = 0 */\n      swap1\n      pop\n        /* \"contracts/PreSale.sol\":8415:8424  uint256 i */\n      0x00\n        /* \"contracts/PreSale.sol\":8410:8532  for (uint256 i = 0; i < MAX_STAGE; i++) {... */\n    tag_192:\n        /* \"contracts/PreSale.sol\":1276:1277  9 */\n      0x09\n        /* \"contracts/PreSale.sol\":8430:8431  i */\n      dup2\n        /* \"contracts/PreSale.sol\":8430:8443  i < MAX_STAGE */\n      lt\n        /* \"contracts/PreSale.sol\":8410:8532  for (uint256 i = 0; i < MAX_STAGE; i++) {... */\n      iszero\n      tag_193\n      jumpi\n        /* \"contracts/PreSale.sol\":8479:8520  unsoldGEPSs.add(stages[i].GEPSsAvailable) */\n      tag_195\n        /* \"contracts/PreSale.sol\":8495:8501  stages */\n      0x05\n        /* \"contracts/PreSale.sol\":8502:8503  i */\n      dup3\n        /* \"contracts/PreSale.sol\":8495:8504  stages[i] */\n      0x09\n      dup2\n      lt\n      tag_196\n      jumpi\n      tag_197\n      tag_159\n      jump\t// in\n    tag_197:\n    tag_196:\n      0x04\n      mul\n      add\n        /* \"contracts/PreSale.sol\":8495:8519  stages[i].GEPSsAvailable */\n      0x01\n      add\n      sload\n        /* \"contracts/PreSale.sol\":8479:8490  unsoldGEPSs */\n      dup4\n        /* \"contracts/PreSale.sol\":8479:8494  unsoldGEPSs.add */\n      tag_199\n      swap1\n        /* \"contracts/PreSale.sol\":8479:8520  unsoldGEPSs.add(stages[i].GEPSsAvailable) */\n      swap2\n      swap1\n      0xffffffff\n      and\n      jump\t// in\n    tag_195:\n        /* \"contracts/PreSale.sol\":8465:8520  unsoldGEPSs = unsoldGEPSs.add(stages[i].GEPSsAvailable) */\n      swap2\n      pop\n        /* \"contracts/PreSale.sol\":8445:8448  i++ */\n      dup1\n      dup1\n      0x01\n      add\n      swap2\n      pop\n      pop\n        /* \"contracts/PreSale.sol\":8410:8532  for (uint256 i = 0; i < MAX_STAGE; i++) {... */\n      jump(tag_192)\n    tag_193:\n      pop\n        /* \"contracts/PreSale.sol\":8549:8560  unsoldGEPSs */\n      dup1\n        /* \"contracts/PreSale.sol\":8542:8560  return unsoldGEPSs */\n      swap2\n      pop\n      pop\n        /* \"contracts/PreSale.sol\":8309:8568  function getUnsoldGEPSs() public view returns (uint256) {... */\n      swap1\n      jump\t// out\n        /* \"contracts/PreSale.sol\":6348:6696  function initialiseTokens(... */\n    tag_75:\n        /* \"@openzeppelin/contracts/access/Ownable.sol\":1531:1544  _checkOwner() */\n      tag_201\n        /* \"@openzeppelin/contracts/access/Ownable.sol\":1531:1542  _checkOwner */\n      tag_152\n        /* \"@openzeppelin/contracts/access/Ownable.sol\":1531:1544  _checkOwner() */\n      jump\t// in\n    tag_201:\n        /* \"contracts/PreSale.sol\":6523:6537  _oracleAddress */\n      dup2\n      dup2\n        /* \"contracts/PreSale.sol\":6523:6544  _oracleAddress.length */\n      swap1\n      pop\n        /* \"contracts/PreSale.sol\":6502:6512  _tokenName */\n      dup5\n      dup5\n        /* \"contracts/PreSale.sol\":6502:6519  _tokenName.length */\n      swap1\n      pop\n        /* \"contracts/PreSale.sol\":6502:6544  _tokenName.length == _oracleAddress.length */\n      eq\n        /* \"contracts/PreSale.sol\":6494:6556  require(_tokenName.length == _oracleAddress.length, \"PFCR:01\") */\n      tag_203\n      jumpi\n      mload(0x40)\n      0x08c379a000000000000000000000000000000000000000000000000000000000\n      dup2\n      mstore\n      0x04\n      add\n      tag_204\n      swap1\n      tag_205\n      jump\t// in\n    tag_204:\n      mload(0x40)\n      dup1\n      swap2\n      sub\n      swap1\n      revert\n    tag_203:\n        /* \"contracts/PreSale.sol\":6572:6581  uint256 i */\n      0x00\n        /* \"contracts/PreSale.sol\":6567:6689  for (uint256 i = 0; i < _tokenName.length; i++) {... */\n    tag_206:\n        /* \"contracts/PreSale.sol\":6591:6601  _tokenName */\n      dup5\n      dup5\n        /* \"contracts/PreSale.sol\":6591:6608  _tokenName.length */\n      swap1\n      pop\n        /* \"contracts/PreSale.sol\":6587:6588  i */\n      dup2\n        /* \"contracts/PreSale.sol\":6587:6608  i < _tokenName.length */\n      lt\n        /* \"contracts/PreSale.sol\":6567:6689  for (uint256 i = 0; i < _tokenName.length; i++) {... */\n      iszero\n      tag_207\n      jumpi\n        /* \"contracts/PreSale.sol\":6660:6674  _oracleAddress */\n      dup3\n      dup3\n        /* \"contracts/PreSale.sol\":6675:6676  i */\n      dup3\n        /* \"contracts/PreSale.sol\":6660:6677  _oracleAddress[i] */\n      dup2\n      dup2\n      lt\n      tag_209\n      jumpi\n      tag_210\n      tag_159\n      jump\t// in\n    tag_210:\n    tag_209:\n      swap1\n      pop\n      0x20\n      mul\n      add\n      0x20\n      dup2\n      add\n      swap1\n      tag_211\n      swap2\n      swap1\n      tag_39\n      jump\t// in\n    tag_211:\n        /* \"contracts/PreSale.sol\":6630:6642  tokenOracles */\n      0x2e\n        /* \"contracts/PreSale.sol\":6643:6653  _tokenName */\n      dup7\n      dup7\n        /* \"contracts/PreSale.sol\":6654:6655  i */\n      dup5\n        /* \"contracts/PreSale.sol\":6643:6656  _tokenName[i] */\n      dup2\n      dup2\n      lt\n      tag_212\n      jumpi\n      tag_213\n      tag_159\n      jump\t// in\n    tag_213:\n    tag_212:\n      swap1\n      pop\n      0x20\n      mul\n      dup2\n      add\n      swap1\n      tag_214\n      swap2\n      swap1\n      tag_215\n      jump\t// in\n    tag_214:\n        /* \"contracts/PreSale.sol\":6630:6657  tokenOracles[_tokenName[i]] */\n      mload(0x40)\n      tag_216\n      swap3\n      swap2\n      swap1\n      tag_217\n      jump\t// in\n    tag_216:\n      swap1\n      dup2\n      mstore\n      0x20\n      add\n      mload(0x40)\n      dup1\n      swap2\n      sub\n      swap1\n      keccak256\n      0x00\n        /* \"contracts/PreSale.sol\":6630:6677  tokenOracles[_tokenName[i]] = _oracleAddress[i] */\n      0x0100\n      exp\n      dup2\n      sload\n      dup2\n      0xffffffffffffffffffffffffffffffffffffffff\n      mul\n      not\n      and\n      swap1\n      dup4\n      0xffffffffffffffffffffffffffffffffffffffff\n      and\n      mul\n      or\n      swap1\n      sstore\n      pop\n        /* \"contracts/PreSale.sol\":6610:6613  i++ */\n      dup1\n      dup1\n      0x01\n      add\n      swap2\n      pop\n      pop\n        /* \"contracts/PreSale.sol\":6567:6689  for (uint256 i = 0; i < _tokenName.length; i++) {... */\n      jump(tag_206)\n    tag_207:\n      pop\n        /* \"contracts/PreSale.sol\":6348:6696  function initialiseTokens(... */\n      pop\n      pop\n      pop\n      pop\n      jump\t// out\n        /* \"contracts/PreSale.sol\":1578:1605  uint256 public currentStage */\n    tag_78:\n      sload(0x29)\n      dup2\n      jump\t// out\n        /* \"contracts/PreSale.sol\":1174:1197  address public treasury */\n    tag_82:\n      0x03\n      0x00\n      swap1\n      sload\n      swap1\n      0x0100\n      exp\n      swap1\n      div\n      0xffffffffffffffffffffffffffffffffffffffff\n      and\n      dup2\n      jump\t// out\n        /* \"contracts/PreSale.sol\":4511:5937  function buyGEPS(uint256 amount, string memory currency) external payable {... */\n    tag_88:\n        /* \"contracts/PreSale.sol\":4624:4625  0 */\n      0x00\n        /* \"contracts/PreSale.sol\":4604:4620  presaleStartTime */\n      sload(0x2a)\n        /* \"contracts/PreSale.sol\":4604:4625  presaleStartTime != 0 */\n      sub\n        /* \"contracts/PreSale.sol\":4596:4649  require(presaleStartTime != 0, \"Presale Not started\") */\n      tag_219\n      jumpi\n      mload(0x40)\n      0x08c379a000000000000000000000000000000000000000000000000000000000\n      dup2\n      mstore\n      0x04\n      add\n      tag_220\n      swap1\n      tag_221\n      jump\t// in\n    tag_220:\n      mload(0x40)\n      dup1\n      swap2\n      sub\n      swap1\n      revert\n    tag_219:\n        /* \"contracts/PreSale.sol\":4677:4678  0 */\n      0x00\n        /* \"contracts/PreSale.sol\":4668:4674  amount */\n      dup3\n        /* \"contracts/PreSale.sol\":4668:4678  amount > 0 */\n      gt\n        /* \"contracts/PreSale.sol\":4660:4715  require(amount > 0, \"Amount must be greater than zero\") */\n      tag_222\n      jumpi\n      mload(0x40)\n      0x08c379a000000000000000000000000000000000000000000000000000000000\n      dup2\n      mstore\n      0x04\n      add\n      tag_223\n      swap1\n      tag_224\n      jump\t// in\n    tag_223:\n      mload(0x40)\n      dup1\n      swap2\n      sub\n      swap1\n      revert\n    tag_222:\n        /* \"contracts/PreSale.sol\":4762:4777  block.timestamp */\n      timestamp\n        /* \"contracts/PreSale.sol\":4730:4736  stages */\n      0x05\n        /* \"contracts/PreSale.sol\":4737:4749  currentStage */\n      sload(0x29)\n        /* \"contracts/PreSale.sol\":4730:4750  stages[currentStage] */\n      0x09\n      dup2\n      lt\n      tag_225\n      jumpi\n      tag_226\n      tag_159\n      jump\t// in\n    tag_226:\n    tag_225:\n      0x04\n      mul\n      add\n        /* \"contracts/PreSale.sol\":4730:4758  stages[currentStage].endTime */\n      0x03\n      add\n      sload\n        /* \"contracts/PreSale.sol\":4730:4777  stages[currentStage].endTime <= block.timestamp */\n      gt\n        /* \"contracts/PreSale.sol\":4726:5002  if (stages[currentStage].endTime <= block.timestamp) {... */\n      tag_228\n      jumpi\n        /* \"contracts/PreSale.sol\":4814:4815  8 */\n      0x08\n        /* \"contracts/PreSale.sol\":4798:4810  currentStage */\n      sload(0x29)\n        /* \"contracts/PreSale.sol\":4798:4815  currentStage == 8 */\n      sub\n        /* \"contracts/PreSale.sol\":4794:4991  if (currentStage == 8) {... */\n      tag_229\n      jumpi\n        /* \"contracts/PreSale.sol\":4867:4882  block.timestamp */\n      timestamp\n        /* \"contracts/PreSale.sol\":4836:4842  stages */\n      0x05\n        /* \"contracts/PreSale.sol\":4843:4855  currentStage */\n      sload(0x29)\n        /* \"contracts/PreSale.sol\":4836:4856  stages[currentStage] */\n      0x09\n      dup2\n      lt\n      tag_230\n      jumpi\n      tag_231\n      tag_159\n      jump\t// in\n    tag_231:\n    tag_230:\n      0x04\n      mul\n      add\n        /* \"contracts/PreSale.sol\":4836:4864  stages[currentStage].endTime */\n      0x03\n      add\n        /* \"contracts/PreSale.sol\":4836:4882  stages[currentStage].endTime = block.timestamp */\n      dup2\n      swap1\n      sstore\n      pop\n        /* \"contracts/PreSale.sol\":4906:4920  PresaleEnded() */\n      0x1eb1561f8507eb9bc6988331f66f369e75710f2b4b678ad5b4a52454b6636f5f\n      mload(0x40)\n      mload(0x40)\n      dup1\n      swap2\n      sub\n      swap1\n      log1\n        /* \"contracts/PreSale.sol\":4794:4991  if (currentStage == 8) {... */\n      jump(tag_233)\n    tag_229:\n        /* \"contracts/PreSale.sol\":4961:4975  advanceStage() */\n      tag_234\n        /* \"contracts/PreSale.sol\":4961:4973  advanceStage */\n      tag_235\n        /* \"contracts/PreSale.sol\":4961:4975  advanceStage() */\n      jump\t// in\n    tag_234:\n        /* \"contracts/PreSale.sol\":4794:4991  if (currentStage == 8) {... */\n    tag_233:\n        /* \"contracts/PreSale.sol\":4726:5002  if (stages[currentStage].endTime <= block.timestamp) {... */\n    tag_228:\n        /* \"contracts/PreSale.sol\":5012:5024  uint256 cost */\n      0x00\n        /* \"contracts/PreSale.sol\":5032:5063  calculateCost(amount, currency) */\n      tag_236\n        /* \"contracts/PreSale.sol\":5046:5052  amount */\n      dup4\n        /* \"contracts/PreSale.sol\":5054:5062  currency */\n      dup4\n        /* \"contracts/PreSale.sol\":5032:5045  calculateCost */\n      tag_105\n        /* \"contracts/PreSale.sol\":5032:5063  calculateCost(amount, currency) */\n      jump\t// in\n    tag_236:\n        /* \"contracts/PreSale.sol\":5012:5064  uint256 cost = uint(calculateCost(amount, currency)) */\n      swap1\n      pop\n        /* \"contracts/PreSale.sol\":5119:5131  bytes(\"BNB\") */\n      mload(0x40)\n      dup1\n      0x40\n      add\n      0x40\n      mstore\n      dup1\n      0x03\n      dup2\n      mstore\n      0x20\n      add\n      0x424e420000000000000000000000000000000000000000000000000000000000\n      dup2\n      mstore\n      pop\n        /* \"contracts/PreSale.sol\":5109:5132  keccak256(bytes(\"BNB\")) */\n      dup1\n      mload\n      swap1\n      0x20\n      add\n      keccak256\n        /* \"contracts/PreSale.sol\":5095:5103  currency */\n      dup3\n        /* \"contracts/PreSale.sol\":5079:5105  keccak256(bytes(currency)) */\n      dup1\n      mload\n      swap1\n      0x20\n      add\n      keccak256\n        /* \"contracts/PreSale.sol\":5079:5132  keccak256(bytes(currency)) == keccak256(bytes(\"BNB\")) */\n      sub\n        /* \"contracts/PreSale.sol\":5075:5543  if (keccak256(bytes(currency)) == keccak256(bytes(\"BNB\"))) {... */\n      tag_237\n      jumpi\n        /* \"contracts/PreSale.sol\":5170:5174  cost */\n      dup1\n        /* \"contracts/PreSale.sol\":5157:5166  msg.value */\n      callvalue\n        /* \"contracts/PreSale.sol\":5157:5174  msg.value >= cost */\n      lt\n      iszero\n        /* \"contracts/PreSale.sol\":5149:5200  require(msg.value >= cost, \"Insufficient BNB sent\") */\n      tag_238\n      jumpi\n      mload(0x40)\n      0x08c379a000000000000000000000000000000000000000000000000000000000\n      dup2\n      mstore\n      0x04\n      add\n      tag_239\n      swap1\n      tag_240\n      jump\t// in\n    tag_239:\n      mload(0x40)\n      dup1\n      swap2\n      sub\n      swap1\n      revert\n    tag_238:\n        /* \"contracts/PreSale.sol\":5215:5228  presaleWallet */\n      0x04\n      0x00\n      swap1\n      sload\n      swap1\n      0x0100\n      exp\n      swap1\n      div\n      0xffffffffffffffffffffffffffffffffffffffff\n      and\n        /* \"contracts/PreSale.sol\":5215:5237  presaleWallet.transfer */\n      0xffffffffffffffffffffffffffffffffffffffff\n      and\n        /* \"contracts/PreSale.sol\":5215:5243  presaleWallet.transfer(cost) */\n      0x08fc\n        /* \"contracts/PreSale.sol\":5238:5242  cost */\n      dup3\n        /* \"contracts/PreSale.sol\":5215:5243  presaleWallet.transfer(cost) */\n      swap1\n      dup2\n      iszero\n      mul\n      swap1\n      mload(0x40)\n      0x00\n      mload(0x40)\n      dup1\n      dup4\n      sub\n      dup2\n      dup6\n      dup9\n      dup9\n      call\n      swap4\n      pop\n      pop\n      pop\n      pop\n      iszero\n      dup1\n      iszero\n      tag_242\n      jumpi\n      returndatasize\n      0x00\n      dup1\n      returndatacopy\n      revert(0x00, returndatasize)\n    tag_242:\n      pop\n        /* \"contracts/PreSale.sol\":5075:5543  if (keccak256(bytes(currency)) == keccak256(bytes(\"BNB\"))) {... */\n      jump(tag_243)\n    tag_237:\n        /* \"contracts/PreSale.sol\":5305:5318  bytes(\"BUSD\") */\n      mload(0x40)\n      dup1\n      0x40\n      add\n      0x40\n      mstore\n      dup1\n      0x04\n      dup2\n      mstore\n      0x20\n      add\n      0x4255534400000000000000000000000000000000000000000000000000000000\n      dup2\n      mstore\n      pop\n        /* \"contracts/PreSale.sol\":5295:5319  keccak256(bytes(\"BUSD\")) */\n      dup1\n      mload\n      swap1\n      0x20\n      add\n      keccak256\n        /* \"contracts/PreSale.sol\":5281:5289  currency */\n      dup3\n        /* \"contracts/PreSale.sol\":5265:5291  keccak256(bytes(currency)) */\n      dup1\n      mload\n      swap1\n      0x20\n      add\n      keccak256\n        /* \"contracts/PreSale.sol\":5265:5319  keccak256(bytes(currency)) == keccak256(bytes(\"BUSD\")) */\n      sub\n        /* \"contracts/PreSale.sol\":5261:5543  if (keccak256(bytes(currency)) == keccak256(bytes(\"BUSD\"))) {... */\n      tag_244\n      jumpi\n        /* \"contracts/PreSale.sol\":5362:5366  busd */\n      0x02\n      0x00\n      swap1\n      sload\n      swap1\n      0x0100\n      exp\n      swap1\n      div\n      0xffffffffffffffffffffffffffffffffffffffff\n      and\n        /* \"contracts/PreSale.sol\":5362:5379  busd.transferFrom */\n      0xffffffffffffffffffffffffffffffffffffffff\n      and\n      0x23b872dd\n        /* \"contracts/PreSale.sol\":5380:5390  msg.sender */\n      caller\n        /* \"contracts/PreSale.sol\":5392:5405  presaleWallet */\n      0x04\n      0x00\n      swap1\n      sload\n      swap1\n      0x0100\n      exp\n      swap1\n      div\n      0xffffffffffffffffffffffffffffffffffffffff\n      and\n        /* \"contracts/PreSale.sol\":5407:5411  cost */\n      dup5\n        /* \"contracts/PreSale.sol\":5362:5412  busd.transferFrom(msg.sender, presaleWallet, cost) */\n      mload(0x40)\n      dup5\n      0xffffffff\n      and\n      0xe0\n      shl\n      dup2\n      mstore\n      0x04\n      add\n      tag_245\n      swap4\n      swap3\n      swap2\n      swap1\n      tag_246\n      jump\t// in\n    tag_245:\n      0x20\n      mload(0x40)\n      dup1\n      dup4\n      sub\n      dup2\n      0x00\n      dup8\n      gas\n      call\n      iszero\n      dup1\n      iszero\n      tag_248\n      jumpi\n      returndatasize\n      0x00\n      dup1\n      returndatacopy\n      revert(0x00, returndatasize)\n    tag_248:\n      pop\n      pop\n      pop\n      pop\n      mload(0x40)\n      returndatasize\n      not(0x1f)\n      0x1f\n      dup3\n      add\n      and\n      dup3\n      add\n      dup1\n      0x40\n      mstore\n      pop\n      dup2\n      add\n      swap1\n      tag_249\n      swap2\n      swap1\n      tag_189\n      jump\t// in\n    tag_249:\n        /* \"contracts/PreSale.sol\":5336:5468  require(... */\n      tag_250\n      jumpi\n      mload(0x40)\n      0x08c379a000000000000000000000000000000000000000000000000000000000\n      dup2\n      mstore\n      0x04\n      add\n      tag_251\n      swap1\n      tag_252\n      jump\t// in\n    tag_251:\n      mload(0x40)\n      dup1\n      swap2\n      sub\n      swap1\n      revert\n    tag_250:\n        /* \"contracts/PreSale.sol\":5261:5543  if (keccak256(bytes(currency)) == keccak256(bytes(\"BUSD\"))) {... */\n      jump(tag_253)\n    tag_244:\n        /* \"contracts/PreSale.sol\":5501:5531  revert(\"Unsupported currency\") */\n      mload(0x40)\n      0x08c379a000000000000000000000000000000000000000000000000000000000\n      dup2\n      mstore\n      0x04\n      add\n      tag_254\n      swap1\n      tag_255\n      jump\t// in\n    tag_254:\n      mload(0x40)\n      dup1\n      swap2\n      sub\n      swap1\n      revert\n        /* \"contracts/PreSale.sol\":5261:5543  if (keccak256(bytes(currency)) == keccak256(bytes(\"BUSD\"))) {... */\n    tag_253:\n        /* \"contracts/PreSale.sol\":5075:5543  if (keccak256(bytes(currency)) == keccak256(bytes(\"BNB\"))) {... */\n    tag_243:\n        /* \"contracts/PreSale.sol\":5555:5588  allocateGEPSs(msg.sender, amount) */\n      tag_256\n        /* \"contracts/PreSale.sol\":5569:5579  msg.sender */\n      caller\n        /* \"contracts/PreSale.sol\":5581:5587  amount */\n      dup5\n        /* \"contracts/PreSale.sol\":5555:5568  allocateGEPSs */\n      tag_257\n        /* \"contracts/PreSale.sol\":5555:5588  allocateGEPSs(msg.sender, amount) */\n      jump\t// in\n    tag_256:\n        /* \"contracts/PreSale.sol\":5619:5629  msg.sender */\n      caller\n        /* \"contracts/PreSale.sol\":5604:5648  GEPSsPurchased(msg.sender, amount, currency) */\n      0xffffffffffffffffffffffffffffffffffffffff\n      and\n      0x97b8e46ce6a858394214fb0002594294805c68b044a2105798d860d0f922451a\n        /* \"contracts/PreSale.sol\":5631:5637  amount */\n      dup5\n        /* \"contracts/PreSale.sol\":5639:5647  currency */\n      dup5\n        /* \"contracts/PreSale.sol\":5604:5648  GEPSsPurchased(msg.sender, amount, currency) */\n      mload(0x40)\n      tag_258\n      swap3\n      swap2\n      swap1\n      tag_259\n      jump\t// in\n    tag_258:\n      mload(0x40)\n      dup1\n      swap2\n      sub\n      swap1\n      log2\n        /* \"contracts/PreSale.sol\":5704:5705  0 */\n      0x00\n        /* \"contracts/PreSale.sol\":5665:5671  stages */\n      0x05\n        /* \"contracts/PreSale.sol\":5672:5684  currentStage */\n      sload(0x29)\n        /* \"contracts/PreSale.sol\":5665:5685  stages[currentStage] */\n      0x09\n      dup2\n      lt\n      tag_260\n      jumpi\n      tag_261\n      tag_159\n      jump\t// in\n    tag_261:\n    tag_260:\n      0x04\n      mul\n      add\n        /* \"contracts/PreSale.sol\":5665:5700  stages[currentStage].GEPSsAvailable */\n      0x01\n      add\n      sload\n        /* \"contracts/PreSale.sol\":5665:5705  stages[currentStage].GEPSsAvailable == 0 */\n      sub\n        /* \"contracts/PreSale.sol\":5661:5930  if (stages[currentStage].GEPSsAvailable == 0) {... */\n      tag_263\n      jumpi\n        /* \"contracts/PreSale.sol\":5742:5743  8 */\n      0x08\n        /* \"contracts/PreSale.sol\":5726:5738  currentStage */\n      sload(0x29)\n        /* \"contracts/PreSale.sol\":5726:5743  currentStage == 8 */\n      sub\n        /* \"contracts/PreSale.sol\":5722:5919  if (currentStage == 8) {... */\n      tag_264\n      jumpi\n        /* \"contracts/PreSale.sol\":5795:5810  block.timestamp */\n      timestamp\n        /* \"contracts/PreSale.sol\":5764:5770  stages */\n      0x05\n        /* \"contracts/PreSale.sol\":5771:5783  currentStage */\n      sload(0x29)\n        /* \"contracts/PreSale.sol\":5764:5784  stages[currentStage] */\n      0x09\n      dup2\n      lt\n      tag_265\n      jumpi\n      tag_266\n      tag_159\n      jump\t// in\n    tag_266:\n    tag_265:\n      0x04\n      mul\n      add\n        /* \"contracts/PreSale.sol\":5764:5792  stages[currentStage].endTime */\n      0x03\n      add\n        /* \"contracts/PreSale.sol\":5764:5810  stages[currentStage].endTime = block.timestamp */\n      dup2\n      swap1\n      sstore\n      pop\n        /* \"contracts/PreSale.sol\":5834:5848  PresaleEnded() */\n      0x1eb1561f8507eb9bc6988331f66f369e75710f2b4b678ad5b4a52454b6636f5f\n      mload(0x40)\n      mload(0x40)\n      dup1\n      swap2\n      sub\n      swap1\n      log1\n        /* \"contracts/PreSale.sol\":5722:5919  if (currentStage == 8) {... */\n      jump(tag_268)\n    tag_264:\n        /* \"contracts/PreSale.sol\":5889:5903  advanceStage() */\n      tag_269\n        /* \"contracts/PreSale.sol\":5889:5901  advanceStage */\n      tag_235\n        /* \"contracts/PreSale.sol\":5889:5903  advanceStage() */\n      jump\t// in\n    tag_269:\n        /* \"contracts/PreSale.sol\":5722:5919  if (currentStage == 8) {... */\n    tag_268:\n        /* \"contracts/PreSale.sol\":5661:5930  if (stages[currentStage].GEPSsAvailable == 0) {... */\n    tag_263:\n        /* \"contracts/PreSale.sol\":4585:5937  {... */\n      pop\n        /* \"contracts/PreSale.sol\":4511:5937  function buyGEPS(uint256 amount, string memory currency) external payable {... */\n      pop\n      pop\n      jump\t// out\n        /* \"contracts/PreSale.sol\":2499:2594  function setGEPSToken(address _geps) external onlyOwner {... */\n    tag_92:\n        /* \"@openzeppelin/contracts/access/Ownable.sol\":1531:1544  _checkOwner() */\n      tag_271\n        /* \"@openzeppelin/contracts/access/Ownable.sol\":1531:1542  _checkOwner */\n      tag_152\n        /* \"@openzeppelin/contracts/access/Ownable.sol\":1531:1544  _checkOwner() */\n      jump\t// in\n    tag_271:\n        /* \"contracts/PreSale.sol\":2580:2585  _geps */\n      dup1\n        /* \"contracts/PreSale.sol\":2566:2570  GEPS */\n      0x01\n      0x00\n        /* \"contracts/PreSale.sol\":2566:2586  GEPS = IERC20(_geps) */\n      0x0100\n      exp\n      dup2\n      sload\n      dup2\n      0xffffffffffffffffffffffffffffffffffffffff\n      mul\n      not\n      and\n      swap1\n      dup4\n      0xffffffffffffffffffffffffffffffffffffffff\n      and\n      mul\n      or\n      swap1\n      sstore\n      pop\n        /* \"contracts/PreSale.sol\":2499:2594  function setGEPSToken(address _geps) external onlyOwner {... */\n      pop\n      jump\t// out\n        /* \"@openzeppelin/contracts/access/Ownable.sol\":2293:2394  function renounceOwnership() public virtual onlyOwner {... */\n    tag_95:\n        /* \"@openzeppelin/contracts/access/Ownable.sol\":1531:1544  _checkOwner() */\n      tag_274\n        /* \"@openzeppelin/contracts/access/Ownable.sol\":1531:1542  _checkOwner */\n      tag_152\n        /* \"@openzeppelin/contracts/access/Ownable.sol\":1531:1544  _checkOwner() */\n      jump\t// in\n    tag_274:\n        /* \"@openzeppelin/contracts/access/Ownable.sol\":2357:2387  _transferOwnership(address(0)) */\n      tag_276\n        /* \"@openzeppelin/contracts/access/Ownable.sol\":2384:2385  0 */\n      0x00\n        /* \"@openzeppelin/contracts/access/Ownable.sol\":2357:2375  _transferOwnership */\n      tag_277\n        /* \"@openzeppelin/contracts/access/Ownable.sol\":2357:2387  _transferOwnership(address(0)) */\n      jump\t// in\n    tag_276:\n        /* \"@openzeppelin/contracts/access/Ownable.sol\":2293:2394  function renounceOwnership() public virtual onlyOwner {... */\n      jump\t// out\n        /* \"contracts/PreSale.sol\":1742:1784  mapping(address => bool) public hasClaimed */\n    tag_99:\n      mstore(0x20, 0x2d)\n      dup1\n      0x00\n      mstore\n      keccak256(0x00, 0x40)\n      0x00\n      swap2\n      pop\n      sload\n      swap1\n      0x0100\n      exp\n      swap1\n      div\n      0xff\n      and\n      dup2\n      jump\t// out\n        /* \"contracts/PreSale.sol\":6704:7253  function calculateCost(... */\n    tag_105:\n        /* \"contracts/PreSale.sol\":6818:6824  int256 */\n      0x00\n        /* \"contracts/PreSale.sol\":6837:6860  uint256 totalPriceinUSD */\n      dup1\n        /* \"contracts/PreSale.sol\":6904:6907  100 */\n      0x64\n        /* \"contracts/PreSale.sol\":6863:6901  amount.mul(stages[currentStage].price) */\n      tag_279\n        /* \"contracts/PreSale.sol\":6874:6880  stages */\n      0x05\n        /* \"contracts/PreSale.sol\":6881:6893  currentStage */\n      sload(0x29)\n        /* \"contracts/PreSale.sol\":6874:6894  stages[currentStage] */\n      0x09\n      dup2\n      lt\n      tag_280\n      jumpi\n      tag_281\n      tag_159\n      jump\t// in\n    tag_281:\n    tag_280:\n      0x04\n      mul\n      add\n        /* \"contracts/PreSale.sol\":6874:6900  stages[currentStage].price */\n      0x00\n      add\n      sload\n        /* \"contracts/PreSale.sol\":6863:6869  amount */\n      dup7\n        /* \"contracts/PreSale.sol\":6863:6873  amount.mul */\n      tag_283\n      swap1\n        /* \"contracts/PreSale.sol\":6863:6901  amount.mul(stages[currentStage].price) */\n      swap2\n      swap1\n      0xffffffff\n      and\n      jump\t// in\n    tag_279:\n        /* \"contracts/PreSale.sol\":6863:6907  amount.mul(stages[currentStage].price) / 100 */\n      tag_284\n      swap2\n      swap1\n      tag_285\n      jump\t// in\n    tag_284:\n        /* \"contracts/PreSale.sol\":6837:6907  uint256 totalPriceinUSD = amount.mul(stages[currentStage].price) / 100 */\n      swap1\n      pop\n        /* \"contracts/PreSale.sol\":6918:6938  address _tokenOracle */\n      0x00\n        /* \"contracts/PreSale.sol\":6941:6953  tokenOracles */\n      0x2e\n        /* \"contracts/PreSale.sol\":6954:6967  _paymentToken */\n      dup5\n        /* \"contracts/PreSale.sol\":6941:6968  tokenOracles[_paymentToken] */\n      mload(0x40)\n      tag_286\n      swap2\n      swap1\n      tag_287\n      jump\t// in\n    tag_286:\n      swap1\n      dup2\n      mstore\n      0x20\n      add\n      mload(0x40)\n      dup1\n      swap2\n      sub\n      swap1\n      keccak256\n      0x00\n      swap1\n      sload\n      swap1\n      0x0100\n      exp\n      swap1\n      div\n      0xffffffffffffffffffffffffffffffffffffffff\n      and\n        /* \"contracts/PreSale.sol\":6918:6968  address _tokenOracle = tokenOracles[_paymentToken] */\n      swap1\n      pop\n        /* \"contracts/PreSale.sol\":6979:7009  AggregatorV3Interface dataFeed */\n      0x00\n        /* \"contracts/PreSale.sol\":7034:7046  _tokenOracle */\n      dup2\n        /* \"contracts/PreSale.sol\":6979:7047  AggregatorV3Interface dataFeed = AggregatorV3Interface(_tokenOracle) */\n      swap1\n      pop\n        /* \"contracts/PreSale.sol\":7061:7071  int answer */\n      0x00\n        /* \"contracts/PreSale.sol\":7081:7089  dataFeed */\n      dup2\n        /* \"contracts/PreSale.sol\":7081:7105  dataFeed.latestRoundData */\n      0xffffffffffffffffffffffffffffffffffffffff\n      and\n      0xfeaf968c\n        /* \"contracts/PreSale.sol\":7081:7107  dataFeed.latestRoundData() */\n      mload(0x40)\n      dup2\n      0xffffffff\n      and\n      0xe0\n      shl\n      dup2\n      mstore\n      0x04\n      add\n      0xa0\n      mload(0x40)\n      dup1\n      dup4\n      sub\n      dup2\n      dup7\n      gas\n      staticcall\n      iszero\n      dup1\n      iszero\n      tag_289\n      jumpi\n      returndatasize\n      0x00\n      dup1\n      returndatacopy\n      revert(0x00, returndatasize)\n    tag_289:\n      pop\n      pop\n      pop\n      pop\n      mload(0x40)\n      returndatasize\n      not(0x1f)\n      0x1f\n      dup3\n      add\n      and\n      dup3\n      add\n      dup1\n      0x40\n      mstore\n      pop\n      dup2\n      add\n      swap1\n      tag_290\n      swap2\n      swap1\n      tag_291\n      jump\t// in\n    tag_290:\n        /* \"contracts/PreSale.sol\":7058:7107  (, int answer, , , ) = dataFeed.latestRoundData() */\n      pop\n      pop\n      pop\n      swap2\n      pop\n      pop\n        /* \"contracts/PreSale.sol\":7118:7139  int pricePaymentToken */\n      0x00\n        /* \"contracts/PreSale.sol\":7200:7208  10 ** 10 */\n      0x02540be400\n        /* \"contracts/PreSale.sol\":7190:7196  answer */\n      dup3\n        /* \"contracts/PreSale.sol\":7190:7209  answer * (10 ** 10) */\n      tag_292\n      swap2\n      swap1\n      tag_293\n      jump\t// in\n    tag_292:\n        /* \"contracts/PreSale.sol\":7164:7172  10 ** 18 */\n      0x0de0b6b3a7640000\n        /* \"contracts/PreSale.sol\":7146:7161  totalPriceinUSD */\n      dup7\n        /* \"contracts/PreSale.sol\":7146:7172  totalPriceinUSD * 10 ** 18 */\n      tag_294\n      swap2\n      swap1\n      tag_295\n      jump\t// in\n    tag_294:\n        /* \"contracts/PreSale.sol\":7142:7210  int(totalPriceinUSD * 10 ** 18) /... */\n      tag_296\n      swap2\n      swap1\n      tag_297\n      jump\t// in\n    tag_296:\n        /* \"contracts/PreSale.sol\":7118:7210  int pricePaymentToken = int(totalPriceinUSD * 10 ** 18) /... */\n      swap1\n      pop\n        /* \"contracts/PreSale.sol\":7228:7245  pricePaymentToken */\n      dup1\n        /* \"contracts/PreSale.sol\":7221:7245  return pricePaymentToken */\n      swap6\n      pop\n      pop\n      pop\n      pop\n      pop\n      pop\n        /* \"contracts/PreSale.sol\":6704:7253  function calculateCost(... */\n      swap3\n      swap2\n      pop\n      pop\n      jump\t// out\n        /* \"contracts/PreSale.sol\":8576:8749  function updateTreasuryAddress(address newAddress) external onlyOwner {... */\n    tag_111:\n        /* \"@openzeppelin/contracts/access/Ownable.sol\":1531:1544  _checkOwner() */\n      tag_299\n        /* \"@openzeppelin/contracts/access/Ownable.sol\":1531:1542  _checkOwner */\n      tag_152\n        /* \"@openzeppelin/contracts/access/Ownable.sol\":1531:1544  _checkOwner() */\n      jump\t// in\n    tag_299:\n        /* \"contracts/PreSale.sol\":8687:8688  0 */\n      0x00\n        /* \"contracts/PreSale.sol\":8665:8689  newAddress != address(0) */\n      0xffffffffffffffffffffffffffffffffffffffff\n      and\n        /* \"contracts/PreSale.sol\":8665:8675  newAddress */\n      dup2\n        /* \"contracts/PreSale.sol\":8665:8689  newAddress != address(0) */\n      0xffffffffffffffffffffffffffffffffffffffff\n      and\n      sub\n        /* \"contracts/PreSale.sol\":8657:8709  require(newAddress != address(0), \"Invalid address\") */\n      tag_301\n      jumpi\n      mload(0x40)\n      0x08c379a000000000000000000000000000000000000000000000000000000000\n      dup2\n      mstore\n      0x04\n      add\n      tag_302\n      swap1\n      tag_303\n      jump\t// in\n    tag_302:\n      mload(0x40)\n      dup1\n      swap2\n      sub\n      swap1\n      revert\n    tag_301:\n        /* \"contracts/PreSale.sol\":8731:8741  newAddress */\n      dup1\n        /* \"contracts/PreSale.sol\":8720:8728  treasury */\n      0x03\n      0x00\n        /* \"contracts/PreSale.sol\":8720:8741  treasury = newAddress */\n      0x0100\n      exp\n      dup2\n      sload\n      dup2\n      0xffffffffffffffffffffffffffffffffffffffff\n      mul\n      not\n      and\n      swap1\n      dup4\n      0xffffffffffffffffffffffffffffffffffffffff\n      and\n      mul\n      or\n      swap1\n      sstore\n      pop\n        /* \"contracts/PreSale.sol\":8576:8749  function updateTreasuryAddress(address newAddress) external onlyOwner {... */\n      pop\n      jump\t// out\n        /* \"contracts/PreSale.sol\":1541:1571  Stage[MAX_STAGE] public stages */\n    tag_116:\n      0x05\n      dup2\n      0x09\n      dup2\n      lt\n      tag_304\n      jumpi\n      0x00\n      dup1\n      revert\n    tag_304:\n      0x04\n      mul\n      add\n      0x00\n      swap2\n      pop\n      swap1\n      pop\n      dup1\n      0x00\n      add\n      sload\n      swap1\n      dup1\n      0x01\n      add\n      sload\n      swap1\n      dup1\n      0x02\n      add\n      sload\n      swap1\n      dup1\n      0x03\n      add\n      sload\n      swap1\n      pop\n      dup5\n      jump\t// out\n        /* \"@openzeppelin/contracts/access/Ownable.sol\":1638:1723  function owner() public view virtual returns (address) {... */\n    tag_121:\n        /* \"@openzeppelin/contracts/access/Ownable.sol\":1684:1691  address */\n      0x00\n        /* \"@openzeppelin/contracts/access/Ownable.sol\":1710:1716  _owner */\n      dup1\n      0x00\n      swap1\n      sload\n      swap1\n      0x0100\n      exp\n      swap1\n      div\n      0xffffffffffffffffffffffffffffffffffffffff\n      and\n        /* \"@openzeppelin/contracts/access/Ownable.sol\":1703:1716  return _owner */\n      swap1\n      pop\n        /* \"@openzeppelin/contracts/access/Ownable.sol\":1638:1723  function owner() public view virtual returns (address) {... */\n      swap1\n      jump\t// out\n        /* \"contracts/PreSale.sol\":8757:8969  function updatePresaleWallet(... */\n    tag_127:\n        /* \"@openzeppelin/contracts/access/Ownable.sol\":1531:1544  _checkOwner() */\n      tag_308\n        /* \"@openzeppelin/contracts/access/Ownable.sol\":1531:1542  _checkOwner */\n      tag_152\n        /* \"@openzeppelin/contracts/access/Ownable.sol\":1531:1544  _checkOwner() */\n      jump\t// in\n    tag_308:\n        /* \"contracts/PreSale.sol\":8898:8899  0 */\n      0x00\n        /* \"contracts/PreSale.sol\":8872:8900  _presaleWallet != address(0) */\n      0xffffffffffffffffffffffffffffffffffffffff\n      and\n        /* \"contracts/PreSale.sol\":8872:8886  _presaleWallet */\n      dup2\n        /* \"contracts/PreSale.sol\":8872:8900  _presaleWallet != address(0) */\n      0xffffffffffffffffffffffffffffffffffffffff\n      and\n      sub\n        /* \"contracts/PreSale.sol\":8864:8920  require(_presaleWallet != address(0), \"Invalid address\") */\n      tag_310\n      jumpi\n      mload(0x40)\n      0x08c379a000000000000000000000000000000000000000000000000000000000\n      dup2\n      mstore\n      0x04\n      add\n      tag_311\n      swap1\n      tag_303\n      jump\t// in\n    tag_311:\n      mload(0x40)\n      dup1\n      swap2\n      sub\n      swap1\n      revert\n    tag_310:\n        /* \"contracts/PreSale.sol\":8947:8961  _presaleWallet */\n      dup1\n        /* \"contracts/PreSale.sol\":8931:8944  presaleWallet */\n      0x04\n      0x00\n        /* \"contracts/PreSale.sol\":8931:8961  presaleWallet = _presaleWallet */\n      0x0100\n      exp\n      dup2\n      sload\n      dup2\n      0xffffffffffffffffffffffffffffffffffffffff\n      mul\n      not\n      and\n      swap1\n      dup4\n      0xffffffffffffffffffffffffffffffffffffffff\n      and\n      mul\n      or\n      swap1\n      sstore\n      pop\n        /* \"contracts/PreSale.sol\":8757:8969  function updatePresaleWallet(... */\n      pop\n      jump\t// out\n        /* \"contracts/PreSale.sol\":1612:1643  uint256 public presaleStartTime */\n    tag_130:\n      sload(0x2a)\n      dup2\n      jump\t// out\n        /* \"contracts/PreSale.sol\":1335:1376  uint256 public constant CLAIM_DELAY = 300 */\n    tag_134:\n        /* \"contracts/PreSale.sol\":1373:1376  300 */\n      0x012c\n        /* \"contracts/PreSale.sol\":1335:1376  uint256 public constant CLAIM_DELAY = 300 */\n      dup2\n      jump\t// out\n        /* \"contracts/PreSale.sol\":8977:9074  function getCurrentStage() external view returns (uint256) {... */\n    tag_138:\n        /* \"contracts/PreSale.sol\":9027:9034  uint256 */\n      0x00\n        /* \"contracts/PreSale.sol\":9054:9066  currentStage */\n      sload(0x29)\n        /* \"contracts/PreSale.sol\":9047:9066  return currentStage */\n      swap1\n      pop\n        /* \"contracts/PreSale.sol\":8977:9074  function getCurrentStage() external view returns (uint256) {... */\n      swap1\n      jump\t// out\n        /* \"@openzeppelin/contracts/access/Ownable.sol\":2543:2758  function transferOwnership(address newOwner) public virtual onlyOwner {... */\n    tag_143:\n        /* \"@openzeppelin/contracts/access/Ownable.sol\":1531:1544  _checkOwner() */\n      tag_314\n        /* \"@openzeppelin/contracts/access/Ownable.sol\":1531:1542  _checkOwner */\n      tag_152\n        /* \"@openzeppelin/contracts/access/Ownable.sol\":1531:1544  _checkOwner() */\n      jump\t// in\n    tag_314:\n        /* \"@openzeppelin/contracts/access/Ownable.sol\":2647:2648  0 */\n      0x00\n        /* \"@openzeppelin/contracts/access/Ownable.sol\":2627:2649  newOwner == address(0) */\n      0xffffffffffffffffffffffffffffffffffffffff\n      and\n        /* \"@openzeppelin/contracts/access/Ownable.sol\":2627:2635  newOwner */\n      dup2\n        /* \"@openzeppelin/contracts/access/Ownable.sol\":2627:2649  newOwner == address(0) */\n      0xffffffffffffffffffffffffffffffffffffffff\n      and\n      sub\n        /* \"@openzeppelin/contracts/access/Ownable.sol\":2623:2714  if (newOwner == address(0)) {... */\n      tag_316\n      jumpi\n        /* \"@openzeppelin/contracts/access/Ownable.sol\":2700:2701  0 */\n      0x00\n        /* \"@openzeppelin/contracts/access/Ownable.sol\":2672:2703  OwnableInvalidOwner(address(0)) */\n      mload(0x40)\n      0x1e4fbdf700000000000000000000000000000000000000000000000000000000\n      dup2\n      mstore\n      0x04\n      add\n      tag_317\n      swap2\n      swap1\n      tag_84\n      jump\t// in\n    tag_317:\n      mload(0x40)\n      dup1\n      swap2\n      sub\n      swap1\n      revert\n        /* \"@openzeppelin/contracts/access/Ownable.sol\":2623:2714  if (newOwner == address(0)) {... */\n    tag_316:\n        /* \"@openzeppelin/contracts/access/Ownable.sol\":2723:2751  _transferOwnership(newOwner) */\n      tag_318\n        /* \"@openzeppelin/contracts/access/Ownable.sol\":2742:2750  newOwner */\n      dup2\n        /* \"@openzeppelin/contracts/access/Ownable.sol\":2723:2741  _transferOwnership */\n      tag_277\n        /* \"@openzeppelin/contracts/access/Ownable.sol\":2723:2751  _transferOwnership(newOwner) */\n      jump\t// in\n    tag_318:\n        /* \"@openzeppelin/contracts/access/Ownable.sol\":2543:2758  function transferOwnership(address newOwner) public virtual onlyOwner {... */\n      pop\n      jump\t// out\n        /* \"contracts/PreSale.sol\":1791:1837  mapping(string => address) public tokenOracles */\n    tag_148:\n      0x2e\n      dup2\n      dup1\n      mload\n      0x20\n      dup2\n      add\n      dup3\n      add\n      dup1\n      mload\n      dup5\n      dup3\n      mstore\n      0x20\n      dup4\n      add\n      0x20\n      dup6\n      add\n      keccak256\n      dup2\n      dup4\n      mstore\n      dup1\n      swap6\n      pop\n      pop\n      pop\n      pop\n      pop\n      pop\n      0x00\n      swap2\n      pop\n      sload\n      swap1\n      0x0100\n      exp\n      swap1\n      div\n      0xffffffffffffffffffffffffffffffffffffffff\n      and\n      dup2\n      jump\t// out\n        /* \"@openzeppelin/contracts/access/Ownable.sol\":1796:1958  function _checkOwner() internal view virtual {... */\n    tag_152:\n        /* \"@openzeppelin/contracts/access/Ownable.sol\":1866:1878  _msgSender() */\n      tag_320\n        /* \"@openzeppelin/contracts/access/Ownable.sol\":1866:1876  _msgSender */\n      tag_321\n        /* \"@openzeppelin/contracts/access/Ownable.sol\":1866:1878  _msgSender() */\n      jump\t// in\n    tag_320:\n        /* \"@openzeppelin/contracts/access/Ownable.sol\":1855:1878  owner() != _msgSender() */\n      0xffffffffffffffffffffffffffffffffffffffff\n      and\n        /* \"@openzeppelin/contracts/access/Ownable.sol\":1855:1862  owner() */\n      tag_322\n        /* \"@openzeppelin/contracts/access/Ownable.sol\":1855:1860  owner */\n      tag_121\n        /* \"@openzeppelin/contracts/access/Ownable.sol\":1855:1862  owner() */\n      jump\t// in\n    tag_322:\n        /* \"@openzeppelin/contracts/access/Ownable.sol\":1855:1878  owner() != _msgSender() */\n      0xffffffffffffffffffffffffffffffffffffffff\n      and\n      eq\n        /* \"@openzeppelin/contracts/access/Ownable.sol\":1851:1952  if (owner() != _msgSender()) {... */\n      tag_323\n      jumpi\n        /* \"@openzeppelin/contracts/access/Ownable.sol\":1928:1940  _msgSender() */\n      tag_324\n        /* \"@openzeppelin/contracts/access/Ownable.sol\":1928:1938  _msgSender */\n      tag_321\n        /* \"@openzeppelin/contracts/access/Ownable.sol\":1928:1940  _msgSender() */\n      jump\t// in\n    tag_324:\n        /* \"@openzeppelin/contracts/access/Ownable.sol\":1901:1941  OwnableUnauthorizedAccount(_msgSender()) */\n      mload(0x40)\n      0x118cdaa700000000000000000000000000000000000000000000000000000000\n      dup2\n      mstore\n      0x04\n      add\n      tag_325\n      swap2\n      swap1\n      tag_84\n      jump\t// in\n    tag_325:\n      mload(0x40)\n      dup1\n      swap2\n      sub\n      swap1\n      revert\n        /* \"@openzeppelin/contracts/access/Ownable.sol\":1851:1952  if (owner() != _msgSender()) {... */\n    tag_323:\n        /* \"@openzeppelin/contracts/access/Ownable.sol\":1796:1958  function _checkOwner() internal view virtual {... */\n      jump\t// out\n        /* \"@openzeppelin/contracts/utils/math/SafeMath.sol\":2755:2851  function add(uint256 a, uint256 b) internal pure returns (uint256) {... */\n    tag_199:\n        /* \"@openzeppelin/contracts/utils/math/SafeMath.sol\":2813:2820  uint256 */\n      0x00\n        /* \"@openzeppelin/contracts/utils/math/SafeMath.sol\":2843:2844  b */\n      dup2\n        /* \"@openzeppelin/contracts/utils/math/SafeMath.sol\":2839:2840  a */\n      dup4\n        /* \"@openzeppelin/contracts/utils/math/SafeMath.sol\":2839:2844  a + b */\n      tag_327\n      swap2\n      swap1\n      tag_162\n      jump\t// in\n    tag_327:\n        /* \"@openzeppelin/contracts/utils/math/SafeMath.sol\":2832:2844  return a + b */\n      swap1\n      pop\n        /* \"@openzeppelin/contracts/utils/math/SafeMath.sol\":2755:2851  function add(uint256 a, uint256 b) internal pure returns (uint256) {... */\n      swap3\n      swap2\n      pop\n      pop\n      jump\t// out\n        /* \"contracts/PreSale.sol\":7261:7528  function advanceStage() internal {... */\n    tag_235:\n        /* \"contracts/PreSale.sol\":7336:7337  1 */\n      0x01\n        /* \"contracts/PreSale.sol\":1276:1277  9 */\n      0x09\n        /* \"contracts/PreSale.sol\":7324:7337  MAX_STAGE - 1 */\n      tag_329\n      swap2\n      swap1\n      tag_330\n      jump\t// in\n    tag_329:\n        /* \"contracts/PreSale.sol\":7309:7321  currentStage */\n      sload(0x29)\n        /* \"contracts/PreSale.sol\":7309:7337  currentStage < MAX_STAGE - 1 */\n      lt\n        /* \"contracts/PreSale.sol\":7305:7521  if (currentStage < MAX_STAGE - 1) {... */\n      iszero\n      tag_331\n      jumpi\n        /* \"contracts/PreSale.sol\":7354:7366  currentStage */\n      0x29\n      0x00\n        /* \"contracts/PreSale.sol\":7354:7368  currentStage++ */\n      dup2\n      sload\n      dup1\n      swap3\n      swap2\n      swap1\n      tag_332\n      swap1\n      tag_333\n      jump\t// in\n    tag_332:\n      swap2\n      swap1\n      pop\n      sstore\n      pop\n        /* \"contracts/PreSale.sol\":7416:7431  block.timestamp */\n      timestamp\n        /* \"contracts/PreSale.sol\":7383:7389  stages */\n      0x05\n        /* \"contracts/PreSale.sol\":7390:7402  currentStage */\n      sload(0x29)\n        /* \"contracts/PreSale.sol\":7383:7403  stages[currentStage] */\n      0x09\n      dup2\n      lt\n      tag_334\n      jumpi\n      tag_335\n      tag_159\n      jump\t// in\n    tag_335:\n    tag_334:\n      0x04\n      mul\n      add\n        /* \"contracts/PreSale.sol\":7383:7413  stages[currentStage].startTime */\n      0x02\n      add\n        /* \"contracts/PreSale.sol\":7383:7431  stages[currentStage].startTime = block.timestamp */\n      dup2\n      swap1\n      sstore\n      pop\n        /* \"contracts/PreSale.sol\":1325:1328  120 */\n      0x78\n        /* \"contracts/PreSale.sol\":7477:7492  block.timestamp */\n      timestamp\n        /* \"contracts/PreSale.sol\":7477:7509  block.timestamp + STAGE_DURATION */\n      tag_337\n      swap2\n      swap1\n      tag_162\n      jump\t// in\n    tag_337:\n        /* \"contracts/PreSale.sol\":7446:7452  stages */\n      0x05\n        /* \"contracts/PreSale.sol\":7453:7465  currentStage */\n      sload(0x29)\n        /* \"contracts/PreSale.sol\":7446:7466  stages[currentStage] */\n      0x09\n      dup2\n      lt\n      tag_338\n      jumpi\n      tag_339\n      tag_159\n      jump\t// in\n    tag_339:\n    tag_338:\n      0x04\n      mul\n      add\n        /* \"contracts/PreSale.sol\":7446:7474  stages[currentStage].endTime */\n      0x03\n      add\n        /* \"contracts/PreSale.sol\":7446:7509  stages[currentStage].endTime = block.timestamp + STAGE_DURATION */\n      dup2\n      swap1\n      sstore\n      pop\n        /* \"contracts/PreSale.sol\":7305:7521  if (currentStage < MAX_STAGE - 1) {... */\n    tag_331:\n        /* \"contracts/PreSale.sol\":7261:7528  function advanceStage() internal {... */\n      jump\t// out\n        /* \"contracts/PreSale.sol\":5945:6340  function allocateGEPSs(address buyer, uint256 amount) internal {... */\n    tag_257:\n        /* \"contracts/PreSale.sol\":6080:6086  amount */\n      dup1\n        /* \"contracts/PreSale.sol\":6041:6047  stages */\n      0x05\n        /* \"contracts/PreSale.sol\":6048:6060  currentStage */\n      sload(0x29)\n        /* \"contracts/PreSale.sol\":6041:6061  stages[currentStage] */\n      0x09\n      dup2\n      lt\n      tag_342\n      jumpi\n      tag_343\n      tag_159\n      jump\t// in\n    tag_343:\n    tag_342:\n      0x04\n      mul\n      add\n        /* \"contracts/PreSale.sol\":6041:6076  stages[currentStage].GEPSsAvailable */\n      0x01\n      add\n      sload\n        /* \"contracts/PreSale.sol\":6041:6086  stages[currentStage].GEPSsAvailable >= amount */\n      lt\n      iszero\n        /* \"contracts/PreSale.sol\":6019:6140  require(... */\n      tag_345\n      jumpi\n      mload(0x40)\n      0x08c379a000000000000000000000000000000000000000000000000000000000\n      dup2\n      mstore\n      0x04\n      add\n      tag_346\n      swap1\n      tag_347\n      jump\t// in\n    tag_346:\n      mload(0x40)\n      dup1\n      swap2\n      sub\n      swap1\n      revert\n    tag_345:\n        /* \"contracts/PreSale.sol\":6189:6264  stages[currentStage]... */\n      tag_348\n        /* \"contracts/PreSale.sol\":6257:6263  amount */\n      dup2\n        /* \"contracts/PreSale.sol\":6189:6195  stages */\n      0x05\n        /* \"contracts/PreSale.sol\":6196:6208  currentStage */\n      sload(0x29)\n        /* \"contracts/PreSale.sol\":6189:6209  stages[currentStage] */\n      0x09\n      dup2\n      lt\n      tag_349\n      jumpi\n      tag_350\n      tag_159\n      jump\t// in\n    tag_350:\n    tag_349:\n      0x04\n      mul\n      add\n        /* \"contracts/PreSale.sol\":6189:6238  stages[currentStage]... */\n      0x01\n      add\n      sload\n        /* \"contracts/PreSale.sol\":6189:6256  stages[currentStage]... */\n      tag_352\n      swap1\n        /* \"contracts/PreSale.sol\":6189:6264  stages[currentStage]... */\n      swap2\n      swap1\n      0xffffffff\n      and\n      jump\t// in\n    tag_348:\n        /* \"contracts/PreSale.sol\":6151:6157  stages */\n      0x05\n        /* \"contracts/PreSale.sol\":6158:6170  currentStage */\n      sload(0x29)\n        /* \"contracts/PreSale.sol\":6151:6171  stages[currentStage] */\n      0x09\n      dup2\n      lt\n      tag_353\n      jumpi\n      tag_354\n      tag_159\n      jump\t// in\n    tag_354:\n    tag_353:\n      0x04\n      mul\n      add\n        /* \"contracts/PreSale.sol\":6151:6186  stages[currentStage].GEPSsAvailable */\n      0x01\n      add\n        /* \"contracts/PreSale.sol\":6151:6264  stages[currentStage].GEPSsAvailable = stages[currentStage]... */\n      dup2\n      swap1\n      sstore\n      pop\n        /* \"contracts/PreSale.sol\":6299:6332  purchasedGEPSs[buyer].add(amount) */\n      tag_356\n        /* \"contracts/PreSale.sol\":6325:6331  amount */\n      dup2\n        /* \"contracts/PreSale.sol\":6299:6313  purchasedGEPSs */\n      0x2c\n        /* \"contracts/PreSale.sol\":6299:6320  purchasedGEPSs[buyer] */\n      0x00\n        /* \"contracts/PreSale.sol\":6314:6319  buyer */\n      dup6\n        /* \"contracts/PreSale.sol\":6299:6320  purchasedGEPSs[buyer] */\n      0xffffffffffffffffffffffffffffffffffffffff\n      and\n      0xffffffffffffffffffffffffffffffffffffffff\n      and\n      dup2\n      mstore\n      0x20\n      add\n      swap1\n      dup2\n      mstore\n      0x20\n      add\n      0x00\n      keccak256\n      sload\n        /* \"contracts/PreSale.sol\":6299:6324  purchasedGEPSs[buyer].add */\n      tag_199\n      swap1\n        /* \"contracts/PreSale.sol\":6299:6332  purchasedGEPSs[buyer].add(amount) */\n      swap2\n      swap1\n      0xffffffff\n      and\n      jump\t// in\n    tag_356:\n        /* \"contracts/PreSale.sol\":6275:6289  purchasedGEPSs */\n      0x2c\n        /* \"contracts/PreSale.sol\":6275:6296  purchasedGEPSs[buyer] */\n      0x00\n        /* \"contracts/PreSale.sol\":6290:6295  buyer */\n      dup5\n        /* \"contracts/PreSale.sol\":6275:6296  purchasedGEPSs[buyer] */\n      0xffffffffffffffffffffffffffffffffffffffff\n      and\n      0xffffffffffffffffffffffffffffffffffffffff\n      and\n      dup2\n      mstore\n      0x20\n      add\n      swap1\n      dup2\n      mstore\n      0x20\n      add\n      0x00\n      keccak256\n        /* \"contracts/PreSale.sol\":6275:6332  purchasedGEPSs[buyer] = purchasedGEPSs[buyer].add(amount) */\n      dup2\n      swap1\n      sstore\n      pop\n        /* \"contracts/PreSale.sol\":5945:6340  function allocateGEPSs(address buyer, uint256 amount) internal {... */\n      pop\n      pop\n      jump\t// out\n        /* \"@openzeppelin/contracts/access/Ownable.sol\":2912:3099  function _transferOwnership(address newOwner) internal virtual {... */\n    tag_277:\n        /* \"@openzeppelin/contracts/access/Ownable.sol\":2985:3001  address oldOwner */\n      0x00\n        /* \"@openzeppelin/contracts/access/Ownable.sol\":3004:3010  _owner */\n      dup1\n      0x00\n      swap1\n      sload\n      swap1\n      0x0100\n      exp\n      swap1\n      div\n      0xffffffffffffffffffffffffffffffffffffffff\n      and\n        /* \"@openzeppelin/contracts/access/Ownable.sol\":2985:3010  address oldOwner = _owner */\n      swap1\n      pop\n        /* \"@openzeppelin/contracts/access/Ownable.sol\":3029:3037  newOwner */\n      dup2\n        /* \"@openzeppelin/contracts/access/Ownable.sol\":3020:3026  _owner */\n      0x00\n      dup1\n        /* \"@openzeppelin/contracts/access/Ownable.sol\":3020:3037  _owner = newOwner */\n      0x0100\n      exp\n      dup2\n      sload\n      dup2\n      0xffffffffffffffffffffffffffffffffffffffff\n      mul\n      not\n      and\n      swap1\n      dup4\n      0xffffffffffffffffffffffffffffffffffffffff\n      and\n      mul\n      or\n      swap1\n      sstore\n      pop\n        /* \"@openzeppelin/contracts/access/Ownable.sol\":3083:3091  newOwner */\n      dup2\n        /* \"@openzeppelin/contracts/access/Ownable.sol\":3052:3092  OwnershipTransferred(oldOwner, newOwner) */\n      0xffffffffffffffffffffffffffffffffffffffff\n      and\n        /* \"@openzeppelin/contracts/access/Ownable.sol\":3073:3081  oldOwner */\n      dup2\n        /* \"@openzeppelin/contracts/access/Ownable.sol\":3052:3092  OwnershipTransferred(oldOwner, newOwner) */\n      0xffffffffffffffffffffffffffffffffffffffff\n      and\n      0x8be0079c531659141344cd1fd0a4f28419497f9722a3daafe3b4186f6b6457e0\n      mload(0x40)\n      mload(0x40)\n      dup1\n      swap2\n      sub\n      swap1\n      log3\n        /* \"@openzeppelin/contracts/access/Ownable.sol\":2975:3099  {... */\n      pop\n        /* \"@openzeppelin/contracts/access/Ownable.sol\":2912:3099  function _transferOwnership(address newOwner) internal virtual {... */\n      pop\n      jump\t// out\n        /* \"@openzeppelin/contracts/utils/math/SafeMath.sol\":3465:3561  function mul(uint256 a, uint256 b) internal pure returns (uint256) {... */\n    tag_283:\n        /* \"@openzeppelin/contracts/utils/math/SafeMath.sol\":3523:3530  uint256 */\n      0x00\n        /* \"@openzeppelin/contracts/utils/math/SafeMath.sol\":3553:3554  b */\n      dup2\n        /* \"@openzeppelin/contracts/utils/math/SafeMath.sol\":3549:3550  a */\n      dup4\n        /* \"@openzeppelin/contracts/utils/math/SafeMath.sol\":3549:3554  a * b */\n      tag_359\n      swap2\n      swap1\n      tag_295\n      jump\t// in\n    tag_359:\n        /* \"@openzeppelin/contracts/utils/math/SafeMath.sol\":3542:3554  return a * b */\n      swap1\n      pop\n        /* \"@openzeppelin/contracts/utils/math/SafeMath.sol\":3465:3561  function mul(uint256 a, uint256 b) internal pure returns (uint256) {... */\n      swap3\n      swap2\n      pop\n      pop\n      jump\t// out\n        /* \"@openzeppelin/contracts/utils/Context.sol\":656:752  function _msgSender() internal view virtual returns (address) {... */\n    tag_321:\n        /* \"@openzeppelin/contracts/utils/Context.sol\":709:716  address */\n      0x00\n        /* \"@openzeppelin/contracts/utils/Context.sol\":735:745  msg.sender */\n      caller\n        /* \"@openzeppelin/contracts/utils/Context.sol\":728:745  return msg.sender */\n      swap1\n      pop\n        /* \"@openzeppelin/contracts/utils/Context.sol\":656:752  function _msgSender() internal view virtual returns (address) {... */\n      swap1\n      jump\t// out\n        /* \"@openzeppelin/contracts/utils/math/SafeMath.sol\":3122:3218  function sub(uint256 a, uint256 b) internal pure returns (uint256) {... */\n    tag_352:\n        /* \"@openzeppelin/contracts/utils/math/SafeMath.sol\":3180:3187  uint256 */\n      0x00\n        /* \"@openzeppelin/contracts/utils/math/SafeMath.sol\":3210:3211  b */\n      dup2\n        /* \"@openzeppelin/contracts/utils/math/SafeMath.sol\":3206:3207  a */\n      dup4\n        /* \"@openzeppelin/contracts/utils/math/SafeMath.sol\":3206:3211  a - b */\n      tag_362\n      swap2\n      swap1\n      tag_330\n      jump\t// in\n    tag_362:\n        /* \"@openzeppelin/contracts/utils/math/SafeMath.sol\":3199:3211  return a - b */\n      swap1\n      pop\n        /* \"@openzeppelin/contracts/utils/math/SafeMath.sol\":3122:3218  function sub(uint256 a, uint256 b) internal pure returns (uint256) {... */\n      swap3\n      swap2\n      pop\n      pop\n      jump\t// out\n        /* \"#utility.yul\":7:82   */\n    tag_363:\n        /* \"#utility.yul\":40:46   */\n      0x00\n        /* \"#utility.yul\":73:75   */\n      0x40\n        /* \"#utility.yul\":67:76   */\n      mload\n        /* \"#utility.yul\":57:76   */\n      swap1\n      pop\n        /* \"#utility.yul\":7:82   */\n      swap1\n      jump\t// out\n        /* \"#utility.yul\":88:205   */\n    tag_364:\n        /* \"#utility.yul\":197:198   */\n      0x00\n        /* \"#utility.yul\":194:195   */\n      dup1\n        /* \"#utility.yul\":187:199   */\n      revert\n        /* \"#utility.yul\":211:328   */\n    tag_365:\n        /* \"#utility.yul\":320:321   */\n      0x00\n        /* \"#utility.yul\":317:318   */\n      dup1\n        /* \"#utility.yul\":310:322   */\n      revert\n        /* \"#utility.yul\":334:460   */\n    tag_366:\n        /* \"#utility.yul\":371:378   */\n      0x00\n        /* \"#utility.yul\":411:453   */\n      0xffffffffffffffffffffffffffffffffffffffff\n        /* \"#utility.yul\":404:409   */\n      dup3\n        /* \"#utility.yul\":400:454   */\n      and\n        /* \"#utility.yul\":389:454   */\n      swap1\n      pop\n        /* \"#utility.yul\":334:460   */\n      swap2\n      swap1\n      pop\n      jump\t// out\n        /* \"#utility.yul\":466:562   */\n    tag_367:\n        /* \"#utility.yul\":503:510   */\n      0x00\n        /* \"#utility.yul\":532:556   */\n      tag_455\n        /* \"#utility.yul\":550:555   */\n      dup3\n        /* \"#utility.yul\":532:556   */\n      tag_366\n      jump\t// in\n    tag_455:\n        /* \"#utility.yul\":521:556   */\n      swap1\n      pop\n        /* \"#utility.yul\":466:562   */\n      swap2\n      swap1\n      pop\n      jump\t// out\n        /* \"#utility.yul\":568:690   */\n    tag_368:\n        /* \"#utility.yul\":641:665   */\n      tag_457\n        /* \"#utility.yul\":659:664   */\n      dup2\n        /* \"#utility.yul\":641:665   */\n      tag_367\n      jump\t// in\n    tag_457:\n        /* \"#utility.yul\":634:639   */\n      dup2\n        /* \"#utility.yul\":631:666   */\n      eq\n        /* \"#utility.yul\":621:684   */\n      tag_458\n      jumpi\n        /* \"#utility.yul\":680:681   */\n      0x00\n        /* \"#utility.yul\":677:678   */\n      dup1\n        /* \"#utility.yul\":670:682   */\n      revert\n        /* \"#utility.yul\":621:684   */\n    tag_458:\n        /* \"#utility.yul\":568:690   */\n      pop\n      jump\t// out\n        /* \"#utility.yul\":696:835   */\n    tag_369:\n        /* \"#utility.yul\":742:747   */\n      0x00\n        /* \"#utility.yul\":780:786   */\n      dup2\n        /* \"#utility.yul\":767:787   */\n      calldataload\n        /* \"#utility.yul\":758:787   */\n      swap1\n      pop\n        /* \"#utility.yul\":796:829   */\n      tag_460\n        /* \"#utility.yul\":823:828   */\n      dup2\n        /* \"#utility.yul\":796:829   */\n      tag_368\n      jump\t// in\n    tag_460:\n        /* \"#utility.yul\":696:835   */\n      swap3\n      swap2\n      pop\n      pop\n      jump\t// out\n        /* \"#utility.yul\":841:1170   */\n    tag_39:\n        /* \"#utility.yul\":900:906   */\n      0x00\n        /* \"#utility.yul\":949:951   */\n      0x20\n        /* \"#utility.yul\":937:946   */\n      dup3\n        /* \"#utility.yul\":928:935   */\n      dup5\n        /* \"#utility.yul\":924:947   */\n      sub\n        /* \"#utility.yul\":920:952   */\n      slt\n        /* \"#utility.yul\":917:1036   */\n      iszero\n      tag_462\n      jumpi\n        /* \"#utility.yul\":955:1034   */\n      tag_463\n      tag_364\n      jump\t// in\n    tag_463:\n        /* \"#utility.yul\":917:1036   */\n    tag_462:\n        /* \"#utility.yul\":1075:1076   */\n      0x00\n        /* \"#utility.yul\":1100:1153   */\n      tag_464\n        /* \"#utility.yul\":1145:1152   */\n      dup5\n        /* \"#utility.yul\":1136:1142   */\n      dup3\n        /* \"#utility.yul\":1125:1134   */\n      dup6\n        /* \"#utility.yul\":1121:1143   */\n      add\n        /* \"#utility.yul\":1100:1153   */\n      tag_369\n      jump\t// in\n    tag_464:\n        /* \"#utility.yul\":1090:1153   */\n      swap2\n      pop\n        /* \"#utility.yul\":1046:1163   */\n      pop\n        /* \"#utility.yul\":841:1170   */\n      swap3\n      swap2\n      pop\n      pop\n      jump\t// out\n        /* \"#utility.yul\":1176:1253   */\n    tag_370:\n        /* \"#utility.yul\":1213:1220   */\n      0x00\n        /* \"#utility.yul\":1242:1247   */\n      dup2\n        /* \"#utility.yul\":1231:1247   */\n      swap1\n      pop\n        /* \"#utility.yul\":1176:1253   */\n      swap2\n      swap1\n      pop\n      jump\t// out\n        /* \"#utility.yul\":1259:1377   */\n    tag_371:\n        /* \"#utility.yul\":1346:1370   */\n      tag_467\n        /* \"#utility.yul\":1364:1369   */\n      dup2\n        /* \"#utility.yul\":1346:1370   */\n      tag_370\n      jump\t// in\n    tag_467:\n        /* \"#utility.yul\":1341:1344   */\n      dup3\n        /* \"#utility.yul\":1334:1371   */\n      mstore\n        /* \"#utility.yul\":1259:1377   */\n      pop\n      pop\n      jump\t// out\n        /* \"#utility.yul\":1383:1605   */\n    tag_42:\n        /* \"#utility.yul\":1476:1480   */\n      0x00\n        /* \"#utility.yul\":1514:1516   */\n      0x20\n        /* \"#utility.yul\":1503:1512   */\n      dup3\n        /* \"#utility.yul\":1499:1517   */\n      add\n        /* \"#utility.yul\":1491:1517   */\n      swap1\n      pop\n        /* \"#utility.yul\":1527:1598   */\n      tag_469\n        /* \"#utility.yul\":1595:1596   */\n      0x00\n        /* \"#utility.yul\":1584:1593   */\n      dup4\n        /* \"#utility.yul\":1580:1597   */\n      add\n        /* \"#utility.yul\":1571:1577   */\n      dup5\n        /* \"#utility.yul\":1527:1598   */\n      tag_371\n      jump\t// in\n    tag_469:\n        /* \"#utility.yul\":1383:1605   */\n      swap3\n      swap2\n      pop\n      pop\n      jump\t// out\n        /* \"#utility.yul\":1611:1671   */\n    tag_372:\n        /* \"#utility.yul\":1639:1642   */\n      0x00\n        /* \"#utility.yul\":1660:1665   */\n      dup2\n        /* \"#utility.yul\":1653:1665   */\n      swap1\n      pop\n        /* \"#utility.yul\":1611:1671   */\n      swap2\n      swap1\n      pop\n      jump\t// out\n        /* \"#utility.yul\":1677:1819   */\n    tag_373:\n        /* \"#utility.yul\":1727:1736   */\n      0x00\n        /* \"#utility.yul\":1760:1813   */\n      tag_472\n        /* \"#utility.yul\":1778:1812   */\n      tag_473\n        /* \"#utility.yul\":1787:1811   */\n      tag_474\n        /* \"#utility.yul\":1805:1810   */\n      dup5\n        /* \"#utility.yul\":1787:1811   */\n      tag_366\n      jump\t// in\n    tag_474:\n        /* \"#utility.yul\":1778:1812   */\n      tag_372\n      jump\t// in\n    tag_473:\n        /* \"#utility.yul\":1760:1813   */\n      tag_366\n      jump\t// in\n    tag_472:\n        /* \"#utility.yul\":1747:1813   */\n      swap1\n      pop\n        /* \"#utility.yul\":1677:1819   */\n      swap2\n      swap1\n      pop\n      jump\t// out\n        /* \"#utility.yul\":1825:1951   */\n    tag_374:\n        /* \"#utility.yul\":1875:1884   */\n      0x00\n        /* \"#utility.yul\":1908:1945   */\n      tag_476\n        /* \"#utility.yul\":1939:1944   */\n      dup3\n        /* \"#utility.yul\":1908:1945   */\n      tag_373\n      jump\t// in\n    tag_476:\n        /* \"#utility.yul\":1895:1945   */\n      swap1\n      pop\n        /* \"#utility.yul\":1825:1951   */\n      swap2\n      swap1\n      pop\n      jump\t// out\n        /* \"#utility.yul\":1957:2097   */\n    tag_375:\n        /* \"#utility.yul\":2021:2030   */\n      0x00\n        /* \"#utility.yul\":2054:2091   */\n      tag_478\n        /* \"#utility.yul\":2085:2090   */\n      dup3\n        /* \"#utility.yul\":2054:2091   */\n      tag_374\n      jump\t// in\n    tag_478:\n        /* \"#utility.yul\":2041:2091   */\n      swap1\n      pop\n        /* \"#utility.yul\":1957:2097   */\n      swap2\n      swap1\n      pop\n      jump\t// out\n        /* \"#utility.yul\":2103:2262   */\n    tag_376:\n        /* \"#utility.yul\":2204:2255   */\n      tag_480\n        /* \"#utility.yul\":2249:2254   */\n      dup2\n        /* \"#utility.yul\":2204:2255   */\n      tag_375\n      jump\t// in\n    tag_480:\n        /* \"#utility.yul\":2199:2202   */\n      dup3\n        /* \"#utility.yul\":2192:2256   */\n      mstore\n        /* \"#utility.yul\":2103:2262   */\n      pop\n      pop\n      jump\t// out\n        /* \"#utility.yul\":2268:2518   */\n    tag_47:\n        /* \"#utility.yul\":2375:2379   */\n      0x00\n        /* \"#utility.yul\":2413:2415   */\n      0x20\n        /* \"#utility.yul\":2402:2411   */\n      dup3\n        /* \"#utility.yul\":2398:2416   */\n      add\n        /* \"#utility.yul\":2390:2416   */\n      swap1\n      pop\n        /* \"#utility.yul\":2426:2511   */\n      tag_482\n        /* \"#utility.yul\":2508:2509   */\n      0x00\n        /* \"#utility.yul\":2497:2506   */\n      dup4\n        /* \"#utility.yul\":2493:2510   */\n      add\n        /* \"#utility.yul\":2484:2490   */\n      dup5\n        /* \"#utility.yul\":2426:2511   */\n      tag_376\n      jump\t// in\n    tag_482:\n        /* \"#utility.yul\":2268:2518   */\n      swap3\n      swap2\n      pop\n      pop\n      jump\t// out\n        /* \"#utility.yul\":2524:2641   */\n    tag_377:\n        /* \"#utility.yul\":2633:2634   */\n      0x00\n        /* \"#utility.yul\":2630:2631   */\n      dup1\n        /* \"#utility.yul\":2623:2635   */\n      revert\n        /* \"#utility.yul\":2647:2764   */\n    tag_378:\n        /* \"#utility.yul\":2756:2757   */\n      0x00\n        /* \"#utility.yul\":2753:2754   */\n      dup1\n        /* \"#utility.yul\":2746:2758   */\n      revert\n        /* \"#utility.yul\":2770:2887   */\n    tag_379:\n        /* \"#utility.yul\":2879:2880   */\n      0x00\n        /* \"#utility.yul\":2876:2877   */\n      dup1\n        /* \"#utility.yul\":2869:2881   */\n      revert\n        /* \"#utility.yul\":2909:3489   */\n    tag_380:\n        /* \"#utility.yul\":2994:3002   */\n      0x00\n        /* \"#utility.yul\":3004:3010   */\n      dup1\n        /* \"#utility.yul\":3054:3057   */\n      dup4\n        /* \"#utility.yul\":3047:3051   */\n      0x1f\n        /* \"#utility.yul\":3039:3045   */\n      dup5\n        /* \"#utility.yul\":3035:3052   */\n      add\n        /* \"#utility.yul\":3031:3058   */\n      slt\n        /* \"#utility.yul\":3021:3143   */\n      tag_487\n      jumpi\n        /* \"#utility.yul\":3062:3141   */\n      tag_488\n      tag_377\n      jump\t// in\n    tag_488:\n        /* \"#utility.yul\":3021:3143   */\n    tag_487:\n        /* \"#utility.yul\":3175:3181   */\n      dup3\n        /* \"#utility.yul\":3162:3182   */\n      calldataload\n        /* \"#utility.yul\":3152:3182   */\n      swap1\n      pop\n        /* \"#utility.yul\":3205:3223   */\n      0xffffffffffffffff\n        /* \"#utility.yul\":3197:3203   */\n      dup2\n        /* \"#utility.yul\":3194:3224   */\n      gt\n        /* \"#utility.yul\":3191:3308   */\n      iszero\n      tag_489\n      jumpi\n        /* \"#utility.yul\":3227:3306   */\n      tag_490\n      tag_378\n      jump\t// in\n    tag_490:\n        /* \"#utility.yul\":3191:3308   */\n    tag_489:\n        /* \"#utility.yul\":3341:3345   */\n      0x20\n        /* \"#utility.yul\":3333:3339   */\n      dup4\n        /* \"#utility.yul\":3329:3346   */\n      add\n        /* \"#utility.yul\":3317:3346   */\n      swap2\n      pop\n        /* \"#utility.yul\":3395:3398   */\n      dup4\n        /* \"#utility.yul\":3387:3391   */\n      0x20\n        /* \"#utility.yul\":3379:3385   */\n      dup3\n        /* \"#utility.yul\":3375:3392   */\n      mul\n        /* \"#utility.yul\":3365:3373   */\n      dup4\n        /* \"#utility.yul\":3361:3393   */\n      add\n        /* \"#utility.yul\":3358:3399   */\n      gt\n        /* \"#utility.yul\":3355:3483   */\n      iszero\n      tag_491\n      jumpi\n        /* \"#utility.yul\":3402:3481   */\n      tag_492\n      tag_379\n      jump\t// in\n    tag_492:\n        /* \"#utility.yul\":3355:3483   */\n    tag_491:\n        /* \"#utility.yul\":2909:3489   */\n      swap3\n      pop\n      swap3\n      swap1\n      pop\n      jump\t// out\n        /* \"#utility.yul\":3512:4080   */\n    tag_381:\n        /* \"#utility.yul\":3585:3593   */\n      0x00\n        /* \"#utility.yul\":3595:3601   */\n      dup1\n        /* \"#utility.yul\":3645:3648   */\n      dup4\n        /* \"#utility.yul\":3638:3642   */\n      0x1f\n        /* \"#utility.yul\":3630:3636   */\n      dup5\n        /* \"#utility.yul\":3626:3643   */\n      add\n        /* \"#utility.yul\":3622:3649   */\n      slt\n        /* \"#utility.yul\":3612:3734   */\n      tag_494\n      jumpi\n        /* \"#utility.yul\":3653:3732   */\n      tag_495\n      tag_377\n      jump\t// in\n    tag_495:\n        /* \"#utility.yul\":3612:3734   */\n    tag_494:\n        /* \"#utility.yul\":3766:3772   */\n      dup3\n        /* \"#utility.yul\":3753:3773   */\n      calldataload\n        /* \"#utility.yul\":3743:3773   */\n      swap1\n      pop\n        /* \"#utility.yul\":3796:3814   */\n      0xffffffffffffffff\n        /* \"#utility.yul\":3788:3794   */\n      dup2\n        /* \"#utility.yul\":3785:3815   */\n      gt\n        /* \"#utility.yul\":3782:3899   */\n      iszero\n      tag_496\n      jumpi\n        /* \"#utility.yul\":3818:3897   */\n      tag_497\n      tag_378\n      jump\t// in\n    tag_497:\n        /* \"#utility.yul\":3782:3899   */\n    tag_496:\n        /* \"#utility.yul\":3932:3936   */\n      0x20\n        /* \"#utility.yul\":3924:3930   */\n      dup4\n        /* \"#utility.yul\":3920:3937   */\n      add\n        /* \"#utility.yul\":3908:3937   */\n      swap2\n      pop\n        /* \"#utility.yul\":3986:3989   */\n      dup4\n        /* \"#utility.yul\":3978:3982   */\n      0x20\n        /* \"#utility.yul\":3970:3976   */\n      dup3\n        /* \"#utility.yul\":3966:3983   */\n      mul\n        /* \"#utility.yul\":3956:3964   */\n      dup4\n        /* \"#utility.yul\":3952:3984   */\n      add\n        /* \"#utility.yul\":3949:3990   */\n      gt\n        /* \"#utility.yul\":3946:4074   */\n      iszero\n      tag_498\n      jumpi\n        /* \"#utility.yul\":3993:4072   */\n      tag_499\n      tag_379\n      jump\t// in\n    tag_499:\n        /* \"#utility.yul\":3946:4074   */\n    tag_498:\n        /* \"#utility.yul\":3512:4080   */\n      swap3\n      pop\n      swap3\n      swap1\n      pop\n      jump\t// out\n        /* \"#utility.yul\":4086:5044   */\n    tag_74:\n        /* \"#utility.yul\":4220:4226   */\n      0x00\n        /* \"#utility.yul\":4228:4234   */\n      dup1\n        /* \"#utility.yul\":4236:4242   */\n      0x00\n        /* \"#utility.yul\":4244:4250   */\n      dup1\n        /* \"#utility.yul\":4293:4295   */\n      0x40\n        /* \"#utility.yul\":4281:4290   */\n      dup6\n        /* \"#utility.yul\":4272:4279   */\n      dup8\n        /* \"#utility.yul\":4268:4291   */\n      sub\n        /* \"#utility.yul\":4264:4296   */\n      slt\n        /* \"#utility.yul\":4261:4380   */\n      iszero\n      tag_501\n      jumpi\n        /* \"#utility.yul\":4299:4378   */\n      tag_502\n      tag_364\n      jump\t// in\n    tag_502:\n        /* \"#utility.yul\":4261:4380   */\n    tag_501:\n        /* \"#utility.yul\":4447:4448   */\n      0x00\n        /* \"#utility.yul\":4436:4445   */\n      dup6\n        /* \"#utility.yul\":4432:4449   */\n      add\n        /* \"#utility.yul\":4419:4450   */\n      calldataload\n        /* \"#utility.yul\":4477:4495   */\n      0xffffffffffffffff\n        /* \"#utility.yul\":4469:4475   */\n      dup2\n        /* \"#utility.yul\":4466:4496   */\n      gt\n        /* \"#utility.yul\":4463:4580   */\n      iszero\n      tag_503\n      jumpi\n        /* \"#utility.yul\":4499:4578   */\n      tag_504\n      tag_365\n      jump\t// in\n    tag_504:\n        /* \"#utility.yul\":4463:4580   */\n    tag_503:\n        /* \"#utility.yul\":4612:4704   */\n      tag_505\n        /* \"#utility.yul\":4696:4703   */\n      dup8\n        /* \"#utility.yul\":4687:4693   */\n      dup3\n        /* \"#utility.yul\":4676:4685   */\n      dup9\n        /* \"#utility.yul\":4672:4694   */\n      add\n        /* \"#utility.yul\":4612:4704   */\n      tag_380\n      jump\t// in\n    tag_505:\n        /* \"#utility.yul\":4594:4704   */\n      swap5\n      pop\n      swap5\n      pop\n        /* \"#utility.yul\":4390:4714   */\n      pop\n        /* \"#utility.yul\":4781:4783   */\n      0x20\n        /* \"#utility.yul\":4770:4779   */\n      dup6\n        /* \"#utility.yul\":4766:4784   */\n      add\n        /* \"#utility.yul\":4753:4785   */\n      calldataload\n        /* \"#utility.yul\":4812:4830   */\n      0xffffffffffffffff\n        /* \"#utility.yul\":4804:4810   */\n      dup2\n        /* \"#utility.yul\":4801:4831   */\n      gt\n        /* \"#utility.yul\":4798:4915   */\n      iszero\n      tag_506\n      jumpi\n        /* \"#utility.yul\":4834:4913   */\n      tag_507\n      tag_365\n      jump\t// in\n    tag_507:\n        /* \"#utility.yul\":4798:4915   */\n    tag_506:\n        /* \"#utility.yul\":4947:5027   */\n      tag_508\n        /* \"#utility.yul\":5019:5026   */\n      dup8\n        /* \"#utility.yul\":5010:5016   */\n      dup3\n        /* \"#utility.yul\":4999:5008   */\n      dup9\n        /* \"#utility.yul\":4995:5017   */\n      add\n        /* \"#utility.yul\":4947:5027   */\n      tag_381\n      jump\t// in\n    tag_508:\n        /* \"#utility.yul\":4929:5027   */\n      swap3\n      pop\n      swap3\n      pop\n        /* \"#utility.yul\":4724:5037   */\n      pop\n        /* \"#utility.yul\":4086:5044   */\n      swap3\n      swap6\n      swap2\n      swap5\n      pop\n      swap3\n      pop\n      jump\t// out\n        /* \"#utility.yul\":5050:5168   */\n    tag_382:\n        /* \"#utility.yul\":5137:5161   */\n      tag_510\n        /* \"#utility.yul\":5155:5160   */\n      dup2\n        /* \"#utility.yul\":5137:5161   */\n      tag_367\n      jump\t// in\n    tag_510:\n        /* \"#utility.yul\":5132:5135   */\n      dup3\n        /* \"#utility.yul\":5125:5162   */\n      mstore\n        /* \"#utility.yul\":5050:5168   */\n      pop\n      pop\n      jump\t// out\n        /* \"#utility.yul\":5174:5396   */\n    tag_84:\n        /* \"#utility.yul\":5267:5271   */\n      0x00\n        /* \"#utility.yul\":5305:5307   */\n      0x20\n        /* \"#utility.yul\":5294:5303   */\n      dup3\n        /* \"#utility.yul\":5290:5308   */\n      add\n        /* \"#utility.yul\":5282:5308   */\n      swap1\n      pop\n        /* \"#utility.yul\":5318:5389   */\n      tag_512\n        /* \"#utility.yul\":5386:5387   */\n      0x00\n        /* \"#utility.yul\":5375:5384   */\n      dup4\n        /* \"#utility.yul\":5371:5388   */\n      add\n        /* \"#utility.yul\":5362:5368   */\n      dup5\n        /* \"#utility.yul\":5318:5389   */\n      tag_382\n      jump\t// in\n    tag_512:\n        /* \"#utility.yul\":5174:5396   */\n      swap3\n      swap2\n      pop\n      pop\n      jump\t// out\n        /* \"#utility.yul\":5402:5524   */\n    tag_383:\n        /* \"#utility.yul\":5475:5499   */\n      tag_514\n        /* \"#utility.yul\":5493:5498   */\n      dup2\n        /* \"#utility.yul\":5475:5499   */\n      tag_370\n      jump\t// in\n    tag_514:\n        /* \"#utility.yul\":5468:5473   */\n      dup2\n        /* \"#utility.yul\":5465:5500   */\n      eq\n        /* \"#utility.yul\":5455:5518   */\n      tag_515\n      jumpi\n        /* \"#utility.yul\":5514:5515   */\n      0x00\n        /* \"#utility.yul\":5511:5512   */\n      dup1\n        /* \"#utility.yul\":5504:5516   */\n      revert\n        /* \"#utility.yul\":5455:5518   */\n    tag_515:\n        /* \"#utility.yul\":5402:5524   */\n      pop\n      jump\t// out\n        /* \"#utility.yul\":5530:5669   */\n    tag_384:\n        /* \"#utility.yul\":5576:5581   */\n      0x00\n        /* \"#utility.yul\":5614:5620   */\n      dup2\n        /* \"#utility.yul\":5601:5621   */\n      calldataload\n        /* \"#utility.yul\":5592:5621   */\n      swap1\n      pop\n        /* \"#utility.yul\":5630:5663   */\n      tag_517\n        /* \"#utility.yul\":5657:5662   */\n      dup2\n        /* \"#utility.yul\":5630:5663   */\n      tag_383\n      jump\t// in\n    tag_517:\n        /* \"#utility.yul\":5530:5669   */\n      swap3\n      swap2\n      pop\n      pop\n      jump\t// out\n        /* \"#utility.yul\":5675:5792   */\n    tag_385:\n        /* \"#utility.yul\":5784:5785   */\n      0x00\n        /* \"#utility.yul\":5781:5782   */\n      dup1\n        /* \"#utility.yul\":5774:5786   */\n      revert\n        /* \"#utility.yul\":5798:5900   */\n    tag_386:\n        /* \"#utility.yul\":5839:5845   */\n      0x00\n        /* \"#utility.yul\":5890:5892   */\n      0x1f\n        /* \"#utility.yul\":5886:5893   */\n      not\n        /* \"#utility.yul\":5881:5883   */\n      0x1f\n        /* \"#utility.yul\":5874:5879   */\n      dup4\n        /* \"#utility.yul\":5870:5884   */\n      add\n        /* \"#utility.yul\":5866:5894   */\n      and\n        /* \"#utility.yul\":5856:5894   */\n      swap1\n      pop\n        /* \"#utility.yul\":5798:5900   */\n      swap2\n      swap1\n      pop\n      jump\t// out\n        /* \"#utility.yul\":5906:6086   */\n    tag_387:\n        /* \"#utility.yul\":5954:6031   */\n      0x4e487b7100000000000000000000000000000000000000000000000000000000\n        /* \"#utility.yul\":5951:5952   */\n      0x00\n        /* \"#utility.yul\":5944:6032   */\n      mstore\n        /* \"#utility.yul\":6051:6055   */\n      0x41\n        /* \"#utility.yul\":6048:6049   */\n      0x04\n        /* \"#utility.yul\":6041:6056   */\n      mstore\n        /* \"#utility.yul\":6075:6079   */\n      0x24\n        /* \"#utility.yul\":6072:6073   */\n      0x00\n        /* \"#utility.yul\":6065:6080   */\n      revert\n        /* \"#utility.yul\":6092:6373   */\n    tag_388:\n        /* \"#utility.yul\":6175:6202   */\n      tag_522\n        /* \"#utility.yul\":6197:6201   */\n      dup3\n        /* \"#utility.yul\":6175:6202   */\n      tag_386\n      jump\t// in\n    tag_522:\n        /* \"#utility.yul\":6167:6173   */\n      dup2\n        /* \"#utility.yul\":6163:6203   */\n      add\n        /* \"#utility.yul\":6305:6311   */\n      dup2\n        /* \"#utility.yul\":6293:6303   */\n      dup2\n        /* \"#utility.yul\":6290:6312   */\n      lt\n        /* \"#utility.yul\":6269:6287   */\n      0xffffffffffffffff\n        /* \"#utility.yul\":6257:6267   */\n      dup3\n        /* \"#utility.yul\":6254:6288   */\n      gt\n        /* \"#utility.yul\":6251:6313   */\n      or\n        /* \"#utility.yul\":6248:6336   */\n      iszero\n      tag_523\n      jumpi\n        /* \"#utility.yul\":6316:6334   */\n      tag_524\n      tag_387\n      jump\t// in\n    tag_524:\n        /* \"#utility.yul\":6248:6336   */\n    tag_523:\n        /* \"#utility.yul\":6356:6366   */\n      dup1\n        /* \"#utility.yul\":6352:6354   */\n      0x40\n        /* \"#utility.yul\":6345:6367   */\n      mstore\n        /* \"#utility.yul\":6135:6373   */\n      pop\n        /* \"#utility.yul\":6092:6373   */\n      pop\n      pop\n      jump\t// out\n        /* \"#utility.yul\":6379:6508   */\n    tag_389:\n        /* \"#utility.yul\":6413:6419   */\n      0x00\n        /* \"#utility.yul\":6440:6460   */\n      tag_526\n      tag_363\n      jump\t// in\n    tag_526:\n        /* \"#utility.yul\":6430:6460   */\n      swap1\n      pop\n        /* \"#utility.yul\":6469:6502   */\n      tag_527\n        /* \"#utility.yul\":6497:6501   */\n      dup3\n        /* \"#utility.yul\":6489:6495   */\n      dup3\n        /* \"#utility.yul\":6469:6502   */\n      tag_388\n      jump\t// in\n    tag_527:\n        /* \"#utility.yul\":6379:6508   */\n      swap2\n      swap1\n      pop\n      jump\t// out\n        /* \"#utility.yul\":6514:6822   */\n    tag_390:\n        /* \"#utility.yul\":6576:6580   */\n      0x00\n        /* \"#utility.yul\":6666:6684   */\n      0xffffffffffffffff\n        /* \"#utility.yul\":6658:6664   */\n      dup3\n        /* \"#utility.yul\":6655:6685   */\n      gt\n        /* \"#utility.yul\":6652:6708   */\n      iszero\n      tag_529\n      jumpi\n        /* \"#utility.yul\":6688:6706   */\n      tag_530\n      tag_387\n      jump\t// in\n    tag_530:\n        /* \"#utility.yul\":6652:6708   */\n    tag_529:\n        /* \"#utility.yul\":6726:6755   */\n      tag_531\n        /* \"#utility.yul\":6748:6754   */\n      dup3\n        /* \"#utility.yul\":6726:6755   */\n      tag_386\n      jump\t// in\n    tag_531:\n        /* \"#utility.yul\":6718:6755   */\n      swap1\n      pop\n        /* \"#utility.yul\":6810:6814   */\n      0x20\n        /* \"#utility.yul\":6804:6808   */\n      dup2\n        /* \"#utility.yul\":6800:6815   */\n      add\n        /* \"#utility.yul\":6792:6815   */\n      swap1\n      pop\n        /* \"#utility.yul\":6514:6822   */\n      swap2\n      swap1\n      pop\n      jump\t// out\n        /* \"#utility.yul\":6828:6976   */\n    tag_391:\n        /* \"#utility.yul\":6926:6932   */\n      dup3\n        /* \"#utility.yul\":6921:6924   */\n      dup2\n        /* \"#utility.yul\":6916:6919   */\n      dup4\n        /* \"#utility.yul\":6903:6933   */\n      calldatacopy\n        /* \"#utility.yul\":6967:6968   */\n      0x00\n        /* \"#utility.yul\":6958:6964   */\n      dup4\n        /* \"#utility.yul\":6953:6956   */\n      dup4\n        /* \"#utility.yul\":6949:6965   */\n      add\n        /* \"#utility.yul\":6942:6969   */\n      mstore\n        /* \"#utility.yul\":6828:6976   */\n      pop\n      pop\n      pop\n      jump\t// out\n        /* \"#utility.yul\":6982:7407   */\n    tag_392:\n        /* \"#utility.yul\":7060:7065   */\n      0x00\n        /* \"#utility.yul\":7085:7151   */\n      tag_534\n        /* \"#utility.yul\":7101:7150   */\n      tag_535\n        /* \"#utility.yul\":7143:7149   */\n      dup5\n        /* \"#utility.yul\":7101:7150   */\n      tag_390\n      jump\t// in\n    tag_535:\n        /* \"#utility.yul\":7085:7151   */\n      tag_389\n      jump\t// in\n    tag_534:\n        /* \"#utility.yul\":7076:7151   */\n      swap1\n      pop\n        /* \"#utility.yul\":7174:7180   */\n      dup3\n        /* \"#utility.yul\":7167:7172   */\n      dup2\n        /* \"#utility.yul\":7160:7181   */\n      mstore\n        /* \"#utility.yul\":7212:7216   */\n      0x20\n        /* \"#utility.yul\":7205:7210   */\n      dup2\n        /* \"#utility.yul\":7201:7217   */\n      add\n        /* \"#utility.yul\":7250:7253   */\n      dup5\n        /* \"#utility.yul\":7241:7247   */\n      dup5\n        /* \"#utility.yul\":7236:7239   */\n      dup5\n        /* \"#utility.yul\":7232:7248   */\n      add\n        /* \"#utility.yul\":7229:7254   */\n      gt\n        /* \"#utility.yul\":7226:7338   */\n      iszero\n      tag_536\n      jumpi\n        /* \"#utility.yul\":7257:7336   */\n      tag_537\n      tag_385\n      jump\t// in\n    tag_537:\n        /* \"#utility.yul\":7226:7338   */\n    tag_536:\n        /* \"#utility.yul\":7347:7401   */\n      tag_538\n        /* \"#utility.yul\":7394:7400   */\n      dup5\n        /* \"#utility.yul\":7389:7392   */\n      dup3\n        /* \"#utility.yul\":7384:7387   */\n      dup6\n        /* \"#utility.yul\":7347:7401   */\n      tag_391\n      jump\t// in\n    tag_538:\n        /* \"#utility.yul\":7066:7407   */\n      pop\n        /* \"#utility.yul\":6982:7407   */\n      swap4\n      swap3\n      pop\n      pop\n      pop\n      jump\t// out\n        /* \"#utility.yul\":7427:7767   */\n    tag_393:\n        /* \"#utility.yul\":7483:7488   */\n      0x00\n        /* \"#utility.yul\":7532:7535   */\n      dup3\n        /* \"#utility.yul\":7525:7529   */\n      0x1f\n        /* \"#utility.yul\":7517:7523   */\n      dup4\n        /* \"#utility.yul\":7513:7530   */\n      add\n        /* \"#utility.yul\":7509:7536   */\n      slt\n        /* \"#utility.yul\":7499:7621   */\n      tag_540\n      jumpi\n        /* \"#utility.yul\":7540:7619   */\n      tag_541\n      tag_377\n      jump\t// in\n    tag_541:\n        /* \"#utility.yul\":7499:7621   */\n    tag_540:\n        /* \"#utility.yul\":7657:7663   */\n      dup2\n        /* \"#utility.yul\":7644:7664   */\n      calldataload\n        /* \"#utility.yul\":7682:7761   */\n      tag_542\n        /* \"#utility.yul\":7757:7760   */\n      dup5\n        /* \"#utility.yul\":7749:7755   */\n      dup3\n        /* \"#utility.yul\":7742:7746   */\n      0x20\n        /* \"#utility.yul\":7734:7740   */\n      dup7\n        /* \"#utility.yul\":7730:7747   */\n      add\n        /* \"#utility.yul\":7682:7761   */\n      tag_392\n      jump\t// in\n    tag_542:\n        /* \"#utility.yul\":7673:7761   */\n      swap2\n      pop\n        /* \"#utility.yul\":7489:7767   */\n      pop\n        /* \"#utility.yul\":7427:7767   */\n      swap3\n      swap2\n      pop\n      pop\n      jump\t// out\n        /* \"#utility.yul\":7773:8427   */\n    tag_87:\n        /* \"#utility.yul\":7851:7857   */\n      0x00\n        /* \"#utility.yul\":7859:7865   */\n      dup1\n        /* \"#utility.yul\":7908:7910   */\n      0x40\n        /* \"#utility.yul\":7896:7905   */\n      dup4\n        /* \"#utility.yul\":7887:7894   */\n      dup6\n        /* \"#utility.yul\":7883:7906   */\n      sub\n        /* \"#utility.yul\":7879:7911   */\n      slt\n        /* \"#utility.yul\":7876:7995   */\n      iszero\n      tag_544\n      jumpi\n        /* \"#utility.yul\":7914:7993   */\n      tag_545\n      tag_364\n      jump\t// in\n    tag_545:\n        /* \"#utility.yul\":7876:7995   */\n    tag_544:\n        /* \"#utility.yul\":8034:8035   */\n      0x00\n        /* \"#utility.yul\":8059:8112   */\n      tag_546\n        /* \"#utility.yul\":8104:8111   */\n      dup6\n        /* \"#utility.yul\":8095:8101   */\n      dup3\n        /* \"#utility.yul\":8084:8093   */\n      dup7\n        /* \"#utility.yul\":8080:8102   */\n      add\n        /* \"#utility.yul\":8059:8112   */\n      tag_384\n      jump\t// in\n    tag_546:\n        /* \"#utility.yul\":8049:8112   */\n      swap3\n      pop\n        /* \"#utility.yul\":8005:8122   */\n      pop\n        /* \"#utility.yul\":8189:8191   */\n      0x20\n        /* \"#utility.yul\":8178:8187   */\n      dup4\n        /* \"#utility.yul\":8174:8192   */\n      add\n        /* \"#utility.yul\":8161:8193   */\n      calldataload\n        /* \"#utility.yul\":8220:8238   */\n      0xffffffffffffffff\n        /* \"#utility.yul\":8212:8218   */\n      dup2\n        /* \"#utility.yul\":8209:8239   */\n      gt\n        /* \"#utility.yul\":8206:8323   */\n      iszero\n      tag_547\n      jumpi\n        /* \"#utility.yul\":8242:8321   */\n      tag_548\n      tag_365\n      jump\t// in\n    tag_548:\n        /* \"#utility.yul\":8206:8323   */\n    tag_547:\n        /* \"#utility.yul\":8347:8410   */\n      tag_549\n        /* \"#utility.yul\":8402:8409   */\n      dup6\n        /* \"#utility.yul\":8393:8399   */\n      dup3\n        /* \"#utility.yul\":8382:8391   */\n      dup7\n        /* \"#utility.yul\":8378:8400   */\n      add\n        /* \"#utility.yul\":8347:8410   */\n      tag_393\n      jump\t// in\n    tag_549:\n        /* \"#utility.yul\":8337:8410   */\n      swap2\n      pop\n        /* \"#utility.yul\":8132:8420   */\n      pop\n        /* \"#utility.yul\":7773:8427   */\n      swap3\n      pop\n      swap3\n      swap1\n      pop\n      jump\t// out\n        /* \"#utility.yul\":8433:8523   */\n    tag_394:\n        /* \"#utility.yul\":8467:8474   */\n      0x00\n        /* \"#utility.yul\":8510:8515   */\n      dup2\n        /* \"#utility.yul\":8503:8516   */\n      iszero\n        /* \"#utility.yul\":8496:8517   */\n      iszero\n        /* \"#utility.yul\":8485:8517   */\n      swap1\n      pop\n        /* \"#utility.yul\":8433:8523   */\n      swap2\n      swap1\n      pop\n      jump\t// out\n        /* \"#utility.yul\":8529:8638   */\n    tag_395:\n        /* \"#utility.yul\":8610:8631   */\n      tag_552\n        /* \"#utility.yul\":8625:8630   */\n      dup2\n        /* \"#utility.yul\":8610:8631   */\n      tag_394\n      jump\t// in\n    tag_552:\n        /* \"#utility.yul\":8605:8608   */\n      dup3\n        /* \"#utility.yul\":8598:8632   */\n      mstore\n        /* \"#utility.yul\":8529:8638   */\n      pop\n      pop\n      jump\t// out\n        /* \"#utility.yul\":8644:8854   */\n    tag_101:\n        /* \"#utility.yul\":8731:8735   */\n      0x00\n        /* \"#utility.yul\":8769:8771   */\n      0x20\n        /* \"#utility.yul\":8758:8767   */\n      dup3\n        /* \"#utility.yul\":8754:8772   */\n      add\n        /* \"#utility.yul\":8746:8772   */\n      swap1\n      pop\n        /* \"#utility.yul\":8782:8847   */\n      tag_554\n        /* \"#utility.yul\":8844:8845   */\n      0x00\n        /* \"#utility.yul\":8833:8842   */\n      dup4\n        /* \"#utility.yul\":8829:8846   */\n      add\n        /* \"#utility.yul\":8820:8826   */\n      dup5\n        /* \"#utility.yul\":8782:8847   */\n      tag_395\n      jump\t// in\n    tag_554:\n        /* \"#utility.yul\":8644:8854   */\n      swap3\n      swap2\n      pop\n      pop\n      jump\t// out\n        /* \"#utility.yul\":8860:8936   */\n    tag_396:\n        /* \"#utility.yul\":8896:8903   */\n      0x00\n        /* \"#utility.yul\":8925:8930   */\n      dup2\n        /* \"#utility.yul\":8914:8930   */\n      swap1\n      pop\n        /* \"#utility.yul\":8860:8936   */\n      swap2\n      swap1\n      pop\n      jump\t// out\n        /* \"#utility.yul\":8942:9057   */\n    tag_397:\n        /* \"#utility.yul\":9027:9050   */\n      tag_557\n        /* \"#utility.yul\":9044:9049   */\n      dup2\n        /* \"#utility.yul\":9027:9050   */\n      tag_396\n      jump\t// in\n    tag_557:\n        /* \"#utility.yul\":9022:9025   */\n      dup3\n        /* \"#utility.yul\":9015:9051   */\n      mstore\n        /* \"#utility.yul\":8942:9057   */\n      pop\n      pop\n      jump\t// out\n        /* \"#utility.yul\":9063:9281   */\n    tag_107:\n        /* \"#utility.yul\":9154:9158   */\n      0x00\n        /* \"#utility.yul\":9192:9194   */\n      0x20\n        /* \"#utility.yul\":9181:9190   */\n      dup3\n        /* \"#utility.yul\":9177:9195   */\n      add\n        /* \"#utility.yul\":9169:9195   */\n      swap1\n      pop\n        /* \"#utility.yul\":9205:9274   */\n      tag_559\n        /* \"#utility.yul\":9271:9272   */\n      0x00\n        /* \"#utility.yul\":9260:9269   */\n      dup4\n        /* \"#utility.yul\":9256:9273   */\n      add\n        /* \"#utility.yul\":9247:9253   */\n      dup5\n        /* \"#utility.yul\":9205:9274   */\n      tag_397\n      jump\t// in\n    tag_559:\n        /* \"#utility.yul\":9063:9281   */\n      swap3\n      swap2\n      pop\n      pop\n      jump\t// out\n        /* \"#utility.yul\":9287:9616   */\n    tag_115:\n        /* \"#utility.yul\":9346:9352   */\n      0x00\n        /* \"#utility.yul\":9395:9397   */\n      0x20\n        /* \"#utility.yul\":9383:9392   */\n      dup3\n        /* \"#utility.yul\":9374:9381   */\n      dup5\n        /* \"#utility.yul\":9370:9393   */\n      sub\n        /* \"#utility.yul\":9366:9398   */\n      slt\n        /* \"#utility.yul\":9363:9482   */\n      iszero\n      tag_561\n      jumpi\n        /* \"#utility.yul\":9401:9480   */\n      tag_562\n      tag_364\n      jump\t// in\n    tag_562:\n        /* \"#utility.yul\":9363:9482   */\n    tag_561:\n        /* \"#utility.yul\":9521:9522   */\n      0x00\n        /* \"#utility.yul\":9546:9599   */\n      tag_563\n        /* \"#utility.yul\":9591:9598   */\n      dup5\n        /* \"#utility.yul\":9582:9588   */\n      dup3\n        /* \"#utility.yul\":9571:9580   */\n      dup6\n        /* \"#utility.yul\":9567:9589   */\n      add\n        /* \"#utility.yul\":9546:9599   */\n      tag_384\n      jump\t// in\n    tag_563:\n        /* \"#utility.yul\":9536:9599   */\n      swap2\n      pop\n        /* \"#utility.yul\":9492:9609   */\n      pop\n        /* \"#utility.yul\":9287:9616   */\n      swap3\n      swap2\n      pop\n      pop\n      jump\t// out\n        /* \"#utility.yul\":9622:10175   */\n    tag_118:\n        /* \"#utility.yul\":9799:9803   */\n      0x00\n        /* \"#utility.yul\":9837:9840   */\n      0x80\n        /* \"#utility.yul\":9826:9835   */\n      dup3\n        /* \"#utility.yul\":9822:9841   */\n      add\n        /* \"#utility.yul\":9814:9841   */\n      swap1\n      pop\n        /* \"#utility.yul\":9851:9922   */\n      tag_565\n        /* \"#utility.yul\":9919:9920   */\n      0x00\n        /* \"#utility.yul\":9908:9917   */\n      dup4\n        /* \"#utility.yul\":9904:9921   */\n      add\n        /* \"#utility.yul\":9895:9901   */\n      dup8\n        /* \"#utility.yul\":9851:9922   */\n      tag_371\n      jump\t// in\n    tag_565:\n        /* \"#utility.yul\":9932:10004   */\n      tag_566\n        /* \"#utility.yul\":10000:10002   */\n      0x20\n        /* \"#utility.yul\":9989:9998   */\n      dup4\n        /* \"#utility.yul\":9985:10003   */\n      add\n        /* \"#utility.yul\":9976:9982   */\n      dup7\n        /* \"#utility.yul\":9932:10004   */\n      tag_371\n      jump\t// in\n    tag_566:\n        /* \"#utility.yul\":10014:10086   */\n      tag_567\n        /* \"#utility.yul\":10082:10084   */\n      0x40\n        /* \"#utility.yul\":10071:10080   */\n      dup4\n        /* \"#utility.yul\":10067:10085   */\n      add\n        /* \"#utility.yul\":10058:10064   */\n      dup6\n        /* \"#utility.yul\":10014:10086   */\n      tag_371\n      jump\t// in\n    tag_567:\n        /* \"#utility.yul\":10096:10168   */\n      tag_568\n        /* \"#utility.yul\":10164:10166   */\n      0x60\n        /* \"#utility.yul\":10153:10162   */\n      dup4\n        /* \"#utility.yul\":10149:10167   */\n      add\n        /* \"#utility.yul\":10140:10146   */\n      dup5\n        /* \"#utility.yul\":10096:10168   */\n      tag_371\n      jump\t// in\n    tag_568:\n        /* \"#utility.yul\":9622:10175   */\n      swap6\n      swap5\n      pop\n      pop\n      pop\n      pop\n      pop\n      jump\t// out\n        /* \"#utility.yul\":10181:10285   */\n    tag_398:\n        /* \"#utility.yul\":10226:10233   */\n      0x00\n        /* \"#utility.yul\":10255:10279   */\n      tag_570\n        /* \"#utility.yul\":10273:10278   */\n      dup3\n        /* \"#utility.yul\":10255:10279   */\n      tag_366\n      jump\t// in\n    tag_570:\n        /* \"#utility.yul\":10244:10279   */\n      swap1\n      pop\n        /* \"#utility.yul\":10181:10285   */\n      swap2\n      swap1\n      pop\n      jump\t// out\n        /* \"#utility.yul\":10291:10429   */\n    tag_399:\n        /* \"#utility.yul\":10372:10404   */\n      tag_572\n        /* \"#utility.yul\":10398:10403   */\n      dup2\n        /* \"#utility.yul\":10372:10404   */\n      tag_398\n      jump\t// in\n    tag_572:\n        /* \"#utility.yul\":10365:10370   */\n      dup2\n        /* \"#utility.yul\":10362:10405   */\n      eq\n        /* \"#utility.yul\":10352:10423   */\n      tag_573\n      jumpi\n        /* \"#utility.yul\":10419:10420   */\n      0x00\n        /* \"#utility.yul\":10416:10417   */\n      dup1\n        /* \"#utility.yul\":10409:10421   */\n      revert\n        /* \"#utility.yul\":10352:10423   */\n    tag_573:\n        /* \"#utility.yul\":10291:10429   */\n      pop\n      jump\t// out\n        /* \"#utility.yul\":10435:10590   */\n    tag_400:\n        /* \"#utility.yul\":10489:10494   */\n      0x00\n        /* \"#utility.yul\":10527:10533   */\n      dup2\n        /* \"#utility.yul\":10514:10534   */\n      calldataload\n        /* \"#utility.yul\":10505:10534   */\n      swap1\n      pop\n        /* \"#utility.yul\":10543:10584   */\n      tag_575\n        /* \"#utility.yul\":10578:10583   */\n      dup2\n        /* \"#utility.yul\":10543:10584   */\n      tag_399\n      jump\t// in\n    tag_575:\n        /* \"#utility.yul\":10435:10590   */\n      swap3\n      swap2\n      pop\n      pop\n      jump\t// out\n        /* \"#utility.yul\":10596:10941   */\n    tag_126:\n        /* \"#utility.yul\":10663:10669   */\n      0x00\n        /* \"#utility.yul\":10712:10714   */\n      0x20\n        /* \"#utility.yul\":10700:10709   */\n      dup3\n        /* \"#utility.yul\":10691:10698   */\n      dup5\n        /* \"#utility.yul\":10687:10710   */\n      sub\n        /* \"#utility.yul\":10683:10715   */\n      slt\n        /* \"#utility.yul\":10680:10799   */\n      iszero\n      tag_577\n      jumpi\n        /* \"#utility.yul\":10718:10797   */\n      tag_578\n      tag_364\n      jump\t// in\n    tag_578:\n        /* \"#utility.yul\":10680:10799   */\n    tag_577:\n        /* \"#utility.yul\":10838:10839   */\n      0x00\n        /* \"#utility.yul\":10863:10924   */\n      tag_579\n        /* \"#utility.yul\":10916:10923   */\n      dup5\n        /* \"#utility.yul\":10907:10913   */\n      dup3\n        /* \"#utility.yul\":10896:10905   */\n      dup6\n        /* \"#utility.yul\":10892:10914   */\n      add\n        /* \"#utility.yul\":10863:10924   */\n      tag_400\n      jump\t// in\n    tag_579:\n        /* \"#utility.yul\":10853:10924   */\n      swap2\n      pop\n        /* \"#utility.yul\":10809:10934   */\n      pop\n        /* \"#utility.yul\":10596:10941   */\n      swap3\n      swap2\n      pop\n      pop\n      jump\t// out\n        /* \"#utility.yul\":10947:11456   */\n    tag_147:\n        /* \"#utility.yul\":11016:11022   */\n      0x00\n        /* \"#utility.yul\":11065:11067   */\n      0x20\n        /* \"#utility.yul\":11053:11062   */\n      dup3\n        /* \"#utility.yul\":11044:11051   */\n      dup5\n        /* \"#utility.yul\":11040:11063   */\n      sub\n        /* \"#utility.yul\":11036:11068   */\n      slt\n        /* \"#utility.yul\":11033:11152   */\n      iszero\n      tag_581\n      jumpi\n        /* \"#utility.yul\":11071:11150   */\n      tag_582\n      tag_364\n      jump\t// in\n    tag_582:\n        /* \"#utility.yul\":11033:11152   */\n    tag_581:\n        /* \"#utility.yul\":11219:11220   */\n      0x00\n        /* \"#utility.yul\":11208:11217   */\n      dup3\n        /* \"#utility.yul\":11204:11221   */\n      add\n        /* \"#utility.yul\":11191:11222   */\n      calldataload\n        /* \"#utility.yul\":11249:11267   */\n      0xffffffffffffffff\n        /* \"#utility.yul\":11241:11247   */\n      dup2\n        /* \"#utility.yul\":11238:11268   */\n      gt\n        /* \"#utility.yul\":11235:11352   */\n      iszero\n      tag_583\n      jumpi\n        /* \"#utility.yul\":11271:11350   */\n      tag_584\n      tag_365\n      jump\t// in\n    tag_584:\n        /* \"#utility.yul\":11235:11352   */\n    tag_583:\n        /* \"#utility.yul\":11376:11439   */\n      tag_585\n        /* \"#utility.yul\":11431:11438   */\n      dup5\n        /* \"#utility.yul\":11422:11428   */\n      dup3\n        /* \"#utility.yul\":11411:11420   */\n      dup6\n        /* \"#utility.yul\":11407:11429   */\n      add\n        /* \"#utility.yul\":11376:11439   */\n      tag_393\n      jump\t// in\n    tag_585:\n        /* \"#utility.yul\":11366:11439   */\n      swap2\n      pop\n        /* \"#utility.yul\":11162:11449   */\n      pop\n        /* \"#utility.yul\":10947:11456   */\n      swap3\n      swap2\n      pop\n      pop\n      jump\t// out\n        /* \"#utility.yul\":11462:11631   */\n    tag_401:\n        /* \"#utility.yul\":11546:11557   */\n      0x00\n        /* \"#utility.yul\":11580:11586   */\n      dup3\n        /* \"#utility.yul\":11575:11578   */\n      dup3\n        /* \"#utility.yul\":11568:11587   */\n      mstore\n        /* \"#utility.yul\":11620:11624   */\n      0x20\n        /* \"#utility.yul\":11615:11618   */\n      dup3\n        /* \"#utility.yul\":11611:11625   */\n      add\n        /* \"#utility.yul\":11596:11625   */\n      swap1\n      pop\n        /* \"#utility.yul\":11462:11631   */\n      swap3\n      swap2\n      pop\n      pop\n      jump\t// out\n        /* \"#utility.yul\":11637:11810   */\n    tag_402:\n        /* \"#utility.yul\":11777:11802   */\n      0x50726573616c6520616c72656164792073746172746564000000000000000000\n        /* \"#utility.yul\":11773:11774   */\n      0x00\n        /* \"#utility.yul\":11765:11771   */\n      dup3\n        /* \"#utility.yul\":11761:11775   */\n      add\n        /* \"#utility.yul\":11754:11803   */\n      mstore\n        /* \"#utility.yul\":11637:11810   */\n      pop\n      jump\t// out\n        /* \"#utility.yul\":11816:12182   */\n    tag_403:\n        /* \"#utility.yul\":11958:11961   */\n      0x00\n        /* \"#utility.yul\":11979:12046   */\n      tag_589\n        /* \"#utility.yul\":12043:12045   */\n      0x17\n        /* \"#utility.yul\":12038:12041   */\n      dup4\n        /* \"#utility.yul\":11979:12046   */\n      tag_401\n      jump\t// in\n    tag_589:\n        /* \"#utility.yul\":11972:12046   */\n      swap2\n      pop\n        /* \"#utility.yul\":12055:12148   */\n      tag_590\n        /* \"#utility.yul\":12144:12147   */\n      dup3\n        /* \"#utility.yul\":12055:12148   */\n      tag_402\n      jump\t// in\n    tag_590:\n        /* \"#utility.yul\":12173:12175   */\n      0x20\n        /* \"#utility.yul\":12168:12171   */\n      dup3\n        /* \"#utility.yul\":12164:12176   */\n      add\n        /* \"#utility.yul\":12157:12176   */\n      swap1\n      pop\n        /* \"#utility.yul\":11816:12182   */\n      swap2\n      swap1\n      pop\n      jump\t// out\n        /* \"#utility.yul\":12188:12607   */\n    tag_156:\n        /* \"#utility.yul\":12354:12358   */\n      0x00\n        /* \"#utility.yul\":12392:12394   */\n      0x20\n        /* \"#utility.yul\":12381:12390   */\n      dup3\n        /* \"#utility.yul\":12377:12395   */\n      add\n        /* \"#utility.yul\":12369:12395   */\n      swap1\n      pop\n        /* \"#utility.yul\":12441:12450   */\n      dup2\n        /* \"#utility.yul\":12435:12439   */\n      dup2\n        /* \"#utility.yul\":12431:12451   */\n      sub\n        /* \"#utility.yul\":12427:12428   */\n      0x00\n        /* \"#utility.yul\":12416:12425   */\n      dup4\n        /* \"#utility.yul\":12412:12429   */\n      add\n        /* \"#utility.yul\":12405:12452   */\n      mstore\n        /* \"#utility.yul\":12469:12600   */\n      tag_592\n        /* \"#utility.yul\":12595:12599   */\n      dup2\n        /* \"#utility.yul\":12469:12600   */\n      tag_403\n      jump\t// in\n    tag_592:\n        /* \"#utility.yul\":12461:12600   */\n      swap1\n      pop\n        /* \"#utility.yul\":12188:12607   */\n      swap2\n      swap1\n      pop\n      jump\t// out\n        /* \"#utility.yul\":12613:12793   */\n    tag_159:\n        /* \"#utility.yul\":12661:12738   */\n      0x4e487b7100000000000000000000000000000000000000000000000000000000\n        /* \"#utility.yul\":12658:12659   */\n      0x00\n        /* \"#utility.yul\":12651:12739   */\n      mstore\n        /* \"#utility.yul\":12758:12762   */\n      0x32\n        /* \"#utility.yul\":12755:12756   */\n      0x04\n        /* \"#utility.yul\":12748:12763   */\n      mstore\n        /* \"#utility.yul\":12782:12786   */\n      0x24\n        /* \"#utility.yul\":12779:12780   */\n      0x00\n        /* \"#utility.yul\":12772:12787   */\n      revert\n        /* \"#utility.yul\":12799:12979   */\n    tag_404:\n        /* \"#utility.yul\":12847:12924   */\n      0x4e487b7100000000000000000000000000000000000000000000000000000000\n        /* \"#utility.yul\":12844:12845   */\n      0x00\n        /* \"#utility.yul\":12837:12925   */\n      mstore\n        /* \"#utility.yul\":12944:12948   */\n      0x11\n        /* \"#utility.yul\":12941:12942   */\n      0x04\n        /* \"#utility.yul\":12934:12949   */\n      mstore\n        /* \"#utility.yul\":12968:12972   */\n      0x24\n        /* \"#utility.yul\":12965:12966   */\n      0x00\n        /* \"#utility.yul\":12958:12973   */\n      revert\n        /* \"#utility.yul\":12985:13176   */\n    tag_162:\n        /* \"#utility.yul\":13025:13028   */\n      0x00\n        /* \"#utility.yul\":13044:13064   */\n      tag_596\n        /* \"#utility.yul\":13062:13063   */\n      dup3\n        /* \"#utility.yul\":13044:13064   */\n      tag_370\n      jump\t// in\n    tag_596:\n        /* \"#utility.yul\":13039:13064   */\n      swap2\n      pop\n        /* \"#utility.yul\":13078:13098   */\n      tag_597\n        /* \"#utility.yul\":13096:13097   */\n      dup4\n        /* \"#utility.yul\":13078:13098   */\n      tag_370\n      jump\t// in\n    tag_597:\n        /* \"#utility.yul\":13073:13098   */\n      swap3\n      pop\n        /* \"#utility.yul\":13121:13122   */\n      dup3\n        /* \"#utility.yul\":13118:13119   */\n      dup3\n        /* \"#utility.yul\":13114:13123   */\n      add\n        /* \"#utility.yul\":13107:13123   */\n      swap1\n      pop\n        /* \"#utility.yul\":13142:13145   */\n      dup1\n        /* \"#utility.yul\":13139:13140   */\n      dup3\n        /* \"#utility.yul\":13136:13146   */\n      gt\n        /* \"#utility.yul\":13133:13169   */\n      iszero\n      tag_598\n      jumpi\n        /* \"#utility.yul\":13149:13167   */\n      tag_599\n      tag_404\n      jump\t// in\n    tag_599:\n        /* \"#utility.yul\":13133:13169   */\n    tag_598:\n        /* \"#utility.yul\":12985:13176   */\n      swap3\n      swap2\n      pop\n      pop\n      jump\t// out\n        /* \"#utility.yul\":13182:13355   */\n    tag_405:\n        /* \"#utility.yul\":13322:13347   */\n      0x50726573616c65206973207374696c6c20616374697665000000000000000000\n        /* \"#utility.yul\":13318:13319   */\n      0x00\n        /* \"#utility.yul\":13310:13316   */\n      dup3\n        /* \"#utility.yul\":13306:13320   */\n      add\n        /* \"#utility.yul\":13299:13348   */\n      mstore\n        /* \"#utility.yul\":13182:13355   */\n      pop\n      jump\t// out\n        /* \"#utility.yul\":13361:13727   */\n    tag_406:\n        /* \"#utility.yul\":13503:13506   */\n      0x00\n        /* \"#utility.yul\":13524:13591   */\n      tag_602\n        /* \"#utility.yul\":13588:13590   */\n      0x17\n        /* \"#utility.yul\":13583:13586   */\n      dup4\n        /* \"#utility.yul\":13524:13591   */\n      tag_401\n      jump\t// in\n    tag_602:\n        /* \"#utility.yul\":13517:13591   */\n      swap2\n      pop\n        /* \"#utility.yul\":13600:13693   */\n      tag_603\n        /* \"#utility.yul\":13689:13692   */\n      dup3\n        /* \"#utility.yul\":13600:13693   */\n      tag_405\n      jump\t// in\n    tag_603:\n        /* \"#utility.yul\":13718:13720   */\n      0x20\n        /* \"#utility.yul\":13713:13716   */\n      dup3\n        /* \"#utility.yul\":13709:13721   */\n      add\n        /* \"#utility.yul\":13702:13721   */\n      swap1\n      pop\n        /* \"#utility.yul\":13361:13727   */\n      swap2\n      swap1\n      pop\n      jump\t// out\n        /* \"#utility.yul\":13733:14152   */\n    tag_169:\n        /* \"#utility.yul\":13899:13903   */\n      0x00\n        /* \"#utility.yul\":13937:13939   */\n      0x20\n        /* \"#utility.yul\":13926:13935   */\n      dup3\n        /* \"#utility.yul\":13922:13940   */\n      add\n        /* \"#utility.yul\":13914:13940   */\n      swap1\n      pop\n        /* \"#utility.yul\":13986:13995   */\n      dup2\n        /* \"#utility.yul\":13980:13984   */\n      dup2\n        /* \"#utility.yul\":13976:13996   */\n      sub\n        /* \"#utility.yul\":13972:13973   */\n      0x00\n        /* \"#utility.yul\":13961:13970   */\n      dup4\n        /* \"#utility.yul\":13957:13974   */\n      add\n        /* \"#utility.yul\":13950:13997   */\n      mstore\n        /* \"#utility.yul\":14014:14145   */\n      tag_605\n        /* \"#utility.yul\":14140:14144   */\n      dup2\n        /* \"#utility.yul\":14014:14145   */\n      tag_406\n      jump\t// in\n    tag_605:\n        /* \"#utility.yul\":14006:14145   */\n      swap1\n      pop\n        /* \"#utility.yul\":13733:14152   */\n      swap2\n      swap1\n      pop\n      jump\t// out\n        /* \"#utility.yul\":14158:14332   */\n    tag_407:\n        /* \"#utility.yul\":14298:14324   */\n      0x436c61696d20706572696f64206e6f7420737461727465640000000000000000\n        /* \"#utility.yul\":14294:14295   */\n      0x00\n        /* \"#utility.yul\":14286:14292   */\n      dup3\n        /* \"#utility.yul\":14282:14296   */\n      add\n        /* \"#utility.yul\":14275:14325   */\n      mstore\n        /* \"#utility.yul\":14158:14332   */\n      pop\n      jump\t// out\n        /* \"#utility.yul\":14338:14704   */\n    tag_408:\n        /* \"#utility.yul\":14480:14483   */\n      0x00\n        /* \"#utility.yul\":14501:14568   */\n      tag_608\n        /* \"#utility.yul\":14565:14567   */\n      0x18\n        /* \"#utility.yul\":14560:14563   */\n      dup4\n        /* \"#utility.yul\":14501:14568   */\n      tag_401\n      jump\t// in\n    tag_608:\n        /* \"#utility.yul\":14494:14568   */\n      swap2\n      pop\n        /* \"#utility.yul\":14577:14670   */\n      tag_609\n        /* \"#utility.yul\":14666:14669   */\n      dup3\n        /* \"#utility.yul\":14577:14670   */\n      tag_407\n      jump\t// in\n    tag_609:\n        /* \"#utility.yul\":14695:14697   */\n      0x20\n        /* \"#utility.yul\":14690:14693   */\n      dup3\n        /* \"#utility.yul\":14686:14698   */\n      add\n        /* \"#utility.yul\":14679:14698   */\n      swap1\n      pop\n        /* \"#utility.yul\":14338:14704   */\n      swap2\n      swap1\n      pop\n      jump\t// out\n        /* \"#utility.yul\":14710:15129   */\n    tag_177:\n        /* \"#utility.yul\":14876:14880   */\n      0x00\n        /* \"#utility.yul\":14914:14916   */\n      0x20\n        /* \"#utility.yul\":14903:14912   */\n      dup3\n        /* \"#utility.yul\":14899:14917   */\n      add\n        /* \"#utility.yul\":14891:14917   */\n      swap1\n      pop\n        /* \"#utility.yul\":14963:14972   */\n      dup2\n        /* \"#utility.yul\":14957:14961   */\n      dup2\n        /* \"#utility.yul\":14953:14973   */\n      sub\n        /* \"#utility.yul\":14949:14950   */\n      0x00\n        /* \"#utility.yul\":14938:14947   */\n      dup4\n        /* \"#utility.yul\":14934:14951   */\n      add\n        /* \"#utility.yul\":14927:14974   */\n      mstore\n        /* \"#utility.yul\":14991:15122   */\n      tag_611\n        /* \"#utility.yul\":15117:15121   */\n      dup2\n        /* \"#utility.yul\":14991:15122   */\n      tag_408\n      jump\t// in\n    tag_611:\n        /* \"#utility.yul\":14983:15122   */\n      swap1\n      pop\n        /* \"#utility.yul\":14710:15129   */\n      swap2\n      swap1\n      pop\n      jump\t// out\n        /* \"#utility.yul\":15135:15306   */\n    tag_409:\n        /* \"#utility.yul\":15275:15298   */\n      0x474550537320616c726561647920636c61696d65640000000000000000000000\n        /* \"#utility.yul\":15271:15272   */\n      0x00\n        /* \"#utility.yul\":15263:15269   */\n      dup3\n        /* \"#utility.yul\":15259:15273   */\n      add\n        /* \"#utility.yul\":15252:15299   */\n      mstore\n        /* \"#utility.yul\":15135:15306   */\n      pop\n      jump\t// out\n        /* \"#utility.yul\":15312:15678   */\n    tag_410:\n        /* \"#utility.yul\":15454:15457   */\n      0x00\n        /* \"#utility.yul\":15475:15542   */\n      tag_614\n        /* \"#utility.yul\":15539:15541   */\n      0x15\n        /* \"#utility.yul\":15534:15537   */\n      dup4\n        /* \"#utility.yul\":15475:15542   */\n      tag_401\n      jump\t// in\n    tag_614:\n        /* \"#utility.yul\":15468:15542   */\n      swap2\n      pop\n        /* \"#utility.yul\":15551:15644   */\n      tag_615\n        /* \"#utility.yul\":15640:15643   */\n      dup3\n        /* \"#utility.yul\":15551:15644   */\n      tag_409\n      jump\t// in\n    tag_615:\n        /* \"#utility.yul\":15669:15671   */\n      0x20\n        /* \"#utility.yul\":15664:15667   */\n      dup3\n        /* \"#utility.yul\":15660:15672   */\n      add\n        /* \"#utility.yul\":15653:15672   */\n      swap1\n      pop\n        /* \"#utility.yul\":15312:15678   */\n      swap2\n      swap1\n      pop\n      jump\t// out\n        /* \"#utility.yul\":15684:16103   */\n    tag_180:\n        /* \"#utility.yul\":15850:15854   */\n      0x00\n        /* \"#utility.yul\":15888:15890   */\n      0x20\n        /* \"#utility.yul\":15877:15886   */\n      dup3\n        /* \"#utility.yul\":15873:15891   */\n      add\n        /* \"#utility.yul\":15865:15891   */\n      swap1\n      pop\n        /* \"#utility.yul\":15937:15946   */\n      dup2\n        /* \"#utility.yul\":15931:15935   */\n      dup2\n        /* \"#utility.yul\":15927:15947   */\n      sub\n        /* \"#utility.yul\":15923:15924   */\n      0x00\n        /* \"#utility.yul\":15912:15921   */\n      dup4\n        /* \"#utility.yul\":15908:15925   */\n      add\n        /* \"#utility.yul\":15901:15948   */\n      mstore\n        /* \"#utility.yul\":15965:16096   */\n      tag_617\n        /* \"#utility.yul\":16091:16095   */\n      dup2\n        /* \"#utility.yul\":15965:16096   */\n      tag_410\n      jump\t// in\n    tag_617:\n        /* \"#utility.yul\":15957:16096   */\n      swap1\n      pop\n        /* \"#utility.yul\":15684:16103   */\n      swap2\n      swap1\n      pop\n      jump\t// out\n        /* \"#utility.yul\":16109:16276   */\n    tag_411:\n        /* \"#utility.yul\":16249:16268   */\n      0x4e6f20474550537320746f20636c61696d000000000000000000000000000000\n        /* \"#utility.yul\":16245:16246   */\n      0x00\n        /* \"#utility.yul\":16237:16243   */\n      dup3\n        /* \"#utility.yul\":16233:16247   */\n      add\n        /* \"#utility.yul\":16226:16269   */\n      mstore\n        /* \"#utility.yul\":16109:16276   */\n      pop\n      jump\t// out\n        /* \"#utility.yul\":16282:16648   */\n    tag_412:\n        /* \"#utility.yul\":16424:16427   */\n      0x00\n        /* \"#utility.yul\":16445:16512   */\n      tag_620\n        /* \"#utility.yul\":16509:16511   */\n      0x11\n        /* \"#utility.yul\":16504:16507   */\n      dup4\n        /* \"#utility.yul\":16445:16512   */\n      tag_401\n      jump\t// in\n    tag_620:\n        /* \"#utility.yul\":16438:16512   */\n      swap2\n      pop\n        /* \"#utility.yul\":16521:16614   */\n      tag_621\n        /* \"#utility.yul\":16610:16613   */\n      dup3\n        /* \"#utility.yul\":16521:16614   */\n      tag_411\n      jump\t// in\n    tag_621:\n        /* \"#utility.yul\":16639:16641   */\n      0x20\n        /* \"#utility.yul\":16634:16637   */\n      dup3\n        /* \"#utility.yul\":16630:16642   */\n      add\n        /* \"#utility.yul\":16623:16642   */\n      swap1\n      pop\n        /* \"#utility.yul\":16282:16648   */\n      swap2\n      swap1\n      pop\n      jump\t// out\n        /* \"#utility.yul\":16654:17073   */\n    tag_183:\n        /* \"#utility.yul\":16820:16824   */\n      0x00\n        /* \"#utility.yul\":16858:16860   */\n      0x20\n        /* \"#utility.yul\":16847:16856   */\n      dup3\n        /* \"#utility.yul\":16843:16861   */\n      add\n        /* \"#utility.yul\":16835:16861   */\n      swap1\n      pop\n        /* \"#utility.yul\":16907:16916   */\n      dup2\n        /* \"#utility.yul\":16901:16905   */\n      dup2\n        /* \"#utility.yul\":16897:16917   */\n      sub\n        /* \"#utility.yul\":16893:16894   */\n      0x00\n        /* \"#utility.yul\":16882:16891   */\n      dup4\n        /* \"#utility.yul\":16878:16895   */\n      add\n        /* \"#utility.yul\":16871:16918   */\n      mstore\n        /* \"#utility.yul\":16935:17066   */\n      tag_623\n        /* \"#utility.yul\":17061:17065   */\n      dup2\n        /* \"#utility.yul\":16935:17066   */\n      tag_412\n      jump\t// in\n    tag_623:\n        /* \"#utility.yul\":16927:17066   */\n      swap1\n      pop\n        /* \"#utility.yul\":16654:17073   */\n      swap2\n      swap1\n      pop\n      jump\t// out\n        /* \"#utility.yul\":17079:17411   */\n    tag_185:\n        /* \"#utility.yul\":17200:17204   */\n      0x00\n        /* \"#utility.yul\":17238:17240   */\n      0x40\n        /* \"#utility.yul\":17227:17236   */\n      dup3\n        /* \"#utility.yul\":17223:17241   */\n      add\n        /* \"#utility.yul\":17215:17241   */\n      swap1\n      pop\n        /* \"#utility.yul\":17251:17322   */\n      tag_625\n        /* \"#utility.yul\":17319:17320   */\n      0x00\n        /* \"#utility.yul\":17308:17317   */\n      dup4\n        /* \"#utility.yul\":17304:17321   */\n      add\n        /* \"#utility.yul\":17295:17301   */\n      dup6\n        /* \"#utility.yul\":17251:17322   */\n      tag_382\n      jump\t// in\n    tag_625:\n        /* \"#utility.yul\":17332:17404   */\n      tag_626\n        /* \"#utility.yul\":17400:17402   */\n      0x20\n        /* \"#utility.yul\":17389:17398   */\n      dup4\n        /* \"#utility.yul\":17385:17403   */\n      add\n        /* \"#utility.yul\":17376:17382   */\n      dup5\n        /* \"#utility.yul\":17332:17404   */\n      tag_371\n      jump\t// in\n    tag_626:\n        /* \"#utility.yul\":17079:17411   */\n      swap4\n      swap3\n      pop\n      pop\n      pop\n      jump\t// out\n        /* \"#utility.yul\":17417:17533   */\n    tag_413:\n        /* \"#utility.yul\":17487:17508   */\n      tag_628\n        /* \"#utility.yul\":17502:17507   */\n      dup2\n        /* \"#utility.yul\":17487:17508   */\n      tag_394\n      jump\t// in\n    tag_628:\n        /* \"#utility.yul\":17480:17485   */\n      dup2\n        /* \"#utility.yul\":17477:17509   */\n      eq\n        /* \"#utility.yul\":17467:17527   */\n      tag_629\n      jumpi\n        /* \"#utility.yul\":17523:17524   */\n      0x00\n        /* \"#utility.yul\":17520:17521   */\n      dup1\n        /* \"#utility.yul\":17513:17525   */\n      revert\n        /* \"#utility.yul\":17467:17527   */\n    tag_629:\n        /* \"#utility.yul\":17417:17533   */\n      pop\n      jump\t// out\n        /* \"#utility.yul\":17539:17676   */\n    tag_414:\n        /* \"#utility.yul\":17593:17598   */\n      0x00\n        /* \"#utility.yul\":17624:17630   */\n      dup2\n        /* \"#utility.yul\":17618:17631   */\n      mload\n        /* \"#utility.yul\":17609:17631   */\n      swap1\n      pop\n        /* \"#utility.yul\":17640:17670   */\n      tag_631\n        /* \"#utility.yul\":17664:17669   */\n      dup2\n        /* \"#utility.yul\":17640:17670   */\n      tag_413\n      jump\t// in\n    tag_631:\n        /* \"#utility.yul\":17539:17676   */\n      swap3\n      swap2\n      pop\n      pop\n      jump\t// out\n        /* \"#utility.yul\":17682:18027   */\n    tag_189:\n        /* \"#utility.yul\":17749:17755   */\n      0x00\n        /* \"#utility.yul\":17798:17800   */\n      0x20\n        /* \"#utility.yul\":17786:17795   */\n      dup3\n        /* \"#utility.yul\":17777:17784   */\n      dup5\n        /* \"#utility.yul\":17773:17796   */\n      sub\n        /* \"#utility.yul\":17769:17801   */\n      slt\n        /* \"#utility.yul\":17766:17885   */\n      iszero\n      tag_633\n      jumpi\n        /* \"#utility.yul\":17804:17883   */\n      tag_634\n      tag_364\n      jump\t// in\n    tag_634:\n        /* \"#utility.yul\":17766:17885   */\n    tag_633:\n        /* \"#utility.yul\":17924:17925   */\n      0x00\n        /* \"#utility.yul\":17949:18010   */\n      tag_635\n        /* \"#utility.yul\":18002:18009   */\n      dup5\n        /* \"#utility.yul\":17993:17999   */\n      dup3\n        /* \"#utility.yul\":17982:17991   */\n      dup6\n        /* \"#utility.yul\":17978:18000   */\n      add\n        /* \"#utility.yul\":17949:18010   */\n      tag_414\n      jump\t// in\n    tag_635:\n        /* \"#utility.yul\":17939:18010   */\n      swap2\n      pop\n        /* \"#utility.yul\":17895:18020   */\n      pop\n        /* \"#utility.yul\":17682:18027   */\n      swap3\n      swap2\n      pop\n      pop\n      jump\t// out\n        /* \"#utility.yul\":18033:18190   */\n    tag_415:\n        /* \"#utility.yul\":18173:18182   */\n      0x504643523a303100000000000000000000000000000000000000000000000000\n        /* \"#utility.yul\":18169:18170   */\n      0x00\n        /* \"#utility.yul\":18161:18167   */\n      dup3\n        /* \"#utility.yul\":18157:18171   */\n      add\n        /* \"#utility.yul\":18150:18183   */\n      mstore\n        /* \"#utility.yul\":18033:18190   */\n      pop\n      jump\t// out\n        /* \"#utility.yul\":18196:18561   */\n    tag_416:\n        /* \"#utility.yul\":18338:18341   */\n      0x00\n        /* \"#utility.yul\":18359:18425   */\n      tag_638\n        /* \"#utility.yul\":18423:18424   */\n      0x07\n        /* \"#utility.yul\":18418:18421   */\n      dup4\n        /* \"#utility.yul\":18359:18425   */\n      tag_401\n      jump\t// in\n    tag_638:\n        /* \"#utility.yul\":18352:18425   */\n      swap2\n      pop\n        /* \"#utility.yul\":18434:18527   */\n      tag_639\n        /* \"#utility.yul\":18523:18526   */\n      dup3\n        /* \"#utility.yul\":18434:18527   */\n      tag_415\n      jump\t// in\n    tag_639:\n        /* \"#utility.yul\":18552:18554   */\n      0x20\n        /* \"#utility.yul\":18547:18550   */\n      dup3\n        /* \"#utility.yul\":18543:18555   */\n      add\n        /* \"#utility.yul\":18536:18555   */\n      swap1\n      pop\n        /* \"#utility.yul\":18196:18561   */\n      swap2\n      swap1\n      pop\n      jump\t// out\n        /* \"#utility.yul\":18567:18986   */\n    tag_205:\n        /* \"#utility.yul\":18733:18737   */\n      0x00\n        /* \"#utility.yul\":18771:18773   */\n      0x20\n        /* \"#utility.yul\":18760:18769   */\n      dup3\n        /* \"#utility.yul\":18756:18774   */\n      add\n        /* \"#utility.yul\":18748:18774   */\n      swap1\n      pop\n        /* \"#utility.yul\":18820:18829   */\n      dup2\n        /* \"#utility.yul\":18814:18818   */\n      dup2\n        /* \"#utility.yul\":18810:18830   */\n      sub\n        /* \"#utility.yul\":18806:18807   */\n      0x00\n        /* \"#utility.yul\":18795:18804   */\n      dup4\n        /* \"#utility.yul\":18791:18808   */\n      add\n        /* \"#utility.yul\":18784:18831   */\n      mstore\n        /* \"#utility.yul\":18848:18979   */\n      tag_641\n        /* \"#utility.yul\":18974:18978   */\n      dup2\n        /* \"#utility.yul\":18848:18979   */\n      tag_416\n      jump\t// in\n    tag_641:\n        /* \"#utility.yul\":18840:18979   */\n      swap1\n      pop\n        /* \"#utility.yul\":18567:18986   */\n      swap2\n      swap1\n      pop\n      jump\t// out\n        /* \"#utility.yul\":18992:19109   */\n    tag_417:\n        /* \"#utility.yul\":19101:19102   */\n      0x00\n        /* \"#utility.yul\":19098:19099   */\n      dup1\n        /* \"#utility.yul\":19091:19103   */\n      revert\n        /* \"#utility.yul\":19115:19232   */\n    tag_418:\n        /* \"#utility.yul\":19224:19225   */\n      0x00\n        /* \"#utility.yul\":19221:19222   */\n      dup1\n        /* \"#utility.yul\":19214:19226   */\n      revert\n        /* \"#utility.yul\":19238:19355   */\n    tag_419:\n        /* \"#utility.yul\":19347:19348   */\n      0x00\n        /* \"#utility.yul\":19344:19345   */\n      dup1\n        /* \"#utility.yul\":19337:19349   */\n      revert\n        /* \"#utility.yul\":19361:20086   */\n    tag_215:\n        /* \"#utility.yul\":19439:19443   */\n      0x00\n        /* \"#utility.yul\":19445:19451   */\n      dup1\n        /* \"#utility.yul\":19501:19512   */\n      dup4\n        /* \"#utility.yul\":19488:19513   */\n      calldataload\n        /* \"#utility.yul\":19601:19602   */\n      0x01\n        /* \"#utility.yul\":19595:19599   */\n      0x20\n        /* \"#utility.yul\":19591:19603   */\n      sub\n        /* \"#utility.yul\":19580:19588   */\n      dup5\n        /* \"#utility.yul\":19564:19578   */\n      calldatasize\n        /* \"#utility.yul\":19560:19589   */\n      sub\n        /* \"#utility.yul\":19556:19604   */\n      sub\n        /* \"#utility.yul\":19536:19554   */\n      dup2\n        /* \"#utility.yul\":19532:19605   */\n      slt\n        /* \"#utility.yul\":19522:19690   */\n      tag_646\n      jumpi\n        /* \"#utility.yul\":19609:19688   */\n      tag_647\n      tag_417\n      jump\t// in\n    tag_647:\n        /* \"#utility.yul\":19522:19690   */\n    tag_646:\n        /* \"#utility.yul\":19721:19739   */\n      dup1\n        /* \"#utility.yul\":19711:19719   */\n      dup5\n        /* \"#utility.yul\":19707:19740   */\n      add\n        /* \"#utility.yul\":19699:19740   */\n      swap3\n      pop\n        /* \"#utility.yul\":19773:19777   */\n      dup3\n        /* \"#utility.yul\":19760:19778   */\n      calldataload\n        /* \"#utility.yul\":19750:19778   */\n      swap2\n      pop\n        /* \"#utility.yul\":19801:19819   */\n      0xffffffffffffffff\n        /* \"#utility.yul\":19793:19799   */\n      dup3\n        /* \"#utility.yul\":19790:19820   */\n      gt\n        /* \"#utility.yul\":19787:19904   */\n      iszero\n      tag_648\n      jumpi\n        /* \"#utility.yul\":19823:19902   */\n      tag_649\n      tag_418\n      jump\t// in\n    tag_649:\n        /* \"#utility.yul\":19787:19904   */\n    tag_648:\n        /* \"#utility.yul\":19931:19933   */\n      0x20\n        /* \"#utility.yul\":19925:19929   */\n      dup4\n        /* \"#utility.yul\":19921:19934   */\n      add\n        /* \"#utility.yul\":19913:19934   */\n      swap3\n      pop\n        /* \"#utility.yul\":19988:19992   */\n      0x01\n        /* \"#utility.yul\":19980:19986   */\n      dup3\n        /* \"#utility.yul\":19976:19993   */\n      mul\n        /* \"#utility.yul\":19960:19974   */\n      calldatasize\n        /* \"#utility.yul\":19956:19994   */\n      sub\n        /* \"#utility.yul\":19950:19954   */\n      dup4\n        /* \"#utility.yul\":19946:19995   */\n      sgt\n        /* \"#utility.yul\":19943:20079   */\n      iszero\n      tag_650\n      jumpi\n        /* \"#utility.yul\":19998:20077   */\n      tag_651\n      tag_419\n      jump\t// in\n    tag_651:\n        /* \"#utility.yul\":19943:20079   */\n    tag_650:\n        /* \"#utility.yul\":19452:20086   */\n      pop\n        /* \"#utility.yul\":19361:20086   */\n      swap3\n      pop\n      swap3\n      swap1\n      pop\n      jump\t// out\n        /* \"#utility.yul\":20092:20240   */\n    tag_420:\n        /* \"#utility.yul\":20194:20205   */\n      0x00\n        /* \"#utility.yul\":20231:20234   */\n      dup2\n        /* \"#utility.yul\":20216:20234   */\n      swap1\n      pop\n        /* \"#utility.yul\":20092:20240   */\n      swap3\n      swap2\n      pop\n      pop\n      jump\t// out\n        /* \"#utility.yul\":20270:20600   */\n    tag_421:\n        /* \"#utility.yul\":20386:20389   */\n      0x00\n        /* \"#utility.yul\":20407:20496   */\n      tag_654\n        /* \"#utility.yul\":20489:20495   */\n      dup4\n        /* \"#utility.yul\":20484:20487   */\n      dup6\n        /* \"#utility.yul\":20407:20496   */\n      tag_420\n      jump\t// in\n    tag_654:\n        /* \"#utility.yul\":20400:20496   */\n      swap4\n      pop\n        /* \"#utility.yul\":20506:20562   */\n      tag_655\n        /* \"#utility.yul\":20555:20561   */\n      dup4\n        /* \"#utility.yul\":20550:20553   */\n      dup6\n        /* \"#utility.yul\":20543:20548   */\n      dup5\n        /* \"#utility.yul\":20506:20562   */\n      tag_391\n      jump\t// in\n    tag_655:\n        /* \"#utility.yul\":20587:20593   */\n      dup3\n        /* \"#utility.yul\":20582:20585   */\n      dup5\n        /* \"#utility.yul\":20578:20594   */\n      add\n        /* \"#utility.yul\":20571:20594   */\n      swap1\n      pop\n        /* \"#utility.yul\":20270:20600   */\n      swap4\n      swap3\n      pop\n      pop\n      pop\n      jump\t// out\n        /* \"#utility.yul\":20606:20901   */\n    tag_217:\n        /* \"#utility.yul\":20748:20751   */\n      0x00\n        /* \"#utility.yul\":20770:20875   */\n      tag_657\n        /* \"#utility.yul\":20871:20874   */\n      dup3\n        /* \"#utility.yul\":20862:20868   */\n      dup5\n        /* \"#utility.yul\":20854:20860   */\n      dup7\n        /* \"#utility.yul\":20770:20875   */\n      tag_421\n      jump\t// in\n    tag_657:\n        /* \"#utility.yul\":20763:20875   */\n      swap2\n      pop\n        /* \"#utility.yul\":20892:20895   */\n      dup2\n        /* \"#utility.yul\":20885:20895   */\n      swap1\n      pop\n        /* \"#utility.yul\":20606:20901   */\n      swap4\n      swap3\n      pop\n      pop\n      pop\n      jump\t// out\n        /* \"#utility.yul\":20907:21076   */\n    tag_422:\n        /* \"#utility.yul\":21047:21068   */\n      0x50726573616c65204e6f74207374617274656400000000000000000000000000\n        /* \"#utility.yul\":21043:21044   */\n      0x00\n        /* \"#utility.yul\":21035:21041   */\n      dup3\n        /* \"#utility.yul\":21031:21045   */\n      add\n        /* \"#utility.yul\":21024:21069   */\n      mstore\n        /* \"#utility.yul\":20907:21076   */\n      pop\n      jump\t// out\n        /* \"#utility.yul\":21082:21448   */\n    tag_423:\n        /* \"#utility.yul\":21224:21227   */\n      0x00\n        /* \"#utility.yul\":21245:21312   */\n      tag_660\n        /* \"#utility.yul\":21309:21311   */\n      0x13\n        /* \"#utility.yul\":21304:21307   */\n      dup4\n        /* \"#utility.yul\":21245:21312   */\n      tag_401\n      jump\t// in\n    tag_660:\n        /* \"#utility.yul\":21238:21312   */\n      swap2\n      pop\n        /* \"#utility.yul\":21321:21414   */\n      tag_661\n        /* \"#utility.yul\":21410:21413   */\n      dup3\n        /* \"#utility.yul\":21321:21414   */\n      tag_422\n      jump\t// in\n    tag_661:\n        /* \"#utility.yul\":21439:21441   */\n      0x20\n        /* \"#utility.yul\":21434:21437   */\n      dup3\n        /* \"#utility.yul\":21430:21442   */\n      add\n        /* \"#utility.yul\":21423:21442   */\n      swap1\n      pop\n        /* \"#utility.yul\":21082:21448   */\n      swap2\n      swap1\n      pop\n      jump\t// out\n        /* \"#utility.yul\":21454:21873   */\n    tag_221:\n        /* \"#utility.yul\":21620:21624   */\n      0x00\n        /* \"#utility.yul\":21658:21660   */\n      0x20\n        /* \"#utility.yul\":21647:21656   */\n      dup3\n        /* \"#utility.yul\":21643:21661   */\n      add\n        /* \"#utility.yul\":21635:21661   */\n      swap1\n      pop\n        /* \"#utility.yul\":21707:21716   */\n      dup2\n        /* \"#utility.yul\":21701:21705   */\n      dup2\n        /* \"#utility.yul\":21697:21717   */\n      sub\n        /* \"#utility.yul\":21693:21694   */\n      0x00\n        /* \"#utility.yul\":21682:21691   */\n      dup4\n        /* \"#utility.yul\":21678:21695   */\n      add\n        /* \"#utility.yul\":21671:21718   */\n      mstore\n        /* \"#utility.yul\":21735:21866   */\n      tag_663\n        /* \"#utility.yul\":21861:21865   */\n      dup2\n        /* \"#utility.yul\":21735:21866   */\n      tag_423\n      jump\t// in\n    tag_663:\n        /* \"#utility.yul\":21727:21866   */\n      swap1\n      pop\n        /* \"#utility.yul\":21454:21873   */\n      swap2\n      swap1\n      pop\n      jump\t// out\n        /* \"#utility.yul\":21879:22061   */\n    tag_424:\n        /* \"#utility.yul\":22019:22053   */\n      0x416d6f756e74206d7573742062652067726561746572207468616e207a65726f\n        /* \"#utility.yul\":22015:22016   */\n      0x00\n        /* \"#utility.yul\":22007:22013   */\n      dup3\n        /* \"#utility.yul\":22003:22017   */\n      add\n        /* \"#utility.yul\":21996:22054   */\n      mstore\n        /* \"#utility.yul\":21879:22061   */\n      pop\n      jump\t// out\n        /* \"#utility.yul\":22067:22433   */\n    tag_425:\n        /* \"#utility.yul\":22209:22212   */\n      0x00\n        /* \"#utility.yul\":22230:22297   */\n      tag_666\n        /* \"#utility.yul\":22294:22296   */\n      0x20\n        /* \"#utility.yul\":22289:22292   */\n      dup4\n        /* \"#utility.yul\":22230:22297   */\n      tag_401\n      jump\t// in\n    tag_666:\n        /* \"#utility.yul\":22223:22297   */\n      swap2\n      pop\n        /* \"#utility.yul\":22306:22399   */\n      tag_667\n        /* \"#utility.yul\":22395:22398   */\n      dup3\n        /* \"#utility.yul\":22306:22399   */\n      tag_424\n      jump\t// in\n    tag_667:\n        /* \"#utility.yul\":22424:22426   */\n      0x20\n        /* \"#utility.yul\":22419:22422   */\n      dup3\n        /* \"#utility.yul\":22415:22427   */\n      add\n        /* \"#utility.yul\":22408:22427   */\n      swap1\n      pop\n        /* \"#utility.yul\":22067:22433   */\n      swap2\n      swap1\n      pop\n      jump\t// out\n        /* \"#utility.yul\":22439:22858   */\n    tag_224:\n        /* \"#utility.yul\":22605:22609   */\n      0x00\n        /* \"#utility.yul\":22643:22645   */\n      0x20\n        /* \"#utility.yul\":22632:22641   */\n      dup3\n        /* \"#utility.yul\":22628:22646   */\n      add\n        /* \"#utility.yul\":22620:22646   */\n      swap1\n      pop\n        /* \"#utility.yul\":22692:22701   */\n      dup2\n        /* \"#utility.yul\":22686:22690   */\n      dup2\n        /* \"#utility.yul\":22682:22702   */\n      sub\n        /* \"#utility.yul\":22678:22679   */\n      0x00\n        /* \"#utility.yul\":22667:22676   */\n      dup4\n        /* \"#utility.yul\":22663:22680   */\n      add\n        /* \"#utility.yul\":22656:22703   */\n      mstore\n        /* \"#utility.yul\":22720:22851   */\n      tag_669\n        /* \"#utility.yul\":22846:22850   */\n      dup2\n        /* \"#utility.yul\":22720:22851   */\n      tag_425\n      jump\t// in\n    tag_669:\n        /* \"#utility.yul\":22712:22851   */\n      swap1\n      pop\n        /* \"#utility.yul\":22439:22858   */\n      swap2\n      swap1\n      pop\n      jump\t// out\n        /* \"#utility.yul\":22864:23035   */\n    tag_426:\n        /* \"#utility.yul\":23004:23027   */\n      0x496e73756666696369656e7420424e422073656e740000000000000000000000\n        /* \"#utility.yul\":23000:23001   */\n      0x00\n        /* \"#utility.yul\":22992:22998   */\n      dup3\n        /* \"#utility.yul\":22988:23002   */\n      add\n        /* \"#utility.yul\":22981:23028   */\n      mstore\n        /* \"#utility.yul\":22864:23035   */\n      pop\n      jump\t// out\n        /* \"#utility.yul\":23041:23407   */\n    tag_427:\n        /* \"#utility.yul\":23183:23186   */\n      0x00\n        /* \"#utility.yul\":23204:23271   */\n      tag_672\n        /* \"#utility.yul\":23268:23270   */\n      0x15\n        /* \"#utility.yul\":23263:23266   */\n      dup4\n        /* \"#utility.yul\":23204:23271   */\n      tag_401\n      jump\t// in\n    tag_672:\n        /* \"#utility.yul\":23197:23271   */\n      swap2\n      pop\n        /* \"#utility.yul\":23280:23373   */\n      tag_673\n        /* \"#utility.yul\":23369:23372   */\n      dup3\n        /* \"#utility.yul\":23280:23373   */\n      tag_426\n      jump\t// in\n    tag_673:\n        /* \"#utility.yul\":23398:23400   */\n      0x20\n        /* \"#utility.yul\":23393:23396   */\n      dup3\n        /* \"#utility.yul\":23389:23401   */\n      add\n        /* \"#utility.yul\":23382:23401   */\n      swap1\n      pop\n        /* \"#utility.yul\":23041:23407   */\n      swap2\n      swap1\n      pop\n      jump\t// out\n        /* \"#utility.yul\":23413:23832   */\n    tag_240:\n        /* \"#utility.yul\":23579:23583   */\n      0x00\n        /* \"#utility.yul\":23617:23619   */\n      0x20\n        /* \"#utility.yul\":23606:23615   */\n      dup3\n        /* \"#utility.yul\":23602:23620   */\n      add\n        /* \"#utility.yul\":23594:23620   */\n      swap1\n      pop\n        /* \"#utility.yul\":23666:23675   */\n      dup2\n        /* \"#utility.yul\":23660:23664   */\n      dup2\n        /* \"#utility.yul\":23656:23676   */\n      sub\n        /* \"#utility.yul\":23652:23653   */\n      0x00\n        /* \"#utility.yul\":23641:23650   */\n      dup4\n        /* \"#utility.yul\":23637:23654   */\n      add\n        /* \"#utility.yul\":23630:23677   */\n      mstore\n        /* \"#utility.yul\":23694:23825   */\n      tag_675\n        /* \"#utility.yul\":23820:23824   */\n      dup2\n        /* \"#utility.yul\":23694:23825   */\n      tag_427\n      jump\t// in\n    tag_675:\n        /* \"#utility.yul\":23686:23825   */\n      swap1\n      pop\n        /* \"#utility.yul\":23413:23832   */\n      swap2\n      swap1\n      pop\n      jump\t// out\n        /* \"#utility.yul\":23838:23972   */\n    tag_428:\n        /* \"#utility.yul\":23896:23905   */\n      0x00\n        /* \"#utility.yul\":23929:23966   */\n      tag_677\n        /* \"#utility.yul\":23960:23965   */\n      dup3\n        /* \"#utility.yul\":23929:23966   */\n      tag_374\n      jump\t// in\n    tag_677:\n        /* \"#utility.yul\":23916:23966   */\n      swap1\n      pop\n        /* \"#utility.yul\":23838:23972   */\n      swap2\n      swap1\n      pop\n      jump\t// out\n        /* \"#utility.yul\":23978:24125   */\n    tag_429:\n        /* \"#utility.yul\":24073:24118   */\n      tag_679\n        /* \"#utility.yul\":24112:24117   */\n      dup2\n        /* \"#utility.yul\":24073:24118   */\n      tag_428\n      jump\t// in\n    tag_679:\n        /* \"#utility.yul\":24068:24071   */\n      dup3\n        /* \"#utility.yul\":24061:24119   */\n      mstore\n        /* \"#utility.yul\":23978:24125   */\n      pop\n      pop\n      jump\t// out\n        /* \"#utility.yul\":24131:24589   */\n    tag_246:\n        /* \"#utility.yul\":24288:24292   */\n      0x00\n        /* \"#utility.yul\":24326:24328   */\n      0x60\n        /* \"#utility.yul\":24315:24324   */\n      dup3\n        /* \"#utility.yul\":24311:24329   */\n      add\n        /* \"#utility.yul\":24303:24329   */\n      swap1\n      pop\n        /* \"#utility.yul\":24339:24410   */\n      tag_681\n        /* \"#utility.yul\":24407:24408   */\n      0x00\n        /* \"#utility.yul\":24396:24405   */\n      dup4\n        /* \"#utility.yul\":24392:24409   */\n      add\n        /* \"#utility.yul\":24383:24389   */\n      dup7\n        /* \"#utility.yul\":24339:24410   */\n      tag_382\n      jump\t// in\n    tag_681:\n        /* \"#utility.yul\":24420:24500   */\n      tag_682\n        /* \"#utility.yul\":24496:24498   */\n      0x20\n        /* \"#utility.yul\":24485:24494   */\n      dup4\n        /* \"#utility.yul\":24481:24499   */\n      add\n        /* \"#utility.yul\":24472:24478   */\n      dup6\n        /* \"#utility.yul\":24420:24500   */\n      tag_429\n      jump\t// in\n    tag_682:\n        /* \"#utility.yul\":24510:24582   */\n      tag_683\n        /* \"#utility.yul\":24578:24580   */\n      0x40\n        /* \"#utility.yul\":24567:24576   */\n      dup4\n        /* \"#utility.yul\":24563:24581   */\n      add\n        /* \"#utility.yul\":24554:24560   */\n      dup5\n        /* \"#utility.yul\":24510:24582   */\n      tag_371\n      jump\t// in\n    tag_683:\n        /* \"#utility.yul\":24131:24589   */\n      swap5\n      swap4\n      pop\n      pop\n      pop\n      pop\n      jump\t// out\n        /* \"#utility.yul\":24595:24765   */\n    tag_430:\n        /* \"#utility.yul\":24735:24757   */\n      0x42555344207472616e73666572206661696c6564000000000000000000000000\n        /* \"#utility.yul\":24731:24732   */\n      0x00\n        /* \"#utility.yul\":24723:24729   */\n      dup3\n        /* \"#utility.yul\":24719:24733   */\n      add\n        /* \"#utility.yul\":24712:24758   */\n      mstore\n        /* \"#utility.yul\":24595:24765   */\n      pop\n      jump\t// out\n        /* \"#utility.yul\":24771:25137   */\n    tag_431:\n        /* \"#utility.yul\":24913:24916   */\n      0x00\n        /* \"#utility.yul\":24934:25001   */\n      tag_686\n        /* \"#utility.yul\":24998:25000   */\n      0x14\n        /* \"#utility.yul\":24993:24996   */\n      dup4\n        /* \"#utility.yul\":24934:25001   */\n      tag_401\n      jump\t// in\n    tag_686:\n        /* \"#utility.yul\":24927:25001   */\n      swap2\n      pop\n        /* \"#utility.yul\":25010:25103   */\n      tag_687\n        /* \"#utility.yul\":25099:25102   */\n      dup3\n        /* \"#utility.yul\":25010:25103   */\n      tag_430\n      jump\t// in\n    tag_687:\n        /* \"#utility.yul\":25128:25130   */\n      0x20\n        /* \"#utility.yul\":25123:25126   */\n      dup3\n        /* \"#utility.yul\":25119:25131   */\n      add\n        /* \"#utility.yul\":25112:25131   */\n      swap1\n      pop\n        /* \"#utility.yul\":24771:25137   */\n      swap2\n      swap1\n      pop\n      jump\t// out\n        /* \"#utility.yul\":25143:25562   */\n    tag_252:\n        /* \"#utility.yul\":25309:25313   */\n      0x00\n        /* \"#utility.yul\":25347:25349   */\n      0x20\n        /* \"#utility.yul\":25336:25345   */\n      dup3\n        /* \"#utility.yul\":25332:25350   */\n      add\n        /* \"#utility.yul\":25324:25350   */\n      swap1\n      pop\n        /* \"#utility.yul\":25396:25405   */\n      dup2\n        /* \"#utility.yul\":25390:25394   */\n      dup2\n        /* \"#utility.yul\":25386:25406   */\n      sub\n        /* \"#utility.yul\":25382:25383   */\n      0x00\n        /* \"#utility.yul\":25371:25380   */\n      dup4\n        /* \"#utility.yul\":25367:25384   */\n      add\n        /* \"#utility.yul\":25360:25407   */\n      mstore\n        /* \"#utility.yul\":25424:25555   */\n      tag_689\n        /* \"#utility.yul\":25550:25554   */\n      dup2\n        /* \"#utility.yul\":25424:25555   */\n      tag_431\n      jump\t// in\n    tag_689:\n        /* \"#utility.yul\":25416:25555   */\n      swap1\n      pop\n        /* \"#utility.yul\":25143:25562   */\n      swap2\n      swap1\n      pop\n      jump\t// out\n        /* \"#utility.yul\":25568:25738   */\n    tag_432:\n        /* \"#utility.yul\":25708:25730   */\n      0x556e737570706f727465642063757272656e6379000000000000000000000000\n        /* \"#utility.yul\":25704:25705   */\n      0x00\n        /* \"#utility.yul\":25696:25702   */\n      dup3\n        /* \"#utility.yul\":25692:25706   */\n      add\n        /* \"#utility.yul\":25685:25731   */\n      mstore\n        /* \"#utility.yul\":25568:25738   */\n      pop\n      jump\t// out\n        /* \"#utility.yul\":25744:26110   */\n    tag_433:\n        /* \"#utility.yul\":25886:25889   */\n      0x00\n        /* \"#utility.yul\":25907:25974   */\n      tag_692\n        /* \"#utility.yul\":25971:25973   */\n      0x14\n        /* \"#utility.yul\":25966:25969   */\n      dup4\n        /* \"#utility.yul\":25907:25974   */\n      tag_401\n      jump\t// in\n    tag_692:\n        /* \"#utility.yul\":25900:25974   */\n      swap2\n      pop\n        /* \"#utility.yul\":25983:26076   */\n      tag_693\n        /* \"#utility.yul\":26072:26075   */\n      dup3\n        /* \"#utility.yul\":25983:26076   */\n      tag_432\n      jump\t// in\n    tag_693:\n        /* \"#utility.yul\":26101:26103   */\n      0x20\n        /* \"#utility.yul\":26096:26099   */\n      dup3\n        /* \"#utility.yul\":26092:26104   */\n      add\n        /* \"#utility.yul\":26085:26104   */\n      swap1\n      pop\n        /* \"#utility.yul\":25744:26110   */\n      swap2\n      swap1\n      pop\n      jump\t// out\n        /* \"#utility.yul\":26116:26535   */\n    tag_255:\n        /* \"#utility.yul\":26282:26286   */\n      0x00\n        /* \"#utility.yul\":26320:26322   */\n      0x20\n        /* \"#utility.yul\":26309:26318   */\n      dup3\n        /* \"#utility.yul\":26305:26323   */\n      add\n        /* \"#utility.yul\":26297:26323   */\n      swap1\n      pop\n        /* \"#utility.yul\":26369:26378   */\n      dup2\n        /* \"#utility.yul\":26363:26367   */\n      dup2\n        /* \"#utility.yul\":26359:26379   */\n      sub\n        /* \"#utility.yul\":26355:26356   */\n      0x00\n        /* \"#utility.yul\":26344:26353   */\n      dup4\n        /* \"#utility.yul\":26340:26357   */\n      add\n        /* \"#utility.yul\":26333:26380   */\n      mstore\n        /* \"#utility.yul\":26397:26528   */\n      tag_695\n        /* \"#utility.yul\":26523:26527   */\n      dup2\n        /* \"#utility.yul\":26397:26528   */\n      tag_433\n      jump\t// in\n    tag_695:\n        /* \"#utility.yul\":26389:26528   */\n      swap1\n      pop\n        /* \"#utility.yul\":26116:26535   */\n      swap2\n      swap1\n      pop\n      jump\t// out\n        /* \"#utility.yul\":26541:26640   */\n    tag_434:\n        /* \"#utility.yul\":26593:26599   */\n      0x00\n        /* \"#utility.yul\":26627:26632   */\n      dup2\n        /* \"#utility.yul\":26621:26633   */\n      mload\n        /* \"#utility.yul\":26611:26633   */\n      swap1\n      pop\n        /* \"#utility.yul\":26541:26640   */\n      swap2\n      swap1\n      pop\n      jump\t// out\n        /* \"#utility.yul\":26646:26785   */\n    tag_435:\n        /* \"#utility.yul\":26735:26741   */\n      dup3\n        /* \"#utility.yul\":26730:26733   */\n      dup2\n        /* \"#utility.yul\":26725:26728   */\n      dup4\n        /* \"#utility.yul\":26719:26742   */\n      mcopy\n        /* \"#utility.yul\":26776:26777   */\n      0x00\n        /* \"#utility.yul\":26767:26773   */\n      dup4\n        /* \"#utility.yul\":26762:26765   */\n      dup4\n        /* \"#utility.yul\":26758:26774   */\n      add\n        /* \"#utility.yul\":26751:26778   */\n      mstore\n        /* \"#utility.yul\":26646:26785   */\n      pop\n      pop\n      pop\n      jump\t// out\n        /* \"#utility.yul\":26791:27168   */\n    tag_436:\n        /* \"#utility.yul\":26879:26882   */\n      0x00\n        /* \"#utility.yul\":26907:26946   */\n      tag_699\n        /* \"#utility.yul\":26940:26945   */\n      dup3\n        /* \"#utility.yul\":26907:26946   */\n      tag_434\n      jump\t// in\n    tag_699:\n        /* \"#utility.yul\":26962:27033   */\n      tag_700\n        /* \"#utility.yul\":27026:27032   */\n      dup2\n        /* \"#utility.yul\":27021:27024   */\n      dup6\n        /* \"#utility.yul\":26962:27033   */\n      tag_401\n      jump\t// in\n    tag_700:\n        /* \"#utility.yul\":26955:27033   */\n      swap4\n      pop\n        /* \"#utility.yul\":27042:27107   */\n      tag_701\n        /* \"#utility.yul\":27100:27106   */\n      dup2\n        /* \"#utility.yul\":27095:27098   */\n      dup6\n        /* \"#utility.yul\":27088:27092   */\n      0x20\n        /* \"#utility.yul\":27081:27086   */\n      dup7\n        /* \"#utility.yul\":27077:27093   */\n      add\n        /* \"#utility.yul\":27042:27107   */\n      tag_435\n      jump\t// in\n    tag_701:\n        /* \"#utility.yul\":27132:27161   */\n      tag_702\n        /* \"#utility.yul\":27154:27160   */\n      dup2\n        /* \"#utility.yul\":27132:27161   */\n      tag_386\n      jump\t// in\n    tag_702:\n        /* \"#utility.yul\":27127:27130   */\n      dup5\n        /* \"#utility.yul\":27123:27162   */\n      add\n        /* \"#utility.yul\":27116:27162   */\n      swap2\n      pop\n        /* \"#utility.yul\":26883:27168   */\n      pop\n        /* \"#utility.yul\":26791:27168   */\n      swap3\n      swap2\n      pop\n      pop\n      jump\t// out\n        /* \"#utility.yul\":27174:27597   */\n    tag_259:\n        /* \"#utility.yul\":27315:27319   */\n      0x00\n        /* \"#utility.yul\":27353:27355   */\n      0x40\n        /* \"#utility.yul\":27342:27351   */\n      dup3\n        /* \"#utility.yul\":27338:27356   */\n      add\n        /* \"#utility.yul\":27330:27356   */\n      swap1\n      pop\n        /* \"#utility.yul\":27366:27437   */\n      tag_704\n        /* \"#utility.yul\":27434:27435   */\n      0x00\n        /* \"#utility.yul\":27423:27432   */\n      dup4\n        /* \"#utility.yul\":27419:27436   */\n      add\n        /* \"#utility.yul\":27410:27416   */\n      dup6\n        /* \"#utility.yul\":27366:27437   */\n      tag_371\n      jump\t// in\n    tag_704:\n        /* \"#utility.yul\":27484:27493   */\n      dup2\n        /* \"#utility.yul\":27478:27482   */\n      dup2\n        /* \"#utility.yul\":27474:27494   */\n      sub\n        /* \"#utility.yul\":27469:27471   */\n      0x20\n        /* \"#utility.yul\":27458:27467   */\n      dup4\n        /* \"#utility.yul\":27454:27472   */\n      add\n        /* \"#utility.yul\":27447:27495   */\n      mstore\n        /* \"#utility.yul\":27512:27590   */\n      tag_705\n        /* \"#utility.yul\":27585:27589   */\n      dup2\n        /* \"#utility.yul\":27576:27582   */\n      dup5\n        /* \"#utility.yul\":27512:27590   */\n      tag_436\n      jump\t// in\n    tag_705:\n        /* \"#utility.yul\":27504:27590   */\n      swap1\n      pop\n        /* \"#utility.yul\":27174:27597   */\n      swap4\n      swap3\n      pop\n      pop\n      pop\n      jump\t// out\n        /* \"#utility.yul\":27603:27783   */\n    tag_437:\n        /* \"#utility.yul\":27651:27728   */\n      0x4e487b7100000000000000000000000000000000000000000000000000000000\n        /* \"#utility.yul\":27648:27649   */\n      0x00\n        /* \"#utility.yul\":27641:27729   */\n      mstore\n        /* \"#utility.yul\":27748:27752   */\n      0x12\n        /* \"#utility.yul\":27745:27746   */\n      0x04\n        /* \"#utility.yul\":27738:27753   */\n      mstore\n        /* \"#utility.yul\":27772:27776   */\n      0x24\n        /* \"#utility.yul\":27769:27770   */\n      0x00\n        /* \"#utility.yul\":27762:27777   */\n      revert\n        /* \"#utility.yul\":27789:27974   */\n    tag_285:\n        /* \"#utility.yul\":27829:27830   */\n      0x00\n        /* \"#utility.yul\":27846:27866   */\n      tag_708\n        /* \"#utility.yul\":27864:27865   */\n      dup3\n        /* \"#utility.yul\":27846:27866   */\n      tag_370\n      jump\t// in\n    tag_708:\n        /* \"#utility.yul\":27841:27866   */\n      swap2\n      pop\n        /* \"#utility.yul\":27880:27900   */\n      tag_709\n        /* \"#utility.yul\":27898:27899   */\n      dup4\n        /* \"#utility.yul\":27880:27900   */\n      tag_370\n      jump\t// in\n    tag_709:\n        /* \"#utility.yul\":27875:27900   */\n      swap3\n      pop\n        /* \"#utility.yul\":27919:27920   */\n      dup3\n        /* \"#utility.yul\":27909:27944   */\n      tag_710\n      jumpi\n        /* \"#utility.yul\":27924:27942   */\n      tag_711\n      tag_437\n      jump\t// in\n    tag_711:\n        /* \"#utility.yul\":27909:27944   */\n    tag_710:\n        /* \"#utility.yul\":27966:27967   */\n      dup3\n        /* \"#utility.yul\":27963:27964   */\n      dup3\n        /* \"#utility.yul\":27959:27968   */\n      div\n        /* \"#utility.yul\":27954:27968   */\n      swap1\n      pop\n        /* \"#utility.yul\":27789:27974   */\n      swap3\n      swap2\n      pop\n      pop\n      jump\t// out\n        /* \"#utility.yul\":27980:28370   */\n    tag_438:\n        /* \"#utility.yul\":28086:28089   */\n      0x00\n        /* \"#utility.yul\":28114:28153   */\n      tag_713\n        /* \"#utility.yul\":28147:28152   */\n      dup3\n        /* \"#utility.yul\":28114:28153   */\n      tag_434\n      jump\t// in\n    tag_713:\n        /* \"#utility.yul\":28169:28258   */\n      tag_714\n        /* \"#utility.yul\":28251:28257   */\n      dup2\n        /* \"#utility.yul\":28246:28249   */\n      dup6\n        /* \"#utility.yul\":28169:28258   */\n      tag_420\n      jump\t// in\n    tag_714:\n        /* \"#utility.yul\":28162:28258   */\n      swap4\n      pop\n        /* \"#utility.yul\":28267:28332   */\n      tag_715\n        /* \"#utility.yul\":28325:28331   */\n      dup2\n        /* \"#utility.yul\":28320:28323   */\n      dup6\n        /* \"#utility.yul\":28313:28317   */\n      0x20\n        /* \"#utility.yul\":28306:28311   */\n      dup7\n        /* \"#utility.yul\":28302:28318   */\n      add\n        /* \"#utility.yul\":28267:28332   */\n      tag_435\n      jump\t// in\n    tag_715:\n        /* \"#utility.yul\":28357:28363   */\n      dup1\n        /* \"#utility.yul\":28352:28355   */\n      dup5\n        /* \"#utility.yul\":28348:28364   */\n      add\n        /* \"#utility.yul\":28341:28364   */\n      swap2\n      pop\n        /* \"#utility.yul\":28090:28370   */\n      pop\n        /* \"#utility.yul\":27980:28370   */\n      swap3\n      swap2\n      pop\n      pop\n      jump\t// out\n        /* \"#utility.yul\":28376:28651   */\n    tag_287:\n        /* \"#utility.yul\":28508:28511   */\n      0x00\n        /* \"#utility.yul\":28530:28625   */\n      tag_717\n        /* \"#utility.yul\":28621:28624   */\n      dup3\n        /* \"#utility.yul\":28612:28618   */\n      dup5\n        /* \"#utility.yul\":28530:28625   */\n      tag_438\n      jump\t// in\n    tag_717:\n        /* \"#utility.yul\":28523:28625   */\n      swap2\n      pop\n        /* \"#utility.yul\":28642:28645   */\n      dup2\n        /* \"#utility.yul\":28635:28645   */\n      swap1\n      pop\n        /* \"#utility.yul\":28376:28651   */\n      swap3\n      swap2\n      pop\n      pop\n      jump\t// out\n        /* \"#utility.yul\":28657:28762   */\n    tag_439:\n        /* \"#utility.yul\":28693:28700   */\n      0x00\n        /* \"#utility.yul\":28733:28755   */\n      0xffffffffffffffffffff\n        /* \"#utility.yul\":28726:28731   */\n      dup3\n        /* \"#utility.yul\":28722:28756   */\n      and\n        /* \"#utility.yul\":28711:28756   */\n      swap1\n      pop\n        /* \"#utility.yul\":28657:28762   */\n      swap2\n      swap1\n      pop\n      jump\t// out\n        /* \"#utility.yul\":28768:28888   */\n    tag_440:\n        /* \"#utility.yul\":28840:28863   */\n      tag_720\n        /* \"#utility.yul\":28857:28862   */\n      dup2\n        /* \"#utility.yul\":28840:28863   */\n      tag_439\n      jump\t// in\n    tag_720:\n        /* \"#utility.yul\":28833:28838   */\n      dup2\n        /* \"#utility.yul\":28830:28864   */\n      eq\n        /* \"#utility.yul\":28820:28882   */\n      tag_721\n      jumpi\n        /* \"#utility.yul\":28878:28879   */\n      0x00\n        /* \"#utility.yul\":28875:28876   */\n      dup1\n        /* \"#utility.yul\":28868:28880   */\n      revert\n        /* \"#utility.yul\":28820:28882   */\n    tag_721:\n        /* \"#utility.yul\":28768:28888   */\n      pop\n      jump\t// out\n        /* \"#utility.yul\":28894:29035   */\n    tag_441:\n        /* \"#utility.yul\":28950:28955   */\n      0x00\n        /* \"#utility.yul\":28981:28987   */\n      dup2\n        /* \"#utility.yul\":28975:28988   */\n      mload\n        /* \"#utility.yul\":28966:28988   */\n      swap1\n      pop\n        /* \"#utility.yul\":28997:29029   */\n      tag_723\n        /* \"#utility.yul\":29023:29028   */\n      dup2\n        /* \"#utility.yul\":28997:29029   */\n      tag_440\n      jump\t// in\n    tag_723:\n        /* \"#utility.yul\":28894:29035   */\n      swap3\n      swap2\n      pop\n      pop\n      jump\t// out\n        /* \"#utility.yul\":29041:29161   */\n    tag_442:\n        /* \"#utility.yul\":29113:29136   */\n      tag_725\n        /* \"#utility.yul\":29130:29135   */\n      dup2\n        /* \"#utility.yul\":29113:29136   */\n      tag_396\n      jump\t// in\n    tag_725:\n        /* \"#utility.yul\":29106:29111   */\n      dup2\n        /* \"#utility.yul\":29103:29137   */\n      eq\n        /* \"#utility.yul\":29093:29155   */\n      tag_726\n      jumpi\n        /* \"#utility.yul\":29151:29152   */\n      0x00\n        /* \"#utility.yul\":29148:29149   */\n      dup1\n        /* \"#utility.yul\":29141:29153   */\n      revert\n        /* \"#utility.yul\":29093:29155   */\n    tag_726:\n        /* \"#utility.yul\":29041:29161   */\n      pop\n      jump\t// out\n        /* \"#utility.yul\":29167:29308   */\n    tag_443:\n        /* \"#utility.yul\":29223:29228   */\n      0x00\n        /* \"#utility.yul\":29254:29260   */\n      dup2\n        /* \"#utility.yul\":29248:29261   */\n      mload\n        /* \"#utility.yul\":29239:29261   */\n      swap1\n      pop\n        /* \"#utility.yul\":29270:29302   */\n      tag_728\n        /* \"#utility.yul\":29296:29301   */\n      dup2\n        /* \"#utility.yul\":29270:29302   */\n      tag_442\n      jump\t// in\n    tag_728:\n        /* \"#utility.yul\":29167:29308   */\n      swap3\n      swap2\n      pop\n      pop\n      jump\t// out\n        /* \"#utility.yul\":29314:29457   */\n    tag_444:\n        /* \"#utility.yul\":29371:29376   */\n      0x00\n        /* \"#utility.yul\":29402:29408   */\n      dup2\n        /* \"#utility.yul\":29396:29409   */\n      mload\n        /* \"#utility.yul\":29387:29409   */\n      swap1\n      pop\n        /* \"#utility.yul\":29418:29451   */\n      tag_730\n        /* \"#utility.yul\":29445:29450   */\n      dup2\n        /* \"#utility.yul\":29418:29451   */\n      tag_383\n      jump\t// in\n    tag_730:\n        /* \"#utility.yul\":29314:29457   */\n      swap3\n      swap2\n      pop\n      pop\n      jump\t// out\n        /* \"#utility.yul\":29463:30434   */\n    tag_291:\n        /* \"#utility.yul\":29566:29572   */\n      0x00\n        /* \"#utility.yul\":29574:29580   */\n      dup1\n        /* \"#utility.yul\":29582:29588   */\n      0x00\n        /* \"#utility.yul\":29590:29596   */\n      dup1\n        /* \"#utility.yul\":29598:29604   */\n      0x00\n        /* \"#utility.yul\":29647:29650   */\n      0xa0\n        /* \"#utility.yul\":29635:29644   */\n      dup7\n        /* \"#utility.yul\":29626:29633   */\n      dup9\n        /* \"#utility.yul\":29622:29645   */\n      sub\n        /* \"#utility.yul\":29618:29651   */\n      slt\n        /* \"#utility.yul\":29615:29735   */\n      iszero\n      tag_732\n      jumpi\n        /* \"#utility.yul\":29654:29733   */\n      tag_733\n      tag_364\n      jump\t// in\n    tag_733:\n        /* \"#utility.yul\":29615:29735   */\n    tag_732:\n        /* \"#utility.yul\":29774:29775   */\n      0x00\n        /* \"#utility.yul\":29799:29862   */\n      tag_734\n        /* \"#utility.yul\":29854:29861   */\n      dup9\n        /* \"#utility.yul\":29845:29851   */\n      dup3\n        /* \"#utility.yul\":29834:29843   */\n      dup10\n        /* \"#utility.yul\":29830:29852   */\n      add\n        /* \"#utility.yul\":29799:29862   */\n      tag_441\n      jump\t// in\n    tag_734:\n        /* \"#utility.yul\":29789:29862   */\n      swap6\n      pop\n        /* \"#utility.yul\":29745:29872   */\n      pop\n        /* \"#utility.yul\":29911:29913   */\n      0x20\n        /* \"#utility.yul\":29937:30000   */\n      tag_735\n        /* \"#utility.yul\":29992:29999   */\n      dup9\n        /* \"#utility.yul\":29983:29989   */\n      dup3\n        /* \"#utility.yul\":29972:29981   */\n      dup10\n        /* \"#utility.yul\":29968:29990   */\n      add\n        /* \"#utility.yul\":29937:30000   */\n      tag_443\n      jump\t// in\n    tag_735:\n        /* \"#utility.yul\":29927:30000   */\n      swap5\n      pop\n        /* \"#utility.yul\":29882:30010   */\n      pop\n        /* \"#utility.yul\":30049:30051   */\n      0x40\n        /* \"#utility.yul\":30075:30139   */\n      tag_736\n        /* \"#utility.yul\":30131:30138   */\n      dup9\n        /* \"#utility.yul\":30122:30128   */\n      dup3\n        /* \"#utility.yul\":30111:30120   */\n      dup10\n        /* \"#utility.yul\":30107:30129   */\n      add\n        /* \"#utility.yul\":30075:30139   */\n      tag_444\n      jump\t// in\n    tag_736:\n        /* \"#utility.yul\":30065:30139   */\n      swap4\n      pop\n        /* \"#utility.yul\":30020:30149   */\n      pop\n        /* \"#utility.yul\":30188:30190   */\n      0x60\n        /* \"#utility.yul\":30214:30278   */\n      tag_737\n        /* \"#utility.yul\":30270:30277   */\n      dup9\n        /* \"#utility.yul\":30261:30267   */\n      dup3\n        /* \"#utility.yul\":30250:30259   */\n      dup10\n        /* \"#utility.yul\":30246:30268   */\n      add\n        /* \"#utility.yul\":30214:30278   */\n      tag_444\n      jump\t// in\n    tag_737:\n        /* \"#utility.yul\":30204:30278   */\n      swap3\n      pop\n        /* \"#utility.yul\":30159:30288   */\n      pop\n        /* \"#utility.yul\":30327:30330   */\n      0x80\n        /* \"#utility.yul\":30354:30417   */\n      tag_738\n        /* \"#utility.yul\":30409:30416   */\n      dup9\n        /* \"#utility.yul\":30400:30406   */\n      dup3\n        /* \"#utility.yul\":30389:30398   */\n      dup10\n        /* \"#utility.yul\":30385:30407   */\n      add\n        /* \"#utility.yul\":30354:30417   */\n      tag_441\n      jump\t// in\n    tag_738:\n        /* \"#utility.yul\":30344:30417   */\n      swap2\n      pop\n        /* \"#utility.yul\":30298:30427   */\n      pop\n        /* \"#utility.yul\":29463:30434   */\n      swap3\n      swap6\n      pop\n      swap3\n      swap6\n      swap1\n      swap4\n      pop\n      jump\t// out\n        /* \"#utility.yul\":30440:30996   */\n    tag_293:\n        /* \"#utility.yul\":30479:30486   */\n      0x00\n        /* \"#utility.yul\":30502:30521   */\n      tag_740\n        /* \"#utility.yul\":30519:30520   */\n      dup3\n        /* \"#utility.yul\":30502:30521   */\n      tag_396\n      jump\t// in\n    tag_740:\n        /* \"#utility.yul\":30497:30521   */\n      swap2\n      pop\n        /* \"#utility.yul\":30535:30554   */\n      tag_741\n        /* \"#utility.yul\":30552:30553   */\n      dup4\n        /* \"#utility.yul\":30535:30554   */\n      tag_396\n      jump\t// in\n    tag_741:\n        /* \"#utility.yul\":30530:30554   */\n      swap3\n      pop\n        /* \"#utility.yul\":30589:30590   */\n      dup3\n        /* \"#utility.yul\":30586:30587   */\n      dup3\n        /* \"#utility.yul\":30582:30591   */\n      mul\n        /* \"#utility.yul\":30611:30640   */\n      tag_742\n        /* \"#utility.yul\":30628:30639   */\n      dup2\n        /* \"#utility.yul\":30611:30640   */\n      tag_396\n      jump\t// in\n    tag_742:\n        /* \"#utility.yul\":30600:30640   */\n      swap2\n      pop\n        /* \"#utility.yul\":30698:30764   */\n      0x8000000000000000000000000000000000000000000000000000000000000000\n        /* \"#utility.yul\":30695:30696   */\n      dup5\n        /* \"#utility.yul\":30692:30765   */\n      eq\n        /* \"#utility.yul\":30688:30689   */\n      0x00\n        /* \"#utility.yul\":30685:30686   */\n      dup5\n        /* \"#utility.yul\":30681:30690   */\n      slt\n        /* \"#utility.yul\":30677:30766   */\n      and\n        /* \"#utility.yul\":30674:30789   */\n      iszero\n      tag_743\n      jumpi\n        /* \"#utility.yul\":30769:30787   */\n      tag_744\n      tag_404\n      jump\t// in\n    tag_744:\n        /* \"#utility.yul\":30674:30789   */\n    tag_743:\n        /* \"#utility.yul\":30939:30940   */\n      dup3\n        /* \"#utility.yul\":30930:30937   */\n      dup3\n        /* \"#utility.yul\":30925:30941   */\n      sdiv\n        /* \"#utility.yul\":30922:30923   */\n      dup5\n        /* \"#utility.yul\":30919:30942   */\n      eq\n        /* \"#utility.yul\":30899:30900   */\n      dup4\n        /* \"#utility.yul\":30892:30901   */\n      iszero\n        /* \"#utility.yul\":30872:30956   */\n      or\n        /* \"#utility.yul\":30849:30989   */\n      tag_745\n      jumpi\n        /* \"#utility.yul\":30969:30987   */\n      tag_746\n      tag_404\n      jump\t// in\n    tag_746:\n        /* \"#utility.yul\":30849:30989   */\n    tag_745:\n        /* \"#utility.yul\":30487:30996   */\n      pop\n        /* \"#utility.yul\":30440:30996   */\n      swap3\n      swap2\n      pop\n      pop\n      jump\t// out\n        /* \"#utility.yul\":31002:31412   */\n    tag_295:\n        /* \"#utility.yul\":31042:31049   */\n      0x00\n        /* \"#utility.yul\":31065:31085   */\n      tag_748\n        /* \"#utility.yul\":31083:31084   */\n      dup3\n        /* \"#utility.yul\":31065:31085   */\n      tag_370\n      jump\t// in\n    tag_748:\n        /* \"#utility.yul\":31060:31085   */\n      swap2\n      pop\n        /* \"#utility.yul\":31099:31119   */\n      tag_749\n        /* \"#utility.yul\":31117:31118   */\n      dup4\n        /* \"#utility.yul\":31099:31119   */\n      tag_370\n      jump\t// in\n    tag_749:\n        /* \"#utility.yul\":31094:31119   */\n      swap3\n      pop\n        /* \"#utility.yul\":31154:31155   */\n      dup3\n        /* \"#utility.yul\":31151:31152   */\n      dup3\n        /* \"#utility.yul\":31147:31156   */\n      mul\n        /* \"#utility.yul\":31176:31206   */\n      tag_750\n        /* \"#utility.yul\":31194:31205   */\n      dup2\n        /* \"#utility.yul\":31176:31206   */\n      tag_370\n      jump\t// in\n    tag_750:\n        /* \"#utility.yul\":31165:31206   */\n      swap2\n      pop\n        /* \"#utility.yul\":31355:31356   */\n      dup3\n        /* \"#utility.yul\":31346:31353   */\n      dup3\n        /* \"#utility.yul\":31342:31357   */\n      div\n        /* \"#utility.yul\":31339:31340   */\n      dup5\n        /* \"#utility.yul\":31336:31358   */\n      eq\n        /* \"#utility.yul\":31316:31317   */\n      dup4\n        /* \"#utility.yul\":31309:31318   */\n      iszero\n        /* \"#utility.yul\":31289:31372   */\n      or\n        /* \"#utility.yul\":31266:31405   */\n      tag_751\n      jumpi\n        /* \"#utility.yul\":31385:31403   */\n      tag_752\n      tag_404\n      jump\t// in\n    tag_752:\n        /* \"#utility.yul\":31266:31405   */\n    tag_751:\n        /* \"#utility.yul\":31050:31412   */\n      pop\n        /* \"#utility.yul\":31002:31412   */\n      swap3\n      swap2\n      pop\n      pop\n      jump\t// out\n        /* \"#utility.yul\":31418:31803   */\n    tag_297:\n        /* \"#utility.yul\":31457:31458   */\n      0x00\n        /* \"#utility.yul\":31474:31493   */\n      tag_754\n        /* \"#utility.yul\":31491:31492   */\n      dup3\n        /* \"#utility.yul\":31474:31493   */\n      tag_396\n      jump\t// in\n    tag_754:\n        /* \"#utility.yul\":31469:31493   */\n      swap2\n      pop\n        /* \"#utility.yul\":31507:31526   */\n      tag_755\n        /* \"#utility.yul\":31524:31525   */\n      dup4\n        /* \"#utility.yul\":31507:31526   */\n      tag_396\n      jump\t// in\n    tag_755:\n        /* \"#utility.yul\":31502:31526   */\n      swap3\n      pop\n        /* \"#utility.yul\":31545:31546   */\n      dup3\n        /* \"#utility.yul\":31535:31570   */\n      tag_756\n      jumpi\n        /* \"#utility.yul\":31550:31568   */\n      tag_757\n      tag_437\n      jump\t// in\n    tag_757:\n        /* \"#utility.yul\":31535:31570   */\n    tag_756:\n        /* \"#utility.yul\":31736:31737   */\n      0x01\n        /* \"#utility.yul\":31733:31734   */\n      0x00\n        /* \"#utility.yul\":31729:31738   */\n      sub\n        /* \"#utility.yul\":31726:31727   */\n      dup4\n        /* \"#utility.yul\":31723:31739   */\n      eq\n        /* \"#utility.yul\":31642:31708   */\n      0x8000000000000000000000000000000000000000000000000000000000000000\n        /* \"#utility.yul\":31639:31640   */\n      dup4\n        /* \"#utility.yul\":31636:31709   */\n      eq\n        /* \"#utility.yul\":31619:31749   */\n      and\n        /* \"#utility.yul\":31616:31772   */\n      iszero\n      tag_758\n      jumpi\n        /* \"#utility.yul\":31752:31770   */\n      tag_759\n      tag_404\n      jump\t// in\n    tag_759:\n        /* \"#utility.yul\":31616:31772   */\n    tag_758:\n        /* \"#utility.yul\":31795:31796   */\n      dup3\n        /* \"#utility.yul\":31792:31793   */\n      dup3\n        /* \"#utility.yul\":31787:31797   */\n      sdiv\n        /* \"#utility.yul\":31782:31797   */\n      swap1\n      pop\n        /* \"#utility.yul\":31418:31803   */\n      swap3\n      swap2\n      pop\n      pop\n      jump\t// out\n        /* \"#utility.yul\":31809:31974   */\n    tag_445:\n        /* \"#utility.yul\":31949:31966   */\n      0x496e76616c696420616464726573730000000000000000000000000000000000\n        /* \"#utility.yul\":31945:31946   */\n      0x00\n        /* \"#utility.yul\":31937:31943   */\n      dup3\n        /* \"#utility.yul\":31933:31947   */\n      add\n        /* \"#utility.yul\":31926:31967   */\n      mstore\n        /* \"#utility.yul\":31809:31974   */\n      pop\n      jump\t// out\n        /* \"#utility.yul\":31980:32346   */\n    tag_446:\n        /* \"#utility.yul\":32122:32125   */\n      0x00\n        /* \"#utility.yul\":32143:32210   */\n      tag_762\n        /* \"#utility.yul\":32207:32209   */\n      0x0f\n        /* \"#utility.yul\":32202:32205   */\n      dup4\n        /* \"#utility.yul\":32143:32210   */\n      tag_401\n      jump\t// in\n    tag_762:\n        /* \"#utility.yul\":32136:32210   */\n      swap2\n      pop\n        /* \"#utility.yul\":32219:32312   */\n      tag_763\n        /* \"#utility.yul\":32308:32311   */\n      dup3\n        /* \"#utility.yul\":32219:32312   */\n      tag_445\n      jump\t// in\n    tag_763:\n        /* \"#utility.yul\":32337:32339   */\n      0x20\n        /* \"#utility.yul\":32332:32335   */\n      dup3\n        /* \"#utility.yul\":32328:32340   */\n      add\n        /* \"#utility.yul\":32321:32340   */\n      swap1\n      pop\n        /* \"#utility.yul\":31980:32346   */\n      swap2\n      swap1\n      pop\n      jump\t// out\n        /* \"#utility.yul\":32352:32771   */\n    tag_303:\n        /* \"#utility.yul\":32518:32522   */\n      0x00\n        /* \"#utility.yul\":32556:32558   */\n      0x20\n        /* \"#utility.yul\":32545:32554   */\n      dup3\n        /* \"#utility.yul\":32541:32559   */\n      add\n        /* \"#utility.yul\":32533:32559   */\n      swap1\n      pop\n        /* \"#utility.yul\":32605:32614   */\n      dup2\n        /* \"#utility.yul\":32599:32603   */\n      dup2\n        /* \"#utility.yul\":32595:32615   */\n      sub\n        /* \"#utility.yul\":32591:32592   */\n      0x00\n        /* \"#utility.yul\":32580:32589   */\n      dup4\n        /* \"#utility.yul\":32576:32593   */\n      add\n        /* \"#utility.yul\":32569:32616   */\n      mstore\n        /* \"#utility.yul\":32633:32764   */\n      tag_765\n        /* \"#utility.yul\":32759:32763   */\n      dup2\n        /* \"#utility.yul\":32633:32764   */\n      tag_446\n      jump\t// in\n    tag_765:\n        /* \"#utility.yul\":32625:32764   */\n      swap1\n      pop\n        /* \"#utility.yul\":32352:32771   */\n      swap2\n      swap1\n      pop\n      jump\t// out\n        /* \"#utility.yul\":32777:32971   */\n    tag_330:\n        /* \"#utility.yul\":32817:32821   */\n      0x00\n        /* \"#utility.yul\":32837:32857   */\n      tag_767\n        /* \"#utility.yul\":32855:32856   */\n      dup3\n        /* \"#utility.yul\":32837:32857   */\n      tag_370\n      jump\t// in\n    tag_767:\n        /* \"#utility.yul\":32832:32857   */\n      swap2\n      pop\n        /* \"#utility.yul\":32871:32891   */\n      tag_768\n        /* \"#utility.yul\":32889:32890   */\n      dup4\n        /* \"#utility.yul\":32871:32891   */\n      tag_370\n      jump\t// in\n    tag_768:\n        /* \"#utility.yul\":32866:32891   */\n      swap3\n      pop\n        /* \"#utility.yul\":32915:32916   */\n      dup3\n        /* \"#utility.yul\":32912:32913   */\n      dup3\n        /* \"#utility.yul\":32908:32917   */\n      sub\n        /* \"#utility.yul\":32900:32917   */\n      swap1\n      pop\n        /* \"#utility.yul\":32939:32940   */\n      dup2\n        /* \"#utility.yul\":32933:32937   */\n      dup2\n        /* \"#utility.yul\":32930:32941   */\n      gt\n        /* \"#utility.yul\":32927:32964   */\n      iszero\n      tag_769\n      jumpi\n        /* \"#utility.yul\":32944:32962   */\n      tag_770\n      tag_404\n      jump\t// in\n    tag_770:\n        /* \"#utility.yul\":32927:32964   */\n    tag_769:\n        /* \"#utility.yul\":32777:32971   */\n      swap3\n      swap2\n      pop\n      pop\n      jump\t// out\n        /* \"#utility.yul\":32977:33210   */\n    tag_333:\n        /* \"#utility.yul\":33016:33019   */\n      0x00\n        /* \"#utility.yul\":33039:33063   */\n      tag_772\n        /* \"#utility.yul\":33057:33062   */\n      dup3\n        /* \"#utility.yul\":33039:33063   */\n      tag_370\n      jump\t// in\n    tag_772:\n        /* \"#utility.yul\":33030:33063   */\n      swap2\n      pop\n        /* \"#utility.yul\":33085:33151   */\n      0xffffffffffffffffffffffffffffffffffffffffffffffffffffffffffffffff\n        /* \"#utility.yul\":33078:33083   */\n      dup3\n        /* \"#utility.yul\":33075:33152   */\n      sub\n        /* \"#utility.yul\":33072:33175   */\n      tag_773\n      jumpi\n        /* \"#utility.yul\":33155:33173   */\n      tag_774\n      tag_404\n      jump\t// in\n    tag_774:\n        /* \"#utility.yul\":33072:33175   */\n    tag_773:\n        /* \"#utility.yul\":33202:33203   */\n      0x01\n        /* \"#utility.yul\":33195:33200   */\n      dup3\n        /* \"#utility.yul\":33191:33204   */\n      add\n        /* \"#utility.yul\":33184:33204   */\n      swap1\n      pop\n        /* \"#utility.yul\":32977:33210   */\n      swap2\n      swap1\n      pop\n      jump\t// out\n        /* \"#utility.yul\":33216:33392   */\n    tag_447:\n        /* \"#utility.yul\":33356:33384   */\n      0x4e6f7420656e6f75676820474550537320617661696c61626c65000000000000\n        /* \"#utility.yul\":33352:33353   */\n      0x00\n        /* \"#utility.yul\":33344:33350   */\n      dup3\n        /* \"#utility.yul\":33340:33354   */\n      add\n        /* \"#utility.yul\":33333:33385   */\n      mstore\n        /* \"#utility.yul\":33216:33392   */\n      pop\n      jump\t// out\n        /* \"#utility.yul\":33398:33764   */\n    tag_448:\n        /* \"#utility.yul\":33540:33543   */\n      0x00\n        /* \"#utility.yul\":33561:33628   */\n      tag_777\n        /* \"#utility.yul\":33625:33627   */\n      0x1a\n        /* \"#utility.yul\":33620:33623   */\n      dup4\n        /* \"#utility.yul\":33561:33628   */\n      tag_401\n      jump\t// in\n    tag_777:\n        /* \"#utility.yul\":33554:33628   */\n      swap2\n      pop\n        /* \"#utility.yul\":33637:33730   */\n      tag_778\n        /* \"#utility.yul\":33726:33729   */\n      dup3\n        /* \"#utility.yul\":33637:33730   */\n      tag_447\n      jump\t// in\n    tag_778:\n        /* \"#utility.yul\":33755:33757   */\n      0x20\n        /* \"#utility.yul\":33750:33753   */\n      dup3\n        /* \"#utility.yul\":33746:33758   */\n      add\n        /* \"#utility.yul\":33739:33758   */\n      swap1\n      pop\n        /* \"#utility.yul\":33398:33764   */\n      swap2\n      swap1\n      pop\n      jump\t// out\n        /* \"#utility.yul\":33770:34189   */\n    tag_347:\n        /* \"#utility.yul\":33936:33940   */\n      0x00\n        /* \"#utility.yul\":33974:33976   */\n      0x20\n        /* \"#utility.yul\":33963:33972   */\n      dup3\n        /* \"#utility.yul\":33959:33977   */\n      add\n        /* \"#utility.yul\":33951:33977   */\n      swap1\n      pop\n        /* \"#utility.yul\":34023:34032   */\n      dup2\n        /* \"#utility.yul\":34017:34021   */\n      dup2\n        /* \"#utility.yul\":34013:34033   */\n      sub\n        /* \"#utility.yul\":34009:34010   */\n      0x00\n        /* \"#utility.yul\":33998:34007   */\n      dup4\n        /* \"#utility.yul\":33994:34011   */\n      add\n        /* \"#utility.yul\":33987:34034   */\n      mstore\n        /* \"#utility.yul\":34051:34182   */\n      tag_780\n        /* \"#utility.yul\":34177:34181   */\n      dup2\n        /* \"#utility.yul\":34051:34182   */\n      tag_448\n      jump\t// in\n    tag_780:\n        /* \"#utility.yul\":34043:34182   */\n      swap1\n      pop\n        /* \"#utility.yul\":33770:34189   */\n      swap2\n      swap1\n      pop\n      jump\t// out\n\n    auxdata: 0xa264697066735822122023666138308597c89b7e8bccb941233a86efe3ebb8c19e6c25af5c899b30907464736f6c634300081a0033\n}\n",
				"bytecode": {
					"linkReferences": {},
					"object": "608060405234801561000f575f80fd5b50604051613088380380613088833981810160405281019061003191906106c9565b335f73ffffffffffffffffffffffffffffffffffffffff168173ffffffffffffffffffffffffffffffffffffffff16036100a2575f6040517f1e4fbdf70000000000000000000000000000000000000000000000000000000081526004016100999190610728565b60405180910390fd5b6100b18161018860201b60201c565b508260025f6101000a81548173ffffffffffffffffffffffffffffffffffffffff021916908373ffffffffffffffffffffffffffffffffffffffff1602179055508160035f6101000a81548173ffffffffffffffffffffffffffffffffffffffff021916908373ffffffffffffffffffffffffffffffffffffffff1602179055508060045f6101000a81548173ffffffffffffffffffffffffffffffffffffffff021916908373ffffffffffffffffffffffffffffffffffffffff16021790555061018061024960201b60201c565b50505061076e565b5f805f9054906101000a900473ffffffffffffffffffffffffffffffffffffffff169050815f806101000a81548173ffffffffffffffffffffffffffffffffffffffff021916908373ffffffffffffffffffffffffffffffffffffffff1602179055508173ffffffffffffffffffffffffffffffffffffffff168173ffffffffffffffffffffffffffffffffffffffff167f8be0079c531659141344cd1fd0a4f28419497f9722a3daafe3b4186f6b6457e060405160405180910390a35050565b6040518060800160405280600181526020016a01d693012228a4c840000081526020015f81526020015f81525060055f6009811061028a57610289610741565b5b600402015f820151815f01556020820151816001015560408201518160020155606082015181600301559050506040518060800160405280600581526020016a01d692e560bb3d7978000081526020015f81526020015f81525060056001600981106102f9576102f8610741565b5b600402015f820151815f01556020820151816001015560408201518160020155606082015181600301559050506040518060800160405280600a81526020016a01d692e560bb3d7978000081526020015f81526020015f815250600560026009811061036857610367610741565b5b600402015f820151815f01556020820151816001015560408201518160020155606082015181600301559050506040518060800160405280600f81526020016a01d692e560bb3d7978000081526020015f81526020015f81525060056003600981106103d7576103d6610741565b5b600402015f820151815f01556020820151816001015560408201518160020155606082015181600301559050506040518060800160405280601481526020016a01d692e560bb3d7978000081526020015f81526020015f815250600560046009811061044657610445610741565b5b600402015f820151815f01556020820151816001015560408201518160020155606082015181600301559050506040518060800160405280601981526020016a01d692e560bb3d7978000081526020015f81526020015f815250600580600981106104b4576104b3610741565b5b600402015f820151815f01556020820151816001015560408201518160020155606082015181600301559050506040518060800160405280601e81526020016a01d692e560bb3d7978000081526020015f81526020015f815250600560066009811061052357610522610741565b5b600402015f820151815f01556020820151816001015560408201518160020155606082015181600301559050506040518060800160405280602381526020016a01d692e560bb3d7978000081526020015f81526020015f815250600560076009811061059257610591610741565b5b600402015f820151815f01556020820151816001015560408201518160020155606082015181600301559050506040518060800160405280602881526020016a01d692e560bb3d7978000081526020015f81526020015f815250600560086009811061060157610600610741565b5b600402015f820151815f0155602082015181600101556040820151816002015560608201518160030155905050565b5f80fd5b5f73ffffffffffffffffffffffffffffffffffffffff82169050919050565b5f61065d82610634565b9050919050565b61066d81610653565b8114610677575f80fd5b50565b5f8151905061068881610664565b92915050565b5f61069882610634565b9050919050565b6106a88161068e565b81146106b2575f80fd5b50565b5f815190506106c38161069f565b92915050565b5f805f606084860312156106e0576106df610630565b5b5f6106ed8682870161067a565b93505060206106fe8682870161067a565b925050604061070f868287016106b5565b9150509250925092565b61072281610653565b82525050565b5f60208201905061073b5f830184610719565b92915050565b7f4e487b71000000000000000000000000000000000000000000000000000000005f52603260045260245ffd5b61290d8061077b5f395ff3fe608060405260043610610180575f3560e01c80636e14600f116100d05780638da5cb5b11610089578063e18132c411610063578063e18132c414610519578063eedbe31d14610543578063f2fde38b1461056d578063f94f983a1461059557610180565b80638da5cb5b1461049d5780638e17c017146104c7578063a82524b2146104ef57610180565b80636e14600f14610380578063715018a6146103a857806373b2e80e146103be5780637e8558d7146103fa578063841e456114610436578063845ddcb21461045e57610180565b80633f957b0d1161013d57806359ac5e181161011757806359ac5e18146102e85780635bf5d54c1461031057806361d027b31461033a57806367faa4b61461036457610180565b80633f957b0d1461027e57806351f9efde1461029457806354c4152e146102be57610180565b806304c98b2b146101845780631a8a63eb1461019a5780631c2dda48146101d6578063249b7c19146102005780633ca5b2341461022a5780633ea92d7314610254575b5f80fd5b34801561018f575f80fd5b506101986105d1565b005b3480156101a5575f80fd5b506101c060048036038101906101bb9190611858565b6106a9565b6040516101cd919061189b565b60405180910390f35b3480156101e1575f80fd5b506101ea6106be565b6040516101f7919061190f565b60405180910390f35b34801561020b575f80fd5b506102146106e3565b604051610221919061189b565b60405180910390f35b348015610235575f80fd5b5061023e6106e9565b60405161024b919061190f565b60405180910390f35b34801561025f575f80fd5b5061026861070e565b604051610275919061189b565b60405180910390f35b348015610289575f80fd5b50610292610713565b005b34801561029f575f80fd5b506102a8610a12565b6040516102b5919061189b565b60405180910390f35b3480156102c9575f80fd5b506102d2610a17565b6040516102df919061189b565b60405180910390f35b3480156102f3575f80fd5b5061030e600480360381019061030991906119de565b610a6c565b005b34801561031b575f80fd5b50610324610b85565b604051610331919061189b565b60405180910390f35b348015610345575f80fd5b5061034e610b8b565b60405161035b9190611a6b565b60405180910390f35b61037e60048036038101906103799190611be6565b610bb0565b005b34801561038b575f80fd5b506103a660048036038101906103a19190611858565b611038565b005b3480156103b3575f80fd5b506103bc611083565b005b3480156103c9575f80fd5b506103e460048036038101906103df9190611858565b611096565b6040516103f19190611c5a565b60405180910390f35b348015610405575f80fd5b50610420600480360381019061041b9190611be6565b6110b3565b60405161042d9190611c8b565b60405180910390f35b348015610441575f80fd5b5061045c60048036038101906104579190611858565b6111eb565b005b348015610469575f80fd5b50610484600480360381019061047f9190611ca4565b6112a4565b6040516104949493929190611ccf565b60405180910390f35b3480156104a8575f80fd5b506104b16112d7565b6040516104be9190611a6b565b60405180910390f35b3480156104d2575f80fd5b506104ed60048036038101906104e89190611d4d565b6112fe565b005b3480156104fa575f80fd5b506105036113b7565b604051610510919061189b565b60405180910390f35b348015610524575f80fd5b5061052d6113bd565b60405161053a919061189b565b60405180910390f35b34801561054e575f80fd5b506105576113c3565b604051610564919061189b565b60405180910390f35b348015610578575f80fd5b50610593600480360381019061058e9190611858565b6113cc565b005b3480156105a0575f80fd5b506105bb60048036038101906105b69190611d78565b611450565b6040516105c89190611a6b565b60405180910390f35b6105d9611498565b5f602a541461061d576040517f08c379a000000000000000000000000000000000000000000000000000000000815260040161061490611e19565b60405180910390fd5b42602a819055505f6029819055504260056029546009811061064257610641611e37565b5b600402016002018190555060784261065a9190611e91565b6005602954600981106106705761066f611e37565b5b60040201600301819055507f17c3338141363aab2512c08f8a7764328ca95979f7057663eb93f7e250139b4c60405160405180910390a1565b602c602052805f5260405f205f915090505481565b60015f9054906101000a900473ffffffffffffffffffffffffffffffffffffffff1681565b602b5481565b60025f9054906101000a900473ffffffffffffffffffffffffffffffffffffffff1681565b600981565b602b544211610757576040517f08c379a000000000000000000000000000000000000000000000000000000000815260040161074e90611f0e565b60405180910390fd5b61012c600560086009811061076f5761076e611e37565b5b60040201600301546107819190611e91565b42116107c2576040517f08c379a00000000000000000000000000000000000000000000000000000000081526004016107b990611f76565b60405180910390fd5b602d5f3373ffffffffffffffffffffffffffffffffffffffff1673ffffffffffffffffffffffffffffffffffffffff1681526020019081526020015f205f9054906101000a900460ff161561084c576040517f08c379a000000000000000000000000000000000000000000000000000000000815260040161084390611fde565b60405180910390fd5b5f602c5f3373ffffffffffffffffffffffffffffffffffffffff1673ffffffffffffffffffffffffffffffffffffffff1681526020019081526020015f205490505f81116108cf576040517f08c379a00000000000000000000000000000000000000000000000000000000081526004016108c690612046565b60405180910390fd5b6001602d5f3373ffffffffffffffffffffffffffffffffffffffff1673ffffffffffffffffffffffffffffffffffffffff1681526020019081526020015f205f6101000a81548160ff02191690831515021790555060015f9054906101000a900473ffffffffffffffffffffffffffffffffffffffff1673ffffffffffffffffffffffffffffffffffffffff1663a9059cbb33836040518363ffffffff1660e01b8152600401610980929190612064565b6020604051808303815f875af115801561099c573d5f803e3d5ffd5b505050506040513d601f19601f820116820180604052508101906109c091906120b5565b503373ffffffffffffffffffffffffffffffffffffffff167f7a99cb7540e04f139e8bec2b914b561065e30819c986d0594db010eb76e23a2e82604051610a07919061189b565b60405180910390a250565b607881565b5f805f90505f5b6009811015610a6457610a5560058260098110610a3e57610a3d611e37565b5b60040201600101548361151f90919063ffffffff16565b91508080600101915050610a1e565b508091505090565b610a74611498565b818190508484905014610abc576040517f08c379a0000000000000000000000000000000000000000000000000000000008152600401610ab39061212a565b60405180910390fd5b5f5b84849050811015610b7e57828282818110610adc57610adb611e37565b5b9050602002016020810190610af19190611858565b602e868684818110610b0657610b05611e37565b5b9050602002810190610b189190612154565b604051610b269291906121e4565b90815260200160405180910390205f6101000a81548173ffffffffffffffffffffffffffffffffffffffff021916908373ffffffffffffffffffffffffffffffffffffffff1602179055508080600101915050610abe565b5050505050565b60295481565b60035f9054906101000a900473ffffffffffffffffffffffffffffffffffffffff1681565b5f602a5403610bf4576040517f08c379a0000000000000000000000000000000000000000000000000000000008152600401610beb90612246565b60405180910390fd5b5f8211610c36576040517f08c379a0000000000000000000000000000000000000000000000000000000008152600401610c2d906122ae565b60405180910390fd5b42600560295460098110610c4d57610c4c611e37565b5b600402016003015411610cc157600860295403610cb75742600560295460098110610c7b57610c7a611e37565b5b60040201600301819055507f1eb1561f8507eb9bc6988331f66f369e75710f2b4b678ad5b4a52454b6636f5f60405160405180910390a1610cc0565b610cbf611534565b5b5b5f610ccc83836110b3565b90506040518060400160405280600381526020017f424e42000000000000000000000000000000000000000000000000000000000081525080519060200120828051906020012003610dc55780341015610d5b576040517f08c379a0000000000000000000000000000000000000000000000000000000008152600401610d5290612316565b60405180910390fd5b60045f9054906101000a900473ffffffffffffffffffffffffffffffffffffffff1673ffffffffffffffffffffffffffffffffffffffff166108fc8290811502906040515f60405180830381858888f19350505050158015610dbf573d5f803e3d5ffd5b50610f4e565b6040518060400160405280600481526020017f425553440000000000000000000000000000000000000000000000000000000081525080519060200120828051906020012003610f125760025f9054906101000a900473ffffffffffffffffffffffffffffffffffffffff1673ffffffffffffffffffffffffffffffffffffffff166323b872dd3360045f9054906101000a900473ffffffffffffffffffffffffffffffffffffffff16846040518463ffffffff1660e01b8152600401610e8e93929190612354565b6020604051808303815f875af1158015610eaa573d5f803e3d5ffd5b505050506040513d601f19601f82011682018060405250810190610ece91906120b5565b610f0d576040517f08c379a0000000000000000000000000000000000000000000000000000000008152600401610f04906123d3565b60405180910390fd5b610f4d565b6040517f08c379a0000000000000000000000000000000000000000000000000000000008152600401610f449061243b565b60405180910390fd5b5b610f5833846115b5565b3373ffffffffffffffffffffffffffffffffffffffff167f97b8e46ce6a858394214fb0002594294805c68b044a2105798d860d0f922451a8484604051610fa09291906124a9565b60405180910390a25f600560295460098110610fbf57610fbe611e37565b5b600402016001015403611033576008602954036110295742600560295460098110610fed57610fec611e37565b5b60040201600301819055507f1eb1561f8507eb9bc6988331f66f369e75710f2b4b678ad5b4a52454b6636f5f60405160405180910390a1611032565b611031611534565b5b5b505050565b611040611498565b8060015f6101000a81548173ffffffffffffffffffffffffffffffffffffffff021916908373ffffffffffffffffffffffffffffffffffffffff16021790555050565b61108b611498565b6110945f6116fb565b565b602d602052805f5260405f205f915054906101000a900460ff1681565b5f8060646110e66005602954600981106110d0576110cf611e37565b5b600402015f0154866117bc90919063ffffffff16565b6110f09190612504565b90505f602e846040516111039190612564565b90815260200160405180910390205f9054906101000a900473ffffffffffffffffffffffffffffffffffffffff1690505f8190505f8173ffffffffffffffffffffffffffffffffffffffff1663feaf968c6040518163ffffffff1660e01b815260040160a060405180830381865afa158015611181573d5f803e3d5ffd5b505050506040513d601f19601f820116820180604052508101906111a591906125f7565b5050509150505f6402540be400826111bd919061266e565b670de0b6b3a7640000866111d191906126e4565b6111db9190612725565b9050809550505050505092915050565b6111f3611498565b5f73ffffffffffffffffffffffffffffffffffffffff168173ffffffffffffffffffffffffffffffffffffffff1603611261576040517f08c379a0000000000000000000000000000000000000000000000000000000008152600401611258906127d7565b60405180910390fd5b8060035f6101000a81548173ffffffffffffffffffffffffffffffffffffffff021916908373ffffffffffffffffffffffffffffffffffffffff16021790555050565b600581600981106112b3575f80fd5b600402015f91509050805f0154908060010154908060020154908060030154905084565b5f805f9054906101000a900473ffffffffffffffffffffffffffffffffffffffff16905090565b611306611498565b5f73ffffffffffffffffffffffffffffffffffffffff168173ffffffffffffffffffffffffffffffffffffffff1603611374576040517f08c379a000000000000000000000000000000000000000000000000000000000815260040161136b906127d7565b60405180910390fd5b8060045f6101000a81548173ffffffffffffffffffffffffffffffffffffffff021916908373ffffffffffffffffffffffffffffffffffffffff16021790555050565b602a5481565b61012c81565b5f602954905090565b6113d4611498565b5f73ffffffffffffffffffffffffffffffffffffffff168173ffffffffffffffffffffffffffffffffffffffff1603611444575f6040517f1e4fbdf700000000000000000000000000000000000000000000000000000000815260040161143b9190611a6b565b60405180910390fd5b61144d816116fb565b50565b602e818051602081018201805184825260208301602085012081835280955050505050505f915054906101000a900473ffffffffffffffffffffffffffffffffffffffff1681565b6114a06117d1565b73ffffffffffffffffffffffffffffffffffffffff166114be6112d7565b73ffffffffffffffffffffffffffffffffffffffff161461151d576114e16117d1565b6040517f118cdaa70000000000000000000000000000000000000000000000000000000081526004016115149190611a6b565b60405180910390fd5b565b5f818361152c9190611e91565b905092915050565b6001600961154291906127f5565b60295410156115b35760295f81548092919061155d90612828565b91905055504260056029546009811061157957611578611e37565b5b60040201600201819055506078426115919190611e91565b6005602954600981106115a7576115a6611e37565b5b60040201600301819055505b565b806005602954600981106115cc576115cb611e37565b5b60040201600101541015611615576040517f08c379a000000000000000000000000000000000000000000000000000000000815260040161160c906128b9565b60405180910390fd5b6116458160056029546009811061162f5761162e611e37565b5b60040201600101546117d890919063ffffffff16565b60056029546009811061165b5761165a611e37565b5b60040201600101819055506116b681602c5f8573ffffffffffffffffffffffffffffffffffffffff1673ffffffffffffffffffffffffffffffffffffffff1681526020019081526020015f205461151f90919063ffffffff16565b602c5f8473ffffffffffffffffffffffffffffffffffffffff1673ffffffffffffffffffffffffffffffffffffffff1681526020019081526020015f20819055505050565b5f805f9054906101000a900473ffffffffffffffffffffffffffffffffffffffff169050815f806101000a81548173ffffffffffffffffffffffffffffffffffffffff021916908373ffffffffffffffffffffffffffffffffffffffff1602179055508173ffffffffffffffffffffffffffffffffffffffff168173ffffffffffffffffffffffffffffffffffffffff167f8be0079c531659141344cd1fd0a4f28419497f9722a3daafe3b4186f6b6457e060405160405180910390a35050565b5f81836117c991906126e4565b905092915050565b5f33905090565b5f81836117e591906127f5565b905092915050565b5f604051905090565b5f80fd5b5f80fd5b5f73ffffffffffffffffffffffffffffffffffffffff82169050919050565b5f611827826117fe565b9050919050565b6118378161181d565b8114611841575f80fd5b50565b5f813590506118528161182e565b92915050565b5f6020828403121561186d5761186c6117f6565b5b5f61187a84828501611844565b91505092915050565b5f819050919050565b61189581611883565b82525050565b5f6020820190506118ae5f83018461188c565b92915050565b5f819050919050565b5f6118d76118d26118cd846117fe565b6118b4565b6117fe565b9050919050565b5f6118e8826118bd565b9050919050565b5f6118f9826118de565b9050919050565b611909816118ef565b82525050565b5f6020820190506119225f830184611900565b92915050565b5f80fd5b5f80fd5b5f80fd5b5f8083601f84011261194957611948611928565b5b8235905067ffffffffffffffff8111156119665761196561192c565b5b60208301915083602082028301111561198257611981611930565b5b9250929050565b5f8083601f84011261199e5761199d611928565b5b8235905067ffffffffffffffff8111156119bb576119ba61192c565b5b6020830191508360208202830111156119d7576119d6611930565b5b9250929050565b5f805f80604085870312156119f6576119f56117f6565b5b5f85013567ffffffffffffffff811115611a1357611a126117fa565b5b611a1f87828801611934565b9450945050602085013567ffffffffffffffff811115611a4257611a416117fa565b5b611a4e87828801611989565b925092505092959194509250565b611a658161181d565b82525050565b5f602082019050611a7e5f830184611a5c565b92915050565b611a8d81611883565b8114611a97575f80fd5b50565b5f81359050611aa881611a84565b92915050565b5f80fd5b5f601f19601f8301169050919050565b7f4e487b71000000000000000000000000000000000000000000000000000000005f52604160045260245ffd5b611af882611ab2565b810181811067ffffffffffffffff82111715611b1757611b16611ac2565b5b80604052505050565b5f611b296117ed565b9050611b358282611aef565b919050565b5f67ffffffffffffffff821115611b5457611b53611ac2565b5b611b5d82611ab2565b9050602081019050919050565b828183375f83830152505050565b5f611b8a611b8584611b3a565b611b20565b905082815260208101848484011115611ba657611ba5611aae565b5b611bb1848285611b6a565b509392505050565b5f82601f830112611bcd57611bcc611928565b5b8135611bdd848260208601611b78565b91505092915050565b5f8060408385031215611bfc57611bfb6117f6565b5b5f611c0985828601611a9a565b925050602083013567ffffffffffffffff811115611c2a57611c296117fa565b5b611c3685828601611bb9565b9150509250929050565b5f8115159050919050565b611c5481611c40565b82525050565b5f602082019050611c6d5f830184611c4b565b92915050565b5f819050919050565b611c8581611c73565b82525050565b5f602082019050611c9e5f830184611c7c565b92915050565b5f60208284031215611cb957611cb86117f6565b5b5f611cc684828501611a9a565b91505092915050565b5f608082019050611ce25f83018761188c565b611cef602083018661188c565b611cfc604083018561188c565b611d09606083018461188c565b95945050505050565b5f611d1c826117fe565b9050919050565b611d2c81611d12565b8114611d36575f80fd5b50565b5f81359050611d4781611d23565b92915050565b5f60208284031215611d6257611d616117f6565b5b5f611d6f84828501611d39565b91505092915050565b5f60208284031215611d8d57611d8c6117f6565b5b5f82013567ffffffffffffffff811115611daa57611da96117fa565b5b611db684828501611bb9565b91505092915050565b5f82825260208201905092915050565b7f50726573616c6520616c726561647920737461727465640000000000000000005f82015250565b5f611e03601783611dbf565b9150611e0e82611dcf565b602082019050919050565b5f6020820190508181035f830152611e3081611df7565b9050919050565b7f4e487b71000000000000000000000000000000000000000000000000000000005f52603260045260245ffd5b7f4e487b71000000000000000000000000000000000000000000000000000000005f52601160045260245ffd5b5f611e9b82611883565b9150611ea683611883565b9250828201905080821115611ebe57611ebd611e64565b5b92915050565b7f50726573616c65206973207374696c6c206163746976650000000000000000005f82015250565b5f611ef8601783611dbf565b9150611f0382611ec4565b602082019050919050565b5f6020820190508181035f830152611f2581611eec565b9050919050565b7f436c61696d20706572696f64206e6f74207374617274656400000000000000005f82015250565b5f611f60601883611dbf565b9150611f6b82611f2c565b602082019050919050565b5f6020820190508181035f830152611f8d81611f54565b9050919050565b7f474550537320616c726561647920636c61696d656400000000000000000000005f82015250565b5f611fc8601583611dbf565b9150611fd382611f94565b602082019050919050565b5f6020820190508181035f830152611ff581611fbc565b9050919050565b7f4e6f20474550537320746f20636c61696d0000000000000000000000000000005f82015250565b5f612030601183611dbf565b915061203b82611ffc565b602082019050919050565b5f6020820190508181035f83015261205d81612024565b9050919050565b5f6040820190506120775f830185611a5c565b612084602083018461188c565b9392505050565b61209481611c40565b811461209e575f80fd5b50565b5f815190506120af8161208b565b92915050565b5f602082840312156120ca576120c96117f6565b5b5f6120d7848285016120a1565b91505092915050565b7f504643523a3031000000000000000000000000000000000000000000000000005f82015250565b5f612114600783611dbf565b915061211f826120e0565b602082019050919050565b5f6020820190508181035f83015261214181612108565b9050919050565b5f80fd5b5f80fd5b5f80fd5b5f80833560016020038436030381126121705761216f612148565b5b80840192508235915067ffffffffffffffff8211156121925761219161214c565b5b6020830192506001820236038313156121ae576121ad612150565b5b509250929050565b5f81905092915050565b5f6121cb83856121b6565b93506121d8838584611b6a565b82840190509392505050565b5f6121f08284866121c0565b91508190509392505050565b7f50726573616c65204e6f742073746172746564000000000000000000000000005f82015250565b5f612230601383611dbf565b915061223b826121fc565b602082019050919050565b5f6020820190508181035f83015261225d81612224565b9050919050565b7f416d6f756e74206d7573742062652067726561746572207468616e207a65726f5f82015250565b5f612298602083611dbf565b91506122a382612264565b602082019050919050565b5f6020820190508181035f8301526122c58161228c565b9050919050565b7f496e73756666696369656e7420424e422073656e7400000000000000000000005f82015250565b5f612300601583611dbf565b915061230b826122cc565b602082019050919050565b5f6020820190508181035f83015261232d816122f4565b9050919050565b5f61233e826118de565b9050919050565b61234e81612334565b82525050565b5f6060820190506123675f830186611a5c565b6123746020830185612345565b612381604083018461188c565b949350505050565b7f42555344207472616e73666572206661696c65640000000000000000000000005f82015250565b5f6123bd601483611dbf565b91506123c882612389565b602082019050919050565b5f6020820190508181035f8301526123ea816123b1565b9050919050565b7f556e737570706f727465642063757272656e63790000000000000000000000005f82015250565b5f612425601483611dbf565b9150612430826123f1565b602082019050919050565b5f6020820190508181035f83015261245281612419565b9050919050565b5f81519050919050565b8281835e5f83830152505050565b5f61247b82612459565b6124858185611dbf565b9350612495818560208601612463565b61249e81611ab2565b840191505092915050565b5f6040820190506124bc5f83018561188c565b81810360208301526124ce8184612471565b90509392505050565b7f4e487b71000000000000000000000000000000000000000000000000000000005f52601260045260245ffd5b5f61250e82611883565b915061251983611883565b925082612529576125286124d7565b5b828204905092915050565b5f61253e82612459565b61254881856121b6565b9350612558818560208601612463565b80840191505092915050565b5f61256f8284612534565b915081905092915050565b5f69ffffffffffffffffffff82169050919050565b6125988161257a565b81146125a2575f80fd5b50565b5f815190506125b38161258f565b92915050565b6125c281611c73565b81146125cc575f80fd5b50565b5f815190506125dd816125b9565b92915050565b5f815190506125f181611a84565b92915050565b5f805f805f60a086880312156126105761260f6117f6565b5b5f61261d888289016125a5565b955050602061262e888289016125cf565b945050604061263f888289016125e3565b9350506060612650888289016125e3565b9250506080612661888289016125a5565b9150509295509295909350565b5f61267882611c73565b915061268383611c73565b925082820261269181611c73565b91507f800000000000000000000000000000000000000000000000000000000000000084145f841216156126c8576126c7611e64565b5b82820584148315176126dd576126dc611e64565b5b5092915050565b5f6126ee82611883565b91506126f983611883565b925082820261270781611883565b9150828204841483151761271e5761271d611e64565b5b5092915050565b5f61272f82611c73565b915061273a83611c73565b92508261274a576127496124d7565b5b60015f0383147f80000000000000000000000000000000000000000000000000000000000000008314161561278257612781611e64565b5b828205905092915050565b7f496e76616c6964206164647265737300000000000000000000000000000000005f82015250565b5f6127c1600f83611dbf565b91506127cc8261278d565b602082019050919050565b5f6020820190508181035f8301526127ee816127b5565b9050919050565b5f6127ff82611883565b915061280a83611883565b925082820390508181111561282257612821611e64565b5b92915050565b5f61283282611883565b91507fffffffffffffffffffffffffffffffffffffffffffffffffffffffffffffffff820361286457612863611e64565b5b600182019050919050565b7f4e6f7420656e6f75676820474550537320617661696c61626c650000000000005f82015250565b5f6128a3601a83611dbf565b91506128ae8261286f565b602082019050919050565b5f6020820190508181035f8301526128d081612897565b905091905056fea264697066735822122023666138308597c89b7e8bccb941233a86efe3ebb8c19e6c25af5c899b30907464736f6c634300081a0033",
					"opcodes": "PUSH1 0x80 PUSH1 0x40 MSTORE CALLVALUE DUP1 ISZERO PUSH2 0xF JUMPI PUSH0 DUP1 REVERT JUMPDEST POP PUSH1 0x40 MLOAD PUSH2 0x3088 CODESIZE SUB DUP1 PUSH2 0x3088 DUP4 CODECOPY DUP2 DUP2 ADD PUSH1 0x40 MSTORE DUP2 ADD SWAP1 PUSH2 0x31 SWAP2 SWAP1 PUSH2 0x6C9 JUMP JUMPDEST CALLER PUSH0 PUSH20 0xFFFFFFFFFFFFFFFFFFFFFFFFFFFFFFFFFFFFFFFF AND DUP2 PUSH20 0xFFFFFFFFFFFFFFFFFFFFFFFFFFFFFFFFFFFFFFFF AND SUB PUSH2 0xA2 JUMPI PUSH0 PUSH1 0x40 MLOAD PUSH32 0x1E4FBDF700000000000000000000000000000000000000000000000000000000 DUP2 MSTORE PUSH1 0x4 ADD PUSH2 0x99 SWAP2 SWAP1 PUSH2 0x728 JUMP JUMPDEST PUSH1 0x40 MLOAD DUP1 SWAP2 SUB SWAP1 REVERT JUMPDEST PUSH2 0xB1 DUP2 PUSH2 0x188 PUSH1 0x20 SHL PUSH1 0x20 SHR JUMP JUMPDEST POP DUP3 PUSH1 0x2 PUSH0 PUSH2 0x100 EXP DUP2 SLOAD DUP2 PUSH20 0xFFFFFFFFFFFFFFFFFFFFFFFFFFFFFFFFFFFFFFFF MUL NOT AND SWAP1 DUP4 PUSH20 0xFFFFFFFFFFFFFFFFFFFFFFFFFFFFFFFFFFFFFFFF AND MUL OR SWAP1 SSTORE POP DUP2 PUSH1 0x3 PUSH0 PUSH2 0x100 EXP DUP2 SLOAD DUP2 PUSH20 0xFFFFFFFFFFFFFFFFFFFFFFFFFFFFFFFFFFFFFFFF MUL NOT AND SWAP1 DUP4 PUSH20 0xFFFFFFFFFFFFFFFFFFFFFFFFFFFFFFFFFFFFFFFF AND MUL OR SWAP1 SSTORE POP DUP1 PUSH1 0x4 PUSH0 PUSH2 0x100 EXP DUP2 SLOAD DUP2 PUSH20 0xFFFFFFFFFFFFFFFFFFFFFFFFFFFFFFFFFFFFFFFF MUL NOT AND SWAP1 DUP4 PUSH20 0xFFFFFFFFFFFFFFFFFFFFFFFFFFFFFFFFFFFFFFFF AND MUL OR SWAP1 SSTORE POP PUSH2 0x180 PUSH2 0x249 PUSH1 0x20 SHL PUSH1 0x20 SHR JUMP JUMPDEST POP POP POP PUSH2 0x76E JUMP JUMPDEST PUSH0 DUP1 PUSH0 SWAP1 SLOAD SWAP1 PUSH2 0x100 EXP SWAP1 DIV PUSH20 0xFFFFFFFFFFFFFFFFFFFFFFFFFFFFFFFFFFFFFFFF AND SWAP1 POP DUP2 PUSH0 DUP1 PUSH2 0x100 EXP DUP2 SLOAD DUP2 PUSH20 0xFFFFFFFFFFFFFFFFFFFFFFFFFFFFFFFFFFFFFFFF MUL NOT AND SWAP1 DUP4 PUSH20 0xFFFFFFFFFFFFFFFFFFFFFFFFFFFFFFFFFFFFFFFF AND MUL OR SWAP1 SSTORE POP DUP2 PUSH20 0xFFFFFFFFFFFFFFFFFFFFFFFFFFFFFFFFFFFFFFFF AND DUP2 PUSH20 0xFFFFFFFFFFFFFFFFFFFFFFFFFFFFFFFFFFFFFFFF AND PUSH32 0x8BE0079C531659141344CD1FD0A4F28419497F9722A3DAAFE3B4186F6B6457E0 PUSH1 0x40 MLOAD PUSH1 0x40 MLOAD DUP1 SWAP2 SUB SWAP1 LOG3 POP POP JUMP JUMPDEST PUSH1 0x40 MLOAD DUP1 PUSH1 0x80 ADD PUSH1 0x40 MSTORE DUP1 PUSH1 0x1 DUP2 MSTORE PUSH1 0x20 ADD PUSH11 0x1D693012228A4C8400000 DUP2 MSTORE PUSH1 0x20 ADD PUSH0 DUP2 MSTORE PUSH1 0x20 ADD PUSH0 DUP2 MSTORE POP PUSH1 0x5 PUSH0 PUSH1 0x9 DUP2 LT PUSH2 0x28A JUMPI PUSH2 0x289 PUSH2 0x741 JUMP JUMPDEST JUMPDEST PUSH1 0x4 MUL ADD PUSH0 DUP3 ADD MLOAD DUP2 PUSH0 ADD SSTORE PUSH1 0x20 DUP3 ADD MLOAD DUP2 PUSH1 0x1 ADD SSTORE PUSH1 0x40 DUP3 ADD MLOAD DUP2 PUSH1 0x2 ADD SSTORE PUSH1 0x60 DUP3 ADD MLOAD DUP2 PUSH1 0x3 ADD SSTORE SWAP1 POP POP PUSH1 0x40 MLOAD DUP1 PUSH1 0x80 ADD PUSH1 0x40 MSTORE DUP1 PUSH1 0x5 DUP2 MSTORE PUSH1 0x20 ADD PUSH11 0x1D692E560BB3D79780000 DUP2 MSTORE PUSH1 0x20 ADD PUSH0 DUP2 MSTORE PUSH1 0x20 ADD PUSH0 DUP2 MSTORE POP PUSH1 0x5 PUSH1 0x1 PUSH1 0x9 DUP2 LT PUSH2 0x2F9 JUMPI PUSH2 0x2F8 PUSH2 0x741 JUMP JUMPDEST JUMPDEST PUSH1 0x4 MUL ADD PUSH0 DUP3 ADD MLOAD DUP2 PUSH0 ADD SSTORE PUSH1 0x20 DUP3 ADD MLOAD DUP2 PUSH1 0x1 ADD SSTORE PUSH1 0x40 DUP3 ADD MLOAD DUP2 PUSH1 0x2 ADD SSTORE PUSH1 0x60 DUP3 ADD MLOAD DUP2 PUSH1 0x3 ADD SSTORE SWAP1 POP POP PUSH1 0x40 MLOAD DUP1 PUSH1 0x80 ADD PUSH1 0x40 MSTORE DUP1 PUSH1 0xA DUP2 MSTORE PUSH1 0x20 ADD PUSH11 0x1D692E560BB3D79780000 DUP2 MSTORE PUSH1 0x20 ADD PUSH0 DUP2 MSTORE PUSH1 0x20 ADD PUSH0 DUP2 MSTORE POP PUSH1 0x5 PUSH1 0x2 PUSH1 0x9 DUP2 LT PUSH2 0x368 JUMPI PUSH2 0x367 PUSH2 0x741 JUMP JUMPDEST JUMPDEST PUSH1 0x4 MUL ADD PUSH0 DUP3 ADD MLOAD DUP2 PUSH0 ADD SSTORE PUSH1 0x20 DUP3 ADD MLOAD DUP2 PUSH1 0x1 ADD SSTORE PUSH1 0x40 DUP3 ADD MLOAD DUP2 PUSH1 0x2 ADD SSTORE PUSH1 0x60 DUP3 ADD MLOAD DUP2 PUSH1 0x3 ADD SSTORE SWAP1 POP POP PUSH1 0x40 MLOAD DUP1 PUSH1 0x80 ADD PUSH1 0x40 MSTORE DUP1 PUSH1 0xF DUP2 MSTORE PUSH1 0x20 ADD PUSH11 0x1D692E560BB3D79780000 DUP2 MSTORE PUSH1 0x20 ADD PUSH0 DUP2 MSTORE PUSH1 0x20 ADD PUSH0 DUP2 MSTORE POP PUSH1 0x5 PUSH1 0x3 PUSH1 0x9 DUP2 LT PUSH2 0x3D7 JUMPI PUSH2 0x3D6 PUSH2 0x741 JUMP JUMPDEST JUMPDEST PUSH1 0x4 MUL ADD PUSH0 DUP3 ADD MLOAD DUP2 PUSH0 ADD SSTORE PUSH1 0x20 DUP3 ADD MLOAD DUP2 PUSH1 0x1 ADD SSTORE PUSH1 0x40 DUP3 ADD MLOAD DUP2 PUSH1 0x2 ADD SSTORE PUSH1 0x60 DUP3 ADD MLOAD DUP2 PUSH1 0x3 ADD SSTORE SWAP1 POP POP PUSH1 0x40 MLOAD DUP1 PUSH1 0x80 ADD PUSH1 0x40 MSTORE DUP1 PUSH1 0x14 DUP2 MSTORE PUSH1 0x20 ADD PUSH11 0x1D692E560BB3D79780000 DUP2 MSTORE PUSH1 0x20 ADD PUSH0 DUP2 MSTORE PUSH1 0x20 ADD PUSH0 DUP2 MSTORE POP PUSH1 0x5 PUSH1 0x4 PUSH1 0x9 DUP2 LT PUSH2 0x446 JUMPI PUSH2 0x445 PUSH2 0x741 JUMP JUMPDEST JUMPDEST PUSH1 0x4 MUL ADD PUSH0 DUP3 ADD MLOAD DUP2 PUSH0 ADD SSTORE PUSH1 0x20 DUP3 ADD MLOAD DUP2 PUSH1 0x1 ADD SSTORE PUSH1 0x40 DUP3 ADD MLOAD DUP2 PUSH1 0x2 ADD SSTORE PUSH1 0x60 DUP3 ADD MLOAD DUP2 PUSH1 0x3 ADD SSTORE SWAP1 POP POP PUSH1 0x40 MLOAD DUP1 PUSH1 0x80 ADD PUSH1 0x40 MSTORE DUP1 PUSH1 0x19 DUP2 MSTORE PUSH1 0x20 ADD PUSH11 0x1D692E560BB3D79780000 DUP2 MSTORE PUSH1 0x20 ADD PUSH0 DUP2 MSTORE PUSH1 0x20 ADD PUSH0 DUP2 MSTORE POP PUSH1 0x5 DUP1 PUSH1 0x9 DUP2 LT PUSH2 0x4B4 JUMPI PUSH2 0x4B3 PUSH2 0x741 JUMP JUMPDEST JUMPDEST PUSH1 0x4 MUL ADD PUSH0 DUP3 ADD MLOAD DUP2 PUSH0 ADD SSTORE PUSH1 0x20 DUP3 ADD MLOAD DUP2 PUSH1 0x1 ADD SSTORE PUSH1 0x40 DUP3 ADD MLOAD DUP2 PUSH1 0x2 ADD SSTORE PUSH1 0x60 DUP3 ADD MLOAD DUP2 PUSH1 0x3 ADD SSTORE SWAP1 POP POP PUSH1 0x40 MLOAD DUP1 PUSH1 0x80 ADD PUSH1 0x40 MSTORE DUP1 PUSH1 0x1E DUP2 MSTORE PUSH1 0x20 ADD PUSH11 0x1D692E560BB3D79780000 DUP2 MSTORE PUSH1 0x20 ADD PUSH0 DUP2 MSTORE PUSH1 0x20 ADD PUSH0 DUP2 MSTORE POP PUSH1 0x5 PUSH1 0x6 PUSH1 0x9 DUP2 LT PUSH2 0x523 JUMPI PUSH2 0x522 PUSH2 0x741 JUMP JUMPDEST JUMPDEST PUSH1 0x4 MUL ADD PUSH0 DUP3 ADD MLOAD DUP2 PUSH0 ADD SSTORE PUSH1 0x20 DUP3 ADD MLOAD DUP2 PUSH1 0x1 ADD SSTORE PUSH1 0x40 DUP3 ADD MLOAD DUP2 PUSH1 0x2 ADD SSTORE PUSH1 0x60 DUP3 ADD MLOAD DUP2 PUSH1 0x3 ADD SSTORE SWAP1 POP POP PUSH1 0x40 MLOAD DUP1 PUSH1 0x80 ADD PUSH1 0x40 MSTORE DUP1 PUSH1 0x23 DUP2 MSTORE PUSH1 0x20 ADD PUSH11 0x1D692E560BB3D79780000 DUP2 MSTORE PUSH1 0x20 ADD PUSH0 DUP2 MSTORE PUSH1 0x20 ADD PUSH0 DUP2 MSTORE POP PUSH1 0x5 PUSH1 0x7 PUSH1 0x9 DUP2 LT PUSH2 0x592 JUMPI PUSH2 0x591 PUSH2 0x741 JUMP JUMPDEST JUMPDEST PUSH1 0x4 MUL ADD PUSH0 DUP3 ADD MLOAD DUP2 PUSH0 ADD SSTORE PUSH1 0x20 DUP3 ADD MLOAD DUP2 PUSH1 0x1 ADD SSTORE PUSH1 0x40 DUP3 ADD MLOAD DUP2 PUSH1 0x2 ADD SSTORE PUSH1 0x60 DUP3 ADD MLOAD DUP2 PUSH1 0x3 ADD SSTORE SWAP1 POP POP PUSH1 0x40 MLOAD DUP1 PUSH1 0x80 ADD PUSH1 0x40 MSTORE DUP1 PUSH1 0x28 DUP2 MSTORE PUSH1 0x20 ADD PUSH11 0x1D692E560BB3D79780000 DUP2 MSTORE PUSH1 0x20 ADD PUSH0 DUP2 MSTORE PUSH1 0x20 ADD PUSH0 DUP2 MSTORE POP PUSH1 0x5 PUSH1 0x8 PUSH1 0x9 DUP2 LT PUSH2 0x601 JUMPI PUSH2 0x600 PUSH2 0x741 JUMP JUMPDEST JUMPDEST PUSH1 0x4 MUL ADD PUSH0 DUP3 ADD MLOAD DUP2 PUSH0 ADD SSTORE PUSH1 0x20 DUP3 ADD MLOAD DUP2 PUSH1 0x1 ADD SSTORE PUSH1 0x40 DUP3 ADD MLOAD DUP2 PUSH1 0x2 ADD SSTORE PUSH1 0x60 DUP3 ADD MLOAD DUP2 PUSH1 0x3 ADD SSTORE SWAP1 POP POP JUMP JUMPDEST PUSH0 DUP1 REVERT JUMPDEST PUSH0 PUSH20 0xFFFFFFFFFFFFFFFFFFFFFFFFFFFFFFFFFFFFFFFF DUP3 AND SWAP1 POP SWAP2 SWAP1 POP JUMP JUMPDEST PUSH0 PUSH2 0x65D DUP3 PUSH2 0x634 JUMP JUMPDEST SWAP1 POP SWAP2 SWAP1 POP JUMP JUMPDEST PUSH2 0x66D DUP2 PUSH2 0x653 JUMP JUMPDEST DUP2 EQ PUSH2 0x677 JUMPI PUSH0 DUP1 REVERT JUMPDEST POP JUMP JUMPDEST PUSH0 DUP2 MLOAD SWAP1 POP PUSH2 0x688 DUP2 PUSH2 0x664 JUMP JUMPDEST SWAP3 SWAP2 POP POP JUMP JUMPDEST PUSH0 PUSH2 0x698 DUP3 PUSH2 0x634 JUMP JUMPDEST SWAP1 POP SWAP2 SWAP1 POP JUMP JUMPDEST PUSH2 0x6A8 DUP2 PUSH2 0x68E JUMP JUMPDEST DUP2 EQ PUSH2 0x6B2 JUMPI PUSH0 DUP1 REVERT JUMPDEST POP JUMP JUMPDEST PUSH0 DUP2 MLOAD SWAP1 POP PUSH2 0x6C3 DUP2 PUSH2 0x69F JUMP JUMPDEST SWAP3 SWAP2 POP POP JUMP JUMPDEST PUSH0 DUP1 PUSH0 PUSH1 0x60 DUP5 DUP7 SUB SLT ISZERO PUSH2 0x6E0 JUMPI PUSH2 0x6DF PUSH2 0x630 JUMP JUMPDEST JUMPDEST PUSH0 PUSH2 0x6ED DUP7 DUP3 DUP8 ADD PUSH2 0x67A JUMP JUMPDEST SWAP4 POP POP PUSH1 0x20 PUSH2 0x6FE DUP7 DUP3 DUP8 ADD PUSH2 0x67A JUMP JUMPDEST SWAP3 POP POP PUSH1 0x40 PUSH2 0x70F DUP7 DUP3 DUP8 ADD PUSH2 0x6B5 JUMP JUMPDEST SWAP2 POP POP SWAP3 POP SWAP3 POP SWAP3 JUMP JUMPDEST PUSH2 0x722 DUP2 PUSH2 0x653 JUMP JUMPDEST DUP3 MSTORE POP POP JUMP JUMPDEST PUSH0 PUSH1 0x20 DUP3 ADD SWAP1 POP PUSH2 0x73B PUSH0 DUP4 ADD DUP5 PUSH2 0x719 JUMP JUMPDEST SWAP3 SWAP2 POP POP JUMP JUMPDEST PUSH32 0x4E487B7100000000000000000000000000000000000000000000000000000000 PUSH0 MSTORE PUSH1 0x32 PUSH1 0x4 MSTORE PUSH1 0x24 PUSH0 REVERT JUMPDEST PUSH2 0x290D DUP1 PUSH2 0x77B PUSH0 CODECOPY PUSH0 RETURN INVALID PUSH1 0x80 PUSH1 0x40 MSTORE PUSH1 0x4 CALLDATASIZE LT PUSH2 0x180 JUMPI PUSH0 CALLDATALOAD PUSH1 0xE0 SHR DUP1 PUSH4 0x6E14600F GT PUSH2 0xD0 JUMPI DUP1 PUSH4 0x8DA5CB5B GT PUSH2 0x89 JUMPI DUP1 PUSH4 0xE18132C4 GT PUSH2 0x63 JUMPI DUP1 PUSH4 0xE18132C4 EQ PUSH2 0x519 JUMPI DUP1 PUSH4 0xEEDBE31D EQ PUSH2 0x543 JUMPI DUP1 PUSH4 0xF2FDE38B EQ PUSH2 0x56D JUMPI DUP1 PUSH4 0xF94F983A EQ PUSH2 0x595 JUMPI PUSH2 0x180 JUMP JUMPDEST DUP1 PUSH4 0x8DA5CB5B EQ PUSH2 0x49D JUMPI DUP1 PUSH4 0x8E17C017 EQ PUSH2 0x4C7 JUMPI DUP1 PUSH4 0xA82524B2 EQ PUSH2 0x4EF JUMPI PUSH2 0x180 JUMP JUMPDEST DUP1 PUSH4 0x6E14600F EQ PUSH2 0x380 JUMPI DUP1 PUSH4 0x715018A6 EQ PUSH2 0x3A8 JUMPI DUP1 PUSH4 0x73B2E80E EQ PUSH2 0x3BE JUMPI DUP1 PUSH4 0x7E8558D7 EQ PUSH2 0x3FA JUMPI DUP1 PUSH4 0x841E4561 EQ PUSH2 0x436 JUMPI DUP1 PUSH4 0x845DDCB2 EQ PUSH2 0x45E JUMPI PUSH2 0x180 JUMP JUMPDEST DUP1 PUSH4 0x3F957B0D GT PUSH2 0x13D JUMPI DUP1 PUSH4 0x59AC5E18 GT PUSH2 0x117 JUMPI DUP1 PUSH4 0x59AC5E18 EQ PUSH2 0x2E8 JUMPI DUP1 PUSH4 0x5BF5D54C EQ PUSH2 0x310 JUMPI DUP1 PUSH4 0x61D027B3 EQ PUSH2 0x33A JUMPI DUP1 PUSH4 0x67FAA4B6 EQ PUSH2 0x364 JUMPI PUSH2 0x180 JUMP JUMPDEST DUP1 PUSH4 0x3F957B0D EQ PUSH2 0x27E JUMPI DUP1 PUSH4 0x51F9EFDE EQ PUSH2 0x294 JUMPI DUP1 PUSH4 0x54C4152E EQ PUSH2 0x2BE JUMPI PUSH2 0x180 JUMP JUMPDEST DUP1 PUSH4 0x4C98B2B EQ PUSH2 0x184 JUMPI DUP1 PUSH4 0x1A8A63EB EQ PUSH2 0x19A JUMPI DUP1 PUSH4 0x1C2DDA48 EQ PUSH2 0x1D6 JUMPI DUP1 PUSH4 0x249B7C19 EQ PUSH2 0x200 JUMPI DUP1 PUSH4 0x3CA5B234 EQ PUSH2 0x22A JUMPI DUP1 PUSH4 0x3EA92D73 EQ PUSH2 0x254 JUMPI JUMPDEST PUSH0 DUP1 REVERT JUMPDEST CALLVALUE DUP1 ISZERO PUSH2 0x18F JUMPI PUSH0 DUP1 REVERT JUMPDEST POP PUSH2 0x198 PUSH2 0x5D1 JUMP JUMPDEST STOP JUMPDEST CALLVALUE DUP1 ISZERO PUSH2 0x1A5 JUMPI PUSH0 DUP1 REVERT JUMPDEST POP PUSH2 0x1C0 PUSH1 0x4 DUP1 CALLDATASIZE SUB DUP2 ADD SWAP1 PUSH2 0x1BB SWAP2 SWAP1 PUSH2 0x1858 JUMP JUMPDEST PUSH2 0x6A9 JUMP JUMPDEST PUSH1 0x40 MLOAD PUSH2 0x1CD SWAP2 SWAP1 PUSH2 0x189B JUMP JUMPDEST PUSH1 0x40 MLOAD DUP1 SWAP2 SUB SWAP1 RETURN JUMPDEST CALLVALUE DUP1 ISZERO PUSH2 0x1E1 JUMPI PUSH0 DUP1 REVERT JUMPDEST POP PUSH2 0x1EA PUSH2 0x6BE JUMP JUMPDEST PUSH1 0x40 MLOAD PUSH2 0x1F7 SWAP2 SWAP1 PUSH2 0x190F JUMP JUMPDEST PUSH1 0x40 MLOAD DUP1 SWAP2 SUB SWAP1 RETURN JUMPDEST CALLVALUE DUP1 ISZERO PUSH2 0x20B JUMPI PUSH0 DUP1 REVERT JUMPDEST POP PUSH2 0x214 PUSH2 0x6E3 JUMP JUMPDEST PUSH1 0x40 MLOAD PUSH2 0x221 SWAP2 SWAP1 PUSH2 0x189B JUMP JUMPDEST PUSH1 0x40 MLOAD DUP1 SWAP2 SUB SWAP1 RETURN JUMPDEST CALLVALUE DUP1 ISZERO PUSH2 0x235 JUMPI PUSH0 DUP1 REVERT JUMPDEST POP PUSH2 0x23E PUSH2 0x6E9 JUMP JUMPDEST PUSH1 0x40 MLOAD PUSH2 0x24B SWAP2 SWAP1 PUSH2 0x190F JUMP JUMPDEST PUSH1 0x40 MLOAD DUP1 SWAP2 SUB SWAP1 RETURN JUMPDEST CALLVALUE DUP1 ISZERO PUSH2 0x25F JUMPI PUSH0 DUP1 REVERT JUMPDEST POP PUSH2 0x268 PUSH2 0x70E JUMP JUMPDEST PUSH1 0x40 MLOAD PUSH2 0x275 SWAP2 SWAP1 PUSH2 0x189B JUMP JUMPDEST PUSH1 0x40 MLOAD DUP1 SWAP2 SUB SWAP1 RETURN JUMPDEST CALLVALUE DUP1 ISZERO PUSH2 0x289 JUMPI PUSH0 DUP1 REVERT JUMPDEST POP PUSH2 0x292 PUSH2 0x713 JUMP JUMPDEST STOP JUMPDEST CALLVALUE DUP1 ISZERO PUSH2 0x29F JUMPI PUSH0 DUP1 REVERT JUMPDEST POP PUSH2 0x2A8 PUSH2 0xA12 JUMP JUMPDEST PUSH1 0x40 MLOAD PUSH2 0x2B5 SWAP2 SWAP1 PUSH2 0x189B JUMP JUMPDEST PUSH1 0x40 MLOAD DUP1 SWAP2 SUB SWAP1 RETURN JUMPDEST CALLVALUE DUP1 ISZERO PUSH2 0x2C9 JUMPI PUSH0 DUP1 REVERT JUMPDEST POP PUSH2 0x2D2 PUSH2 0xA17 JUMP JUMPDEST PUSH1 0x40 MLOAD PUSH2 0x2DF SWAP2 SWAP1 PUSH2 0x189B JUMP JUMPDEST PUSH1 0x40 MLOAD DUP1 SWAP2 SUB SWAP1 RETURN JUMPDEST CALLVALUE DUP1 ISZERO PUSH2 0x2F3 JUMPI PUSH0 DUP1 REVERT JUMPDEST POP PUSH2 0x30E PUSH1 0x4 DUP1 CALLDATASIZE SUB DUP2 ADD SWAP1 PUSH2 0x309 SWAP2 SWAP1 PUSH2 0x19DE JUMP JUMPDEST PUSH2 0xA6C JUMP JUMPDEST STOP JUMPDEST CALLVALUE DUP1 ISZERO PUSH2 0x31B JUMPI PUSH0 DUP1 REVERT JUMPDEST POP PUSH2 0x324 PUSH2 0xB85 JUMP JUMPDEST PUSH1 0x40 MLOAD PUSH2 0x331 SWAP2 SWAP1 PUSH2 0x189B JUMP JUMPDEST PUSH1 0x40 MLOAD DUP1 SWAP2 SUB SWAP1 RETURN JUMPDEST CALLVALUE DUP1 ISZERO PUSH2 0x345 JUMPI PUSH0 DUP1 REVERT JUMPDEST POP PUSH2 0x34E PUSH2 0xB8B JUMP JUMPDEST PUSH1 0x40 MLOAD PUSH2 0x35B SWAP2 SWAP1 PUSH2 0x1A6B JUMP JUMPDEST PUSH1 0x40 MLOAD DUP1 SWAP2 SUB SWAP1 RETURN JUMPDEST PUSH2 0x37E PUSH1 0x4 DUP1 CALLDATASIZE SUB DUP2 ADD SWAP1 PUSH2 0x379 SWAP2 SWAP1 PUSH2 0x1BE6 JUMP JUMPDEST PUSH2 0xBB0 JUMP JUMPDEST STOP JUMPDEST CALLVALUE DUP1 ISZERO PUSH2 0x38B JUMPI PUSH0 DUP1 REVERT JUMPDEST POP PUSH2 0x3A6 PUSH1 0x4 DUP1 CALLDATASIZE SUB DUP2 ADD SWAP1 PUSH2 0x3A1 SWAP2 SWAP1 PUSH2 0x1858 JUMP JUMPDEST PUSH2 0x1038 JUMP JUMPDEST STOP JUMPDEST CALLVALUE DUP1 ISZERO PUSH2 0x3B3 JUMPI PUSH0 DUP1 REVERT JUMPDEST POP PUSH2 0x3BC PUSH2 0x1083 JUMP JUMPDEST STOP JUMPDEST CALLVALUE DUP1 ISZERO PUSH2 0x3C9 JUMPI PUSH0 DUP1 REVERT JUMPDEST POP PUSH2 0x3E4 PUSH1 0x4 DUP1 CALLDATASIZE SUB DUP2 ADD SWAP1 PUSH2 0x3DF SWAP2 SWAP1 PUSH2 0x1858 JUMP JUMPDEST PUSH2 0x1096 JUMP JUMPDEST PUSH1 0x40 MLOAD PUSH2 0x3F1 SWAP2 SWAP1 PUSH2 0x1C5A JUMP JUMPDEST PUSH1 0x40 MLOAD DUP1 SWAP2 SUB SWAP1 RETURN JUMPDEST CALLVALUE DUP1 ISZERO PUSH2 0x405 JUMPI PUSH0 DUP1 REVERT JUMPDEST POP PUSH2 0x420 PUSH1 0x4 DUP1 CALLDATASIZE SUB DUP2 ADD SWAP1 PUSH2 0x41B SWAP2 SWAP1 PUSH2 0x1BE6 JUMP JUMPDEST PUSH2 0x10B3 JUMP JUMPDEST PUSH1 0x40 MLOAD PUSH2 0x42D SWAP2 SWAP1 PUSH2 0x1C8B JUMP JUMPDEST PUSH1 0x40 MLOAD DUP1 SWAP2 SUB SWAP1 RETURN JUMPDEST CALLVALUE DUP1 ISZERO PUSH2 0x441 JUMPI PUSH0 DUP1 REVERT JUMPDEST POP PUSH2 0x45C PUSH1 0x4 DUP1 CALLDATASIZE SUB DUP2 ADD SWAP1 PUSH2 0x457 SWAP2 SWAP1 PUSH2 0x1858 JUMP JUMPDEST PUSH2 0x11EB JUMP JUMPDEST STOP JUMPDEST CALLVALUE DUP1 ISZERO PUSH2 0x469 JUMPI PUSH0 DUP1 REVERT JUMPDEST POP PUSH2 0x484 PUSH1 0x4 DUP1 CALLDATASIZE SUB DUP2 ADD SWAP1 PUSH2 0x47F SWAP2 SWAP1 PUSH2 0x1CA4 JUMP JUMPDEST PUSH2 0x12A4 JUMP JUMPDEST PUSH1 0x40 MLOAD PUSH2 0x494 SWAP5 SWAP4 SWAP3 SWAP2 SWAP1 PUSH2 0x1CCF JUMP JUMPDEST PUSH1 0x40 MLOAD DUP1 SWAP2 SUB SWAP1 RETURN JUMPDEST CALLVALUE DUP1 ISZERO PUSH2 0x4A8 JUMPI PUSH0 DUP1 REVERT JUMPDEST POP PUSH2 0x4B1 PUSH2 0x12D7 JUMP JUMPDEST PUSH1 0x40 MLOAD PUSH2 0x4BE SWAP2 SWAP1 PUSH2 0x1A6B JUMP JUMPDEST PUSH1 0x40 MLOAD DUP1 SWAP2 SUB SWAP1 RETURN JUMPDEST CALLVALUE DUP1 ISZERO PUSH2 0x4D2 JUMPI PUSH0 DUP1 REVERT JUMPDEST POP PUSH2 0x4ED PUSH1 0x4 DUP1 CALLDATASIZE SUB DUP2 ADD SWAP1 PUSH2 0x4E8 SWAP2 SWAP1 PUSH2 0x1D4D JUMP JUMPDEST PUSH2 0x12FE JUMP JUMPDEST STOP JUMPDEST CALLVALUE DUP1 ISZERO PUSH2 0x4FA JUMPI PUSH0 DUP1 REVERT JUMPDEST POP PUSH2 0x503 PUSH2 0x13B7 JUMP JUMPDEST PUSH1 0x40 MLOAD PUSH2 0x510 SWAP2 SWAP1 PUSH2 0x189B JUMP JUMPDEST PUSH1 0x40 MLOAD DUP1 SWAP2 SUB SWAP1 RETURN JUMPDEST CALLVALUE DUP1 ISZERO PUSH2 0x524 JUMPI PUSH0 DUP1 REVERT JUMPDEST POP PUSH2 0x52D PUSH2 0x13BD JUMP JUMPDEST PUSH1 0x40 MLOAD PUSH2 0x53A SWAP2 SWAP1 PUSH2 0x189B JUMP JUMPDEST PUSH1 0x40 MLOAD DUP1 SWAP2 SUB SWAP1 RETURN JUMPDEST CALLVALUE DUP1 ISZERO PUSH2 0x54E JUMPI PUSH0 DUP1 REVERT JUMPDEST POP PUSH2 0x557 PUSH2 0x13C3 JUMP JUMPDEST PUSH1 0x40 MLOAD PUSH2 0x564 SWAP2 SWAP1 PUSH2 0x189B JUMP JUMPDEST PUSH1 0x40 MLOAD DUP1 SWAP2 SUB SWAP1 RETURN JUMPDEST CALLVALUE DUP1 ISZERO PUSH2 0x578 JUMPI PUSH0 DUP1 REVERT JUMPDEST POP PUSH2 0x593 PUSH1 0x4 DUP1 CALLDATASIZE SUB DUP2 ADD SWAP1 PUSH2 0x58E SWAP2 SWAP1 PUSH2 0x1858 JUMP JUMPDEST PUSH2 0x13CC JUMP JUMPDEST STOP JUMPDEST CALLVALUE DUP1 ISZERO PUSH2 0x5A0 JUMPI PUSH0 DUP1 REVERT JUMPDEST POP PUSH2 0x5BB PUSH1 0x4 DUP1 CALLDATASIZE SUB DUP2 ADD SWAP1 PUSH2 0x5B6 SWAP2 SWAP1 PUSH2 0x1D78 JUMP JUMPDEST PUSH2 0x1450 JUMP JUMPDEST PUSH1 0x40 MLOAD PUSH2 0x5C8 SWAP2 SWAP1 PUSH2 0x1A6B JUMP JUMPDEST PUSH1 0x40 MLOAD DUP1 SWAP2 SUB SWAP1 RETURN JUMPDEST PUSH2 0x5D9 PUSH2 0x1498 JUMP JUMPDEST PUSH0 PUSH1 0x2A SLOAD EQ PUSH2 0x61D JUMPI PUSH1 0x40 MLOAD PUSH32 0x8C379A000000000000000000000000000000000000000000000000000000000 DUP2 MSTORE PUSH1 0x4 ADD PUSH2 0x614 SWAP1 PUSH2 0x1E19 JUMP JUMPDEST PUSH1 0x40 MLOAD DUP1 SWAP2 SUB SWAP1 REVERT JUMPDEST TIMESTAMP PUSH1 0x2A DUP2 SWAP1 SSTORE POP PUSH0 PUSH1 0x29 DUP2 SWAP1 SSTORE POP TIMESTAMP PUSH1 0x5 PUSH1 0x29 SLOAD PUSH1 0x9 DUP2 LT PUSH2 0x642 JUMPI PUSH2 0x641 PUSH2 0x1E37 JUMP JUMPDEST JUMPDEST PUSH1 0x4 MUL ADD PUSH1 0x2 ADD DUP2 SWAP1 SSTORE POP PUSH1 0x78 TIMESTAMP PUSH2 0x65A SWAP2 SWAP1 PUSH2 0x1E91 JUMP JUMPDEST PUSH1 0x5 PUSH1 0x29 SLOAD PUSH1 0x9 DUP2 LT PUSH2 0x670 JUMPI PUSH2 0x66F PUSH2 0x1E37 JUMP JUMPDEST JUMPDEST PUSH1 0x4 MUL ADD PUSH1 0x3 ADD DUP2 SWAP1 SSTORE POP PUSH32 0x17C3338141363AAB2512C08F8A7764328CA95979F7057663EB93F7E250139B4C PUSH1 0x40 MLOAD PUSH1 0x40 MLOAD DUP1 SWAP2 SUB SWAP1 LOG1 JUMP JUMPDEST PUSH1 0x2C PUSH1 0x20 MSTORE DUP1 PUSH0 MSTORE PUSH1 0x40 PUSH0 KECCAK256 PUSH0 SWAP2 POP SWAP1 POP SLOAD DUP2 JUMP JUMPDEST PUSH1 0x1 PUSH0 SWAP1 SLOAD SWAP1 PUSH2 0x100 EXP SWAP1 DIV PUSH20 0xFFFFFFFFFFFFFFFFFFFFFFFFFFFFFFFFFFFFFFFF AND DUP2 JUMP JUMPDEST PUSH1 0x2B SLOAD DUP2 JUMP JUMPDEST PUSH1 0x2 PUSH0 SWAP1 SLOAD SWAP1 PUSH2 0x100 EXP SWAP1 DIV PUSH20 0xFFFFFFFFFFFFFFFFFFFFFFFFFFFFFFFFFFFFFFFF AND DUP2 JUMP JUMPDEST PUSH1 0x9 DUP2 JUMP JUMPDEST PUSH1 0x2B SLOAD TIMESTAMP GT PUSH2 0x757 JUMPI PUSH1 0x40 MLOAD PUSH32 0x8C379A000000000000000000000000000000000000000000000000000000000 DUP2 MSTORE PUSH1 0x4 ADD PUSH2 0x74E SWAP1 PUSH2 0x1F0E JUMP JUMPDEST PUSH1 0x40 MLOAD DUP1 SWAP2 SUB SWAP1 REVERT JUMPDEST PUSH2 0x12C PUSH1 0x5 PUSH1 0x8 PUSH1 0x9 DUP2 LT PUSH2 0x76F JUMPI PUSH2 0x76E PUSH2 0x1E37 JUMP JUMPDEST JUMPDEST PUSH1 0x4 MUL ADD PUSH1 0x3 ADD SLOAD PUSH2 0x781 SWAP2 SWAP1 PUSH2 0x1E91 JUMP JUMPDEST TIMESTAMP GT PUSH2 0x7C2 JUMPI PUSH1 0x40 MLOAD PUSH32 0x8C379A000000000000000000000000000000000000000000000000000000000 DUP2 MSTORE PUSH1 0x4 ADD PUSH2 0x7B9 SWAP1 PUSH2 0x1F76 JUMP JUMPDEST PUSH1 0x40 MLOAD DUP1 SWAP2 SUB SWAP1 REVERT JUMPDEST PUSH1 0x2D PUSH0 CALLER PUSH20 0xFFFFFFFFFFFFFFFFFFFFFFFFFFFFFFFFFFFFFFFF AND PUSH20 0xFFFFFFFFFFFFFFFFFFFFFFFFFFFFFFFFFFFFFFFF AND DUP2 MSTORE PUSH1 0x20 ADD SWAP1 DUP2 MSTORE PUSH1 0x20 ADD PUSH0 KECCAK256 PUSH0 SWAP1 SLOAD SWAP1 PUSH2 0x100 EXP SWAP1 DIV PUSH1 0xFF AND ISZERO PUSH2 0x84C JUMPI PUSH1 0x40 MLOAD PUSH32 0x8C379A000000000000000000000000000000000000000000000000000000000 DUP2 MSTORE PUSH1 0x4 ADD PUSH2 0x843 SWAP1 PUSH2 0x1FDE JUMP JUMPDEST PUSH1 0x40 MLOAD DUP1 SWAP2 SUB SWAP1 REVERT JUMPDEST PUSH0 PUSH1 0x2C PUSH0 CALLER PUSH20 0xFFFFFFFFFFFFFFFFFFFFFFFFFFFFFFFFFFFFFFFF AND PUSH20 0xFFFFFFFFFFFFFFFFFFFFFFFFFFFFFFFFFFFFFFFF AND DUP2 MSTORE PUSH1 0x20 ADD SWAP1 DUP2 MSTORE PUSH1 0x20 ADD PUSH0 KECCAK256 SLOAD SWAP1 POP PUSH0 DUP2 GT PUSH2 0x8CF JUMPI PUSH1 0x40 MLOAD PUSH32 0x8C379A000000000000000000000000000000000000000000000000000000000 DUP2 MSTORE PUSH1 0x4 ADD PUSH2 0x8C6 SWAP1 PUSH2 0x2046 JUMP JUMPDEST PUSH1 0x40 MLOAD DUP1 SWAP2 SUB SWAP1 REVERT JUMPDEST PUSH1 0x1 PUSH1 0x2D PUSH0 CALLER PUSH20 0xFFFFFFFFFFFFFFFFFFFFFFFFFFFFFFFFFFFFFFFF AND PUSH20 0xFFFFFFFFFFFFFFFFFFFFFFFFFFFFFFFFFFFFFFFF AND DUP2 MSTORE PUSH1 0x20 ADD SWAP1 DUP2 MSTORE PUSH1 0x20 ADD PUSH0 KECCAK256 PUSH0 PUSH2 0x100 EXP DUP2 SLOAD DUP2 PUSH1 0xFF MUL NOT AND SWAP1 DUP4 ISZERO ISZERO MUL OR SWAP1 SSTORE POP PUSH1 0x1 PUSH0 SWAP1 SLOAD SWAP1 PUSH2 0x100 EXP SWAP1 DIV PUSH20 0xFFFFFFFFFFFFFFFFFFFFFFFFFFFFFFFFFFFFFFFF AND PUSH20 0xFFFFFFFFFFFFFFFFFFFFFFFFFFFFFFFFFFFFFFFF AND PUSH4 0xA9059CBB CALLER DUP4 PUSH1 0x40 MLOAD DUP4 PUSH4 0xFFFFFFFF AND PUSH1 0xE0 SHL DUP2 MSTORE PUSH1 0x4 ADD PUSH2 0x980 SWAP3 SWAP2 SWAP1 PUSH2 0x2064 JUMP JUMPDEST PUSH1 0x20 PUSH1 0x40 MLOAD DUP1 DUP4 SUB DUP2 PUSH0 DUP8 GAS CALL ISZERO DUP1 ISZERO PUSH2 0x99C JUMPI RETURNDATASIZE PUSH0 DUP1 RETURNDATACOPY RETURNDATASIZE PUSH0 REVERT JUMPDEST POP POP POP POP PUSH1 0x40 MLOAD RETURNDATASIZE PUSH1 0x1F NOT PUSH1 0x1F DUP3 ADD AND DUP3 ADD DUP1 PUSH1 0x40 MSTORE POP DUP2 ADD SWAP1 PUSH2 0x9C0 SWAP2 SWAP1 PUSH2 0x20B5 JUMP JUMPDEST POP CALLER PUSH20 0xFFFFFFFFFFFFFFFFFFFFFFFFFFFFFFFFFFFFFFFF AND PUSH32 0x7A99CB7540E04F139E8BEC2B914B561065E30819C986D0594DB010EB76E23A2E DUP3 PUSH1 0x40 MLOAD PUSH2 0xA07 SWAP2 SWAP1 PUSH2 0x189B JUMP JUMPDEST PUSH1 0x40 MLOAD DUP1 SWAP2 SUB SWAP1 LOG2 POP JUMP JUMPDEST PUSH1 0x78 DUP2 JUMP JUMPDEST PUSH0 DUP1 PUSH0 SWAP1 POP PUSH0 JUMPDEST PUSH1 0x9 DUP2 LT ISZERO PUSH2 0xA64 JUMPI PUSH2 0xA55 PUSH1 0x5 DUP3 PUSH1 0x9 DUP2 LT PUSH2 0xA3E JUMPI PUSH2 0xA3D PUSH2 0x1E37 JUMP JUMPDEST JUMPDEST PUSH1 0x4 MUL ADD PUSH1 0x1 ADD SLOAD DUP4 PUSH2 0x151F SWAP1 SWAP2 SWAP1 PUSH4 0xFFFFFFFF AND JUMP JUMPDEST SWAP2 POP DUP1 DUP1 PUSH1 0x1 ADD SWAP2 POP POP PUSH2 0xA1E JUMP JUMPDEST POP DUP1 SWAP2 POP POP SWAP1 JUMP JUMPDEST PUSH2 0xA74 PUSH2 0x1498 JUMP JUMPDEST DUP2 DUP2 SWAP1 POP DUP5 DUP5 SWAP1 POP EQ PUSH2 0xABC JUMPI PUSH1 0x40 MLOAD PUSH32 0x8C379A000000000000000000000000000000000000000000000000000000000 DUP2 MSTORE PUSH1 0x4 ADD PUSH2 0xAB3 SWAP1 PUSH2 0x212A JUMP JUMPDEST PUSH1 0x40 MLOAD DUP1 SWAP2 SUB SWAP1 REVERT JUMPDEST PUSH0 JUMPDEST DUP5 DUP5 SWAP1 POP DUP2 LT ISZERO PUSH2 0xB7E JUMPI DUP3 DUP3 DUP3 DUP2 DUP2 LT PUSH2 0xADC JUMPI PUSH2 0xADB PUSH2 0x1E37 JUMP JUMPDEST JUMPDEST SWAP1 POP PUSH1 0x20 MUL ADD PUSH1 0x20 DUP2 ADD SWAP1 PUSH2 0xAF1 SWAP2 SWAP1 PUSH2 0x1858 JUMP JUMPDEST PUSH1 0x2E DUP7 DUP7 DUP5 DUP2 DUP2 LT PUSH2 0xB06 JUMPI PUSH2 0xB05 PUSH2 0x1E37 JUMP JUMPDEST JUMPDEST SWAP1 POP PUSH1 0x20 MUL DUP2 ADD SWAP1 PUSH2 0xB18 SWAP2 SWAP1 PUSH2 0x2154 JUMP JUMPDEST PUSH1 0x40 MLOAD PUSH2 0xB26 SWAP3 SWAP2 SWAP1 PUSH2 0x21E4 JUMP JUMPDEST SWAP1 DUP2 MSTORE PUSH1 0x20 ADD PUSH1 0x40 MLOAD DUP1 SWAP2 SUB SWAP1 KECCAK256 PUSH0 PUSH2 0x100 EXP DUP2 SLOAD DUP2 PUSH20 0xFFFFFFFFFFFFFFFFFFFFFFFFFFFFFFFFFFFFFFFF MUL NOT AND SWAP1 DUP4 PUSH20 0xFFFFFFFFFFFFFFFFFFFFFFFFFFFFFFFFFFFFFFFF AND MUL OR SWAP1 SSTORE POP DUP1 DUP1 PUSH1 0x1 ADD SWAP2 POP POP PUSH2 0xABE JUMP JUMPDEST POP POP POP POP POP JUMP JUMPDEST PUSH1 0x29 SLOAD DUP2 JUMP JUMPDEST PUSH1 0x3 PUSH0 SWAP1 SLOAD SWAP1 PUSH2 0x100 EXP SWAP1 DIV PUSH20 0xFFFFFFFFFFFFFFFFFFFFFFFFFFFFFFFFFFFFFFFF AND DUP2 JUMP JUMPDEST PUSH0 PUSH1 0x2A SLOAD SUB PUSH2 0xBF4 JUMPI PUSH1 0x40 MLOAD PUSH32 0x8C379A000000000000000000000000000000000000000000000000000000000 DUP2 MSTORE PUSH1 0x4 ADD PUSH2 0xBEB SWAP1 PUSH2 0x2246 JUMP JUMPDEST PUSH1 0x40 MLOAD DUP1 SWAP2 SUB SWAP1 REVERT JUMPDEST PUSH0 DUP3 GT PUSH2 0xC36 JUMPI PUSH1 0x40 MLOAD PUSH32 0x8C379A000000000000000000000000000000000000000000000000000000000 DUP2 MSTORE PUSH1 0x4 ADD PUSH2 0xC2D SWAP1 PUSH2 0x22AE JUMP JUMPDEST PUSH1 0x40 MLOAD DUP1 SWAP2 SUB SWAP1 REVERT JUMPDEST TIMESTAMP PUSH1 0x5 PUSH1 0x29 SLOAD PUSH1 0x9 DUP2 LT PUSH2 0xC4D JUMPI PUSH2 0xC4C PUSH2 0x1E37 JUMP JUMPDEST JUMPDEST PUSH1 0x4 MUL ADD PUSH1 0x3 ADD SLOAD GT PUSH2 0xCC1 JUMPI PUSH1 0x8 PUSH1 0x29 SLOAD SUB PUSH2 0xCB7 JUMPI TIMESTAMP PUSH1 0x5 PUSH1 0x29 SLOAD PUSH1 0x9 DUP2 LT PUSH2 0xC7B JUMPI PUSH2 0xC7A PUSH2 0x1E37 JUMP JUMPDEST JUMPDEST PUSH1 0x4 MUL ADD PUSH1 0x3 ADD DUP2 SWAP1 SSTORE POP PUSH32 0x1EB1561F8507EB9BC6988331F66F369E75710F2B4B678AD5B4A52454B6636F5F PUSH1 0x40 MLOAD PUSH1 0x40 MLOAD DUP1 SWAP2 SUB SWAP1 LOG1 PUSH2 0xCC0 JUMP JUMPDEST PUSH2 0xCBF PUSH2 0x1534 JUMP JUMPDEST JUMPDEST JUMPDEST PUSH0 PUSH2 0xCCC DUP4 DUP4 PUSH2 0x10B3 JUMP JUMPDEST SWAP1 POP PUSH1 0x40 MLOAD DUP1 PUSH1 0x40 ADD PUSH1 0x40 MSTORE DUP1 PUSH1 0x3 DUP2 MSTORE PUSH1 0x20 ADD PUSH32 0x424E420000000000000000000000000000000000000000000000000000000000 DUP2 MSTORE POP DUP1 MLOAD SWAP1 PUSH1 0x20 ADD KECCAK256 DUP3 DUP1 MLOAD SWAP1 PUSH1 0x20 ADD KECCAK256 SUB PUSH2 0xDC5 JUMPI DUP1 CALLVALUE LT ISZERO PUSH2 0xD5B JUMPI PUSH1 0x40 MLOAD PUSH32 0x8C379A000000000000000000000000000000000000000000000000000000000 DUP2 MSTORE PUSH1 0x4 ADD PUSH2 0xD52 SWAP1 PUSH2 0x2316 JUMP JUMPDEST PUSH1 0x40 MLOAD DUP1 SWAP2 SUB SWAP1 REVERT JUMPDEST PUSH1 0x4 PUSH0 SWAP1 SLOAD SWAP1 PUSH2 0x100 EXP SWAP1 DIV PUSH20 0xFFFFFFFFFFFFFFFFFFFFFFFFFFFFFFFFFFFFFFFF AND PUSH20 0xFFFFFFFFFFFFFFFFFFFFFFFFFFFFFFFFFFFFFFFF AND PUSH2 0x8FC DUP3 SWAP1 DUP2 ISZERO MUL SWAP1 PUSH1 0x40 MLOAD PUSH0 PUSH1 0x40 MLOAD DUP1 DUP4 SUB DUP2 DUP6 DUP9 DUP9 CALL SWAP4 POP POP POP POP ISZERO DUP1 ISZERO PUSH2 0xDBF JUMPI RETURNDATASIZE PUSH0 DUP1 RETURNDATACOPY RETURNDATASIZE PUSH0 REVERT JUMPDEST POP PUSH2 0xF4E JUMP JUMPDEST PUSH1 0x40 MLOAD DUP1 PUSH1 0x40 ADD PUSH1 0x40 MSTORE DUP1 PUSH1 0x4 DUP2 MSTORE PUSH1 0x20 ADD PUSH32 0x4255534400000000000000000000000000000000000000000000000000000000 DUP2 MSTORE POP DUP1 MLOAD SWAP1 PUSH1 0x20 ADD KECCAK256 DUP3 DUP1 MLOAD SWAP1 PUSH1 0x20 ADD KECCAK256 SUB PUSH2 0xF12 JUMPI PUSH1 0x2 PUSH0 SWAP1 SLOAD SWAP1 PUSH2 0x100 EXP SWAP1 DIV PUSH20 0xFFFFFFFFFFFFFFFFFFFFFFFFFFFFFFFFFFFFFFFF AND PUSH20 0xFFFFFFFFFFFFFFFFFFFFFFFFFFFFFFFFFFFFFFFF AND PUSH4 0x23B872DD CALLER PUSH1 0x4 PUSH0 SWAP1 SLOAD SWAP1 PUSH2 0x100 EXP SWAP1 DIV PUSH20 0xFFFFFFFFFFFFFFFFFFFFFFFFFFFFFFFFFFFFFFFF AND DUP5 PUSH1 0x40 MLOAD DUP5 PUSH4 0xFFFFFFFF AND PUSH1 0xE0 SHL DUP2 MSTORE PUSH1 0x4 ADD PUSH2 0xE8E SWAP4 SWAP3 SWAP2 SWAP1 PUSH2 0x2354 JUMP JUMPDEST PUSH1 0x20 PUSH1 0x40 MLOAD DUP1 DUP4 SUB DUP2 PUSH0 DUP8 GAS CALL ISZERO DUP1 ISZERO PUSH2 0xEAA JUMPI RETURNDATASIZE PUSH0 DUP1 RETURNDATACOPY RETURNDATASIZE PUSH0 REVERT JUMPDEST POP POP POP POP PUSH1 0x40 MLOAD RETURNDATASIZE PUSH1 0x1F NOT PUSH1 0x1F DUP3 ADD AND DUP3 ADD DUP1 PUSH1 0x40 MSTORE POP DUP2 ADD SWAP1 PUSH2 0xECE SWAP2 SWAP1 PUSH2 0x20B5 JUMP JUMPDEST PUSH2 0xF0D JUMPI PUSH1 0x40 MLOAD PUSH32 0x8C379A000000000000000000000000000000000000000000000000000000000 DUP2 MSTORE PUSH1 0x4 ADD PUSH2 0xF04 SWAP1 PUSH2 0x23D3 JUMP JUMPDEST PUSH1 0x40 MLOAD DUP1 SWAP2 SUB SWAP1 REVERT JUMPDEST PUSH2 0xF4D JUMP JUMPDEST PUSH1 0x40 MLOAD PUSH32 0x8C379A000000000000000000000000000000000000000000000000000000000 DUP2 MSTORE PUSH1 0x4 ADD PUSH2 0xF44 SWAP1 PUSH2 0x243B JUMP JUMPDEST PUSH1 0x40 MLOAD DUP1 SWAP2 SUB SWAP1 REVERT JUMPDEST JUMPDEST PUSH2 0xF58 CALLER DUP5 PUSH2 0x15B5 JUMP JUMPDEST CALLER PUSH20 0xFFFFFFFFFFFFFFFFFFFFFFFFFFFFFFFFFFFFFFFF AND PUSH32 0x97B8E46CE6A858394214FB0002594294805C68B044A2105798D860D0F922451A DUP5 DUP5 PUSH1 0x40 MLOAD PUSH2 0xFA0 SWAP3 SWAP2 SWAP1 PUSH2 0x24A9 JUMP JUMPDEST PUSH1 0x40 MLOAD DUP1 SWAP2 SUB SWAP1 LOG2 PUSH0 PUSH1 0x5 PUSH1 0x29 SLOAD PUSH1 0x9 DUP2 LT PUSH2 0xFBF JUMPI PUSH2 0xFBE PUSH2 0x1E37 JUMP JUMPDEST JUMPDEST PUSH1 0x4 MUL ADD PUSH1 0x1 ADD SLOAD SUB PUSH2 0x1033 JUMPI PUSH1 0x8 PUSH1 0x29 SLOAD SUB PUSH2 0x1029 JUMPI TIMESTAMP PUSH1 0x5 PUSH1 0x29 SLOAD PUSH1 0x9 DUP2 LT PUSH2 0xFED JUMPI PUSH2 0xFEC PUSH2 0x1E37 JUMP JUMPDEST JUMPDEST PUSH1 0x4 MUL ADD PUSH1 0x3 ADD DUP2 SWAP1 SSTORE POP PUSH32 0x1EB1561F8507EB9BC6988331F66F369E75710F2B4B678AD5B4A52454B6636F5F PUSH1 0x40 MLOAD PUSH1 0x40 MLOAD DUP1 SWAP2 SUB SWAP1 LOG1 PUSH2 0x1032 JUMP JUMPDEST PUSH2 0x1031 PUSH2 0x1534 JUMP JUMPDEST JUMPDEST JUMPDEST POP POP POP JUMP JUMPDEST PUSH2 0x1040 PUSH2 0x1498 JUMP JUMPDEST DUP1 PUSH1 0x1 PUSH0 PUSH2 0x100 EXP DUP2 SLOAD DUP2 PUSH20 0xFFFFFFFFFFFFFFFFFFFFFFFFFFFFFFFFFFFFFFFF MUL NOT AND SWAP1 DUP4 PUSH20 0xFFFFFFFFFFFFFFFFFFFFFFFFFFFFFFFFFFFFFFFF AND MUL OR SWAP1 SSTORE POP POP JUMP JUMPDEST PUSH2 0x108B PUSH2 0x1498 JUMP JUMPDEST PUSH2 0x1094 PUSH0 PUSH2 0x16FB JUMP JUMPDEST JUMP JUMPDEST PUSH1 0x2D PUSH1 0x20 MSTORE DUP1 PUSH0 MSTORE PUSH1 0x40 PUSH0 KECCAK256 PUSH0 SWAP2 POP SLOAD SWAP1 PUSH2 0x100 EXP SWAP1 DIV PUSH1 0xFF AND DUP2 JUMP JUMPDEST PUSH0 DUP1 PUSH1 0x64 PUSH2 0x10E6 PUSH1 0x5 PUSH1 0x29 SLOAD PUSH1 0x9 DUP2 LT PUSH2 0x10D0 JUMPI PUSH2 0x10CF PUSH2 0x1E37 JUMP JUMPDEST JUMPDEST PUSH1 0x4 MUL ADD PUSH0 ADD SLOAD DUP7 PUSH2 0x17BC SWAP1 SWAP2 SWAP1 PUSH4 0xFFFFFFFF AND JUMP JUMPDEST PUSH2 0x10F0 SWAP2 SWAP1 PUSH2 0x2504 JUMP JUMPDEST SWAP1 POP PUSH0 PUSH1 0x2E DUP5 PUSH1 0x40 MLOAD PUSH2 0x1103 SWAP2 SWAP1 PUSH2 0x2564 JUMP JUMPDEST SWAP1 DUP2 MSTORE PUSH1 0x20 ADD PUSH1 0x40 MLOAD DUP1 SWAP2 SUB SWAP1 KECCAK256 PUSH0 SWAP1 SLOAD SWAP1 PUSH2 0x100 EXP SWAP1 DIV PUSH20 0xFFFFFFFFFFFFFFFFFFFFFFFFFFFFFFFFFFFFFFFF AND SWAP1 POP PUSH0 DUP2 SWAP1 POP PUSH0 DUP2 PUSH20 0xFFFFFFFFFFFFFFFFFFFFFFFFFFFFFFFFFFFFFFFF AND PUSH4 0xFEAF968C PUSH1 0x40 MLOAD DUP2 PUSH4 0xFFFFFFFF AND PUSH1 0xE0 SHL DUP2 MSTORE PUSH1 0x4 ADD PUSH1 0xA0 PUSH1 0x40 MLOAD DUP1 DUP4 SUB DUP2 DUP7 GAS STATICCALL ISZERO DUP1 ISZERO PUSH2 0x1181 JUMPI RETURNDATASIZE PUSH0 DUP1 RETURNDATACOPY RETURNDATASIZE PUSH0 REVERT JUMPDEST POP POP POP POP PUSH1 0x40 MLOAD RETURNDATASIZE PUSH1 0x1F NOT PUSH1 0x1F DUP3 ADD AND DUP3 ADD DUP1 PUSH1 0x40 MSTORE POP DUP2 ADD SWAP1 PUSH2 0x11A5 SWAP2 SWAP1 PUSH2 0x25F7 JUMP JUMPDEST POP POP POP SWAP2 POP POP PUSH0 PUSH5 0x2540BE400 DUP3 PUSH2 0x11BD SWAP2 SWAP1 PUSH2 0x266E JUMP JUMPDEST PUSH8 0xDE0B6B3A7640000 DUP7 PUSH2 0x11D1 SWAP2 SWAP1 PUSH2 0x26E4 JUMP JUMPDEST PUSH2 0x11DB SWAP2 SWAP1 PUSH2 0x2725 JUMP JUMPDEST SWAP1 POP DUP1 SWAP6 POP POP POP POP POP POP SWAP3 SWAP2 POP POP JUMP JUMPDEST PUSH2 0x11F3 PUSH2 0x1498 JUMP JUMPDEST PUSH0 PUSH20 0xFFFFFFFFFFFFFFFFFFFFFFFFFFFFFFFFFFFFFFFF AND DUP2 PUSH20 0xFFFFFFFFFFFFFFFFFFFFFFFFFFFFFFFFFFFFFFFF AND SUB PUSH2 0x1261 JUMPI PUSH1 0x40 MLOAD PUSH32 0x8C379A000000000000000000000000000000000000000000000000000000000 DUP2 MSTORE PUSH1 0x4 ADD PUSH2 0x1258 SWAP1 PUSH2 0x27D7 JUMP JUMPDEST PUSH1 0x40 MLOAD DUP1 SWAP2 SUB SWAP1 REVERT JUMPDEST DUP1 PUSH1 0x3 PUSH0 PUSH2 0x100 EXP DUP2 SLOAD DUP2 PUSH20 0xFFFFFFFFFFFFFFFFFFFFFFFFFFFFFFFFFFFFFFFF MUL NOT AND SWAP1 DUP4 PUSH20 0xFFFFFFFFFFFFFFFFFFFFFFFFFFFFFFFFFFFFFFFF AND MUL OR SWAP1 SSTORE POP POP JUMP JUMPDEST PUSH1 0x5 DUP2 PUSH1 0x9 DUP2 LT PUSH2 0x12B3 JUMPI PUSH0 DUP1 REVERT JUMPDEST PUSH1 0x4 MUL ADD PUSH0 SWAP2 POP SWAP1 POP DUP1 PUSH0 ADD SLOAD SWAP1 DUP1 PUSH1 0x1 ADD SLOAD SWAP1 DUP1 PUSH1 0x2 ADD SLOAD SWAP1 DUP1 PUSH1 0x3 ADD SLOAD SWAP1 POP DUP5 JUMP JUMPDEST PUSH0 DUP1 PUSH0 SWAP1 SLOAD SWAP1 PUSH2 0x100 EXP SWAP1 DIV PUSH20 0xFFFFFFFFFFFFFFFFFFFFFFFFFFFFFFFFFFFFFFFF AND SWAP1 POP SWAP1 JUMP JUMPDEST PUSH2 0x1306 PUSH2 0x1498 JUMP JUMPDEST PUSH0 PUSH20 0xFFFFFFFFFFFFFFFFFFFFFFFFFFFFFFFFFFFFFFFF AND DUP2 PUSH20 0xFFFFFFFFFFFFFFFFFFFFFFFFFFFFFFFFFFFFFFFF AND SUB PUSH2 0x1374 JUMPI PUSH1 0x40 MLOAD PUSH32 0x8C379A000000000000000000000000000000000000000000000000000000000 DUP2 MSTORE PUSH1 0x4 ADD PUSH2 0x136B SWAP1 PUSH2 0x27D7 JUMP JUMPDEST PUSH1 0x40 MLOAD DUP1 SWAP2 SUB SWAP1 REVERT JUMPDEST DUP1 PUSH1 0x4 PUSH0 PUSH2 0x100 EXP DUP2 SLOAD DUP2 PUSH20 0xFFFFFFFFFFFFFFFFFFFFFFFFFFFFFFFFFFFFFFFF MUL NOT AND SWAP1 DUP4 PUSH20 0xFFFFFFFFFFFFFFFFFFFFFFFFFFFFFFFFFFFFFFFF AND MUL OR SWAP1 SSTORE POP POP JUMP JUMPDEST PUSH1 0x2A SLOAD DUP2 JUMP JUMPDEST PUSH2 0x12C DUP2 JUMP JUMPDEST PUSH0 PUSH1 0x29 SLOAD SWAP1 POP SWAP1 JUMP JUMPDEST PUSH2 0x13D4 PUSH2 0x1498 JUMP JUMPDEST PUSH0 PUSH20 0xFFFFFFFFFFFFFFFFFFFFFFFFFFFFFFFFFFFFFFFF AND DUP2 PUSH20 0xFFFFFFFFFFFFFFFFFFFFFFFFFFFFFFFFFFFFFFFF AND SUB PUSH2 0x1444 JUMPI PUSH0 PUSH1 0x40 MLOAD PUSH32 0x1E4FBDF700000000000000000000000000000000000000000000000000000000 DUP2 MSTORE PUSH1 0x4 ADD PUSH2 0x143B SWAP2 SWAP1 PUSH2 0x1A6B JUMP JUMPDEST PUSH1 0x40 MLOAD DUP1 SWAP2 SUB SWAP1 REVERT JUMPDEST PUSH2 0x144D DUP2 PUSH2 0x16FB JUMP JUMPDEST POP JUMP JUMPDEST PUSH1 0x2E DUP2 DUP1 MLOAD PUSH1 0x20 DUP2 ADD DUP3 ADD DUP1 MLOAD DUP5 DUP3 MSTORE PUSH1 0x20 DUP4 ADD PUSH1 0x20 DUP6 ADD KECCAK256 DUP2 DUP4 MSTORE DUP1 SWAP6 POP POP POP POP POP POP PUSH0 SWAP2 POP SLOAD SWAP1 PUSH2 0x100 EXP SWAP1 DIV PUSH20 0xFFFFFFFFFFFFFFFFFFFFFFFFFFFFFFFFFFFFFFFF AND DUP2 JUMP JUMPDEST PUSH2 0x14A0 PUSH2 0x17D1 JUMP JUMPDEST PUSH20 0xFFFFFFFFFFFFFFFFFFFFFFFFFFFFFFFFFFFFFFFF AND PUSH2 0x14BE PUSH2 0x12D7 JUMP JUMPDEST PUSH20 0xFFFFFFFFFFFFFFFFFFFFFFFFFFFFFFFFFFFFFFFF AND EQ PUSH2 0x151D JUMPI PUSH2 0x14E1 PUSH2 0x17D1 JUMP JUMPDEST PUSH1 0x40 MLOAD PUSH32 0x118CDAA700000000000000000000000000000000000000000000000000000000 DUP2 MSTORE PUSH1 0x4 ADD PUSH2 0x1514 SWAP2 SWAP1 PUSH2 0x1A6B JUMP JUMPDEST PUSH1 0x40 MLOAD DUP1 SWAP2 SUB SWAP1 REVERT JUMPDEST JUMP JUMPDEST PUSH0 DUP2 DUP4 PUSH2 0x152C SWAP2 SWAP1 PUSH2 0x1E91 JUMP JUMPDEST SWAP1 POP SWAP3 SWAP2 POP POP JUMP JUMPDEST PUSH1 0x1 PUSH1 0x9 PUSH2 0x1542 SWAP2 SWAP1 PUSH2 0x27F5 JUMP JUMPDEST PUSH1 0x29 SLOAD LT ISZERO PUSH2 0x15B3 JUMPI PUSH1 0x29 PUSH0 DUP2 SLOAD DUP1 SWAP3 SWAP2 SWAP1 PUSH2 0x155D SWAP1 PUSH2 0x2828 JUMP JUMPDEST SWAP2 SWAP1 POP SSTORE POP TIMESTAMP PUSH1 0x5 PUSH1 0x29 SLOAD PUSH1 0x9 DUP2 LT PUSH2 0x1579 JUMPI PUSH2 0x1578 PUSH2 0x1E37 JUMP JUMPDEST JUMPDEST PUSH1 0x4 MUL ADD PUSH1 0x2 ADD DUP2 SWAP1 SSTORE POP PUSH1 0x78 TIMESTAMP PUSH2 0x1591 SWAP2 SWAP1 PUSH2 0x1E91 JUMP JUMPDEST PUSH1 0x5 PUSH1 0x29 SLOAD PUSH1 0x9 DUP2 LT PUSH2 0x15A7 JUMPI PUSH2 0x15A6 PUSH2 0x1E37 JUMP JUMPDEST JUMPDEST PUSH1 0x4 MUL ADD PUSH1 0x3 ADD DUP2 SWAP1 SSTORE POP JUMPDEST JUMP JUMPDEST DUP1 PUSH1 0x5 PUSH1 0x29 SLOAD PUSH1 0x9 DUP2 LT PUSH2 0x15CC JUMPI PUSH2 0x15CB PUSH2 0x1E37 JUMP JUMPDEST JUMPDEST PUSH1 0x4 MUL ADD PUSH1 0x1 ADD SLOAD LT ISZERO PUSH2 0x1615 JUMPI PUSH1 0x40 MLOAD PUSH32 0x8C379A000000000000000000000000000000000000000000000000000000000 DUP2 MSTORE PUSH1 0x4 ADD PUSH2 0x160C SWAP1 PUSH2 0x28B9 JUMP JUMPDEST PUSH1 0x40 MLOAD DUP1 SWAP2 SUB SWAP1 REVERT JUMPDEST PUSH2 0x1645 DUP2 PUSH1 0x5 PUSH1 0x29 SLOAD PUSH1 0x9 DUP2 LT PUSH2 0x162F JUMPI PUSH2 0x162E PUSH2 0x1E37 JUMP JUMPDEST JUMPDEST PUSH1 0x4 MUL ADD PUSH1 0x1 ADD SLOAD PUSH2 0x17D8 SWAP1 SWAP2 SWAP1 PUSH4 0xFFFFFFFF AND JUMP JUMPDEST PUSH1 0x5 PUSH1 0x29 SLOAD PUSH1 0x9 DUP2 LT PUSH2 0x165B JUMPI PUSH2 0x165A PUSH2 0x1E37 JUMP JUMPDEST JUMPDEST PUSH1 0x4 MUL ADD PUSH1 0x1 ADD DUP2 SWAP1 SSTORE POP PUSH2 0x16B6 DUP2 PUSH1 0x2C PUSH0 DUP6 PUSH20 0xFFFFFFFFFFFFFFFFFFFFFFFFFFFFFFFFFFFFFFFF AND PUSH20 0xFFFFFFFFFFFFFFFFFFFFFFFFFFFFFFFFFFFFFFFF AND DUP2 MSTORE PUSH1 0x20 ADD SWAP1 DUP2 MSTORE PUSH1 0x20 ADD PUSH0 KECCAK256 SLOAD PUSH2 0x151F SWAP1 SWAP2 SWAP1 PUSH4 0xFFFFFFFF AND JUMP JUMPDEST PUSH1 0x2C PUSH0 DUP5 PUSH20 0xFFFFFFFFFFFFFFFFFFFFFFFFFFFFFFFFFFFFFFFF AND PUSH20 0xFFFFFFFFFFFFFFFFFFFFFFFFFFFFFFFFFFFFFFFF AND DUP2 MSTORE PUSH1 0x20 ADD SWAP1 DUP2 MSTORE PUSH1 0x20 ADD PUSH0 KECCAK256 DUP2 SWAP1 SSTORE POP POP POP JUMP JUMPDEST PUSH0 DUP1 PUSH0 SWAP1 SLOAD SWAP1 PUSH2 0x100 EXP SWAP1 DIV PUSH20 0xFFFFFFFFFFFFFFFFFFFFFFFFFFFFFFFFFFFFFFFF AND SWAP1 POP DUP2 PUSH0 DUP1 PUSH2 0x100 EXP DUP2 SLOAD DUP2 PUSH20 0xFFFFFFFFFFFFFFFFFFFFFFFFFFFFFFFFFFFFFFFF MUL NOT AND SWAP1 DUP4 PUSH20 0xFFFFFFFFFFFFFFFFFFFFFFFFFFFFFFFFFFFFFFFF AND MUL OR SWAP1 SSTORE POP DUP2 PUSH20 0xFFFFFFFFFFFFFFFFFFFFFFFFFFFFFFFFFFFFFFFF AND DUP2 PUSH20 0xFFFFFFFFFFFFFFFFFFFFFFFFFFFFFFFFFFFFFFFF AND PUSH32 0x8BE0079C531659141344CD1FD0A4F28419497F9722A3DAAFE3B4186F6B6457E0 PUSH1 0x40 MLOAD PUSH1 0x40 MLOAD DUP1 SWAP2 SUB SWAP1 LOG3 POP POP JUMP JUMPDEST PUSH0 DUP2 DUP4 PUSH2 0x17C9 SWAP2 SWAP1 PUSH2 0x26E4 JUMP JUMPDEST SWAP1 POP SWAP3 SWAP2 POP POP JUMP JUMPDEST PUSH0 CALLER SWAP1 POP SWAP1 JUMP JUMPDEST PUSH0 DUP2 DUP4 PUSH2 0x17E5 SWAP2 SWAP1 PUSH2 0x27F5 JUMP JUMPDEST SWAP1 POP SWAP3 SWAP2 POP POP JUMP JUMPDEST PUSH0 PUSH1 0x40 MLOAD SWAP1 POP SWAP1 JUMP JUMPDEST PUSH0 DUP1 REVERT JUMPDEST PUSH0 DUP1 REVERT JUMPDEST PUSH0 PUSH20 0xFFFFFFFFFFFFFFFFFFFFFFFFFFFFFFFFFFFFFFFF DUP3 AND SWAP1 POP SWAP2 SWAP1 POP JUMP JUMPDEST PUSH0 PUSH2 0x1827 DUP3 PUSH2 0x17FE JUMP JUMPDEST SWAP1 POP SWAP2 SWAP1 POP JUMP JUMPDEST PUSH2 0x1837 DUP2 PUSH2 0x181D JUMP JUMPDEST DUP2 EQ PUSH2 0x1841 JUMPI PUSH0 DUP1 REVERT JUMPDEST POP JUMP JUMPDEST PUSH0 DUP2 CALLDATALOAD SWAP1 POP PUSH2 0x1852 DUP2 PUSH2 0x182E JUMP JUMPDEST SWAP3 SWAP2 POP POP JUMP JUMPDEST PUSH0 PUSH1 0x20 DUP3 DUP5 SUB SLT ISZERO PUSH2 0x186D JUMPI PUSH2 0x186C PUSH2 0x17F6 JUMP JUMPDEST JUMPDEST PUSH0 PUSH2 0x187A DUP5 DUP3 DUP6 ADD PUSH2 0x1844 JUMP JUMPDEST SWAP2 POP POP SWAP3 SWAP2 POP POP JUMP JUMPDEST PUSH0 DUP2 SWAP1 POP SWAP2 SWAP1 POP JUMP JUMPDEST PUSH2 0x1895 DUP2 PUSH2 0x1883 JUMP JUMPDEST DUP3 MSTORE POP POP JUMP JUMPDEST PUSH0 PUSH1 0x20 DUP3 ADD SWAP1 POP PUSH2 0x18AE PUSH0 DUP4 ADD DUP5 PUSH2 0x188C JUMP JUMPDEST SWAP3 SWAP2 POP POP JUMP JUMPDEST PUSH0 DUP2 SWAP1 POP SWAP2 SWAP1 POP JUMP JUMPDEST PUSH0 PUSH2 0x18D7 PUSH2 0x18D2 PUSH2 0x18CD DUP5 PUSH2 0x17FE JUMP JUMPDEST PUSH2 0x18B4 JUMP JUMPDEST PUSH2 0x17FE JUMP JUMPDEST SWAP1 POP SWAP2 SWAP1 POP JUMP JUMPDEST PUSH0 PUSH2 0x18E8 DUP3 PUSH2 0x18BD JUMP JUMPDEST SWAP1 POP SWAP2 SWAP1 POP JUMP JUMPDEST PUSH0 PUSH2 0x18F9 DUP3 PUSH2 0x18DE JUMP JUMPDEST SWAP1 POP SWAP2 SWAP1 POP JUMP JUMPDEST PUSH2 0x1909 DUP2 PUSH2 0x18EF JUMP JUMPDEST DUP3 MSTORE POP POP JUMP JUMPDEST PUSH0 PUSH1 0x20 DUP3 ADD SWAP1 POP PUSH2 0x1922 PUSH0 DUP4 ADD DUP5 PUSH2 0x1900 JUMP JUMPDEST SWAP3 SWAP2 POP POP JUMP JUMPDEST PUSH0 DUP1 REVERT JUMPDEST PUSH0 DUP1 REVERT JUMPDEST PUSH0 DUP1 REVERT JUMPDEST PUSH0 DUP1 DUP4 PUSH1 0x1F DUP5 ADD SLT PUSH2 0x1949 JUMPI PUSH2 0x1948 PUSH2 0x1928 JUMP JUMPDEST JUMPDEST DUP3 CALLDATALOAD SWAP1 POP PUSH8 0xFFFFFFFFFFFFFFFF DUP2 GT ISZERO PUSH2 0x1966 JUMPI PUSH2 0x1965 PUSH2 0x192C JUMP JUMPDEST JUMPDEST PUSH1 0x20 DUP4 ADD SWAP2 POP DUP4 PUSH1 0x20 DUP3 MUL DUP4 ADD GT ISZERO PUSH2 0x1982 JUMPI PUSH2 0x1981 PUSH2 0x1930 JUMP JUMPDEST JUMPDEST SWAP3 POP SWAP3 SWAP1 POP JUMP JUMPDEST PUSH0 DUP1 DUP4 PUSH1 0x1F DUP5 ADD SLT PUSH2 0x199E JUMPI PUSH2 0x199D PUSH2 0x1928 JUMP JUMPDEST JUMPDEST DUP3 CALLDATALOAD SWAP1 POP PUSH8 0xFFFFFFFFFFFFFFFF DUP2 GT ISZERO PUSH2 0x19BB JUMPI PUSH2 0x19BA PUSH2 0x192C JUMP JUMPDEST JUMPDEST PUSH1 0x20 DUP4 ADD SWAP2 POP DUP4 PUSH1 0x20 DUP3 MUL DUP4 ADD GT ISZERO PUSH2 0x19D7 JUMPI PUSH2 0x19D6 PUSH2 0x1930 JUMP JUMPDEST JUMPDEST SWAP3 POP SWAP3 SWAP1 POP JUMP JUMPDEST PUSH0 DUP1 PUSH0 DUP1 PUSH1 0x40 DUP6 DUP8 SUB SLT ISZERO PUSH2 0x19F6 JUMPI PUSH2 0x19F5 PUSH2 0x17F6 JUMP JUMPDEST JUMPDEST PUSH0 DUP6 ADD CALLDATALOAD PUSH8 0xFFFFFFFFFFFFFFFF DUP2 GT ISZERO PUSH2 0x1A13 JUMPI PUSH2 0x1A12 PUSH2 0x17FA JUMP JUMPDEST JUMPDEST PUSH2 0x1A1F DUP8 DUP3 DUP9 ADD PUSH2 0x1934 JUMP JUMPDEST SWAP5 POP SWAP5 POP POP PUSH1 0x20 DUP6 ADD CALLDATALOAD PUSH8 0xFFFFFFFFFFFFFFFF DUP2 GT ISZERO PUSH2 0x1A42 JUMPI PUSH2 0x1A41 PUSH2 0x17FA JUMP JUMPDEST JUMPDEST PUSH2 0x1A4E DUP8 DUP3 DUP9 ADD PUSH2 0x1989 JUMP JUMPDEST SWAP3 POP SWAP3 POP POP SWAP3 SWAP6 SWAP2 SWAP5 POP SWAP3 POP JUMP JUMPDEST PUSH2 0x1A65 DUP2 PUSH2 0x181D JUMP JUMPDEST DUP3 MSTORE POP POP JUMP JUMPDEST PUSH0 PUSH1 0x20 DUP3 ADD SWAP1 POP PUSH2 0x1A7E PUSH0 DUP4 ADD DUP5 PUSH2 0x1A5C JUMP JUMPDEST SWAP3 SWAP2 POP POP JUMP JUMPDEST PUSH2 0x1A8D DUP2 PUSH2 0x1883 JUMP JUMPDEST DUP2 EQ PUSH2 0x1A97 JUMPI PUSH0 DUP1 REVERT JUMPDEST POP JUMP JUMPDEST PUSH0 DUP2 CALLDATALOAD SWAP1 POP PUSH2 0x1AA8 DUP2 PUSH2 0x1A84 JUMP JUMPDEST SWAP3 SWAP2 POP POP JUMP JUMPDEST PUSH0 DUP1 REVERT JUMPDEST PUSH0 PUSH1 0x1F NOT PUSH1 0x1F DUP4 ADD AND SWAP1 POP SWAP2 SWAP1 POP JUMP JUMPDEST PUSH32 0x4E487B7100000000000000000000000000000000000000000000000000000000 PUSH0 MSTORE PUSH1 0x41 PUSH1 0x4 MSTORE PUSH1 0x24 PUSH0 REVERT JUMPDEST PUSH2 0x1AF8 DUP3 PUSH2 0x1AB2 JUMP JUMPDEST DUP2 ADD DUP2 DUP2 LT PUSH8 0xFFFFFFFFFFFFFFFF DUP3 GT OR ISZERO PUSH2 0x1B17 JUMPI PUSH2 0x1B16 PUSH2 0x1AC2 JUMP JUMPDEST JUMPDEST DUP1 PUSH1 0x40 MSTORE POP POP POP JUMP JUMPDEST PUSH0 PUSH2 0x1B29 PUSH2 0x17ED JUMP JUMPDEST SWAP1 POP PUSH2 0x1B35 DUP3 DUP3 PUSH2 0x1AEF JUMP JUMPDEST SWAP2 SWAP1 POP JUMP JUMPDEST PUSH0 PUSH8 0xFFFFFFFFFFFFFFFF DUP3 GT ISZERO PUSH2 0x1B54 JUMPI PUSH2 0x1B53 PUSH2 0x1AC2 JUMP JUMPDEST JUMPDEST PUSH2 0x1B5D DUP3 PUSH2 0x1AB2 JUMP JUMPDEST SWAP1 POP PUSH1 0x20 DUP2 ADD SWAP1 POP SWAP2 SWAP1 POP JUMP JUMPDEST DUP3 DUP2 DUP4 CALLDATACOPY PUSH0 DUP4 DUP4 ADD MSTORE POP POP POP JUMP JUMPDEST PUSH0 PUSH2 0x1B8A PUSH2 0x1B85 DUP5 PUSH2 0x1B3A JUMP JUMPDEST PUSH2 0x1B20 JUMP JUMPDEST SWAP1 POP DUP3 DUP2 MSTORE PUSH1 0x20 DUP2 ADD DUP5 DUP5 DUP5 ADD GT ISZERO PUSH2 0x1BA6 JUMPI PUSH2 0x1BA5 PUSH2 0x1AAE JUMP JUMPDEST JUMPDEST PUSH2 0x1BB1 DUP5 DUP3 DUP6 PUSH2 0x1B6A JUMP JUMPDEST POP SWAP4 SWAP3 POP POP POP JUMP JUMPDEST PUSH0 DUP3 PUSH1 0x1F DUP4 ADD SLT PUSH2 0x1BCD JUMPI PUSH2 0x1BCC PUSH2 0x1928 JUMP JUMPDEST JUMPDEST DUP2 CALLDATALOAD PUSH2 0x1BDD DUP5 DUP3 PUSH1 0x20 DUP7 ADD PUSH2 0x1B78 JUMP JUMPDEST SWAP2 POP POP SWAP3 SWAP2 POP POP JUMP JUMPDEST PUSH0 DUP1 PUSH1 0x40 DUP4 DUP6 SUB SLT ISZERO PUSH2 0x1BFC JUMPI PUSH2 0x1BFB PUSH2 0x17F6 JUMP JUMPDEST JUMPDEST PUSH0 PUSH2 0x1C09 DUP6 DUP3 DUP7 ADD PUSH2 0x1A9A JUMP JUMPDEST SWAP3 POP POP PUSH1 0x20 DUP4 ADD CALLDATALOAD PUSH8 0xFFFFFFFFFFFFFFFF DUP2 GT ISZERO PUSH2 0x1C2A JUMPI PUSH2 0x1C29 PUSH2 0x17FA JUMP JUMPDEST JUMPDEST PUSH2 0x1C36 DUP6 DUP3 DUP7 ADD PUSH2 0x1BB9 JUMP JUMPDEST SWAP2 POP POP SWAP3 POP SWAP3 SWAP1 POP JUMP JUMPDEST PUSH0 DUP2 ISZERO ISZERO SWAP1 POP SWAP2 SWAP1 POP JUMP JUMPDEST PUSH2 0x1C54 DUP2 PUSH2 0x1C40 JUMP JUMPDEST DUP3 MSTORE POP POP JUMP JUMPDEST PUSH0 PUSH1 0x20 DUP3 ADD SWAP1 POP PUSH2 0x1C6D PUSH0 DUP4 ADD DUP5 PUSH2 0x1C4B JUMP JUMPDEST SWAP3 SWAP2 POP POP JUMP JUMPDEST PUSH0 DUP2 SWAP1 POP SWAP2 SWAP1 POP JUMP JUMPDEST PUSH2 0x1C85 DUP2 PUSH2 0x1C73 JUMP JUMPDEST DUP3 MSTORE POP POP JUMP JUMPDEST PUSH0 PUSH1 0x20 DUP3 ADD SWAP1 POP PUSH2 0x1C9E PUSH0 DUP4 ADD DUP5 PUSH2 0x1C7C JUMP JUMPDEST SWAP3 SWAP2 POP POP JUMP JUMPDEST PUSH0 PUSH1 0x20 DUP3 DUP5 SUB SLT ISZERO PUSH2 0x1CB9 JUMPI PUSH2 0x1CB8 PUSH2 0x17F6 JUMP JUMPDEST JUMPDEST PUSH0 PUSH2 0x1CC6 DUP5 DUP3 DUP6 ADD PUSH2 0x1A9A JUMP JUMPDEST SWAP2 POP POP SWAP3 SWAP2 POP POP JUMP JUMPDEST PUSH0 PUSH1 0x80 DUP3 ADD SWAP1 POP PUSH2 0x1CE2 PUSH0 DUP4 ADD DUP8 PUSH2 0x188C JUMP JUMPDEST PUSH2 0x1CEF PUSH1 0x20 DUP4 ADD DUP7 PUSH2 0x188C JUMP JUMPDEST PUSH2 0x1CFC PUSH1 0x40 DUP4 ADD DUP6 PUSH2 0x188C JUMP JUMPDEST PUSH2 0x1D09 PUSH1 0x60 DUP4 ADD DUP5 PUSH2 0x188C JUMP JUMPDEST SWAP6 SWAP5 POP POP POP POP POP JUMP JUMPDEST PUSH0 PUSH2 0x1D1C DUP3 PUSH2 0x17FE JUMP JUMPDEST SWAP1 POP SWAP2 SWAP1 POP JUMP JUMPDEST PUSH2 0x1D2C DUP2 PUSH2 0x1D12 JUMP JUMPDEST DUP2 EQ PUSH2 0x1D36 JUMPI PUSH0 DUP1 REVERT JUMPDEST POP JUMP JUMPDEST PUSH0 DUP2 CALLDATALOAD SWAP1 POP PUSH2 0x1D47 DUP2 PUSH2 0x1D23 JUMP JUMPDEST SWAP3 SWAP2 POP POP JUMP JUMPDEST PUSH0 PUSH1 0x20 DUP3 DUP5 SUB SLT ISZERO PUSH2 0x1D62 JUMPI PUSH2 0x1D61 PUSH2 0x17F6 JUMP JUMPDEST JUMPDEST PUSH0 PUSH2 0x1D6F DUP5 DUP3 DUP6 ADD PUSH2 0x1D39 JUMP JUMPDEST SWAP2 POP POP SWAP3 SWAP2 POP POP JUMP JUMPDEST PUSH0 PUSH1 0x20 DUP3 DUP5 SUB SLT ISZERO PUSH2 0x1D8D JUMPI PUSH2 0x1D8C PUSH2 0x17F6 JUMP JUMPDEST JUMPDEST PUSH0 DUP3 ADD CALLDATALOAD PUSH8 0xFFFFFFFFFFFFFFFF DUP2 GT ISZERO PUSH2 0x1DAA JUMPI PUSH2 0x1DA9 PUSH2 0x17FA JUMP JUMPDEST JUMPDEST PUSH2 0x1DB6 DUP5 DUP3 DUP6 ADD PUSH2 0x1BB9 JUMP JUMPDEST SWAP2 POP POP SWAP3 SWAP2 POP POP JUMP JUMPDEST PUSH0 DUP3 DUP3 MSTORE PUSH1 0x20 DUP3 ADD SWAP1 POP SWAP3 SWAP2 POP POP JUMP JUMPDEST PUSH32 0x50726573616C6520616C72656164792073746172746564000000000000000000 PUSH0 DUP3 ADD MSTORE POP JUMP JUMPDEST PUSH0 PUSH2 0x1E03 PUSH1 0x17 DUP4 PUSH2 0x1DBF JUMP JUMPDEST SWAP2 POP PUSH2 0x1E0E DUP3 PUSH2 0x1DCF JUMP JUMPDEST PUSH1 0x20 DUP3 ADD SWAP1 POP SWAP2 SWAP1 POP JUMP JUMPDEST PUSH0 PUSH1 0x20 DUP3 ADD SWAP1 POP DUP2 DUP2 SUB PUSH0 DUP4 ADD MSTORE PUSH2 0x1E30 DUP2 PUSH2 0x1DF7 JUMP JUMPDEST SWAP1 POP SWAP2 SWAP1 POP JUMP JUMPDEST PUSH32 0x4E487B7100000000000000000000000000000000000000000000000000000000 PUSH0 MSTORE PUSH1 0x32 PUSH1 0x4 MSTORE PUSH1 0x24 PUSH0 REVERT JUMPDEST PUSH32 0x4E487B7100000000000000000000000000000000000000000000000000000000 PUSH0 MSTORE PUSH1 0x11 PUSH1 0x4 MSTORE PUSH1 0x24 PUSH0 REVERT JUMPDEST PUSH0 PUSH2 0x1E9B DUP3 PUSH2 0x1883 JUMP JUMPDEST SWAP2 POP PUSH2 0x1EA6 DUP4 PUSH2 0x1883 JUMP JUMPDEST SWAP3 POP DUP3 DUP3 ADD SWAP1 POP DUP1 DUP3 GT ISZERO PUSH2 0x1EBE JUMPI PUSH2 0x1EBD PUSH2 0x1E64 JUMP JUMPDEST JUMPDEST SWAP3 SWAP2 POP POP JUMP JUMPDEST PUSH32 0x50726573616C65206973207374696C6C20616374697665000000000000000000 PUSH0 DUP3 ADD MSTORE POP JUMP JUMPDEST PUSH0 PUSH2 0x1EF8 PUSH1 0x17 DUP4 PUSH2 0x1DBF JUMP JUMPDEST SWAP2 POP PUSH2 0x1F03 DUP3 PUSH2 0x1EC4 JUMP JUMPDEST PUSH1 0x20 DUP3 ADD SWAP1 POP SWAP2 SWAP1 POP JUMP JUMPDEST PUSH0 PUSH1 0x20 DUP3 ADD SWAP1 POP DUP2 DUP2 SUB PUSH0 DUP4 ADD MSTORE PUSH2 0x1F25 DUP2 PUSH2 0x1EEC JUMP JUMPDEST SWAP1 POP SWAP2 SWAP1 POP JUMP JUMPDEST PUSH32 0x436C61696D20706572696F64206E6F7420737461727465640000000000000000 PUSH0 DUP3 ADD MSTORE POP JUMP JUMPDEST PUSH0 PUSH2 0x1F60 PUSH1 0x18 DUP4 PUSH2 0x1DBF JUMP JUMPDEST SWAP2 POP PUSH2 0x1F6B DUP3 PUSH2 0x1F2C JUMP JUMPDEST PUSH1 0x20 DUP3 ADD SWAP1 POP SWAP2 SWAP1 POP JUMP JUMPDEST PUSH0 PUSH1 0x20 DUP3 ADD SWAP1 POP DUP2 DUP2 SUB PUSH0 DUP4 ADD MSTORE PUSH2 0x1F8D DUP2 PUSH2 0x1F54 JUMP JUMPDEST SWAP1 POP SWAP2 SWAP1 POP JUMP JUMPDEST PUSH32 0x474550537320616C726561647920636C61696D65640000000000000000000000 PUSH0 DUP3 ADD MSTORE POP JUMP JUMPDEST PUSH0 PUSH2 0x1FC8 PUSH1 0x15 DUP4 PUSH2 0x1DBF JUMP JUMPDEST SWAP2 POP PUSH2 0x1FD3 DUP3 PUSH2 0x1F94 JUMP JUMPDEST PUSH1 0x20 DUP3 ADD SWAP1 POP SWAP2 SWAP1 POP JUMP JUMPDEST PUSH0 PUSH1 0x20 DUP3 ADD SWAP1 POP DUP2 DUP2 SUB PUSH0 DUP4 ADD MSTORE PUSH2 0x1FF5 DUP2 PUSH2 0x1FBC JUMP JUMPDEST SWAP1 POP SWAP2 SWAP1 POP JUMP JUMPDEST PUSH32 0x4E6F20474550537320746F20636C61696D000000000000000000000000000000 PUSH0 DUP3 ADD MSTORE POP JUMP JUMPDEST PUSH0 PUSH2 0x2030 PUSH1 0x11 DUP4 PUSH2 0x1DBF JUMP JUMPDEST SWAP2 POP PUSH2 0x203B DUP3 PUSH2 0x1FFC JUMP JUMPDEST PUSH1 0x20 DUP3 ADD SWAP1 POP SWAP2 SWAP1 POP JUMP JUMPDEST PUSH0 PUSH1 0x20 DUP3 ADD SWAP1 POP DUP2 DUP2 SUB PUSH0 DUP4 ADD MSTORE PUSH2 0x205D DUP2 PUSH2 0x2024 JUMP JUMPDEST SWAP1 POP SWAP2 SWAP1 POP JUMP JUMPDEST PUSH0 PUSH1 0x40 DUP3 ADD SWAP1 POP PUSH2 0x2077 PUSH0 DUP4 ADD DUP6 PUSH2 0x1A5C JUMP JUMPDEST PUSH2 0x2084 PUSH1 0x20 DUP4 ADD DUP5 PUSH2 0x188C JUMP JUMPDEST SWAP4 SWAP3 POP POP POP JUMP JUMPDEST PUSH2 0x2094 DUP2 PUSH2 0x1C40 JUMP JUMPDEST DUP2 EQ PUSH2 0x209E JUMPI PUSH0 DUP1 REVERT JUMPDEST POP JUMP JUMPDEST PUSH0 DUP2 MLOAD SWAP1 POP PUSH2 0x20AF DUP2 PUSH2 0x208B JUMP JUMPDEST SWAP3 SWAP2 POP POP JUMP JUMPDEST PUSH0 PUSH1 0x20 DUP3 DUP5 SUB SLT ISZERO PUSH2 0x20CA JUMPI PUSH2 0x20C9 PUSH2 0x17F6 JUMP JUMPDEST JUMPDEST PUSH0 PUSH2 0x20D7 DUP5 DUP3 DUP6 ADD PUSH2 0x20A1 JUMP JUMPDEST SWAP2 POP POP SWAP3 SWAP2 POP POP JUMP JUMPDEST PUSH32 0x504643523A303100000000000000000000000000000000000000000000000000 PUSH0 DUP3 ADD MSTORE POP JUMP JUMPDEST PUSH0 PUSH2 0x2114 PUSH1 0x7 DUP4 PUSH2 0x1DBF JUMP JUMPDEST SWAP2 POP PUSH2 0x211F DUP3 PUSH2 0x20E0 JUMP JUMPDEST PUSH1 0x20 DUP3 ADD SWAP1 POP SWAP2 SWAP1 POP JUMP JUMPDEST PUSH0 PUSH1 0x20 DUP3 ADD SWAP1 POP DUP2 DUP2 SUB PUSH0 DUP4 ADD MSTORE PUSH2 0x2141 DUP2 PUSH2 0x2108 JUMP JUMPDEST SWAP1 POP SWAP2 SWAP1 POP JUMP JUMPDEST PUSH0 DUP1 REVERT JUMPDEST PUSH0 DUP1 REVERT JUMPDEST PUSH0 DUP1 REVERT JUMPDEST PUSH0 DUP1 DUP4 CALLDATALOAD PUSH1 0x1 PUSH1 0x20 SUB DUP5 CALLDATASIZE SUB SUB DUP2 SLT PUSH2 0x2170 JUMPI PUSH2 0x216F PUSH2 0x2148 JUMP JUMPDEST JUMPDEST DUP1 DUP5 ADD SWAP3 POP DUP3 CALLDATALOAD SWAP2 POP PUSH8 0xFFFFFFFFFFFFFFFF DUP3 GT ISZERO PUSH2 0x2192 JUMPI PUSH2 0x2191 PUSH2 0x214C JUMP JUMPDEST JUMPDEST PUSH1 0x20 DUP4 ADD SWAP3 POP PUSH1 0x1 DUP3 MUL CALLDATASIZE SUB DUP4 SGT ISZERO PUSH2 0x21AE JUMPI PUSH2 0x21AD PUSH2 0x2150 JUMP JUMPDEST JUMPDEST POP SWAP3 POP SWAP3 SWAP1 POP JUMP JUMPDEST PUSH0 DUP2 SWAP1 POP SWAP3 SWAP2 POP POP JUMP JUMPDEST PUSH0 PUSH2 0x21CB DUP4 DUP6 PUSH2 0x21B6 JUMP JUMPDEST SWAP4 POP PUSH2 0x21D8 DUP4 DUP6 DUP5 PUSH2 0x1B6A JUMP JUMPDEST DUP3 DUP5 ADD SWAP1 POP SWAP4 SWAP3 POP POP POP JUMP JUMPDEST PUSH0 PUSH2 0x21F0 DUP3 DUP5 DUP7 PUSH2 0x21C0 JUMP JUMPDEST SWAP2 POP DUP2 SWAP1 POP SWAP4 SWAP3 POP POP POP JUMP JUMPDEST PUSH32 0x50726573616C65204E6F74207374617274656400000000000000000000000000 PUSH0 DUP3 ADD MSTORE POP JUMP JUMPDEST PUSH0 PUSH2 0x2230 PUSH1 0x13 DUP4 PUSH2 0x1DBF JUMP JUMPDEST SWAP2 POP PUSH2 0x223B DUP3 PUSH2 0x21FC JUMP JUMPDEST PUSH1 0x20 DUP3 ADD SWAP1 POP SWAP2 SWAP1 POP JUMP JUMPDEST PUSH0 PUSH1 0x20 DUP3 ADD SWAP1 POP DUP2 DUP2 SUB PUSH0 DUP4 ADD MSTORE PUSH2 0x225D DUP2 PUSH2 0x2224 JUMP JUMPDEST SWAP1 POP SWAP2 SWAP1 POP JUMP JUMPDEST PUSH32 0x416D6F756E74206D7573742062652067726561746572207468616E207A65726F PUSH0 DUP3 ADD MSTORE POP JUMP JUMPDEST PUSH0 PUSH2 0x2298 PUSH1 0x20 DUP4 PUSH2 0x1DBF JUMP JUMPDEST SWAP2 POP PUSH2 0x22A3 DUP3 PUSH2 0x2264 JUMP JUMPDEST PUSH1 0x20 DUP3 ADD SWAP1 POP SWAP2 SWAP1 POP JUMP JUMPDEST PUSH0 PUSH1 0x20 DUP3 ADD SWAP1 POP DUP2 DUP2 SUB PUSH0 DUP4 ADD MSTORE PUSH2 0x22C5 DUP2 PUSH2 0x228C JUMP JUMPDEST SWAP1 POP SWAP2 SWAP1 POP JUMP JUMPDEST PUSH32 0x496E73756666696369656E7420424E422073656E740000000000000000000000 PUSH0 DUP3 ADD MSTORE POP JUMP JUMPDEST PUSH0 PUSH2 0x2300 PUSH1 0x15 DUP4 PUSH2 0x1DBF JUMP JUMPDEST SWAP2 POP PUSH2 0x230B DUP3 PUSH2 0x22CC JUMP JUMPDEST PUSH1 0x20 DUP3 ADD SWAP1 POP SWAP2 SWAP1 POP JUMP JUMPDEST PUSH0 PUSH1 0x20 DUP3 ADD SWAP1 POP DUP2 DUP2 SUB PUSH0 DUP4 ADD MSTORE PUSH2 0x232D DUP2 PUSH2 0x22F4 JUMP JUMPDEST SWAP1 POP SWAP2 SWAP1 POP JUMP JUMPDEST PUSH0 PUSH2 0x233E DUP3 PUSH2 0x18DE JUMP JUMPDEST SWAP1 POP SWAP2 SWAP1 POP JUMP JUMPDEST PUSH2 0x234E DUP2 PUSH2 0x2334 JUMP JUMPDEST DUP3 MSTORE POP POP JUMP JUMPDEST PUSH0 PUSH1 0x60 DUP3 ADD SWAP1 POP PUSH2 0x2367 PUSH0 DUP4 ADD DUP7 PUSH2 0x1A5C JUMP JUMPDEST PUSH2 0x2374 PUSH1 0x20 DUP4 ADD DUP6 PUSH2 0x2345 JUMP JUMPDEST PUSH2 0x2381 PUSH1 0x40 DUP4 ADD DUP5 PUSH2 0x188C JUMP JUMPDEST SWAP5 SWAP4 POP POP POP POP JUMP JUMPDEST PUSH32 0x42555344207472616E73666572206661696C6564000000000000000000000000 PUSH0 DUP3 ADD MSTORE POP JUMP JUMPDEST PUSH0 PUSH2 0x23BD PUSH1 0x14 DUP4 PUSH2 0x1DBF JUMP JUMPDEST SWAP2 POP PUSH2 0x23C8 DUP3 PUSH2 0x2389 JUMP JUMPDEST PUSH1 0x20 DUP3 ADD SWAP1 POP SWAP2 SWAP1 POP JUMP JUMPDEST PUSH0 PUSH1 0x20 DUP3 ADD SWAP1 POP DUP2 DUP2 SUB PUSH0 DUP4 ADD MSTORE PUSH2 0x23EA DUP2 PUSH2 0x23B1 JUMP JUMPDEST SWAP1 POP SWAP2 SWAP1 POP JUMP JUMPDEST PUSH32 0x556E737570706F727465642063757272656E6379000000000000000000000000 PUSH0 DUP3 ADD MSTORE POP JUMP JUMPDEST PUSH0 PUSH2 0x2425 PUSH1 0x14 DUP4 PUSH2 0x1DBF JUMP JUMPDEST SWAP2 POP PUSH2 0x2430 DUP3 PUSH2 0x23F1 JUMP JUMPDEST PUSH1 0x20 DUP3 ADD SWAP1 POP SWAP2 SWAP1 POP JUMP JUMPDEST PUSH0 PUSH1 0x20 DUP3 ADD SWAP1 POP DUP2 DUP2 SUB PUSH0 DUP4 ADD MSTORE PUSH2 0x2452 DUP2 PUSH2 0x2419 JUMP JUMPDEST SWAP1 POP SWAP2 SWAP1 POP JUMP JUMPDEST PUSH0 DUP2 MLOAD SWAP1 POP SWAP2 SWAP1 POP JUMP JUMPDEST DUP3 DUP2 DUP4 MCOPY PUSH0 DUP4 DUP4 ADD MSTORE POP POP POP JUMP JUMPDEST PUSH0 PUSH2 0x247B DUP3 PUSH2 0x2459 JUMP JUMPDEST PUSH2 0x2485 DUP2 DUP6 PUSH2 0x1DBF JUMP JUMPDEST SWAP4 POP PUSH2 0x2495 DUP2 DUP6 PUSH1 0x20 DUP7 ADD PUSH2 0x2463 JUMP JUMPDEST PUSH2 0x249E DUP2 PUSH2 0x1AB2 JUMP JUMPDEST DUP5 ADD SWAP2 POP POP SWAP3 SWAP2 POP POP JUMP JUMPDEST PUSH0 PUSH1 0x40 DUP3 ADD SWAP1 POP PUSH2 0x24BC PUSH0 DUP4 ADD DUP6 PUSH2 0x188C JUMP JUMPDEST DUP2 DUP2 SUB PUSH1 0x20 DUP4 ADD MSTORE PUSH2 0x24CE DUP2 DUP5 PUSH2 0x2471 JUMP JUMPDEST SWAP1 POP SWAP4 SWAP3 POP POP POP JUMP JUMPDEST PUSH32 0x4E487B7100000000000000000000000000000000000000000000000000000000 PUSH0 MSTORE PUSH1 0x12 PUSH1 0x4 MSTORE PUSH1 0x24 PUSH0 REVERT JUMPDEST PUSH0 PUSH2 0x250E DUP3 PUSH2 0x1883 JUMP JUMPDEST SWAP2 POP PUSH2 0x2519 DUP4 PUSH2 0x1883 JUMP JUMPDEST SWAP3 POP DUP3 PUSH2 0x2529 JUMPI PUSH2 0x2528 PUSH2 0x24D7 JUMP JUMPDEST JUMPDEST DUP3 DUP3 DIV SWAP1 POP SWAP3 SWAP2 POP POP JUMP JUMPDEST PUSH0 PUSH2 0x253E DUP3 PUSH2 0x2459 JUMP JUMPDEST PUSH2 0x2548 DUP2 DUP6 PUSH2 0x21B6 JUMP JUMPDEST SWAP4 POP PUSH2 0x2558 DUP2 DUP6 PUSH1 0x20 DUP7 ADD PUSH2 0x2463 JUMP JUMPDEST DUP1 DUP5 ADD SWAP2 POP POP SWAP3 SWAP2 POP POP JUMP JUMPDEST PUSH0 PUSH2 0x256F DUP3 DUP5 PUSH2 0x2534 JUMP JUMPDEST SWAP2 POP DUP2 SWAP1 POP SWAP3 SWAP2 POP POP JUMP JUMPDEST PUSH0 PUSH10 0xFFFFFFFFFFFFFFFFFFFF DUP3 AND SWAP1 POP SWAP2 SWAP1 POP JUMP JUMPDEST PUSH2 0x2598 DUP2 PUSH2 0x257A JUMP JUMPDEST DUP2 EQ PUSH2 0x25A2 JUMPI PUSH0 DUP1 REVERT JUMPDEST POP JUMP JUMPDEST PUSH0 DUP2 MLOAD SWAP1 POP PUSH2 0x25B3 DUP2 PUSH2 0x258F JUMP JUMPDEST SWAP3 SWAP2 POP POP JUMP JUMPDEST PUSH2 0x25C2 DUP2 PUSH2 0x1C73 JUMP JUMPDEST DUP2 EQ PUSH2 0x25CC JUMPI PUSH0 DUP1 REVERT JUMPDEST POP JUMP JUMPDEST PUSH0 DUP2 MLOAD SWAP1 POP PUSH2 0x25DD DUP2 PUSH2 0x25B9 JUMP JUMPDEST SWAP3 SWAP2 POP POP JUMP JUMPDEST PUSH0 DUP2 MLOAD SWAP1 POP PUSH2 0x25F1 DUP2 PUSH2 0x1A84 JUMP JUMPDEST SWAP3 SWAP2 POP POP JUMP JUMPDEST PUSH0 DUP1 PUSH0 DUP1 PUSH0 PUSH1 0xA0 DUP7 DUP9 SUB SLT ISZERO PUSH2 0x2610 JUMPI PUSH2 0x260F PUSH2 0x17F6 JUMP JUMPDEST JUMPDEST PUSH0 PUSH2 0x261D DUP9 DUP3 DUP10 ADD PUSH2 0x25A5 JUMP JUMPDEST SWAP6 POP POP PUSH1 0x20 PUSH2 0x262E DUP9 DUP3 DUP10 ADD PUSH2 0x25CF JUMP JUMPDEST SWAP5 POP POP PUSH1 0x40 PUSH2 0x263F DUP9 DUP3 DUP10 ADD PUSH2 0x25E3 JUMP JUMPDEST SWAP4 POP POP PUSH1 0x60 PUSH2 0x2650 DUP9 DUP3 DUP10 ADD PUSH2 0x25E3 JUMP JUMPDEST SWAP3 POP POP PUSH1 0x80 PUSH2 0x2661 DUP9 DUP3 DUP10 ADD PUSH2 0x25A5 JUMP JUMPDEST SWAP2 POP POP SWAP3 SWAP6 POP SWAP3 SWAP6 SWAP1 SWAP4 POP JUMP JUMPDEST PUSH0 PUSH2 0x2678 DUP3 PUSH2 0x1C73 JUMP JUMPDEST SWAP2 POP PUSH2 0x2683 DUP4 PUSH2 0x1C73 JUMP JUMPDEST SWAP3 POP DUP3 DUP3 MUL PUSH2 0x2691 DUP2 PUSH2 0x1C73 JUMP JUMPDEST SWAP2 POP PUSH32 0x8000000000000000000000000000000000000000000000000000000000000000 DUP5 EQ PUSH0 DUP5 SLT AND ISZERO PUSH2 0x26C8 JUMPI PUSH2 0x26C7 PUSH2 0x1E64 JUMP JUMPDEST JUMPDEST DUP3 DUP3 SDIV DUP5 EQ DUP4 ISZERO OR PUSH2 0x26DD JUMPI PUSH2 0x26DC PUSH2 0x1E64 JUMP JUMPDEST JUMPDEST POP SWAP3 SWAP2 POP POP JUMP JUMPDEST PUSH0 PUSH2 0x26EE DUP3 PUSH2 0x1883 JUMP JUMPDEST SWAP2 POP PUSH2 0x26F9 DUP4 PUSH2 0x1883 JUMP JUMPDEST SWAP3 POP DUP3 DUP3 MUL PUSH2 0x2707 DUP2 PUSH2 0x1883 JUMP JUMPDEST SWAP2 POP DUP3 DUP3 DIV DUP5 EQ DUP4 ISZERO OR PUSH2 0x271E JUMPI PUSH2 0x271D PUSH2 0x1E64 JUMP JUMPDEST JUMPDEST POP SWAP3 SWAP2 POP POP JUMP JUMPDEST PUSH0 PUSH2 0x272F DUP3 PUSH2 0x1C73 JUMP JUMPDEST SWAP2 POP PUSH2 0x273A DUP4 PUSH2 0x1C73 JUMP JUMPDEST SWAP3 POP DUP3 PUSH2 0x274A JUMPI PUSH2 0x2749 PUSH2 0x24D7 JUMP JUMPDEST JUMPDEST PUSH1 0x1 PUSH0 SUB DUP4 EQ PUSH32 0x8000000000000000000000000000000000000000000000000000000000000000 DUP4 EQ AND ISZERO PUSH2 0x2782 JUMPI PUSH2 0x2781 PUSH2 0x1E64 JUMP JUMPDEST JUMPDEST DUP3 DUP3 SDIV SWAP1 POP SWAP3 SWAP2 POP POP JUMP JUMPDEST PUSH32 0x496E76616C696420616464726573730000000000000000000000000000000000 PUSH0 DUP3 ADD MSTORE POP JUMP JUMPDEST PUSH0 PUSH2 0x27C1 PUSH1 0xF DUP4 PUSH2 0x1DBF JUMP JUMPDEST SWAP2 POP PUSH2 0x27CC DUP3 PUSH2 0x278D JUMP JUMPDEST PUSH1 0x20 DUP3 ADD SWAP1 POP SWAP2 SWAP1 POP JUMP JUMPDEST PUSH0 PUSH1 0x20 DUP3 ADD SWAP1 POP DUP2 DUP2 SUB PUSH0 DUP4 ADD MSTORE PUSH2 0x27EE DUP2 PUSH2 0x27B5 JUMP JUMPDEST SWAP1 POP SWAP2 SWAP1 POP JUMP JUMPDEST PUSH0 PUSH2 0x27FF DUP3 PUSH2 0x1883 JUMP JUMPDEST SWAP2 POP PUSH2 0x280A DUP4 PUSH2 0x1883 JUMP JUMPDEST SWAP3 POP DUP3 DUP3 SUB SWAP1 POP DUP2 DUP2 GT ISZERO PUSH2 0x2822 JUMPI PUSH2 0x2821 PUSH2 0x1E64 JUMP JUMPDEST JUMPDEST SWAP3 SWAP2 POP POP JUMP JUMPDEST PUSH0 PUSH2 0x2832 DUP3 PUSH2 0x1883 JUMP JUMPDEST SWAP2 POP PUSH32 0xFFFFFFFFFFFFFFFFFFFFFFFFFFFFFFFFFFFFFFFFFFFFFFFFFFFFFFFFFFFFFFFF DUP3 SUB PUSH2 0x2864 JUMPI PUSH2 0x2863 PUSH2 0x1E64 JUMP JUMPDEST JUMPDEST PUSH1 0x1 DUP3 ADD SWAP1 POP SWAP2 SWAP1 POP JUMP JUMPDEST PUSH32 0x4E6F7420656E6F75676820474550537320617661696C61626C65000000000000 PUSH0 DUP3 ADD MSTORE POP JUMP JUMPDEST PUSH0 PUSH2 0x28A3 PUSH1 0x1A DUP4 PUSH2 0x1DBF JUMP JUMPDEST SWAP2 POP PUSH2 0x28AE DUP3 PUSH2 0x286F JUMP JUMPDEST PUSH1 0x20 DUP3 ADD SWAP1 POP SWAP2 SWAP1 POP JUMP JUMPDEST PUSH0 PUSH1 0x20 DUP3 ADD SWAP1 POP DUP2 DUP2 SUB PUSH0 DUP4 ADD MSTORE PUSH2 0x28D0 DUP2 PUSH2 0x2897 JUMP JUMPDEST SWAP1 POP SWAP2 SWAP1 POP JUMP INVALID LOG2 PUSH5 0x6970667358 0x22 SLT KECCAK256 0x23 PUSH7 0x6138308597C89B PUSH31 0x8BCCB941233A86EFE3EBB8C19E6C25AF5C899B30907464736F6C634300081A STOP CALLER "
				},
				"gasEstimates": {
					"creation": {
						"codeDepositCost": "2101800",
						"executionCost": "infinite",
						"totalCost": "infinite"
					},
					"external": {
						"CLAIM_DELAY()": "369",
						"GEPS()": "infinite",
						"MAX_STAGE()": "459",
						"STAGE_DURATION()": "393",
						"busd()": "infinite",
						"buyGEPS(uint256,string)": "infinite",
						"calculateCost(uint256,string)": "infinite",
						"claimGEPSs()": "infinite",
						"currentStage()": "2492",
						"getCurrentStage()": "2498",
						"getUnsoldGEPSs()": "infinite",
						"hasClaimed(address)": "2900",
						"initialiseTokens(string[],address[])": "infinite",
						"owner()": "2560",
						"presaleEndTime()": "2515",
						"presaleStartTime()": "2514",
						"purchasedGEPSs(address)": "2848",
						"renounceOwnership()": "infinite",
						"setGEPSToken(address)": "infinite",
						"stages(uint256)": "infinite",
						"startPresale()": "infinite",
						"tokenOracles(string)": "infinite",
						"transferOwnership(address)": "infinite",
						"treasury()": "2597",
						"updatePresaleWallet(address)": "infinite",
						"updateTreasuryAddress(address)": "infinite"
					},
					"internal": {
						"advanceStage()": "infinite",
						"allocateGEPSs(address,uint256)": "infinite",
						"initializeStages()": "infinite",
						"transferUnsoldGEPSsToTreasury()": "infinite"
					}
				},
				"methodIdentifiers": {
					"CLAIM_DELAY()": "e18132c4",
					"GEPS()": "1c2dda48",
					"MAX_STAGE()": "3ea92d73",
					"STAGE_DURATION()": "51f9efde",
					"busd()": "3ca5b234",
					"buyGEPS(uint256,string)": "67faa4b6",
					"calculateCost(uint256,string)": "7e8558d7",
					"claimGEPSs()": "3f957b0d",
					"currentStage()": "5bf5d54c",
					"getCurrentStage()": "eedbe31d",
					"getUnsoldGEPSs()": "54c4152e",
					"hasClaimed(address)": "73b2e80e",
					"initialiseTokens(string[],address[])": "59ac5e18",
					"owner()": "8da5cb5b",
					"presaleEndTime()": "249b7c19",
					"presaleStartTime()": "a82524b2",
					"purchasedGEPSs(address)": "1a8a63eb",
					"renounceOwnership()": "715018a6",
					"setGEPSToken(address)": "6e14600f",
					"stages(uint256)": "845ddcb2",
					"startPresale()": "04c98b2b",
					"tokenOracles(string)": "f94f983a",
					"transferOwnership(address)": "f2fde38b",
					"treasury()": "61d027b3",
					"updatePresaleWallet(address)": "8e17c017",
					"updateTreasuryAddress(address)": "841e4561"
				}
			},
			"storageLayout": {
				"storage": [
					{
						"astId": 8,
						"contract": "contracts/PreSale.sol:GEPSPresale",
						"label": "_owner",
						"offset": 0,
						"slot": "0",
						"type": "t_address"
					},
					{
						"astId": 1303,
						"contract": "contracts/PreSale.sol:GEPSPresale",
						"label": "GEPS",
						"offset": 0,
						"slot": "1",
						"type": "t_contract(IERC20)877"
					},
					{
						"astId": 1306,
						"contract": "contracts/PreSale.sol:GEPSPresale",
						"label": "busd",
						"offset": 0,
						"slot": "2",
						"type": "t_contract(IERC20)877"
					},
					{
						"astId": 1308,
						"contract": "contracts/PreSale.sol:GEPSPresale",
						"label": "treasury",
						"offset": 0,
						"slot": "3",
						"type": "t_address"
					},
					{
						"astId": 1310,
						"contract": "contracts/PreSale.sol:GEPSPresale",
						"label": "presaleWallet",
						"offset": 0,
						"slot": "4",
						"type": "t_address_payable"
					},
					{
						"astId": 1333,
						"contract": "contracts/PreSale.sol:GEPSPresale",
						"label": "stages",
						"offset": 0,
						"slot": "5",
						"type": "t_array(t_struct(Stage)1328_storage)9_storage"
					},
					{
						"astId": 1335,
						"contract": "contracts/PreSale.sol:GEPSPresale",
						"label": "currentStage",
						"offset": 0,
						"slot": "41",
						"type": "t_uint256"
					},
					{
						"astId": 1337,
						"contract": "contracts/PreSale.sol:GEPSPresale",
						"label": "presaleStartTime",
						"offset": 0,
						"slot": "42",
						"type": "t_uint256"
					},
					{
						"astId": 1339,
						"contract": "contracts/PreSale.sol:GEPSPresale",
						"label": "presaleEndTime",
						"offset": 0,
						"slot": "43",
						"type": "t_uint256"
					},
					{
						"astId": 1343,
						"contract": "contracts/PreSale.sol:GEPSPresale",
						"label": "purchasedGEPSs",
						"offset": 0,
						"slot": "44",
						"type": "t_mapping(t_address,t_uint256)"
					},
					{
						"astId": 1347,
						"contract": "contracts/PreSale.sol:GEPSPresale",
						"label": "hasClaimed",
						"offset": 0,
						"slot": "45",
						"type": "t_mapping(t_address,t_bool)"
					},
					{
						"astId": 1351,
						"contract": "contracts/PreSale.sol:GEPSPresale",
						"label": "tokenOracles",
						"offset": 0,
						"slot": "46",
						"type": "t_mapping(t_string_memory_ptr,t_address)"
					}
				],
				"types": {
					"t_address": {
						"encoding": "inplace",
						"label": "address",
						"numberOfBytes": "20"
					},
					"t_address_payable": {
						"encoding": "inplace",
						"label": "address payable",
						"numberOfBytes": "20"
					},
					"t_array(t_struct(Stage)1328_storage)9_storage": {
						"base": "t_struct(Stage)1328_storage",
						"encoding": "inplace",
						"label": "struct GEPSPresale.Stage[9]",
						"numberOfBytes": "1152"
					},
					"t_bool": {
						"encoding": "inplace",
						"label": "bool",
						"numberOfBytes": "1"
					},
					"t_contract(IERC20)877": {
						"encoding": "inplace",
						"label": "contract IERC20",
						"numberOfBytes": "20"
					},
					"t_mapping(t_address,t_bool)": {
						"encoding": "mapping",
						"key": "t_address",
						"label": "mapping(address => bool)",
						"numberOfBytes": "32",
						"value": "t_bool"
					},
					"t_mapping(t_address,t_uint256)": {
						"encoding": "mapping",
						"key": "t_address",
						"label": "mapping(address => uint256)",
						"numberOfBytes": "32",
						"value": "t_uint256"
					},
					"t_mapping(t_string_memory_ptr,t_address)": {
						"encoding": "mapping",
						"key": "t_string_memory_ptr",
						"label": "mapping(string => address)",
						"numberOfBytes": "32",
						"value": "t_address"
					},
					"t_string_memory_ptr": {
						"encoding": "bytes",
						"label": "string",
						"numberOfBytes": "32"
					},
					"t_struct(Stage)1328_storage": {
						"encoding": "inplace",
						"label": "struct GEPSPresale.Stage",
						"members": [
							{
								"astId": 1321,
								"contract": "contracts/PreSale.sol:GEPSPresale",
								"label": "price",
								"offset": 0,
								"slot": "0",
								"type": "t_uint256"
							},
							{
								"astId": 1323,
								"contract": "contracts/PreSale.sol:GEPSPresale",
								"label": "GEPSsAvailable",
								"offset": 0,
								"slot": "1",
								"type": "t_uint256"
							},
							{
								"astId": 1325,
								"contract": "contracts/PreSale.sol:GEPSPresale",
								"label": "startTime",
								"offset": 0,
								"slot": "2",
								"type": "t_uint256"
							},
							{
								"astId": 1327,
								"contract": "contracts/PreSale.sol:GEPSPresale",
								"label": "endTime",
								"offset": 0,
								"slot": "3",
								"type": "t_uint256"
							}
						],
						"numberOfBytes": "128"
					},
					"t_uint256": {
						"encoding": "inplace",
						"label": "uint256",
						"numberOfBytes": "32"
					}
				}
			},
			"userdoc": {
				"kind": "user",
				"methods": {},
				"version": 1
			}
		}
	}
}