{
	"contracts/PreSale_flattened.sol": {
		"GEPSPresale": {
			"abi": [
				{
					"inputs": [
						{
							"internalType": "address",
							"name": "_busd",
							"type": "address"
						},
						{
							"internalType": "address",
							"name": "_treasury",
							"type": "address"
						},
						{
							"internalType": "address payable",
							"name": "_presaleWallet",
							"type": "address"
						}
					],
					"stateMutability": "nonpayable",
					"type": "constructor"
				},
				{
					"inputs": [
						{
							"internalType": "address",
							"name": "owner",
							"type": "address"
						}
					],
					"name": "OwnableInvalidOwner",
					"type": "error"
				},
				{
					"inputs": [
						{
							"internalType": "address",
							"name": "account",
							"type": "address"
						}
					],
					"name": "OwnableUnauthorizedAccount",
					"type": "error"
				},
				{
					"anonymous": false,
					"inputs": [
						{
							"indexed": true,
							"internalType": "address",
							"name": "user",
							"type": "address"
						},
						{
							"indexed": false,
							"internalType": "uint256",
							"name": "amount",
							"type": "uint256"
						}
					],
					"name": "GEPSsClaimed",
					"type": "event"
				},
				{
					"anonymous": false,
					"inputs": [
						{
							"indexed": true,
							"internalType": "address",
							"name": "buyer",
							"type": "address"
						},
						{
							"indexed": false,
							"internalType": "uint256",
							"name": "amount",
							"type": "uint256"
						},
						{
							"indexed": false,
							"internalType": "string",
							"name": "currency",
							"type": "string"
						}
					],
					"name": "GEPSsPurchased",
					"type": "event"
				},
				{
					"anonymous": false,
					"inputs": [
						{
							"indexed": true,
							"internalType": "address",
							"name": "previousOwner",
							"type": "address"
						},
						{
							"indexed": true,
							"internalType": "address",
							"name": "newOwner",
							"type": "address"
						}
					],
					"name": "OwnershipTransferred",
					"type": "event"
				},
				{
					"anonymous": false,
					"inputs": [],
					"name": "PresaleEnded",
					"type": "event"
				},
				{
					"anonymous": false,
					"inputs": [],
					"name": "PresaleStarted",
					"type": "event"
				},
				{
					"inputs": [],
					"name": "CLAIM_DELAY",
					"outputs": [
						{
							"internalType": "uint256",
							"name": "",
							"type": "uint256"
						}
					],
					"stateMutability": "view",
					"type": "function"
				},
				{
					"inputs": [],
					"name": "GEPS",
					"outputs": [
						{
							"internalType": "contract IERC20",
							"name": "",
							"type": "address"
						}
					],
					"stateMutability": "view",
					"type": "function"
				},
				{
					"inputs": [],
					"name": "MAX_STAGE",
					"outputs": [
						{
							"internalType": "uint256",
							"name": "",
							"type": "uint256"
						}
					],
					"stateMutability": "view",
					"type": "function"
				},
				{
					"inputs": [],
					"name": "STAGE_DURATION",
					"outputs": [
						{
							"internalType": "uint256",
							"name": "",
							"type": "uint256"
						}
					],
					"stateMutability": "view",
					"type": "function"
				},
				{
					"inputs": [],
					"name": "busd",
					"outputs": [
						{
							"internalType": "contract IERC20",
							"name": "",
							"type": "address"
						}
					],
					"stateMutability": "view",
					"type": "function"
				},
				{
					"inputs": [
						{
							"internalType": "uint256",
							"name": "amount",
							"type": "uint256"
						},
						{
							"internalType": "string",
							"name": "currency",
							"type": "string"
						}
					],
					"name": "buyGEPS",
					"outputs": [],
					"stateMutability": "payable",
					"type": "function"
				},
				{
					"inputs": [
						{
							"internalType": "uint256",
							"name": "amount",
							"type": "uint256"
						},
						{
							"internalType": "string",
							"name": "_paymentToken",
							"type": "string"
						}
					],
					"name": "calculateGEPS",
					"outputs": [
						{
							"internalType": "uint256",
							"name": "",
							"type": "uint256"
						}
					],
					"stateMutability": "view",
					"type": "function"
				},
				{
					"inputs": [],
					"name": "claimGEPSs",
					"outputs": [],
					"stateMutability": "nonpayable",
					"type": "function"
				},
				{
					"inputs": [],
					"name": "currentStage",
					"outputs": [
						{
							"internalType": "uint256",
							"name": "",
							"type": "uint256"
						}
					],
					"stateMutability": "view",
					"type": "function"
				},
				{
					"inputs": [],
					"name": "getCurrentStage",
					"outputs": [
						{
							"internalType": "uint256",
							"name": "",
							"type": "uint256"
						}
					],
					"stateMutability": "view",
					"type": "function"
				},
				{
					"inputs": [],
					"name": "getUnsoldGEPSs",
					"outputs": [
						{
							"internalType": "uint256",
							"name": "",
							"type": "uint256"
						}
					],
					"stateMutability": "view",
					"type": "function"
				},
				{
					"inputs": [
						{
							"internalType": "address",
							"name": "",
							"type": "address"
						}
					],
					"name": "hasClaimed",
					"outputs": [
						{
							"internalType": "bool",
							"name": "",
							"type": "bool"
						}
					],
					"stateMutability": "view",
					"type": "function"
				},
				{
					"inputs": [
						{
							"internalType": "string[]",
							"name": "_tokenName",
							"type": "string[]"
						},
						{
							"internalType": "address[]",
							"name": "_oracleAddress",
							"type": "address[]"
						}
					],
					"name": "initialiseTokens",
					"outputs": [],
					"stateMutability": "nonpayable",
					"type": "function"
				},
				{
					"inputs": [],
					"name": "owner",
					"outputs": [
						{
							"internalType": "address",
							"name": "",
							"type": "address"
						}
					],
					"stateMutability": "view",
					"type": "function"
				},
				{
					"inputs": [],
					"name": "presaleEndTime",
					"outputs": [
						{
							"internalType": "uint256",
							"name": "",
							"type": "uint256"
						}
					],
					"stateMutability": "view",
					"type": "function"
				},
				{
					"inputs": [],
					"name": "presaleStartTime",
					"outputs": [
						{
							"internalType": "uint256",
							"name": "",
							"type": "uint256"
						}
					],
					"stateMutability": "view",
					"type": "function"
				},
				{
					"inputs": [
						{
							"internalType": "address",
							"name": "",
							"type": "address"
						}
					],
					"name": "purchasedGEPSs",
					"outputs": [
						{
							"internalType": "uint256",
							"name": "",
							"type": "uint256"
						}
					],
					"stateMutability": "view",
					"type": "function"
				},
				{
					"inputs": [],
					"name": "renounceOwnership",
					"outputs": [],
					"stateMutability": "nonpayable",
					"type": "function"
				},
				{
					"inputs": [
						{
							"internalType": "address",
							"name": "_geps",
							"type": "address"
						}
					],
					"name": "setGEPSToken",
					"outputs": [],
					"stateMutability": "nonpayable",
					"type": "function"
				},
				{
					"inputs": [
						{
							"internalType": "uint256",
							"name": "",
							"type": "uint256"
						}
					],
					"name": "stages",
					"outputs": [
						{
							"internalType": "uint256",
							"name": "price",
							"type": "uint256"
						},
						{
							"internalType": "uint256",
							"name": "GEPSsAvailable",
							"type": "uint256"
						},
						{
							"internalType": "uint256",
							"name": "startTime",
							"type": "uint256"
						},
						{
							"internalType": "uint256",
							"name": "endTime",
							"type": "uint256"
						}
					],
					"stateMutability": "view",
					"type": "function"
				},
				{
					"inputs": [],
					"name": "startPresale",
					"outputs": [],
					"stateMutability": "nonpayable",
					"type": "function"
				},
				{
					"inputs": [
						{
							"internalType": "string",
							"name": "",
							"type": "string"
						}
					],
					"name": "tokenOracles",
					"outputs": [
						{
							"internalType": "address",
							"name": "",
							"type": "address"
						}
					],
					"stateMutability": "view",
					"type": "function"
				},
				{
					"inputs": [
						{
							"internalType": "address",
							"name": "newOwner",
							"type": "address"
						}
					],
					"name": "transferOwnership",
					"outputs": [],
					"stateMutability": "nonpayable",
					"type": "function"
				},
				{
					"inputs": [],
					"name": "transferUnsoldGEPSsToTreasury",
					"outputs": [],
					"stateMutability": "nonpayable",
					"type": "function"
				},
				{
					"inputs": [],
					"name": "treasury",
					"outputs": [
						{
							"internalType": "address",
							"name": "",
							"type": "address"
						}
					],
					"stateMutability": "view",
					"type": "function"
				},
				{
					"inputs": [],
					"name": "unsoldGEPSTransferred",
					"outputs": [
						{
							"internalType": "bool",
							"name": "",
							"type": "bool"
						}
					],
					"stateMutability": "view",
					"type": "function"
				},
				{
					"inputs": [
						{
							"internalType": "address payable",
							"name": "_presaleWallet",
							"type": "address"
						}
					],
					"name": "updatePresaleWallet",
					"outputs": [],
					"stateMutability": "nonpayable",
					"type": "function"
				},
				{
					"inputs": [
						{
							"internalType": "address",
							"name": "newAddress",
							"type": "address"
						}
					],
					"name": "updateTreasuryAddress",
					"outputs": [],
					"stateMutability": "nonpayable",
					"type": "function"
				}
			],
			"devdoc": {
				"errors": {
					"OwnableInvalidOwner(address)": [
						{
							"details": "The owner is not a valid owner account. (eg. `address(0)`)"
						}
					],
					"OwnableUnauthorizedAccount(address)": [
						{
							"details": "The caller account is not authorized to perform an operation."
						}
					]
				},
				"kind": "dev",
				"methods": {
					"owner()": {
						"details": "Returns the address of the current owner."
					},
					"renounceOwnership()": {
						"details": "Leaves the contract without owner. It will not be possible to call `onlyOwner` functions. Can only be called by the current owner. NOTE: Renouncing ownership will leave the contract without an owner, thereby disabling any functionality that is only available to the owner."
					},
					"transferOwnership(address)": {
						"details": "Transfers ownership of the contract to a new account (`newOwner`). Can only be called by the current owner."
					}
				},
				"version": 1
			},
			"evm": {
				"assembly": "    /* \"contracts/PreSale_flattened.sol\":29143:37238  contract GEPSPresale is Ownable, ReentrancyGuard {... */\n  mstore(0x40, 0x80)\n    /* \"contracts/PreSale_flattened.sol\":29490:29531  bool public unsoldGEPSTransferred = false */\n  0x05\n  dup1\n  sload\n  not(shl(0xa0, 0xff))\n  and\n  swap1\n  sstore\n    /* \"contracts/PreSale_flattened.sol\":30213:30476  constructor(... */\n  callvalue\n  dup1\n  iszero\n  tag_1\n  jumpi\n  0x00\n  dup1\n  revert\ntag_1:\n  pop\n  mload(0x40)\n  sub(codesize, bytecodeSize)\n  dup1\n  bytecodeSize\n  dup4\n  codecopy\n  dup2\n  add\n  0x40\n  dup2\n  swap1\n  mstore\n  tag_2\n  swap2\n  tag_3\n  jump\t// in\ntag_2:\n    /* \"contracts/PreSale_flattened.sol\":30329:30339  msg.sender */\n  caller\n  dup1\n    /* \"contracts/PreSale_flattened.sol\":19700:19795  if (initialOwner == address(0)) {... */\n  tag_8\n  jumpi\n    /* \"contracts/PreSale_flattened.sol\":19753:19784  OwnableInvalidOwner(address(0)) */\n  mload(0x40)\n  shl(0xe0, 0x1e4fbdf7)\n  dup2\n  mstore\n    /* \"contracts/PreSale_flattened.sol\":19781:19782  0 */\n  0x00\n    /* \"contracts/PreSale_flattened.sol\":19753:19784  OwnableInvalidOwner(address(0)) */\n  0x04\n  dup3\n  add\n    /* \"#utility.yul\":828:879   */\n  mstore\n    /* \"#utility.yul\":801:819   */\n  0x24\n  add\n    /* \"contracts/PreSale_flattened.sol\":19753:19784  OwnableInvalidOwner(address(0)) */\n  mload(0x40)\n  dup1\n  swap2\n  sub\n  swap1\n  revert\n    /* \"contracts/PreSale_flattened.sol\":19700:19795  if (initialOwner == address(0)) {... */\ntag_8:\n    /* \"contracts/PreSale_flattened.sol\":19804:19836  _transferOwnership(initialOwner) */\n  tag_11\n    /* \"contracts/PreSale_flattened.sol\":19823:19835  initialOwner */\n  dup2\n    /* \"contracts/PreSale_flattened.sol\":19804:19822  _transferOwnership */\n  tag_12\n    /* \"contracts/PreSale_flattened.sol\":19804:19836  _transferOwnership(initialOwner) */\n  jump\t// in\ntag_11:\n  pop\n    /* \"contracts/PreSale_flattened.sol\":28554:28555  1 */\n  0x01\n    /* \"contracts/PreSale_flattened.sol\":28659:28681  _status = _NOT_ENTERED */\n  dup1\n  sstore\n    /* \"contracts/PreSale_flattened.sol\":30351:30355  busd */\n  0x03\n    /* \"contracts/PreSale_flattened.sol\":30351:30371  busd = IERC20(_busd) */\n  dup1\n  sload\n  sub(shl(0xa0, 0x01), 0x01)\n  dup1\n  dup7\n  and\n  not(sub(shl(0xa0, 0x01), 0x01))\n  swap3\n  dup4\n  and\n  or\n  swap1\n  swap3\n  sstore\n    /* \"contracts/PreSale_flattened.sol\":30381:30389  treasury */\n  0x04\n    /* \"contracts/PreSale_flattened.sol\":30381:30401  treasury = _treasury */\n  dup1\n  sload\n  dup6\n  dup5\n  and\n  swap1\n  dup4\n  and\n  or\n  swap1\n  sstore\n    /* \"contracts/PreSale_flattened.sol\":30411:30424  presaleWallet */\n  0x05\n    /* \"contracts/PreSale_flattened.sol\":30411:30441  presaleWallet = _presaleWallet */\n  dup1\n  sload\n  swap3\n  dup5\n  and\n  swap3\n  swap1\n  swap2\n  and\n  swap2\n  swap1\n  swap2\n  or\n  swap1\n  sstore\n    /* \"contracts/PreSale_flattened.sol\":30451:30469  initializeStages() */\n  tag_15\n    /* \"contracts/PreSale_flattened.sol\":30451:30467  initializeStages */\n  tag_16\n    /* \"contracts/PreSale_flattened.sol\":30451:30469  initializeStages() */\n  jump\t// in\ntag_15:\n    /* \"contracts/PreSale_flattened.sol\":30213:30476  constructor(... */\n  pop\n  pop\n  pop\n    /* \"contracts/PreSale_flattened.sol\":29143:37238  contract GEPSPresale is Ownable, ReentrancyGuard {... */\n  jump(tag_49)\n    /* \"contracts/PreSale_flattened.sol\":21343:21530  function _transferOwnership(address newOwner) internal virtual {... */\ntag_12:\n    /* \"contracts/PreSale_flattened.sol\":21416:21432  address oldOwner */\n  0x00\n    /* \"contracts/PreSale_flattened.sol\":21435:21441  _owner */\n  dup1\n  sload\n  sub(shl(0xa0, 0x01), 0x01)\n    /* \"contracts/PreSale_flattened.sol\":21451:21468  _owner = newOwner */\n  dup4\n  dup2\n  and\n  not(sub(shl(0xa0, 0x01), 0x01))\n  dup4\n  and\n  dup2\n  or\n  dup5\n  sstore\n    /* \"contracts/PreSale_flattened.sol\":21483:21523  OwnershipTransferred(oldOwner, newOwner) */\n  mload(0x40)\n    /* \"contracts/PreSale_flattened.sol\":21435:21441  _owner */\n  swap2\n  swap1\n  swap3\n  and\n  swap3\n  dup4\n  swap2\n    /* \"contracts/PreSale_flattened.sol\":21483:21523  OwnershipTransferred(oldOwner, newOwner) */\n  0x8be0079c531659141344cd1fd0a4f28419497f9722a3daafe3b4186f6b6457e0\n  swap2\n    /* \"contracts/PreSale_flattened.sol\":21416:21432  address oldOwner */\n  swap1\n    /* \"contracts/PreSale_flattened.sol\":21483:21523  OwnershipTransferred(oldOwner, newOwner) */\n  log3\n    /* \"contracts/PreSale_flattened.sol\":21406:21530  {... */\n  pop\n    /* \"contracts/PreSale_flattened.sol\":21343:21530  function _transferOwnership(address newOwner) internal virtual {... */\n  pop\n  jump\t// out\n    /* \"contracts/PreSale_flattened.sol\":30711:32193  function initializeStages() internal {... */\ntag_16:\n    /* \"contracts/PreSale_flattened.sol\":30770:30907  Stage({... */\n  mload(0x40)\n  dup1\n  0x80\n  add\n  0x40\n  mstore\n  dup1\n    /* \"contracts/PreSale_flattened.sol\":30797:30798  1 */\n  0x01\n    /* \"contracts/PreSale_flattened.sol\":30770:30907  Stage({... */\n  dup2\n  mstore\n  0x20\n  add\n    /* \"contracts/PreSale_flattened.sol\":30828:30846  2222224 * 10 ** 18 */\n  0x01d693012228a4c8400000\n    /* \"contracts/PreSale_flattened.sol\":30770:30907  Stage({... */\n  dup2\n  mstore\n  0x20\n  add\n    /* \"contracts/PreSale_flattened.sol\":30871:30872  0 */\n  0x00\n    /* \"contracts/PreSale_flattened.sol\":30770:30907  Stage({... */\n  dup2\n  mstore\n  0x20\n  add\n    /* \"contracts/PreSale_flattened.sol\":30895:30896  0 */\n  0x00\n    /* \"contracts/PreSale_flattened.sol\":30770:30907  Stage({... */\n  dup2\n  mstore\n  pop\n    /* \"contracts/PreSale_flattened.sol\":30758:30764  stages */\n  0x06\n    /* \"contracts/PreSale_flattened.sol\":30765:30766  0 */\n  0x00\n    /* \"contracts/PreSale_flattened.sol\":30758:30767  stages[0] */\n  0x09\n  dup2\n  lt\n  tag_21\n  jumpi\n  tag_21\n  tag_22\n  jump\t// in\ntag_21:\n  0x04\n  mul\n  add\n    /* \"contracts/PreSale_flattened.sol\":30758:30907  stages[0] = Stage({... */\n  0x00\n  dup3\n  add\n  mload\n  dup2\n  0x00\n  add\n  sstore\n  0x20\n  dup3\n  add\n  mload\n  dup2\n  0x01\n  add\n  sstore\n  0x40\n  dup3\n  add\n  mload\n  dup2\n  0x02\n  add\n  sstore\n  0x60\n  dup3\n  add\n  mload\n  dup2\n  0x03\n  add\n  sstore\n  swap1\n  pop\n  pop\n    /* \"contracts/PreSale_flattened.sol\":30929:31066  Stage({... */\n  mload(0x40)\n  dup1\n  0x80\n  add\n  0x40\n  mstore\n  dup1\n    /* \"contracts/PreSale_flattened.sol\":30956:30957  5 */\n  0x05\n    /* \"contracts/PreSale_flattened.sol\":30929:31066  Stage({... */\n  dup2\n  mstore\n  0x20\n  add\n    /* \"contracts/PreSale_flattened.sol\":30987:31005  2222222 * 10 ** 18 */\n  0x01d692e560bb3d79780000\n    /* \"contracts/PreSale_flattened.sol\":30929:31066  Stage({... */\n  dup2\n  mstore\n  0x20\n  add\n    /* \"contracts/PreSale_flattened.sol\":31030:31031  0 */\n  0x00\n    /* \"contracts/PreSale_flattened.sol\":30929:31066  Stage({... */\n  dup2\n  mstore\n  0x20\n  add\n    /* \"contracts/PreSale_flattened.sol\":31054:31055  0 */\n  0x00\n    /* \"contracts/PreSale_flattened.sol\":30929:31066  Stage({... */\n  dup2\n  mstore\n  pop\n    /* \"contracts/PreSale_flattened.sol\":30917:30923  stages */\n  0x06\n    /* \"contracts/PreSale_flattened.sol\":30924:30925  1 */\n  0x01\n    /* \"contracts/PreSale_flattened.sol\":30917:30926  stages[1] */\n  0x09\n  dup2\n  lt\n  tag_25\n  jumpi\n  tag_25\n  tag_22\n  jump\t// in\ntag_25:\n  0x04\n  mul\n  add\n    /* \"contracts/PreSale_flattened.sol\":30917:31066  stages[1] = Stage({... */\n  0x00\n  dup3\n  add\n  mload\n  dup2\n  0x00\n  add\n  sstore\n  0x20\n  dup3\n  add\n  mload\n  dup2\n  0x01\n  add\n  sstore\n  0x40\n  dup3\n  add\n  mload\n  dup2\n  0x02\n  add\n  sstore\n  0x60\n  dup3\n  add\n  mload\n  dup2\n  0x03\n  add\n  sstore\n  swap1\n  pop\n  pop\n    /* \"contracts/PreSale_flattened.sol\":31088:31226  Stage({... */\n  mload(0x40)\n  dup1\n  0x80\n  add\n  0x40\n  mstore\n  dup1\n    /* \"contracts/PreSale_flattened.sol\":31115:31117  10 */\n  0x0a\n    /* \"contracts/PreSale_flattened.sol\":31088:31226  Stage({... */\n  dup2\n  mstore\n  0x20\n  add\n    /* \"contracts/PreSale_flattened.sol\":31147:31165  2222222 * 10 ** 18 */\n  0x01d692e560bb3d79780000\n    /* \"contracts/PreSale_flattened.sol\":31088:31226  Stage({... */\n  dup2\n  mstore\n  0x20\n  add\n    /* \"contracts/PreSale_flattened.sol\":31190:31191  0 */\n  0x00\n    /* \"contracts/PreSale_flattened.sol\":31088:31226  Stage({... */\n  dup2\n  mstore\n  0x20\n  add\n    /* \"contracts/PreSale_flattened.sol\":31214:31215  0 */\n  0x00\n    /* \"contracts/PreSale_flattened.sol\":31088:31226  Stage({... */\n  dup2\n  mstore\n  pop\n    /* \"contracts/PreSale_flattened.sol\":31076:31082  stages */\n  0x06\n    /* \"contracts/PreSale_flattened.sol\":31083:31084  2 */\n  0x02\n    /* \"contracts/PreSale_flattened.sol\":31076:31085  stages[2] */\n  0x09\n  dup2\n  lt\n  tag_28\n  jumpi\n  tag_28\n  tag_22\n  jump\t// in\ntag_28:\n  0x04\n  mul\n  add\n    /* \"contracts/PreSale_flattened.sol\":31076:31226  stages[2] = Stage({... */\n  0x00\n  dup3\n  add\n  mload\n  dup2\n  0x00\n  add\n  sstore\n  0x20\n  dup3\n  add\n  mload\n  dup2\n  0x01\n  add\n  sstore\n  0x40\n  dup3\n  add\n  mload\n  dup2\n  0x02\n  add\n  sstore\n  0x60\n  dup3\n  add\n  mload\n  dup2\n  0x03\n  add\n  sstore\n  swap1\n  pop\n  pop\n    /* \"contracts/PreSale_flattened.sol\":31248:31386  Stage({... */\n  mload(0x40)\n  dup1\n  0x80\n  add\n  0x40\n  mstore\n  dup1\n    /* \"contracts/PreSale_flattened.sol\":31275:31277  15 */\n  0x0f\n    /* \"contracts/PreSale_flattened.sol\":31248:31386  Stage({... */\n  dup2\n  mstore\n  0x20\n  add\n    /* \"contracts/PreSale_flattened.sol\":31307:31325  2222222 * 10 ** 18 */\n  0x01d692e560bb3d79780000\n    /* \"contracts/PreSale_flattened.sol\":31248:31386  Stage({... */\n  dup2\n  mstore\n  0x20\n  add\n    /* \"contracts/PreSale_flattened.sol\":31350:31351  0 */\n  0x00\n    /* \"contracts/PreSale_flattened.sol\":31248:31386  Stage({... */\n  dup2\n  mstore\n  0x20\n  add\n    /* \"contracts/PreSale_flattened.sol\":31374:31375  0 */\n  0x00\n    /* \"contracts/PreSale_flattened.sol\":31248:31386  Stage({... */\n  dup2\n  mstore\n  pop\n    /* \"contracts/PreSale_flattened.sol\":31236:31242  stages */\n  0x06\n    /* \"contracts/PreSale_flattened.sol\":31243:31244  3 */\n  0x03\n    /* \"contracts/PreSale_flattened.sol\":31236:31245  stages[3] */\n  0x09\n  dup2\n  lt\n  tag_31\n  jumpi\n  tag_31\n  tag_22\n  jump\t// in\ntag_31:\n  0x04\n  mul\n  add\n    /* \"contracts/PreSale_flattened.sol\":31236:31386  stages[3] = Stage({... */\n  0x00\n  dup3\n  add\n  mload\n  dup2\n  0x00\n  add\n  sstore\n  0x20\n  dup3\n  add\n  mload\n  dup2\n  0x01\n  add\n  sstore\n  0x40\n  dup3\n  add\n  mload\n  dup2\n  0x02\n  add\n  sstore\n  0x60\n  dup3\n  add\n  mload\n  dup2\n  0x03\n  add\n  sstore\n  swap1\n  pop\n  pop\n    /* \"contracts/PreSale_flattened.sol\":31408:31546  Stage({... */\n  mload(0x40)\n  dup1\n  0x80\n  add\n  0x40\n  mstore\n  dup1\n    /* \"contracts/PreSale_flattened.sol\":31435:31437  20 */\n  0x14\n    /* \"contracts/PreSale_flattened.sol\":31408:31546  Stage({... */\n  dup2\n  mstore\n  0x20\n  add\n    /* \"contracts/PreSale_flattened.sol\":31467:31485  2222222 * 10 ** 18 */\n  0x01d692e560bb3d79780000\n    /* \"contracts/PreSale_flattened.sol\":31408:31546  Stage({... */\n  dup2\n  mstore\n  0x20\n  add\n    /* \"contracts/PreSale_flattened.sol\":31510:31511  0 */\n  0x00\n    /* \"contracts/PreSale_flattened.sol\":31408:31546  Stage({... */\n  dup2\n  mstore\n  0x20\n  add\n    /* \"contracts/PreSale_flattened.sol\":31534:31535  0 */\n  0x00\n    /* \"contracts/PreSale_flattened.sol\":31408:31546  Stage({... */\n  dup2\n  mstore\n  pop\n    /* \"contracts/PreSale_flattened.sol\":31396:31402  stages */\n  0x06\n    /* \"contracts/PreSale_flattened.sol\":31403:31404  4 */\n  0x04\n    /* \"contracts/PreSale_flattened.sol\":31396:31405  stages[4] */\n  0x09\n  dup2\n  lt\n  tag_34\n  jumpi\n  tag_34\n  tag_22\n  jump\t// in\ntag_34:\n  0x04\n  mul\n  add\n    /* \"contracts/PreSale_flattened.sol\":31396:31546  stages[4] = Stage({... */\n  0x00\n  dup3\n  add\n  mload\n  dup2\n  0x00\n  add\n  sstore\n  0x20\n  dup3\n  add\n  mload\n  dup2\n  0x01\n  add\n  sstore\n  0x40\n  dup3\n  add\n  mload\n  dup2\n  0x02\n  add\n  sstore\n  0x60\n  dup3\n  add\n  mload\n  dup2\n  0x03\n  add\n  sstore\n  swap1\n  pop\n  pop\n    /* \"contracts/PreSale_flattened.sol\":31568:31706  Stage({... */\n  mload(0x40)\n  dup1\n  0x80\n  add\n  0x40\n  mstore\n  dup1\n    /* \"contracts/PreSale_flattened.sol\":31595:31597  25 */\n  0x19\n    /* \"contracts/PreSale_flattened.sol\":31568:31706  Stage({... */\n  dup2\n  mstore\n  0x20\n  add\n    /* \"contracts/PreSale_flattened.sol\":31627:31645  2222222 * 10 ** 18 */\n  0x01d692e560bb3d79780000\n    /* \"contracts/PreSale_flattened.sol\":31568:31706  Stage({... */\n  dup2\n  mstore\n  0x20\n  add\n    /* \"contracts/PreSale_flattened.sol\":31670:31671  0 */\n  0x00\n    /* \"contracts/PreSale_flattened.sol\":31568:31706  Stage({... */\n  dup2\n  mstore\n  0x20\n  add\n    /* \"contracts/PreSale_flattened.sol\":31694:31695  0 */\n  0x00\n    /* \"contracts/PreSale_flattened.sol\":31568:31706  Stage({... */\n  dup2\n  mstore\n  pop\n    /* \"contracts/PreSale_flattened.sol\":31556:31562  stages */\n  0x06\n    /* \"contracts/PreSale_flattened.sol\":31563:31564  5 */\n  0x05\n    /* \"contracts/PreSale_flattened.sol\":31556:31565  stages[5] */\n  0x09\n  dup2\n  lt\n  tag_37\n  jumpi\n  tag_37\n  tag_22\n  jump\t// in\ntag_37:\n  0x04\n  mul\n  add\n    /* \"contracts/PreSale_flattened.sol\":31556:31706  stages[5] = Stage({... */\n  0x00\n  dup3\n  add\n  mload\n  dup2\n  0x00\n  add\n  sstore\n  0x20\n  dup3\n  add\n  mload\n  dup2\n  0x01\n  add\n  sstore\n  0x40\n  dup3\n  add\n  mload\n  dup2\n  0x02\n  add\n  sstore\n  0x60\n  dup3\n  add\n  mload\n  dup2\n  0x03\n  add\n  sstore\n  swap1\n  pop\n  pop\n    /* \"contracts/PreSale_flattened.sol\":31728:31866  Stage({... */\n  mload(0x40)\n  dup1\n  0x80\n  add\n  0x40\n  mstore\n  dup1\n    /* \"contracts/PreSale_flattened.sol\":31755:31757  30 */\n  0x1e\n    /* \"contracts/PreSale_flattened.sol\":31728:31866  Stage({... */\n  dup2\n  mstore\n  0x20\n  add\n    /* \"contracts/PreSale_flattened.sol\":31787:31805  2222222 * 10 ** 18 */\n  0x01d692e560bb3d79780000\n    /* \"contracts/PreSale_flattened.sol\":31728:31866  Stage({... */\n  dup2\n  mstore\n  0x20\n  add\n    /* \"contracts/PreSale_flattened.sol\":31830:31831  0 */\n  0x00\n    /* \"contracts/PreSale_flattened.sol\":31728:31866  Stage({... */\n  dup2\n  mstore\n  0x20\n  add\n    /* \"contracts/PreSale_flattened.sol\":31854:31855  0 */\n  0x00\n    /* \"contracts/PreSale_flattened.sol\":31728:31866  Stage({... */\n  dup2\n  mstore\n  pop\n    /* \"contracts/PreSale_flattened.sol\":31716:31722  stages */\n  0x06\n    /* \"contracts/PreSale_flattened.sol\":31723:31724  6 */\n  dup1\n    /* \"contracts/PreSale_flattened.sol\":31716:31725  stages[6] */\n  0x09\n  dup2\n  lt\n  tag_40\n  jumpi\n  tag_40\n  tag_22\n  jump\t// in\ntag_40:\n  0x04\n  mul\n  add\n    /* \"contracts/PreSale_flattened.sol\":31716:31866  stages[6] = Stage({... */\n  0x00\n  dup3\n  add\n  mload\n  dup2\n  0x00\n  add\n  sstore\n  0x20\n  dup3\n  add\n  mload\n  dup2\n  0x01\n  add\n  sstore\n  0x40\n  dup3\n  add\n  mload\n  dup2\n  0x02\n  add\n  sstore\n  0x60\n  dup3\n  add\n  mload\n  dup2\n  0x03\n  add\n  sstore\n  swap1\n  pop\n  pop\n    /* \"contracts/PreSale_flattened.sol\":31888:32026  Stage({... */\n  mload(0x40)\n  dup1\n  0x80\n  add\n  0x40\n  mstore\n  dup1\n    /* \"contracts/PreSale_flattened.sol\":31915:31917  35 */\n  0x23\n    /* \"contracts/PreSale_flattened.sol\":31888:32026  Stage({... */\n  dup2\n  mstore\n  0x20\n  add\n    /* \"contracts/PreSale_flattened.sol\":31947:31965  2222222 * 10 ** 18 */\n  0x01d692e560bb3d79780000\n    /* \"contracts/PreSale_flattened.sol\":31888:32026  Stage({... */\n  dup2\n  mstore\n  0x20\n  add\n    /* \"contracts/PreSale_flattened.sol\":31990:31991  0 */\n  0x00\n    /* \"contracts/PreSale_flattened.sol\":31888:32026  Stage({... */\n  dup2\n  mstore\n  0x20\n  add\n    /* \"contracts/PreSale_flattened.sol\":32014:32015  0 */\n  0x00\n    /* \"contracts/PreSale_flattened.sol\":31888:32026  Stage({... */\n  dup2\n  mstore\n  pop\n    /* \"contracts/PreSale_flattened.sol\":31876:31882  stages */\n  0x06\n    /* \"contracts/PreSale_flattened.sol\":31883:31884  7 */\n  0x07\n    /* \"contracts/PreSale_flattened.sol\":31876:31885  stages[7] */\n  0x09\n  dup2\n  lt\n  tag_43\n  jumpi\n  tag_43\n  tag_22\n  jump\t// in\ntag_43:\n  0x04\n  mul\n  add\n    /* \"contracts/PreSale_flattened.sol\":31876:32026  stages[7] = Stage({... */\n  0x00\n  dup3\n  add\n  mload\n  dup2\n  0x00\n  add\n  sstore\n  0x20\n  dup3\n  add\n  mload\n  dup2\n  0x01\n  add\n  sstore\n  0x40\n  dup3\n  add\n  mload\n  dup2\n  0x02\n  add\n  sstore\n  0x60\n  dup3\n  add\n  mload\n  dup2\n  0x03\n  add\n  sstore\n  swap1\n  pop\n  pop\n    /* \"contracts/PreSale_flattened.sol\":32048:32186  Stage({... */\n  mload(0x40)\n  dup1\n  0x80\n  add\n  0x40\n  mstore\n  dup1\n    /* \"contracts/PreSale_flattened.sol\":32075:32077  40 */\n  0x28\n    /* \"contracts/PreSale_flattened.sol\":32048:32186  Stage({... */\n  dup2\n  mstore\n  0x20\n  add\n    /* \"contracts/PreSale_flattened.sol\":32107:32125  2222222 * 10 ** 18 */\n  0x01d692e560bb3d79780000\n    /* \"contracts/PreSale_flattened.sol\":32048:32186  Stage({... */\n  dup2\n  mstore\n  0x20\n  add\n    /* \"contracts/PreSale_flattened.sol\":32150:32151  0 */\n  0x00\n    /* \"contracts/PreSale_flattened.sol\":32048:32186  Stage({... */\n  dup2\n  mstore\n  0x20\n  add\n    /* \"contracts/PreSale_flattened.sol\":32174:32175  0 */\n  0x00\n    /* \"contracts/PreSale_flattened.sol\":32048:32186  Stage({... */\n  dup2\n  mstore\n  pop\n    /* \"contracts/PreSale_flattened.sol\":32036:32042  stages */\n  0x06\n    /* \"contracts/PreSale_flattened.sol\":32043:32044  8 */\n  0x08\n    /* \"contracts/PreSale_flattened.sol\":32036:32045  stages[8] */\n  0x09\n  dup2\n  lt\n  tag_46\n  jumpi\n  tag_46\n  tag_22\n  jump\t// in\ntag_46:\n  0x04\n  mul\n  add\n    /* \"contracts/PreSale_flattened.sol\":32036:32186  stages[8] = Stage({... */\n  0x00\n  dup3\n  add\n  mload\n  dup2\n  0x00\n  add\n  sstore\n  0x20\n  dup3\n  add\n  mload\n  dup2\n  0x01\n  add\n  sstore\n  0x40\n  dup3\n  add\n  mload\n  dup2\n  0x02\n  add\n  sstore\n  0x60\n  dup3\n  add\n  mload\n  dup2\n  0x03\n  add\n  sstore\n  swap1\n  pop\n  pop\n    /* \"contracts/PreSale_flattened.sol\":30711:32193  function initializeStages() internal {... */\n  jump\t// out\n    /* \"#utility.yul\":14:145   */\ntag_48:\n  sub(shl(0xa0, 0x01), 0x01)\n    /* \"#utility.yul\":89:120   */\n  dup2\n  and\n    /* \"#utility.yul\":79:121   */\n  dup2\n  eq\n    /* \"#utility.yul\":69:139   */\n  tag_51\n  jumpi\n    /* \"#utility.yul\":135:136   */\n  0x00\n    /* \"#utility.yul\":132:133   */\n  dup1\n    /* \"#utility.yul\":125:137   */\n  revert\n    /* \"#utility.yul\":69:139   */\ntag_51:\n    /* \"#utility.yul\":14:145   */\n  pop\n  jump\t// out\n    /* \"#utility.yul\":150:677   */\ntag_3:\n    /* \"#utility.yul\":246:252   */\n  0x00\n    /* \"#utility.yul\":254:260   */\n  dup1\n    /* \"#utility.yul\":262:268   */\n  0x00\n    /* \"#utility.yul\":315:317   */\n  0x60\n    /* \"#utility.yul\":303:312   */\n  dup5\n    /* \"#utility.yul\":294:301   */\n  dup7\n    /* \"#utility.yul\":290:313   */\n  sub\n    /* \"#utility.yul\":286:318   */\n  slt\n    /* \"#utility.yul\":283:335   */\n  iszero\n  tag_53\n  jumpi\n    /* \"#utility.yul\":331:332   */\n  0x00\n    /* \"#utility.yul\":328:329   */\n  dup1\n    /* \"#utility.yul\":321:333   */\n  revert\n    /* \"#utility.yul\":283:335   */\ntag_53:\n    /* \"#utility.yul\":363:372   */\n  dup4\n    /* \"#utility.yul\":357:373   */\n  mload\n    /* \"#utility.yul\":382:413   */\n  tag_54\n    /* \"#utility.yul\":407:412   */\n  dup2\n    /* \"#utility.yul\":382:413   */\n  tag_48\n  jump\t// in\ntag_54:\n    /* \"#utility.yul\":482:484   */\n  0x20\n    /* \"#utility.yul\":467:485   */\n  dup6\n  add\n    /* \"#utility.yul\":461:486   */\n  mload\n    /* \"#utility.yul\":432:437   */\n  swap1\n  swap4\n  pop\n    /* \"#utility.yul\":495:528   */\n  tag_55\n    /* \"#utility.yul\":461:486   */\n  dup2\n    /* \"#utility.yul\":495:528   */\n  tag_48\n  jump\t// in\ntag_55:\n    /* \"#utility.yul\":599:601   */\n  0x40\n    /* \"#utility.yul\":584:602   */\n  dup6\n  add\n    /* \"#utility.yul\":578:603   */\n  mload\n    /* \"#utility.yul\":547:554   */\n  swap1\n  swap3\n  pop\n    /* \"#utility.yul\":612:645   */\n  tag_56\n    /* \"#utility.yul\":578:603   */\n  dup2\n    /* \"#utility.yul\":612:645   */\n  tag_48\n  jump\t// in\ntag_56:\n    /* \"#utility.yul\":664:671   */\n  dup1\n    /* \"#utility.yul\":654:671   */\n  swap2\n  pop\n  pop\n    /* \"#utility.yul\":150:677   */\n  swap3\n  pop\n  swap3\n  pop\n  swap3\n  jump\t// out\n    /* \"#utility.yul\":890:1017   */\ntag_22:\n    /* \"#utility.yul\":951:961   */\n  0x4e487b71\n    /* \"#utility.yul\":946:949   */\n  0xe0\n    /* \"#utility.yul\":942:962   */\n  shl\n    /* \"#utility.yul\":939:940   */\n  0x00\n    /* \"#utility.yul\":932:963   */\n  mstore\n    /* \"#utility.yul\":982:986   */\n  0x32\n    /* \"#utility.yul\":979:980   */\n  0x04\n    /* \"#utility.yul\":972:987   */\n  mstore\n    /* \"#utility.yul\":1006:1010   */\n  0x24\n    /* \"#utility.yul\":1003:1004   */\n  0x00\n    /* \"#utility.yul\":996:1011   */\n  revert\n    /* \"#utility.yul\":890:1017   */\ntag_49:\n    /* \"contracts/PreSale_flattened.sol\":29143:37238  contract GEPSPresale is Ownable, ReentrancyGuard {... */\n  dataSize(sub_0)\n  dup1\n  dataOffset(sub_0)\n  0x00\n  codecopy\n  0x00\n  return\nstop\n\nsub_0: assembly {\n        /* \"contracts/PreSale_flattened.sol\":29143:37238  contract GEPSPresale is Ownable, ReentrancyGuard {... */\n      mstore(0x40, 0x80)\n      jumpi(tag_1, lt(calldatasize, 0x04))\n      shr(0xe0, calldataload(0x00))\n      dup1\n      0x67faa4b6\n      gt\n      tag_30\n      jumpi\n      dup1\n      0x8e17c017\n      gt\n      tag_31\n      jumpi\n      dup1\n      0xe18132c4\n      gt\n      tag_32\n      jumpi\n      dup1\n      0xe18132c4\n      eq\n      tag_26\n      jumpi\n      dup1\n      0xeedbe31d\n      eq\n      tag_27\n      jumpi\n      dup1\n      0xf2fde38b\n      eq\n      tag_28\n      jumpi\n      dup1\n      0xf94f983a\n      eq\n      tag_29\n      jumpi\n      0x00\n      dup1\n      revert\n    tag_32:\n      dup1\n      0x8e17c017\n      eq\n      tag_23\n      jumpi\n      dup1\n      0xa5aec846\n      eq\n      tag_24\n      jumpi\n      dup1\n      0xa82524b2\n      eq\n      tag_25\n      jumpi\n      0x00\n      dup1\n      revert\n    tag_31:\n      dup1\n      0x73b2e80e\n      gt\n      tag_33\n      jumpi\n      dup1\n      0x73b2e80e\n      eq\n      tag_19\n      jumpi\n      dup1\n      0x841e4561\n      eq\n      tag_20\n      jumpi\n      dup1\n      0x845ddcb2\n      eq\n      tag_21\n      jumpi\n      dup1\n      0x8da5cb5b\n      eq\n      tag_22\n      jumpi\n      0x00\n      dup1\n      revert\n    tag_33:\n      dup1\n      0x67faa4b6\n      eq\n      tag_16\n      jumpi\n      dup1\n      0x6e14600f\n      eq\n      tag_17\n      jumpi\n      dup1\n      0x715018a6\n      eq\n      tag_18\n      jumpi\n      0x00\n      dup1\n      revert\n    tag_30:\n      dup1\n      0x3ea92d73\n      gt\n      tag_34\n      jumpi\n      dup1\n      0x54c4152e\n      gt\n      tag_35\n      jumpi\n      dup1\n      0x54c4152e\n      eq\n      tag_12\n      jumpi\n      dup1\n      0x59ac5e18\n      eq\n      tag_13\n      jumpi\n      dup1\n      0x5bf5d54c\n      eq\n      tag_14\n      jumpi\n      dup1\n      0x61d027b3\n      eq\n      tag_15\n      jumpi\n      0x00\n      dup1\n      revert\n    tag_35:\n      dup1\n      0x3ea92d73\n      eq\n      tag_9\n      jumpi\n      dup1\n      0x3f957b0d\n      eq\n      tag_10\n      jumpi\n      dup1\n      0x51f9efde\n      eq\n      tag_11\n      jumpi\n      0x00\n      dup1\n      revert\n    tag_34:\n      dup1\n      0x1a8a63eb\n      gt\n      tag_36\n      jumpi\n      dup1\n      0x1a8a63eb\n      eq\n      tag_5\n      jumpi\n      dup1\n      0x1c2dda48\n      eq\n      tag_6\n      jumpi\n      dup1\n      0x249b7c19\n      eq\n      tag_7\n      jumpi\n      dup1\n      0x3ca5b234\n      eq\n      tag_8\n      jumpi\n      0x00\n      dup1\n      revert\n    tag_36:\n      dup1\n      0x04c98b2b\n      eq\n      tag_2\n      jumpi\n      dup1\n      0x0c454721\n      eq\n      tag_3\n      jumpi\n      dup1\n      0x0f1c7769\n      eq\n      tag_4\n      jumpi\n    tag_1:\n      0x00\n      dup1\n      revert\n        /* \"contracts/PreSale_flattened.sol\":32199:32548  function startPresale() external onlyOwner {... */\n    tag_2:\n      callvalue\n      dup1\n      iszero\n      tag_37\n      jumpi\n      0x00\n      dup1\n      revert\n    tag_37:\n      pop\n      tag_38\n      tag_39\n      jump\t// in\n    tag_38:\n      stop\n        /* \"contracts/PreSale_flattened.sol\":29490:29531  bool public unsoldGEPSTransferred = false */\n    tag_3:\n      callvalue\n      dup1\n      iszero\n      tag_40\n      jumpi\n      0x00\n      dup1\n      revert\n    tag_40:\n      pop\n      sload(0x05)\n      tag_41\n      swap1\n      shl(0xa0, 0x01)\n      swap1\n      div\n      0xff\n      and\n      dup2\n      jump\n    tag_41:\n      mload(0x40)\n        /* \"#utility.yul\":179:193   */\n      swap1\n      iszero\n        /* \"#utility.yul\":172:194   */\n      iszero\n        /* \"#utility.yul\":154:195   */\n      dup2\n      mstore\n        /* \"#utility.yul\":142:144   */\n      0x20\n        /* \"#utility.yul\":127:145   */\n      add\n        /* \"contracts/PreSale_flattened.sol\":29490:29531  bool public unsoldGEPSTransferred = false */\n    tag_43:\n      mload(0x40)\n      dup1\n      swap2\n      sub\n      swap1\n      return\n        /* \"contracts/PreSale_flattened.sol\":36148:36441  function transferUnsoldGEPSsToTreasury()... */\n    tag_4:\n      callvalue\n      dup1\n      iszero\n      tag_45\n      jumpi\n      0x00\n      dup1\n      revert\n    tag_45:\n      pop\n      tag_38\n      tag_47\n      jump\t// in\n        /* \"contracts/PreSale_flattened.sol\":29828:29877  mapping(address => uint256) public purchasedGEPSs */\n    tag_5:\n      callvalue\n      dup1\n      iszero\n      tag_48\n      jumpi\n      0x00\n      dup1\n      revert\n    tag_48:\n      pop\n      tag_49\n      tag_50\n      calldatasize\n      0x04\n      tag_51\n      jump\t// in\n    tag_50:\n      mstore(0x20, 0x2d)\n      0x00\n      swap1\n      dup2\n      mstore\n      0x40\n      swap1\n      keccak256\n      sload\n      dup2\n      jump\n    tag_49:\n      mload(0x40)\n        /* \"#utility.yul\":740:765   */\n      swap1\n      dup2\n      mstore\n        /* \"#utility.yul\":728:730   */\n      0x20\n        /* \"#utility.yul\":713:731   */\n      add\n        /* \"contracts/PreSale_flattened.sol\":29828:29877  mapping(address => uint256) public purchasedGEPSs */\n      tag_43\n        /* \"#utility.yul\":594:771   */\n      jump\n        /* \"contracts/PreSale_flattened.sol\":29231:29249  IERC20 public GEPS */\n    tag_6:\n      callvalue\n      dup1\n      iszero\n      tag_55\n      jumpi\n      0x00\n      dup1\n      revert\n    tag_55:\n      pop\n      sload(0x02)\n      tag_56\n      swap1\n      sub(shl(0xa0, 0x01), 0x01)\n      and\n      dup2\n      jump\n    tag_56:\n      mload(0x40)\n      sub(shl(0xa0, 0x01), 0x01)\n        /* \"#utility.yul\":953:985   */\n      swap1\n      swap2\n      and\n        /* \"#utility.yul\":935:986   */\n      dup2\n      mstore\n        /* \"#utility.yul\":923:925   */\n      0x20\n        /* \"#utility.yul\":908:926   */\n      add\n        /* \"contracts/PreSale_flattened.sol\":29231:29249  IERC20 public GEPS */\n      tag_43\n        /* \"#utility.yul\":776:992   */\n      jump\n        /* \"contracts/PreSale_flattened.sol\":29793:29822  uint256 public presaleEndTime */\n    tag_7:\n      callvalue\n      dup1\n      iszero\n      tag_60\n      jumpi\n      0x00\n      dup1\n      revert\n    tag_60:\n      pop\n      tag_49\n      sload(0x2c)\n      dup2\n      jump\n        /* \"contracts/PreSale_flattened.sol\":29255:29273  IERC20 public busd */\n    tag_8:\n      callvalue\n      dup1\n      iszero\n      tag_64\n      jumpi\n      0x00\n      dup1\n      revert\n    tag_64:\n      pop\n      sload(0x03)\n      tag_56\n      swap1\n      sub(shl(0xa0, 0x01), 0x01)\n      and\n      dup2\n      jump\n        /* \"contracts/PreSale_flattened.sol\":29343:29380  uint256 public constant MAX_STAGE = 9 */\n    tag_9:\n      callvalue\n      dup1\n      iszero\n      tag_68\n      jumpi\n      0x00\n      dup1\n      revert\n    tag_68:\n      pop\n      tag_49\n        /* \"contracts/PreSale_flattened.sol\":29379:29380  9 */\n      0x09\n        /* \"contracts/PreSale_flattened.sol\":29343:29380  uint256 public constant MAX_STAGE = 9 */\n      dup2\n      jump\n        /* \"contracts/PreSale_flattened.sol\":35644:36142  function claimGEPSs() external onlyAfterPresale nonReentrant {... */\n    tag_10:\n      callvalue\n      dup1\n      iszero\n      tag_72\n      jumpi\n      0x00\n      dup1\n      revert\n    tag_72:\n      pop\n      tag_38\n      tag_74\n      jump\t// in\n        /* \"contracts/PreSale_flattened.sol\":29386:29434  uint256 public constant STAGE_DURATION = 40 days */\n    tag_11:\n      callvalue\n      dup1\n      iszero\n      tag_75\n      jumpi\n      0x00\n      dup1\n      revert\n    tag_75:\n      pop\n      tag_49\n        /* \"contracts/PreSale_flattened.sol\":29427:29434  40 days */\n      0x34bc00\n        /* \"contracts/PreSale_flattened.sol\":29386:29434  uint256 public constant STAGE_DURATION = 40 days */\n      dup2\n      jump\n        /* \"contracts/PreSale_flattened.sol\":36447:36746  function getUnsoldGEPSs() public view returns (uint256) {... */\n    tag_12:\n      callvalue\n      dup1\n      iszero\n      tag_79\n      jumpi\n      0x00\n      dup1\n      revert\n    tag_79:\n      pop\n      tag_49\n      tag_81\n      jump\t// in\n        /* \"contracts/PreSale_flattened.sol\":34502:34842  function initialiseTokens(... */\n    tag_13:\n      callvalue\n      dup1\n      iszero\n      tag_83\n      jumpi\n      0x00\n      dup1\n      revert\n    tag_83:\n      pop\n      tag_38\n      tag_85\n      calldatasize\n      0x04\n      tag_86\n      jump\t// in\n    tag_85:\n      tag_87\n      jump\t// in\n        /* \"contracts/PreSale_flattened.sol\":29723:29750  uint256 public currentStage */\n    tag_14:\n      callvalue\n      dup1\n      iszero\n      tag_88\n      jumpi\n      0x00\n      dup1\n      revert\n    tag_88:\n      pop\n      tag_49\n      sload(0x2a)\n      dup2\n      jump\n        /* \"contracts/PreSale_flattened.sol\":29279:29302  address public treasury */\n    tag_15:\n      callvalue\n      dup1\n      iszero\n      tag_92\n      jumpi\n      0x00\n      dup1\n      revert\n    tag_92:\n      pop\n      sload(0x04)\n      tag_56\n      swap1\n      sub(shl(0xa0, 0x01), 0x01)\n      and\n      dup2\n      jump\n        /* \"contracts/PreSale_flattened.sol\":32554:34104  function buyGEPS(uint256 amount, string memory currency) external payable nonReentrant {... */\n    tag_16:\n      tag_38\n      tag_98\n      calldatasize\n      0x04\n      tag_99\n      jump\t// in\n    tag_98:\n      tag_100\n      jump\t// in\n        /* \"contracts/PreSale_flattened.sol\":30612:30705  function setGEPSToken(address _geps) external onlyOwner {... */\n    tag_17:\n      callvalue\n      dup1\n      iszero\n      tag_101\n      jumpi\n      0x00\n      dup1\n      revert\n    tag_101:\n      pop\n      tag_38\n      tag_103\n      calldatasize\n      0x04\n      tag_51\n      jump\t// in\n    tag_103:\n      tag_104\n      jump\t// in\n        /* \"contracts/PreSale_flattened.sol\":20724:20825  function renounceOwnership() public virtual onlyOwner {... */\n    tag_18:\n      callvalue\n      dup1\n      iszero\n      tag_105\n      jumpi\n      0x00\n      dup1\n      revert\n    tag_105:\n      pop\n      tag_38\n      tag_107\n      jump\t// in\n        /* \"contracts/PreSale_flattened.sol\":29883:29925  mapping(address => bool) public hasClaimed */\n    tag_19:\n      callvalue\n      dup1\n      iszero\n      tag_108\n      jumpi\n      0x00\n      dup1\n      revert\n    tag_108:\n      pop\n      tag_41\n      tag_110\n      calldatasize\n      0x04\n      tag_51\n      jump\t// in\n    tag_110:\n      mstore(0x20, 0x2e)\n      0x00\n      swap1\n      dup2\n      mstore\n      0x40\n      swap1\n      keccak256\n      sload\n      0xff\n      and\n      dup2\n      jump\n        /* \"contracts/PreSale_flattened.sol\":36752:36922  function updateTreasuryAddress(address newAddress) external onlyOwner {... */\n    tag_20:\n      callvalue\n      dup1\n      iszero\n      tag_113\n      jumpi\n      0x00\n      dup1\n      revert\n    tag_113:\n      pop\n      tag_38\n      tag_115\n      calldatasize\n      0x04\n      tag_51\n      jump\t// in\n    tag_115:\n      tag_116\n      jump\t// in\n        /* \"contracts/PreSale_flattened.sol\":29687:29717  Stage[MAX_STAGE] public stages */\n    tag_21:\n      callvalue\n      dup1\n      iszero\n      tag_117\n      jumpi\n      0x00\n      dup1\n      revert\n    tag_117:\n      pop\n      tag_118\n      tag_119\n      calldatasize\n      0x04\n      tag_120\n      jump\t// in\n    tag_119:\n      tag_121\n      jump\t// in\n    tag_118:\n      0x40\n      dup1\n      mload\n        /* \"#utility.yul\":4152:4177   */\n      swap5\n      dup6\n      mstore\n        /* \"#utility.yul\":4208:4210   */\n      0x20\n        /* \"#utility.yul\":4193:4211   */\n      dup6\n      add\n        /* \"#utility.yul\":4186:4220   */\n      swap4\n      swap1\n      swap4\n      mstore\n        /* \"#utility.yul\":4236:4254   */\n      swap2\n      dup4\n      add\n        /* \"#utility.yul\":4229:4263   */\n      mstore\n        /* \"#utility.yul\":4294:4296   */\n      0x60\n        /* \"#utility.yul\":4279:4297   */\n      dup3\n      add\n        /* \"#utility.yul\":4272:4306   */\n      mstore\n        /* \"#utility.yul\":4139:4142   */\n      0x80\n        /* \"#utility.yul\":4124:4143   */\n      add\n        /* \"contracts/PreSale_flattened.sol\":29687:29717  Stage[MAX_STAGE] public stages */\n      tag_43\n        /* \"#utility.yul\":3921:4312   */\n      jump\n        /* \"contracts/PreSale_flattened.sol\":20069:20154  function owner() public view virtual returns (address) {... */\n    tag_22:\n      callvalue\n      dup1\n      iszero\n      tag_124\n      jumpi\n      0x00\n      dup1\n      revert\n    tag_124:\n      pop\n        /* \"contracts/PreSale_flattened.sol\":20115:20122  address */\n      0x00\n        /* \"contracts/PreSale_flattened.sol\":20141:20147  _owner */\n      sload\n      sub(shl(0xa0, 0x01), 0x01)\n      and\n        /* \"contracts/PreSale_flattened.sol\":20069:20154  function owner() public view virtual returns (address) {... */\n      jump(tag_56)\n        /* \"contracts/PreSale_flattened.sol\":36928:37135  function updatePresaleWallet(... */\n    tag_23:\n      callvalue\n      dup1\n      iszero\n      tag_128\n      jumpi\n      0x00\n      dup1\n      revert\n    tag_128:\n      pop\n      tag_38\n      tag_130\n      calldatasize\n      0x04\n      tag_51\n      jump\t// in\n    tag_130:\n      tag_132\n      jump\t// in\n        /* \"contracts/PreSale_flattened.sol\":34848:35371  function calculateGEPS(... */\n    tag_24:\n      callvalue\n      dup1\n      iszero\n      tag_133\n      jumpi\n      0x00\n      dup1\n      revert\n    tag_133:\n      pop\n      tag_49\n      tag_135\n      calldatasize\n      0x04\n      tag_99\n      jump\t// in\n    tag_135:\n      tag_136\n      jump\t// in\n        /* \"contracts/PreSale_flattened.sol\":29756:29787  uint256 public presaleStartTime */\n    tag_25:\n      callvalue\n      dup1\n      iszero\n      tag_138\n      jumpi\n      0x00\n      dup1\n      revert\n    tag_138:\n      pop\n      tag_49\n      sload(0x2b)\n      dup2\n      jump\n        /* \"contracts/PreSale_flattened.sol\":29440:29484  uint256 public constant CLAIM_DELAY = 2 days */\n    tag_26:\n      callvalue\n      dup1\n      iszero\n      tag_142\n      jumpi\n      0x00\n      dup1\n      revert\n    tag_142:\n      pop\n      tag_49\n        /* \"contracts/PreSale_flattened.sol\":29478:29484  2 days */\n      0x02a300\n        /* \"contracts/PreSale_flattened.sol\":29440:29484  uint256 public constant CLAIM_DELAY = 2 days */\n      dup2\n      jump\n        /* \"contracts/PreSale_flattened.sol\":37141:37236  function getCurrentStage() external view returns (uint256) {... */\n    tag_27:\n      callvalue\n      dup1\n      iszero\n      tag_146\n      jumpi\n      0x00\n      dup1\n      revert\n    tag_146:\n      pop\n        /* \"contracts/PreSale_flattened.sol\":37217:37229  currentStage */\n      sload(0x2a)\n        /* \"contracts/PreSale_flattened.sol\":37141:37236  function getCurrentStage() external view returns (uint256) {... */\n      jump(tag_49)\n        /* \"contracts/PreSale_flattened.sol\":20974:21189  function transferOwnership(address newOwner) public virtual onlyOwner {... */\n    tag_28:\n      callvalue\n      dup1\n      iszero\n      tag_150\n      jumpi\n      0x00\n      dup1\n      revert\n    tag_150:\n      pop\n      tag_38\n      tag_152\n      calldatasize\n      0x04\n      tag_51\n      jump\t// in\n    tag_152:\n      tag_153\n      jump\t// in\n        /* \"contracts/PreSale_flattened.sol\":29931:29977  mapping(string => address) public tokenOracles */\n    tag_29:\n      callvalue\n      dup1\n      iszero\n      tag_154\n      jumpi\n      0x00\n      dup1\n      revert\n    tag_154:\n      pop\n      tag_56\n      tag_156\n      calldatasize\n      0x04\n      tag_157\n      jump\t// in\n    tag_156:\n      dup1\n      mload\n      0x20\n      dup2\n      dup4\n      add\n      dup2\n      add\n      dup1\n      mload\n      0x2f\n      dup3\n      mstore\n      swap3\n      dup3\n      add\n      swap2\n      swap1\n      swap4\n      add\n      keccak256\n      swap2\n      mstore\n      sload\n      sub(shl(0xa0, 0x01), 0x01)\n      and\n      dup2\n      jump\n        /* \"contracts/PreSale_flattened.sol\":32199:32548  function startPresale() external onlyOwner {... */\n    tag_39:\n        /* \"contracts/PreSale_flattened.sol\":19962:19975  _checkOwner() */\n      tag_161\n        /* \"contracts/PreSale_flattened.sol\":19962:19973  _checkOwner */\n      tag_162\n        /* \"contracts/PreSale_flattened.sol\":19962:19975  _checkOwner() */\n      jump\t// in\n    tag_161:\n        /* \"contracts/PreSale_flattened.sol\":32260:32276  presaleStartTime */\n      sload(0x2b)\n        /* \"contracts/PreSale_flattened.sol\":32260:32281  presaleStartTime == 0 */\n      iszero\n        /* \"contracts/PreSale_flattened.sol\":32252:32309  require(presaleStartTime == 0, \"Presale already started\") */\n      tag_164\n      jumpi\n      mload(0x40)\n      shl(0xe5, 0x461bcd)\n      dup2\n      mstore\n        /* \"#utility.yul\":5106:5108   */\n      0x20\n        /* \"contracts/PreSale_flattened.sol\":32252:32309  require(presaleStartTime == 0, \"Presale already started\") */\n      0x04\n      dup3\n      add\n        /* \"#utility.yul\":5088:5109   */\n      mstore\n        /* \"#utility.yul\":5145:5147   */\n      0x17\n        /* \"#utility.yul\":5125:5143   */\n      0x24\n      dup3\n      add\n        /* \"#utility.yul\":5118:5148   */\n      mstore\n        /* \"#utility.yul\":5184:5209   */\n      0x50726573616c6520616c72656164792073746172746564000000000000000000\n        /* \"#utility.yul\":5164:5182   */\n      0x44\n      dup3\n      add\n        /* \"#utility.yul\":5157:5210   */\n      mstore\n        /* \"#utility.yul\":5227:5245   */\n      0x64\n      add\n        /* \"contracts/PreSale_flattened.sol\":32252:32309  require(presaleStartTime == 0, \"Presale already started\") */\n    tag_165:\n      mload(0x40)\n      dup1\n      swap2\n      sub\n      swap1\n      revert\n    tag_164:\n        /* \"contracts/PreSale_flattened.sol\":32338:32353  block.timestamp */\n      timestamp\n        /* \"contracts/PreSale_flattened.sol\":32319:32335  presaleStartTime */\n      0x2b\n        /* \"contracts/PreSale_flattened.sol\":32319:32353  presaleStartTime = block.timestamp */\n      dup2\n      swap1\n      sstore\n        /* \"contracts/PreSale_flattened.sol\":32378:32379  0 */\n      0x00\n        /* \"contracts/PreSale_flattened.sol\":32363:32375  currentStage */\n      0x2a\n        /* \"contracts/PreSale_flattened.sol\":32363:32379  currentStage = 0 */\n      sstore\n        /* \"contracts/PreSale_flattened.sol\":32389:32419  stages[currentStage].startTime */\n      0x08\n        /* \"contracts/PreSale_flattened.sol\":32389:32437  stages[currentStage].startTime = block.timestamp */\n      dup2\n      swap1\n      sstore\n        /* \"contracts/PreSale_flattened.sol\":32478:32510  block.timestamp + STAGE_DURATION */\n      tag_171\n      swap1\n        /* \"contracts/PreSale_flattened.sol\":29427:29434  40 days */\n      0x34bc00\n      swap1\n        /* \"contracts/PreSale_flattened.sol\":32478:32510  block.timestamp + STAGE_DURATION */\n      tag_172\n      jump\t// in\n    tag_171:\n        /* \"contracts/PreSale_flattened.sol\":32447:32453  stages */\n      0x06\n        /* \"contracts/PreSale_flattened.sol\":32454:32466  currentStage */\n      sload(0x2a)\n        /* \"contracts/PreSale_flattened.sol\":32447:32467  stages[currentStage] */\n      0x09\n      dup2\n      lt\n      tag_174\n      jumpi\n      tag_174\n      tag_169\n      jump\t// in\n    tag_174:\n      0x04\n      mul\n      add\n        /* \"contracts/PreSale_flattened.sol\":32447:32475  stages[currentStage].endTime */\n      0x03\n      add\n        /* \"contracts/PreSale_flattened.sol\":32447:32510  stages[currentStage].endTime = block.timestamp + STAGE_DURATION */\n      dup2\n      swap1\n      sstore\n      pop\n        /* \"contracts/PreSale_flattened.sol\":32525:32541  PresaleStarted() */\n      0x17c3338141363aab2512c08f8a7764328ca95979f7057663eb93f7e250139b4c\n      mload(0x40)\n      mload(0x40)\n      dup1\n      swap2\n      sub\n      swap1\n      log1\n        /* \"contracts/PreSale_flattened.sol\":32199:32548  function startPresale() external onlyOwner {... */\n      jump\t// out\n        /* \"contracts/PreSale_flattened.sol\":36148:36441  function transferUnsoldGEPSsToTreasury()... */\n    tag_47:\n        /* \"contracts/PreSale_flattened.sol\":19962:19975  _checkOwner() */\n      tag_177\n        /* \"contracts/PreSale_flattened.sol\":19962:19973  _checkOwner */\n      tag_162\n        /* \"contracts/PreSale_flattened.sol\":19962:19975  _checkOwner() */\n      jump\t// in\n    tag_177:\n        /* \"contracts/PreSale_flattened.sol\":30546:30560  presaleEndTime */\n      sload(0x2c)\n        /* \"contracts/PreSale_flattened.sol\":30528:30543  block.timestamp */\n      timestamp\n        /* \"contracts/PreSale_flattened.sol\":30528:30560  block.timestamp > presaleEndTime */\n      gt\n        /* \"contracts/PreSale_flattened.sol\":30520:30588  require(block.timestamp > presaleEndTime, \"Presale is still active\") */\n      tag_179\n      jumpi\n      mload(0x40)\n      shl(0xe5, 0x461bcd)\n      dup2\n      mstore\n        /* \"#utility.yul\":5852:5854   */\n      0x20\n        /* \"contracts/PreSale_flattened.sol\":30520:30588  require(block.timestamp > presaleEndTime, \"Presale is still active\") */\n      0x04\n      dup3\n      add\n        /* \"#utility.yul\":5834:5855   */\n      mstore\n        /* \"#utility.yul\":5891:5893   */\n      0x17\n        /* \"#utility.yul\":5871:5889   */\n      0x24\n      dup3\n      add\n        /* \"#utility.yul\":5864:5894   */\n      mstore\n      shl(0x48, 0x50726573616c65206973207374696c6c20616374697665)\n        /* \"#utility.yul\":5910:5928   */\n      0x44\n      dup3\n      add\n        /* \"#utility.yul\":5903:5956   */\n      mstore\n        /* \"#utility.yul\":5973:5991   */\n      0x64\n      add\n        /* \"contracts/PreSale_flattened.sol\":30520:30588  require(block.timestamp > presaleEndTime, \"Presale is still active\") */\n      tag_165\n        /* \"#utility.yul\":5650:5997   */\n      jump\n        /* \"contracts/PreSale_flattened.sol\":30520:30588  require(block.timestamp > presaleEndTime, \"Presale is still active\") */\n    tag_179:\n        /* \"contracts/PreSale_flattened.sol\":36263:36282  uint256 unsoldGEPSs */\n      0x00\n        /* \"contracts/PreSale_flattened.sol\":36285:36301  getUnsoldGEPSs() */\n      tag_183\n        /* \"contracts/PreSale_flattened.sol\":36285:36299  getUnsoldGEPSs */\n      tag_81\n        /* \"contracts/PreSale_flattened.sol\":36285:36301  getUnsoldGEPSs() */\n      jump\t// in\n    tag_183:\n        /* \"contracts/PreSale_flattened.sol\":36263:36301  uint256 unsoldGEPSs = getUnsoldGEPSs() */\n      swap1\n      pop\n        /* \"contracts/PreSale_flattened.sol\":36315:36330  unsoldGEPSs > 0 */\n      dup1\n      iszero\n        /* \"contracts/PreSale_flattened.sol\":36311:36435  if (unsoldGEPSs > 0) {... */\n      tag_184\n      jumpi\n        /* \"contracts/PreSale_flattened.sol\":36346:36350  GEPS */\n      sload(0x02)\n        /* \"contracts/PreSale_flattened.sol\":36360:36368  treasury */\n      0x04\n      dup1\n      sload\n        /* \"contracts/PreSale_flattened.sol\":36346:36382  GEPS.transfer(treasury, unsoldGEPSs) */\n      mload(0x40)\n      shl(0xe0, 0xa9059cbb)\n      dup2\n      mstore\n      sub(shl(0xa0, 0x01), 0x01)\n        /* \"contracts/PreSale_flattened.sol\":36360:36368  treasury */\n      swap2\n      dup3\n      and\n        /* \"contracts/PreSale_flattened.sol\":36346:36382  GEPS.transfer(treasury, unsoldGEPSs) */\n      swap3\n      dup2\n      add\n        /* \"#utility.yul\":6176:6227   */\n      swap3\n      swap1\n      swap3\n      mstore\n        /* \"#utility.yul\":6243:6261   */\n      0x24\n      dup3\n      add\n        /* \"#utility.yul\":6236:6270   */\n      dup5\n      swap1\n      mstore\n        /* \"contracts/PreSale_flattened.sol\":36346:36350  GEPS */\n      swap1\n      swap2\n      and\n      swap1\n        /* \"contracts/PreSale_flattened.sol\":36346:36359  GEPS.transfer */\n      0xa9059cbb\n      swap1\n        /* \"#utility.yul\":6149:6167   */\n      0x44\n      add\n        /* \"contracts/PreSale_flattened.sol\":36346:36382  GEPS.transfer(treasury, unsoldGEPSs) */\n      0x20\n      mload(0x40)\n      dup1\n      dup4\n      sub\n      dup2\n      0x00\n      dup8\n      gas\n      call\n      iszero\n      dup1\n      iszero\n      tag_188\n      jumpi\n      returndatasize\n      0x00\n      dup1\n      returndatacopy\n      revert(0x00, returndatasize)\n    tag_188:\n      pop\n      pop\n      pop\n      pop\n      mload(0x40)\n      returndatasize\n      not(0x1f)\n      0x1f\n      dup3\n      add\n      and\n      dup3\n      add\n      dup1\n      0x40\n      mstore\n      pop\n      dup2\n      add\n      swap1\n      tag_189\n      swap2\n      swap1\n      tag_190\n      jump\t// in\n    tag_189:\n      pop\n        /* \"contracts/PreSale_flattened.sol\":36396:36417  unsoldGEPSTransferred */\n      0x05\n        /* \"contracts/PreSale_flattened.sol\":36396:36424  unsoldGEPSTransferred = true */\n      dup1\n      sload\n      not(shl(0xa0, 0xff))\n      and\n      shl(0xa0, 0x01)\n      or\n      swap1\n      sstore\n        /* \"contracts/PreSale_flattened.sol\":36311:36435  if (unsoldGEPSs > 0) {... */\n    tag_184:\n        /* \"contracts/PreSale_flattened.sol\":36253:36441  {... */\n      pop\n        /* \"contracts/PreSale_flattened.sol\":36148:36441  function transferUnsoldGEPSsToTreasury()... */\n      jump\t// out\n        /* \"contracts/PreSale_flattened.sol\":35644:36142  function claimGEPSs() external onlyAfterPresale nonReentrant {... */\n    tag_74:\n        /* \"contracts/PreSale_flattened.sol\":30546:30560  presaleEndTime */\n      sload(0x2c)\n        /* \"contracts/PreSale_flattened.sol\":30528:30543  block.timestamp */\n      timestamp\n        /* \"contracts/PreSale_flattened.sol\":30528:30560  block.timestamp > presaleEndTime */\n      gt\n        /* \"contracts/PreSale_flattened.sol\":30520:30588  require(block.timestamp > presaleEndTime, \"Presale is still active\") */\n      tag_192\n      jumpi\n      mload(0x40)\n      shl(0xe5, 0x461bcd)\n      dup2\n      mstore\n        /* \"#utility.yul\":5852:5854   */\n      0x20\n        /* \"contracts/PreSale_flattened.sol\":30520:30588  require(block.timestamp > presaleEndTime, \"Presale is still active\") */\n      0x04\n      dup3\n      add\n        /* \"#utility.yul\":5834:5855   */\n      mstore\n        /* \"#utility.yul\":5891:5893   */\n      0x17\n        /* \"#utility.yul\":5871:5889   */\n      0x24\n      dup3\n      add\n        /* \"#utility.yul\":5864:5894   */\n      mstore\n      shl(0x48, 0x50726573616c65206973207374696c6c20616374697665)\n        /* \"#utility.yul\":5910:5928   */\n      0x44\n      dup3\n      add\n        /* \"#utility.yul\":5903:5956   */\n      mstore\n        /* \"#utility.yul\":5973:5991   */\n      0x64\n      add\n        /* \"contracts/PreSale_flattened.sol\":30520:30588  require(block.timestamp > presaleEndTime, \"Presale is still active\") */\n      tag_165\n        /* \"#utility.yul\":5650:5997   */\n      jump\n        /* \"contracts/PreSale_flattened.sol\":30520:30588  require(block.timestamp > presaleEndTime, \"Presale is still active\") */\n    tag_192:\n        /* \"contracts/PreSale_flattened.sol\":28597:28598  2 */\n      0x02\n        /* \"contracts/PreSale_flattened.sol\":28807:28814  _status */\n      sload(0x01)\n        /* \"contracts/PreSale_flattened.sol\":28807:28826  _status != _ENTERED */\n      sub\n        /* \"contracts/PreSale_flattened.sol\":28799:28862  require(_status != _ENTERED, \"ReentrancyGuard: reentrant call\") */\n      tag_195\n      jumpi\n      mload(0x40)\n      shl(0xe5, 0x461bcd)\n      dup2\n      mstore\n        /* \"#utility.yul\":6765:6767   */\n      0x20\n        /* \"contracts/PreSale_flattened.sol\":28799:28862  require(_status != _ENTERED, \"ReentrancyGuard: reentrant call\") */\n      0x04\n      dup3\n      add\n        /* \"#utility.yul\":6747:6768   */\n      mstore\n        /* \"#utility.yul\":6804:6806   */\n      0x1f\n        /* \"#utility.yul\":6784:6802   */\n      0x24\n      dup3\n      add\n        /* \"#utility.yul\":6777:6807   */\n      mstore\n        /* \"#utility.yul\":6843:6876   */\n      0x5265656e7472616e637947756172643a207265656e7472616e742063616c6c00\n        /* \"#utility.yul\":6823:6841   */\n      0x44\n      dup3\n      add\n        /* \"#utility.yul\":6816:6877   */\n      mstore\n        /* \"#utility.yul\":6894:6912   */\n      0x64\n      add\n        /* \"contracts/PreSale_flattened.sol\":28799:28862  require(_status != _ENTERED, \"ReentrancyGuard: reentrant call\") */\n      tag_165\n        /* \"#utility.yul\":6563:6918   */\n      jump\n        /* \"contracts/PreSale_flattened.sol\":28799:28862  require(_status != _ENTERED, \"ReentrancyGuard: reentrant call\") */\n    tag_195:\n        /* \"contracts/PreSale_flattened.sol\":28597:28598  2 */\n      0x02\n        /* \"contracts/PreSale_flattened.sol\":28937:28944  _status */\n      0x01\n        /* \"contracts/PreSale_flattened.sol\":28937:28955  _status = _ENTERED */\n      sstore\n        /* \"contracts/PreSale_flattened.sol\":35754:35771  stages[8].endTime */\n      sload(0x29)\n        /* \"contracts/PreSale_flattened.sol\":35754:35785  stages[8].endTime + CLAIM_DELAY */\n      tag_202\n      swap1\n        /* \"contracts/PreSale_flattened.sol\":29478:29484  2 days */\n      0x02a300\n      swap1\n        /* \"contracts/PreSale_flattened.sol\":35754:35785  stages[8].endTime + CLAIM_DELAY */\n      tag_172\n      jump\t// in\n    tag_202:\n        /* \"contracts/PreSale_flattened.sol\":35736:35751  block.timestamp */\n      timestamp\n        /* \"contracts/PreSale_flattened.sol\":35736:35785  block.timestamp > stages[8].endTime + CLAIM_DELAY */\n      gt\n        /* \"contracts/PreSale_flattened.sol\":35715:35835  require(... */\n      tag_203\n      jumpi\n      mload(0x40)\n      shl(0xe5, 0x461bcd)\n      dup2\n      mstore\n        /* \"#utility.yul\":7125:7127   */\n      0x20\n        /* \"contracts/PreSale_flattened.sol\":35715:35835  require(... */\n      0x04\n      dup3\n      add\n        /* \"#utility.yul\":7107:7128   */\n      mstore\n        /* \"#utility.yul\":7164:7166   */\n      0x18\n        /* \"#utility.yul\":7144:7162   */\n      0x24\n      dup3\n      add\n        /* \"#utility.yul\":7137:7167   */\n      mstore\n        /* \"#utility.yul\":7203:7229   */\n      0x436c61696d20706572696f64206e6f7420737461727465640000000000000000\n        /* \"#utility.yul\":7183:7201   */\n      0x44\n      dup3\n      add\n        /* \"#utility.yul\":7176:7230   */\n      mstore\n        /* \"#utility.yul\":7247:7265   */\n      0x64\n      add\n        /* \"contracts/PreSale_flattened.sol\":35715:35835  require(... */\n      tag_165\n        /* \"#utility.yul\":6923:7271   */\n      jump\n        /* \"contracts/PreSale_flattened.sol\":35715:35835  require(... */\n    tag_203:\n        /* \"contracts/PreSale_flattened.sol\":35865:35875  msg.sender */\n      caller\n        /* \"contracts/PreSale_flattened.sol\":35854:35876  hasClaimed[msg.sender] */\n      0x00\n      swap1\n      dup2\n      mstore\n        /* \"contracts/PreSale_flattened.sol\":35854:35864  hasClaimed */\n      0x2e\n        /* \"contracts/PreSale_flattened.sol\":35854:35876  hasClaimed[msg.sender] */\n      0x20\n      mstore\n      0x40\n      swap1\n      keccak256\n      sload\n      0xff\n      and\n        /* \"contracts/PreSale_flattened.sol\":35853:35876  !hasClaimed[msg.sender] */\n      iszero\n        /* \"contracts/PreSale_flattened.sol\":35845:35902  require(!hasClaimed[msg.sender], \"GEPSs already claimed\") */\n      tag_206\n      jumpi\n      mload(0x40)\n      shl(0xe5, 0x461bcd)\n      dup2\n      mstore\n        /* \"#utility.yul\":7478:7480   */\n      0x20\n        /* \"contracts/PreSale_flattened.sol\":35845:35902  require(!hasClaimed[msg.sender], \"GEPSs already claimed\") */\n      0x04\n      dup3\n      add\n        /* \"#utility.yul\":7460:7481   */\n      mstore\n        /* \"#utility.yul\":7517:7519   */\n      0x15\n        /* \"#utility.yul\":7497:7515   */\n      0x24\n      dup3\n      add\n        /* \"#utility.yul\":7490:7520   */\n      mstore\n      shl(0x5a, 0x11d15414dcc8185b1c9958591e4818db185a5b5959)\n        /* \"#utility.yul\":7536:7554   */\n      0x44\n      dup3\n      add\n        /* \"#utility.yul\":7529:7580   */\n      mstore\n        /* \"#utility.yul\":7597:7615   */\n      0x64\n      add\n        /* \"contracts/PreSale_flattened.sol\":35845:35902  require(!hasClaimed[msg.sender], \"GEPSs already claimed\") */\n      tag_165\n        /* \"#utility.yul\":7276:7621   */\n      jump\n        /* \"contracts/PreSale_flattened.sol\":35845:35902  require(!hasClaimed[msg.sender], \"GEPSs already claimed\") */\n    tag_206:\n        /* \"contracts/PreSale_flattened.sol\":35944:35954  msg.sender */\n      caller\n        /* \"contracts/PreSale_flattened.sol\":35912:35926  uint256 amount */\n      0x00\n        /* \"contracts/PreSale_flattened.sol\":35929:35955  purchasedGEPSs[msg.sender] */\n      swap1\n      dup2\n      mstore\n        /* \"contracts/PreSale_flattened.sol\":35929:35943  purchasedGEPSs */\n      0x2d\n        /* \"contracts/PreSale_flattened.sol\":35929:35955  purchasedGEPSs[msg.sender] */\n      0x20\n      mstore\n      0x40\n      swap1\n      keccak256\n      sload\n        /* \"contracts/PreSale_flattened.sol\":35973:35983  amount > 0 */\n      dup1\n        /* \"contracts/PreSale_flattened.sol\":35965:36005  require(amount > 0, \"No GEPSs to claim\") */\n      tag_209\n      jumpi\n      mload(0x40)\n      shl(0xe5, 0x461bcd)\n      dup2\n      mstore\n        /* \"#utility.yul\":7828:7830   */\n      0x20\n        /* \"contracts/PreSale_flattened.sol\":35965:36005  require(amount > 0, \"No GEPSs to claim\") */\n      0x04\n      dup3\n      add\n        /* \"#utility.yul\":7810:7831   */\n      mstore\n        /* \"#utility.yul\":7867:7869   */\n      0x11\n        /* \"#utility.yul\":7847:7865   */\n      0x24\n      dup3\n      add\n        /* \"#utility.yul\":7840:7870   */\n      mstore\n      shl(0x78, 0x4e6f20474550537320746f20636c61696d)\n        /* \"#utility.yul\":7886:7904   */\n      0x44\n      dup3\n      add\n        /* \"#utility.yul\":7879:7926   */\n      mstore\n        /* \"#utility.yul\":7943:7961   */\n      0x64\n      add\n        /* \"contracts/PreSale_flattened.sol\":35965:36005  require(amount > 0, \"No GEPSs to claim\") */\n      tag_165\n        /* \"#utility.yul\":7626:7967   */\n      jump\n        /* \"contracts/PreSale_flattened.sol\":35965:36005  require(amount > 0, \"No GEPSs to claim\") */\n    tag_209:\n        /* \"contracts/PreSale_flattened.sol\":36027:36037  msg.sender */\n      caller\n        /* \"contracts/PreSale_flattened.sol\":36016:36038  hasClaimed[msg.sender] */\n      0x00\n      dup2\n      dup2\n      mstore\n        /* \"contracts/PreSale_flattened.sol\":36016:36026  hasClaimed */\n      0x2e\n        /* \"contracts/PreSale_flattened.sol\":36016:36038  hasClaimed[msg.sender] */\n      0x20\n      mstore\n      0x40\n      swap1\n      dup2\n      swap1\n      keccak256\n        /* \"contracts/PreSale_flattened.sol\":36016:36045  hasClaimed[msg.sender] = true */\n      dup1\n      sload\n      not(0xff)\n      and\n        /* \"contracts/PreSale_flattened.sol\":36041:36045  true */\n      0x01\n        /* \"contracts/PreSale_flattened.sol\":36016:36045  hasClaimed[msg.sender] = true */\n      or\n      swap1\n      sstore\n        /* \"contracts/PreSale_flattened.sol\":36055:36059  GEPS */\n      sload(0x02)\n        /* \"contracts/PreSale_flattened.sol\":36055:36088  GEPS.transfer(msg.sender, amount) */\n      swap1\n      mload\n      shl(0xe0, 0xa9059cbb)\n      dup2\n      mstore\n      0x04\n      dup2\n      add\n        /* \"#utility.yul\":6176:6227   */\n      swap3\n      swap1\n      swap3\n      mstore\n        /* \"#utility.yul\":6243:6261   */\n      0x24\n      dup3\n      add\n        /* \"#utility.yul\":6236:6270   */\n      dup4\n      swap1\n      mstore\n      sub(shl(0xa0, 0x01), 0x01)\n        /* \"contracts/PreSale_flattened.sol\":36055:36059  GEPS */\n      and\n      swap1\n        /* \"contracts/PreSale_flattened.sol\":36055:36068  GEPS.transfer */\n      0xa9059cbb\n      swap1\n        /* \"#utility.yul\":6149:6167   */\n      0x44\n      add\n        /* \"contracts/PreSale_flattened.sol\":36055:36088  GEPS.transfer(msg.sender, amount) */\n      0x20\n      mload(0x40)\n      dup1\n      dup4\n      sub\n      dup2\n      0x00\n      dup8\n      gas\n      call\n      iszero\n      dup1\n      iszero\n      tag_214\n      jumpi\n      returndatasize\n      0x00\n      dup1\n      returndatacopy\n      revert(0x00, returndatasize)\n    tag_214:\n      pop\n      pop\n      pop\n      pop\n      mload(0x40)\n      returndatasize\n      not(0x1f)\n      0x1f\n      dup3\n      add\n      and\n      dup3\n      add\n      dup1\n      0x40\n      mstore\n      pop\n      dup2\n      add\n      swap1\n      tag_215\n      swap2\n      swap1\n      tag_190\n      jump\t// in\n    tag_215:\n      pop\n        /* \"contracts/PreSale_flattened.sol\":36103:36135  GEPSsClaimed(msg.sender, amount) */\n      mload(0x40)\n        /* \"#utility.yul\":740:765   */\n      dup2\n      dup2\n      mstore\n        /* \"contracts/PreSale_flattened.sol\":36116:36126  msg.sender */\n      caller\n      swap1\n        /* \"contracts/PreSale_flattened.sol\":36103:36135  GEPSsClaimed(msg.sender, amount) */\n      0x7a99cb7540e04f139e8bec2b914b561065e30819c986d0594db010eb76e23a2e\n      swap1\n        /* \"#utility.yul\":728:730   */\n      0x20\n        /* \"#utility.yul\":713:731   */\n      add\n        /* \"contracts/PreSale_flattened.sol\":36103:36135  GEPSsClaimed(msg.sender, amount) */\n      mload(0x40)\n      dup1\n      swap2\n      sub\n      swap1\n      log2\n      pop\n        /* \"contracts/PreSale_flattened.sol\":28554:28555  1 */\n      0x01\n        /* \"contracts/PreSale_flattened.sol\":29110:29132  _status = _NOT_ENTERED */\n      dup1\n      sstore\n        /* \"contracts/PreSale_flattened.sol\":35644:36142  function claimGEPSs() external onlyAfterPresale nonReentrant {... */\n      jump\t// out\n        /* \"contracts/PreSale_flattened.sol\":36447:36746  function getUnsoldGEPSs() public view returns (uint256) {... */\n    tag_81:\n        /* \"contracts/PreSale_flattened.sol\":36550:36571  unsoldGEPSTransferred */\n      sload(0x05)\n        /* \"contracts/PreSale_flattened.sol\":36494:36501  uint256 */\n      0x00\n      swap1\n      dup2\n      swap1\n      shl(0xa0, 0x01)\n        /* \"contracts/PreSale_flattened.sol\":36550:36571  unsoldGEPSTransferred */\n      swap1\n      div\n      0xff\n      and\n        /* \"contracts/PreSale_flattened.sol\":36546:36712  if(!unsoldGEPSTransferred){... */\n      tag_218\n      jumpi\n        /* \"contracts/PreSale_flattened.sol\":36587:36596  uint256 i */\n      0x00\n        /* \"contracts/PreSale_flattened.sol\":36582:36702  for (uint256 i = 0; i < MAX_STAGE; i++) {... */\n    tag_219:\n        /* \"contracts/PreSale_flattened.sol\":29379:29380  9 */\n      0x09\n        /* \"contracts/PreSale_flattened.sol\":36602:36603  i */\n      dup2\n        /* \"contracts/PreSale_flattened.sol\":36602:36615  i < MAX_STAGE */\n      lt\n        /* \"contracts/PreSale_flattened.sol\":36582:36702  for (uint256 i = 0; i < MAX_STAGE; i++) {... */\n      iszero\n      tag_220\n      jumpi\n        /* \"contracts/PreSale_flattened.sol\":36650:36691  unsoldGEPSs.add(stages[i].GEPSsAvailable) */\n      tag_222\n        /* \"contracts/PreSale_flattened.sol\":36666:36672  stages */\n      0x06\n        /* \"contracts/PreSale_flattened.sol\":36673:36674  i */\n      dup3\n        /* \"contracts/PreSale_flattened.sol\":36666:36675  stages[i] */\n      0x09\n      dup2\n      lt\n      tag_224\n      jumpi\n      tag_224\n      tag_169\n      jump\t// in\n    tag_224:\n      0x04\n      mul\n      add\n        /* \"contracts/PreSale_flattened.sol\":36666:36690  stages[i].GEPSsAvailable */\n      0x01\n      add\n      sload\n        /* \"contracts/PreSale_flattened.sol\":36650:36661  unsoldGEPSs */\n      dup4\n        /* \"contracts/PreSale_flattened.sol\":36650:36665  unsoldGEPSs.add */\n      tag_226\n      swap1\n        /* \"contracts/PreSale_flattened.sol\":36650:36691  unsoldGEPSs.add(stages[i].GEPSsAvailable) */\n      swap2\n      swap1\n      0xffffffff\n      and\n      jump\t// in\n    tag_222:\n        /* \"contracts/PreSale_flattened.sol\":36636:36691  unsoldGEPSs = unsoldGEPSs.add(stages[i].GEPSsAvailable) */\n      swap2\n      pop\n        /* \"contracts/PreSale_flattened.sol\":36617:36620  i++ */\n      0x01\n      add\n        /* \"contracts/PreSale_flattened.sol\":36582:36702  for (uint256 i = 0; i < MAX_STAGE; i++) {... */\n      jump(tag_219)\n    tag_220:\n      pop\n        /* \"contracts/PreSale_flattened.sol\":36546:36712  if(!unsoldGEPSTransferred){... */\n    tag_218:\n        /* \"contracts/PreSale_flattened.sol\":36728:36739  unsoldGEPSs */\n      swap2\n        /* \"contracts/PreSale_flattened.sol\":36447:36746  function getUnsoldGEPSs() public view returns (uint256) {... */\n      swap1\n      pop\n      jump\t// out\n        /* \"contracts/PreSale_flattened.sol\":34502:34842  function initialiseTokens(... */\n    tag_87:\n        /* \"contracts/PreSale_flattened.sol\":19962:19975  _checkOwner() */\n      tag_228\n        /* \"contracts/PreSale_flattened.sol\":19962:19973  _checkOwner */\n      tag_162\n        /* \"contracts/PreSale_flattened.sol\":19962:19975  _checkOwner() */\n      jump\t// in\n    tag_228:\n        /* \"contracts/PreSale_flattened.sol\":34652:34694  _tokenName.length == _oracleAddress.length */\n      dup3\n      dup2\n      eq\n        /* \"contracts/PreSale_flattened.sol\":34644:34706  require(_tokenName.length == _oracleAddress.length, \"PFCR:01\") */\n      tag_230\n      jumpi\n      mload(0x40)\n      shl(0xe5, 0x461bcd)\n      dup2\n      mstore\n        /* \"#utility.yul\":8174:8176   */\n      0x20\n        /* \"contracts/PreSale_flattened.sol\":34644:34706  require(_tokenName.length == _oracleAddress.length, \"PFCR:01\") */\n      0x04\n      dup3\n      add\n        /* \"#utility.yul\":8156:8177   */\n      mstore\n        /* \"#utility.yul\":8213:8214   */\n      0x07\n        /* \"#utility.yul\":8193:8211   */\n      0x24\n      dup3\n      add\n        /* \"#utility.yul\":8186:8215   */\n      mstore\n      shl(0xc8, 0x504643523a3031)\n        /* \"#utility.yul\":8231:8249   */\n      0x44\n      dup3\n      add\n        /* \"#utility.yul\":8224:8261   */\n      mstore\n        /* \"#utility.yul\":8278:8296   */\n      0x64\n      add\n        /* \"contracts/PreSale_flattened.sol\":34644:34706  require(_tokenName.length == _oracleAddress.length, \"PFCR:01\") */\n      tag_165\n        /* \"#utility.yul\":7972:8302   */\n      jump\n        /* \"contracts/PreSale_flattened.sol\":34644:34706  require(_tokenName.length == _oracleAddress.length, \"PFCR:01\") */\n    tag_230:\n        /* \"contracts/PreSale_flattened.sol\":34721:34730  uint256 i */\n      0x00\n        /* \"contracts/PreSale_flattened.sol\":34716:34836  for (uint256 i = 0; i < _tokenName.length; i++) {... */\n    tag_233:\n        /* \"contracts/PreSale_flattened.sol\":34736:34757  i < _tokenName.length */\n      dup4\n      dup2\n      lt\n        /* \"contracts/PreSale_flattened.sol\":34716:34836  for (uint256 i = 0; i < _tokenName.length; i++) {... */\n      iszero\n      tag_234\n      jumpi\n        /* \"contracts/PreSale_flattened.sol\":34808:34822  _oracleAddress */\n      dup3\n      dup3\n        /* \"contracts/PreSale_flattened.sol\":34823:34824  i */\n      dup3\n        /* \"contracts/PreSale_flattened.sol\":34808:34825  _oracleAddress[i] */\n      dup2\n      dup2\n      lt\n      tag_237\n      jumpi\n      tag_237\n      tag_169\n      jump\t// in\n    tag_237:\n      swap1\n      pop\n      0x20\n      mul\n      add\n      0x20\n      dup2\n      add\n      swap1\n      tag_238\n      swap2\n      swap1\n      tag_51\n      jump\t// in\n    tag_238:\n        /* \"contracts/PreSale_flattened.sol\":34778:34790  tokenOracles */\n      0x2f\n        /* \"contracts/PreSale_flattened.sol\":34791:34801  _tokenName */\n      dup7\n      dup7\n        /* \"contracts/PreSale_flattened.sol\":34802:34803  i */\n      dup5\n        /* \"contracts/PreSale_flattened.sol\":34791:34804  _tokenName[i] */\n      dup2\n      dup2\n      lt\n      tag_240\n      jumpi\n      tag_240\n      tag_169\n      jump\t// in\n    tag_240:\n      swap1\n      pop\n      0x20\n      mul\n      dup2\n      add\n      swap1\n      tag_241\n      swap2\n      swap1\n      tag_242\n      jump\t// in\n    tag_241:\n        /* \"contracts/PreSale_flattened.sol\":34778:34805  tokenOracles[_tokenName[i]] */\n      mload(0x40)\n      tag_243\n      swap3\n      swap2\n      swap1\n      tag_244\n      jump\t// in\n    tag_243:\n      swap1\n      dup2\n      mstore\n      mload(0x40)\n      swap1\n      dup2\n      swap1\n      sub\n      0x20\n      add\n      swap1\n      keccak256\n        /* \"contracts/PreSale_flattened.sol\":34778:34825  tokenOracles[_tokenName[i]] = _oracleAddress[i] */\n      dup1\n      sload\n      sub(shl(0xa0, 0x01), 0x01)\n      swap3\n      swap1\n      swap3\n      and\n      not(sub(shl(0xa0, 0x01), 0x01))\n      swap1\n      swap3\n      and\n      swap2\n      swap1\n      swap2\n      or\n      swap1\n      sstore\n      0x01\n        /* \"contracts/PreSale_flattened.sol\":34759:34762  i++ */\n      add\n        /* \"contracts/PreSale_flattened.sol\":34716:34836  for (uint256 i = 0; i < _tokenName.length; i++) {... */\n      jump(tag_233)\n    tag_234:\n      pop\n        /* \"contracts/PreSale_flattened.sol\":34502:34842  function initialiseTokens(... */\n      pop\n      pop\n      pop\n      pop\n      jump\t// out\n        /* \"contracts/PreSale_flattened.sol\":32554:34104  function buyGEPS(uint256 amount, string memory currency) external payable nonReentrant {... */\n    tag_100:\n        /* \"contracts/PreSale_flattened.sol\":28597:28598  2 */\n      0x02\n        /* \"contracts/PreSale_flattened.sol\":28807:28814  _status */\n      sload(0x01)\n        /* \"contracts/PreSale_flattened.sol\":28807:28826  _status != _ENTERED */\n      sub\n        /* \"contracts/PreSale_flattened.sol\":28799:28862  require(_status != _ENTERED, \"ReentrancyGuard: reentrant call\") */\n      tag_246\n      jumpi\n      mload(0x40)\n      shl(0xe5, 0x461bcd)\n      dup2\n      mstore\n        /* \"#utility.yul\":6765:6767   */\n      0x20\n        /* \"contracts/PreSale_flattened.sol\":28799:28862  require(_status != _ENTERED, \"ReentrancyGuard: reentrant call\") */\n      0x04\n      dup3\n      add\n        /* \"#utility.yul\":6747:6768   */\n      mstore\n        /* \"#utility.yul\":6804:6806   */\n      0x1f\n        /* \"#utility.yul\":6784:6802   */\n      0x24\n      dup3\n      add\n        /* \"#utility.yul\":6777:6807   */\n      mstore\n        /* \"#utility.yul\":6843:6876   */\n      0x5265656e7472616e637947756172643a207265656e7472616e742063616c6c00\n        /* \"#utility.yul\":6823:6841   */\n      0x44\n      dup3\n      add\n        /* \"#utility.yul\":6816:6877   */\n      mstore\n        /* \"#utility.yul\":6894:6912   */\n      0x64\n      add\n        /* \"contracts/PreSale_flattened.sol\":28799:28862  require(_status != _ENTERED, \"ReentrancyGuard: reentrant call\") */\n      tag_165\n        /* \"#utility.yul\":6563:6918   */\n      jump\n        /* \"contracts/PreSale_flattened.sol\":28799:28862  require(_status != _ENTERED, \"ReentrancyGuard: reentrant call\") */\n    tag_246:\n        /* \"contracts/PreSale_flattened.sol\":28597:28598  2 */\n      0x02\n        /* \"contracts/PreSale_flattened.sol\":28937:28944  _status */\n      0x01\n        /* \"contracts/PreSale_flattened.sol\":28937:28955  _status = _ENTERED */\n      sstore\n        /* \"contracts/PreSale_flattened.sol\":32659:32675  presaleStartTime */\n      sload(0x2b)\n        /* \"contracts/PreSale_flattened.sol\":32679:32680  0 */\n      0x00\n        /* \"contracts/PreSale_flattened.sol\":32659:32680  presaleStartTime != 0 */\n      sub\n        /* \"contracts/PreSale_flattened.sol\":32651:32704  require(presaleStartTime != 0, \"Presale Not started\") */\n      tag_249\n      jumpi\n      mload(0x40)\n      shl(0xe5, 0x461bcd)\n      dup2\n      mstore\n        /* \"#utility.yul\":9314:9316   */\n      0x20\n        /* \"contracts/PreSale_flattened.sol\":32651:32704  require(presaleStartTime != 0, \"Presale Not started\") */\n      0x04\n      dup3\n      add\n        /* \"#utility.yul\":9296:9317   */\n      mstore\n        /* \"#utility.yul\":9353:9355   */\n      0x13\n        /* \"#utility.yul\":9333:9351   */\n      0x24\n      dup3\n      add\n        /* \"#utility.yul\":9326:9356   */\n      mstore\n      shl(0x6a, 0x141c995cd85b1948139bdd081cdd185c9d1959)\n        /* \"#utility.yul\":9372:9390   */\n      0x44\n      dup3\n      add\n        /* \"#utility.yul\":9365:9414   */\n      mstore\n        /* \"#utility.yul\":9431:9449   */\n      0x64\n      add\n        /* \"contracts/PreSale_flattened.sol\":32651:32704  require(presaleStartTime != 0, \"Presale Not started\") */\n      tag_165\n        /* \"#utility.yul\":9112:9455   */\n      jump\n        /* \"contracts/PreSale_flattened.sol\":32651:32704  require(presaleStartTime != 0, \"Presale Not started\") */\n    tag_249:\n        /* \"contracts/PreSale_flattened.sol\":32731:32732  0 */\n      0x00\n        /* \"contracts/PreSale_flattened.sol\":32722:32728  amount */\n      dup3\n        /* \"contracts/PreSale_flattened.sol\":32722:32732  amount > 0 */\n      gt\n        /* \"contracts/PreSale_flattened.sol\":32714:32769  require(amount > 0, \"Amount must be greater than zero\") */\n      tag_252\n      jumpi\n      mload(0x40)\n      shl(0xe5, 0x461bcd)\n      dup2\n      mstore\n        /* \"#utility.yul\":9662:9664   */\n      0x20\n        /* \"contracts/PreSale_flattened.sol\":32714:32769  require(amount > 0, \"Amount must be greater than zero\") */\n      0x04\n      dup3\n      add\n        /* \"#utility.yul\":9644:9665   */\n      dup2\n      swap1\n      mstore\n        /* \"#utility.yul\":9681:9699   */\n      0x24\n      dup3\n      add\n        /* \"#utility.yul\":9674:9704   */\n      mstore\n        /* \"#utility.yul\":9740:9774   */\n      0x416d6f756e74206d7573742062652067726561746572207468616e207a65726f\n        /* \"#utility.yul\":9720:9738   */\n      0x44\n      dup3\n      add\n        /* \"#utility.yul\":9713:9775   */\n      mstore\n        /* \"#utility.yul\":9792:9810   */\n      0x64\n      add\n        /* \"contracts/PreSale_flattened.sol\":32714:32769  require(amount > 0, \"Amount must be greater than zero\") */\n      tag_165\n        /* \"#utility.yul\":9460:9816   */\n      jump\n        /* \"contracts/PreSale_flattened.sol\":32714:32769  require(amount > 0, \"Amount must be greater than zero\") */\n    tag_252:\n        /* \"contracts/PreSale_flattened.sol\":32815:32830  block.timestamp */\n      timestamp\n        /* \"contracts/PreSale_flattened.sol\":32783:32789  stages */\n      0x06\n        /* \"contracts/PreSale_flattened.sol\":32790:32802  currentStage */\n      sload(0x2a)\n        /* \"contracts/PreSale_flattened.sol\":32783:32803  stages[currentStage] */\n      0x09\n      dup2\n      lt\n      tag_256\n      jumpi\n      tag_256\n      tag_169\n      jump\t// in\n    tag_256:\n      0x04\n      mul\n      add\n        /* \"contracts/PreSale_flattened.sol\":32783:32811  stages[currentStage].endTime */\n      0x03\n      add\n      sload\n        /* \"contracts/PreSale_flattened.sol\":32783:32830  stages[currentStage].endTime <= block.timestamp */\n      gt\n        /* \"contracts/PreSale_flattened.sol\":32779:33111  if (stages[currentStage].endTime <= block.timestamp) {... */\n      tag_267\n      jumpi\n        /* \"contracts/PreSale_flattened.sol\":32850:32862  currentStage */\n      sload(0x2a)\n        /* \"contracts/PreSale_flattened.sol\":32866:32867  8 */\n      0x08\n        /* \"contracts/PreSale_flattened.sol\":32850:32867  currentStage == 8 */\n      sub\n        /* \"contracts/PreSale_flattened.sol\":32846:33101  if (currentStage == 8) {... */\n      tag_259\n      jumpi\n        /* \"contracts/PreSale_flattened.sol\":32918:32933  block.timestamp */\n      timestamp\n        /* \"contracts/PreSale_flattened.sol\":32887:32893  stages */\n      0x06\n        /* \"contracts/PreSale_flattened.sol\":32894:32906  currentStage */\n      sload(0x2a)\n        /* \"contracts/PreSale_flattened.sol\":32887:32907  stages[currentStage] */\n      0x09\n      dup2\n      lt\n      tag_261\n      jumpi\n      tag_261\n      tag_169\n      jump\t// in\n    tag_261:\n      0x04\n      mul\n      add\n        /* \"contracts/PreSale_flattened.sol\":32887:32915  stages[currentStage].endTime */\n      0x03\n      add\n        /* \"contracts/PreSale_flattened.sol\":32887:32933  stages[currentStage].endTime = block.timestamp */\n      dup2\n      swap1\n      sstore\n      pop\n        /* \"contracts/PreSale_flattened.sol\":32968:32974  stages */\n      0x06\n        /* \"contracts/PreSale_flattened.sol\":32975:32987  currentStage */\n      sload(0x2a)\n        /* \"contracts/PreSale_flattened.sol\":32968:32988  stages[currentStage] */\n      0x09\n      dup2\n      lt\n      tag_264\n      jumpi\n      tag_264\n      tag_169\n      jump\t// in\n    tag_264:\n      0x04\n      mul\n      add\n        /* \"contracts/PreSale_flattened.sol\":32968:32996  stages[currentStage].endTime */\n      0x03\n      add\n      sload\n        /* \"contracts/PreSale_flattened.sol\":32951:32965  presaleEndTime */\n      0x2c\n        /* \"contracts/PreSale_flattened.sol\":32951:32996  presaleEndTime = stages[currentStage].endTime */\n      dup2\n      swap1\n      sstore\n      pop\n        /* \"contracts/PreSale_flattened.sol\":33019:33033  PresaleEnded() */\n      0x1eb1561f8507eb9bc6988331f66f369e75710f2b4b678ad5b4a52454b6636f5f\n      mload(0x40)\n      mload(0x40)\n      dup1\n      swap2\n      sub\n      swap1\n      log1\n        /* \"contracts/PreSale_flattened.sol\":32846:33101  if (currentStage == 8) {... */\n      jump(tag_267)\n    tag_259:\n        /* \"contracts/PreSale_flattened.sol\":33072:33086  advanceStage() */\n      tag_267\n        /* \"contracts/PreSale_flattened.sol\":33072:33084  advanceStage */\n      tag_268\n        /* \"contracts/PreSale_flattened.sol\":33072:33086  advanceStage() */\n      jump\t// in\n    tag_267:\n        /* \"contracts/PreSale_flattened.sol\":33120:33138  uint256 gepsAmount */\n      0x00\n        /* \"contracts/PreSale_flattened.sol\":33146:33177  calculateGEPS(amount, currency) */\n      tag_269\n        /* \"contracts/PreSale_flattened.sol\":33160:33166  amount */\n      dup4\n        /* \"contracts/PreSale_flattened.sol\":33168:33176  currency */\n      dup4\n        /* \"contracts/PreSale_flattened.sol\":33146:33159  calculateGEPS */\n      tag_136\n        /* \"contracts/PreSale_flattened.sol\":33146:33177  calculateGEPS(amount, currency) */\n      jump\t// in\n    tag_269:\n        /* \"contracts/PreSale_flattened.sol\":33232:33244  bytes(\"BNB\") */\n      0x40\n      dup1\n      mload\n      dup1\n      dup3\n      add\n      swap1\n      swap2\n      mstore\n      0x03\n      dup2\n      mstore\n      shl(0xe9, 0x212721)\n      0x20\n      swap2\n      dup3\n      add\n      mstore\n        /* \"contracts/PreSale_flattened.sol\":33192:33218  keccak256(bytes(currency)) */\n      dup4\n      mload\n      swap1\n      dup5\n      add\n      keccak256\n        /* \"contracts/PreSale_flattened.sol\":33120:33178  uint256 gepsAmount = uint(calculateGEPS(amount, currency)) */\n      swap1\n      swap2\n      pop\n        /* \"contracts/PreSale_flattened.sol\":33192:33245  keccak256(bytes(currency)) == keccak256(bytes(\"BNB\")) */\n      0xc12fc3c71a6239f384963d5b409706deb5326acdad4a56f170a0a6a7c1643c52\n      add\n        /* \"contracts/PreSale_flattened.sol\":33188:33652  if (keccak256(bytes(currency)) == keccak256(bytes(\"BNB\"))) {... */\n      tag_270\n      jumpi\n        /* \"contracts/PreSale_flattened.sol\":33282:33288  amount */\n      dup3\n        /* \"contracts/PreSale_flattened.sol\":33269:33278  msg.value */\n      callvalue\n        /* \"contracts/PreSale_flattened.sol\":33269:33288  msg.value >= amount */\n      lt\n      iszero\n        /* \"contracts/PreSale_flattened.sol\":33261:33314  require(msg.value >= amount, \"Insufficient BNB sent\") */\n      tag_271\n      jumpi\n      mload(0x40)\n      shl(0xe5, 0x461bcd)\n      dup2\n      mstore\n        /* \"#utility.yul\":10023:10025   */\n      0x20\n        /* \"contracts/PreSale_flattened.sol\":33261:33314  require(msg.value >= amount, \"Insufficient BNB sent\") */\n      0x04\n      dup3\n      add\n        /* \"#utility.yul\":10005:10026   */\n      mstore\n        /* \"#utility.yul\":10062:10064   */\n      0x15\n        /* \"#utility.yul\":10042:10060   */\n      0x24\n      dup3\n      add\n        /* \"#utility.yul\":10035:10065   */\n      mstore\n      shl(0x5a, 0x125b9cdd59999a58da595b9d08109390881cd95b9d)\n        /* \"#utility.yul\":10081:10099   */\n      0x44\n      dup3\n      add\n        /* \"#utility.yul\":10074:10125   */\n      mstore\n        /* \"#utility.yul\":10142:10160   */\n      0x64\n      add\n        /* \"contracts/PreSale_flattened.sol\":33261:33314  require(msg.value >= amount, \"Insufficient BNB sent\") */\n      tag_165\n        /* \"#utility.yul\":9821:10166   */\n      jump\n        /* \"contracts/PreSale_flattened.sol\":33261:33314  require(msg.value >= amount, \"Insufficient BNB sent\") */\n    tag_271:\n        /* \"contracts/PreSale_flattened.sol\":33328:33341  presaleWallet */\n      sload(0x05)\n        /* \"contracts/PreSale_flattened.sol\":33328:33358  presaleWallet.transfer(amount) */\n      mload(0x40)\n      sub(shl(0xa0, 0x01), 0x01)\n        /* \"contracts/PreSale_flattened.sol\":33328:33341  presaleWallet */\n      swap1\n      swap2\n      and\n      swap1\n        /* \"contracts/PreSale_flattened.sol\":33328:33358  presaleWallet.transfer(amount) */\n      dup5\n      iszero\n      0x08fc\n      mul\n      swap1\n        /* \"contracts/PreSale_flattened.sol\":33351:33357  amount */\n      dup6\n      swap1\n        /* \"contracts/PreSale_flattened.sol\":33328:33341  presaleWallet */\n      0x00\n        /* \"contracts/PreSale_flattened.sol\":33328:33358  presaleWallet.transfer(amount) */\n      dup2\n        /* \"contracts/PreSale_flattened.sol\":33328:33341  presaleWallet */\n      dup2\n        /* \"contracts/PreSale_flattened.sol\":33328:33358  presaleWallet.transfer(amount) */\n      dup2\n        /* \"contracts/PreSale_flattened.sol\":33351:33357  amount */\n      dup6\n        /* \"contracts/PreSale_flattened.sol\":33328:33341  presaleWallet */\n      dup9\n        /* \"contracts/PreSale_flattened.sol\":33328:33358  presaleWallet.transfer(amount) */\n      dup9\n      call\n      swap4\n      pop\n      pop\n      pop\n      pop\n      iszero\n      dup1\n      iszero\n      tag_275\n      jumpi\n      returndatasize\n      0x00\n      dup1\n      returndatacopy\n      revert(0x00, returndatasize)\n    tag_275:\n      pop\n        /* \"contracts/PreSale_flattened.sol\":33188:33652  if (keccak256(bytes(currency)) == keccak256(bytes(\"BNB\"))) {... */\n      jump(tag_286)\n    tag_270:\n        /* \"contracts/PreSale_flattened.sol\":33419:33432  bytes(\"BUSD\") */\n      0x40\n      dup1\n      mload\n      dup1\n      dup3\n      add\n      swap1\n      swap2\n      mstore\n      0x04\n      dup2\n      mstore\n      shl(0xe2, 0x109554d1)\n      0x20\n      swap2\n      dup3\n      add\n      mstore\n        /* \"contracts/PreSale_flattened.sol\":33379:33405  keccak256(bytes(currency)) */\n      dup3\n      mload\n      swap1\n      dup4\n      add\n      keccak256\n        /* \"contracts/PreSale_flattened.sol\":33379:33433  keccak256(bytes(currency)) == keccak256(bytes(\"BUSD\")) */\n      0xab3aed538869b898d472fd1d01d23ef086440e608e62778dde969dea02db160f\n      add\n        /* \"contracts/PreSale_flattened.sol\":33375:33652  if (keccak256(bytes(currency)) == keccak256(bytes(\"BUSD\"))) {... */\n      tag_277\n      jumpi\n        /* \"contracts/PreSale_flattened.sol\":33474:33478  busd */\n      sload(0x03)\n        /* \"contracts/PreSale_flattened.sol\":33504:33517  presaleWallet */\n      sload(0x05)\n        /* \"contracts/PreSale_flattened.sol\":33474:33526  busd.transferFrom(msg.sender, presaleWallet, amount) */\n      mload(0x40)\n      shl(0xe0, 0x23b872dd)\n      dup2\n      mstore\n        /* \"contracts/PreSale_flattened.sol\":33492:33502  msg.sender */\n      caller\n        /* \"contracts/PreSale_flattened.sol\":33474:33526  busd.transferFrom(msg.sender, presaleWallet, amount) */\n      0x04\n      dup3\n      add\n        /* \"#utility.yul\":10381:10432   */\n      mstore\n      sub(shl(0xa0, 0x01), 0x01)\n        /* \"contracts/PreSale_flattened.sol\":33504:33517  presaleWallet */\n      swap2\n      dup3\n      and\n        /* \"#utility.yul\":10448:10466   */\n      0x24\n      dup3\n      add\n        /* \"#utility.yul\":10441:10501   */\n      mstore\n        /* \"#utility.yul\":10517:10535   */\n      0x44\n      dup2\n      add\n        /* \"#utility.yul\":10510:10544   */\n      dup7\n      swap1\n      mstore\n        /* \"contracts/PreSale_flattened.sol\":33474:33478  busd */\n      swap2\n      and\n      swap1\n        /* \"contracts/PreSale_flattened.sol\":33474:33491  busd.transferFrom */\n      0x23b872dd\n      swap1\n        /* \"#utility.yul\":10354:10372   */\n      0x64\n      add\n        /* \"contracts/PreSale_flattened.sol\":33474:33526  busd.transferFrom(msg.sender, presaleWallet, amount) */\n      0x20\n      mload(0x40)\n      dup1\n      dup4\n      sub\n      dup2\n      0x00\n      dup8\n      gas\n      call\n      iszero\n      dup1\n      iszero\n      tag_281\n      jumpi\n      returndatasize\n      0x00\n      dup1\n      returndatacopy\n      revert(0x00, returndatasize)\n    tag_281:\n      pop\n      pop\n      pop\n      pop\n      mload(0x40)\n      returndatasize\n      not(0x1f)\n      0x1f\n      dup3\n      add\n      and\n      dup3\n      add\n      dup1\n      0x40\n      mstore\n      pop\n      dup2\n      add\n      swap1\n      tag_282\n      swap2\n      swap1\n      tag_190\n      jump\t// in\n    tag_282:\n        /* \"contracts/PreSale_flattened.sol\":33449:33580  require(... */\n      tag_283\n      jumpi\n      mload(0x40)\n      shl(0xe5, 0x461bcd)\n      dup2\n      mstore\n        /* \"#utility.yul\":10757:10759   */\n      0x20\n        /* \"contracts/PreSale_flattened.sol\":33449:33580  require(... */\n      0x04\n      dup3\n      add\n        /* \"#utility.yul\":10739:10760   */\n      mstore\n        /* \"#utility.yul\":10796:10798   */\n      0x14\n        /* \"#utility.yul\":10776:10794   */\n      0x24\n      dup3\n      add\n        /* \"#utility.yul\":10769:10799   */\n      mstore\n      shl(0x62, 0x109554d1081d1c985b9cd9995c8819985a5b1959)\n        /* \"#utility.yul\":10815:10833   */\n      0x44\n      dup3\n      add\n        /* \"#utility.yul\":10808:10858   */\n      mstore\n        /* \"#utility.yul\":10875:10893   */\n      0x64\n      add\n        /* \"contracts/PreSale_flattened.sol\":33449:33580  require(... */\n      tag_165\n        /* \"#utility.yul\":10555:10899   */\n      jump\n        /* \"contracts/PreSale_flattened.sol\":33449:33580  require(... */\n    tag_283:\n        /* \"contracts/PreSale_flattened.sol\":33375:33652  if (keccak256(bytes(currency)) == keccak256(bytes(\"BUSD\"))) {... */\n      jump(tag_286)\n    tag_277:\n        /* \"contracts/PreSale_flattened.sol\":33611:33641  revert(\"Unsupported currency\") */\n      mload(0x40)\n      shl(0xe5, 0x461bcd)\n      dup2\n      mstore\n        /* \"#utility.yul\":11106:11108   */\n      0x20\n        /* \"contracts/PreSale_flattened.sol\":33611:33641  revert(\"Unsupported currency\") */\n      0x04\n      dup3\n      add\n        /* \"#utility.yul\":11088:11109   */\n      mstore\n        /* \"#utility.yul\":11145:11147   */\n      0x14\n        /* \"#utility.yul\":11125:11143   */\n      0x24\n      dup3\n      add\n        /* \"#utility.yul\":11118:11148   */\n      mstore\n      shl(0x60, 0x556e737570706f727465642063757272656e6379)\n        /* \"#utility.yul\":11164:11182   */\n      0x44\n      dup3\n      add\n        /* \"#utility.yul\":11157:11207   */\n      mstore\n        /* \"#utility.yul\":11224:11242   */\n      0x64\n      add\n        /* \"contracts/PreSale_flattened.sol\":33611:33641  revert(\"Unsupported currency\") */\n      tag_165\n        /* \"#utility.yul\":10904:11248   */\n      jump\n        /* \"contracts/PreSale_flattened.sol\":33375:33652  if (keccak256(bytes(currency)) == keccak256(bytes(\"BUSD\"))) {... */\n    tag_286:\n        /* \"contracts/PreSale_flattened.sol\":33662:33699  allocateGEPSs(msg.sender, gepsAmount) */\n      tag_289\n        /* \"contracts/PreSale_flattened.sol\":33676:33686  msg.sender */\n      caller\n        /* \"contracts/PreSale_flattened.sol\":33688:33698  gepsAmount */\n      dup3\n        /* \"contracts/PreSale_flattened.sol\":33662:33675  allocateGEPSs */\n      tag_290\n        /* \"contracts/PreSale_flattened.sol\":33662:33699  allocateGEPSs(msg.sender, gepsAmount) */\n      jump\t// in\n    tag_289:\n        /* \"contracts/PreSale_flattened.sol\":33729:33739  msg.sender */\n      caller\n      sub(shl(0xa0, 0x01), 0x01)\n        /* \"contracts/PreSale_flattened.sol\":33714:33762  GEPSsPurchased(msg.sender, gepsAmount, currency) */\n      and\n      0x97b8e46ce6a858394214fb0002594294805c68b044a2105798d860d0f922451a\n        /* \"contracts/PreSale_flattened.sol\":33741:33751  gepsAmount */\n      dup3\n        /* \"contracts/PreSale_flattened.sol\":33753:33761  currency */\n      dup5\n        /* \"contracts/PreSale_flattened.sol\":33714:33762  GEPSsPurchased(msg.sender, gepsAmount, currency) */\n      mload(0x40)\n      tag_291\n      swap3\n      swap2\n      swap1\n      tag_292\n      jump\t// in\n    tag_291:\n      mload(0x40)\n      dup1\n      swap2\n      sub\n      swap1\n      log2\n        /* \"contracts/PreSale_flattened.sol\":33777:33783  stages */\n      0x06\n        /* \"contracts/PreSale_flattened.sol\":33784:33796  currentStage */\n      sload(0x2a)\n        /* \"contracts/PreSale_flattened.sol\":33777:33797  stages[currentStage] */\n      0x09\n      dup2\n      lt\n      tag_294\n      jumpi\n      tag_294\n      tag_169\n      jump\t// in\n    tag_294:\n      0x04\n      mul\n      add\n        /* \"contracts/PreSale_flattened.sol\":33777:33812  stages[currentStage].GEPSsAvailable */\n      0x01\n      add\n      sload\n        /* \"contracts/PreSale_flattened.sol\":33816:33817  0 */\n      0x00\n        /* \"contracts/PreSale_flattened.sol\":33777:33817  stages[currentStage].GEPSsAvailable == 0 */\n      sub\n        /* \"contracts/PreSale_flattened.sol\":33773:34098  if (stages[currentStage].GEPSsAvailable == 0) {... */\n      tag_305\n      jumpi\n        /* \"contracts/PreSale_flattened.sol\":33837:33849  currentStage */\n      sload(0x2a)\n        /* \"contracts/PreSale_flattened.sol\":33853:33854  8 */\n      0x08\n        /* \"contracts/PreSale_flattened.sol\":33837:33854  currentStage == 8 */\n      sub\n        /* \"contracts/PreSale_flattened.sol\":33833:34088  if (currentStage == 8) {... */\n      tag_297\n      jumpi\n        /* \"contracts/PreSale_flattened.sol\":33905:33920  block.timestamp */\n      timestamp\n        /* \"contracts/PreSale_flattened.sol\":33874:33880  stages */\n      0x06\n        /* \"contracts/PreSale_flattened.sol\":33881:33893  currentStage */\n      sload(0x2a)\n        /* \"contracts/PreSale_flattened.sol\":33874:33894  stages[currentStage] */\n      0x09\n      dup2\n      lt\n      tag_299\n      jumpi\n      tag_299\n      tag_169\n      jump\t// in\n    tag_299:\n      0x04\n      mul\n      add\n        /* \"contracts/PreSale_flattened.sol\":33874:33902  stages[currentStage].endTime */\n      0x03\n      add\n        /* \"contracts/PreSale_flattened.sol\":33874:33920  stages[currentStage].endTime = block.timestamp */\n      dup2\n      swap1\n      sstore\n      pop\n        /* \"contracts/PreSale_flattened.sol\":33955:33961  stages */\n      0x06\n        /* \"contracts/PreSale_flattened.sol\":33962:33974  currentStage */\n      sload(0x2a)\n        /* \"contracts/PreSale_flattened.sol\":33955:33975  stages[currentStage] */\n      0x09\n      dup2\n      lt\n      tag_302\n      jumpi\n      tag_302\n      tag_169\n      jump\t// in\n    tag_302:\n      0x04\n      mul\n      add\n        /* \"contracts/PreSale_flattened.sol\":33955:33983  stages[currentStage].endTime */\n      0x03\n      add\n      sload\n        /* \"contracts/PreSale_flattened.sol\":33938:33952  presaleEndTime */\n      0x2c\n        /* \"contracts/PreSale_flattened.sol\":33938:33983  presaleEndTime = stages[currentStage].endTime */\n      dup2\n      swap1\n      sstore\n      pop\n        /* \"contracts/PreSale_flattened.sol\":34006:34020  PresaleEnded() */\n      0x1eb1561f8507eb9bc6988331f66f369e75710f2b4b678ad5b4a52454b6636f5f\n      mload(0x40)\n      mload(0x40)\n      dup1\n      swap2\n      sub\n      swap1\n      log1\n        /* \"contracts/PreSale_flattened.sol\":33833:34088  if (currentStage == 8) {... */\n      jump(tag_305)\n    tag_297:\n        /* \"contracts/PreSale_flattened.sol\":34059:34073  advanceStage() */\n      tag_305\n        /* \"contracts/PreSale_flattened.sol\":34059:34071  advanceStage */\n      tag_268\n        /* \"contracts/PreSale_flattened.sol\":34059:34073  advanceStage() */\n      jump\t// in\n    tag_305:\n      pop\n      pop\n        /* \"contracts/PreSale_flattened.sol\":28554:28555  1 */\n      0x01\n        /* \"contracts/PreSale_flattened.sol\":29110:29132  _status = _NOT_ENTERED */\n      dup1\n      sstore\n      pop\n        /* \"contracts/PreSale_flattened.sol\":32554:34104  function buyGEPS(uint256 amount, string memory currency) external payable nonReentrant {... */\n      jump\t// out\n        /* \"contracts/PreSale_flattened.sol\":30612:30705  function setGEPSToken(address _geps) external onlyOwner {... */\n    tag_104:\n        /* \"contracts/PreSale_flattened.sol\":19962:19975  _checkOwner() */\n      tag_307\n        /* \"contracts/PreSale_flattened.sol\":19962:19973  _checkOwner */\n      tag_162\n        /* \"contracts/PreSale_flattened.sol\":19962:19975  _checkOwner() */\n      jump\t// in\n    tag_307:\n        /* \"contracts/PreSale_flattened.sol\":30678:30682  GEPS */\n      0x02\n        /* \"contracts/PreSale_flattened.sol\":30678:30698  GEPS = IERC20(_geps) */\n      dup1\n      sload\n      not(sub(shl(0xa0, 0x01), 0x01))\n      and\n      sub(shl(0xa0, 0x01), 0x01)\n      swap3\n      swap1\n      swap3\n      and\n      swap2\n      swap1\n      swap2\n      or\n      swap1\n      sstore\n        /* \"contracts/PreSale_flattened.sol\":30612:30705  function setGEPSToken(address _geps) external onlyOwner {... */\n      jump\t// out\n        /* \"contracts/PreSale_flattened.sol\":20724:20825  function renounceOwnership() public virtual onlyOwner {... */\n    tag_107:\n        /* \"contracts/PreSale_flattened.sol\":19962:19975  _checkOwner() */\n      tag_310\n        /* \"contracts/PreSale_flattened.sol\":19962:19973  _checkOwner */\n      tag_162\n        /* \"contracts/PreSale_flattened.sol\":19962:19975  _checkOwner() */\n      jump\t// in\n    tag_310:\n        /* \"contracts/PreSale_flattened.sol\":20788:20818  _transferOwnership(address(0)) */\n      tag_312\n        /* \"contracts/PreSale_flattened.sol\":20815:20816  0 */\n      0x00\n        /* \"contracts/PreSale_flattened.sol\":20788:20806  _transferOwnership */\n      tag_313\n        /* \"contracts/PreSale_flattened.sol\":20788:20818  _transferOwnership(address(0)) */\n      jump\t// in\n    tag_312:\n        /* \"contracts/PreSale_flattened.sol\":20724:20825  function renounceOwnership() public virtual onlyOwner {... */\n      jump\t// out\n        /* \"contracts/PreSale_flattened.sol\":36752:36922  function updateTreasuryAddress(address newAddress) external onlyOwner {... */\n    tag_116:\n        /* \"contracts/PreSale_flattened.sol\":19962:19975  _checkOwner() */\n      tag_315\n        /* \"contracts/PreSale_flattened.sol\":19962:19973  _checkOwner */\n      tag_162\n        /* \"contracts/PreSale_flattened.sol\":19962:19975  _checkOwner() */\n      jump\t// in\n    tag_315:\n      sub(shl(0xa0, 0x01), 0x01)\n        /* \"contracts/PreSale_flattened.sol\":36840:36864  newAddress != address(0) */\n      dup2\n      and\n        /* \"contracts/PreSale_flattened.sol\":36832:36884  require(newAddress != address(0), \"Invalid address\") */\n      tag_317\n      jumpi\n      mload(0x40)\n      shl(0xe5, 0x461bcd)\n      dup2\n      mstore\n        /* \"#utility.yul\":11949:11951   */\n      0x20\n        /* \"contracts/PreSale_flattened.sol\":36832:36884  require(newAddress != address(0), \"Invalid address\") */\n      0x04\n      dup3\n      add\n        /* \"#utility.yul\":11931:11952   */\n      mstore\n        /* \"#utility.yul\":11988:11990   */\n      0x0f\n        /* \"#utility.yul\":11968:11986   */\n      0x24\n      dup3\n      add\n        /* \"#utility.yul\":11961:11991   */\n      mstore\n      shl(0x88, 0x496e76616c69642061646472657373)\n        /* \"#utility.yul\":12007:12025   */\n      0x44\n      dup3\n      add\n        /* \"#utility.yul\":12000:12045   */\n      mstore\n        /* \"#utility.yul\":12062:12080   */\n      0x64\n      add\n        /* \"contracts/PreSale_flattened.sol\":36832:36884  require(newAddress != address(0), \"Invalid address\") */\n      tag_165\n        /* \"#utility.yul\":11747:12086   */\n      jump\n        /* \"contracts/PreSale_flattened.sol\":36832:36884  require(newAddress != address(0), \"Invalid address\") */\n    tag_317:\n        /* \"contracts/PreSale_flattened.sol\":36894:36902  treasury */\n      0x04\n        /* \"contracts/PreSale_flattened.sol\":36894:36915  treasury = newAddress */\n      dup1\n      sload\n      not(sub(shl(0xa0, 0x01), 0x01))\n      and\n      sub(shl(0xa0, 0x01), 0x01)\n      swap3\n      swap1\n      swap3\n      and\n      swap2\n      swap1\n      swap2\n      or\n      swap1\n      sstore\n        /* \"contracts/PreSale_flattened.sol\":36752:36922  function updateTreasuryAddress(address newAddress) external onlyOwner {... */\n      jump\t// out\n        /* \"contracts/PreSale_flattened.sol\":29687:29717  Stage[MAX_STAGE] public stages */\n    tag_121:\n      0x06\n      dup2\n      0x09\n      dup2\n      lt\n      tag_320\n      jumpi\n      0x00\n      dup1\n      revert\n    tag_320:\n      0x04\n      mul\n      add\n      dup1\n      sload\n      0x01\n      dup3\n      add\n      sload\n      0x02\n      dup4\n      add\n      sload\n      0x03\n      swap1\n      swap4\n      add\n      sload\n      swap2\n      swap4\n      pop\n      swap2\n      swap1\n      dup5\n      jump\t// out\n        /* \"contracts/PreSale_flattened.sol\":36928:37135  function updatePresaleWallet(... */\n    tag_132:\n        /* \"contracts/PreSale_flattened.sol\":19962:19975  _checkOwner() */\n      tag_324\n        /* \"contracts/PreSale_flattened.sol\":19962:19973  _checkOwner */\n      tag_162\n        /* \"contracts/PreSale_flattened.sol\":19962:19975  _checkOwner() */\n      jump\t// in\n    tag_324:\n      sub(shl(0xa0, 0x01), 0x01)\n        /* \"contracts/PreSale_flattened.sol\":37040:37068  _presaleWallet != address(0) */\n      dup2\n      and\n        /* \"contracts/PreSale_flattened.sol\":37032:37088  require(_presaleWallet != address(0), \"Invalid address\") */\n      tag_326\n      jumpi\n      mload(0x40)\n      shl(0xe5, 0x461bcd)\n      dup2\n      mstore\n        /* \"#utility.yul\":11949:11951   */\n      0x20\n        /* \"contracts/PreSale_flattened.sol\":37032:37088  require(_presaleWallet != address(0), \"Invalid address\") */\n      0x04\n      dup3\n      add\n        /* \"#utility.yul\":11931:11952   */\n      mstore\n        /* \"#utility.yul\":11988:11990   */\n      0x0f\n        /* \"#utility.yul\":11968:11986   */\n      0x24\n      dup3\n      add\n        /* \"#utility.yul\":11961:11991   */\n      mstore\n      shl(0x88, 0x496e76616c69642061646472657373)\n        /* \"#utility.yul\":12007:12025   */\n      0x44\n      dup3\n      add\n        /* \"#utility.yul\":12000:12045   */\n      mstore\n        /* \"#utility.yul\":12062:12080   */\n      0x64\n      add\n        /* \"contracts/PreSale_flattened.sol\":37032:37088  require(_presaleWallet != address(0), \"Invalid address\") */\n      tag_165\n        /* \"#utility.yul\":11747:12086   */\n      jump\n        /* \"contracts/PreSale_flattened.sol\":37032:37088  require(_presaleWallet != address(0), \"Invalid address\") */\n    tag_326:\n        /* \"contracts/PreSale_flattened.sol\":37098:37111  presaleWallet */\n      0x05\n        /* \"contracts/PreSale_flattened.sol\":37098:37128  presaleWallet = _presaleWallet */\n      dup1\n      sload\n      not(sub(shl(0xa0, 0x01), 0x01))\n      and\n      sub(shl(0xa0, 0x01), 0x01)\n      swap3\n      swap1\n      swap3\n      and\n      swap2\n      swap1\n      swap2\n      or\n      swap1\n      sstore\n        /* \"contracts/PreSale_flattened.sol\":36928:37135  function updatePresaleWallet(... */\n      jump\t// out\n        /* \"contracts/PreSale_flattened.sol\":34848:35371  function calculateGEPS(... */\n    tag_136:\n        /* \"contracts/PreSale_flattened.sol\":34959:34966  uint256 */\n      0x00\n        /* \"contracts/PreSale_flattened.sol\":34978:35000  uint256 GEPSPriceInUSD */\n      dup1\n        /* \"contracts/PreSale_flattened.sol\":35046:35049  100 */\n      0x64\n        /* \"contracts/PreSale_flattened.sol\":35004:35010  stages */\n      0x06\n        /* \"contracts/PreSale_flattened.sol\":35011:35023  currentStage */\n      sload(0x2a)\n        /* \"contracts/PreSale_flattened.sol\":35004:35024  stages[currentStage] */\n      0x09\n      dup2\n      lt\n      tag_330\n      jumpi\n      tag_330\n      tag_169\n      jump\t// in\n    tag_330:\n      0x04\n      mul\n      add\n        /* \"contracts/PreSale_flattened.sol\":35004:35030  stages[currentStage].price */\n      sload\n        /* \"contracts/PreSale_flattened.sol\":35004:35042  stages[currentStage].price * (10 **18) */\n      tag_332\n      swap1\n        /* \"contracts/PreSale_flattened.sol\":35034:35041  10 **18 */\n      0x0de0b6b3a7640000\n        /* \"contracts/PreSale_flattened.sol\":35004:35042  stages[currentStage].price * (10 **18) */\n      tag_333\n      jump\t// in\n    tag_332:\n        /* \"contracts/PreSale_flattened.sol\":35003:35049  (stages[currentStage].price * (10 **18)) / 100 */\n      tag_334\n      swap2\n      swap1\n      tag_335\n      jump\t// in\n    tag_334:\n        /* \"contracts/PreSale_flattened.sol\":34978:35049  uint256 GEPSPriceInUSD = (stages[currentStage].price * (10 **18)) / 100 */\n      swap1\n      pop\n        /* \"contracts/PreSale_flattened.sol\":35059:35079  address _tokenOracle */\n      0x00\n        /* \"contracts/PreSale_flattened.sol\":35082:35094  tokenOracles */\n      0x2f\n        /* \"contracts/PreSale_flattened.sol\":35095:35108  _paymentToken */\n      dup5\n        /* \"contracts/PreSale_flattened.sol\":35082:35109  tokenOracles[_paymentToken] */\n      mload(0x40)\n      tag_336\n      swap2\n      swap1\n      tag_337\n      jump\t// in\n    tag_336:\n      swap1\n      dup2\n      mstore\n      0x40\n      dup1\n      mload\n      swap2\n      dup3\n      swap1\n      sub\n      0x20\n      add\n      dup3\n      keccak256\n      sload\n      shl(0xe2, 0x3fabe5a3)\n        /* \"contracts/PreSale_flattened.sol\":35220:35246  dataFeed.latestRoundData() */\n      dup4\n      mstore\n      swap1\n      mload\n      sub(shl(0xa0, 0x01), 0x01)\n        /* \"contracts/PreSale_flattened.sol\":35082:35109  tokenOracles[_paymentToken] */\n      swap1\n      swap2\n      and\n      swap3\n      pop\n      dup3\n      swap2\n      0x00\n      swap2\n      dup4\n      swap2\n        /* \"contracts/PreSale_flattened.sol\":35220:35244  dataFeed.latestRoundData */\n      0xfeaf968c\n      swap2\n        /* \"contracts/PreSale_flattened.sol\":35220:35246  dataFeed.latestRoundData() */\n      0x04\n      dup1\n      dup4\n      add\n      swap3\n      0xa0\n      swap3\n      swap2\n      swap1\n      dup3\n      swap1\n      sub\n      add\n      dup2\n        /* \"contracts/PreSale_flattened.sol\":35082:35109  tokenOracles[_paymentToken] */\n      dup7\n        /* \"contracts/PreSale_flattened.sol\":35220:35246  dataFeed.latestRoundData() */\n      gas\n      staticcall\n      iszero\n      dup1\n      iszero\n      tag_339\n      jumpi\n      returndatasize\n      0x00\n      dup1\n      returndatacopy\n      revert(0x00, returndatasize)\n    tag_339:\n      pop\n      pop\n      pop\n      pop\n      mload(0x40)\n      returndatasize\n      not(0x1f)\n      0x1f\n      dup3\n      add\n      and\n      dup3\n      add\n      dup1\n      0x40\n      mstore\n      pop\n      dup2\n      add\n      swap1\n      tag_340\n      swap2\n      swap1\n      tag_341\n      jump\t// in\n    tag_340:\n        /* \"contracts/PreSale_flattened.sol\":35197:35246  (, int answer, , , ) = dataFeed.latestRoundData() */\n      pop\n      pop\n      pop\n      swap2\n      pop\n      pop\n        /* \"contracts/PreSale_flattened.sol\":35256:35276  uint256 amountOfGEPS */\n      0x00\n        /* \"contracts/PreSale_flattened.sol\":35316:35322  answer */\n      dup2\n        /* \"contracts/PreSale_flattened.sol\":35326:35334  10 ** 10 */\n      0x02540be400\n        /* \"contracts/PreSale_flattened.sol\":35308:35334  uint256(answer) * 10 ** 10 */\n      tag_342\n      swap2\n      swap1\n      tag_333\n      jump\t// in\n    tag_342:\n        /* \"contracts/PreSale_flattened.sol\":35281:35303  amount/ GEPSPriceInUSD */\n      tag_343\n        /* \"contracts/PreSale_flattened.sol\":35289:35303  GEPSPriceInUSD */\n      dup7\n        /* \"contracts/PreSale_flattened.sol\":35281:35287  amount */\n      dup11\n        /* \"contracts/PreSale_flattened.sol\":35281:35303  amount/ GEPSPriceInUSD */\n      tag_335\n      jump\t// in\n    tag_343:\n        /* \"contracts/PreSale_flattened.sol\":35280:35335  (amount/ GEPSPriceInUSD) * (uint256(answer) * 10 ** 10) */\n      tag_344\n      swap2\n      swap1\n      tag_333\n      jump\t// in\n    tag_344:\n        /* \"contracts/PreSale_flattened.sol\":35256:35335  uint256 amountOfGEPS =  (amount/ GEPSPriceInUSD) * (uint256(answer) * 10 ** 10) */\n      swap6\n      pop\n      pop\n      pop\n      pop\n      pop\n      pop\n        /* \"contracts/PreSale_flattened.sol\":34848:35371  function calculateGEPS(... */\n    tag_328:\n      swap3\n      swap2\n      pop\n      pop\n      jump\t// out\n        /* \"contracts/PreSale_flattened.sol\":20974:21189  function transferOwnership(address newOwner) public virtual onlyOwner {... */\n    tag_153:\n        /* \"contracts/PreSale_flattened.sol\":19962:19975  _checkOwner() */\n      tag_347\n        /* \"contracts/PreSale_flattened.sol\":19962:19973  _checkOwner */\n      tag_162\n        /* \"contracts/PreSale_flattened.sol\":19962:19975  _checkOwner() */\n      jump\t// in\n    tag_347:\n      sub(shl(0xa0, 0x01), 0x01)\n        /* \"contracts/PreSale_flattened.sol\":21058:21080  newOwner == address(0) */\n      dup2\n      and\n        /* \"contracts/PreSale_flattened.sol\":21054:21145  if (newOwner == address(0)) {... */\n      tag_349\n      jumpi\n        /* \"contracts/PreSale_flattened.sol\":21103:21134  OwnableInvalidOwner(address(0)) */\n      mload(0x40)\n      shl(0xe0, 0x1e4fbdf7)\n      dup2\n      mstore\n        /* \"contracts/PreSale_flattened.sol\":21131:21132  0 */\n      0x00\n        /* \"contracts/PreSale_flattened.sol\":21103:21134  OwnableInvalidOwner(address(0)) */\n      0x04\n      dup3\n      add\n        /* \"#utility.yul\":935:986   */\n      mstore\n        /* \"#utility.yul\":908:926   */\n      0x24\n      add\n        /* \"contracts/PreSale_flattened.sol\":21103:21134  OwnableInvalidOwner(address(0)) */\n      tag_165\n        /* \"#utility.yul\":776:992   */\n      jump\n        /* \"contracts/PreSale_flattened.sol\":21054:21145  if (newOwner == address(0)) {... */\n    tag_349:\n        /* \"contracts/PreSale_flattened.sol\":21154:21182  _transferOwnership(newOwner) */\n      tag_184\n        /* \"contracts/PreSale_flattened.sol\":21173:21181  newOwner */\n      dup2\n        /* \"contracts/PreSale_flattened.sol\":21154:21172  _transferOwnership */\n      tag_313\n        /* \"contracts/PreSale_flattened.sol\":21154:21182  _transferOwnership(newOwner) */\n      jump\t// in\n        /* \"contracts/PreSale_flattened.sol\":20227:20389  function _checkOwner() internal view virtual {... */\n    tag_162:\n        /* \"contracts/PreSale_flattened.sol\":20115:20122  address */\n      0x00\n        /* \"contracts/PreSale_flattened.sol\":20141:20147  _owner */\n      sload\n      sub(shl(0xa0, 0x01), 0x01)\n      and\n        /* \"contracts/PreSale_flattened.sol\":3153:3163  msg.sender */\n      caller\n        /* \"contracts/PreSale_flattened.sol\":20286:20309  owner() != _msgSender() */\n      eq\n        /* \"contracts/PreSale_flattened.sol\":20282:20383  if (owner() != _msgSender()) {... */\n      tag_312\n      jumpi\n        /* \"contracts/PreSale_flattened.sol\":20332:20372  OwnableUnauthorizedAccount(_msgSender()) */\n      mload(0x40)\n      shl(0xe0, 0x118cdaa7)\n      dup2\n      mstore\n        /* \"contracts/PreSale_flattened.sol\":3153:3163  msg.sender */\n      caller\n        /* \"contracts/PreSale_flattened.sol\":20332:20372  OwnableUnauthorizedAccount(_msgSender()) */\n      0x04\n      dup3\n      add\n        /* \"#utility.yul\":935:986   */\n      mstore\n        /* \"#utility.yul\":908:926   */\n      0x24\n      add\n        /* \"contracts/PreSale_flattened.sol\":20332:20372  OwnableUnauthorizedAccount(_msgSender()) */\n      tag_165\n        /* \"#utility.yul\":776:992   */\n      jump\n        /* \"contracts/PreSale_flattened.sol\":23807:23903  function add(uint256 a, uint256 b) internal pure returns (uint256) {... */\n    tag_226:\n        /* \"contracts/PreSale_flattened.sol\":23865:23872  uint256 */\n      0x00\n        /* \"contracts/PreSale_flattened.sol\":23891:23896  a + b */\n      tag_360\n        /* \"contracts/PreSale_flattened.sol\":23895:23896  b */\n      dup3\n        /* \"contracts/PreSale_flattened.sol\":23891:23892  a */\n      dup5\n        /* \"contracts/PreSale_flattened.sol\":23891:23896  a + b */\n      tag_172\n      jump\t// in\n    tag_360:\n        /* \"contracts/PreSale_flattened.sol\":23884:23896  return a + b */\n      swap4\n        /* \"contracts/PreSale_flattened.sol\":23807:23903  function add(uint256 a, uint256 b) internal pure returns (uint256) {... */\n      swap3\n      pop\n      pop\n      pop\n      jump\t// out\n        /* \"contracts/PreSale_flattened.sol\":35377:35638  function advanceStage() internal {... */\n    tag_268:\n        /* \"contracts/PreSale_flattened.sol\":35439:35452  MAX_STAGE - 1 */\n      tag_362\n        /* \"contracts/PreSale_flattened.sol\":35451:35452  1 */\n      0x01\n        /* \"contracts/PreSale_flattened.sol\":29379:29380  9 */\n      0x09\n        /* \"contracts/PreSale_flattened.sol\":35439:35452  MAX_STAGE - 1 */\n      tag_363\n      jump\t// in\n    tag_362:\n        /* \"contracts/PreSale_flattened.sol\":35424:35436  currentStage */\n      sload(0x2a)\n        /* \"contracts/PreSale_flattened.sol\":35424:35452  currentStage < MAX_STAGE - 1 */\n      lt\n        /* \"contracts/PreSale_flattened.sol\":35420:35632  if (currentStage < MAX_STAGE - 1) {... */\n      iszero\n      tag_312\n      jumpi\n        /* \"contracts/PreSale_flattened.sol\":35468:35480  currentStage */\n      0x2a\n        /* \"contracts/PreSale_flattened.sol\":35468:35482  currentStage++ */\n      dup1\n      sload\n      swap1\n        /* \"contracts/PreSale_flattened.sol\":35468:35480  currentStage */\n      0x00\n        /* \"contracts/PreSale_flattened.sol\":35468:35482  currentStage++ */\n      tag_365\n      dup4\n      tag_366\n      jump\t// in\n    tag_365:\n      swap2\n      swap1\n      pop\n      sstore\n      pop\n        /* \"contracts/PreSale_flattened.sol\":35529:35544  block.timestamp */\n      timestamp\n        /* \"contracts/PreSale_flattened.sol\":35496:35502  stages */\n      0x06\n        /* \"contracts/PreSale_flattened.sol\":35503:35515  currentStage */\n      sload(0x2a)\n        /* \"contracts/PreSale_flattened.sol\":35496:35516  stages[currentStage] */\n      0x09\n      dup2\n      lt\n      tag_368\n      jumpi\n      tag_368\n      tag_169\n      jump\t// in\n    tag_368:\n      0x04\n      mul\n      add\n        /* \"contracts/PreSale_flattened.sol\":35496:35526  stages[currentStage].startTime */\n      0x02\n      add\n        /* \"contracts/PreSale_flattened.sol\":35496:35544  stages[currentStage].startTime = block.timestamp */\n      dup2\n      swap1\n      sstore\n      pop\n        /* \"contracts/PreSale_flattened.sol\":29427:29434  40 days */\n      0x34bc00\n        /* \"contracts/PreSale_flattened.sol\":35589:35604  block.timestamp */\n      timestamp\n        /* \"contracts/PreSale_flattened.sol\":35589:35621  block.timestamp + STAGE_DURATION */\n      tag_370\n      swap2\n      swap1\n      tag_172\n      jump\t// in\n    tag_370:\n        /* \"contracts/PreSale_flattened.sol\":35558:35564  stages */\n      0x06\n        /* \"contracts/PreSale_flattened.sol\":35565:35577  currentStage */\n      sload(0x2a)\n        /* \"contracts/PreSale_flattened.sol\":35558:35578  stages[currentStage] */\n      0x09\n      dup2\n      lt\n      tag_372\n      jumpi\n      tag_372\n      tag_169\n      jump\t// in\n    tag_372:\n      0x04\n      mul\n      add\n        /* \"contracts/PreSale_flattened.sol\":35558:35586  stages[currentStage].endTime */\n      0x03\n      add\n        /* \"contracts/PreSale_flattened.sol\":35558:35621  stages[currentStage].endTime = block.timestamp + STAGE_DURATION */\n      dup2\n      swap1\n      sstore\n      pop\n        /* \"contracts/PreSale_flattened.sol\":35377:35638  function advanceStage() internal {... */\n      jump\t// out\n        /* \"contracts/PreSale_flattened.sol\":34110:34496  function allocateGEPSs(address buyer, uint256 amount) internal {... */\n    tag_290:\n        /* \"contracts/PreSale_flattened.sol\":34243:34249  amount */\n      dup1\n        /* \"contracts/PreSale_flattened.sol\":34204:34210  stages */\n      0x06\n        /* \"contracts/PreSale_flattened.sol\":34211:34223  currentStage */\n      sload(0x2a)\n        /* \"contracts/PreSale_flattened.sol\":34204:34224  stages[currentStage] */\n      0x09\n      dup2\n      lt\n      tag_376\n      jumpi\n      tag_376\n      tag_169\n      jump\t// in\n    tag_376:\n      0x04\n      mul\n      add\n        /* \"contracts/PreSale_flattened.sol\":34204:34239  stages[currentStage].GEPSsAvailable */\n      0x01\n      add\n      sload\n        /* \"contracts/PreSale_flattened.sol\":34204:34249  stages[currentStage].GEPSsAvailable >= amount */\n      lt\n      iszero\n        /* \"contracts/PreSale_flattened.sol\":34183:34301  require(... */\n      tag_378\n      jumpi\n      mload(0x40)\n      shl(0xe5, 0x461bcd)\n      dup2\n      mstore\n        /* \"#utility.yul\":14029:14031   */\n      0x20\n        /* \"contracts/PreSale_flattened.sol\":34183:34301  require(... */\n      0x04\n      dup3\n      add\n        /* \"#utility.yul\":14011:14032   */\n      mstore\n        /* \"#utility.yul\":14068:14070   */\n      0x1a\n        /* \"#utility.yul\":14048:14066   */\n      0x24\n      dup3\n      add\n        /* \"#utility.yul\":14041:14071   */\n      mstore\n        /* \"#utility.yul\":14107:14135   */\n      0x4e6f7420656e6f75676820474550537320617661696c61626c65000000000000\n        /* \"#utility.yul\":14087:14105   */\n      0x44\n      dup3\n      add\n        /* \"#utility.yul\":14080:14136   */\n      mstore\n        /* \"#utility.yul\":14153:14171   */\n      0x64\n      add\n        /* \"contracts/PreSale_flattened.sol\":34183:34301  require(... */\n      tag_165\n        /* \"#utility.yul\":13827:14177   */\n      jump\n        /* \"contracts/PreSale_flattened.sol\":34183:34301  require(... */\n    tag_378:\n        /* \"contracts/PreSale_flattened.sol\":34349:34422  stages[currentStage]... */\n      tag_381\n        /* \"contracts/PreSale_flattened.sol\":34415:34421  amount */\n      dup2\n        /* \"contracts/PreSale_flattened.sol\":34349:34355  stages */\n      0x06\n        /* \"contracts/PreSale_flattened.sol\":34356:34368  currentStage */\n      sload(0x2a)\n        /* \"contracts/PreSale_flattened.sol\":34349:34369  stages[currentStage] */\n      0x09\n      dup2\n      lt\n      tag_383\n      jumpi\n      tag_383\n      tag_169\n      jump\t// in\n    tag_383:\n      0x04\n      mul\n      add\n        /* \"contracts/PreSale_flattened.sol\":34349:34397  stages[currentStage]... */\n      0x01\n      add\n      sload\n        /* \"contracts/PreSale_flattened.sol\":34349:34414  stages[currentStage]... */\n      tag_385\n      swap1\n        /* \"contracts/PreSale_flattened.sol\":34349:34422  stages[currentStage]... */\n      swap2\n      swap1\n      0xffffffff\n      and\n      jump\t// in\n    tag_381:\n        /* \"contracts/PreSale_flattened.sol\":34311:34317  stages */\n      0x06\n        /* \"contracts/PreSale_flattened.sol\":34318:34330  currentStage */\n      sload(0x2a)\n        /* \"contracts/PreSale_flattened.sol\":34311:34331  stages[currentStage] */\n      0x09\n      dup2\n      lt\n      tag_387\n      jumpi\n      tag_387\n      tag_169\n      jump\t// in\n    tag_387:\n      0x04\n      mul\n      add\n        /* \"contracts/PreSale_flattened.sol\":34311:34346  stages[currentStage].GEPSsAvailable */\n      0x01\n      add\n        /* \"contracts/PreSale_flattened.sol\":34311:34422  stages[currentStage].GEPSsAvailable = stages[currentStage]... */\n      sstore\n      sub(shl(0xa0, 0x01), 0x01)\n        /* \"contracts/PreSale_flattened.sol\":34456:34477  purchasedGEPSs[buyer] */\n      dup3\n      and\n      0x00\n      swap1\n      dup2\n      mstore\n        /* \"contracts/PreSale_flattened.sol\":34456:34470  purchasedGEPSs */\n      0x2d\n        /* \"contracts/PreSale_flattened.sol\":34456:34477  purchasedGEPSs[buyer] */\n      0x20\n      mstore\n      0x40\n      swap1\n      keccak256\n      sload\n        /* \"contracts/PreSale_flattened.sol\":34456:34489  purchasedGEPSs[buyer].add(amount) */\n      tag_389\n      swap1\n        /* \"contracts/PreSale_flattened.sol\":34482:34488  amount */\n      dup3\n        /* \"contracts/PreSale_flattened.sol\":34456:34481  purchasedGEPSs[buyer].add */\n      tag_226\n        /* \"contracts/PreSale_flattened.sol\":34456:34489  purchasedGEPSs[buyer].add(amount) */\n      jump\t// in\n    tag_389:\n      sub(shl(0xa0, 0x01), 0x01)\n        /* \"contracts/PreSale_flattened.sol\":34432:34453  purchasedGEPSs[buyer] */\n      swap1\n      swap3\n      and\n      0x00\n      swap1\n      dup2\n      mstore\n        /* \"contracts/PreSale_flattened.sol\":34432:34446  purchasedGEPSs */\n      0x2d\n        /* \"contracts/PreSale_flattened.sol\":34432:34453  purchasedGEPSs[buyer] */\n      0x20\n      mstore\n      0x40\n      swap1\n      keccak256\n        /* \"contracts/PreSale_flattened.sol\":34432:34489  purchasedGEPSs[buyer] = purchasedGEPSs[buyer].add(amount) */\n      swap2\n      swap1\n      swap2\n      sstore\n      pop\n        /* \"contracts/PreSale_flattened.sol\":34110:34496  function allocateGEPSs(address buyer, uint256 amount) internal {... */\n      jump\t// out\n        /* \"contracts/PreSale_flattened.sol\":21343:21530  function _transferOwnership(address newOwner) internal virtual {... */\n    tag_313:\n        /* \"contracts/PreSale_flattened.sol\":21416:21432  address oldOwner */\n      0x00\n        /* \"contracts/PreSale_flattened.sol\":21435:21441  _owner */\n      dup1\n      sload\n      sub(shl(0xa0, 0x01), 0x01)\n        /* \"contracts/PreSale_flattened.sol\":21451:21468  _owner = newOwner */\n      dup4\n      dup2\n      and\n      not(sub(shl(0xa0, 0x01), 0x01))\n      dup4\n      and\n      dup2\n      or\n      dup5\n      sstore\n        /* \"contracts/PreSale_flattened.sol\":21483:21523  OwnershipTransferred(oldOwner, newOwner) */\n      mload(0x40)\n        /* \"contracts/PreSale_flattened.sol\":21435:21441  _owner */\n      swap2\n      swap1\n      swap3\n      and\n      swap3\n      dup4\n      swap2\n        /* \"contracts/PreSale_flattened.sol\":21483:21523  OwnershipTransferred(oldOwner, newOwner) */\n      0x8be0079c531659141344cd1fd0a4f28419497f9722a3daafe3b4186f6b6457e0\n      swap2\n        /* \"contracts/PreSale_flattened.sol\":21416:21432  address oldOwner */\n      swap1\n        /* \"contracts/PreSale_flattened.sol\":21483:21523  OwnershipTransferred(oldOwner, newOwner) */\n      log3\n        /* \"contracts/PreSale_flattened.sol\":21406:21530  {... */\n      pop\n        /* \"contracts/PreSale_flattened.sol\":21343:21530  function _transferOwnership(address newOwner) internal virtual {... */\n      pop\n      jump\t// out\n        /* \"contracts/PreSale_flattened.sol\":24174:24270  function sub(uint256 a, uint256 b) internal pure returns (uint256) {... */\n    tag_385:\n        /* \"contracts/PreSale_flattened.sol\":24232:24239  uint256 */\n      0x00\n        /* \"contracts/PreSale_flattened.sol\":24258:24263  a - b */\n      tag_360\n        /* \"contracts/PreSale_flattened.sol\":24262:24263  b */\n      dup3\n        /* \"contracts/PreSale_flattened.sol\":24258:24259  a */\n      dup5\n        /* \"contracts/PreSale_flattened.sol\":24258:24263  a - b */\n      tag_363\n      jump\t// in\n        /* \"#utility.yul\":206:337   */\n    tag_394:\n      sub(shl(0xa0, 0x01), 0x01)\n        /* \"#utility.yul\":281:312   */\n      dup2\n      and\n        /* \"#utility.yul\":271:313   */\n      dup2\n      eq\n        /* \"#utility.yul\":261:331   */\n      tag_184\n      jumpi\n        /* \"#utility.yul\":327:328   */\n      0x00\n        /* \"#utility.yul\":324:325   */\n      dup1\n        /* \"#utility.yul\":317:329   */\n      revert\n        /* \"#utility.yul\":342:589   */\n    tag_51:\n        /* \"#utility.yul\":401:407   */\n      0x00\n        /* \"#utility.yul\":454:456   */\n      0x20\n        /* \"#utility.yul\":442:451   */\n      dup3\n        /* \"#utility.yul\":433:440   */\n      dup5\n        /* \"#utility.yul\":429:452   */\n      sub\n        /* \"#utility.yul\":425:457   */\n      slt\n        /* \"#utility.yul\":422:474   */\n      iszero\n      tag_405\n      jumpi\n        /* \"#utility.yul\":470:471   */\n      0x00\n        /* \"#utility.yul\":467:468   */\n      dup1\n        /* \"#utility.yul\":460:472   */\n      revert\n        /* \"#utility.yul\":422:474   */\n    tag_405:\n        /* \"#utility.yul\":509:518   */\n      dup2\n        /* \"#utility.yul\":496:519   */\n      calldataload\n        /* \"#utility.yul\":528:559   */\n      tag_360\n        /* \"#utility.yul\":553:558   */\n      dup2\n        /* \"#utility.yul\":528:559   */\n      tag_394\n      jump\t// in\n        /* \"#utility.yul\":997:1372   */\n    tag_395:\n        /* \"#utility.yul\":1068:1076   */\n      0x00\n        /* \"#utility.yul\":1078:1084   */\n      dup1\n        /* \"#utility.yul\":1132:1135   */\n      dup4\n        /* \"#utility.yul\":1125:1129   */\n      0x1f\n        /* \"#utility.yul\":1117:1123   */\n      dup5\n        /* \"#utility.yul\":1113:1130   */\n      add\n        /* \"#utility.yul\":1109:1136   */\n      slt\n        /* \"#utility.yul\":1099:1154   */\n      tag_410\n      jumpi\n        /* \"#utility.yul\":1150:1151   */\n      0x00\n        /* \"#utility.yul\":1147:1148   */\n      dup1\n        /* \"#utility.yul\":1140:1152   */\n      revert\n        /* \"#utility.yul\":1099:1154   */\n    tag_410:\n      pop\n        /* \"#utility.yul\":1173:1193   */\n      dup2\n      calldataload\n        /* \"#utility.yul\":1216:1234   */\n      0xffffffffffffffff\n        /* \"#utility.yul\":1205:1235   */\n      dup2\n      gt\n        /* \"#utility.yul\":1202:1252   */\n      iszero\n      tag_411\n      jumpi\n        /* \"#utility.yul\":1248:1249   */\n      0x00\n        /* \"#utility.yul\":1245:1246   */\n      dup1\n        /* \"#utility.yul\":1238:1250   */\n      revert\n        /* \"#utility.yul\":1202:1252   */\n    tag_411:\n        /* \"#utility.yul\":1285:1289   */\n      0x20\n        /* \"#utility.yul\":1277:1283   */\n      dup4\n        /* \"#utility.yul\":1273:1290   */\n      add\n        /* \"#utility.yul\":1261:1290   */\n      swap2\n      pop\n        /* \"#utility.yul\":1345:1348   */\n      dup4\n        /* \"#utility.yul\":1338:1342   */\n      0x20\n        /* \"#utility.yul\":1328:1334   */\n      dup3\n        /* \"#utility.yul\":1325:1326   */\n      0x05\n        /* \"#utility.yul\":1321:1335   */\n      shl\n        /* \"#utility.yul\":1313:1319   */\n      dup6\n        /* \"#utility.yul\":1309:1336   */\n      add\n        /* \"#utility.yul\":1305:1343   */\n      add\n        /* \"#utility.yul\":1302:1349   */\n      gt\n        /* \"#utility.yul\":1299:1366   */\n      iszero\n      tag_412\n      jumpi\n        /* \"#utility.yul\":1362:1363   */\n      0x00\n        /* \"#utility.yul\":1359:1360   */\n      dup1\n        /* \"#utility.yul\":1352:1364   */\n      revert\n        /* \"#utility.yul\":1299:1366   */\n    tag_412:\n        /* \"#utility.yul\":997:1372   */\n      swap3\n      pop\n      swap3\n      swap1\n      pop\n      jump\t// out\n        /* \"#utility.yul\":1377:2173   */\n    tag_86:\n        /* \"#utility.yul\":1511:1517   */\n      0x00\n        /* \"#utility.yul\":1519:1525   */\n      dup1\n        /* \"#utility.yul\":1527:1533   */\n      0x00\n        /* \"#utility.yul\":1535:1541   */\n      dup1\n        /* \"#utility.yul\":1588:1590   */\n      0x40\n        /* \"#utility.yul\":1576:1585   */\n      dup6\n        /* \"#utility.yul\":1567:1574   */\n      dup8\n        /* \"#utility.yul\":1563:1586   */\n      sub\n        /* \"#utility.yul\":1559:1591   */\n      slt\n        /* \"#utility.yul\":1556:1608   */\n      iszero\n      tag_414\n      jumpi\n        /* \"#utility.yul\":1604:1605   */\n      0x00\n        /* \"#utility.yul\":1601:1602   */\n      dup1\n        /* \"#utility.yul\":1594:1606   */\n      revert\n        /* \"#utility.yul\":1556:1608   */\n    tag_414:\n        /* \"#utility.yul\":1644:1653   */\n      dup5\n        /* \"#utility.yul\":1631:1654   */\n      calldataload\n        /* \"#utility.yul\":1677:1695   */\n      0xffffffffffffffff\n        /* \"#utility.yul\":1669:1675   */\n      dup2\n        /* \"#utility.yul\":1666:1696   */\n      gt\n        /* \"#utility.yul\":1663:1713   */\n      iszero\n      tag_415\n      jumpi\n        /* \"#utility.yul\":1709:1710   */\n      0x00\n        /* \"#utility.yul\":1706:1707   */\n      dup1\n        /* \"#utility.yul\":1699:1711   */\n      revert\n        /* \"#utility.yul\":1663:1713   */\n    tag_415:\n        /* \"#utility.yul\":1748:1826   */\n      tag_416\n        /* \"#utility.yul\":1818:1825   */\n      dup8\n        /* \"#utility.yul\":1809:1815   */\n      dup3\n        /* \"#utility.yul\":1798:1807   */\n      dup9\n        /* \"#utility.yul\":1794:1816   */\n      add\n        /* \"#utility.yul\":1748:1826   */\n      tag_395\n      jump\t// in\n    tag_416:\n        /* \"#utility.yul\":1845:1853   */\n      swap1\n      swap6\n      pop\n        /* \"#utility.yul\":1722:1826   */\n      swap4\n      pop\n      pop\n        /* \"#utility.yul\":1933:1935   */\n      0x20\n        /* \"#utility.yul\":1918:1936   */\n      dup6\n      add\n        /* \"#utility.yul\":1905:1937   */\n      calldataload\n        /* \"#utility.yul\":1962:1980   */\n      0xffffffffffffffff\n        /* \"#utility.yul\":1949:1981   */\n      dup2\n      gt\n        /* \"#utility.yul\":1946:1998   */\n      iszero\n      tag_417\n      jumpi\n        /* \"#utility.yul\":1994:1995   */\n      0x00\n        /* \"#utility.yul\":1991:1992   */\n      dup1\n        /* \"#utility.yul\":1984:1996   */\n      revert\n        /* \"#utility.yul\":1946:1998   */\n    tag_417:\n        /* \"#utility.yul\":2033:2113   */\n      tag_418\n        /* \"#utility.yul\":2105:2112   */\n      dup8\n        /* \"#utility.yul\":2094:2102   */\n      dup3\n        /* \"#utility.yul\":2083:2092   */\n      dup9\n        /* \"#utility.yul\":2079:2103   */\n      add\n        /* \"#utility.yul\":2033:2113   */\n      tag_395\n      jump\t// in\n    tag_418:\n        /* \"#utility.yul\":1377:2173   */\n      swap6\n      swap9\n      swap5\n      swap8\n      pop\n        /* \"#utility.yul\":2132:2140   */\n      swap6\n      pop\n      pop\n      pop\n      pop\n        /* \"#utility.yul\":1377:2173   */\n      jump\t// out\n        /* \"#utility.yul\":2386:2513   */\n    tag_396:\n        /* \"#utility.yul\":2447:2457   */\n      0x4e487b71\n        /* \"#utility.yul\":2442:2445   */\n      0xe0\n        /* \"#utility.yul\":2438:2458   */\n      shl\n        /* \"#utility.yul\":2435:2436   */\n      0x00\n        /* \"#utility.yul\":2428:2459   */\n      mstore\n        /* \"#utility.yul\":2478:2482   */\n      0x41\n        /* \"#utility.yul\":2475:2476   */\n      0x04\n        /* \"#utility.yul\":2468:2483   */\n      mstore\n        /* \"#utility.yul\":2502:2506   */\n      0x24\n        /* \"#utility.yul\":2499:2500   */\n      0x00\n        /* \"#utility.yul\":2492:2507   */\n      revert\n        /* \"#utility.yul\":2518:3244   */\n    tag_397:\n        /* \"#utility.yul\":2561:2566   */\n      0x00\n        /* \"#utility.yul\":2614:2617   */\n      dup3\n        /* \"#utility.yul\":2607:2611   */\n      0x1f\n        /* \"#utility.yul\":2599:2605   */\n      dup4\n        /* \"#utility.yul\":2595:2612   */\n      add\n        /* \"#utility.yul\":2591:2618   */\n      slt\n        /* \"#utility.yul\":2581:2636   */\n      tag_422\n      jumpi\n        /* \"#utility.yul\":2632:2633   */\n      0x00\n        /* \"#utility.yul\":2629:2630   */\n      dup1\n        /* \"#utility.yul\":2622:2634   */\n      revert\n        /* \"#utility.yul\":2581:2636   */\n    tag_422:\n        /* \"#utility.yul\":2672:2678   */\n      dup2\n        /* \"#utility.yul\":2659:2679   */\n      calldataload\n        /* \"#utility.yul\":2702:2720   */\n      0xffffffffffffffff\n        /* \"#utility.yul\":2694:2700   */\n      dup2\n        /* \"#utility.yul\":2691:2721   */\n      gt\n        /* \"#utility.yul\":2688:2744   */\n      iszero\n      tag_424\n      jumpi\n        /* \"#utility.yul\":2724:2742   */\n      tag_424\n      tag_396\n      jump\t// in\n    tag_424:\n        /* \"#utility.yul\":2773:2775   */\n      0x40\n        /* \"#utility.yul\":2767:2776   */\n      mload\n        /* \"#utility.yul\":2865:2867   */\n      0x1f\n        /* \"#utility.yul\":2827:2844   */\n      dup3\n      add\n      not(0x1f)\n        /* \"#utility.yul\":2823:2854   */\n      swap1\n      dup2\n      and\n        /* \"#utility.yul\":2856:2858   */\n      0x3f\n        /* \"#utility.yul\":2819:2859   */\n      add\n        /* \"#utility.yul\":2815:2869   */\n      and\n        /* \"#utility.yul\":2803:2870   */\n      dup2\n      add\n        /* \"#utility.yul\":2900:2918   */\n      0xffffffffffffffff\n        /* \"#utility.yul\":2885:2919   */\n      dup2\n      gt\n        /* \"#utility.yul\":2921:2943   */\n      dup3\n      dup3\n      lt\n        /* \"#utility.yul\":2882:2944   */\n      or\n        /* \"#utility.yul\":2879:2967   */\n      iszero\n      tag_426\n      jumpi\n        /* \"#utility.yul\":2947:2965   */\n      tag_426\n      tag_396\n      jump\t// in\n    tag_426:\n        /* \"#utility.yul\":2983:2985   */\n      0x40\n        /* \"#utility.yul\":2976:2998   */\n      mstore\n        /* \"#utility.yul\":3007:3029   */\n      dup2\n      dup2\n      mstore\n        /* \"#utility.yul\":3048:3067   */\n      dup4\n      dup3\n      add\n        /* \"#utility.yul\":3069:3073   */\n      0x20\n        /* \"#utility.yul\":3044:3074   */\n      add\n        /* \"#utility.yul\":3041:3080   */\n      dup6\n      lt\n        /* \"#utility.yul\":3038:3097   */\n      iszero\n      tag_427\n      jumpi\n        /* \"#utility.yul\":3093:3094   */\n      0x00\n        /* \"#utility.yul\":3090:3091   */\n      dup1\n        /* \"#utility.yul\":3083:3095   */\n      revert\n        /* \"#utility.yul\":3038:3097   */\n    tag_427:\n        /* \"#utility.yul\":3157:3163   */\n      dup2\n        /* \"#utility.yul\":3150:3154   */\n      0x20\n        /* \"#utility.yul\":3142:3148   */\n      dup6\n        /* \"#utility.yul\":3138:3155   */\n      add\n        /* \"#utility.yul\":3131:3135   */\n      0x20\n        /* \"#utility.yul\":3123:3129   */\n      dup4\n        /* \"#utility.yul\":3119:3136   */\n      add\n        /* \"#utility.yul\":3106:3164   */\n      calldatacopy\n        /* \"#utility.yul\":3212:3213   */\n      0x00\n        /* \"#utility.yul\":3184:3203   */\n      swap2\n      dup2\n      add\n        /* \"#utility.yul\":3205:3209   */\n      0x20\n        /* \"#utility.yul\":3180:3210   */\n      add\n        /* \"#utility.yul\":3173:3214   */\n      swap2\n      swap1\n      swap2\n      mstore\n        /* \"#utility.yul\":3188:3194   */\n      swap4\n        /* \"#utility.yul\":2518:3244   */\n      swap3\n      pop\n      pop\n      pop\n      jump\t// out\n        /* \"#utility.yul\":3249:3685   */\n    tag_99:\n        /* \"#utility.yul\":3327:3333   */\n      0x00\n        /* \"#utility.yul\":3335:3341   */\n      dup1\n        /* \"#utility.yul\":3388:3390   */\n      0x40\n        /* \"#utility.yul\":3376:3385   */\n      dup4\n        /* \"#utility.yul\":3367:3374   */\n      dup6\n        /* \"#utility.yul\":3363:3386   */\n      sub\n        /* \"#utility.yul\":3359:3391   */\n      slt\n        /* \"#utility.yul\":3356:3408   */\n      iszero\n      tag_429\n      jumpi\n        /* \"#utility.yul\":3404:3405   */\n      0x00\n        /* \"#utility.yul\":3401:3402   */\n      dup1\n        /* \"#utility.yul\":3394:3406   */\n      revert\n        /* \"#utility.yul\":3356:3408   */\n    tag_429:\n        /* \"#utility.yul\":3449:3472   */\n      dup3\n      calldataload\n      swap2\n      pop\n        /* \"#utility.yul\":3547:3549   */\n      0x20\n        /* \"#utility.yul\":3532:3550   */\n      dup4\n      add\n        /* \"#utility.yul\":3519:3551   */\n      calldataload\n        /* \"#utility.yul\":3574:3592   */\n      0xffffffffffffffff\n        /* \"#utility.yul\":3563:3593   */\n      dup2\n      gt\n        /* \"#utility.yul\":3560:3610   */\n      iszero\n      tag_430\n      jumpi\n        /* \"#utility.yul\":3606:3607   */\n      0x00\n        /* \"#utility.yul\":3603:3604   */\n      dup1\n        /* \"#utility.yul\":3596:3608   */\n      revert\n        /* \"#utility.yul\":3560:3610   */\n    tag_430:\n        /* \"#utility.yul\":3629:3679   */\n      tag_431\n        /* \"#utility.yul\":3671:3678   */\n      dup6\n        /* \"#utility.yul\":3662:3668   */\n      dup3\n        /* \"#utility.yul\":3651:3660   */\n      dup7\n        /* \"#utility.yul\":3647:3669   */\n      add\n        /* \"#utility.yul\":3629:3679   */\n      tag_397\n      jump\t// in\n    tag_431:\n        /* \"#utility.yul\":3619:3679   */\n      swap2\n      pop\n      pop\n        /* \"#utility.yul\":3249:3685   */\n      swap3\n      pop\n      swap3\n      swap1\n      pop\n      jump\t// out\n        /* \"#utility.yul\":3690:3916   */\n    tag_120:\n        /* \"#utility.yul\":3749:3755   */\n      0x00\n        /* \"#utility.yul\":3802:3804   */\n      0x20\n        /* \"#utility.yul\":3790:3799   */\n      dup3\n        /* \"#utility.yul\":3781:3788   */\n      dup5\n        /* \"#utility.yul\":3777:3800   */\n      sub\n        /* \"#utility.yul\":3773:3805   */\n      slt\n        /* \"#utility.yul\":3770:3822   */\n      iszero\n      tag_433\n      jumpi\n        /* \"#utility.yul\":3818:3819   */\n      0x00\n        /* \"#utility.yul\":3815:3816   */\n      dup1\n        /* \"#utility.yul\":3808:3820   */\n      revert\n        /* \"#utility.yul\":3770:3822   */\n    tag_433:\n      pop\n        /* \"#utility.yul\":3863:3886   */\n      calldataload\n      swap2\n        /* \"#utility.yul\":3690:3916   */\n      swap1\n      pop\n      jump\t// out\n        /* \"#utility.yul\":4577:4899   */\n    tag_157:\n        /* \"#utility.yul\":4646:4652   */\n      0x00\n        /* \"#utility.yul\":4699:4701   */\n      0x20\n        /* \"#utility.yul\":4687:4696   */\n      dup3\n        /* \"#utility.yul\":4678:4685   */\n      dup5\n        /* \"#utility.yul\":4674:4697   */\n      sub\n        /* \"#utility.yul\":4670:4702   */\n      slt\n        /* \"#utility.yul\":4667:4719   */\n      iszero\n      tag_439\n      jumpi\n        /* \"#utility.yul\":4715:4716   */\n      0x00\n        /* \"#utility.yul\":4712:4713   */\n      dup1\n        /* \"#utility.yul\":4705:4717   */\n      revert\n        /* \"#utility.yul\":4667:4719   */\n    tag_439:\n        /* \"#utility.yul\":4755:4764   */\n      dup2\n        /* \"#utility.yul\":4742:4765   */\n      calldataload\n        /* \"#utility.yul\":4788:4806   */\n      0xffffffffffffffff\n        /* \"#utility.yul\":4780:4786   */\n      dup2\n        /* \"#utility.yul\":4777:4807   */\n      gt\n        /* \"#utility.yul\":4774:4824   */\n      iszero\n      tag_440\n      jumpi\n        /* \"#utility.yul\":4820:4821   */\n      0x00\n        /* \"#utility.yul\":4817:4818   */\n      dup1\n        /* \"#utility.yul\":4810:4822   */\n      revert\n        /* \"#utility.yul\":4774:4824   */\n    tag_440:\n        /* \"#utility.yul\":4843:4893   */\n      tag_441\n        /* \"#utility.yul\":4885:4892   */\n      dup5\n        /* \"#utility.yul\":4876:4882   */\n      dup3\n        /* \"#utility.yul\":4865:4874   */\n      dup6\n        /* \"#utility.yul\":4861:4883   */\n      add\n        /* \"#utility.yul\":4843:4893   */\n      tag_397\n      jump\t// in\n    tag_441:\n        /* \"#utility.yul\":4833:4893   */\n      swap5\n        /* \"#utility.yul\":4577:4899   */\n      swap4\n      pop\n      pop\n      pop\n      pop\n      jump\t// out\n        /* \"#utility.yul\":5256:5383   */\n    tag_169:\n        /* \"#utility.yul\":5317:5327   */\n      0x4e487b71\n        /* \"#utility.yul\":5312:5315   */\n      0xe0\n        /* \"#utility.yul\":5308:5328   */\n      shl\n        /* \"#utility.yul\":5305:5306   */\n      0x00\n        /* \"#utility.yul\":5298:5329   */\n      mstore\n        /* \"#utility.yul\":5348:5352   */\n      0x32\n        /* \"#utility.yul\":5345:5346   */\n      0x04\n        /* \"#utility.yul\":5338:5353   */\n      mstore\n        /* \"#utility.yul\":5372:5376   */\n      0x24\n        /* \"#utility.yul\":5369:5370   */\n      0x00\n        /* \"#utility.yul\":5362:5377   */\n      revert\n        /* \"#utility.yul\":5388:5515   */\n    tag_398:\n        /* \"#utility.yul\":5449:5459   */\n      0x4e487b71\n        /* \"#utility.yul\":5444:5447   */\n      0xe0\n        /* \"#utility.yul\":5440:5460   */\n      shl\n        /* \"#utility.yul\":5437:5438   */\n      0x00\n        /* \"#utility.yul\":5430:5461   */\n      mstore\n        /* \"#utility.yul\":5480:5484   */\n      0x11\n        /* \"#utility.yul\":5477:5478   */\n      0x04\n        /* \"#utility.yul\":5470:5485   */\n      mstore\n        /* \"#utility.yul\":5504:5508   */\n      0x24\n        /* \"#utility.yul\":5501:5502   */\n      0x00\n        /* \"#utility.yul\":5494:5509   */\n      revert\n        /* \"#utility.yul\":5520:5645   */\n    tag_172:\n        /* \"#utility.yul\":5585:5594   */\n      dup1\n      dup3\n      add\n        /* \"#utility.yul\":5606:5616   */\n      dup1\n      dup3\n      gt\n        /* \"#utility.yul\":5603:5639   */\n      iszero\n      tag_328\n      jumpi\n        /* \"#utility.yul\":5619:5637   */\n      tag_328\n      tag_398\n      jump\t// in\n        /* \"#utility.yul\":6281:6558   */\n    tag_190:\n        /* \"#utility.yul\":6348:6354   */\n      0x00\n        /* \"#utility.yul\":6401:6403   */\n      0x20\n        /* \"#utility.yul\":6389:6398   */\n      dup3\n        /* \"#utility.yul\":6380:6387   */\n      dup5\n        /* \"#utility.yul\":6376:6399   */\n      sub\n        /* \"#utility.yul\":6372:6404   */\n      slt\n        /* \"#utility.yul\":6369:6421   */\n      iszero\n      tag_451\n      jumpi\n        /* \"#utility.yul\":6417:6418   */\n      0x00\n        /* \"#utility.yul\":6414:6415   */\n      dup1\n        /* \"#utility.yul\":6407:6419   */\n      revert\n        /* \"#utility.yul\":6369:6421   */\n    tag_451:\n        /* \"#utility.yul\":6449:6458   */\n      dup2\n        /* \"#utility.yul\":6443:6459   */\n      mload\n        /* \"#utility.yul\":6502:6507   */\n      dup1\n        /* \"#utility.yul\":6495:6508   */\n      iszero\n        /* \"#utility.yul\":6488:6509   */\n      iszero\n        /* \"#utility.yul\":6481:6486   */\n      dup2\n        /* \"#utility.yul\":6478:6510   */\n      eq\n        /* \"#utility.yul\":6468:6528   */\n      tag_360\n      jumpi\n        /* \"#utility.yul\":6524:6525   */\n      0x00\n        /* \"#utility.yul\":6521:6522   */\n      dup1\n        /* \"#utility.yul\":6514:6526   */\n      revert\n        /* \"#utility.yul\":8307:8829   */\n    tag_242:\n        /* \"#utility.yul\":8385:8389   */\n      0x00\n        /* \"#utility.yul\":8391:8397   */\n      dup1\n        /* \"#utility.yul\":8451:8462   */\n      dup4\n        /* \"#utility.yul\":8438:8463   */\n      calldataload\n        /* \"#utility.yul\":8545:8547   */\n      0x1e\n        /* \"#utility.yul\":8541:8548   */\n      not\n        /* \"#utility.yul\":8530:8538   */\n      dup5\n        /* \"#utility.yul\":8514:8528   */\n      calldatasize\n        /* \"#utility.yul\":8510:8539   */\n      sub\n        /* \"#utility.yul\":8506:8549   */\n      add\n        /* \"#utility.yul\":8486:8504   */\n      dup2\n        /* \"#utility.yul\":8482:8550   */\n      slt\n        /* \"#utility.yul\":8472:8568   */\n      tag_459\n      jumpi\n        /* \"#utility.yul\":8564:8565   */\n      0x00\n        /* \"#utility.yul\":8561:8562   */\n      dup1\n        /* \"#utility.yul\":8554:8566   */\n      revert\n        /* \"#utility.yul\":8472:8568   */\n    tag_459:\n        /* \"#utility.yul\":8591:8624   */\n      dup4\n      add\n        /* \"#utility.yul\":8643:8663   */\n      dup1\n      calldataload\n      swap2\n      pop\n        /* \"#utility.yul\":8686:8704   */\n      0xffffffffffffffff\n        /* \"#utility.yul\":8675:8705   */\n      dup3\n      gt\n        /* \"#utility.yul\":8672:8722   */\n      iszero\n      tag_460\n      jumpi\n        /* \"#utility.yul\":8718:8719   */\n      0x00\n        /* \"#utility.yul\":8715:8716   */\n      dup1\n        /* \"#utility.yul\":8708:8720   */\n      revert\n        /* \"#utility.yul\":8672:8722   */\n    tag_460:\n        /* \"#utility.yul\":8751:8755   */\n      0x20\n        /* \"#utility.yul\":8739:8756   */\n      add\n      swap2\n      pop\n        /* \"#utility.yul\":8782:8796   */\n      calldatasize\n        /* \"#utility.yul\":8778:8805   */\n      dup2\n      swap1\n      sub\n        /* \"#utility.yul\":8768:8806   */\n      dup3\n      sgt\n        /* \"#utility.yul\":8765:8823   */\n      iszero\n      tag_412\n      jumpi\n        /* \"#utility.yul\":8819:8820   */\n      0x00\n        /* \"#utility.yul\":8816:8817   */\n      dup1\n        /* \"#utility.yul\":8809:8821   */\n      revert\n        /* \"#utility.yul\":8834:9107   */\n    tag_244:\n        /* \"#utility.yul\":9019:9025   */\n      dup2\n        /* \"#utility.yul\":9011:9017   */\n      dup4\n        /* \"#utility.yul\":9006:9009   */\n      dup3\n        /* \"#utility.yul\":8993:9026   */\n      calldatacopy\n        /* \"#utility.yul\":8975:8978   */\n      0x00\n        /* \"#utility.yul\":9045:9061   */\n      swap2\n      add\n        /* \"#utility.yul\":9070:9083   */\n      swap1\n      dup2\n      mstore\n        /* \"#utility.yul\":9045:9061   */\n      swap2\n        /* \"#utility.yul\":8834:9107   */\n      swap1\n      pop\n      jump\t// out\n        /* \"#utility.yul\":11253:11742   */\n    tag_292:\n        /* \"#utility.yul\":11430:11436   */\n      dup3\n        /* \"#utility.yul\":11419:11428   */\n      dup2\n        /* \"#utility.yul\":11412:11437   */\n      mstore\n        /* \"#utility.yul\":11473:11475   */\n      0x40\n        /* \"#utility.yul\":11468:11470   */\n      0x20\n        /* \"#utility.yul\":11457:11466   */\n      dup3\n        /* \"#utility.yul\":11453:11471   */\n      add\n        /* \"#utility.yul\":11446:11476   */\n      mstore\n        /* \"#utility.yul\":11393:11397   */\n      0x00\n        /* \"#utility.yul\":11505:11511   */\n      dup3\n        /* \"#utility.yul\":11499:11512   */\n      mload\n        /* \"#utility.yul\":11548:11554   */\n      dup1\n        /* \"#utility.yul\":11543:11545   */\n      0x40\n        /* \"#utility.yul\":11532:11541   */\n      dup5\n        /* \"#utility.yul\":11528:11546   */\n      add\n        /* \"#utility.yul\":11521:11555   */\n      mstore\n        /* \"#utility.yul\":11607:11613   */\n      dup1\n        /* \"#utility.yul\":11602:11604   */\n      0x20\n        /* \"#utility.yul\":11594:11600   */\n      dup6\n        /* \"#utility.yul\":11590:11605   */\n      add\n        /* \"#utility.yul\":11585:11587   */\n      0x60\n        /* \"#utility.yul\":11574:11583   */\n      dup6\n        /* \"#utility.yul\":11570:11588   */\n      add\n        /* \"#utility.yul\":11564:11614   */\n      mcopy\n        /* \"#utility.yul\":11663:11664   */\n      0x00\n        /* \"#utility.yul\":11658:11660   */\n      0x60\n        /* \"#utility.yul\":11649:11655   */\n      dup3\n        /* \"#utility.yul\":11638:11647   */\n      dup6\n        /* \"#utility.yul\":11634:11656   */\n      add\n        /* \"#utility.yul\":11630:11661   */\n      add\n        /* \"#utility.yul\":11623:11665   */\n      mstore\n        /* \"#utility.yul\":11733:11735   */\n      0x60\n        /* \"#utility.yul\":11726:11728   */\n      0x1f\n        /* \"#utility.yul\":11722:11729   */\n      not\n        /* \"#utility.yul\":11717:11719   */\n      0x1f\n        /* \"#utility.yul\":11709:11715   */\n      dup4\n        /* \"#utility.yul\":11705:11720   */\n      add\n        /* \"#utility.yul\":11701:11730   */\n      and\n        /* \"#utility.yul\":11690:11699   */\n      dup5\n        /* \"#utility.yul\":11686:11731   */\n      add\n        /* \"#utility.yul\":11682:11736   */\n      add\n        /* \"#utility.yul\":11674:11736   */\n      swap2\n      pop\n      pop\n        /* \"#utility.yul\":11253:11742   */\n      swap4\n      swap3\n      pop\n      pop\n      pop\n      jump\t// out\n        /* \"#utility.yul\":12091:12259   */\n    tag_333:\n        /* \"#utility.yul\":12164:12173   */\n      dup1\n      dup3\n      mul\n        /* \"#utility.yul\":12195:12204   */\n      dup2\n      iszero\n        /* \"#utility.yul\":12212:12227   */\n      dup3\n      dup3\n      div\n        /* \"#utility.yul\":12206:12228   */\n      dup5\n      eq\n        /* \"#utility.yul\":12192:12229   */\n      or\n        /* \"#utility.yul\":12182:12253   */\n      tag_328\n      jumpi\n        /* \"#utility.yul\":12233:12251   */\n      tag_328\n      tag_398\n      jump\t// in\n        /* \"#utility.yul\":12264:12481   */\n    tag_335:\n        /* \"#utility.yul\":12304:12305   */\n      0x00\n        /* \"#utility.yul\":12330:12331   */\n      dup3\n        /* \"#utility.yul\":12320:12452   */\n      tag_475\n      jumpi\n        /* \"#utility.yul\":12374:12384   */\n      0x4e487b71\n        /* \"#utility.yul\":12369:12372   */\n      0xe0\n        /* \"#utility.yul\":12365:12385   */\n      shl\n        /* \"#utility.yul\":12362:12363   */\n      0x00\n        /* \"#utility.yul\":12355:12386   */\n      mstore\n        /* \"#utility.yul\":12409:12413   */\n      0x12\n        /* \"#utility.yul\":12406:12407   */\n      0x04\n        /* \"#utility.yul\":12399:12414   */\n      mstore\n        /* \"#utility.yul\":12437:12441   */\n      0x24\n        /* \"#utility.yul\":12434:12435   */\n      0x00\n        /* \"#utility.yul\":12427:12442   */\n      revert\n        /* \"#utility.yul\":12320:12452   */\n    tag_475:\n      pop\n        /* \"#utility.yul\":12466:12475   */\n      div\n      swap1\n        /* \"#utility.yul\":12264:12481   */\n      jump\t// out\n        /* \"#utility.yul\":12486:12789   */\n    tag_337:\n        /* \"#utility.yul\":12617:12620   */\n      0x00\n        /* \"#utility.yul\":12655:12661   */\n      dup3\n        /* \"#utility.yul\":12649:12662   */\n      mload\n        /* \"#utility.yul\":12701:12707   */\n      dup1\n        /* \"#utility.yul\":12694:12698   */\n      0x20\n        /* \"#utility.yul\":12686:12692   */\n      dup6\n        /* \"#utility.yul\":12682:12699   */\n      add\n        /* \"#utility.yul\":12677:12680   */\n      dup5\n        /* \"#utility.yul\":12671:12708   */\n      mcopy\n        /* \"#utility.yul\":12763:12764   */\n      0x00\n        /* \"#utility.yul\":12727:12743   */\n      swap3\n      add\n        /* \"#utility.yul\":12752:12765   */\n      swap2\n      dup3\n      mstore\n      pop\n        /* \"#utility.yul\":12727:12743   */\n      swap2\n        /* \"#utility.yul\":12486:12789   */\n      swap1\n      pop\n      jump\t// out\n        /* \"#utility.yul\":12794:12973   */\n    tag_399:\n        /* \"#utility.yul\":12872:12885   */\n      dup1\n      mload\n        /* \"#utility.yul\":12925:12947   */\n      0xffffffffffffffffffff\n        /* \"#utility.yul\":12914:12948   */\n      dup2\n      and\n        /* \"#utility.yul\":12904:12949   */\n      dup2\n      eq\n        /* \"#utility.yul\":12894:12967   */\n      tag_218\n      jumpi\n        /* \"#utility.yul\":12963:12964   */\n      0x00\n        /* \"#utility.yul\":12960:12961   */\n      dup1\n        /* \"#utility.yul\":12953:12965   */\n      revert\n        /* \"#utility.yul\":12978:13549   */\n    tag_341:\n        /* \"#utility.yul\":13081:13087   */\n      0x00\n        /* \"#utility.yul\":13089:13095   */\n      dup1\n        /* \"#utility.yul\":13097:13103   */\n      0x00\n        /* \"#utility.yul\":13105:13111   */\n      dup1\n        /* \"#utility.yul\":13113:13119   */\n      0x00\n        /* \"#utility.yul\":13166:13169   */\n      0xa0\n        /* \"#utility.yul\":13154:13163   */\n      dup7\n        /* \"#utility.yul\":13145:13152   */\n      dup9\n        /* \"#utility.yul\":13141:13164   */\n      sub\n        /* \"#utility.yul\":13137:13170   */\n      slt\n        /* \"#utility.yul\":13134:13187   */\n      iszero\n      tag_480\n      jumpi\n        /* \"#utility.yul\":13183:13184   */\n      0x00\n        /* \"#utility.yul\":13180:13181   */\n      dup1\n        /* \"#utility.yul\":13173:13185   */\n      revert\n        /* \"#utility.yul\":13134:13187   */\n    tag_480:\n        /* \"#utility.yul\":13206:13245   */\n      tag_481\n        /* \"#utility.yul\":13235:13244   */\n      dup7\n        /* \"#utility.yul\":13206:13245   */\n      tag_399\n      jump\t// in\n    tag_481:\n        /* \"#utility.yul\":13285:13287   */\n      0x20\n        /* \"#utility.yul\":13270:13288   */\n      dup8\n      add\n        /* \"#utility.yul\":13264:13289   */\n      mload\n        /* \"#utility.yul\":13351:13353   */\n      0x40\n        /* \"#utility.yul\":13336:13354   */\n      dup9\n      add\n        /* \"#utility.yul\":13330:13355   */\n      mload\n        /* \"#utility.yul\":13445:13447   */\n      0x60\n        /* \"#utility.yul\":13430:13448   */\n      dup10\n      add\n        /* \"#utility.yul\":13424:13449   */\n      mload\n        /* \"#utility.yul\":13196:13245   */\n      swap3\n      swap8\n      pop\n        /* \"#utility.yul\":13264:13289   */\n      swap1\n      swap6\n      pop\n        /* \"#utility.yul\":13330:13355   */\n      swap4\n      pop\n        /* \"#utility.yul\":13424:13449   */\n      swap2\n      pop\n        /* \"#utility.yul\":13494:13543   */\n      tag_482\n        /* \"#utility.yul\":13538:13541   */\n      0x80\n        /* \"#utility.yul\":13523:13542   */\n      dup8\n      add\n        /* \"#utility.yul\":13494:13543   */\n      tag_399\n      jump\t// in\n    tag_482:\n        /* \"#utility.yul\":13484:13543   */\n      swap1\n      pop\n        /* \"#utility.yul\":12978:13549   */\n      swap3\n      swap6\n      pop\n      swap3\n      swap6\n      swap1\n      swap4\n      pop\n      jump\t// out\n        /* \"#utility.yul\":13554:13682   */\n    tag_363:\n        /* \"#utility.yul\":13621:13630   */\n      dup2\n      dup2\n      sub\n        /* \"#utility.yul\":13642:13653   */\n      dup2\n      dup2\n      gt\n        /* \"#utility.yul\":13639:13676   */\n      iszero\n      tag_328\n      jumpi\n        /* \"#utility.yul\":13656:13674   */\n      tag_328\n      tag_398\n      jump\t// in\n        /* \"#utility.yul\":13687:13822   */\n    tag_366:\n        /* \"#utility.yul\":13726:13729   */\n      0x00\n        /* \"#utility.yul\":13747:13764   */\n      0x01\n      dup3\n      add\n        /* \"#utility.yul\":13744:13787   */\n      tag_488\n      jumpi\n        /* \"#utility.yul\":13767:13785   */\n      tag_488\n      tag_398\n      jump\t// in\n    tag_488:\n      pop\n        /* \"#utility.yul\":13814:13815   */\n      0x01\n        /* \"#utility.yul\":13803:13816   */\n      add\n      swap1\n        /* \"#utility.yul\":13687:13822   */\n      jump\t// out\n\n    auxdata: 0xa26469706673582212203f93bbae42dbf0e9061ecaa5652721ffb332e41dee419bdc32033c3cbeee50e864736f6c634300081a0033\n}\n",
				"bytecode": {
					"linkReferences": {},
					"object": "60806040526005805460ff60a01b1916905534801561001c575f80fd5b50604051611d66380380611d6683398101604081905261003b916104ff565b338061006057604051631e4fbdf760e01b81525f600482015260240160405180910390fd5b610069816100bb565b5060018055600380546001600160a01b038086166001600160a01b0319928316179092556004805485841690831617905560058054928416929091169190911790556100b361010a565b50505061055d565b5f80546001600160a01b038381166001600160a01b0319831681178455604051919092169283917f8be0079c531659141344cd1fd0a4f28419497f9722a3daafe3b4186f6b6457e09190a35050565b6040518060800160405280600181526020016a01d693012228a4c840000081526020015f81526020015f81525060065f6009811061014a5761014a610549565b600402015f820151815f01556020820151816001015560408201518160020155606082015181600301559050506040518060800160405280600581526020016a01d692e560bb3d7978000081526020015f81526020015f81525060066001600981106101b8576101b8610549565b600402015f820151815f01556020820151816001015560408201518160020155606082015181600301559050506040518060800160405280600a81526020016a01d692e560bb3d7978000081526020015f81526020015f815250600660026009811061022657610226610549565b600402015f820151815f01556020820151816001015560408201518160020155606082015181600301559050506040518060800160405280600f81526020016a01d692e560bb3d7978000081526020015f81526020015f815250600660036009811061029457610294610549565b600402015f820151815f01556020820151816001015560408201518160020155606082015181600301559050506040518060800160405280601481526020016a01d692e560bb3d7978000081526020015f81526020015f815250600660046009811061030257610302610549565b600402015f820151815f01556020820151816001015560408201518160020155606082015181600301559050506040518060800160405280601981526020016a01d692e560bb3d7978000081526020015f81526020015f815250600660056009811061037057610370610549565b600402015f820151815f01556020820151816001015560408201518160020155606082015181600301559050506040518060800160405280601e81526020016a01d692e560bb3d7978000081526020015f81526020015f815250600680600981106103dd576103dd610549565b600402015f820151815f01556020820151816001015560408201518160020155606082015181600301559050506040518060800160405280602381526020016a01d692e560bb3d7978000081526020015f81526020015f815250600660076009811061044b5761044b610549565b600402015f820151815f01556020820151816001015560408201518160020155606082015181600301559050506040518060800160405280602881526020016a01d692e560bb3d7978000081526020015f81526020015f81525060066008600981106104b9576104b9610549565b600402015f820151815f0155602082015181600101556040820151816002015560608201518160030155905050565b6001600160a01b03811681146104fc575f80fd5b50565b5f805f60608486031215610511575f80fd5b835161051c816104e8565b602085015190935061052d816104e8565b604085015190925061053e816104e8565b809150509250925092565b634e487b7160e01b5f52603260045260245ffd5b6117fc8061056a5f395ff3fe6080604052600436106101af575f3560e01c806367faa4b6116100e75780638e17c01711610087578063e18132c411610062578063e18132c41461049c578063eedbe31d146104b2578063f2fde38b146104c6578063f94f983a146104e5575f80fd5b80638e17c01714610449578063a5aec84614610468578063a82524b214610487575f80fd5b806373b2e80e116100c257806373b2e80e146103a1578063841e4561146103cf578063845ddcb2146103ee5780638da5cb5b1461042d575f80fd5b806367faa4b61461035b5780636e14600f1461036e578063715018a61461038d575f80fd5b80633ea92d731161015257806354c4152e1161012d57806354c4152e146102f457806359ac5e18146103085780635bf5d54c1461032757806361d027b31461033c575f80fd5b80633ea92d73146102b65780633f957b0d146102ca57806351f9efde146102de575f80fd5b80631a8a63eb1161018d5780631a8a63eb146102125780631c2dda481461024b578063249b7c19146102825780633ca5b23414610297575f80fd5b806304c98b2b146101b35780630c454721146101c95780630f1c7769146101fe575b5f80fd5b3480156101be575f80fd5b506101c7610525565b005b3480156101d4575f80fd5b506005546101e990600160a01b900460ff1681565b60405190151581526020015b60405180910390f35b348015610209575f80fd5b506101c76105ed565b34801561021d575f80fd5b5061023d61022c3660046113fd565b602d6020525f908152604090205481565b6040519081526020016101f5565b348015610256575f80fd5b5060025461026a906001600160a01b031681565b6040516001600160a01b0390911681526020016101f5565b34801561028d575f80fd5b5061023d602c5481565b3480156102a2575f80fd5b5060035461026a906001600160a01b031681565b3480156102c1575f80fd5b5061023d600981565b3480156102d5575f80fd5b506101c76106e3565b3480156102e9575f80fd5b5061023d6234bc0081565b3480156102ff575f80fd5b5061023d610954565b348015610313575f80fd5b506101c7610322366004611460565b6109b2565b348015610332575f80fd5b5061023d602a5481565b348015610347575f80fd5b5060045461026a906001600160a01b031681565b6101c761036936600461156b565b610a96565b348015610379575f80fd5b506101c76103883660046113fd565b610f52565b348015610398575f80fd5b506101c7610f7c565b3480156103ac575f80fd5b506101e96103bb3660046113fd565b602e6020525f908152604090205460ff1681565b3480156103da575f80fd5b506101c76103e93660046113fd565b610f8f565b3480156103f9575f80fd5b5061040d6104083660046115af565b611001565b6040805194855260208501939093529183015260608201526080016101f5565b348015610438575f80fd5b505f546001600160a01b031661026a565b348015610454575f80fd5b506101c76104633660046113fd565b61102e565b348015610473575f80fd5b5061023d61048236600461156b565b6110a0565b348015610492575f80fd5b5061023d602b5481565b3480156104a7575f80fd5b5061023d6202a30081565b3480156104bd575f80fd5b50602a5461023d565b3480156104d1575f80fd5b506101c76104e03660046113fd565b6111a3565b3480156104f0575f80fd5b5061026a6104ff3660046115c6565b8051602081830181018051602f825292820191909301209152546001600160a01b031681565b61052d6111dd565b602b54156105825760405162461bcd60e51b815260206004820152601760248201527f50726573616c6520616c7265616479207374617274656400000000000000000060448201526064015b60405180910390fd5b42602b8190555f602a55600881905561059f906234bc0090611628565b6006602a54600981106105b4576105b4611600565b60040201600301819055507f17c3338141363aab2512c08f8a7764328ca95979f7057663eb93f7e250139b4c60405160405180910390a1565b6105f56111dd565b602c5442116106405760405162461bcd60e51b815260206004820152601760248201527650726573616c65206973207374696c6c2061637469766560481b6044820152606401610579565b5f610649610954565b905080156106e0576002546004805460405163a9059cbb60e01b81526001600160a01b0391821692810192909252602482018490529091169063a9059cbb906044016020604051808303815f875af11580156106a7573d5f803e3d5ffd5b505050506040513d601f19601f820116820180604052508101906106cb919061163b565b506005805460ff60a01b1916600160a01b1790555b50565b602c54421161072e5760405162461bcd60e51b815260206004820152601760248201527650726573616c65206973207374696c6c2061637469766560481b6044820152606401610579565b6002600154036107805760405162461bcd60e51b815260206004820152601f60248201527f5265656e7472616e637947756172643a207265656e7472616e742063616c6c006044820152606401610579565b6002600155602954610796906202a30090611628565b42116107e45760405162461bcd60e51b815260206004820152601860248201527f436c61696d20706572696f64206e6f74207374617274656400000000000000006044820152606401610579565b335f908152602e602052604090205460ff161561083b5760405162461bcd60e51b815260206004820152601560248201527411d15414dcc8185b1c9958591e4818db185a5b5959605a1b6044820152606401610579565b335f908152602d60205260409020548061088b5760405162461bcd60e51b81526020600482015260116024820152704e6f20474550537320746f20636c61696d60781b6044820152606401610579565b335f818152602e602052604090819020805460ff19166001179055600254905163a9059cbb60e01b81526004810192909252602482018390526001600160a01b03169063a9059cbb906044016020604051808303815f875af11580156108f3573d5f803e3d5ffd5b505050506040513d601f19601f82011682018060405250810190610917919061163b565b5060405181815233907f7a99cb7540e04f139e8bec2b914b561065e30819c986d0594db010eb76e23a2e9060200160405180910390a25060018055565b6005545f908190600160a01b900460ff166109ad575f5b60098110156109ab576109a16006826009811061098a5761098a611600565b60040201600101548361120990919063ffffffff16565b915060010161096b565b505b919050565b6109ba6111dd565b8281146109f35760405162461bcd60e51b8152602060048201526007602482015266504643523a303160c81b6044820152606401610579565b5f5b83811015610a8f57828282818110610a0f57610a0f611600565b9050602002016020810190610a2491906113fd565b602f868684818110610a3857610a38611600565b9050602002810190610a4a919061165a565b604051610a5892919061169d565b90815260405190819003602001902080546001600160a01b03929092166001600160a01b03199092169190911790556001016109f5565b5050505050565b600260015403610ae85760405162461bcd60e51b815260206004820152601f60248201527f5265656e7472616e637947756172643a207265656e7472616e742063616c6c006044820152606401610579565b6002600155602b545f03610b345760405162461bcd60e51b8152602060048201526013602482015272141c995cd85b1948139bdd081cdd185c9d1959606a1b6044820152606401610579565b5f8211610b835760405162461bcd60e51b815260206004820181905260248201527f416d6f756e74206d7573742062652067726561746572207468616e207a65726f6044820152606401610579565b426006602a5460098110610b9957610b99611600565b600402016003015411610c2d57602a54600803610c2557426006602a5460098110610bc657610bc6611600565b60040201600301819055506006602a5460098110610be657610be6611600565b6004020160030154602c819055507f1eb1561f8507eb9bc6988331f66f369e75710f2b4b678ad5b4a52454b6636f5f60405160405180910390a1610c2d565b610c2d61121b565b5f610c3883836110a0565b60408051808201909152600381526221272160e91b6020918201528351908401209091507fc12fc3c71a6239f384963d5b409706deb5326acdad4a56f170a0a6a7c1643c5201610d075782341015610cca5760405162461bcd60e51b8152602060048201526015602482015274125b9cdd59999a58da595b9d08109390881cd95b9d605a1b6044820152606401610579565b6005546040516001600160a01b039091169084156108fc029085905f818181858888f19350505050158015610d01573d5f803e3d5ffd5b50610e52565b604080518082019091526004815263109554d160e21b6020918201528251908301207fab3aed538869b898d472fd1d01d23ef086440e608e62778dde969dea02db160f01610e13576003546005546040516323b872dd60e01b81523360048201526001600160a01b039182166024820152604481018690529116906323b872dd906064016020604051808303815f875af1158015610da7573d5f803e3d5ffd5b505050506040513d601f19601f82011682018060405250810190610dcb919061163b565b610e0e5760405162461bcd60e51b8152602060048201526014602482015273109554d1081d1c985b9cd9995c8819985a5b195960621b6044820152606401610579565b610e52565b60405162461bcd60e51b8152602060048201526014602482015273556e737570706f727465642063757272656e637960601b6044820152606401610579565b610e5c3382611296565b336001600160a01b03167f97b8e46ce6a858394214fb0002594294805c68b044a2105798d860d0f922451a8284604051610e979291906116ac565b60405180910390a26006602a5460098110610eb457610eb4611600565b60040201600101545f03610f4957602a54600803610f4157426006602a5460098110610ee257610ee2611600565b60040201600301819055506006602a5460098110610f0257610f02611600565b6004020160030154602c819055507f1eb1561f8507eb9bc6988331f66f369e75710f2b4b678ad5b4a52454b6636f5f60405160405180910390a1610f49565b610f4961121b565b50506001805550565b610f5a6111dd565b600280546001600160a01b0319166001600160a01b0392909216919091179055565b610f846111dd565b610f8d5f61138f565b565b610f976111dd565b6001600160a01b038116610fdf5760405162461bcd60e51b815260206004820152600f60248201526e496e76616c6964206164647265737360881b6044820152606401610579565b600480546001600160a01b0319166001600160a01b0392909216919091179055565b60068160098110611010575f80fd5b60040201805460018201546002830154600390930154919350919084565b6110366111dd565b6001600160a01b03811661107e5760405162461bcd60e51b815260206004820152600f60248201526e496e76616c6964206164647265737360881b6044820152606401610579565b600580546001600160a01b0319166001600160a01b0392909216919091179055565b5f8060646006602a54600981106110b9576110b9611600565b60040201546110d090670de0b6b3a76400006116e8565b6110da91906116ff565b90505f602f846040516110ed919061171e565b9081526040805191829003602001822054633fabe5a360e21b835290516001600160a01b03909116925082915f91839163feaf968c9160048083019260a09291908290030181865afa158015611145573d5f803e3d5ffd5b505050506040513d601f19601f82011682018060405250810190611169919061174d565b5050509150505f816402540be40061118191906116e8565b61118b868a6116ff565b61119591906116e8565b955050505050505b92915050565b6111ab6111dd565b6001600160a01b0381166111d457604051631e4fbdf760e01b81525f6004820152602401610579565b6106e08161138f565b5f546001600160a01b03163314610f8d5760405163118cdaa760e01b8152336004820152602401610579565b5f6112148284611628565b9392505050565b6112276001600961179b565b602a541015610f8d57602a8054905f61123f836117ae565b9190505550426006602a546009811061125a5761125a611600565b60040201600201819055506234bc00426112749190611628565b6006602a546009811061128957611289611600565b6004020160030181905550565b806006602a54600981106112ac576112ac611600565b600402016001015410156113025760405162461bcd60e51b815260206004820152601a60248201527f4e6f7420656e6f75676820474550537320617661696c61626c650000000000006044820152606401610579565b611331816006602a546009811061131b5761131b611600565b60040201600101546113de90919063ffffffff16565b6006602a546009811061134657611346611600565b60040201600101556001600160a01b0382165f908152602d60205260409020546113709082611209565b6001600160a01b039092165f908152602d602052604090209190915550565b5f80546001600160a01b038381166001600160a01b0319831681178455604051919092169283917f8be0079c531659141344cd1fd0a4f28419497f9722a3daafe3b4186f6b6457e09190a35050565b5f611214828461179b565b6001600160a01b03811681146106e0575f80fd5b5f6020828403121561140d575f80fd5b8135611214816113e9565b5f8083601f840112611428575f80fd5b50813567ffffffffffffffff81111561143f575f80fd5b6020830191508360208260051b8501011115611459575f80fd5b9250929050565b5f805f8060408587031215611473575f80fd5b843567ffffffffffffffff811115611489575f80fd5b61149587828801611418565b909550935050602085013567ffffffffffffffff8111156114b4575f80fd5b6114c087828801611418565b95989497509550505050565b634e487b7160e01b5f52604160045260245ffd5b5f82601f8301126114ef575f80fd5b813567ffffffffffffffff811115611509576115096114cc565b604051601f8201601f19908116603f0116810167ffffffffffffffff81118282101715611538576115386114cc565b60405281815283820160200185101561154f575f80fd5b816020850160208301375f918101602001919091529392505050565b5f806040838503121561157c575f80fd5b82359150602083013567ffffffffffffffff811115611599575f80fd5b6115a5858286016114e0565b9150509250929050565b5f602082840312156115bf575f80fd5b5035919050565b5f602082840312156115d6575f80fd5b813567ffffffffffffffff8111156115ec575f80fd5b6115f8848285016114e0565b949350505050565b634e487b7160e01b5f52603260045260245ffd5b634e487b7160e01b5f52601160045260245ffd5b8082018082111561119d5761119d611614565b5f6020828403121561164b575f80fd5b81518015158114611214575f80fd5b5f808335601e1984360301811261166f575f80fd5b83018035915067ffffffffffffffff821115611689575f80fd5b602001915036819003821315611459575f80fd5b818382375f9101908152919050565b828152604060208201525f82518060408401528060208501606085015e5f606082850101526060601f19601f8301168401019150509392505050565b808202811582820484141761119d5761119d611614565b5f8261171957634e487b7160e01b5f52601260045260245ffd5b500490565b5f82518060208501845e5f920191825250919050565b805169ffffffffffffffffffff811681146109ad575f80fd5b5f805f805f60a08688031215611761575f80fd5b61176a86611734565b6020870151604088015160608901519297509095509350915061178f60808701611734565b90509295509295909350565b8181038181111561119d5761119d611614565b5f600182016117bf576117bf611614565b506001019056fea26469706673582212203f93bbae42dbf0e9061ecaa5652721ffb332e41dee419bdc32033c3cbeee50e864736f6c634300081a0033",
					"opcodes": "PUSH1 0x80 PUSH1 0x40 MSTORE PUSH1 0x5 DUP1 SLOAD PUSH1 0xFF PUSH1 0xA0 SHL NOT AND SWAP1 SSTORE CALLVALUE DUP1 ISZERO PUSH2 0x1C JUMPI PUSH0 DUP1 REVERT JUMPDEST POP PUSH1 0x40 MLOAD PUSH2 0x1D66 CODESIZE SUB DUP1 PUSH2 0x1D66 DUP4 CODECOPY DUP2 ADD PUSH1 0x40 DUP2 SWAP1 MSTORE PUSH2 0x3B SWAP2 PUSH2 0x4FF JUMP JUMPDEST CALLER DUP1 PUSH2 0x60 JUMPI PUSH1 0x40 MLOAD PUSH4 0x1E4FBDF7 PUSH1 0xE0 SHL DUP2 MSTORE PUSH0 PUSH1 0x4 DUP3 ADD MSTORE PUSH1 0x24 ADD PUSH1 0x40 MLOAD DUP1 SWAP2 SUB SWAP1 REVERT JUMPDEST PUSH2 0x69 DUP2 PUSH2 0xBB JUMP JUMPDEST POP PUSH1 0x1 DUP1 SSTORE PUSH1 0x3 DUP1 SLOAD PUSH1 0x1 PUSH1 0x1 PUSH1 0xA0 SHL SUB DUP1 DUP7 AND PUSH1 0x1 PUSH1 0x1 PUSH1 0xA0 SHL SUB NOT SWAP3 DUP4 AND OR SWAP1 SWAP3 SSTORE PUSH1 0x4 DUP1 SLOAD DUP6 DUP5 AND SWAP1 DUP4 AND OR SWAP1 SSTORE PUSH1 0x5 DUP1 SLOAD SWAP3 DUP5 AND SWAP3 SWAP1 SWAP2 AND SWAP2 SWAP1 SWAP2 OR SWAP1 SSTORE PUSH2 0xB3 PUSH2 0x10A JUMP JUMPDEST POP POP POP PUSH2 0x55D JUMP JUMPDEST PUSH0 DUP1 SLOAD PUSH1 0x1 PUSH1 0x1 PUSH1 0xA0 SHL SUB DUP4 DUP2 AND PUSH1 0x1 PUSH1 0x1 PUSH1 0xA0 SHL SUB NOT DUP4 AND DUP2 OR DUP5 SSTORE PUSH1 0x40 MLOAD SWAP2 SWAP1 SWAP3 AND SWAP3 DUP4 SWAP2 PUSH32 0x8BE0079C531659141344CD1FD0A4F28419497F9722A3DAAFE3B4186F6B6457E0 SWAP2 SWAP1 LOG3 POP POP JUMP JUMPDEST PUSH1 0x40 MLOAD DUP1 PUSH1 0x80 ADD PUSH1 0x40 MSTORE DUP1 PUSH1 0x1 DUP2 MSTORE PUSH1 0x20 ADD PUSH11 0x1D693012228A4C8400000 DUP2 MSTORE PUSH1 0x20 ADD PUSH0 DUP2 MSTORE PUSH1 0x20 ADD PUSH0 DUP2 MSTORE POP PUSH1 0x6 PUSH0 PUSH1 0x9 DUP2 LT PUSH2 0x14A JUMPI PUSH2 0x14A PUSH2 0x549 JUMP JUMPDEST PUSH1 0x4 MUL ADD PUSH0 DUP3 ADD MLOAD DUP2 PUSH0 ADD SSTORE PUSH1 0x20 DUP3 ADD MLOAD DUP2 PUSH1 0x1 ADD SSTORE PUSH1 0x40 DUP3 ADD MLOAD DUP2 PUSH1 0x2 ADD SSTORE PUSH1 0x60 DUP3 ADD MLOAD DUP2 PUSH1 0x3 ADD SSTORE SWAP1 POP POP PUSH1 0x40 MLOAD DUP1 PUSH1 0x80 ADD PUSH1 0x40 MSTORE DUP1 PUSH1 0x5 DUP2 MSTORE PUSH1 0x20 ADD PUSH11 0x1D692E560BB3D79780000 DUP2 MSTORE PUSH1 0x20 ADD PUSH0 DUP2 MSTORE PUSH1 0x20 ADD PUSH0 DUP2 MSTORE POP PUSH1 0x6 PUSH1 0x1 PUSH1 0x9 DUP2 LT PUSH2 0x1B8 JUMPI PUSH2 0x1B8 PUSH2 0x549 JUMP JUMPDEST PUSH1 0x4 MUL ADD PUSH0 DUP3 ADD MLOAD DUP2 PUSH0 ADD SSTORE PUSH1 0x20 DUP3 ADD MLOAD DUP2 PUSH1 0x1 ADD SSTORE PUSH1 0x40 DUP3 ADD MLOAD DUP2 PUSH1 0x2 ADD SSTORE PUSH1 0x60 DUP3 ADD MLOAD DUP2 PUSH1 0x3 ADD SSTORE SWAP1 POP POP PUSH1 0x40 MLOAD DUP1 PUSH1 0x80 ADD PUSH1 0x40 MSTORE DUP1 PUSH1 0xA DUP2 MSTORE PUSH1 0x20 ADD PUSH11 0x1D692E560BB3D79780000 DUP2 MSTORE PUSH1 0x20 ADD PUSH0 DUP2 MSTORE PUSH1 0x20 ADD PUSH0 DUP2 MSTORE POP PUSH1 0x6 PUSH1 0x2 PUSH1 0x9 DUP2 LT PUSH2 0x226 JUMPI PUSH2 0x226 PUSH2 0x549 JUMP JUMPDEST PUSH1 0x4 MUL ADD PUSH0 DUP3 ADD MLOAD DUP2 PUSH0 ADD SSTORE PUSH1 0x20 DUP3 ADD MLOAD DUP2 PUSH1 0x1 ADD SSTORE PUSH1 0x40 DUP3 ADD MLOAD DUP2 PUSH1 0x2 ADD SSTORE PUSH1 0x60 DUP3 ADD MLOAD DUP2 PUSH1 0x3 ADD SSTORE SWAP1 POP POP PUSH1 0x40 MLOAD DUP1 PUSH1 0x80 ADD PUSH1 0x40 MSTORE DUP1 PUSH1 0xF DUP2 MSTORE PUSH1 0x20 ADD PUSH11 0x1D692E560BB3D79780000 DUP2 MSTORE PUSH1 0x20 ADD PUSH0 DUP2 MSTORE PUSH1 0x20 ADD PUSH0 DUP2 MSTORE POP PUSH1 0x6 PUSH1 0x3 PUSH1 0x9 DUP2 LT PUSH2 0x294 JUMPI PUSH2 0x294 PUSH2 0x549 JUMP JUMPDEST PUSH1 0x4 MUL ADD PUSH0 DUP3 ADD MLOAD DUP2 PUSH0 ADD SSTORE PUSH1 0x20 DUP3 ADD MLOAD DUP2 PUSH1 0x1 ADD SSTORE PUSH1 0x40 DUP3 ADD MLOAD DUP2 PUSH1 0x2 ADD SSTORE PUSH1 0x60 DUP3 ADD MLOAD DUP2 PUSH1 0x3 ADD SSTORE SWAP1 POP POP PUSH1 0x40 MLOAD DUP1 PUSH1 0x80 ADD PUSH1 0x40 MSTORE DUP1 PUSH1 0x14 DUP2 MSTORE PUSH1 0x20 ADD PUSH11 0x1D692E560BB3D79780000 DUP2 MSTORE PUSH1 0x20 ADD PUSH0 DUP2 MSTORE PUSH1 0x20 ADD PUSH0 DUP2 MSTORE POP PUSH1 0x6 PUSH1 0x4 PUSH1 0x9 DUP2 LT PUSH2 0x302 JUMPI PUSH2 0x302 PUSH2 0x549 JUMP JUMPDEST PUSH1 0x4 MUL ADD PUSH0 DUP3 ADD MLOAD DUP2 PUSH0 ADD SSTORE PUSH1 0x20 DUP3 ADD MLOAD DUP2 PUSH1 0x1 ADD SSTORE PUSH1 0x40 DUP3 ADD MLOAD DUP2 PUSH1 0x2 ADD SSTORE PUSH1 0x60 DUP3 ADD MLOAD DUP2 PUSH1 0x3 ADD SSTORE SWAP1 POP POP PUSH1 0x40 MLOAD DUP1 PUSH1 0x80 ADD PUSH1 0x40 MSTORE DUP1 PUSH1 0x19 DUP2 MSTORE PUSH1 0x20 ADD PUSH11 0x1D692E560BB3D79780000 DUP2 MSTORE PUSH1 0x20 ADD PUSH0 DUP2 MSTORE PUSH1 0x20 ADD PUSH0 DUP2 MSTORE POP PUSH1 0x6 PUSH1 0x5 PUSH1 0x9 DUP2 LT PUSH2 0x370 JUMPI PUSH2 0x370 PUSH2 0x549 JUMP JUMPDEST PUSH1 0x4 MUL ADD PUSH0 DUP3 ADD MLOAD DUP2 PUSH0 ADD SSTORE PUSH1 0x20 DUP3 ADD MLOAD DUP2 PUSH1 0x1 ADD SSTORE PUSH1 0x40 DUP3 ADD MLOAD DUP2 PUSH1 0x2 ADD SSTORE PUSH1 0x60 DUP3 ADD MLOAD DUP2 PUSH1 0x3 ADD SSTORE SWAP1 POP POP PUSH1 0x40 MLOAD DUP1 PUSH1 0x80 ADD PUSH1 0x40 MSTORE DUP1 PUSH1 0x1E DUP2 MSTORE PUSH1 0x20 ADD PUSH11 0x1D692E560BB3D79780000 DUP2 MSTORE PUSH1 0x20 ADD PUSH0 DUP2 MSTORE PUSH1 0x20 ADD PUSH0 DUP2 MSTORE POP PUSH1 0x6 DUP1 PUSH1 0x9 DUP2 LT PUSH2 0x3DD JUMPI PUSH2 0x3DD PUSH2 0x549 JUMP JUMPDEST PUSH1 0x4 MUL ADD PUSH0 DUP3 ADD MLOAD DUP2 PUSH0 ADD SSTORE PUSH1 0x20 DUP3 ADD MLOAD DUP2 PUSH1 0x1 ADD SSTORE PUSH1 0x40 DUP3 ADD MLOAD DUP2 PUSH1 0x2 ADD SSTORE PUSH1 0x60 DUP3 ADD MLOAD DUP2 PUSH1 0x3 ADD SSTORE SWAP1 POP POP PUSH1 0x40 MLOAD DUP1 PUSH1 0x80 ADD PUSH1 0x40 MSTORE DUP1 PUSH1 0x23 DUP2 MSTORE PUSH1 0x20 ADD PUSH11 0x1D692E560BB3D79780000 DUP2 MSTORE PUSH1 0x20 ADD PUSH0 DUP2 MSTORE PUSH1 0x20 ADD PUSH0 DUP2 MSTORE POP PUSH1 0x6 PUSH1 0x7 PUSH1 0x9 DUP2 LT PUSH2 0x44B JUMPI PUSH2 0x44B PUSH2 0x549 JUMP JUMPDEST PUSH1 0x4 MUL ADD PUSH0 DUP3 ADD MLOAD DUP2 PUSH0 ADD SSTORE PUSH1 0x20 DUP3 ADD MLOAD DUP2 PUSH1 0x1 ADD SSTORE PUSH1 0x40 DUP3 ADD MLOAD DUP2 PUSH1 0x2 ADD SSTORE PUSH1 0x60 DUP3 ADD MLOAD DUP2 PUSH1 0x3 ADD SSTORE SWAP1 POP POP PUSH1 0x40 MLOAD DUP1 PUSH1 0x80 ADD PUSH1 0x40 MSTORE DUP1 PUSH1 0x28 DUP2 MSTORE PUSH1 0x20 ADD PUSH11 0x1D692E560BB3D79780000 DUP2 MSTORE PUSH1 0x20 ADD PUSH0 DUP2 MSTORE PUSH1 0x20 ADD PUSH0 DUP2 MSTORE POP PUSH1 0x6 PUSH1 0x8 PUSH1 0x9 DUP2 LT PUSH2 0x4B9 JUMPI PUSH2 0x4B9 PUSH2 0x549 JUMP JUMPDEST PUSH1 0x4 MUL ADD PUSH0 DUP3 ADD MLOAD DUP2 PUSH0 ADD SSTORE PUSH1 0x20 DUP3 ADD MLOAD DUP2 PUSH1 0x1 ADD SSTORE PUSH1 0x40 DUP3 ADD MLOAD DUP2 PUSH1 0x2 ADD SSTORE PUSH1 0x60 DUP3 ADD MLOAD DUP2 PUSH1 0x3 ADD SSTORE SWAP1 POP POP JUMP JUMPDEST PUSH1 0x1 PUSH1 0x1 PUSH1 0xA0 SHL SUB DUP2 AND DUP2 EQ PUSH2 0x4FC JUMPI PUSH0 DUP1 REVERT JUMPDEST POP JUMP JUMPDEST PUSH0 DUP1 PUSH0 PUSH1 0x60 DUP5 DUP7 SUB SLT ISZERO PUSH2 0x511 JUMPI PUSH0 DUP1 REVERT JUMPDEST DUP4 MLOAD PUSH2 0x51C DUP2 PUSH2 0x4E8 JUMP JUMPDEST PUSH1 0x20 DUP6 ADD MLOAD SWAP1 SWAP4 POP PUSH2 0x52D DUP2 PUSH2 0x4E8 JUMP JUMPDEST PUSH1 0x40 DUP6 ADD MLOAD SWAP1 SWAP3 POP PUSH2 0x53E DUP2 PUSH2 0x4E8 JUMP JUMPDEST DUP1 SWAP2 POP POP SWAP3 POP SWAP3 POP SWAP3 JUMP JUMPDEST PUSH4 0x4E487B71 PUSH1 0xE0 SHL PUSH0 MSTORE PUSH1 0x32 PUSH1 0x4 MSTORE PUSH1 0x24 PUSH0 REVERT JUMPDEST PUSH2 0x17FC DUP1 PUSH2 0x56A PUSH0 CODECOPY PUSH0 RETURN INVALID PUSH1 0x80 PUSH1 0x40 MSTORE PUSH1 0x4 CALLDATASIZE LT PUSH2 0x1AF JUMPI PUSH0 CALLDATALOAD PUSH1 0xE0 SHR DUP1 PUSH4 0x67FAA4B6 GT PUSH2 0xE7 JUMPI DUP1 PUSH4 0x8E17C017 GT PUSH2 0x87 JUMPI DUP1 PUSH4 0xE18132C4 GT PUSH2 0x62 JUMPI DUP1 PUSH4 0xE18132C4 EQ PUSH2 0x49C JUMPI DUP1 PUSH4 0xEEDBE31D EQ PUSH2 0x4B2 JUMPI DUP1 PUSH4 0xF2FDE38B EQ PUSH2 0x4C6 JUMPI DUP1 PUSH4 0xF94F983A EQ PUSH2 0x4E5 JUMPI PUSH0 DUP1 REVERT JUMPDEST DUP1 PUSH4 0x8E17C017 EQ PUSH2 0x449 JUMPI DUP1 PUSH4 0xA5AEC846 EQ PUSH2 0x468 JUMPI DUP1 PUSH4 0xA82524B2 EQ PUSH2 0x487 JUMPI PUSH0 DUP1 REVERT JUMPDEST DUP1 PUSH4 0x73B2E80E GT PUSH2 0xC2 JUMPI DUP1 PUSH4 0x73B2E80E EQ PUSH2 0x3A1 JUMPI DUP1 PUSH4 0x841E4561 EQ PUSH2 0x3CF JUMPI DUP1 PUSH4 0x845DDCB2 EQ PUSH2 0x3EE JUMPI DUP1 PUSH4 0x8DA5CB5B EQ PUSH2 0x42D JUMPI PUSH0 DUP1 REVERT JUMPDEST DUP1 PUSH4 0x67FAA4B6 EQ PUSH2 0x35B JUMPI DUP1 PUSH4 0x6E14600F EQ PUSH2 0x36E JUMPI DUP1 PUSH4 0x715018A6 EQ PUSH2 0x38D JUMPI PUSH0 DUP1 REVERT JUMPDEST DUP1 PUSH4 0x3EA92D73 GT PUSH2 0x152 JUMPI DUP1 PUSH4 0x54C4152E GT PUSH2 0x12D JUMPI DUP1 PUSH4 0x54C4152E EQ PUSH2 0x2F4 JUMPI DUP1 PUSH4 0x59AC5E18 EQ PUSH2 0x308 JUMPI DUP1 PUSH4 0x5BF5D54C EQ PUSH2 0x327 JUMPI DUP1 PUSH4 0x61D027B3 EQ PUSH2 0x33C JUMPI PUSH0 DUP1 REVERT JUMPDEST DUP1 PUSH4 0x3EA92D73 EQ PUSH2 0x2B6 JUMPI DUP1 PUSH4 0x3F957B0D EQ PUSH2 0x2CA JUMPI DUP1 PUSH4 0x51F9EFDE EQ PUSH2 0x2DE JUMPI PUSH0 DUP1 REVERT JUMPDEST DUP1 PUSH4 0x1A8A63EB GT PUSH2 0x18D JUMPI DUP1 PUSH4 0x1A8A63EB EQ PUSH2 0x212 JUMPI DUP1 PUSH4 0x1C2DDA48 EQ PUSH2 0x24B JUMPI DUP1 PUSH4 0x249B7C19 EQ PUSH2 0x282 JUMPI DUP1 PUSH4 0x3CA5B234 EQ PUSH2 0x297 JUMPI PUSH0 DUP1 REVERT JUMPDEST DUP1 PUSH4 0x4C98B2B EQ PUSH2 0x1B3 JUMPI DUP1 PUSH4 0xC454721 EQ PUSH2 0x1C9 JUMPI DUP1 PUSH4 0xF1C7769 EQ PUSH2 0x1FE JUMPI JUMPDEST PUSH0 DUP1 REVERT JUMPDEST CALLVALUE DUP1 ISZERO PUSH2 0x1BE JUMPI PUSH0 DUP1 REVERT JUMPDEST POP PUSH2 0x1C7 PUSH2 0x525 JUMP JUMPDEST STOP JUMPDEST CALLVALUE DUP1 ISZERO PUSH2 0x1D4 JUMPI PUSH0 DUP1 REVERT JUMPDEST POP PUSH1 0x5 SLOAD PUSH2 0x1E9 SWAP1 PUSH1 0x1 PUSH1 0xA0 SHL SWAP1 DIV PUSH1 0xFF AND DUP2 JUMP JUMPDEST PUSH1 0x40 MLOAD SWAP1 ISZERO ISZERO DUP2 MSTORE PUSH1 0x20 ADD JUMPDEST PUSH1 0x40 MLOAD DUP1 SWAP2 SUB SWAP1 RETURN JUMPDEST CALLVALUE DUP1 ISZERO PUSH2 0x209 JUMPI PUSH0 DUP1 REVERT JUMPDEST POP PUSH2 0x1C7 PUSH2 0x5ED JUMP JUMPDEST CALLVALUE DUP1 ISZERO PUSH2 0x21D JUMPI PUSH0 DUP1 REVERT JUMPDEST POP PUSH2 0x23D PUSH2 0x22C CALLDATASIZE PUSH1 0x4 PUSH2 0x13FD JUMP JUMPDEST PUSH1 0x2D PUSH1 0x20 MSTORE PUSH0 SWAP1 DUP2 MSTORE PUSH1 0x40 SWAP1 KECCAK256 SLOAD DUP2 JUMP JUMPDEST PUSH1 0x40 MLOAD SWAP1 DUP2 MSTORE PUSH1 0x20 ADD PUSH2 0x1F5 JUMP JUMPDEST CALLVALUE DUP1 ISZERO PUSH2 0x256 JUMPI PUSH0 DUP1 REVERT JUMPDEST POP PUSH1 0x2 SLOAD PUSH2 0x26A SWAP1 PUSH1 0x1 PUSH1 0x1 PUSH1 0xA0 SHL SUB AND DUP2 JUMP JUMPDEST PUSH1 0x40 MLOAD PUSH1 0x1 PUSH1 0x1 PUSH1 0xA0 SHL SUB SWAP1 SWAP2 AND DUP2 MSTORE PUSH1 0x20 ADD PUSH2 0x1F5 JUMP JUMPDEST CALLVALUE DUP1 ISZERO PUSH2 0x28D JUMPI PUSH0 DUP1 REVERT JUMPDEST POP PUSH2 0x23D PUSH1 0x2C SLOAD DUP2 JUMP JUMPDEST CALLVALUE DUP1 ISZERO PUSH2 0x2A2 JUMPI PUSH0 DUP1 REVERT JUMPDEST POP PUSH1 0x3 SLOAD PUSH2 0x26A SWAP1 PUSH1 0x1 PUSH1 0x1 PUSH1 0xA0 SHL SUB AND DUP2 JUMP JUMPDEST CALLVALUE DUP1 ISZERO PUSH2 0x2C1 JUMPI PUSH0 DUP1 REVERT JUMPDEST POP PUSH2 0x23D PUSH1 0x9 DUP2 JUMP JUMPDEST CALLVALUE DUP1 ISZERO PUSH2 0x2D5 JUMPI PUSH0 DUP1 REVERT JUMPDEST POP PUSH2 0x1C7 PUSH2 0x6E3 JUMP JUMPDEST CALLVALUE DUP1 ISZERO PUSH2 0x2E9 JUMPI PUSH0 DUP1 REVERT JUMPDEST POP PUSH2 0x23D PUSH3 0x34BC00 DUP2 JUMP JUMPDEST CALLVALUE DUP1 ISZERO PUSH2 0x2FF JUMPI PUSH0 DUP1 REVERT JUMPDEST POP PUSH2 0x23D PUSH2 0x954 JUMP JUMPDEST CALLVALUE DUP1 ISZERO PUSH2 0x313 JUMPI PUSH0 DUP1 REVERT JUMPDEST POP PUSH2 0x1C7 PUSH2 0x322 CALLDATASIZE PUSH1 0x4 PUSH2 0x1460 JUMP JUMPDEST PUSH2 0x9B2 JUMP JUMPDEST CALLVALUE DUP1 ISZERO PUSH2 0x332 JUMPI PUSH0 DUP1 REVERT JUMPDEST POP PUSH2 0x23D PUSH1 0x2A SLOAD DUP2 JUMP JUMPDEST CALLVALUE DUP1 ISZERO PUSH2 0x347 JUMPI PUSH0 DUP1 REVERT JUMPDEST POP PUSH1 0x4 SLOAD PUSH2 0x26A SWAP1 PUSH1 0x1 PUSH1 0x1 PUSH1 0xA0 SHL SUB AND DUP2 JUMP JUMPDEST PUSH2 0x1C7 PUSH2 0x369 CALLDATASIZE PUSH1 0x4 PUSH2 0x156B JUMP JUMPDEST PUSH2 0xA96 JUMP JUMPDEST CALLVALUE DUP1 ISZERO PUSH2 0x379 JUMPI PUSH0 DUP1 REVERT JUMPDEST POP PUSH2 0x1C7 PUSH2 0x388 CALLDATASIZE PUSH1 0x4 PUSH2 0x13FD JUMP JUMPDEST PUSH2 0xF52 JUMP JUMPDEST CALLVALUE DUP1 ISZERO PUSH2 0x398 JUMPI PUSH0 DUP1 REVERT JUMPDEST POP PUSH2 0x1C7 PUSH2 0xF7C JUMP JUMPDEST CALLVALUE DUP1 ISZERO PUSH2 0x3AC JUMPI PUSH0 DUP1 REVERT JUMPDEST POP PUSH2 0x1E9 PUSH2 0x3BB CALLDATASIZE PUSH1 0x4 PUSH2 0x13FD JUMP JUMPDEST PUSH1 0x2E PUSH1 0x20 MSTORE PUSH0 SWAP1 DUP2 MSTORE PUSH1 0x40 SWAP1 KECCAK256 SLOAD PUSH1 0xFF AND DUP2 JUMP JUMPDEST CALLVALUE DUP1 ISZERO PUSH2 0x3DA JUMPI PUSH0 DUP1 REVERT JUMPDEST POP PUSH2 0x1C7 PUSH2 0x3E9 CALLDATASIZE PUSH1 0x4 PUSH2 0x13FD JUMP JUMPDEST PUSH2 0xF8F JUMP JUMPDEST CALLVALUE DUP1 ISZERO PUSH2 0x3F9 JUMPI PUSH0 DUP1 REVERT JUMPDEST POP PUSH2 0x40D PUSH2 0x408 CALLDATASIZE PUSH1 0x4 PUSH2 0x15AF JUMP JUMPDEST PUSH2 0x1001 JUMP JUMPDEST PUSH1 0x40 DUP1 MLOAD SWAP5 DUP6 MSTORE PUSH1 0x20 DUP6 ADD SWAP4 SWAP1 SWAP4 MSTORE SWAP2 DUP4 ADD MSTORE PUSH1 0x60 DUP3 ADD MSTORE PUSH1 0x80 ADD PUSH2 0x1F5 JUMP JUMPDEST CALLVALUE DUP1 ISZERO PUSH2 0x438 JUMPI PUSH0 DUP1 REVERT JUMPDEST POP PUSH0 SLOAD PUSH1 0x1 PUSH1 0x1 PUSH1 0xA0 SHL SUB AND PUSH2 0x26A JUMP JUMPDEST CALLVALUE DUP1 ISZERO PUSH2 0x454 JUMPI PUSH0 DUP1 REVERT JUMPDEST POP PUSH2 0x1C7 PUSH2 0x463 CALLDATASIZE PUSH1 0x4 PUSH2 0x13FD JUMP JUMPDEST PUSH2 0x102E JUMP JUMPDEST CALLVALUE DUP1 ISZERO PUSH2 0x473 JUMPI PUSH0 DUP1 REVERT JUMPDEST POP PUSH2 0x23D PUSH2 0x482 CALLDATASIZE PUSH1 0x4 PUSH2 0x156B JUMP JUMPDEST PUSH2 0x10A0 JUMP JUMPDEST CALLVALUE DUP1 ISZERO PUSH2 0x492 JUMPI PUSH0 DUP1 REVERT JUMPDEST POP PUSH2 0x23D PUSH1 0x2B SLOAD DUP2 JUMP JUMPDEST CALLVALUE DUP1 ISZERO PUSH2 0x4A7 JUMPI PUSH0 DUP1 REVERT JUMPDEST POP PUSH2 0x23D PUSH3 0x2A300 DUP2 JUMP JUMPDEST CALLVALUE DUP1 ISZERO PUSH2 0x4BD JUMPI PUSH0 DUP1 REVERT JUMPDEST POP PUSH1 0x2A SLOAD PUSH2 0x23D JUMP JUMPDEST CALLVALUE DUP1 ISZERO PUSH2 0x4D1 JUMPI PUSH0 DUP1 REVERT JUMPDEST POP PUSH2 0x1C7 PUSH2 0x4E0 CALLDATASIZE PUSH1 0x4 PUSH2 0x13FD JUMP JUMPDEST PUSH2 0x11A3 JUMP JUMPDEST CALLVALUE DUP1 ISZERO PUSH2 0x4F0 JUMPI PUSH0 DUP1 REVERT JUMPDEST POP PUSH2 0x26A PUSH2 0x4FF CALLDATASIZE PUSH1 0x4 PUSH2 0x15C6 JUMP JUMPDEST DUP1 MLOAD PUSH1 0x20 DUP2 DUP4 ADD DUP2 ADD DUP1 MLOAD PUSH1 0x2F DUP3 MSTORE SWAP3 DUP3 ADD SWAP2 SWAP1 SWAP4 ADD KECCAK256 SWAP2 MSTORE SLOAD PUSH1 0x1 PUSH1 0x1 PUSH1 0xA0 SHL SUB AND DUP2 JUMP JUMPDEST PUSH2 0x52D PUSH2 0x11DD JUMP JUMPDEST PUSH1 0x2B SLOAD ISZERO PUSH2 0x582 JUMPI PUSH1 0x40 MLOAD PUSH3 0x461BCD PUSH1 0xE5 SHL DUP2 MSTORE PUSH1 0x20 PUSH1 0x4 DUP3 ADD MSTORE PUSH1 0x17 PUSH1 0x24 DUP3 ADD MSTORE PUSH32 0x50726573616C6520616C72656164792073746172746564000000000000000000 PUSH1 0x44 DUP3 ADD MSTORE PUSH1 0x64 ADD JUMPDEST PUSH1 0x40 MLOAD DUP1 SWAP2 SUB SWAP1 REVERT JUMPDEST TIMESTAMP PUSH1 0x2B DUP2 SWAP1 SSTORE PUSH0 PUSH1 0x2A SSTORE PUSH1 0x8 DUP2 SWAP1 SSTORE PUSH2 0x59F SWAP1 PUSH3 0x34BC00 SWAP1 PUSH2 0x1628 JUMP JUMPDEST PUSH1 0x6 PUSH1 0x2A SLOAD PUSH1 0x9 DUP2 LT PUSH2 0x5B4 JUMPI PUSH2 0x5B4 PUSH2 0x1600 JUMP JUMPDEST PUSH1 0x4 MUL ADD PUSH1 0x3 ADD DUP2 SWAP1 SSTORE POP PUSH32 0x17C3338141363AAB2512C08F8A7764328CA95979F7057663EB93F7E250139B4C PUSH1 0x40 MLOAD PUSH1 0x40 MLOAD DUP1 SWAP2 SUB SWAP1 LOG1 JUMP JUMPDEST PUSH2 0x5F5 PUSH2 0x11DD JUMP JUMPDEST PUSH1 0x2C SLOAD TIMESTAMP GT PUSH2 0x640 JUMPI PUSH1 0x40 MLOAD PUSH3 0x461BCD PUSH1 0xE5 SHL DUP2 MSTORE PUSH1 0x20 PUSH1 0x4 DUP3 ADD MSTORE PUSH1 0x17 PUSH1 0x24 DUP3 ADD MSTORE PUSH23 0x50726573616C65206973207374696C6C20616374697665 PUSH1 0x48 SHL PUSH1 0x44 DUP3 ADD MSTORE PUSH1 0x64 ADD PUSH2 0x579 JUMP JUMPDEST PUSH0 PUSH2 0x649 PUSH2 0x954 JUMP JUMPDEST SWAP1 POP DUP1 ISZERO PUSH2 0x6E0 JUMPI PUSH1 0x2 SLOAD PUSH1 0x4 DUP1 SLOAD PUSH1 0x40 MLOAD PUSH4 0xA9059CBB PUSH1 0xE0 SHL DUP2 MSTORE PUSH1 0x1 PUSH1 0x1 PUSH1 0xA0 SHL SUB SWAP2 DUP3 AND SWAP3 DUP2 ADD SWAP3 SWAP1 SWAP3 MSTORE PUSH1 0x24 DUP3 ADD DUP5 SWAP1 MSTORE SWAP1 SWAP2 AND SWAP1 PUSH4 0xA9059CBB SWAP1 PUSH1 0x44 ADD PUSH1 0x20 PUSH1 0x40 MLOAD DUP1 DUP4 SUB DUP2 PUSH0 DUP8 GAS CALL ISZERO DUP1 ISZERO PUSH2 0x6A7 JUMPI RETURNDATASIZE PUSH0 DUP1 RETURNDATACOPY RETURNDATASIZE PUSH0 REVERT JUMPDEST POP POP POP POP PUSH1 0x40 MLOAD RETURNDATASIZE PUSH1 0x1F NOT PUSH1 0x1F DUP3 ADD AND DUP3 ADD DUP1 PUSH1 0x40 MSTORE POP DUP2 ADD SWAP1 PUSH2 0x6CB SWAP2 SWAP1 PUSH2 0x163B JUMP JUMPDEST POP PUSH1 0x5 DUP1 SLOAD PUSH1 0xFF PUSH1 0xA0 SHL NOT AND PUSH1 0x1 PUSH1 0xA0 SHL OR SWAP1 SSTORE JUMPDEST POP JUMP JUMPDEST PUSH1 0x2C SLOAD TIMESTAMP GT PUSH2 0x72E JUMPI PUSH1 0x40 MLOAD PUSH3 0x461BCD PUSH1 0xE5 SHL DUP2 MSTORE PUSH1 0x20 PUSH1 0x4 DUP3 ADD MSTORE PUSH1 0x17 PUSH1 0x24 DUP3 ADD MSTORE PUSH23 0x50726573616C65206973207374696C6C20616374697665 PUSH1 0x48 SHL PUSH1 0x44 DUP3 ADD MSTORE PUSH1 0x64 ADD PUSH2 0x579 JUMP JUMPDEST PUSH1 0x2 PUSH1 0x1 SLOAD SUB PUSH2 0x780 JUMPI PUSH1 0x40 MLOAD PUSH3 0x461BCD PUSH1 0xE5 SHL DUP2 MSTORE PUSH1 0x20 PUSH1 0x4 DUP3 ADD MSTORE PUSH1 0x1F PUSH1 0x24 DUP3 ADD MSTORE PUSH32 0x5265656E7472616E637947756172643A207265656E7472616E742063616C6C00 PUSH1 0x44 DUP3 ADD MSTORE PUSH1 0x64 ADD PUSH2 0x579 JUMP JUMPDEST PUSH1 0x2 PUSH1 0x1 SSTORE PUSH1 0x29 SLOAD PUSH2 0x796 SWAP1 PUSH3 0x2A300 SWAP1 PUSH2 0x1628 JUMP JUMPDEST TIMESTAMP GT PUSH2 0x7E4 JUMPI PUSH1 0x40 MLOAD PUSH3 0x461BCD PUSH1 0xE5 SHL DUP2 MSTORE PUSH1 0x20 PUSH1 0x4 DUP3 ADD MSTORE PUSH1 0x18 PUSH1 0x24 DUP3 ADD MSTORE PUSH32 0x436C61696D20706572696F64206E6F7420737461727465640000000000000000 PUSH1 0x44 DUP3 ADD MSTORE PUSH1 0x64 ADD PUSH2 0x579 JUMP JUMPDEST CALLER PUSH0 SWAP1 DUP2 MSTORE PUSH1 0x2E PUSH1 0x20 MSTORE PUSH1 0x40 SWAP1 KECCAK256 SLOAD PUSH1 0xFF AND ISZERO PUSH2 0x83B JUMPI PUSH1 0x40 MLOAD PUSH3 0x461BCD PUSH1 0xE5 SHL DUP2 MSTORE PUSH1 0x20 PUSH1 0x4 DUP3 ADD MSTORE PUSH1 0x15 PUSH1 0x24 DUP3 ADD MSTORE PUSH21 0x11D15414DCC8185B1C9958591E4818DB185A5B5959 PUSH1 0x5A SHL PUSH1 0x44 DUP3 ADD MSTORE PUSH1 0x64 ADD PUSH2 0x579 JUMP JUMPDEST CALLER PUSH0 SWAP1 DUP2 MSTORE PUSH1 0x2D PUSH1 0x20 MSTORE PUSH1 0x40 SWAP1 KECCAK256 SLOAD DUP1 PUSH2 0x88B JUMPI PUSH1 0x40 MLOAD PUSH3 0x461BCD PUSH1 0xE5 SHL DUP2 MSTORE PUSH1 0x20 PUSH1 0x4 DUP3 ADD MSTORE PUSH1 0x11 PUSH1 0x24 DUP3 ADD MSTORE PUSH17 0x4E6F20474550537320746F20636C61696D PUSH1 0x78 SHL PUSH1 0x44 DUP3 ADD MSTORE PUSH1 0x64 ADD PUSH2 0x579 JUMP JUMPDEST CALLER PUSH0 DUP2 DUP2 MSTORE PUSH1 0x2E PUSH1 0x20 MSTORE PUSH1 0x40 SWAP1 DUP2 SWAP1 KECCAK256 DUP1 SLOAD PUSH1 0xFF NOT AND PUSH1 0x1 OR SWAP1 SSTORE PUSH1 0x2 SLOAD SWAP1 MLOAD PUSH4 0xA9059CBB PUSH1 0xE0 SHL DUP2 MSTORE PUSH1 0x4 DUP2 ADD SWAP3 SWAP1 SWAP3 MSTORE PUSH1 0x24 DUP3 ADD DUP4 SWAP1 MSTORE PUSH1 0x1 PUSH1 0x1 PUSH1 0xA0 SHL SUB AND SWAP1 PUSH4 0xA9059CBB SWAP1 PUSH1 0x44 ADD PUSH1 0x20 PUSH1 0x40 MLOAD DUP1 DUP4 SUB DUP2 PUSH0 DUP8 GAS CALL ISZERO DUP1 ISZERO PUSH2 0x8F3 JUMPI RETURNDATASIZE PUSH0 DUP1 RETURNDATACOPY RETURNDATASIZE PUSH0 REVERT JUMPDEST POP POP POP POP PUSH1 0x40 MLOAD RETURNDATASIZE PUSH1 0x1F NOT PUSH1 0x1F DUP3 ADD AND DUP3 ADD DUP1 PUSH1 0x40 MSTORE POP DUP2 ADD SWAP1 PUSH2 0x917 SWAP2 SWAP1 PUSH2 0x163B JUMP JUMPDEST POP PUSH1 0x40 MLOAD DUP2 DUP2 MSTORE CALLER SWAP1 PUSH32 0x7A99CB7540E04F139E8BEC2B914B561065E30819C986D0594DB010EB76E23A2E SWAP1 PUSH1 0x20 ADD PUSH1 0x40 MLOAD DUP1 SWAP2 SUB SWAP1 LOG2 POP PUSH1 0x1 DUP1 SSTORE JUMP JUMPDEST PUSH1 0x5 SLOAD PUSH0 SWAP1 DUP2 SWAP1 PUSH1 0x1 PUSH1 0xA0 SHL SWAP1 DIV PUSH1 0xFF AND PUSH2 0x9AD JUMPI PUSH0 JUMPDEST PUSH1 0x9 DUP2 LT ISZERO PUSH2 0x9AB JUMPI PUSH2 0x9A1 PUSH1 0x6 DUP3 PUSH1 0x9 DUP2 LT PUSH2 0x98A JUMPI PUSH2 0x98A PUSH2 0x1600 JUMP JUMPDEST PUSH1 0x4 MUL ADD PUSH1 0x1 ADD SLOAD DUP4 PUSH2 0x1209 SWAP1 SWAP2 SWAP1 PUSH4 0xFFFFFFFF AND JUMP JUMPDEST SWAP2 POP PUSH1 0x1 ADD PUSH2 0x96B JUMP JUMPDEST POP JUMPDEST SWAP2 SWAP1 POP JUMP JUMPDEST PUSH2 0x9BA PUSH2 0x11DD JUMP JUMPDEST DUP3 DUP2 EQ PUSH2 0x9F3 JUMPI PUSH1 0x40 MLOAD PUSH3 0x461BCD PUSH1 0xE5 SHL DUP2 MSTORE PUSH1 0x20 PUSH1 0x4 DUP3 ADD MSTORE PUSH1 0x7 PUSH1 0x24 DUP3 ADD MSTORE PUSH7 0x504643523A3031 PUSH1 0xC8 SHL PUSH1 0x44 DUP3 ADD MSTORE PUSH1 0x64 ADD PUSH2 0x579 JUMP JUMPDEST PUSH0 JUMPDEST DUP4 DUP2 LT ISZERO PUSH2 0xA8F JUMPI DUP3 DUP3 DUP3 DUP2 DUP2 LT PUSH2 0xA0F JUMPI PUSH2 0xA0F PUSH2 0x1600 JUMP JUMPDEST SWAP1 POP PUSH1 0x20 MUL ADD PUSH1 0x20 DUP2 ADD SWAP1 PUSH2 0xA24 SWAP2 SWAP1 PUSH2 0x13FD JUMP JUMPDEST PUSH1 0x2F DUP7 DUP7 DUP5 DUP2 DUP2 LT PUSH2 0xA38 JUMPI PUSH2 0xA38 PUSH2 0x1600 JUMP JUMPDEST SWAP1 POP PUSH1 0x20 MUL DUP2 ADD SWAP1 PUSH2 0xA4A SWAP2 SWAP1 PUSH2 0x165A JUMP JUMPDEST PUSH1 0x40 MLOAD PUSH2 0xA58 SWAP3 SWAP2 SWAP1 PUSH2 0x169D JUMP JUMPDEST SWAP1 DUP2 MSTORE PUSH1 0x40 MLOAD SWAP1 DUP2 SWAP1 SUB PUSH1 0x20 ADD SWAP1 KECCAK256 DUP1 SLOAD PUSH1 0x1 PUSH1 0x1 PUSH1 0xA0 SHL SUB SWAP3 SWAP1 SWAP3 AND PUSH1 0x1 PUSH1 0x1 PUSH1 0xA0 SHL SUB NOT SWAP1 SWAP3 AND SWAP2 SWAP1 SWAP2 OR SWAP1 SSTORE PUSH1 0x1 ADD PUSH2 0x9F5 JUMP JUMPDEST POP POP POP POP POP JUMP JUMPDEST PUSH1 0x2 PUSH1 0x1 SLOAD SUB PUSH2 0xAE8 JUMPI PUSH1 0x40 MLOAD PUSH3 0x461BCD PUSH1 0xE5 SHL DUP2 MSTORE PUSH1 0x20 PUSH1 0x4 DUP3 ADD MSTORE PUSH1 0x1F PUSH1 0x24 DUP3 ADD MSTORE PUSH32 0x5265656E7472616E637947756172643A207265656E7472616E742063616C6C00 PUSH1 0x44 DUP3 ADD MSTORE PUSH1 0x64 ADD PUSH2 0x579 JUMP JUMPDEST PUSH1 0x2 PUSH1 0x1 SSTORE PUSH1 0x2B SLOAD PUSH0 SUB PUSH2 0xB34 JUMPI PUSH1 0x40 MLOAD PUSH3 0x461BCD PUSH1 0xE5 SHL DUP2 MSTORE PUSH1 0x20 PUSH1 0x4 DUP3 ADD MSTORE PUSH1 0x13 PUSH1 0x24 DUP3 ADD MSTORE PUSH19 0x141C995CD85B1948139BDD081CDD185C9D1959 PUSH1 0x6A SHL PUSH1 0x44 DUP3 ADD MSTORE PUSH1 0x64 ADD PUSH2 0x579 JUMP JUMPDEST PUSH0 DUP3 GT PUSH2 0xB83 JUMPI PUSH1 0x40 MLOAD PUSH3 0x461BCD PUSH1 0xE5 SHL DUP2 MSTORE PUSH1 0x20 PUSH1 0x4 DUP3 ADD DUP2 SWAP1 MSTORE PUSH1 0x24 DUP3 ADD MSTORE PUSH32 0x416D6F756E74206D7573742062652067726561746572207468616E207A65726F PUSH1 0x44 DUP3 ADD MSTORE PUSH1 0x64 ADD PUSH2 0x579 JUMP JUMPDEST TIMESTAMP PUSH1 0x6 PUSH1 0x2A SLOAD PUSH1 0x9 DUP2 LT PUSH2 0xB99 JUMPI PUSH2 0xB99 PUSH2 0x1600 JUMP JUMPDEST PUSH1 0x4 MUL ADD PUSH1 0x3 ADD SLOAD GT PUSH2 0xC2D JUMPI PUSH1 0x2A SLOAD PUSH1 0x8 SUB PUSH2 0xC25 JUMPI TIMESTAMP PUSH1 0x6 PUSH1 0x2A SLOAD PUSH1 0x9 DUP2 LT PUSH2 0xBC6 JUMPI PUSH2 0xBC6 PUSH2 0x1600 JUMP JUMPDEST PUSH1 0x4 MUL ADD PUSH1 0x3 ADD DUP2 SWAP1 SSTORE POP PUSH1 0x6 PUSH1 0x2A SLOAD PUSH1 0x9 DUP2 LT PUSH2 0xBE6 JUMPI PUSH2 0xBE6 PUSH2 0x1600 JUMP JUMPDEST PUSH1 0x4 MUL ADD PUSH1 0x3 ADD SLOAD PUSH1 0x2C DUP2 SWAP1 SSTORE POP PUSH32 0x1EB1561F8507EB9BC6988331F66F369E75710F2B4B678AD5B4A52454B6636F5F PUSH1 0x40 MLOAD PUSH1 0x40 MLOAD DUP1 SWAP2 SUB SWAP1 LOG1 PUSH2 0xC2D JUMP JUMPDEST PUSH2 0xC2D PUSH2 0x121B JUMP JUMPDEST PUSH0 PUSH2 0xC38 DUP4 DUP4 PUSH2 0x10A0 JUMP JUMPDEST PUSH1 0x40 DUP1 MLOAD DUP1 DUP3 ADD SWAP1 SWAP2 MSTORE PUSH1 0x3 DUP2 MSTORE PUSH3 0x212721 PUSH1 0xE9 SHL PUSH1 0x20 SWAP2 DUP3 ADD MSTORE DUP4 MLOAD SWAP1 DUP5 ADD KECCAK256 SWAP1 SWAP2 POP PUSH32 0xC12FC3C71A6239F384963D5B409706DEB5326ACDAD4A56F170A0A6A7C1643C52 ADD PUSH2 0xD07 JUMPI DUP3 CALLVALUE LT ISZERO PUSH2 0xCCA JUMPI PUSH1 0x40 MLOAD PUSH3 0x461BCD PUSH1 0xE5 SHL DUP2 MSTORE PUSH1 0x20 PUSH1 0x4 DUP3 ADD MSTORE PUSH1 0x15 PUSH1 0x24 DUP3 ADD MSTORE PUSH21 0x125B9CDD59999A58DA595B9D08109390881CD95B9D PUSH1 0x5A SHL PUSH1 0x44 DUP3 ADD MSTORE PUSH1 0x64 ADD PUSH2 0x579 JUMP JUMPDEST PUSH1 0x5 SLOAD PUSH1 0x40 MLOAD PUSH1 0x1 PUSH1 0x1 PUSH1 0xA0 SHL SUB SWAP1 SWAP2 AND SWAP1 DUP5 ISZERO PUSH2 0x8FC MUL SWAP1 DUP6 SWAP1 PUSH0 DUP2 DUP2 DUP2 DUP6 DUP9 DUP9 CALL SWAP4 POP POP POP POP ISZERO DUP1 ISZERO PUSH2 0xD01 JUMPI RETURNDATASIZE PUSH0 DUP1 RETURNDATACOPY RETURNDATASIZE PUSH0 REVERT JUMPDEST POP PUSH2 0xE52 JUMP JUMPDEST PUSH1 0x40 DUP1 MLOAD DUP1 DUP3 ADD SWAP1 SWAP2 MSTORE PUSH1 0x4 DUP2 MSTORE PUSH4 0x109554D1 PUSH1 0xE2 SHL PUSH1 0x20 SWAP2 DUP3 ADD MSTORE DUP3 MLOAD SWAP1 DUP4 ADD KECCAK256 PUSH32 0xAB3AED538869B898D472FD1D01D23EF086440E608E62778DDE969DEA02DB160F ADD PUSH2 0xE13 JUMPI PUSH1 0x3 SLOAD PUSH1 0x5 SLOAD PUSH1 0x40 MLOAD PUSH4 0x23B872DD PUSH1 0xE0 SHL DUP2 MSTORE CALLER PUSH1 0x4 DUP3 ADD MSTORE PUSH1 0x1 PUSH1 0x1 PUSH1 0xA0 SHL SUB SWAP2 DUP3 AND PUSH1 0x24 DUP3 ADD MSTORE PUSH1 0x44 DUP2 ADD DUP7 SWAP1 MSTORE SWAP2 AND SWAP1 PUSH4 0x23B872DD SWAP1 PUSH1 0x64 ADD PUSH1 0x20 PUSH1 0x40 MLOAD DUP1 DUP4 SUB DUP2 PUSH0 DUP8 GAS CALL ISZERO DUP1 ISZERO PUSH2 0xDA7 JUMPI RETURNDATASIZE PUSH0 DUP1 RETURNDATACOPY RETURNDATASIZE PUSH0 REVERT JUMPDEST POP POP POP POP PUSH1 0x40 MLOAD RETURNDATASIZE PUSH1 0x1F NOT PUSH1 0x1F DUP3 ADD AND DUP3 ADD DUP1 PUSH1 0x40 MSTORE POP DUP2 ADD SWAP1 PUSH2 0xDCB SWAP2 SWAP1 PUSH2 0x163B JUMP JUMPDEST PUSH2 0xE0E JUMPI PUSH1 0x40 MLOAD PUSH3 0x461BCD PUSH1 0xE5 SHL DUP2 MSTORE PUSH1 0x20 PUSH1 0x4 DUP3 ADD MSTORE PUSH1 0x14 PUSH1 0x24 DUP3 ADD MSTORE PUSH20 0x109554D1081D1C985B9CD9995C8819985A5B1959 PUSH1 0x62 SHL PUSH1 0x44 DUP3 ADD MSTORE PUSH1 0x64 ADD PUSH2 0x579 JUMP JUMPDEST PUSH2 0xE52 JUMP JUMPDEST PUSH1 0x40 MLOAD PUSH3 0x461BCD PUSH1 0xE5 SHL DUP2 MSTORE PUSH1 0x20 PUSH1 0x4 DUP3 ADD MSTORE PUSH1 0x14 PUSH1 0x24 DUP3 ADD MSTORE PUSH20 0x556E737570706F727465642063757272656E6379 PUSH1 0x60 SHL PUSH1 0x44 DUP3 ADD MSTORE PUSH1 0x64 ADD PUSH2 0x579 JUMP JUMPDEST PUSH2 0xE5C CALLER DUP3 PUSH2 0x1296 JUMP JUMPDEST CALLER PUSH1 0x1 PUSH1 0x1 PUSH1 0xA0 SHL SUB AND PUSH32 0x97B8E46CE6A858394214FB0002594294805C68B044A2105798D860D0F922451A DUP3 DUP5 PUSH1 0x40 MLOAD PUSH2 0xE97 SWAP3 SWAP2 SWAP1 PUSH2 0x16AC JUMP JUMPDEST PUSH1 0x40 MLOAD DUP1 SWAP2 SUB SWAP1 LOG2 PUSH1 0x6 PUSH1 0x2A SLOAD PUSH1 0x9 DUP2 LT PUSH2 0xEB4 JUMPI PUSH2 0xEB4 PUSH2 0x1600 JUMP JUMPDEST PUSH1 0x4 MUL ADD PUSH1 0x1 ADD SLOAD PUSH0 SUB PUSH2 0xF49 JUMPI PUSH1 0x2A SLOAD PUSH1 0x8 SUB PUSH2 0xF41 JUMPI TIMESTAMP PUSH1 0x6 PUSH1 0x2A SLOAD PUSH1 0x9 DUP2 LT PUSH2 0xEE2 JUMPI PUSH2 0xEE2 PUSH2 0x1600 JUMP JUMPDEST PUSH1 0x4 MUL ADD PUSH1 0x3 ADD DUP2 SWAP1 SSTORE POP PUSH1 0x6 PUSH1 0x2A SLOAD PUSH1 0x9 DUP2 LT PUSH2 0xF02 JUMPI PUSH2 0xF02 PUSH2 0x1600 JUMP JUMPDEST PUSH1 0x4 MUL ADD PUSH1 0x3 ADD SLOAD PUSH1 0x2C DUP2 SWAP1 SSTORE POP PUSH32 0x1EB1561F8507EB9BC6988331F66F369E75710F2B4B678AD5B4A52454B6636F5F PUSH1 0x40 MLOAD PUSH1 0x40 MLOAD DUP1 SWAP2 SUB SWAP1 LOG1 PUSH2 0xF49 JUMP JUMPDEST PUSH2 0xF49 PUSH2 0x121B JUMP JUMPDEST POP POP PUSH1 0x1 DUP1 SSTORE POP JUMP JUMPDEST PUSH2 0xF5A PUSH2 0x11DD JUMP JUMPDEST PUSH1 0x2 DUP1 SLOAD PUSH1 0x1 PUSH1 0x1 PUSH1 0xA0 SHL SUB NOT AND PUSH1 0x1 PUSH1 0x1 PUSH1 0xA0 SHL SUB SWAP3 SWAP1 SWAP3 AND SWAP2 SWAP1 SWAP2 OR SWAP1 SSTORE JUMP JUMPDEST PUSH2 0xF84 PUSH2 0x11DD JUMP JUMPDEST PUSH2 0xF8D PUSH0 PUSH2 0x138F JUMP JUMPDEST JUMP JUMPDEST PUSH2 0xF97 PUSH2 0x11DD JUMP JUMPDEST PUSH1 0x1 PUSH1 0x1 PUSH1 0xA0 SHL SUB DUP2 AND PUSH2 0xFDF JUMPI PUSH1 0x40 MLOAD PUSH3 0x461BCD PUSH1 0xE5 SHL DUP2 MSTORE PUSH1 0x20 PUSH1 0x4 DUP3 ADD MSTORE PUSH1 0xF PUSH1 0x24 DUP3 ADD MSTORE PUSH15 0x496E76616C69642061646472657373 PUSH1 0x88 SHL PUSH1 0x44 DUP3 ADD MSTORE PUSH1 0x64 ADD PUSH2 0x579 JUMP JUMPDEST PUSH1 0x4 DUP1 SLOAD PUSH1 0x1 PUSH1 0x1 PUSH1 0xA0 SHL SUB NOT AND PUSH1 0x1 PUSH1 0x1 PUSH1 0xA0 SHL SUB SWAP3 SWAP1 SWAP3 AND SWAP2 SWAP1 SWAP2 OR SWAP1 SSTORE JUMP JUMPDEST PUSH1 0x6 DUP2 PUSH1 0x9 DUP2 LT PUSH2 0x1010 JUMPI PUSH0 DUP1 REVERT JUMPDEST PUSH1 0x4 MUL ADD DUP1 SLOAD PUSH1 0x1 DUP3 ADD SLOAD PUSH1 0x2 DUP4 ADD SLOAD PUSH1 0x3 SWAP1 SWAP4 ADD SLOAD SWAP2 SWAP4 POP SWAP2 SWAP1 DUP5 JUMP JUMPDEST PUSH2 0x1036 PUSH2 0x11DD JUMP JUMPDEST PUSH1 0x1 PUSH1 0x1 PUSH1 0xA0 SHL SUB DUP2 AND PUSH2 0x107E JUMPI PUSH1 0x40 MLOAD PUSH3 0x461BCD PUSH1 0xE5 SHL DUP2 MSTORE PUSH1 0x20 PUSH1 0x4 DUP3 ADD MSTORE PUSH1 0xF PUSH1 0x24 DUP3 ADD MSTORE PUSH15 0x496E76616C69642061646472657373 PUSH1 0x88 SHL PUSH1 0x44 DUP3 ADD MSTORE PUSH1 0x64 ADD PUSH2 0x579 JUMP JUMPDEST PUSH1 0x5 DUP1 SLOAD PUSH1 0x1 PUSH1 0x1 PUSH1 0xA0 SHL SUB NOT AND PUSH1 0x1 PUSH1 0x1 PUSH1 0xA0 SHL SUB SWAP3 SWAP1 SWAP3 AND SWAP2 SWAP1 SWAP2 OR SWAP1 SSTORE JUMP JUMPDEST PUSH0 DUP1 PUSH1 0x64 PUSH1 0x6 PUSH1 0x2A SLOAD PUSH1 0x9 DUP2 LT PUSH2 0x10B9 JUMPI PUSH2 0x10B9 PUSH2 0x1600 JUMP JUMPDEST PUSH1 0x4 MUL ADD SLOAD PUSH2 0x10D0 SWAP1 PUSH8 0xDE0B6B3A7640000 PUSH2 0x16E8 JUMP JUMPDEST PUSH2 0x10DA SWAP2 SWAP1 PUSH2 0x16FF JUMP JUMPDEST SWAP1 POP PUSH0 PUSH1 0x2F DUP5 PUSH1 0x40 MLOAD PUSH2 0x10ED SWAP2 SWAP1 PUSH2 0x171E JUMP JUMPDEST SWAP1 DUP2 MSTORE PUSH1 0x40 DUP1 MLOAD SWAP2 DUP3 SWAP1 SUB PUSH1 0x20 ADD DUP3 KECCAK256 SLOAD PUSH4 0x3FABE5A3 PUSH1 0xE2 SHL DUP4 MSTORE SWAP1 MLOAD PUSH1 0x1 PUSH1 0x1 PUSH1 0xA0 SHL SUB SWAP1 SWAP2 AND SWAP3 POP DUP3 SWAP2 PUSH0 SWAP2 DUP4 SWAP2 PUSH4 0xFEAF968C SWAP2 PUSH1 0x4 DUP1 DUP4 ADD SWAP3 PUSH1 0xA0 SWAP3 SWAP2 SWAP1 DUP3 SWAP1 SUB ADD DUP2 DUP7 GAS STATICCALL ISZERO DUP1 ISZERO PUSH2 0x1145 JUMPI RETURNDATASIZE PUSH0 DUP1 RETURNDATACOPY RETURNDATASIZE PUSH0 REVERT JUMPDEST POP POP POP POP PUSH1 0x40 MLOAD RETURNDATASIZE PUSH1 0x1F NOT PUSH1 0x1F DUP3 ADD AND DUP3 ADD DUP1 PUSH1 0x40 MSTORE POP DUP2 ADD SWAP1 PUSH2 0x1169 SWAP2 SWAP1 PUSH2 0x174D JUMP JUMPDEST POP POP POP SWAP2 POP POP PUSH0 DUP2 PUSH5 0x2540BE400 PUSH2 0x1181 SWAP2 SWAP1 PUSH2 0x16E8 JUMP JUMPDEST PUSH2 0x118B DUP7 DUP11 PUSH2 0x16FF JUMP JUMPDEST PUSH2 0x1195 SWAP2 SWAP1 PUSH2 0x16E8 JUMP JUMPDEST SWAP6 POP POP POP POP POP POP JUMPDEST SWAP3 SWAP2 POP POP JUMP JUMPDEST PUSH2 0x11AB PUSH2 0x11DD JUMP JUMPDEST PUSH1 0x1 PUSH1 0x1 PUSH1 0xA0 SHL SUB DUP2 AND PUSH2 0x11D4 JUMPI PUSH1 0x40 MLOAD PUSH4 0x1E4FBDF7 PUSH1 0xE0 SHL DUP2 MSTORE PUSH0 PUSH1 0x4 DUP3 ADD MSTORE PUSH1 0x24 ADD PUSH2 0x579 JUMP JUMPDEST PUSH2 0x6E0 DUP2 PUSH2 0x138F JUMP JUMPDEST PUSH0 SLOAD PUSH1 0x1 PUSH1 0x1 PUSH1 0xA0 SHL SUB AND CALLER EQ PUSH2 0xF8D JUMPI PUSH1 0x40 MLOAD PUSH4 0x118CDAA7 PUSH1 0xE0 SHL DUP2 MSTORE CALLER PUSH1 0x4 DUP3 ADD MSTORE PUSH1 0x24 ADD PUSH2 0x579 JUMP JUMPDEST PUSH0 PUSH2 0x1214 DUP3 DUP5 PUSH2 0x1628 JUMP JUMPDEST SWAP4 SWAP3 POP POP POP JUMP JUMPDEST PUSH2 0x1227 PUSH1 0x1 PUSH1 0x9 PUSH2 0x179B JUMP JUMPDEST PUSH1 0x2A SLOAD LT ISZERO PUSH2 0xF8D JUMPI PUSH1 0x2A DUP1 SLOAD SWAP1 PUSH0 PUSH2 0x123F DUP4 PUSH2 0x17AE JUMP JUMPDEST SWAP2 SWAP1 POP SSTORE POP TIMESTAMP PUSH1 0x6 PUSH1 0x2A SLOAD PUSH1 0x9 DUP2 LT PUSH2 0x125A JUMPI PUSH2 0x125A PUSH2 0x1600 JUMP JUMPDEST PUSH1 0x4 MUL ADD PUSH1 0x2 ADD DUP2 SWAP1 SSTORE POP PUSH3 0x34BC00 TIMESTAMP PUSH2 0x1274 SWAP2 SWAP1 PUSH2 0x1628 JUMP JUMPDEST PUSH1 0x6 PUSH1 0x2A SLOAD PUSH1 0x9 DUP2 LT PUSH2 0x1289 JUMPI PUSH2 0x1289 PUSH2 0x1600 JUMP JUMPDEST PUSH1 0x4 MUL ADD PUSH1 0x3 ADD DUP2 SWAP1 SSTORE POP JUMP JUMPDEST DUP1 PUSH1 0x6 PUSH1 0x2A SLOAD PUSH1 0x9 DUP2 LT PUSH2 0x12AC JUMPI PUSH2 0x12AC PUSH2 0x1600 JUMP JUMPDEST PUSH1 0x4 MUL ADD PUSH1 0x1 ADD SLOAD LT ISZERO PUSH2 0x1302 JUMPI PUSH1 0x40 MLOAD PUSH3 0x461BCD PUSH1 0xE5 SHL DUP2 MSTORE PUSH1 0x20 PUSH1 0x4 DUP3 ADD MSTORE PUSH1 0x1A PUSH1 0x24 DUP3 ADD MSTORE PUSH32 0x4E6F7420656E6F75676820474550537320617661696C61626C65000000000000 PUSH1 0x44 DUP3 ADD MSTORE PUSH1 0x64 ADD PUSH2 0x579 JUMP JUMPDEST PUSH2 0x1331 DUP2 PUSH1 0x6 PUSH1 0x2A SLOAD PUSH1 0x9 DUP2 LT PUSH2 0x131B JUMPI PUSH2 0x131B PUSH2 0x1600 JUMP JUMPDEST PUSH1 0x4 MUL ADD PUSH1 0x1 ADD SLOAD PUSH2 0x13DE SWAP1 SWAP2 SWAP1 PUSH4 0xFFFFFFFF AND JUMP JUMPDEST PUSH1 0x6 PUSH1 0x2A SLOAD PUSH1 0x9 DUP2 LT PUSH2 0x1346 JUMPI PUSH2 0x1346 PUSH2 0x1600 JUMP JUMPDEST PUSH1 0x4 MUL ADD PUSH1 0x1 ADD SSTORE PUSH1 0x1 PUSH1 0x1 PUSH1 0xA0 SHL SUB DUP3 AND PUSH0 SWAP1 DUP2 MSTORE PUSH1 0x2D PUSH1 0x20 MSTORE PUSH1 0x40 SWAP1 KECCAK256 SLOAD PUSH2 0x1370 SWAP1 DUP3 PUSH2 0x1209 JUMP JUMPDEST PUSH1 0x1 PUSH1 0x1 PUSH1 0xA0 SHL SUB SWAP1 SWAP3 AND PUSH0 SWAP1 DUP2 MSTORE PUSH1 0x2D PUSH1 0x20 MSTORE PUSH1 0x40 SWAP1 KECCAK256 SWAP2 SWAP1 SWAP2 SSTORE POP JUMP JUMPDEST PUSH0 DUP1 SLOAD PUSH1 0x1 PUSH1 0x1 PUSH1 0xA0 SHL SUB DUP4 DUP2 AND PUSH1 0x1 PUSH1 0x1 PUSH1 0xA0 SHL SUB NOT DUP4 AND DUP2 OR DUP5 SSTORE PUSH1 0x40 MLOAD SWAP2 SWAP1 SWAP3 AND SWAP3 DUP4 SWAP2 PUSH32 0x8BE0079C531659141344CD1FD0A4F28419497F9722A3DAAFE3B4186F6B6457E0 SWAP2 SWAP1 LOG3 POP POP JUMP JUMPDEST PUSH0 PUSH2 0x1214 DUP3 DUP5 PUSH2 0x179B JUMP JUMPDEST PUSH1 0x1 PUSH1 0x1 PUSH1 0xA0 SHL SUB DUP2 AND DUP2 EQ PUSH2 0x6E0 JUMPI PUSH0 DUP1 REVERT JUMPDEST PUSH0 PUSH1 0x20 DUP3 DUP5 SUB SLT ISZERO PUSH2 0x140D JUMPI PUSH0 DUP1 REVERT JUMPDEST DUP2 CALLDATALOAD PUSH2 0x1214 DUP2 PUSH2 0x13E9 JUMP JUMPDEST PUSH0 DUP1 DUP4 PUSH1 0x1F DUP5 ADD SLT PUSH2 0x1428 JUMPI PUSH0 DUP1 REVERT JUMPDEST POP DUP2 CALLDATALOAD PUSH8 0xFFFFFFFFFFFFFFFF DUP2 GT ISZERO PUSH2 0x143F JUMPI PUSH0 DUP1 REVERT JUMPDEST PUSH1 0x20 DUP4 ADD SWAP2 POP DUP4 PUSH1 0x20 DUP3 PUSH1 0x5 SHL DUP6 ADD ADD GT ISZERO PUSH2 0x1459 JUMPI PUSH0 DUP1 REVERT JUMPDEST SWAP3 POP SWAP3 SWAP1 POP JUMP JUMPDEST PUSH0 DUP1 PUSH0 DUP1 PUSH1 0x40 DUP6 DUP8 SUB SLT ISZERO PUSH2 0x1473 JUMPI PUSH0 DUP1 REVERT JUMPDEST DUP5 CALLDATALOAD PUSH8 0xFFFFFFFFFFFFFFFF DUP2 GT ISZERO PUSH2 0x1489 JUMPI PUSH0 DUP1 REVERT JUMPDEST PUSH2 0x1495 DUP8 DUP3 DUP9 ADD PUSH2 0x1418 JUMP JUMPDEST SWAP1 SWAP6 POP SWAP4 POP POP PUSH1 0x20 DUP6 ADD CALLDATALOAD PUSH8 0xFFFFFFFFFFFFFFFF DUP2 GT ISZERO PUSH2 0x14B4 JUMPI PUSH0 DUP1 REVERT JUMPDEST PUSH2 0x14C0 DUP8 DUP3 DUP9 ADD PUSH2 0x1418 JUMP JUMPDEST SWAP6 SWAP9 SWAP5 SWAP8 POP SWAP6 POP POP POP POP JUMP JUMPDEST PUSH4 0x4E487B71 PUSH1 0xE0 SHL PUSH0 MSTORE PUSH1 0x41 PUSH1 0x4 MSTORE PUSH1 0x24 PUSH0 REVERT JUMPDEST PUSH0 DUP3 PUSH1 0x1F DUP4 ADD SLT PUSH2 0x14EF JUMPI PUSH0 DUP1 REVERT JUMPDEST DUP2 CALLDATALOAD PUSH8 0xFFFFFFFFFFFFFFFF DUP2 GT ISZERO PUSH2 0x1509 JUMPI PUSH2 0x1509 PUSH2 0x14CC JUMP JUMPDEST PUSH1 0x40 MLOAD PUSH1 0x1F DUP3 ADD PUSH1 0x1F NOT SWAP1 DUP2 AND PUSH1 0x3F ADD AND DUP2 ADD PUSH8 0xFFFFFFFFFFFFFFFF DUP2 GT DUP3 DUP3 LT OR ISZERO PUSH2 0x1538 JUMPI PUSH2 0x1538 PUSH2 0x14CC JUMP JUMPDEST PUSH1 0x40 MSTORE DUP2 DUP2 MSTORE DUP4 DUP3 ADD PUSH1 0x20 ADD DUP6 LT ISZERO PUSH2 0x154F JUMPI PUSH0 DUP1 REVERT JUMPDEST DUP2 PUSH1 0x20 DUP6 ADD PUSH1 0x20 DUP4 ADD CALLDATACOPY PUSH0 SWAP2 DUP2 ADD PUSH1 0x20 ADD SWAP2 SWAP1 SWAP2 MSTORE SWAP4 SWAP3 POP POP POP JUMP JUMPDEST PUSH0 DUP1 PUSH1 0x40 DUP4 DUP6 SUB SLT ISZERO PUSH2 0x157C JUMPI PUSH0 DUP1 REVERT JUMPDEST DUP3 CALLDATALOAD SWAP2 POP PUSH1 0x20 DUP4 ADD CALLDATALOAD PUSH8 0xFFFFFFFFFFFFFFFF DUP2 GT ISZERO PUSH2 0x1599 JUMPI PUSH0 DUP1 REVERT JUMPDEST PUSH2 0x15A5 DUP6 DUP3 DUP7 ADD PUSH2 0x14E0 JUMP JUMPDEST SWAP2 POP POP SWAP3 POP SWAP3 SWAP1 POP JUMP JUMPDEST PUSH0 PUSH1 0x20 DUP3 DUP5 SUB SLT ISZERO PUSH2 0x15BF JUMPI PUSH0 DUP1 REVERT JUMPDEST POP CALLDATALOAD SWAP2 SWAP1 POP JUMP JUMPDEST PUSH0 PUSH1 0x20 DUP3 DUP5 SUB SLT ISZERO PUSH2 0x15D6 JUMPI PUSH0 DUP1 REVERT JUMPDEST DUP2 CALLDATALOAD PUSH8 0xFFFFFFFFFFFFFFFF DUP2 GT ISZERO PUSH2 0x15EC JUMPI PUSH0 DUP1 REVERT JUMPDEST PUSH2 0x15F8 DUP5 DUP3 DUP6 ADD PUSH2 0x14E0 JUMP JUMPDEST SWAP5 SWAP4 POP POP POP POP JUMP JUMPDEST PUSH4 0x4E487B71 PUSH1 0xE0 SHL PUSH0 MSTORE PUSH1 0x32 PUSH1 0x4 MSTORE PUSH1 0x24 PUSH0 REVERT JUMPDEST PUSH4 0x4E487B71 PUSH1 0xE0 SHL PUSH0 MSTORE PUSH1 0x11 PUSH1 0x4 MSTORE PUSH1 0x24 PUSH0 REVERT JUMPDEST DUP1 DUP3 ADD DUP1 DUP3 GT ISZERO PUSH2 0x119D JUMPI PUSH2 0x119D PUSH2 0x1614 JUMP JUMPDEST PUSH0 PUSH1 0x20 DUP3 DUP5 SUB SLT ISZERO PUSH2 0x164B JUMPI PUSH0 DUP1 REVERT JUMPDEST DUP2 MLOAD DUP1 ISZERO ISZERO DUP2 EQ PUSH2 0x1214 JUMPI PUSH0 DUP1 REVERT JUMPDEST PUSH0 DUP1 DUP4 CALLDATALOAD PUSH1 0x1E NOT DUP5 CALLDATASIZE SUB ADD DUP2 SLT PUSH2 0x166F JUMPI PUSH0 DUP1 REVERT JUMPDEST DUP4 ADD DUP1 CALLDATALOAD SWAP2 POP PUSH8 0xFFFFFFFFFFFFFFFF DUP3 GT ISZERO PUSH2 0x1689 JUMPI PUSH0 DUP1 REVERT JUMPDEST PUSH1 0x20 ADD SWAP2 POP CALLDATASIZE DUP2 SWAP1 SUB DUP3 SGT ISZERO PUSH2 0x1459 JUMPI PUSH0 DUP1 REVERT JUMPDEST DUP2 DUP4 DUP3 CALLDATACOPY PUSH0 SWAP2 ADD SWAP1 DUP2 MSTORE SWAP2 SWAP1 POP JUMP JUMPDEST DUP3 DUP2 MSTORE PUSH1 0x40 PUSH1 0x20 DUP3 ADD MSTORE PUSH0 DUP3 MLOAD DUP1 PUSH1 0x40 DUP5 ADD MSTORE DUP1 PUSH1 0x20 DUP6 ADD PUSH1 0x60 DUP6 ADD MCOPY PUSH0 PUSH1 0x60 DUP3 DUP6 ADD ADD MSTORE PUSH1 0x60 PUSH1 0x1F NOT PUSH1 0x1F DUP4 ADD AND DUP5 ADD ADD SWAP2 POP POP SWAP4 SWAP3 POP POP POP JUMP JUMPDEST DUP1 DUP3 MUL DUP2 ISZERO DUP3 DUP3 DIV DUP5 EQ OR PUSH2 0x119D JUMPI PUSH2 0x119D PUSH2 0x1614 JUMP JUMPDEST PUSH0 DUP3 PUSH2 0x1719 JUMPI PUSH4 0x4E487B71 PUSH1 0xE0 SHL PUSH0 MSTORE PUSH1 0x12 PUSH1 0x4 MSTORE PUSH1 0x24 PUSH0 REVERT JUMPDEST POP DIV SWAP1 JUMP JUMPDEST PUSH0 DUP3 MLOAD DUP1 PUSH1 0x20 DUP6 ADD DUP5 MCOPY PUSH0 SWAP3 ADD SWAP2 DUP3 MSTORE POP SWAP2 SWAP1 POP JUMP JUMPDEST DUP1 MLOAD PUSH10 0xFFFFFFFFFFFFFFFFFFFF DUP2 AND DUP2 EQ PUSH2 0x9AD JUMPI PUSH0 DUP1 REVERT JUMPDEST PUSH0 DUP1 PUSH0 DUP1 PUSH0 PUSH1 0xA0 DUP7 DUP9 SUB SLT ISZERO PUSH2 0x1761 JUMPI PUSH0 DUP1 REVERT JUMPDEST PUSH2 0x176A DUP7 PUSH2 0x1734 JUMP JUMPDEST PUSH1 0x20 DUP8 ADD MLOAD PUSH1 0x40 DUP9 ADD MLOAD PUSH1 0x60 DUP10 ADD MLOAD SWAP3 SWAP8 POP SWAP1 SWAP6 POP SWAP4 POP SWAP2 POP PUSH2 0x178F PUSH1 0x80 DUP8 ADD PUSH2 0x1734 JUMP JUMPDEST SWAP1 POP SWAP3 SWAP6 POP SWAP3 SWAP6 SWAP1 SWAP4 POP JUMP JUMPDEST DUP2 DUP2 SUB DUP2 DUP2 GT ISZERO PUSH2 0x119D JUMPI PUSH2 0x119D PUSH2 0x1614 JUMP JUMPDEST PUSH0 PUSH1 0x1 DUP3 ADD PUSH2 0x17BF JUMPI PUSH2 0x17BF PUSH2 0x1614 JUMP JUMPDEST POP PUSH1 0x1 ADD SWAP1 JUMP INVALID LOG2 PUSH5 0x6970667358 0x22 SLT KECCAK256 EXTCODEHASH SWAP4 0xBB 0xAE TIMESTAMP 0xDB CREATE 0xE9 MOD 0x1E 0xCA 0xA5 PUSH6 0x2721FFB332E4 SAR 0xEE COINBASE SWAP12 0xDC ORIGIN SUB EXTCODECOPY EXTCODECOPY 0xBE 0xEE POP 0xE8 PUSH5 0x736F6C6343 STOP ADDMOD BYTE STOP CALLER "
				},
				"gasEstimates": {
					"creation": {
						"codeDepositCost": "1228000",
						"executionCost": "infinite",
						"totalCost": "infinite"
					},
					"external": {
						"CLAIM_DELAY()": "238",
						"GEPS()": "2404",
						"MAX_STAGE()": "240",
						"STAGE_DURATION()": "284",
						"busd()": "2448",
						"buyGEPS(uint256,string)": "infinite",
						"calculateGEPS(uint256,string)": "infinite",
						"claimGEPSs()": "infinite",
						"currentStage()": "2383",
						"getCurrentStage()": "2357",
						"getUnsoldGEPSs()": "infinite",
						"hasClaimed(address)": "2556",
						"initialiseTokens(string[],address[])": "infinite",
						"owner()": "2440",
						"presaleEndTime()": "2384",
						"presaleStartTime()": "2383",
						"purchasedGEPSs(address)": "2556",
						"renounceOwnership()": "infinite",
						"setGEPSToken(address)": "26794",
						"stages(uint256)": "8912",
						"startPresale()": "78807",
						"tokenOracles(string)": "infinite",
						"transferOwnership(address)": "infinite",
						"transferUnsoldGEPSsToTreasury()": "infinite",
						"treasury()": "2447",
						"unsoldGEPSTransferred()": "2384",
						"updatePresaleWallet(address)": "26806",
						"updateTreasuryAddress(address)": "26828"
					},
					"internal": {
						"advanceStage()": "infinite",
						"allocateGEPSs(address,uint256)": "infinite",
						"initializeStages()": "infinite"
					}
				},
				"methodIdentifiers": {
					"CLAIM_DELAY()": "e18132c4",
					"GEPS()": "1c2dda48",
					"MAX_STAGE()": "3ea92d73",
					"STAGE_DURATION()": "51f9efde",
					"busd()": "3ca5b234",
					"buyGEPS(uint256,string)": "67faa4b6",
					"calculateGEPS(uint256,string)": "a5aec846",
					"claimGEPSs()": "3f957b0d",
					"currentStage()": "5bf5d54c",
					"getCurrentStage()": "eedbe31d",
					"getUnsoldGEPSs()": "54c4152e",
					"hasClaimed(address)": "73b2e80e",
					"initialiseTokens(string[],address[])": "59ac5e18",
					"owner()": "8da5cb5b",
					"presaleEndTime()": "249b7c19",
					"presaleStartTime()": "a82524b2",
					"purchasedGEPSs(address)": "1a8a63eb",
					"renounceOwnership()": "715018a6",
					"setGEPSToken(address)": "6e14600f",
					"stages(uint256)": "845ddcb2",
					"startPresale()": "04c98b2b",
					"tokenOracles(string)": "f94f983a",
					"transferOwnership(address)": "f2fde38b",
					"transferUnsoldGEPSsToTreasury()": "0f1c7769",
					"treasury()": "61d027b3",
					"unsoldGEPSTransferred()": "0c454721",
					"updatePresaleWallet(address)": "8e17c017",
					"updateTreasuryAddress(address)": "841e4561"
				}
			},
			"storageLayout": {
				"storage": [
					{
						"astId": 764,
						"contract": "contracts/PreSale_flattened.sol:GEPSPresale",
						"label": "_owner",
						"offset": 0,
						"slot": "0",
						"type": "t_address"
					},
					{
						"astId": 1264,
						"contract": "contracts/PreSale_flattened.sol:GEPSPresale",
						"label": "_status",
						"offset": 0,
						"slot": "1",
						"type": "t_uint256"
					},
					{
						"astId": 1302,
						"contract": "contracts/PreSale_flattened.sol:GEPSPresale",
						"label": "GEPS",
						"offset": 0,
						"slot": "2",
						"type": "t_contract(IERC20)76"
					},
					{
						"astId": 1305,
						"contract": "contracts/PreSale_flattened.sol:GEPSPresale",
						"label": "busd",
						"offset": 0,
						"slot": "3",
						"type": "t_contract(IERC20)76"
					},
					{
						"astId": 1307,
						"contract": "contracts/PreSale_flattened.sol:GEPSPresale",
						"label": "treasury",
						"offset": 0,
						"slot": "4",
						"type": "t_address"
					},
					{
						"astId": 1309,
						"contract": "contracts/PreSale_flattened.sol:GEPSPresale",
						"label": "presaleWallet",
						"offset": 0,
						"slot": "5",
						"type": "t_address_payable"
					},
					{
						"astId": 1321,
						"contract": "contracts/PreSale_flattened.sol:GEPSPresale",
						"label": "unsoldGEPSTransferred",
						"offset": 20,
						"slot": "5",
						"type": "t_bool"
					},
					{
						"astId": 1335,
						"contract": "contracts/PreSale_flattened.sol:GEPSPresale",
						"label": "stages",
						"offset": 0,
						"slot": "6",
						"type": "t_array(t_struct(Stage)1330_storage)9_storage"
					},
					{
						"astId": 1337,
						"contract": "contracts/PreSale_flattened.sol:GEPSPresale",
						"label": "currentStage",
						"offset": 0,
						"slot": "42",
						"type": "t_uint256"
					},
					{
						"astId": 1339,
						"contract": "contracts/PreSale_flattened.sol:GEPSPresale",
						"label": "presaleStartTime",
						"offset": 0,
						"slot": "43",
						"type": "t_uint256"
					},
					{
						"astId": 1341,
						"contract": "contracts/PreSale_flattened.sol:GEPSPresale",
						"label": "presaleEndTime",
						"offset": 0,
						"slot": "44",
						"type": "t_uint256"
					},
					{
						"astId": 1345,
						"contract": "contracts/PreSale_flattened.sol:GEPSPresale",
						"label": "purchasedGEPSs",
						"offset": 0,
						"slot": "45",
						"type": "t_mapping(t_address,t_uint256)"
					},
					{
						"astId": 1349,
						"contract": "contracts/PreSale_flattened.sol:GEPSPresale",
						"label": "hasClaimed",
						"offset": 0,
						"slot": "46",
						"type": "t_mapping(t_address,t_bool)"
					},
					{
						"astId": 1353,
						"contract": "contracts/PreSale_flattened.sol:GEPSPresale",
						"label": "tokenOracles",
						"offset": 0,
						"slot": "47",
						"type": "t_mapping(t_string_memory_ptr,t_address)"
					}
				],
				"types": {
					"t_address": {
						"encoding": "inplace",
						"label": "address",
						"numberOfBytes": "20"
					},
					"t_address_payable": {
						"encoding": "inplace",
						"label": "address payable",
						"numberOfBytes": "20"
					},
					"t_array(t_struct(Stage)1330_storage)9_storage": {
						"base": "t_struct(Stage)1330_storage",
						"encoding": "inplace",
						"label": "struct GEPSPresale.Stage[9]",
						"numberOfBytes": "1152"
					},
					"t_bool": {
						"encoding": "inplace",
						"label": "bool",
						"numberOfBytes": "1"
					},
					"t_contract(IERC20)76": {
						"encoding": "inplace",
						"label": "contract IERC20",
						"numberOfBytes": "20"
					},
					"t_mapping(t_address,t_bool)": {
						"encoding": "mapping",
						"key": "t_address",
						"label": "mapping(address => bool)",
						"numberOfBytes": "32",
						"value": "t_bool"
					},
					"t_mapping(t_address,t_uint256)": {
						"encoding": "mapping",
						"key": "t_address",
						"label": "mapping(address => uint256)",
						"numberOfBytes": "32",
						"value": "t_uint256"
					},
					"t_mapping(t_string_memory_ptr,t_address)": {
						"encoding": "mapping",
						"key": "t_string_memory_ptr",
						"label": "mapping(string => address)",
						"numberOfBytes": "32",
						"value": "t_address"
					},
					"t_string_memory_ptr": {
						"encoding": "bytes",
						"label": "string",
						"numberOfBytes": "32"
					},
					"t_struct(Stage)1330_storage": {
						"encoding": "inplace",
						"label": "struct GEPSPresale.Stage",
						"members": [
							{
								"astId": 1323,
								"contract": "contracts/PreSale_flattened.sol:GEPSPresale",
								"label": "price",
								"offset": 0,
								"slot": "0",
								"type": "t_uint256"
							},
							{
								"astId": 1325,
								"contract": "contracts/PreSale_flattened.sol:GEPSPresale",
								"label": "GEPSsAvailable",
								"offset": 0,
								"slot": "1",
								"type": "t_uint256"
							},
							{
								"astId": 1327,
								"contract": "contracts/PreSale_flattened.sol:GEPSPresale",
								"label": "startTime",
								"offset": 0,
								"slot": "2",
								"type": "t_uint256"
							},
							{
								"astId": 1329,
								"contract": "contracts/PreSale_flattened.sol:GEPSPresale",
								"label": "endTime",
								"offset": 0,
								"slot": "3",
								"type": "t_uint256"
							}
						],
						"numberOfBytes": "128"
					},
					"t_uint256": {
						"encoding": "inplace",
						"label": "uint256",
						"numberOfBytes": "32"
					}
				}
			},
			"userdoc": {
				"kind": "user",
				"methods": {},
				"version": 1
			}
		}
	}
}