{
	"data": {
		"bytecode": {
			"linkReferences": {},
			"object": "60806040526005805460ff60a01b1916905534801561001c575f80fd5b50604051611d66380380611d6683398101604081905261003b916104ff565b338061006057604051631e4fbdf760e01b81525f600482015260240160405180910390fd5b610069816100bb565b5060018055600380546001600160a01b038086166001600160a01b0319928316179092556004805485841690831617905560058054928416929091169190911790556100b361010a565b50505061055d565b5f80546001600160a01b038381166001600160a01b0319831681178455604051919092169283917f8be0079c531659141344cd1fd0a4f28419497f9722a3daafe3b4186f6b6457e09190a35050565b6040518060800160405280600181526020016a01d693012228a4c840000081526020015f81526020015f81525060065f6009811061014a5761014a610549565b600402015f820151815f01556020820151816001015560408201518160020155606082015181600301559050506040518060800160405280600581526020016a01d692e560bb3d7978000081526020015f81526020015f81525060066001600981106101b8576101b8610549565b600402015f820151815f01556020820151816001015560408201518160020155606082015181600301559050506040518060800160405280600a81526020016a01d692e560bb3d7978000081526020015f81526020015f815250600660026009811061022657610226610549565b600402015f820151815f01556020820151816001015560408201518160020155606082015181600301559050506040518060800160405280600f81526020016a01d692e560bb3d7978000081526020015f81526020015f815250600660036009811061029457610294610549565b600402015f820151815f01556020820151816001015560408201518160020155606082015181600301559050506040518060800160405280601481526020016a01d692e560bb3d7978000081526020015f81526020015f815250600660046009811061030257610302610549565b600402015f820151815f01556020820151816001015560408201518160020155606082015181600301559050506040518060800160405280601981526020016a01d692e560bb3d7978000081526020015f81526020015f815250600660056009811061037057610370610549565b600402015f820151815f01556020820151816001015560408201518160020155606082015181600301559050506040518060800160405280601e81526020016a01d692e560bb3d7978000081526020015f81526020015f815250600680600981106103dd576103dd610549565b600402015f820151815f01556020820151816001015560408201518160020155606082015181600301559050506040518060800160405280602381526020016a01d692e560bb3d7978000081526020015f81526020015f815250600660076009811061044b5761044b610549565b600402015f820151815f01556020820151816001015560408201518160020155606082015181600301559050506040518060800160405280602881526020016a01d692e560bb3d7978000081526020015f81526020015f81525060066008600981106104b9576104b9610549565b600402015f820151815f0155602082015181600101556040820151816002015560608201518160030155905050565b6001600160a01b03811681146104fc575f80fd5b50565b5f805f60608486031215610511575f80fd5b835161051c816104e8565b602085015190935061052d816104e8565b604085015190925061053e816104e8565b809150509250925092565b634e487b7160e01b5f52603260045260245ffd5b6117fc8061056a5f395ff3fe6080604052600436106101af575f3560e01c806367faa4b6116100e75780638e17c01711610087578063e18132c411610062578063e18132c41461049c578063eedbe31d146104b2578063f2fde38b146104c6578063f94f983a146104e5575f80fd5b80638e17c01714610449578063a5aec84614610468578063a82524b214610487575f80fd5b806373b2e80e116100c257806373b2e80e146103a1578063841e4561146103cf578063845ddcb2146103ee5780638da5cb5b1461042d575f80fd5b806367faa4b61461035b5780636e14600f1461036e578063715018a61461038d575f80fd5b80633ea92d731161015257806354c4152e1161012d57806354c4152e146102f457806359ac5e18146103085780635bf5d54c1461032757806361d027b31461033c575f80fd5b80633ea92d73146102b65780633f957b0d146102ca57806351f9efde146102de575f80fd5b80631a8a63eb1161018d5780631a8a63eb146102125780631c2dda481461024b578063249b7c19146102825780633ca5b23414610297575f80fd5b806304c98b2b146101b35780630c454721146101c95780630f1c7769146101fe575b5f80fd5b3480156101be575f80fd5b506101c7610525565b005b3480156101d4575f80fd5b506005546101e990600160a01b900460ff1681565b60405190151581526020015b60405180910390f35b348015610209575f80fd5b506101c76105ed565b34801561021d575f80fd5b5061023d61022c3660046113fd565b602d6020525f908152604090205481565b6040519081526020016101f5565b348015610256575f80fd5b5060025461026a906001600160a01b031681565b6040516001600160a01b0390911681526020016101f5565b34801561028d575f80fd5b5061023d602c5481565b3480156102a2575f80fd5b5060035461026a906001600160a01b031681565b3480156102c1575f80fd5b5061023d600981565b3480156102d5575f80fd5b506101c76106e3565b3480156102e9575f80fd5b5061023d6234bc0081565b3480156102ff575f80fd5b5061023d610954565b348015610313575f80fd5b506101c7610322366004611460565b6109b2565b348015610332575f80fd5b5061023d602a5481565b348015610347575f80fd5b5060045461026a906001600160a01b031681565b6101c761036936600461156b565b610a96565b348015610379575f80fd5b506101c76103883660046113fd565b610f52565b348015610398575f80fd5b506101c7610f7c565b3480156103ac575f80fd5b506101e96103bb3660046113fd565b602e6020525f908152604090205460ff1681565b3480156103da575f80fd5b506101c76103e93660046113fd565b610f8f565b3480156103f9575f80fd5b5061040d6104083660046115af565b611001565b6040805194855260208501939093529183015260608201526080016101f5565b348015610438575f80fd5b505f546001600160a01b031661026a565b348015610454575f80fd5b506101c76104633660046113fd565b61102e565b348015610473575f80fd5b5061023d61048236600461156b565b6110a0565b348015610492575f80fd5b5061023d602b5481565b3480156104a7575f80fd5b5061023d6202a30081565b3480156104bd575f80fd5b50602a5461023d565b3480156104d1575f80fd5b506101c76104e03660046113fd565b6111a3565b3480156104f0575f80fd5b5061026a6104ff3660046115c6565b8051602081830181018051602f825292820191909301209152546001600160a01b031681565b61052d6111dd565b602b54156105825760405162461bcd60e51b815260206004820152601760248201527f50726573616c6520616c7265616479207374617274656400000000000000000060448201526064015b60405180910390fd5b42602b8190555f602a55600881905561059f906234bc0090611628565b6006602a54600981106105b4576105b4611600565b60040201600301819055507f17c3338141363aab2512c08f8a7764328ca95979f7057663eb93f7e250139b4c60405160405180910390a1565b6105f56111dd565b602c5442116106405760405162461bcd60e51b815260206004820152601760248201527650726573616c65206973207374696c6c2061637469766560481b6044820152606401610579565b5f610649610954565b905080156106e0576002546004805460405163a9059cbb60e01b81526001600160a01b0391821692810192909252602482018490529091169063a9059cbb906044016020604051808303815f875af11580156106a7573d5f803e3d5ffd5b505050506040513d601f19601f820116820180604052508101906106cb919061163b565b506005805460ff60a01b1916600160a01b1790555b50565b602c54421161072e5760405162461bcd60e51b815260206004820152601760248201527650726573616c65206973207374696c6c2061637469766560481b6044820152606401610579565b6002600154036107805760405162461bcd60e51b815260206004820152601f60248201527f5265656e7472616e637947756172643a207265656e7472616e742063616c6c006044820152606401610579565b6002600155602954610796906202a30090611628565b42116107e45760405162461bcd60e51b815260206004820152601860248201527f436c61696d20706572696f64206e6f74207374617274656400000000000000006044820152606401610579565b335f908152602e602052604090205460ff161561083b5760405162461bcd60e51b815260206004820152601560248201527411d15414dcc8185b1c9958591e4818db185a5b5959605a1b6044820152606401610579565b335f908152602d60205260409020548061088b5760405162461bcd60e51b81526020600482015260116024820152704e6f20474550537320746f20636c61696d60781b6044820152606401610579565b335f818152602e602052604090819020805460ff19166001179055600254905163a9059cbb60e01b81526004810192909252602482018390526001600160a01b03169063a9059cbb906044016020604051808303815f875af11580156108f3573d5f803e3d5ffd5b505050506040513d601f19601f82011682018060405250810190610917919061163b565b5060405181815233907f7a99cb7540e04f139e8bec2b914b561065e30819c986d0594db010eb76e23a2e9060200160405180910390a25060018055565b6005545f908190600160a01b900460ff166109ad575f5b60098110156109ab576109a16006826009811061098a5761098a611600565b60040201600101548361120990919063ffffffff16565b915060010161096b565b505b919050565b6109ba6111dd565b8281146109f35760405162461bcd60e51b8152602060048201526007602482015266504643523a303160c81b6044820152606401610579565b5f5b83811015610a8f57828282818110610a0f57610a0f611600565b9050602002016020810190610a2491906113fd565b602f868684818110610a3857610a38611600565b9050602002810190610a4a919061165a565b604051610a5892919061169d565b90815260405190819003602001902080546001600160a01b03929092166001600160a01b03199092169190911790556001016109f5565b5050505050565b600260015403610ae85760405162461bcd60e51b815260206004820152601f60248201527f5265656e7472616e637947756172643a207265656e7472616e742063616c6c006044820152606401610579565b6002600155602b545f03610b345760405162461bcd60e51b8152602060048201526013602482015272141c995cd85b1948139bdd081cdd185c9d1959606a1b6044820152606401610579565b5f8211610b835760405162461bcd60e51b815260206004820181905260248201527f416d6f756e74206d7573742062652067726561746572207468616e207a65726f6044820152606401610579565b426006602a5460098110610b9957610b99611600565b600402016003015411610c2d57602a54600803610c2557426006602a5460098110610bc657610bc6611600565b60040201600301819055506006602a5460098110610be657610be6611600565b6004020160030154602c819055507f1eb1561f8507eb9bc6988331f66f369e75710f2b4b678ad5b4a52454b6636f5f60405160405180910390a1610c2d565b610c2d61121b565b5f610c3883836110a0565b60408051808201909152600381526221272160e91b6020918201528351908401209091507fc12fc3c71a6239f384963d5b409706deb5326acdad4a56f170a0a6a7c1643c5201610d075782341015610cca5760405162461bcd60e51b8152602060048201526015602482015274125b9cdd59999a58da595b9d08109390881cd95b9d605a1b6044820152606401610579565b6005546040516001600160a01b039091169084156108fc029085905f818181858888f19350505050158015610d01573d5f803e3d5ffd5b50610e52565b604080518082019091526004815263109554d160e21b6020918201528251908301207fab3aed538869b898d472fd1d01d23ef086440e608e62778dde969dea02db160f01610e13576003546005546040516323b872dd60e01b81523360048201526001600160a01b039182166024820152604481018690529116906323b872dd906064016020604051808303815f875af1158015610da7573d5f803e3d5ffd5b505050506040513d601f19601f82011682018060405250810190610dcb919061163b565b610e0e5760405162461bcd60e51b8152602060048201526014602482015273109554d1081d1c985b9cd9995c8819985a5b195960621b6044820152606401610579565b610e52565b60405162461bcd60e51b8152602060048201526014602482015273556e737570706f727465642063757272656e637960601b6044820152606401610579565b610e5c3382611296565b336001600160a01b03167f97b8e46ce6a858394214fb0002594294805c68b044a2105798d860d0f922451a8284604051610e979291906116ac565b60405180910390a26006602a5460098110610eb457610eb4611600565b60040201600101545f03610f4957602a54600803610f4157426006602a5460098110610ee257610ee2611600565b60040201600301819055506006602a5460098110610f0257610f02611600565b6004020160030154602c819055507f1eb1561f8507eb9bc6988331f66f369e75710f2b4b678ad5b4a52454b6636f5f60405160405180910390a1610f49565b610f4961121b565b50506001805550565b610f5a6111dd565b600280546001600160a01b0319166001600160a01b0392909216919091179055565b610f846111dd565b610f8d5f61138f565b565b610f976111dd565b6001600160a01b038116610fdf5760405162461bcd60e51b815260206004820152600f60248201526e496e76616c6964206164647265737360881b6044820152606401610579565b600480546001600160a01b0319166001600160a01b0392909216919091179055565b60068160098110611010575f80fd5b60040201805460018201546002830154600390930154919350919084565b6110366111dd565b6001600160a01b03811661107e5760405162461bcd60e51b815260206004820152600f60248201526e496e76616c6964206164647265737360881b6044820152606401610579565b600580546001600160a01b0319166001600160a01b0392909216919091179055565b5f8060646006602a54600981106110b9576110b9611600565b60040201546110d090670de0b6b3a76400006116e8565b6110da91906116ff565b90505f602f846040516110ed919061171e565b9081526040805191829003602001822054633fabe5a360e21b835290516001600160a01b03909116925082915f91839163feaf968c9160048083019260a09291908290030181865afa158015611145573d5f803e3d5ffd5b505050506040513d601f19601f82011682018060405250810190611169919061174d565b5050509150505f816402540be40061118191906116e8565b61118b868a6116ff565b61119591906116e8565b955050505050505b92915050565b6111ab6111dd565b6001600160a01b0381166111d457604051631e4fbdf760e01b81525f6004820152602401610579565b6106e08161138f565b5f546001600160a01b03163314610f8d5760405163118cdaa760e01b8152336004820152602401610579565b5f6112148284611628565b9392505050565b6112276001600961179b565b602a541015610f8d57602a8054905f61123f836117ae565b9190505550426006602a546009811061125a5761125a611600565b60040201600201819055506234bc00426112749190611628565b6006602a546009811061128957611289611600565b6004020160030181905550565b806006602a54600981106112ac576112ac611600565b600402016001015410156113025760405162461bcd60e51b815260206004820152601a60248201527f4e6f7420656e6f75676820474550537320617661696c61626c650000000000006044820152606401610579565b611331816006602a546009811061131b5761131b611600565b60040201600101546113de90919063ffffffff16565b6006602a546009811061134657611346611600565b60040201600101556001600160a01b0382165f908152602d60205260409020546113709082611209565b6001600160a01b039092165f908152602d602052604090209190915550565b5f80546001600160a01b038381166001600160a01b0319831681178455604051919092169283917f8be0079c531659141344cd1fd0a4f28419497f9722a3daafe3b4186f6b6457e09190a35050565b5f611214828461179b565b6001600160a01b03811681146106e0575f80fd5b5f6020828403121561140d575f80fd5b8135611214816113e9565b5f8083601f840112611428575f80fd5b50813567ffffffffffffffff81111561143f575f80fd5b6020830191508360208260051b8501011115611459575f80fd5b9250929050565b5f805f8060408587031215611473575f80fd5b843567ffffffffffffffff811115611489575f80fd5b61149587828801611418565b909550935050602085013567ffffffffffffffff8111156114b4575f80fd5b6114c087828801611418565b95989497509550505050565b634e487b7160e01b5f52604160045260245ffd5b5f82601f8301126114ef575f80fd5b813567ffffffffffffffff811115611509576115096114cc565b604051601f8201601f19908116603f0116810167ffffffffffffffff81118282101715611538576115386114cc565b60405281815283820160200185101561154f575f80fd5b816020850160208301375f918101602001919091529392505050565b5f806040838503121561157c575f80fd5b82359150602083013567ffffffffffffffff811115611599575f80fd5b6115a5858286016114e0565b9150509250929050565b5f602082840312156115bf575f80fd5b5035919050565b5f602082840312156115d6575f80fd5b813567ffffffffffffffff8111156115ec575f80fd5b6115f8848285016114e0565b949350505050565b634e487b7160e01b5f52603260045260245ffd5b634e487b7160e01b5f52601160045260245ffd5b8082018082111561119d5761119d611614565b5f6020828403121561164b575f80fd5b81518015158114611214575f80fd5b5f808335601e1984360301811261166f575f80fd5b83018035915067ffffffffffffffff821115611689575f80fd5b602001915036819003821315611459575f80fd5b818382375f9101908152919050565b828152604060208201525f82518060408401528060208501606085015e5f606082850101526060601f19601f8301168401019150509392505050565b808202811582820484141761119d5761119d611614565b5f8261171957634e487b7160e01b5f52601260045260245ffd5b500490565b5f82518060208501845e5f920191825250919050565b805169ffffffffffffffffffff811681146109ad575f80fd5b5f805f805f60a08688031215611761575f80fd5b61176a86611734565b6020870151604088015160608901519297509095509350915061178f60808701611734565b90509295509295909350565b8181038181111561119d5761119d611614565b5f600182016117bf576117bf611614565b506001019056fea26469706673582212203f93bbae42dbf0e9061ecaa5652721ffb332e41dee419bdc32033c3cbeee50e864736f6c634300081a0033",
			"opcodes": "PUSH1 0x80 PUSH1 0x40 MSTORE PUSH1 0x5 DUP1 SLOAD PUSH1 0xFF PUSH1 0xA0 SHL NOT AND SWAP1 SSTORE CALLVALUE DUP1 ISZERO PUSH2 0x1C JUMPI PUSH0 DUP1 REVERT JUMPDEST POP PUSH1 0x40 MLOAD PUSH2 0x1D66 CODESIZE SUB DUP1 PUSH2 0x1D66 DUP4 CODECOPY DUP2 ADD PUSH1 0x40 DUP2 SWAP1 MSTORE PUSH2 0x3B SWAP2 PUSH2 0x4FF JUMP JUMPDEST CALLER DUP1 PUSH2 0x60 JUMPI PUSH1 0x40 MLOAD PUSH4 0x1E4FBDF7 PUSH1 0xE0 SHL DUP2 MSTORE PUSH0 PUSH1 0x4 DUP3 ADD MSTORE PUSH1 0x24 ADD PUSH1 0x40 MLOAD DUP1 SWAP2 SUB SWAP1 REVERT JUMPDEST PUSH2 0x69 DUP2 PUSH2 0xBB JUMP JUMPDEST POP PUSH1 0x1 DUP1 SSTORE PUSH1 0x3 DUP1 SLOAD PUSH1 0x1 PUSH1 0x1 PUSH1 0xA0 SHL SUB DUP1 DUP7 AND PUSH1 0x1 PUSH1 0x1 PUSH1 0xA0 SHL SUB NOT SWAP3 DUP4 AND OR SWAP1 SWAP3 SSTORE PUSH1 0x4 DUP1 SLOAD DUP6 DUP5 AND SWAP1 DUP4 AND OR SWAP1 SSTORE PUSH1 0x5 DUP1 SLOAD SWAP3 DUP5 AND SWAP3 SWAP1 SWAP2 AND SWAP2 SWAP1 SWAP2 OR SWAP1 SSTORE PUSH2 0xB3 PUSH2 0x10A JUMP JUMPDEST POP POP POP PUSH2 0x55D JUMP JUMPDEST PUSH0 DUP1 SLOAD PUSH1 0x1 PUSH1 0x1 PUSH1 0xA0 SHL SUB DUP4 DUP2 AND PUSH1 0x1 PUSH1 0x1 PUSH1 0xA0 SHL SUB NOT DUP4 AND DUP2 OR DUP5 SSTORE PUSH1 0x40 MLOAD SWAP2 SWAP1 SWAP3 AND SWAP3 DUP4 SWAP2 PUSH32 0x8BE0079C531659141344CD1FD0A4F28419497F9722A3DAAFE3B4186F6B6457E0 SWAP2 SWAP1 LOG3 POP POP JUMP JUMPDEST PUSH1 0x40 MLOAD DUP1 PUSH1 0x80 ADD PUSH1 0x40 MSTORE DUP1 PUSH1 0x1 DUP2 MSTORE PUSH1 0x20 ADD PUSH11 0x1D693012228A4C8400000 DUP2 MSTORE PUSH1 0x20 ADD PUSH0 DUP2 MSTORE PUSH1 0x20 ADD PUSH0 DUP2 MSTORE POP PUSH1 0x6 PUSH0 PUSH1 0x9 DUP2 LT PUSH2 0x14A JUMPI PUSH2 0x14A PUSH2 0x549 JUMP JUMPDEST PUSH1 0x4 MUL ADD PUSH0 DUP3 ADD MLOAD DUP2 PUSH0 ADD SSTORE PUSH1 0x20 DUP3 ADD MLOAD DUP2 PUSH1 0x1 ADD SSTORE PUSH1 0x40 DUP3 ADD MLOAD DUP2 PUSH1 0x2 ADD SSTORE PUSH1 0x60 DUP3 ADD MLOAD DUP2 PUSH1 0x3 ADD SSTORE SWAP1 POP POP PUSH1 0x40 MLOAD DUP1 PUSH1 0x80 ADD PUSH1 0x40 MSTORE DUP1 PUSH1 0x5 DUP2 MSTORE PUSH1 0x20 ADD PUSH11 0x1D692E560BB3D79780000 DUP2 MSTORE PUSH1 0x20 ADD PUSH0 DUP2 MSTORE PUSH1 0x20 ADD PUSH0 DUP2 MSTORE POP PUSH1 0x6 PUSH1 0x1 PUSH1 0x9 DUP2 LT PUSH2 0x1B8 JUMPI PUSH2 0x1B8 PUSH2 0x549 JUMP JUMPDEST PUSH1 0x4 MUL ADD PUSH0 DUP3 ADD MLOAD DUP2 PUSH0 ADD SSTORE PUSH1 0x20 DUP3 ADD MLOAD DUP2 PUSH1 0x1 ADD SSTORE PUSH1 0x40 DUP3 ADD MLOAD DUP2 PUSH1 0x2 ADD SSTORE PUSH1 0x60 DUP3 ADD MLOAD DUP2 PUSH1 0x3 ADD SSTORE SWAP1 POP POP PUSH1 0x40 MLOAD DUP1 PUSH1 0x80 ADD PUSH1 0x40 MSTORE DUP1 PUSH1 0xA DUP2 MSTORE PUSH1 0x20 ADD PUSH11 0x1D692E560BB3D79780000 DUP2 MSTORE PUSH1 0x20 ADD PUSH0 DUP2 MSTORE PUSH1 0x20 ADD PUSH0 DUP2 MSTORE POP PUSH1 0x6 PUSH1 0x2 PUSH1 0x9 DUP2 LT PUSH2 0x226 JUMPI PUSH2 0x226 PUSH2 0x549 JUMP JUMPDEST PUSH1 0x4 MUL ADD PUSH0 DUP3 ADD MLOAD DUP2 PUSH0 ADD SSTORE PUSH1 0x20 DUP3 ADD MLOAD DUP2 PUSH1 0x1 ADD SSTORE PUSH1 0x40 DUP3 ADD MLOAD DUP2 PUSH1 0x2 ADD SSTORE PUSH1 0x60 DUP3 ADD MLOAD DUP2 PUSH1 0x3 ADD SSTORE SWAP1 POP POP PUSH1 0x40 MLOAD DUP1 PUSH1 0x80 ADD PUSH1 0x40 MSTORE DUP1 PUSH1 0xF DUP2 MSTORE PUSH1 0x20 ADD PUSH11 0x1D692E560BB3D79780000 DUP2 MSTORE PUSH1 0x20 ADD PUSH0 DUP2 MSTORE PUSH1 0x20 ADD PUSH0 DUP2 MSTORE POP PUSH1 0x6 PUSH1 0x3 PUSH1 0x9 DUP2 LT PUSH2 0x294 JUMPI PUSH2 0x294 PUSH2 0x549 JUMP JUMPDEST PUSH1 0x4 MUL ADD PUSH0 DUP3 ADD MLOAD DUP2 PUSH0 ADD SSTORE PUSH1 0x20 DUP3 ADD MLOAD DUP2 PUSH1 0x1 ADD SSTORE PUSH1 0x40 DUP3 ADD MLOAD DUP2 PUSH1 0x2 ADD SSTORE PUSH1 0x60 DUP3 ADD MLOAD DUP2 PUSH1 0x3 ADD SSTORE SWAP1 POP POP PUSH1 0x40 MLOAD DUP1 PUSH1 0x80 ADD PUSH1 0x40 MSTORE DUP1 PUSH1 0x14 DUP2 MSTORE PUSH1 0x20 ADD PUSH11 0x1D692E560BB3D79780000 DUP2 MSTORE PUSH1 0x20 ADD PUSH0 DUP2 MSTORE PUSH1 0x20 ADD PUSH0 DUP2 MSTORE POP PUSH1 0x6 PUSH1 0x4 PUSH1 0x9 DUP2 LT PUSH2 0x302 JUMPI PUSH2 0x302 PUSH2 0x549 JUMP JUMPDEST PUSH1 0x4 MUL ADD PUSH0 DUP3 ADD MLOAD DUP2 PUSH0 ADD SSTORE PUSH1 0x20 DUP3 ADD MLOAD DUP2 PUSH1 0x1 ADD SSTORE PUSH1 0x40 DUP3 ADD MLOAD DUP2 PUSH1 0x2 ADD SSTORE PUSH1 0x60 DUP3 ADD MLOAD DUP2 PUSH1 0x3 ADD SSTORE SWAP1 POP POP PUSH1 0x40 MLOAD DUP1 PUSH1 0x80 ADD PUSH1 0x40 MSTORE DUP1 PUSH1 0x19 DUP2 MSTORE PUSH1 0x20 ADD PUSH11 0x1D692E560BB3D79780000 DUP2 MSTORE PUSH1 0x20 ADD PUSH0 DUP2 MSTORE PUSH1 0x20 ADD PUSH0 DUP2 MSTORE POP PUSH1 0x6 PUSH1 0x5 PUSH1 0x9 DUP2 LT PUSH2 0x370 JUMPI PUSH2 0x370 PUSH2 0x549 JUMP JUMPDEST PUSH1 0x4 MUL ADD PUSH0 DUP3 ADD MLOAD DUP2 PUSH0 ADD SSTORE PUSH1 0x20 DUP3 ADD MLOAD DUP2 PUSH1 0x1 ADD SSTORE PUSH1 0x40 DUP3 ADD MLOAD DUP2 PUSH1 0x2 ADD SSTORE PUSH1 0x60 DUP3 ADD MLOAD DUP2 PUSH1 0x3 ADD SSTORE SWAP1 POP POP PUSH1 0x40 MLOAD DUP1 PUSH1 0x80 ADD PUSH1 0x40 MSTORE DUP1 PUSH1 0x1E DUP2 MSTORE PUSH1 0x20 ADD PUSH11 0x1D692E560BB3D79780000 DUP2 MSTORE PUSH1 0x20 ADD PUSH0 DUP2 MSTORE PUSH1 0x20 ADD PUSH0 DUP2 MSTORE POP PUSH1 0x6 DUP1 PUSH1 0x9 DUP2 LT PUSH2 0x3DD JUMPI PUSH2 0x3DD PUSH2 0x549 JUMP JUMPDEST PUSH1 0x4 MUL ADD PUSH0 DUP3 ADD MLOAD DUP2 PUSH0 ADD SSTORE PUSH1 0x20 DUP3 ADD MLOAD DUP2 PUSH1 0x1 ADD SSTORE PUSH1 0x40 DUP3 ADD MLOAD DUP2 PUSH1 0x2 ADD SSTORE PUSH1 0x60 DUP3 ADD MLOAD DUP2 PUSH1 0x3 ADD SSTORE SWAP1 POP POP PUSH1 0x40 MLOAD DUP1 PUSH1 0x80 ADD PUSH1 0x40 MSTORE DUP1 PUSH1 0x23 DUP2 MSTORE PUSH1 0x20 ADD PUSH11 0x1D692E560BB3D79780000 DUP2 MSTORE PUSH1 0x20 ADD PUSH0 DUP2 MSTORE PUSH1 0x20 ADD PUSH0 DUP2 MSTORE POP PUSH1 0x6 PUSH1 0x7 PUSH1 0x9 DUP2 LT PUSH2 0x44B JUMPI PUSH2 0x44B PUSH2 0x549 JUMP JUMPDEST PUSH1 0x4 MUL ADD PUSH0 DUP3 ADD MLOAD DUP2 PUSH0 ADD SSTORE PUSH1 0x20 DUP3 ADD MLOAD DUP2 PUSH1 0x1 ADD SSTORE PUSH1 0x40 DUP3 ADD MLOAD DUP2 PUSH1 0x2 ADD SSTORE PUSH1 0x60 DUP3 ADD MLOAD DUP2 PUSH1 0x3 ADD SSTORE SWAP1 POP POP PUSH1 0x40 MLOAD DUP1 PUSH1 0x80 ADD PUSH1 0x40 MSTORE DUP1 PUSH1 0x28 DUP2 MSTORE PUSH1 0x20 ADD PUSH11 0x1D692E560BB3D79780000 DUP2 MSTORE PUSH1 0x20 ADD PUSH0 DUP2 MSTORE PUSH1 0x20 ADD PUSH0 DUP2 MSTORE POP PUSH1 0x6 PUSH1 0x8 PUSH1 0x9 DUP2 LT PUSH2 0x4B9 JUMPI PUSH2 0x4B9 PUSH2 0x549 JUMP JUMPDEST PUSH1 0x4 MUL ADD PUSH0 DUP3 ADD MLOAD DUP2 PUSH0 ADD SSTORE PUSH1 0x20 DUP3 ADD MLOAD DUP2 PUSH1 0x1 ADD SSTORE PUSH1 0x40 DUP3 ADD MLOAD DUP2 PUSH1 0x2 ADD SSTORE PUSH1 0x60 DUP3 ADD MLOAD DUP2 PUSH1 0x3 ADD SSTORE SWAP1 POP POP JUMP JUMPDEST PUSH1 0x1 PUSH1 0x1 PUSH1 0xA0 SHL SUB DUP2 AND DUP2 EQ PUSH2 0x4FC JUMPI PUSH0 DUP1 REVERT JUMPDEST POP JUMP JUMPDEST PUSH0 DUP1 PUSH0 PUSH1 0x60 DUP5 DUP7 SUB SLT ISZERO PUSH2 0x511 JUMPI PUSH0 DUP1 REVERT JUMPDEST DUP4 MLOAD PUSH2 0x51C DUP2 PUSH2 0x4E8 JUMP JUMPDEST PUSH1 0x20 DUP6 ADD MLOAD SWAP1 SWAP4 POP PUSH2 0x52D DUP2 PUSH2 0x4E8 JUMP JUMPDEST PUSH1 0x40 DUP6 ADD MLOAD SWAP1 SWAP3 POP PUSH2 0x53E DUP2 PUSH2 0x4E8 JUMP JUMPDEST DUP1 SWAP2 POP POP SWAP3 POP SWAP3 POP SWAP3 JUMP JUMPDEST PUSH4 0x4E487B71 PUSH1 0xE0 SHL PUSH0 MSTORE PUSH1 0x32 PUSH1 0x4 MSTORE PUSH1 0x24 PUSH0 REVERT JUMPDEST PUSH2 0x17FC DUP1 PUSH2 0x56A PUSH0 CODECOPY PUSH0 RETURN INVALID PUSH1 0x80 PUSH1 0x40 MSTORE PUSH1 0x4 CALLDATASIZE LT PUSH2 0x1AF JUMPI PUSH0 CALLDATALOAD PUSH1 0xE0 SHR DUP1 PUSH4 0x67FAA4B6 GT PUSH2 0xE7 JUMPI DUP1 PUSH4 0x8E17C017 GT PUSH2 0x87 JUMPI DUP1 PUSH4 0xE18132C4 GT PUSH2 0x62 JUMPI DUP1 PUSH4 0xE18132C4 EQ PUSH2 0x49C JUMPI DUP1 PUSH4 0xEEDBE31D EQ PUSH2 0x4B2 JUMPI DUP1 PUSH4 0xF2FDE38B EQ PUSH2 0x4C6 JUMPI DUP1 PUSH4 0xF94F983A EQ PUSH2 0x4E5 JUMPI PUSH0 DUP1 REVERT JUMPDEST DUP1 PUSH4 0x8E17C017 EQ PUSH2 0x449 JUMPI DUP1 PUSH4 0xA5AEC846 EQ PUSH2 0x468 JUMPI DUP1 PUSH4 0xA82524B2 EQ PUSH2 0x487 JUMPI PUSH0 DUP1 REVERT JUMPDEST DUP1 PUSH4 0x73B2E80E GT PUSH2 0xC2 JUMPI DUP1 PUSH4 0x73B2E80E EQ PUSH2 0x3A1 JUMPI DUP1 PUSH4 0x841E4561 EQ PUSH2 0x3CF JUMPI DUP1 PUSH4 0x845DDCB2 EQ PUSH2 0x3EE JUMPI DUP1 PUSH4 0x8DA5CB5B EQ PUSH2 0x42D JUMPI PUSH0 DUP1 REVERT JUMPDEST DUP1 PUSH4 0x67FAA4B6 EQ PUSH2 0x35B JUMPI DUP1 PUSH4 0x6E14600F EQ PUSH2 0x36E JUMPI DUP1 PUSH4 0x715018A6 EQ PUSH2 0x38D JUMPI PUSH0 DUP1 REVERT JUMPDEST DUP1 PUSH4 0x3EA92D73 GT PUSH2 0x152 JUMPI DUP1 PUSH4 0x54C4152E GT PUSH2 0x12D JUMPI DUP1 PUSH4 0x54C4152E EQ PUSH2 0x2F4 JUMPI DUP1 PUSH4 0x59AC5E18 EQ PUSH2 0x308 JUMPI DUP1 PUSH4 0x5BF5D54C EQ PUSH2 0x327 JUMPI DUP1 PUSH4 0x61D027B3 EQ PUSH2 0x33C JUMPI PUSH0 DUP1 REVERT JUMPDEST DUP1 PUSH4 0x3EA92D73 EQ PUSH2 0x2B6 JUMPI DUP1 PUSH4 0x3F957B0D EQ PUSH2 0x2CA JUMPI DUP1 PUSH4 0x51F9EFDE EQ PUSH2 0x2DE JUMPI PUSH0 DUP1 REVERT JUMPDEST DUP1 PUSH4 0x1A8A63EB GT PUSH2 0x18D JUMPI DUP1 PUSH4 0x1A8A63EB EQ PUSH2 0x212 JUMPI DUP1 PUSH4 0x1C2DDA48 EQ PUSH2 0x24B JUMPI DUP1 PUSH4 0x249B7C19 EQ PUSH2 0x282 JUMPI DUP1 PUSH4 0x3CA5B234 EQ PUSH2 0x297 JUMPI PUSH0 DUP1 REVERT JUMPDEST DUP1 PUSH4 0x4C98B2B EQ PUSH2 0x1B3 JUMPI DUP1 PUSH4 0xC454721 EQ PUSH2 0x1C9 JUMPI DUP1 PUSH4 0xF1C7769 EQ PUSH2 0x1FE JUMPI JUMPDEST PUSH0 DUP1 REVERT JUMPDEST CALLVALUE DUP1 ISZERO PUSH2 0x1BE JUMPI PUSH0 DUP1 REVERT JUMPDEST POP PUSH2 0x1C7 PUSH2 0x525 JUMP JUMPDEST STOP JUMPDEST CALLVALUE DUP1 ISZERO PUSH2 0x1D4 JUMPI PUSH0 DUP1 REVERT JUMPDEST POP PUSH1 0x5 SLOAD PUSH2 0x1E9 SWAP1 PUSH1 0x1 PUSH1 0xA0 SHL SWAP1 DIV PUSH1 0xFF AND DUP2 JUMP JUMPDEST PUSH1 0x40 MLOAD SWAP1 ISZERO ISZERO DUP2 MSTORE PUSH1 0x20 ADD JUMPDEST PUSH1 0x40 MLOAD DUP1 SWAP2 SUB SWAP1 RETURN JUMPDEST CALLVALUE DUP1 ISZERO PUSH2 0x209 JUMPI PUSH0 DUP1 REVERT JUMPDEST POP PUSH2 0x1C7 PUSH2 0x5ED JUMP JUMPDEST CALLVALUE DUP1 ISZERO PUSH2 0x21D JUMPI PUSH0 DUP1 REVERT JUMPDEST POP PUSH2 0x23D PUSH2 0x22C CALLDATASIZE PUSH1 0x4 PUSH2 0x13FD JUMP JUMPDEST PUSH1 0x2D PUSH1 0x20 MSTORE PUSH0 SWAP1 DUP2 MSTORE PUSH1 0x40 SWAP1 KECCAK256 SLOAD DUP2 JUMP JUMPDEST PUSH1 0x40 MLOAD SWAP1 DUP2 MSTORE PUSH1 0x20 ADD PUSH2 0x1F5 JUMP JUMPDEST CALLVALUE DUP1 ISZERO PUSH2 0x256 JUMPI PUSH0 DUP1 REVERT JUMPDEST POP PUSH1 0x2 SLOAD PUSH2 0x26A SWAP1 PUSH1 0x1 PUSH1 0x1 PUSH1 0xA0 SHL SUB AND DUP2 JUMP JUMPDEST PUSH1 0x40 MLOAD PUSH1 0x1 PUSH1 0x1 PUSH1 0xA0 SHL SUB SWAP1 SWAP2 AND DUP2 MSTORE PUSH1 0x20 ADD PUSH2 0x1F5 JUMP JUMPDEST CALLVALUE DUP1 ISZERO PUSH2 0x28D JUMPI PUSH0 DUP1 REVERT JUMPDEST POP PUSH2 0x23D PUSH1 0x2C SLOAD DUP2 JUMP JUMPDEST CALLVALUE DUP1 ISZERO PUSH2 0x2A2 JUMPI PUSH0 DUP1 REVERT JUMPDEST POP PUSH1 0x3 SLOAD PUSH2 0x26A SWAP1 PUSH1 0x1 PUSH1 0x1 PUSH1 0xA0 SHL SUB AND DUP2 JUMP JUMPDEST CALLVALUE DUP1 ISZERO PUSH2 0x2C1 JUMPI PUSH0 DUP1 REVERT JUMPDEST POP PUSH2 0x23D PUSH1 0x9 DUP2 JUMP JUMPDEST CALLVALUE DUP1 ISZERO PUSH2 0x2D5 JUMPI PUSH0 DUP1 REVERT JUMPDEST POP PUSH2 0x1C7 PUSH2 0x6E3 JUMP JUMPDEST CALLVALUE DUP1 ISZERO PUSH2 0x2E9 JUMPI PUSH0 DUP1 REVERT JUMPDEST POP PUSH2 0x23D PUSH3 0x34BC00 DUP2 JUMP JUMPDEST CALLVALUE DUP1 ISZERO PUSH2 0x2FF JUMPI PUSH0 DUP1 REVERT JUMPDEST POP PUSH2 0x23D PUSH2 0x954 JUMP JUMPDEST CALLVALUE DUP1 ISZERO PUSH2 0x313 JUMPI PUSH0 DUP1 REVERT JUMPDEST POP PUSH2 0x1C7 PUSH2 0x322 CALLDATASIZE PUSH1 0x4 PUSH2 0x1460 JUMP JUMPDEST PUSH2 0x9B2 JUMP JUMPDEST CALLVALUE DUP1 ISZERO PUSH2 0x332 JUMPI PUSH0 DUP1 REVERT JUMPDEST POP PUSH2 0x23D PUSH1 0x2A SLOAD DUP2 JUMP JUMPDEST CALLVALUE DUP1 ISZERO PUSH2 0x347 JUMPI PUSH0 DUP1 REVERT JUMPDEST POP PUSH1 0x4 SLOAD PUSH2 0x26A SWAP1 PUSH1 0x1 PUSH1 0x1 PUSH1 0xA0 SHL SUB AND DUP2 JUMP JUMPDEST PUSH2 0x1C7 PUSH2 0x369 CALLDATASIZE PUSH1 0x4 PUSH2 0x156B JUMP JUMPDEST PUSH2 0xA96 JUMP JUMPDEST CALLVALUE DUP1 ISZERO PUSH2 0x379 JUMPI PUSH0 DUP1 REVERT JUMPDEST POP PUSH2 0x1C7 PUSH2 0x388 CALLDATASIZE PUSH1 0x4 PUSH2 0x13FD JUMP JUMPDEST PUSH2 0xF52 JUMP JUMPDEST CALLVALUE DUP1 ISZERO PUSH2 0x398 JUMPI PUSH0 DUP1 REVERT JUMPDEST POP PUSH2 0x1C7 PUSH2 0xF7C JUMP JUMPDEST CALLVALUE DUP1 ISZERO PUSH2 0x3AC JUMPI PUSH0 DUP1 REVERT JUMPDEST POP PUSH2 0x1E9 PUSH2 0x3BB CALLDATASIZE PUSH1 0x4 PUSH2 0x13FD JUMP JUMPDEST PUSH1 0x2E PUSH1 0x20 MSTORE PUSH0 SWAP1 DUP2 MSTORE PUSH1 0x40 SWAP1 KECCAK256 SLOAD PUSH1 0xFF AND DUP2 JUMP JUMPDEST CALLVALUE DUP1 ISZERO PUSH2 0x3DA JUMPI PUSH0 DUP1 REVERT JUMPDEST POP PUSH2 0x1C7 PUSH2 0x3E9 CALLDATASIZE PUSH1 0x4 PUSH2 0x13FD JUMP JUMPDEST PUSH2 0xF8F JUMP JUMPDEST CALLVALUE DUP1 ISZERO PUSH2 0x3F9 JUMPI PUSH0 DUP1 REVERT JUMPDEST POP PUSH2 0x40D PUSH2 0x408 CALLDATASIZE PUSH1 0x4 PUSH2 0x15AF JUMP JUMPDEST PUSH2 0x1001 JUMP JUMPDEST PUSH1 0x40 DUP1 MLOAD SWAP5 DUP6 MSTORE PUSH1 0x20 DUP6 ADD SWAP4 SWAP1 SWAP4 MSTORE SWAP2 DUP4 ADD MSTORE PUSH1 0x60 DUP3 ADD MSTORE PUSH1 0x80 ADD PUSH2 0x1F5 JUMP JUMPDEST CALLVALUE DUP1 ISZERO PUSH2 0x438 JUMPI PUSH0 DUP1 REVERT JUMPDEST POP PUSH0 SLOAD PUSH1 0x1 PUSH1 0x1 PUSH1 0xA0 SHL SUB AND PUSH2 0x26A JUMP JUMPDEST CALLVALUE DUP1 ISZERO PUSH2 0x454 JUMPI PUSH0 DUP1 REVERT JUMPDEST POP PUSH2 0x1C7 PUSH2 0x463 CALLDATASIZE PUSH1 0x4 PUSH2 0x13FD JUMP JUMPDEST PUSH2 0x102E JUMP JUMPDEST CALLVALUE DUP1 ISZERO PUSH2 0x473 JUMPI PUSH0 DUP1 REVERT JUMPDEST POP PUSH2 0x23D PUSH2 0x482 CALLDATASIZE PUSH1 0x4 PUSH2 0x156B JUMP JUMPDEST PUSH2 0x10A0 JUMP JUMPDEST CALLVALUE DUP1 ISZERO PUSH2 0x492 JUMPI PUSH0 DUP1 REVERT JUMPDEST POP PUSH2 0x23D PUSH1 0x2B SLOAD DUP2 JUMP JUMPDEST CALLVALUE DUP1 ISZERO PUSH2 0x4A7 JUMPI PUSH0 DUP1 REVERT JUMPDEST POP PUSH2 0x23D PUSH3 0x2A300 DUP2 JUMP JUMPDEST CALLVALUE DUP1 ISZERO PUSH2 0x4BD JUMPI PUSH0 DUP1 REVERT JUMPDEST POP PUSH1 0x2A SLOAD PUSH2 0x23D JUMP JUMPDEST CALLVALUE DUP1 ISZERO PUSH2 0x4D1 JUMPI PUSH0 DUP1 REVERT JUMPDEST POP PUSH2 0x1C7 PUSH2 0x4E0 CALLDATASIZE PUSH1 0x4 PUSH2 0x13FD JUMP JUMPDEST PUSH2 0x11A3 JUMP JUMPDEST CALLVALUE DUP1 ISZERO PUSH2 0x4F0 JUMPI PUSH0 DUP1 REVERT JUMPDEST POP PUSH2 0x26A PUSH2 0x4FF CALLDATASIZE PUSH1 0x4 PUSH2 0x15C6 JUMP JUMPDEST DUP1 MLOAD PUSH1 0x20 DUP2 DUP4 ADD DUP2 ADD DUP1 MLOAD PUSH1 0x2F DUP3 MSTORE SWAP3 DUP3 ADD SWAP2 SWAP1 SWAP4 ADD KECCAK256 SWAP2 MSTORE SLOAD PUSH1 0x1 PUSH1 0x1 PUSH1 0xA0 SHL SUB AND DUP2 JUMP JUMPDEST PUSH2 0x52D PUSH2 0x11DD JUMP JUMPDEST PUSH1 0x2B SLOAD ISZERO PUSH2 0x582 JUMPI PUSH1 0x40 MLOAD PUSH3 0x461BCD PUSH1 0xE5 SHL DUP2 MSTORE PUSH1 0x20 PUSH1 0x4 DUP3 ADD MSTORE PUSH1 0x17 PUSH1 0x24 DUP3 ADD MSTORE PUSH32 0x50726573616C6520616C72656164792073746172746564000000000000000000 PUSH1 0x44 DUP3 ADD MSTORE PUSH1 0x64 ADD JUMPDEST PUSH1 0x40 MLOAD DUP1 SWAP2 SUB SWAP1 REVERT JUMPDEST TIMESTAMP PUSH1 0x2B DUP2 SWAP1 SSTORE PUSH0 PUSH1 0x2A SSTORE PUSH1 0x8 DUP2 SWAP1 SSTORE PUSH2 0x59F SWAP1 PUSH3 0x34BC00 SWAP1 PUSH2 0x1628 JUMP JUMPDEST PUSH1 0x6 PUSH1 0x2A SLOAD PUSH1 0x9 DUP2 LT PUSH2 0x5B4 JUMPI PUSH2 0x5B4 PUSH2 0x1600 JUMP JUMPDEST PUSH1 0x4 MUL ADD PUSH1 0x3 ADD DUP2 SWAP1 SSTORE POP PUSH32 0x17C3338141363AAB2512C08F8A7764328CA95979F7057663EB93F7E250139B4C PUSH1 0x40 MLOAD PUSH1 0x40 MLOAD DUP1 SWAP2 SUB SWAP1 LOG1 JUMP JUMPDEST PUSH2 0x5F5 PUSH2 0x11DD JUMP JUMPDEST PUSH1 0x2C SLOAD TIMESTAMP GT PUSH2 0x640 JUMPI PUSH1 0x40 MLOAD PUSH3 0x461BCD PUSH1 0xE5 SHL DUP2 MSTORE PUSH1 0x20 PUSH1 0x4 DUP3 ADD MSTORE PUSH1 0x17 PUSH1 0x24 DUP3 ADD MSTORE PUSH23 0x50726573616C65206973207374696C6C20616374697665 PUSH1 0x48 SHL PUSH1 0x44 DUP3 ADD MSTORE PUSH1 0x64 ADD PUSH2 0x579 JUMP JUMPDEST PUSH0 PUSH2 0x649 PUSH2 0x954 JUMP JUMPDEST SWAP1 POP DUP1 ISZERO PUSH2 0x6E0 JUMPI PUSH1 0x2 SLOAD PUSH1 0x4 DUP1 SLOAD PUSH1 0x40 MLOAD PUSH4 0xA9059CBB PUSH1 0xE0 SHL DUP2 MSTORE PUSH1 0x1 PUSH1 0x1 PUSH1 0xA0 SHL SUB SWAP2 DUP3 AND SWAP3 DUP2 ADD SWAP3 SWAP1 SWAP3 MSTORE PUSH1 0x24 DUP3 ADD DUP5 SWAP1 MSTORE SWAP1 SWAP2 AND SWAP1 PUSH4 0xA9059CBB SWAP1 PUSH1 0x44 ADD PUSH1 0x20 PUSH1 0x40 MLOAD DUP1 DUP4 SUB DUP2 PUSH0 DUP8 GAS CALL ISZERO DUP1 ISZERO PUSH2 0x6A7 JUMPI RETURNDATASIZE PUSH0 DUP1 RETURNDATACOPY RETURNDATASIZE PUSH0 REVERT JUMPDEST POP POP POP POP PUSH1 0x40 MLOAD RETURNDATASIZE PUSH1 0x1F NOT PUSH1 0x1F DUP3 ADD AND DUP3 ADD DUP1 PUSH1 0x40 MSTORE POP DUP2 ADD SWAP1 PUSH2 0x6CB SWAP2 SWAP1 PUSH2 0x163B JUMP JUMPDEST POP PUSH1 0x5 DUP1 SLOAD PUSH1 0xFF PUSH1 0xA0 SHL NOT AND PUSH1 0x1 PUSH1 0xA0 SHL OR SWAP1 SSTORE JUMPDEST POP JUMP JUMPDEST PUSH1 0x2C SLOAD TIMESTAMP GT PUSH2 0x72E JUMPI PUSH1 0x40 MLOAD PUSH3 0x461BCD PUSH1 0xE5 SHL DUP2 MSTORE PUSH1 0x20 PUSH1 0x4 DUP3 ADD MSTORE PUSH1 0x17 PUSH1 0x24 DUP3 ADD MSTORE PUSH23 0x50726573616C65206973207374696C6C20616374697665 PUSH1 0x48 SHL PUSH1 0x44 DUP3 ADD MSTORE PUSH1 0x64 ADD PUSH2 0x579 JUMP JUMPDEST PUSH1 0x2 PUSH1 0x1 SLOAD SUB PUSH2 0x780 JUMPI PUSH1 0x40 MLOAD PUSH3 0x461BCD PUSH1 0xE5 SHL DUP2 MSTORE PUSH1 0x20 PUSH1 0x4 DUP3 ADD MSTORE PUSH1 0x1F PUSH1 0x24 DUP3 ADD MSTORE PUSH32 0x5265656E7472616E637947756172643A207265656E7472616E742063616C6C00 PUSH1 0x44 DUP3 ADD MSTORE PUSH1 0x64 ADD PUSH2 0x579 JUMP JUMPDEST PUSH1 0x2 PUSH1 0x1 SSTORE PUSH1 0x29 SLOAD PUSH2 0x796 SWAP1 PUSH3 0x2A300 SWAP1 PUSH2 0x1628 JUMP JUMPDEST TIMESTAMP GT PUSH2 0x7E4 JUMPI PUSH1 0x40 MLOAD PUSH3 0x461BCD PUSH1 0xE5 SHL DUP2 MSTORE PUSH1 0x20 PUSH1 0x4 DUP3 ADD MSTORE PUSH1 0x18 PUSH1 0x24 DUP3 ADD MSTORE PUSH32 0x436C61696D20706572696F64206E6F7420737461727465640000000000000000 PUSH1 0x44 DUP3 ADD MSTORE PUSH1 0x64 ADD PUSH2 0x579 JUMP JUMPDEST CALLER PUSH0 SWAP1 DUP2 MSTORE PUSH1 0x2E PUSH1 0x20 MSTORE PUSH1 0x40 SWAP1 KECCAK256 SLOAD PUSH1 0xFF AND ISZERO PUSH2 0x83B JUMPI PUSH1 0x40 MLOAD PUSH3 0x461BCD PUSH1 0xE5 SHL DUP2 MSTORE PUSH1 0x20 PUSH1 0x4 DUP3 ADD MSTORE PUSH1 0x15 PUSH1 0x24 DUP3 ADD MSTORE PUSH21 0x11D15414DCC8185B1C9958591E4818DB185A5B5959 PUSH1 0x5A SHL PUSH1 0x44 DUP3 ADD MSTORE PUSH1 0x64 ADD PUSH2 0x579 JUMP JUMPDEST CALLER PUSH0 SWAP1 DUP2 MSTORE PUSH1 0x2D PUSH1 0x20 MSTORE PUSH1 0x40 SWAP1 KECCAK256 SLOAD DUP1 PUSH2 0x88B JUMPI PUSH1 0x40 MLOAD PUSH3 0x461BCD PUSH1 0xE5 SHL DUP2 MSTORE PUSH1 0x20 PUSH1 0x4 DUP3 ADD MSTORE PUSH1 0x11 PUSH1 0x24 DUP3 ADD MSTORE PUSH17 0x4E6F20474550537320746F20636C61696D PUSH1 0x78 SHL PUSH1 0x44 DUP3 ADD MSTORE PUSH1 0x64 ADD PUSH2 0x579 JUMP JUMPDEST CALLER PUSH0 DUP2 DUP2 MSTORE PUSH1 0x2E PUSH1 0x20 MSTORE PUSH1 0x40 SWAP1 DUP2 SWAP1 KECCAK256 DUP1 SLOAD PUSH1 0xFF NOT AND PUSH1 0x1 OR SWAP1 SSTORE PUSH1 0x2 SLOAD SWAP1 MLOAD PUSH4 0xA9059CBB PUSH1 0xE0 SHL DUP2 MSTORE PUSH1 0x4 DUP2 ADD SWAP3 SWAP1 SWAP3 MSTORE PUSH1 0x24 DUP3 ADD DUP4 SWAP1 MSTORE PUSH1 0x1 PUSH1 0x1 PUSH1 0xA0 SHL SUB AND SWAP1 PUSH4 0xA9059CBB SWAP1 PUSH1 0x44 ADD PUSH1 0x20 PUSH1 0x40 MLOAD DUP1 DUP4 SUB DUP2 PUSH0 DUP8 GAS CALL ISZERO DUP1 ISZERO PUSH2 0x8F3 JUMPI RETURNDATASIZE PUSH0 DUP1 RETURNDATACOPY RETURNDATASIZE PUSH0 REVERT JUMPDEST POP POP POP POP PUSH1 0x40 MLOAD RETURNDATASIZE PUSH1 0x1F NOT PUSH1 0x1F DUP3 ADD AND DUP3 ADD DUP1 PUSH1 0x40 MSTORE POP DUP2 ADD SWAP1 PUSH2 0x917 SWAP2 SWAP1 PUSH2 0x163B JUMP JUMPDEST POP PUSH1 0x40 MLOAD DUP2 DUP2 MSTORE CALLER SWAP1 PUSH32 0x7A99CB7540E04F139E8BEC2B914B561065E30819C986D0594DB010EB76E23A2E SWAP1 PUSH1 0x20 ADD PUSH1 0x40 MLOAD DUP1 SWAP2 SUB SWAP1 LOG2 POP PUSH1 0x1 DUP1 SSTORE JUMP JUMPDEST PUSH1 0x5 SLOAD PUSH0 SWAP1 DUP2 SWAP1 PUSH1 0x1 PUSH1 0xA0 SHL SWAP1 DIV PUSH1 0xFF AND PUSH2 0x9AD JUMPI PUSH0 JUMPDEST PUSH1 0x9 DUP2 LT ISZERO PUSH2 0x9AB JUMPI PUSH2 0x9A1 PUSH1 0x6 DUP3 PUSH1 0x9 DUP2 LT PUSH2 0x98A JUMPI PUSH2 0x98A PUSH2 0x1600 JUMP JUMPDEST PUSH1 0x4 MUL ADD PUSH1 0x1 ADD SLOAD DUP4 PUSH2 0x1209 SWAP1 SWAP2 SWAP1 PUSH4 0xFFFFFFFF AND JUMP JUMPDEST SWAP2 POP PUSH1 0x1 ADD PUSH2 0x96B JUMP JUMPDEST POP JUMPDEST SWAP2 SWAP1 POP JUMP JUMPDEST PUSH2 0x9BA PUSH2 0x11DD JUMP JUMPDEST DUP3 DUP2 EQ PUSH2 0x9F3 JUMPI PUSH1 0x40 MLOAD PUSH3 0x461BCD PUSH1 0xE5 SHL DUP2 MSTORE PUSH1 0x20 PUSH1 0x4 DUP3 ADD MSTORE PUSH1 0x7 PUSH1 0x24 DUP3 ADD MSTORE PUSH7 0x504643523A3031 PUSH1 0xC8 SHL PUSH1 0x44 DUP3 ADD MSTORE PUSH1 0x64 ADD PUSH2 0x579 JUMP JUMPDEST PUSH0 JUMPDEST DUP4 DUP2 LT ISZERO PUSH2 0xA8F JUMPI DUP3 DUP3 DUP3 DUP2 DUP2 LT PUSH2 0xA0F JUMPI PUSH2 0xA0F PUSH2 0x1600 JUMP JUMPDEST SWAP1 POP PUSH1 0x20 MUL ADD PUSH1 0x20 DUP2 ADD SWAP1 PUSH2 0xA24 SWAP2 SWAP1 PUSH2 0x13FD JUMP JUMPDEST PUSH1 0x2F DUP7 DUP7 DUP5 DUP2 DUP2 LT PUSH2 0xA38 JUMPI PUSH2 0xA38 PUSH2 0x1600 JUMP JUMPDEST SWAP1 POP PUSH1 0x20 MUL DUP2 ADD SWAP1 PUSH2 0xA4A SWAP2 SWAP1 PUSH2 0x165A JUMP JUMPDEST PUSH1 0x40 MLOAD PUSH2 0xA58 SWAP3 SWAP2 SWAP1 PUSH2 0x169D JUMP JUMPDEST SWAP1 DUP2 MSTORE PUSH1 0x40 MLOAD SWAP1 DUP2 SWAP1 SUB PUSH1 0x20 ADD SWAP1 KECCAK256 DUP1 SLOAD PUSH1 0x1 PUSH1 0x1 PUSH1 0xA0 SHL SUB SWAP3 SWAP1 SWAP3 AND PUSH1 0x1 PUSH1 0x1 PUSH1 0xA0 SHL SUB NOT SWAP1 SWAP3 AND SWAP2 SWAP1 SWAP2 OR SWAP1 SSTORE PUSH1 0x1 ADD PUSH2 0x9F5 JUMP JUMPDEST POP POP POP POP POP JUMP JUMPDEST PUSH1 0x2 PUSH1 0x1 SLOAD SUB PUSH2 0xAE8 JUMPI PUSH1 0x40 MLOAD PUSH3 0x461BCD PUSH1 0xE5 SHL DUP2 MSTORE PUSH1 0x20 PUSH1 0x4 DUP3 ADD MSTORE PUSH1 0x1F PUSH1 0x24 DUP3 ADD MSTORE PUSH32 0x5265656E7472616E637947756172643A207265656E7472616E742063616C6C00 PUSH1 0x44 DUP3 ADD MSTORE PUSH1 0x64 ADD PUSH2 0x579 JUMP JUMPDEST PUSH1 0x2 PUSH1 0x1 SSTORE PUSH1 0x2B SLOAD PUSH0 SUB PUSH2 0xB34 JUMPI PUSH1 0x40 MLOAD PUSH3 0x461BCD PUSH1 0xE5 SHL DUP2 MSTORE PUSH1 0x20 PUSH1 0x4 DUP3 ADD MSTORE PUSH1 0x13 PUSH1 0x24 DUP3 ADD MSTORE PUSH19 0x141C995CD85B1948139BDD081CDD185C9D1959 PUSH1 0x6A SHL PUSH1 0x44 DUP3 ADD MSTORE PUSH1 0x64 ADD PUSH2 0x579 JUMP JUMPDEST PUSH0 DUP3 GT PUSH2 0xB83 JUMPI PUSH1 0x40 MLOAD PUSH3 0x461BCD PUSH1 0xE5 SHL DUP2 MSTORE PUSH1 0x20 PUSH1 0x4 DUP3 ADD DUP2 SWAP1 MSTORE PUSH1 0x24 DUP3 ADD MSTORE PUSH32 0x416D6F756E74206D7573742062652067726561746572207468616E207A65726F PUSH1 0x44 DUP3 ADD MSTORE PUSH1 0x64 ADD PUSH2 0x579 JUMP JUMPDEST TIMESTAMP PUSH1 0x6 PUSH1 0x2A SLOAD PUSH1 0x9 DUP2 LT PUSH2 0xB99 JUMPI PUSH2 0xB99 PUSH2 0x1600 JUMP JUMPDEST PUSH1 0x4 MUL ADD PUSH1 0x3 ADD SLOAD GT PUSH2 0xC2D JUMPI PUSH1 0x2A SLOAD PUSH1 0x8 SUB PUSH2 0xC25 JUMPI TIMESTAMP PUSH1 0x6 PUSH1 0x2A SLOAD PUSH1 0x9 DUP2 LT PUSH2 0xBC6 JUMPI PUSH2 0xBC6 PUSH2 0x1600 JUMP JUMPDEST PUSH1 0x4 MUL ADD PUSH1 0x3 ADD DUP2 SWAP1 SSTORE POP PUSH1 0x6 PUSH1 0x2A SLOAD PUSH1 0x9 DUP2 LT PUSH2 0xBE6 JUMPI PUSH2 0xBE6 PUSH2 0x1600 JUMP JUMPDEST PUSH1 0x4 MUL ADD PUSH1 0x3 ADD SLOAD PUSH1 0x2C DUP2 SWAP1 SSTORE POP PUSH32 0x1EB1561F8507EB9BC6988331F66F369E75710F2B4B678AD5B4A52454B6636F5F PUSH1 0x40 MLOAD PUSH1 0x40 MLOAD DUP1 SWAP2 SUB SWAP1 LOG1 PUSH2 0xC2D JUMP JUMPDEST PUSH2 0xC2D PUSH2 0x121B JUMP JUMPDEST PUSH0 PUSH2 0xC38 DUP4 DUP4 PUSH2 0x10A0 JUMP JUMPDEST PUSH1 0x40 DUP1 MLOAD DUP1 DUP3 ADD SWAP1 SWAP2 MSTORE PUSH1 0x3 DUP2 MSTORE PUSH3 0x212721 PUSH1 0xE9 SHL PUSH1 0x20 SWAP2 DUP3 ADD MSTORE DUP4 MLOAD SWAP1 DUP5 ADD KECCAK256 SWAP1 SWAP2 POP PUSH32 0xC12FC3C71A6239F384963D5B409706DEB5326ACDAD4A56F170A0A6A7C1643C52 ADD PUSH2 0xD07 JUMPI DUP3 CALLVALUE LT ISZERO PUSH2 0xCCA JUMPI PUSH1 0x40 MLOAD PUSH3 0x461BCD PUSH1 0xE5 SHL DUP2 MSTORE PUSH1 0x20 PUSH1 0x4 DUP3 ADD MSTORE PUSH1 0x15 PUSH1 0x24 DUP3 ADD MSTORE PUSH21 0x125B9CDD59999A58DA595B9D08109390881CD95B9D PUSH1 0x5A SHL PUSH1 0x44 DUP3 ADD MSTORE PUSH1 0x64 ADD PUSH2 0x579 JUMP JUMPDEST PUSH1 0x5 SLOAD PUSH1 0x40 MLOAD PUSH1 0x1 PUSH1 0x1 PUSH1 0xA0 SHL SUB SWAP1 SWAP2 AND SWAP1 DUP5 ISZERO PUSH2 0x8FC MUL SWAP1 DUP6 SWAP1 PUSH0 DUP2 DUP2 DUP2 DUP6 DUP9 DUP9 CALL SWAP4 POP POP POP POP ISZERO DUP1 ISZERO PUSH2 0xD01 JUMPI RETURNDATASIZE PUSH0 DUP1 RETURNDATACOPY RETURNDATASIZE PUSH0 REVERT JUMPDEST POP PUSH2 0xE52 JUMP JUMPDEST PUSH1 0x40 DUP1 MLOAD DUP1 DUP3 ADD SWAP1 SWAP2 MSTORE PUSH1 0x4 DUP2 MSTORE PUSH4 0x109554D1 PUSH1 0xE2 SHL PUSH1 0x20 SWAP2 DUP3 ADD MSTORE DUP3 MLOAD SWAP1 DUP4 ADD KECCAK256 PUSH32 0xAB3AED538869B898D472FD1D01D23EF086440E608E62778DDE969DEA02DB160F ADD PUSH2 0xE13 JUMPI PUSH1 0x3 SLOAD PUSH1 0x5 SLOAD PUSH1 0x40 MLOAD PUSH4 0x23B872DD PUSH1 0xE0 SHL DUP2 MSTORE CALLER PUSH1 0x4 DUP3 ADD MSTORE PUSH1 0x1 PUSH1 0x1 PUSH1 0xA0 SHL SUB SWAP2 DUP3 AND PUSH1 0x24 DUP3 ADD MSTORE PUSH1 0x44 DUP2 ADD DUP7 SWAP1 MSTORE SWAP2 AND SWAP1 PUSH4 0x23B872DD SWAP1 PUSH1 0x64 ADD PUSH1 0x20 PUSH1 0x40 MLOAD DUP1 DUP4 SUB DUP2 PUSH0 DUP8 GAS CALL ISZERO DUP1 ISZERO PUSH2 0xDA7 JUMPI RETURNDATASIZE PUSH0 DUP1 RETURNDATACOPY RETURNDATASIZE PUSH0 REVERT JUMPDEST POP POP POP POP PUSH1 0x40 MLOAD RETURNDATASIZE PUSH1 0x1F NOT PUSH1 0x1F DUP3 ADD AND DUP3 ADD DUP1 PUSH1 0x40 MSTORE POP DUP2 ADD SWAP1 PUSH2 0xDCB SWAP2 SWAP1 PUSH2 0x163B JUMP JUMPDEST PUSH2 0xE0E JUMPI PUSH1 0x40 MLOAD PUSH3 0x461BCD PUSH1 0xE5 SHL DUP2 MSTORE PUSH1 0x20 PUSH1 0x4 DUP3 ADD MSTORE PUSH1 0x14 PUSH1 0x24 DUP3 ADD MSTORE PUSH20 0x109554D1081D1C985B9CD9995C8819985A5B1959 PUSH1 0x62 SHL PUSH1 0x44 DUP3 ADD MSTORE PUSH1 0x64 ADD PUSH2 0x579 JUMP JUMPDEST PUSH2 0xE52 JUMP JUMPDEST PUSH1 0x40 MLOAD PUSH3 0x461BCD PUSH1 0xE5 SHL DUP2 MSTORE PUSH1 0x20 PUSH1 0x4 DUP3 ADD MSTORE PUSH1 0x14 PUSH1 0x24 DUP3 ADD MSTORE PUSH20 0x556E737570706F727465642063757272656E6379 PUSH1 0x60 SHL PUSH1 0x44 DUP3 ADD MSTORE PUSH1 0x64 ADD PUSH2 0x579 JUMP JUMPDEST PUSH2 0xE5C CALLER DUP3 PUSH2 0x1296 JUMP JUMPDEST CALLER PUSH1 0x1 PUSH1 0x1 PUSH1 0xA0 SHL SUB AND PUSH32 0x97B8E46CE6A858394214FB0002594294805C68B044A2105798D860D0F922451A DUP3 DUP5 PUSH1 0x40 MLOAD PUSH2 0xE97 SWAP3 SWAP2 SWAP1 PUSH2 0x16AC JUMP JUMPDEST PUSH1 0x40 MLOAD DUP1 SWAP2 SUB SWAP1 LOG2 PUSH1 0x6 PUSH1 0x2A SLOAD PUSH1 0x9 DUP2 LT PUSH2 0xEB4 JUMPI PUSH2 0xEB4 PUSH2 0x1600 JUMP JUMPDEST PUSH1 0x4 MUL ADD PUSH1 0x1 ADD SLOAD PUSH0 SUB PUSH2 0xF49 JUMPI PUSH1 0x2A SLOAD PUSH1 0x8 SUB PUSH2 0xF41 JUMPI TIMESTAMP PUSH1 0x6 PUSH1 0x2A SLOAD PUSH1 0x9 DUP2 LT PUSH2 0xEE2 JUMPI PUSH2 0xEE2 PUSH2 0x1600 JUMP JUMPDEST PUSH1 0x4 MUL ADD PUSH1 0x3 ADD DUP2 SWAP1 SSTORE POP PUSH1 0x6 PUSH1 0x2A SLOAD PUSH1 0x9 DUP2 LT PUSH2 0xF02 JUMPI PUSH2 0xF02 PUSH2 0x1600 JUMP JUMPDEST PUSH1 0x4 MUL ADD PUSH1 0x3 ADD SLOAD PUSH1 0x2C DUP2 SWAP1 SSTORE POP PUSH32 0x1EB1561F8507EB9BC6988331F66F369E75710F2B4B678AD5B4A52454B6636F5F PUSH1 0x40 MLOAD PUSH1 0x40 MLOAD DUP1 SWAP2 SUB SWAP1 LOG1 PUSH2 0xF49 JUMP JUMPDEST PUSH2 0xF49 PUSH2 0x121B JUMP JUMPDEST POP POP PUSH1 0x1 DUP1 SSTORE POP JUMP JUMPDEST PUSH2 0xF5A PUSH2 0x11DD JUMP JUMPDEST PUSH1 0x2 DUP1 SLOAD PUSH1 0x1 PUSH1 0x1 PUSH1 0xA0 SHL SUB NOT AND PUSH1 0x1 PUSH1 0x1 PUSH1 0xA0 SHL SUB SWAP3 SWAP1 SWAP3 AND SWAP2 SWAP1 SWAP2 OR SWAP1 SSTORE JUMP JUMPDEST PUSH2 0xF84 PUSH2 0x11DD JUMP JUMPDEST PUSH2 0xF8D PUSH0 PUSH2 0x138F JUMP JUMPDEST JUMP JUMPDEST PUSH2 0xF97 PUSH2 0x11DD JUMP JUMPDEST PUSH1 0x1 PUSH1 0x1 PUSH1 0xA0 SHL SUB DUP2 AND PUSH2 0xFDF JUMPI PUSH1 0x40 MLOAD PUSH3 0x461BCD PUSH1 0xE5 SHL DUP2 MSTORE PUSH1 0x20 PUSH1 0x4 DUP3 ADD MSTORE PUSH1 0xF PUSH1 0x24 DUP3 ADD MSTORE PUSH15 0x496E76616C69642061646472657373 PUSH1 0x88 SHL PUSH1 0x44 DUP3 ADD MSTORE PUSH1 0x64 ADD PUSH2 0x579 JUMP JUMPDEST PUSH1 0x4 DUP1 SLOAD PUSH1 0x1 PUSH1 0x1 PUSH1 0xA0 SHL SUB NOT AND PUSH1 0x1 PUSH1 0x1 PUSH1 0xA0 SHL SUB SWAP3 SWAP1 SWAP3 AND SWAP2 SWAP1 SWAP2 OR SWAP1 SSTORE JUMP JUMPDEST PUSH1 0x6 DUP2 PUSH1 0x9 DUP2 LT PUSH2 0x1010 JUMPI PUSH0 DUP1 REVERT JUMPDEST PUSH1 0x4 MUL ADD DUP1 SLOAD PUSH1 0x1 DUP3 ADD SLOAD PUSH1 0x2 DUP4 ADD SLOAD PUSH1 0x3 SWAP1 SWAP4 ADD SLOAD SWAP2 SWAP4 POP SWAP2 SWAP1 DUP5 JUMP JUMPDEST PUSH2 0x1036 PUSH2 0x11DD JUMP JUMPDEST PUSH1 0x1 PUSH1 0x1 PUSH1 0xA0 SHL SUB DUP2 AND PUSH2 0x107E JUMPI PUSH1 0x40 MLOAD PUSH3 0x461BCD PUSH1 0xE5 SHL DUP2 MSTORE PUSH1 0x20 PUSH1 0x4 DUP3 ADD MSTORE PUSH1 0xF PUSH1 0x24 DUP3 ADD MSTORE PUSH15 0x496E76616C69642061646472657373 PUSH1 0x88 SHL PUSH1 0x44 DUP3 ADD MSTORE PUSH1 0x64 ADD PUSH2 0x579 JUMP JUMPDEST PUSH1 0x5 DUP1 SLOAD PUSH1 0x1 PUSH1 0x1 PUSH1 0xA0 SHL SUB NOT AND PUSH1 0x1 PUSH1 0x1 PUSH1 0xA0 SHL SUB SWAP3 SWAP1 SWAP3 AND SWAP2 SWAP1 SWAP2 OR SWAP1 SSTORE JUMP JUMPDEST PUSH0 DUP1 PUSH1 0x64 PUSH1 0x6 PUSH1 0x2A SLOAD PUSH1 0x9 DUP2 LT PUSH2 0x10B9 JUMPI PUSH2 0x10B9 PUSH2 0x1600 JUMP JUMPDEST PUSH1 0x4 MUL ADD SLOAD PUSH2 0x10D0 SWAP1 PUSH8 0xDE0B6B3A7640000 PUSH2 0x16E8 JUMP JUMPDEST PUSH2 0x10DA SWAP2 SWAP1 PUSH2 0x16FF JUMP JUMPDEST SWAP1 POP PUSH0 PUSH1 0x2F DUP5 PUSH1 0x40 MLOAD PUSH2 0x10ED SWAP2 SWAP1 PUSH2 0x171E JUMP JUMPDEST SWAP1 DUP2 MSTORE PUSH1 0x40 DUP1 MLOAD SWAP2 DUP3 SWAP1 SUB PUSH1 0x20 ADD DUP3 KECCAK256 SLOAD PUSH4 0x3FABE5A3 PUSH1 0xE2 SHL DUP4 MSTORE SWAP1 MLOAD PUSH1 0x1 PUSH1 0x1 PUSH1 0xA0 SHL SUB SWAP1 SWAP2 AND SWAP3 POP DUP3 SWAP2 PUSH0 SWAP2 DUP4 SWAP2 PUSH4 0xFEAF968C SWAP2 PUSH1 0x4 DUP1 DUP4 ADD SWAP3 PUSH1 0xA0 SWAP3 SWAP2 SWAP1 DUP3 SWAP1 SUB ADD DUP2 DUP7 GAS STATICCALL ISZERO DUP1 ISZERO PUSH2 0x1145 JUMPI RETURNDATASIZE PUSH0 DUP1 RETURNDATACOPY RETURNDATASIZE PUSH0 REVERT JUMPDEST POP POP POP POP PUSH1 0x40 MLOAD RETURNDATASIZE PUSH1 0x1F NOT PUSH1 0x1F DUP3 ADD AND DUP3 ADD DUP1 PUSH1 0x40 MSTORE POP DUP2 ADD SWAP1 PUSH2 0x1169 SWAP2 SWAP1 PUSH2 0x174D JUMP JUMPDEST POP POP POP SWAP2 POP POP PUSH0 DUP2 PUSH5 0x2540BE400 PUSH2 0x1181 SWAP2 SWAP1 PUSH2 0x16E8 JUMP JUMPDEST PUSH2 0x118B DUP7 DUP11 PUSH2 0x16FF JUMP JUMPDEST PUSH2 0x1195 SWAP2 SWAP1 PUSH2 0x16E8 JUMP JUMPDEST SWAP6 POP POP POP POP POP POP JUMPDEST SWAP3 SWAP2 POP POP JUMP JUMPDEST PUSH2 0x11AB PUSH2 0x11DD JUMP JUMPDEST PUSH1 0x1 PUSH1 0x1 PUSH1 0xA0 SHL SUB DUP2 AND PUSH2 0x11D4 JUMPI PUSH1 0x40 MLOAD PUSH4 0x1E4FBDF7 PUSH1 0xE0 SHL DUP2 MSTORE PUSH0 PUSH1 0x4 DUP3 ADD MSTORE PUSH1 0x24 ADD PUSH2 0x579 JUMP JUMPDEST PUSH2 0x6E0 DUP2 PUSH2 0x138F JUMP JUMPDEST PUSH0 SLOAD PUSH1 0x1 PUSH1 0x1 PUSH1 0xA0 SHL SUB AND CALLER EQ PUSH2 0xF8D JUMPI PUSH1 0x40 MLOAD PUSH4 0x118CDAA7 PUSH1 0xE0 SHL DUP2 MSTORE CALLER PUSH1 0x4 DUP3 ADD MSTORE PUSH1 0x24 ADD PUSH2 0x579 JUMP JUMPDEST PUSH0 PUSH2 0x1214 DUP3 DUP5 PUSH2 0x1628 JUMP JUMPDEST SWAP4 SWAP3 POP POP POP JUMP JUMPDEST PUSH2 0x1227 PUSH1 0x1 PUSH1 0x9 PUSH2 0x179B JUMP JUMPDEST PUSH1 0x2A SLOAD LT ISZERO PUSH2 0xF8D JUMPI PUSH1 0x2A DUP1 SLOAD SWAP1 PUSH0 PUSH2 0x123F DUP4 PUSH2 0x17AE JUMP JUMPDEST SWAP2 SWAP1 POP SSTORE POP TIMESTAMP PUSH1 0x6 PUSH1 0x2A SLOAD PUSH1 0x9 DUP2 LT PUSH2 0x125A JUMPI PUSH2 0x125A PUSH2 0x1600 JUMP JUMPDEST PUSH1 0x4 MUL ADD PUSH1 0x2 ADD DUP2 SWAP1 SSTORE POP PUSH3 0x34BC00 TIMESTAMP PUSH2 0x1274 SWAP2 SWAP1 PUSH2 0x1628 JUMP JUMPDEST PUSH1 0x6 PUSH1 0x2A SLOAD PUSH1 0x9 DUP2 LT PUSH2 0x1289 JUMPI PUSH2 0x1289 PUSH2 0x1600 JUMP JUMPDEST PUSH1 0x4 MUL ADD PUSH1 0x3 ADD DUP2 SWAP1 SSTORE POP JUMP JUMPDEST DUP1 PUSH1 0x6 PUSH1 0x2A SLOAD PUSH1 0x9 DUP2 LT PUSH2 0x12AC JUMPI PUSH2 0x12AC PUSH2 0x1600 JUMP JUMPDEST PUSH1 0x4 MUL ADD PUSH1 0x1 ADD SLOAD LT ISZERO PUSH2 0x1302 JUMPI PUSH1 0x40 MLOAD PUSH3 0x461BCD PUSH1 0xE5 SHL DUP2 MSTORE PUSH1 0x20 PUSH1 0x4 DUP3 ADD MSTORE PUSH1 0x1A PUSH1 0x24 DUP3 ADD MSTORE PUSH32 0x4E6F7420656E6F75676820474550537320617661696C61626C65000000000000 PUSH1 0x44 DUP3 ADD MSTORE PUSH1 0x64 ADD PUSH2 0x579 JUMP JUMPDEST PUSH2 0x1331 DUP2 PUSH1 0x6 PUSH1 0x2A SLOAD PUSH1 0x9 DUP2 LT PUSH2 0x131B JUMPI PUSH2 0x131B PUSH2 0x1600 JUMP JUMPDEST PUSH1 0x4 MUL ADD PUSH1 0x1 ADD SLOAD PUSH2 0x13DE SWAP1 SWAP2 SWAP1 PUSH4 0xFFFFFFFF AND JUMP JUMPDEST PUSH1 0x6 PUSH1 0x2A SLOAD PUSH1 0x9 DUP2 LT PUSH2 0x1346 JUMPI PUSH2 0x1346 PUSH2 0x1600 JUMP JUMPDEST PUSH1 0x4 MUL ADD PUSH1 0x1 ADD SSTORE PUSH1 0x1 PUSH1 0x1 PUSH1 0xA0 SHL SUB DUP3 AND PUSH0 SWAP1 DUP2 MSTORE PUSH1 0x2D PUSH1 0x20 MSTORE PUSH1 0x40 SWAP1 KECCAK256 SLOAD PUSH2 0x1370 SWAP1 DUP3 PUSH2 0x1209 JUMP JUMPDEST PUSH1 0x1 PUSH1 0x1 PUSH1 0xA0 SHL SUB SWAP1 SWAP3 AND PUSH0 SWAP1 DUP2 MSTORE PUSH1 0x2D PUSH1 0x20 MSTORE PUSH1 0x40 SWAP1 KECCAK256 SWAP2 SWAP1 SWAP2 SSTORE POP JUMP JUMPDEST PUSH0 DUP1 SLOAD PUSH1 0x1 PUSH1 0x1 PUSH1 0xA0 SHL SUB DUP4 DUP2 AND PUSH1 0x1 PUSH1 0x1 PUSH1 0xA0 SHL SUB NOT DUP4 AND DUP2 OR DUP5 SSTORE PUSH1 0x40 MLOAD SWAP2 SWAP1 SWAP3 AND SWAP3 DUP4 SWAP2 PUSH32 0x8BE0079C531659141344CD1FD0A4F28419497F9722A3DAAFE3B4186F6B6457E0 SWAP2 SWAP1 LOG3 POP POP JUMP JUMPDEST PUSH0 PUSH2 0x1214 DUP3 DUP5 PUSH2 0x179B JUMP JUMPDEST PUSH1 0x1 PUSH1 0x1 PUSH1 0xA0 SHL SUB DUP2 AND DUP2 EQ PUSH2 0x6E0 JUMPI PUSH0 DUP1 REVERT JUMPDEST PUSH0 PUSH1 0x20 DUP3 DUP5 SUB SLT ISZERO PUSH2 0x140D JUMPI PUSH0 DUP1 REVERT JUMPDEST DUP2 CALLDATALOAD PUSH2 0x1214 DUP2 PUSH2 0x13E9 JUMP JUMPDEST PUSH0 DUP1 DUP4 PUSH1 0x1F DUP5 ADD SLT PUSH2 0x1428 JUMPI PUSH0 DUP1 REVERT JUMPDEST POP DUP2 CALLDATALOAD PUSH8 0xFFFFFFFFFFFFFFFF DUP2 GT ISZERO PUSH2 0x143F JUMPI PUSH0 DUP1 REVERT JUMPDEST PUSH1 0x20 DUP4 ADD SWAP2 POP DUP4 PUSH1 0x20 DUP3 PUSH1 0x5 SHL DUP6 ADD ADD GT ISZERO PUSH2 0x1459 JUMPI PUSH0 DUP1 REVERT JUMPDEST SWAP3 POP SWAP3 SWAP1 POP JUMP JUMPDEST PUSH0 DUP1 PUSH0 DUP1 PUSH1 0x40 DUP6 DUP8 SUB SLT ISZERO PUSH2 0x1473 JUMPI PUSH0 DUP1 REVERT JUMPDEST DUP5 CALLDATALOAD PUSH8 0xFFFFFFFFFFFFFFFF DUP2 GT ISZERO PUSH2 0x1489 JUMPI PUSH0 DUP1 REVERT JUMPDEST PUSH2 0x1495 DUP8 DUP3 DUP9 ADD PUSH2 0x1418 JUMP JUMPDEST SWAP1 SWAP6 POP SWAP4 POP POP PUSH1 0x20 DUP6 ADD CALLDATALOAD PUSH8 0xFFFFFFFFFFFFFFFF DUP2 GT ISZERO PUSH2 0x14B4 JUMPI PUSH0 DUP1 REVERT JUMPDEST PUSH2 0x14C0 DUP8 DUP3 DUP9 ADD PUSH2 0x1418 JUMP JUMPDEST SWAP6 SWAP9 SWAP5 SWAP8 POP SWAP6 POP POP POP POP JUMP JUMPDEST PUSH4 0x4E487B71 PUSH1 0xE0 SHL PUSH0 MSTORE PUSH1 0x41 PUSH1 0x4 MSTORE PUSH1 0x24 PUSH0 REVERT JUMPDEST PUSH0 DUP3 PUSH1 0x1F DUP4 ADD SLT PUSH2 0x14EF JUMPI PUSH0 DUP1 REVERT JUMPDEST DUP2 CALLDATALOAD PUSH8 0xFFFFFFFFFFFFFFFF DUP2 GT ISZERO PUSH2 0x1509 JUMPI PUSH2 0x1509 PUSH2 0x14CC JUMP JUMPDEST PUSH1 0x40 MLOAD PUSH1 0x1F DUP3 ADD PUSH1 0x1F NOT SWAP1 DUP2 AND PUSH1 0x3F ADD AND DUP2 ADD PUSH8 0xFFFFFFFFFFFFFFFF DUP2 GT DUP3 DUP3 LT OR ISZERO PUSH2 0x1538 JUMPI PUSH2 0x1538 PUSH2 0x14CC JUMP JUMPDEST PUSH1 0x40 MSTORE DUP2 DUP2 MSTORE DUP4 DUP3 ADD PUSH1 0x20 ADD DUP6 LT ISZERO PUSH2 0x154F JUMPI PUSH0 DUP1 REVERT JUMPDEST DUP2 PUSH1 0x20 DUP6 ADD PUSH1 0x20 DUP4 ADD CALLDATACOPY PUSH0 SWAP2 DUP2 ADD PUSH1 0x20 ADD SWAP2 SWAP1 SWAP2 MSTORE SWAP4 SWAP3 POP POP POP JUMP JUMPDEST PUSH0 DUP1 PUSH1 0x40 DUP4 DUP6 SUB SLT ISZERO PUSH2 0x157C JUMPI PUSH0 DUP1 REVERT JUMPDEST DUP3 CALLDATALOAD SWAP2 POP PUSH1 0x20 DUP4 ADD CALLDATALOAD PUSH8 0xFFFFFFFFFFFFFFFF DUP2 GT ISZERO PUSH2 0x1599 JUMPI PUSH0 DUP1 REVERT JUMPDEST PUSH2 0x15A5 DUP6 DUP3 DUP7 ADD PUSH2 0x14E0 JUMP JUMPDEST SWAP2 POP POP SWAP3 POP SWAP3 SWAP1 POP JUMP JUMPDEST PUSH0 PUSH1 0x20 DUP3 DUP5 SUB SLT ISZERO PUSH2 0x15BF JUMPI PUSH0 DUP1 REVERT JUMPDEST POP CALLDATALOAD SWAP2 SWAP1 POP JUMP JUMPDEST PUSH0 PUSH1 0x20 DUP3 DUP5 SUB SLT ISZERO PUSH2 0x15D6 JUMPI PUSH0 DUP1 REVERT JUMPDEST DUP2 CALLDATALOAD PUSH8 0xFFFFFFFFFFFFFFFF DUP2 GT ISZERO PUSH2 0x15EC JUMPI PUSH0 DUP1 REVERT JUMPDEST PUSH2 0x15F8 DUP5 DUP3 DUP6 ADD PUSH2 0x14E0 JUMP JUMPDEST SWAP5 SWAP4 POP POP POP POP JUMP JUMPDEST PUSH4 0x4E487B71 PUSH1 0xE0 SHL PUSH0 MSTORE PUSH1 0x32 PUSH1 0x4 MSTORE PUSH1 0x24 PUSH0 REVERT JUMPDEST PUSH4 0x4E487B71 PUSH1 0xE0 SHL PUSH0 MSTORE PUSH1 0x11 PUSH1 0x4 MSTORE PUSH1 0x24 PUSH0 REVERT JUMPDEST DUP1 DUP3 ADD DUP1 DUP3 GT ISZERO PUSH2 0x119D JUMPI PUSH2 0x119D PUSH2 0x1614 JUMP JUMPDEST PUSH0 PUSH1 0x20 DUP3 DUP5 SUB SLT ISZERO PUSH2 0x164B JUMPI PUSH0 DUP1 REVERT JUMPDEST DUP2 MLOAD DUP1 ISZERO ISZERO DUP2 EQ PUSH2 0x1214 JUMPI PUSH0 DUP1 REVERT JUMPDEST PUSH0 DUP1 DUP4 CALLDATALOAD PUSH1 0x1E NOT DUP5 CALLDATASIZE SUB ADD DUP2 SLT PUSH2 0x166F JUMPI PUSH0 DUP1 REVERT JUMPDEST DUP4 ADD DUP1 CALLDATALOAD SWAP2 POP PUSH8 0xFFFFFFFFFFFFFFFF DUP3 GT ISZERO PUSH2 0x1689 JUMPI PUSH0 DUP1 REVERT JUMPDEST PUSH1 0x20 ADD SWAP2 POP CALLDATASIZE DUP2 SWAP1 SUB DUP3 SGT ISZERO PUSH2 0x1459 JUMPI PUSH0 DUP1 REVERT JUMPDEST DUP2 DUP4 DUP3 CALLDATACOPY PUSH0 SWAP2 ADD SWAP1 DUP2 MSTORE SWAP2 SWAP1 POP JUMP JUMPDEST DUP3 DUP2 MSTORE PUSH1 0x40 PUSH1 0x20 DUP3 ADD MSTORE PUSH0 DUP3 MLOAD DUP1 PUSH1 0x40 DUP5 ADD MSTORE DUP1 PUSH1 0x20 DUP6 ADD PUSH1 0x60 DUP6 ADD MCOPY PUSH0 PUSH1 0x60 DUP3 DUP6 ADD ADD MSTORE PUSH1 0x60 PUSH1 0x1F NOT PUSH1 0x1F DUP4 ADD AND DUP5 ADD ADD SWAP2 POP POP SWAP4 SWAP3 POP POP POP JUMP JUMPDEST DUP1 DUP3 MUL DUP2 ISZERO DUP3 DUP3 DIV DUP5 EQ OR PUSH2 0x119D JUMPI PUSH2 0x119D PUSH2 0x1614 JUMP JUMPDEST PUSH0 DUP3 PUSH2 0x1719 JUMPI PUSH4 0x4E487B71 PUSH1 0xE0 SHL PUSH0 MSTORE PUSH1 0x12 PUSH1 0x4 MSTORE PUSH1 0x24 PUSH0 REVERT JUMPDEST POP DIV SWAP1 JUMP JUMPDEST PUSH0 DUP3 MLOAD DUP1 PUSH1 0x20 DUP6 ADD DUP5 MCOPY PUSH0 SWAP3 ADD SWAP2 DUP3 MSTORE POP SWAP2 SWAP1 POP JUMP JUMPDEST DUP1 MLOAD PUSH10 0xFFFFFFFFFFFFFFFFFFFF DUP2 AND DUP2 EQ PUSH2 0x9AD JUMPI PUSH0 DUP1 REVERT JUMPDEST PUSH0 DUP1 PUSH0 DUP1 PUSH0 PUSH1 0xA0 DUP7 DUP9 SUB SLT ISZERO PUSH2 0x1761 JUMPI PUSH0 DUP1 REVERT JUMPDEST PUSH2 0x176A DUP7 PUSH2 0x1734 JUMP JUMPDEST PUSH1 0x20 DUP8 ADD MLOAD PUSH1 0x40 DUP9 ADD MLOAD PUSH1 0x60 DUP10 ADD MLOAD SWAP3 SWAP8 POP SWAP1 SWAP6 POP SWAP4 POP SWAP2 POP PUSH2 0x178F PUSH1 0x80 DUP8 ADD PUSH2 0x1734 JUMP JUMPDEST SWAP1 POP SWAP3 SWAP6 POP SWAP3 SWAP6 SWAP1 SWAP4 POP JUMP JUMPDEST DUP2 DUP2 SUB DUP2 DUP2 GT ISZERO PUSH2 0x119D JUMPI PUSH2 0x119D PUSH2 0x1614 JUMP JUMPDEST PUSH0 PUSH1 0x1 DUP3 ADD PUSH2 0x17BF JUMPI PUSH2 0x17BF PUSH2 0x1614 JUMP JUMPDEST POP PUSH1 0x1 ADD SWAP1 JUMP INVALID LOG2 PUSH5 0x6970667358 0x22 SLT KECCAK256 EXTCODEHASH SWAP4 0xBB 0xAE TIMESTAMP 0xDB CREATE 0xE9 MOD 0x1E 0xCA 0xA5 PUSH6 0x2721FFB332E4 SAR 0xEE COINBASE SWAP12 0xDC ORIGIN SUB EXTCODECOPY EXTCODECOPY 0xBE 0xEE POP 0xE8 PUSH5 0x736F6C6343 STOP ADDMOD BYTE STOP CALLER "
		},
		"gasEstimates": {
			"creation": {
				"codeDepositCost": "1228000",
				"executionCost": "infinite",
				"totalCost": "infinite"
			},
			"external": {
				"CLAIM_DELAY()": "238",
				"GEPS()": "2404",
				"MAX_STAGE()": "240",
				"STAGE_DURATION()": "284",
				"busd()": "2448",
				"buyGEPS(uint256,string)": "infinite",
				"calculateGEPS(uint256,string)": "infinite",
				"claimGEPSs()": "infinite",
				"currentStage()": "2383",
				"getCurrentStage()": "2357",
				"getUnsoldGEPSs()": "infinite",
				"hasClaimed(address)": "2556",
				"initialiseTokens(string[],address[])": "infinite",
				"owner()": "2440",
				"presaleEndTime()": "2384",
				"presaleStartTime()": "2383",
				"purchasedGEPSs(address)": "2556",
				"renounceOwnership()": "infinite",
				"setGEPSToken(address)": "26794",
				"stages(uint256)": "8912",
				"startPresale()": "78807",
				"tokenOracles(string)": "infinite",
				"transferOwnership(address)": "infinite",
				"transferUnsoldGEPSsToTreasury()": "infinite",
				"treasury()": "2447",
				"unsoldGEPSTransferred()": "2384",
				"updatePresaleWallet(address)": "26806",
				"updateTreasuryAddress(address)": "26828"
			},
			"internal": {
				"advanceStage()": "infinite",
				"allocateGEPSs(address,uint256)": "infinite",
				"initializeStages()": "infinite"
			}
		},
		"methodIdentifiers": {
			"CLAIM_DELAY()": "e18132c4",
			"GEPS()": "1c2dda48",
			"MAX_STAGE()": "3ea92d73",
			"STAGE_DURATION()": "51f9efde",
			"busd()": "3ca5b234",
			"buyGEPS(uint256,string)": "67faa4b6",
			"calculateGEPS(uint256,string)": "a5aec846",
			"claimGEPSs()": "3f957b0d",
			"currentStage()": "5bf5d54c",
			"getCurrentStage()": "eedbe31d",
			"getUnsoldGEPSs()": "54c4152e",
			"hasClaimed(address)": "73b2e80e",
			"initialiseTokens(string[],address[])": "59ac5e18",
			"owner()": "8da5cb5b",
			"presaleEndTime()": "249b7c19",
			"presaleStartTime()": "a82524b2",
			"purchasedGEPSs(address)": "1a8a63eb",
			"renounceOwnership()": "715018a6",
			"setGEPSToken(address)": "6e14600f",
			"stages(uint256)": "845ddcb2",
			"startPresale()": "04c98b2b",
			"tokenOracles(string)": "f94f983a",
			"transferOwnership(address)": "f2fde38b",
			"transferUnsoldGEPSsToTreasury()": "0f1c7769",
			"treasury()": "61d027b3",
			"unsoldGEPSTransferred()": "0c454721",
			"updatePresaleWallet(address)": "8e17c017",
			"updateTreasuryAddress(address)": "841e4561"
		}
	},
	"abi": [
		{
			"inputs": [
				{
					"internalType": "address",
					"name": "_busd",
					"type": "address"
				},
				{
					"internalType": "address",
					"name": "_treasury",
					"type": "address"
				},
				{
					"internalType": "address payable",
					"name": "_presaleWallet",
					"type": "address"
				}
			],
			"stateMutability": "nonpayable",
			"type": "constructor"
		},
		{
			"inputs": [
				{
					"internalType": "address",
					"name": "owner",
					"type": "address"
				}
			],
			"name": "OwnableInvalidOwner",
			"type": "error"
		},
		{
			"inputs": [
				{
					"internalType": "address",
					"name": "account",
					"type": "address"
				}
			],
			"name": "OwnableUnauthorizedAccount",
			"type": "error"
		},
		{
			"anonymous": false,
			"inputs": [
				{
					"indexed": true,
					"internalType": "address",
					"name": "user",
					"type": "address"
				},
				{
					"indexed": false,
					"internalType": "uint256",
					"name": "amount",
					"type": "uint256"
				}
			],
			"name": "GEPSsClaimed",
			"type": "event"
		},
		{
			"anonymous": false,
			"inputs": [
				{
					"indexed": true,
					"internalType": "address",
					"name": "buyer",
					"type": "address"
				},
				{
					"indexed": false,
					"internalType": "uint256",
					"name": "amount",
					"type": "uint256"
				},
				{
					"indexed": false,
					"internalType": "string",
					"name": "currency",
					"type": "string"
				}
			],
			"name": "GEPSsPurchased",
			"type": "event"
		},
		{
			"anonymous": false,
			"inputs": [
				{
					"indexed": true,
					"internalType": "address",
					"name": "previousOwner",
					"type": "address"
				},
				{
					"indexed": true,
					"internalType": "address",
					"name": "newOwner",
					"type": "address"
				}
			],
			"name": "OwnershipTransferred",
			"type": "event"
		},
		{
			"anonymous": false,
			"inputs": [],
			"name": "PresaleEnded",
			"type": "event"
		},
		{
			"anonymous": false,
			"inputs": [],
			"name": "PresaleStarted",
			"type": "event"
		},
		{
			"inputs": [],
			"name": "CLAIM_DELAY",
			"outputs": [
				{
					"internalType": "uint256",
					"name": "",
					"type": "uint256"
				}
			],
			"stateMutability": "view",
			"type": "function"
		},
		{
			"inputs": [],
			"name": "GEPS",
			"outputs": [
				{
					"internalType": "contract IERC20",
					"name": "",
					"type": "address"
				}
			],
			"stateMutability": "view",
			"type": "function"
		},
		{
			"inputs": [],
			"name": "MAX_STAGE",
			"outputs": [
				{
					"internalType": "uint256",
					"name": "",
					"type": "uint256"
				}
			],
			"stateMutability": "view",
			"type": "function"
		},
		{
			"inputs": [],
			"name": "STAGE_DURATION",
			"outputs": [
				{
					"internalType": "uint256",
					"name": "",
					"type": "uint256"
				}
			],
			"stateMutability": "view",
			"type": "function"
		},
		{
			"inputs": [],
			"name": "busd",
			"outputs": [
				{
					"internalType": "contract IERC20",
					"name": "",
					"type": "address"
				}
			],
			"stateMutability": "view",
			"type": "function"
		},
		{
			"inputs": [
				{
					"internalType": "uint256",
					"name": "amount",
					"type": "uint256"
				},
				{
					"internalType": "string",
					"name": "currency",
					"type": "string"
				}
			],
			"name": "buyGEPS",
			"outputs": [],
			"stateMutability": "payable",
			"type": "function"
		},
		{
			"inputs": [
				{
					"internalType": "uint256",
					"name": "amount",
					"type": "uint256"
				},
				{
					"internalType": "string",
					"name": "_paymentToken",
					"type": "string"
				}
			],
			"name": "calculateGEPS",
			"outputs": [
				{
					"internalType": "uint256",
					"name": "",
					"type": "uint256"
				}
			],
			"stateMutability": "view",
			"type": "function"
		},
		{
			"inputs": [],
			"name": "claimGEPSs",
			"outputs": [],
			"stateMutability": "nonpayable",
			"type": "function"
		},
		{
			"inputs": [],
			"name": "currentStage",
			"outputs": [
				{
					"internalType": "uint256",
					"name": "",
					"type": "uint256"
				}
			],
			"stateMutability": "view",
			"type": "function"
		},
		{
			"inputs": [],
			"name": "getCurrentStage",
			"outputs": [
				{
					"internalType": "uint256",
					"name": "",
					"type": "uint256"
				}
			],
			"stateMutability": "view",
			"type": "function"
		},
		{
			"inputs": [],
			"name": "getUnsoldGEPSs",
			"outputs": [
				{
					"internalType": "uint256",
					"name": "",
					"type": "uint256"
				}
			],
			"stateMutability": "view",
			"type": "function"
		},
		{
			"inputs": [
				{
					"internalType": "address",
					"name": "",
					"type": "address"
				}
			],
			"name": "hasClaimed",
			"outputs": [
				{
					"internalType": "bool",
					"name": "",
					"type": "bool"
				}
			],
			"stateMutability": "view",
			"type": "function"
		},
		{
			"inputs": [
				{
					"internalType": "string[]",
					"name": "_tokenName",
					"type": "string[]"
				},
				{
					"internalType": "address[]",
					"name": "_oracleAddress",
					"type": "address[]"
				}
			],
			"name": "initialiseTokens",
			"outputs": [],
			"stateMutability": "nonpayable",
			"type": "function"
		},
		{
			"inputs": [],
			"name": "owner",
			"outputs": [
				{
					"internalType": "address",
					"name": "",
					"type": "address"
				}
			],
			"stateMutability": "view",
			"type": "function"
		},
		{
			"inputs": [],
			"name": "presaleEndTime",
			"outputs": [
				{
					"internalType": "uint256",
					"name": "",
					"type": "uint256"
				}
			],
			"stateMutability": "view",
			"type": "function"
		},
		{
			"inputs": [],
			"name": "presaleStartTime",
			"outputs": [
				{
					"internalType": "uint256",
					"name": "",
					"type": "uint256"
				}
			],
			"stateMutability": "view",
			"type": "function"
		},
		{
			"inputs": [
				{
					"internalType": "address",
					"name": "",
					"type": "address"
				}
			],
			"name": "purchasedGEPSs",
			"outputs": [
				{
					"internalType": "uint256",
					"name": "",
					"type": "uint256"
				}
			],
			"stateMutability": "view",
			"type": "function"
		},
		{
			"inputs": [],
			"name": "renounceOwnership",
			"outputs": [],
			"stateMutability": "nonpayable",
			"type": "function"
		},
		{
			"inputs": [
				{
					"internalType": "address",
					"name": "_geps",
					"type": "address"
				}
			],
			"name": "setGEPSToken",
			"outputs": [],
			"stateMutability": "nonpayable",
			"type": "function"
		},
		{
			"inputs": [
				{
					"internalType": "uint256",
					"name": "",
					"type": "uint256"
				}
			],
			"name": "stages",
			"outputs": [
				{
					"internalType": "uint256",
					"name": "price",
					"type": "uint256"
				},
				{
					"internalType": "uint256",
					"name": "GEPSsAvailable",
					"type": "uint256"
				},
				{
					"internalType": "uint256",
					"name": "startTime",
					"type": "uint256"
				},
				{
					"internalType": "uint256",
					"name": "endTime",
					"type": "uint256"
				}
			],
			"stateMutability": "view",
			"type": "function"
		},
		{
			"inputs": [],
			"name": "startPresale",
			"outputs": [],
			"stateMutability": "nonpayable",
			"type": "function"
		},
		{
			"inputs": [
				{
					"internalType": "string",
					"name": "",
					"type": "string"
				}
			],
			"name": "tokenOracles",
			"outputs": [
				{
					"internalType": "address",
					"name": "",
					"type": "address"
				}
			],
			"stateMutability": "view",
			"type": "function"
		},
		{
			"inputs": [
				{
					"internalType": "address",
					"name": "newOwner",
					"type": "address"
				}
			],
			"name": "transferOwnership",
			"outputs": [],
			"stateMutability": "nonpayable",
			"type": "function"
		},
		{
			"inputs": [],
			"name": "transferUnsoldGEPSsToTreasury",
			"outputs": [],
			"stateMutability": "nonpayable",
			"type": "function"
		},
		{
			"inputs": [],
			"name": "treasury",
			"outputs": [
				{
					"internalType": "address",
					"name": "",
					"type": "address"
				}
			],
			"stateMutability": "view",
			"type": "function"
		},
		{
			"inputs": [],
			"name": "unsoldGEPSTransferred",
			"outputs": [
				{
					"internalType": "bool",
					"name": "",
					"type": "bool"
				}
			],
			"stateMutability": "view",
			"type": "function"
		},
		{
			"inputs": [
				{
					"internalType": "address payable",
					"name": "_presaleWallet",
					"type": "address"
				}
			],
			"name": "updatePresaleWallet",
			"outputs": [],
			"stateMutability": "nonpayable",
			"type": "function"
		},
		{
			"inputs": [
				{
					"internalType": "address",
					"name": "newAddress",
					"type": "address"
				}
			],
			"name": "updateTreasuryAddress",
			"outputs": [],
			"stateMutability": "nonpayable",
			"type": "function"
		}
	]
}